{
	"sendtosend.sol": {
		"status": {
			"abi": [
				{
					"anonymous": false,
					"inputs": [
						{
							"indexed": false,
							"internalType": "address",
							"name": "from",
							"type": "address"
						},
						{
							"indexed": false,
							"internalType": "address",
							"name": "to",
							"type": "address"
						},
						{
							"indexed": false,
							"internalType": "uint256",
							"name": "amount",
							"type": "uint256"
						}
					],
					"name": "Sent",
					"type": "event"
				},
				{
					"anonymous": false,
					"inputs": [
						{
							"indexed": false,
							"internalType": "uint256",
							"name": "_value",
							"type": "uint256"
						}
					],
					"name": "howMuch",
					"type": "event"
				},
				{
					"inputs": [
						{
							"internalType": "address",
							"name": "",
							"type": "address"
						}
					],
					"name": "getInfoByWallet",
					"outputs": [
						{
							"internalType": "string",
							"name": "name",
							"type": "string"
						},
						{
							"internalType": "uint256",
							"name": "StudentID",
							"type": "uint256"
						},
						{
							"internalType": "string",
							"name": "major",
							"type": "string"
						},
						{
							"internalType": "uint256",
							"name": "gpa",
							"type": "uint256"
						},
						{
							"internalType": "string",
							"name": "company",
							"type": "string"
						},
						{
							"internalType": "uint256",
							"name": "balance",
							"type": "uint256"
						}
					],
					"stateMutability": "view",
					"type": "function"
				},
				{
					"inputs": [
						{
							"internalType": "address",
							"name": "receiver",
							"type": "address"
						},
						{
							"internalType": "uint256",
							"name": "amount",
							"type": "uint256"
						}
					],
					"name": "send",
					"outputs": [],
					"stateMutability": "payable",
					"type": "function"
				},
				{
					"inputs": [
						{
							"internalType": "address payable",
							"name": "receiver",
							"type": "address"
						}
					],
					"name": "sendNow",
					"outputs": [],
					"stateMutability": "payable",
					"type": "function"
				},
				{
					"inputs": [
						{
							"internalType": "address",
							"name": "_addr",
							"type": "address"
						},
						{
							"internalType": "string",
							"name": "_name",
							"type": "string"
						},
						{
							"internalType": "uint256",
							"name": "_StudentID",
							"type": "uint256"
						},
						{
							"internalType": "string",
							"name": "_major",
							"type": "string"
						},
						{
							"internalType": "uint256",
							"name": "_gpa",
							"type": "uint256"
						},
						{
							"internalType": "string",
							"name": "_company",
							"type": "string"
						}
					],
					"name": "setInfo",
					"outputs": [],
					"stateMutability": "payable",
					"type": "function"
				}
			],
			"devdoc": {
				"kind": "dev",
				"methods": {},
				"version": 1
			},
			"evm": {
				"assembly": "    /* \"sendtosend.sol\":72:1500  contract status{\r... */\n  mstore(0x40, 0x80)\n    /* \"sendtosend.sol\":453:469  string name = \"\" */\n  mload(0x40)\n  dup1\n  0x20\n  add\n  0x40\n  mstore\n  dup1\n  0x00\n  dup2\n  mstore\n  pop\n  0x00\n  swap1\n  dup1\n  mload\n  swap1\n  0x20\n  add\n  swap1\n  tag_1\n  swap3\n  swap2\n  swap1\n  tag_2\n  jump\t// in\ntag_1:\n  pop\n    /* \"sendtosend.sol\":494:495  0 */\n  0x00\n    /* \"sendtosend.sol\":476:495  uint256 balance = 0 */\n  0x01\n  sstore\n    /* \"sendtosend.sol\":72:1500  contract status{\r... */\n  callvalue\n  dup1\n  iszero\n  tag_3\n  jumpi\n  0x00\n  dup1\n  revert\ntag_3:\n  pop\n  jump(tag_4)\ntag_2:\n  dup3\n  dup1\n  sload\n  tag_5\n  swap1\n  tag_6\n  jump\t// in\ntag_5:\n  swap1\n  0x00\n  mstore\n  keccak256(0x00, 0x20)\n  swap1\n  0x1f\n  add\n  0x20\n  swap1\n  div\n  dup2\n  add\n  swap3\n  dup3\n  tag_8\n  jumpi\n  0x00\n  dup6\n  sstore\n  jump(tag_7)\ntag_8:\n  dup3\n  0x1f\n  lt\n  tag_9\n  jumpi\n  dup1\n  mload\n  not(0xff)\n  and\n  dup4\n  dup1\n  add\n  or\n  dup6\n  sstore\n  jump(tag_7)\ntag_9:\n  dup3\n  dup1\n  add\n  0x01\n  add\n  dup6\n  sstore\n  dup3\n  iszero\n  tag_7\n  jumpi\n  swap2\n  dup3\n  add\ntag_10:\n  dup3\n  dup2\n  gt\n  iszero\n  tag_11\n  jumpi\n  dup3\n  mload\n  dup3\n  sstore\n  swap2\n  0x20\n  add\n  swap2\n  swap1\n  0x01\n  add\n  swap1\n  jump(tag_10)\ntag_11:\ntag_7:\n  pop\n  swap1\n  pop\n  tag_12\n  swap2\n  swap1\n  tag_13\n  jump\t// in\ntag_12:\n  pop\n  swap1\n  jump\t// out\ntag_13:\ntag_14:\n  dup1\n  dup3\n  gt\n  iszero\n  tag_15\n  jumpi\n  0x00\n  dup2\n  0x00\n  swap1\n  sstore\n  pop\n  0x01\n  add\n  jump(tag_14)\ntag_15:\n  pop\n  swap1\n  jump\t// out\n    /* \"#utility.yul\":7:327   */\ntag_6:\n    /* \"#utility.yul\":51:57   */\n  0x00\n    /* \"#utility.yul\":88:89   */\n  0x02\n    /* \"#utility.yul\":82:86   */\n  dup3\n    /* \"#utility.yul\":78:90   */\n  div\n    /* \"#utility.yul\":68:90   */\n  swap1\n  pop\n    /* \"#utility.yul\":135:136   */\n  0x01\n    /* \"#utility.yul\":129:133   */\n  dup3\n    /* \"#utility.yul\":125:137   */\n  and\n    /* \"#utility.yul\":156:174   */\n  dup1\n    /* \"#utility.yul\":146:227   */\n  tag_18\n  jumpi\n    /* \"#utility.yul\":212:216   */\n  0x7f\n    /* \"#utility.yul\":204:210   */\n  dup3\n    /* \"#utility.yul\":200:217   */\n  and\n    /* \"#utility.yul\":190:217   */\n  swap2\n  pop\n    /* \"#utility.yul\":146:227   */\ntag_18:\n    /* \"#utility.yul\":274:276   */\n  0x20\n    /* \"#utility.yul\":266:272   */\n  dup3\n    /* \"#utility.yul\":263:277   */\n  lt\n    /* \"#utility.yul\":243:261   */\n  dup2\n    /* \"#utility.yul\":240:278   */\n  eq\n    /* \"#utility.yul\":237:321   */\n  iszero\n  tag_19\n  jumpi\n    /* \"#utility.yul\":293:311   */\n  tag_20\n  tag_21\n  jump\t// in\ntag_20:\n    /* \"#utility.yul\":237:321   */\ntag_19:\n    /* \"#utility.yul\":58:327   */\n  pop\n    /* \"#utility.yul\":7:327   */\n  swap2\n  swap1\n  pop\n  jump\t// out\n    /* \"#utility.yul\":333:513   */\ntag_21:\n    /* \"#utility.yul\":381:458   */\n  0x4e487b7100000000000000000000000000000000000000000000000000000000\n    /* \"#utility.yul\":378:379   */\n  0x00\n    /* \"#utility.yul\":371:459   */\n  mstore\n    /* \"#utility.yul\":478:482   */\n  0x22\n    /* \"#utility.yul\":475:476   */\n  0x04\n    /* \"#utility.yul\":468:483   */\n  mstore\n    /* \"#utility.yul\":502:506   */\n  0x24\n    /* \"#utility.yul\":499:500   */\n  0x00\n    /* \"#utility.yul\":492:507   */\n  revert\n    /* \"sendtosend.sol\":72:1500  contract status{\r... */\ntag_4:\n  dataSize(sub_0)\n  dup1\n  dataOffset(sub_0)\n  0x00\n  codecopy\n  0x00\n  return\nstop\n\nsub_0: assembly {\n        /* \"sendtosend.sol\":72:1500  contract status{\r... */\n      mstore(0x40, 0x80)\n      jumpi(tag_1, lt(calldatasize, 0x04))\n      shr(0xe0, calldataload(0x00))\n      dup1\n      0x0b1fa23f\n      eq\n      tag_2\n      jumpi\n      dup1\n      0x0ebcbdb8\n      eq\n      tag_3\n      jumpi\n      dup1\n      0x8b9c657a\n      eq\n      tag_4\n      jumpi\n      dup1\n      0xd0679d34\n      eq\n      tag_5\n      jumpi\n    tag_1:\n      0x00\n      dup1\n      revert\n        /* \"sendtosend.sol\":1358:1497  function sendNow(address payable receiver) public payable {\r... */\n    tag_2:\n      tag_6\n      0x04\n      dup1\n      calldatasize\n      sub\n      dup2\n      add\n      swap1\n      tag_7\n      swap2\n      swap1\n      tag_8\n      jump\t// in\n    tag_7:\n      tag_9\n      jump\t// in\n    tag_6:\n      stop\n        /* \"sendtosend.sol\":588:1047  function setInfo(address _addr, string memory _name, uint256 _StudentID, string memory _major, uint256 _gpa, string memory _company) public payable {\r... */\n    tag_3:\n      tag_10\n      0x04\n      dup1\n      calldatasize\n      sub\n      dup2\n      add\n      swap1\n      tag_11\n      swap2\n      swap1\n      tag_12\n      jump\t// in\n    tag_11:\n      tag_13\n      jump\t// in\n    tag_10:\n      stop\n        /* \"sendtosend.sol\":529:579  mapping(address => Student) public getInfoByWallet */\n    tag_4:\n      callvalue\n      dup1\n      iszero\n      tag_14\n      jumpi\n      0x00\n      dup1\n      revert\n    tag_14:\n      pop\n      tag_15\n      0x04\n      dup1\n      calldatasize\n      sub\n      dup2\n      add\n      swap1\n      tag_16\n      swap2\n      swap1\n      tag_17\n      jump\t// in\n    tag_16:\n      tag_18\n      jump\t// in\n    tag_15:\n      mload(0x40)\n      tag_19\n      swap7\n      swap6\n      swap5\n      swap4\n      swap3\n      swap2\n      swap1\n      tag_20\n      jump\t// in\n    tag_19:\n      mload(0x40)\n      dup1\n      swap2\n      sub\n      swap1\n      return\n        /* \"sendtosend.sol\":1055:1350  function send(address receiver, uint amount) public payable {\r... */\n    tag_5:\n      tag_21\n      0x04\n      dup1\n      calldatasize\n      sub\n      dup2\n      add\n      swap1\n      tag_22\n      swap2\n      swap1\n      tag_23\n      jump\t// in\n    tag_22:\n      tag_24\n      jump\t// in\n    tag_21:\n      stop\n        /* \"sendtosend.sol\":1358:1497  function sendNow(address payable receiver) public payable {\r... */\n    tag_9:\n        /* \"sendtosend.sol\":1427:1435  receiver */\n      dup1\n        /* \"sendtosend.sol\":1427:1444  receiver.transfer */\n      0xffffffffffffffffffffffffffffffffffffffff\n      and\n        /* \"sendtosend.sol\":1427:1455  receiver.transfer(msg.value) */\n      0x08fc\n        /* \"sendtosend.sol\":1445:1454  msg.value */\n      callvalue\n        /* \"sendtosend.sol\":1427:1455  receiver.transfer(msg.value) */\n      swap1\n      dup2\n      iszero\n      mul\n      swap1\n      mload(0x40)\n      0x00\n      mload(0x40)\n      dup1\n      dup4\n      sub\n      dup2\n      dup6\n      dup9\n      dup9\n      call\n      swap4\n      pop\n      pop\n      pop\n      pop\n      iszero\n      dup1\n      iszero\n      tag_27\n      jumpi\n      returndatasize\n      0x00\n      dup1\n      returndatacopy\n      revert(0x00, returndatasize)\n    tag_27:\n      pop\n        /* \"sendtosend.sol\":1471:1489  howMuch(msg.value) */\n      0xe4f740571b79610deff27ca80ef3046de224a7fc42e82177a0d9919cd5b7a8d9\n        /* \"sendtosend.sol\":1479:1488  msg.value */\n      callvalue\n        /* \"sendtosend.sol\":1471:1489  howMuch(msg.value) */\n      mload(0x40)\n      tag_28\n      swap2\n      swap1\n      tag_29\n      jump\t// in\n    tag_28:\n      mload(0x40)\n      dup1\n      swap2\n      sub\n      swap1\n      log1\n        /* \"sendtosend.sol\":1358:1497  function sendNow(address payable receiver) public payable {\r... */\n      pop\n      jump\t// out\n        /* \"sendtosend.sol\":588:1047  function setInfo(address _addr, string memory _name, uint256 _StudentID, string memory _major, uint256 _gpa, string memory _company) public payable {\r... */\n    tag_13:\n        /* \"sendtosend.sol\":777:782  _name */\n      dup5\n        /* \"sendtosend.sol\":747:762  getInfoByWallet */\n      0x03\n        /* \"sendtosend.sol\":747:769  getInfoByWallet[_addr] */\n      0x00\n        /* \"sendtosend.sol\":763:768  _addr */\n      dup9\n        /* \"sendtosend.sol\":747:769  getInfoByWallet[_addr] */\n      0xffffffffffffffffffffffffffffffffffffffff\n      and\n      0xffffffffffffffffffffffffffffffffffffffff\n      and\n      dup2\n      mstore\n      0x20\n      add\n      swap1\n      dup2\n      mstore\n      0x20\n      add\n      0x00\n      keccak256\n        /* \"sendtosend.sol\":747:774  getInfoByWallet[_addr].name */\n      0x00\n      add\n        /* \"sendtosend.sol\":747:782  getInfoByWallet[_addr].name = _name */\n      swap1\n      dup1\n      mload\n      swap1\n      0x20\n      add\n      swap1\n      tag_31\n      swap3\n      swap2\n      swap1\n      tag_32\n      jump\t// in\n    tag_31:\n      pop\n        /* \"sendtosend.sol\":828:838  _StudentID */\n      dup4\n        /* \"sendtosend.sol\":793:808  getInfoByWallet */\n      0x03\n        /* \"sendtosend.sol\":793:815  getInfoByWallet[_addr] */\n      0x00\n        /* \"sendtosend.sol\":809:814  _addr */\n      dup9\n        /* \"sendtosend.sol\":793:815  getInfoByWallet[_addr] */\n      0xffffffffffffffffffffffffffffffffffffffff\n      and\n      0xffffffffffffffffffffffffffffffffffffffff\n      and\n      dup2\n      mstore\n      0x20\n      add\n      swap1\n      dup2\n      mstore\n      0x20\n      add\n      0x00\n      keccak256\n        /* \"sendtosend.sol\":793:825  getInfoByWallet[_addr].StudentID */\n      0x01\n      add\n        /* \"sendtosend.sol\":793:838  getInfoByWallet[_addr].StudentID = _StudentID */\n      dup2\n      swap1\n      sstore\n      pop\n        /* \"sendtosend.sol\":880:886  _major */\n      dup3\n        /* \"sendtosend.sol\":849:864  getInfoByWallet */\n      0x03\n        /* \"sendtosend.sol\":849:871  getInfoByWallet[_addr] */\n      0x00\n        /* \"sendtosend.sol\":865:870  _addr */\n      dup9\n        /* \"sendtosend.sol\":849:871  getInfoByWallet[_addr] */\n      0xffffffffffffffffffffffffffffffffffffffff\n      and\n      0xffffffffffffffffffffffffffffffffffffffff\n      and\n      dup2\n      mstore\n      0x20\n      add\n      swap1\n      dup2\n      mstore\n      0x20\n      add\n      0x00\n      keccak256\n        /* \"sendtosend.sol\":849:877  getInfoByWallet[_addr].major */\n      0x02\n      add\n        /* \"sendtosend.sol\":849:886  getInfoByWallet[_addr].major = _major */\n      swap1\n      dup1\n      mload\n      swap1\n      0x20\n      add\n      swap1\n      tag_33\n      swap3\n      swap2\n      swap1\n      tag_32\n      jump\t// in\n    tag_33:\n      pop\n        /* \"sendtosend.sol\":926:930  _gpa */\n      dup2\n        /* \"sendtosend.sol\":897:912  getInfoByWallet */\n      0x03\n        /* \"sendtosend.sol\":897:919  getInfoByWallet[_addr] */\n      0x00\n        /* \"sendtosend.sol\":913:918  _addr */\n      dup9\n        /* \"sendtosend.sol\":897:919  getInfoByWallet[_addr] */\n      0xffffffffffffffffffffffffffffffffffffffff\n      and\n      0xffffffffffffffffffffffffffffffffffffffff\n      and\n      dup2\n      mstore\n      0x20\n      add\n      swap1\n      dup2\n      mstore\n      0x20\n      add\n      0x00\n      keccak256\n        /* \"sendtosend.sol\":897:923  getInfoByWallet[_addr].gpa */\n      0x03\n      add\n        /* \"sendtosend.sol\":897:930  getInfoByWallet[_addr].gpa = _gpa */\n      dup2\n      swap1\n      sstore\n      pop\n        /* \"sendtosend.sol\":974:982  _company */\n      dup1\n        /* \"sendtosend.sol\":941:956  getInfoByWallet */\n      0x03\n        /* \"sendtosend.sol\":941:963  getInfoByWallet[_addr] */\n      0x00\n        /* \"sendtosend.sol\":957:962  _addr */\n      dup9\n        /* \"sendtosend.sol\":941:963  getInfoByWallet[_addr] */\n      0xffffffffffffffffffffffffffffffffffffffff\n      and\n      0xffffffffffffffffffffffffffffffffffffffff\n      and\n      dup2\n      mstore\n      0x20\n      add\n      swap1\n      dup2\n      mstore\n      0x20\n      add\n      0x00\n      keccak256\n        /* \"sendtosend.sol\":941:971  getInfoByWallet[_addr].company */\n      0x04\n      add\n        /* \"sendtosend.sol\":941:982  getInfoByWallet[_addr].company = _company */\n      swap1\n      dup1\n      mload\n      swap1\n      0x20\n      add\n      swap1\n      tag_34\n      swap3\n      swap2\n      swap1\n      tag_32\n      jump\t// in\n    tag_34:\n      pop\n        /* \"sendtosend.sol\":1026:1031  _addr */\n      dup6\n        /* \"sendtosend.sol\":1026:1039  _addr.balance */\n      0xffffffffffffffffffffffffffffffffffffffff\n      and\n      balance\n        /* \"sendtosend.sol\":993:1008  getInfoByWallet */\n      0x03\n        /* \"sendtosend.sol\":993:1015  getInfoByWallet[_addr] */\n      0x00\n        /* \"sendtosend.sol\":1009:1014  _addr */\n      dup9\n        /* \"sendtosend.sol\":993:1015  getInfoByWallet[_addr] */\n      0xffffffffffffffffffffffffffffffffffffffff\n      and\n      0xffffffffffffffffffffffffffffffffffffffff\n      and\n      dup2\n      mstore\n      0x20\n      add\n      swap1\n      dup2\n      mstore\n      0x20\n      add\n      0x00\n      keccak256\n        /* \"sendtosend.sol\":993:1023  getInfoByWallet[_addr].balance */\n      0x05\n      add\n        /* \"sendtosend.sol\":993:1039  getInfoByWallet[_addr].balance = _addr.balance */\n      dup2\n      swap1\n      sstore\n      pop\n        /* \"sendtosend.sol\":588:1047  function setInfo(address _addr, string memory _name, uint256 _StudentID, string memory _major, uint256 _gpa, string memory _company) public payable {\r... */\n      pop\n      pop\n      pop\n      pop\n      pop\n      pop\n      jump\t// out\n        /* \"sendtosend.sol\":529:579  mapping(address => Student) public getInfoByWallet */\n    tag_18:\n      mstore(0x20, 0x03)\n      dup1\n      0x00\n      mstore\n      keccak256(0x00, 0x40)\n      0x00\n      swap2\n      pop\n      swap1\n      pop\n      dup1\n      0x00\n      add\n      dup1\n      sload\n      tag_35\n      swap1\n      tag_36\n      jump\t// in\n    tag_35:\n      dup1\n      0x1f\n      add\n      0x20\n      dup1\n      swap2\n      div\n      mul\n      0x20\n      add\n      mload(0x40)\n      swap1\n      dup2\n      add\n      0x40\n      mstore\n      dup1\n      swap3\n      swap2\n      swap1\n      dup2\n      dup2\n      mstore\n      0x20\n      add\n      dup3\n      dup1\n      sload\n      tag_37\n      swap1\n      tag_36\n      jump\t// in\n    tag_37:\n      dup1\n      iszero\n      tag_38\n      jumpi\n      dup1\n      0x1f\n      lt\n      tag_39\n      jumpi\n      0x0100\n      dup1\n      dup4\n      sload\n      div\n      mul\n      dup4\n      mstore\n      swap2\n      0x20\n      add\n      swap2\n      jump(tag_38)\n    tag_39:\n      dup3\n      add\n      swap2\n      swap1\n      0x00\n      mstore\n      keccak256(0x00, 0x20)\n      swap1\n    tag_40:\n      dup2\n      sload\n      dup2\n      mstore\n      swap1\n      0x01\n      add\n      swap1\n      0x20\n      add\n      dup1\n      dup4\n      gt\n      tag_40\n      jumpi\n      dup3\n      swap1\n      sub\n      0x1f\n      and\n      dup3\n      add\n      swap2\n    tag_38:\n      pop\n      pop\n      pop\n      pop\n      pop\n      swap1\n      dup1\n      0x01\n      add\n      sload\n      swap1\n      dup1\n      0x02\n      add\n      dup1\n      sload\n      tag_41\n      swap1\n      tag_36\n      jump\t// in\n    tag_41:\n      dup1\n      0x1f\n      add\n      0x20\n      dup1\n      swap2\n      div\n      mul\n      0x20\n      add\n      mload(0x40)\n      swap1\n      dup2\n      add\n      0x40\n      mstore\n      dup1\n      swap3\n      swap2\n      swap1\n      dup2\n      dup2\n      mstore\n      0x20\n      add\n      dup3\n      dup1\n      sload\n      tag_42\n      swap1\n      tag_36\n      jump\t// in\n    tag_42:\n      dup1\n      iszero\n      tag_43\n      jumpi\n      dup1\n      0x1f\n      lt\n      tag_44\n      jumpi\n      0x0100\n      dup1\n      dup4\n      sload\n      div\n      mul\n      dup4\n      mstore\n      swap2\n      0x20\n      add\n      swap2\n      jump(tag_43)\n    tag_44:\n      dup3\n      add\n      swap2\n      swap1\n      0x00\n      mstore\n      keccak256(0x00, 0x20)\n      swap1\n    tag_45:\n      dup2\n      sload\n      dup2\n      mstore\n      swap1\n      0x01\n      add\n      swap1\n      0x20\n      add\n      dup1\n      dup4\n      gt\n      tag_45\n      jumpi\n      dup3\n      swap1\n      sub\n      0x1f\n      and\n      dup3\n      add\n      swap2\n    tag_43:\n      pop\n      pop\n      pop\n      pop\n      pop\n      swap1\n      dup1\n      0x03\n      add\n      sload\n      swap1\n      dup1\n      0x04\n      add\n      dup1\n      sload\n      tag_46\n      swap1\n      tag_36\n      jump\t// in\n    tag_46:\n      dup1\n      0x1f\n      add\n      0x20\n      dup1\n      swap2\n      div\n      mul\n      0x20\n      add\n      mload(0x40)\n      swap1\n      dup2\n      add\n      0x40\n      mstore\n      dup1\n      swap3\n      swap2\n      swap1\n      dup2\n      dup2\n      mstore\n      0x20\n      add\n      dup3\n      dup1\n      sload\n      tag_47\n      swap1\n      tag_36\n      jump\t// in\n    tag_47:\n      dup1\n      iszero\n      tag_48\n      jumpi\n      dup1\n      0x1f\n      lt\n      tag_49\n      jumpi\n      0x0100\n      dup1\n      dup4\n      sload\n      div\n      mul\n      dup4\n      mstore\n      swap2\n      0x20\n      add\n      swap2\n      jump(tag_48)\n    tag_49:\n      dup3\n      add\n      swap2\n      swap1\n      0x00\n      mstore\n      keccak256(0x00, 0x20)\n      swap1\n    tag_50:\n      dup2\n      sload\n      dup2\n      mstore\n      swap1\n      0x01\n      add\n      swap1\n      0x20\n      add\n      dup1\n      dup4\n      gt\n      tag_50\n      jumpi\n      dup3\n      swap1\n      sub\n      0x1f\n      and\n      dup3\n      add\n      swap2\n    tag_48:\n      pop\n      pop\n      pop\n      pop\n      pop\n      swap1\n      dup1\n      0x05\n      add\n      sload\n      swap1\n      pop\n      dup7\n      jump\t// out\n        /* \"sendtosend.sol\":1055:1350  function send(address receiver, uint amount) public payable {\r... */\n    tag_24:\n        /* \"sendtosend.sol\":1168:1174  amount */\n      dup1\n        /* \"sendtosend.sol\":1130:1145  getInfoByWallet */\n      0x03\n        /* \"sendtosend.sol\":1130:1157  getInfoByWallet[msg.sender] */\n      0x00\n        /* \"sendtosend.sol\":1146:1156  msg.sender */\n      caller\n        /* \"sendtosend.sol\":1130:1157  getInfoByWallet[msg.sender] */\n      0xffffffffffffffffffffffffffffffffffffffff\n      and\n      0xffffffffffffffffffffffffffffffffffffffff\n      and\n      dup2\n      mstore\n      0x20\n      add\n      swap1\n      dup2\n      mstore\n      0x20\n      add\n      0x00\n      keccak256\n        /* \"sendtosend.sol\":1130:1165  getInfoByWallet[msg.sender].balance */\n      0x05\n      add\n      sload\n        /* \"sendtosend.sol\":1130:1174  getInfoByWallet[msg.sender].balance < amount */\n      lt\n        /* \"sendtosend.sol\":1126:1183  if (getInfoByWallet[msg.sender].balance < amount) return; */\n      iszero\n      tag_52\n      jumpi\n        /* \"sendtosend.sol\":1176:1183  return; */\n      jump(tag_51)\n        /* \"sendtosend.sol\":1126:1183  if (getInfoByWallet[msg.sender].balance < amount) return; */\n    tag_52:\n        /* \"sendtosend.sol\":1232:1238  amount */\n      dup1\n        /* \"sendtosend.sol\":1193:1208  getInfoByWallet */\n      0x03\n        /* \"sendtosend.sol\":1193:1220  getInfoByWallet[msg.sender] */\n      0x00\n        /* \"sendtosend.sol\":1209:1219  msg.sender */\n      caller\n        /* \"sendtosend.sol\":1193:1220  getInfoByWallet[msg.sender] */\n      0xffffffffffffffffffffffffffffffffffffffff\n      and\n      0xffffffffffffffffffffffffffffffffffffffff\n      and\n      dup2\n      mstore\n      0x20\n      add\n      swap1\n      dup2\n      mstore\n      0x20\n      add\n      0x00\n      keccak256\n        /* \"sendtosend.sol\":1193:1228  getInfoByWallet[msg.sender].balance */\n      0x05\n      add\n      0x00\n        /* \"sendtosend.sol\":1193:1238  getInfoByWallet[msg.sender].balance -= amount */\n      dup3\n      dup3\n      sload\n      tag_53\n      swap2\n      swap1\n      tag_54\n      jump\t// in\n    tag_53:\n      swap3\n      pop\n      pop\n      dup2\n      swap1\n      sstore\n      pop\n        /* \"sendtosend.sol\":1286:1292  amount */\n      dup1\n        /* \"sendtosend.sol\":1249:1264  getInfoByWallet */\n      0x03\n        /* \"sendtosend.sol\":1249:1274  getInfoByWallet[receiver] */\n      0x00\n        /* \"sendtosend.sol\":1265:1273  receiver */\n      dup5\n        /* \"sendtosend.sol\":1249:1274  getInfoByWallet[receiver] */\n      0xffffffffffffffffffffffffffffffffffffffff\n      and\n      0xffffffffffffffffffffffffffffffffffffffff\n      and\n      dup2\n      mstore\n      0x20\n      add\n      swap1\n      dup2\n      mstore\n      0x20\n      add\n      0x00\n      keccak256\n        /* \"sendtosend.sol\":1249:1282  getInfoByWallet[receiver].balance */\n      0x05\n      add\n      0x00\n        /* \"sendtosend.sol\":1249:1292  getInfoByWallet[receiver].balance += amount */\n      dup3\n      dup3\n      sload\n      tag_55\n      swap2\n      swap1\n      tag_56\n      jump\t// in\n    tag_55:\n      swap3\n      pop\n      pop\n      dup2\n      swap1\n      sstore\n      pop\n        /* \"sendtosend.sol\":1308:1342  Sent(msg.sender, receiver, amount) */\n      0x3990db2d31862302a685e8086b5755072a6e2b5b780af1ee81ece35ee3cd3345\n        /* \"sendtosend.sol\":1313:1323  msg.sender */\n      caller\n        /* \"sendtosend.sol\":1325:1333  receiver */\n      dup4\n        /* \"sendtosend.sol\":1335:1341  amount */\n      dup4\n        /* \"sendtosend.sol\":1308:1342  Sent(msg.sender, receiver, amount) */\n      mload(0x40)\n      tag_57\n      swap4\n      swap3\n      swap2\n      swap1\n      tag_58\n      jump\t// in\n    tag_57:\n      mload(0x40)\n      dup1\n      swap2\n      sub\n      swap1\n      log1\n        /* \"sendtosend.sol\":1055:1350  function send(address receiver, uint amount) public payable {\r... */\n    tag_51:\n      pop\n      pop\n      jump\t// out\n    tag_32:\n      dup3\n      dup1\n      sload\n      tag_59\n      swap1\n      tag_36\n      jump\t// in\n    tag_59:\n      swap1\n      0x00\n      mstore\n      keccak256(0x00, 0x20)\n      swap1\n      0x1f\n      add\n      0x20\n      swap1\n      div\n      dup2\n      add\n      swap3\n      dup3\n      tag_61\n      jumpi\n      0x00\n      dup6\n      sstore\n      jump(tag_60)\n    tag_61:\n      dup3\n      0x1f\n      lt\n      tag_62\n      jumpi\n      dup1\n      mload\n      not(0xff)\n      and\n      dup4\n      dup1\n      add\n      or\n      dup6\n      sstore\n      jump(tag_60)\n    tag_62:\n      dup3\n      dup1\n      add\n      0x01\n      add\n      dup6\n      sstore\n      dup3\n      iszero\n      tag_60\n      jumpi\n      swap2\n      dup3\n      add\n    tag_63:\n      dup3\n      dup2\n      gt\n      iszero\n      tag_64\n      jumpi\n      dup3\n      mload\n      dup3\n      sstore\n      swap2\n      0x20\n      add\n      swap2\n      swap1\n      0x01\n      add\n      swap1\n      jump(tag_63)\n    tag_64:\n    tag_60:\n      pop\n      swap1\n      pop\n      tag_65\n      swap2\n      swap1\n      tag_66\n      jump\t// in\n    tag_65:\n      pop\n      swap1\n      jump\t// out\n    tag_66:\n    tag_67:\n      dup1\n      dup3\n      gt\n      iszero\n      tag_68\n      jumpi\n      0x00\n      dup2\n      0x00\n      swap1\n      sstore\n      pop\n      0x01\n      add\n      jump(tag_67)\n    tag_68:\n      pop\n      swap1\n      jump\t// out\n        /* \"#utility.yul\":7:419   */\n    tag_70:\n        /* \"#utility.yul\":85:90   */\n      0x00\n        /* \"#utility.yul\":110:176   */\n      tag_72\n        /* \"#utility.yul\":126:175   */\n      tag_73\n        /* \"#utility.yul\":168:174   */\n      dup5\n        /* \"#utility.yul\":126:175   */\n      tag_74\n      jump\t// in\n    tag_73:\n        /* \"#utility.yul\":110:176   */\n      tag_75\n      jump\t// in\n    tag_72:\n        /* \"#utility.yul\":101:176   */\n      swap1\n      pop\n        /* \"#utility.yul\":199:205   */\n      dup3\n        /* \"#utility.yul\":192:197   */\n      dup2\n        /* \"#utility.yul\":185:206   */\n      mstore\n        /* \"#utility.yul\":237:241   */\n      0x20\n        /* \"#utility.yul\":230:235   */\n      dup2\n        /* \"#utility.yul\":226:242   */\n      add\n        /* \"#utility.yul\":275:278   */\n      dup5\n        /* \"#utility.yul\":266:272   */\n      dup5\n        /* \"#utility.yul\":261:264   */\n      dup5\n        /* \"#utility.yul\":257:273   */\n      add\n        /* \"#utility.yul\":254:279   */\n      gt\n        /* \"#utility.yul\":251:363   */\n      iszero\n      tag_76\n      jumpi\n        /* \"#utility.yul\":282:361   */\n      tag_77\n      tag_78\n      jump\t// in\n    tag_77:\n        /* \"#utility.yul\":251:363   */\n    tag_76:\n        /* \"#utility.yul\":372:413   */\n      tag_79\n        /* \"#utility.yul\":406:412   */\n      dup5\n        /* \"#utility.yul\":401:404   */\n      dup3\n        /* \"#utility.yul\":396:399   */\n      dup6\n        /* \"#utility.yul\":372:413   */\n      tag_80\n      jump\t// in\n    tag_79:\n        /* \"#utility.yul\":91:419   */\n      pop\n        /* \"#utility.yul\":7:419   */\n      swap4\n      swap3\n      pop\n      pop\n      pop\n      jump\t// out\n        /* \"#utility.yul\":425:564   */\n    tag_81:\n        /* \"#utility.yul\":471:476   */\n      0x00\n        /* \"#utility.yul\":509:515   */\n      dup2\n        /* \"#utility.yul\":496:516   */\n      calldataload\n        /* \"#utility.yul\":487:516   */\n      swap1\n      pop\n        /* \"#utility.yul\":525:558   */\n      tag_83\n        /* \"#utility.yul\":552:557   */\n      dup2\n        /* \"#utility.yul\":525:558   */\n      tag_84\n      jump\t// in\n    tag_83:\n        /* \"#utility.yul\":425:564   */\n      swap3\n      swap2\n      pop\n      pop\n      jump\t// out\n        /* \"#utility.yul\":570:725   */\n    tag_85:\n        /* \"#utility.yul\":624:629   */\n      0x00\n        /* \"#utility.yul\":662:668   */\n      dup2\n        /* \"#utility.yul\":649:669   */\n      calldataload\n        /* \"#utility.yul\":640:669   */\n      swap1\n      pop\n        /* \"#utility.yul\":678:719   */\n      tag_87\n        /* \"#utility.yul\":713:718   */\n      dup2\n        /* \"#utility.yul\":678:719   */\n      tag_88\n      jump\t// in\n    tag_87:\n        /* \"#utility.yul\":570:725   */\n      swap3\n      swap2\n      pop\n      pop\n      jump\t// out\n        /* \"#utility.yul\":745:1085   */\n    tag_89:\n        /* \"#utility.yul\":801:806   */\n      0x00\n        /* \"#utility.yul\":850:853   */\n      dup3\n        /* \"#utility.yul\":843:847   */\n      0x1f\n        /* \"#utility.yul\":835:841   */\n      dup4\n        /* \"#utility.yul\":831:848   */\n      add\n        /* \"#utility.yul\":827:854   */\n      slt\n        /* \"#utility.yul\":817:939   */\n      tag_91\n      jumpi\n        /* \"#utility.yul\":858:937   */\n      tag_92\n      tag_93\n      jump\t// in\n    tag_92:\n        /* \"#utility.yul\":817:939   */\n    tag_91:\n        /* \"#utility.yul\":975:981   */\n      dup2\n        /* \"#utility.yul\":962:982   */\n      calldataload\n        /* \"#utility.yul\":1000:1079   */\n      tag_94\n        /* \"#utility.yul\":1075:1078   */\n      dup5\n        /* \"#utility.yul\":1067:1073   */\n      dup3\n        /* \"#utility.yul\":1060:1064   */\n      0x20\n        /* \"#utility.yul\":1052:1058   */\n      dup7\n        /* \"#utility.yul\":1048:1065   */\n      add\n        /* \"#utility.yul\":1000:1079   */\n      tag_70\n      jump\t// in\n    tag_94:\n        /* \"#utility.yul\":991:1079   */\n      swap2\n      pop\n        /* \"#utility.yul\":807:1085   */\n      pop\n        /* \"#utility.yul\":745:1085   */\n      swap3\n      swap2\n      pop\n      pop\n      jump\t// out\n        /* \"#utility.yul\":1091:1230   */\n    tag_95:\n        /* \"#utility.yul\":1137:1142   */\n      0x00\n        /* \"#utility.yul\":1175:1181   */\n      dup2\n        /* \"#utility.yul\":1162:1182   */\n      calldataload\n        /* \"#utility.yul\":1153:1182   */\n      swap1\n      pop\n        /* \"#utility.yul\":1191:1224   */\n      tag_97\n        /* \"#utility.yul\":1218:1223   */\n      dup2\n        /* \"#utility.yul\":1191:1224   */\n      tag_98\n      jump\t// in\n    tag_97:\n        /* \"#utility.yul\":1091:1230   */\n      swap3\n      swap2\n      pop\n      pop\n      jump\t// out\n        /* \"#utility.yul\":1236:1565   */\n    tag_17:\n        /* \"#utility.yul\":1295:1301   */\n      0x00\n        /* \"#utility.yul\":1344:1346   */\n      0x20\n        /* \"#utility.yul\":1332:1341   */\n      dup3\n        /* \"#utility.yul\":1323:1330   */\n      dup5\n        /* \"#utility.yul\":1319:1342   */\n      sub\n        /* \"#utility.yul\":1315:1347   */\n      slt\n        /* \"#utility.yul\":1312:1431   */\n      iszero\n      tag_100\n      jumpi\n        /* \"#utility.yul\":1350:1429   */\n      tag_101\n      tag_102\n      jump\t// in\n    tag_101:\n        /* \"#utility.yul\":1312:1431   */\n    tag_100:\n        /* \"#utility.yul\":1470:1471   */\n      0x00\n        /* \"#utility.yul\":1495:1548   */\n      tag_103\n        /* \"#utility.yul\":1540:1547   */\n      dup5\n        /* \"#utility.yul\":1531:1537   */\n      dup3\n        /* \"#utility.yul\":1520:1529   */\n      dup6\n        /* \"#utility.yul\":1516:1538   */\n      add\n        /* \"#utility.yul\":1495:1548   */\n      tag_81\n      jump\t// in\n    tag_103:\n        /* \"#utility.yul\":1485:1548   */\n      swap2\n      pop\n        /* \"#utility.yul\":1441:1558   */\n      pop\n        /* \"#utility.yul\":1236:1565   */\n      swap3\n      swap2\n      pop\n      pop\n      jump\t// out\n        /* \"#utility.yul\":1571:1916   */\n    tag_8:\n        /* \"#utility.yul\":1638:1644   */\n      0x00\n        /* \"#utility.yul\":1687:1689   */\n      0x20\n        /* \"#utility.yul\":1675:1684   */\n      dup3\n        /* \"#utility.yul\":1666:1673   */\n      dup5\n        /* \"#utility.yul\":1662:1685   */\n      sub\n        /* \"#utility.yul\":1658:1690   */\n      slt\n        /* \"#utility.yul\":1655:1774   */\n      iszero\n      tag_105\n      jumpi\n        /* \"#utility.yul\":1693:1772   */\n      tag_106\n      tag_102\n      jump\t// in\n    tag_106:\n        /* \"#utility.yul\":1655:1774   */\n    tag_105:\n        /* \"#utility.yul\":1813:1814   */\n      0x00\n        /* \"#utility.yul\":1838:1899   */\n      tag_107\n        /* \"#utility.yul\":1891:1898   */\n      dup5\n        /* \"#utility.yul\":1882:1888   */\n      dup3\n        /* \"#utility.yul\":1871:1880   */\n      dup6\n        /* \"#utility.yul\":1867:1889   */\n      add\n        /* \"#utility.yul\":1838:1899   */\n      tag_85\n      jump\t// in\n    tag_107:\n        /* \"#utility.yul\":1828:1899   */\n      swap2\n      pop\n        /* \"#utility.yul\":1784:1909   */\n      pop\n        /* \"#utility.yul\":1571:1916   */\n      swap3\n      swap2\n      pop\n      pop\n      jump\t// out\n        /* \"#utility.yul\":1922:3519   */\n    tag_12:\n        /* \"#utility.yul\":2056:2062   */\n      0x00\n        /* \"#utility.yul\":2064:2070   */\n      dup1\n        /* \"#utility.yul\":2072:2078   */\n      0x00\n        /* \"#utility.yul\":2080:2086   */\n      dup1\n        /* \"#utility.yul\":2088:2094   */\n      0x00\n        /* \"#utility.yul\":2096:2102   */\n      dup1\n        /* \"#utility.yul\":2145:2148   */\n      0xc0\n        /* \"#utility.yul\":2133:2142   */\n      dup8\n        /* \"#utility.yul\":2124:2131   */\n      dup10\n        /* \"#utility.yul\":2120:2143   */\n      sub\n        /* \"#utility.yul\":2116:2149   */\n      slt\n        /* \"#utility.yul\":2113:2233   */\n      iszero\n      tag_109\n      jumpi\n        /* \"#utility.yul\":2152:2231   */\n      tag_110\n      tag_102\n      jump\t// in\n    tag_110:\n        /* \"#utility.yul\":2113:2233   */\n    tag_109:\n        /* \"#utility.yul\":2272:2273   */\n      0x00\n        /* \"#utility.yul\":2297:2350   */\n      tag_111\n        /* \"#utility.yul\":2342:2349   */\n      dup10\n        /* \"#utility.yul\":2333:2339   */\n      dup3\n        /* \"#utility.yul\":2322:2331   */\n      dup11\n        /* \"#utility.yul\":2318:2340   */\n      add\n        /* \"#utility.yul\":2297:2350   */\n      tag_81\n      jump\t// in\n    tag_111:\n        /* \"#utility.yul\":2287:2350   */\n      swap7\n      pop\n        /* \"#utility.yul\":2243:2360   */\n      pop\n        /* \"#utility.yul\":2427:2429   */\n      0x20\n        /* \"#utility.yul\":2416:2425   */\n      dup8\n        /* \"#utility.yul\":2412:2430   */\n      add\n        /* \"#utility.yul\":2399:2431   */\n      calldataload\n        /* \"#utility.yul\":2458:2476   */\n      0xffffffffffffffff\n        /* \"#utility.yul\":2450:2456   */\n      dup2\n        /* \"#utility.yul\":2447:2477   */\n      gt\n        /* \"#utility.yul\":2444:2561   */\n      iszero\n      tag_112\n      jumpi\n        /* \"#utility.yul\":2480:2559   */\n      tag_113\n      tag_114\n      jump\t// in\n    tag_113:\n        /* \"#utility.yul\":2444:2561   */\n    tag_112:\n        /* \"#utility.yul\":2585:2648   */\n      tag_115\n        /* \"#utility.yul\":2640:2647   */\n      dup10\n        /* \"#utility.yul\":2631:2637   */\n      dup3\n        /* \"#utility.yul\":2620:2629   */\n      dup11\n        /* \"#utility.yul\":2616:2638   */\n      add\n        /* \"#utility.yul\":2585:2648   */\n      tag_89\n      jump\t// in\n    tag_115:\n        /* \"#utility.yul\":2575:2648   */\n      swap6\n      pop\n        /* \"#utility.yul\":2370:2658   */\n      pop\n        /* \"#utility.yul\":2697:2699   */\n      0x40\n        /* \"#utility.yul\":2723:2776   */\n      tag_116\n        /* \"#utility.yul\":2768:2775   */\n      dup10\n        /* \"#utility.yul\":2759:2765   */\n      dup3\n        /* \"#utility.yul\":2748:2757   */\n      dup11\n        /* \"#utility.yul\":2744:2766   */\n      add\n        /* \"#utility.yul\":2723:2776   */\n      tag_95\n      jump\t// in\n    tag_116:\n        /* \"#utility.yul\":2713:2776   */\n      swap5\n      pop\n        /* \"#utility.yul\":2668:2786   */\n      pop\n        /* \"#utility.yul\":2853:2855   */\n      0x60\n        /* \"#utility.yul\":2842:2851   */\n      dup8\n        /* \"#utility.yul\":2838:2856   */\n      add\n        /* \"#utility.yul\":2825:2857   */\n      calldataload\n        /* \"#utility.yul\":2884:2902   */\n      0xffffffffffffffff\n        /* \"#utility.yul\":2876:2882   */\n      dup2\n        /* \"#utility.yul\":2873:2903   */\n      gt\n        /* \"#utility.yul\":2870:2987   */\n      iszero\n      tag_117\n      jumpi\n        /* \"#utility.yul\":2906:2985   */\n      tag_118\n      tag_114\n      jump\t// in\n    tag_118:\n        /* \"#utility.yul\":2870:2987   */\n    tag_117:\n        /* \"#utility.yul\":3011:3074   */\n      tag_119\n        /* \"#utility.yul\":3066:3073   */\n      dup10\n        /* \"#utility.yul\":3057:3063   */\n      dup3\n        /* \"#utility.yul\":3046:3055   */\n      dup11\n        /* \"#utility.yul\":3042:3064   */\n      add\n        /* \"#utility.yul\":3011:3074   */\n      tag_89\n      jump\t// in\n    tag_119:\n        /* \"#utility.yul\":3001:3074   */\n      swap4\n      pop\n        /* \"#utility.yul\":2796:3084   */\n      pop\n        /* \"#utility.yul\":3123:3126   */\n      0x80\n        /* \"#utility.yul\":3150:3203   */\n      tag_120\n        /* \"#utility.yul\":3195:3202   */\n      dup10\n        /* \"#utility.yul\":3186:3192   */\n      dup3\n        /* \"#utility.yul\":3175:3184   */\n      dup11\n        /* \"#utility.yul\":3171:3193   */\n      add\n        /* \"#utility.yul\":3150:3203   */\n      tag_95\n      jump\t// in\n    tag_120:\n        /* \"#utility.yul\":3140:3203   */\n      swap3\n      pop\n        /* \"#utility.yul\":3094:3213   */\n      pop\n        /* \"#utility.yul\":3280:3283   */\n      0xa0\n        /* \"#utility.yul\":3269:3278   */\n      dup8\n        /* \"#utility.yul\":3265:3284   */\n      add\n        /* \"#utility.yul\":3252:3285   */\n      calldataload\n        /* \"#utility.yul\":3312:3330   */\n      0xffffffffffffffff\n        /* \"#utility.yul\":3304:3310   */\n      dup2\n        /* \"#utility.yul\":3301:3331   */\n      gt\n        /* \"#utility.yul\":3298:3415   */\n      iszero\n      tag_121\n      jumpi\n        /* \"#utility.yul\":3334:3413   */\n      tag_122\n      tag_114\n      jump\t// in\n    tag_122:\n        /* \"#utility.yul\":3298:3415   */\n    tag_121:\n        /* \"#utility.yul\":3439:3502   */\n      tag_123\n        /* \"#utility.yul\":3494:3501   */\n      dup10\n        /* \"#utility.yul\":3485:3491   */\n      dup3\n        /* \"#utility.yul\":3474:3483   */\n      dup11\n        /* \"#utility.yul\":3470:3492   */\n      add\n        /* \"#utility.yul\":3439:3502   */\n      tag_89\n      jump\t// in\n    tag_123:\n        /* \"#utility.yul\":3429:3502   */\n      swap2\n      pop\n        /* \"#utility.yul\":3223:3512   */\n      pop\n        /* \"#utility.yul\":1922:3519   */\n      swap3\n      swap6\n      pop\n      swap3\n      swap6\n      pop\n      swap3\n      swap6\n      jump\t// out\n        /* \"#utility.yul\":3525:3999   */\n    tag_23:\n        /* \"#utility.yul\":3593:3599   */\n      0x00\n        /* \"#utility.yul\":3601:3607   */\n      dup1\n        /* \"#utility.yul\":3650:3652   */\n      0x40\n        /* \"#utility.yul\":3638:3647   */\n      dup4\n        /* \"#utility.yul\":3629:3636   */\n      dup6\n        /* \"#utility.yul\":3625:3648   */\n      sub\n        /* \"#utility.yul\":3621:3653   */\n      slt\n        /* \"#utility.yul\":3618:3737   */\n      iszero\n      tag_125\n      jumpi\n        /* \"#utility.yul\":3656:3735   */\n      tag_126\n      tag_102\n      jump\t// in\n    tag_126:\n        /* \"#utility.yul\":3618:3737   */\n    tag_125:\n        /* \"#utility.yul\":3776:3777   */\n      0x00\n        /* \"#utility.yul\":3801:3854   */\n      tag_127\n        /* \"#utility.yul\":3846:3853   */\n      dup6\n        /* \"#utility.yul\":3837:3843   */\n      dup3\n        /* \"#utility.yul\":3826:3835   */\n      dup7\n        /* \"#utility.yul\":3822:3844   */\n      add\n        /* \"#utility.yul\":3801:3854   */\n      tag_81\n      jump\t// in\n    tag_127:\n        /* \"#utility.yul\":3791:3854   */\n      swap3\n      pop\n        /* \"#utility.yul\":3747:3864   */\n      pop\n        /* \"#utility.yul\":3903:3905   */\n      0x20\n        /* \"#utility.yul\":3929:3982   */\n      tag_128\n        /* \"#utility.yul\":3974:3981   */\n      dup6\n        /* \"#utility.yul\":3965:3971   */\n      dup3\n        /* \"#utility.yul\":3954:3963   */\n      dup7\n        /* \"#utility.yul\":3950:3972   */\n      add\n        /* \"#utility.yul\":3929:3982   */\n      tag_95\n      jump\t// in\n    tag_128:\n        /* \"#utility.yul\":3919:3982   */\n      swap2\n      pop\n        /* \"#utility.yul\":3874:3992   */\n      pop\n        /* \"#utility.yul\":3525:3999   */\n      swap3\n      pop\n      swap3\n      swap1\n      pop\n      jump\t// out\n        /* \"#utility.yul\":4005:4123   */\n    tag_129:\n        /* \"#utility.yul\":4092:4116   */\n      tag_131\n        /* \"#utility.yul\":4110:4115   */\n      dup2\n        /* \"#utility.yul\":4092:4116   */\n      tag_132\n      jump\t// in\n    tag_131:\n        /* \"#utility.yul\":4087:4090   */\n      dup3\n        /* \"#utility.yul\":4080:4117   */\n      mstore\n        /* \"#utility.yul\":4005:4123   */\n      pop\n      pop\n      jump\t// out\n        /* \"#utility.yul\":4129:4493   */\n    tag_133:\n        /* \"#utility.yul\":4217:4220   */\n      0x00\n        /* \"#utility.yul\":4245:4284   */\n      tag_135\n        /* \"#utility.yul\":4278:4283   */\n      dup3\n        /* \"#utility.yul\":4245:4284   */\n      tag_136\n      jump\t// in\n    tag_135:\n        /* \"#utility.yul\":4300:4371   */\n      tag_137\n        /* \"#utility.yul\":4364:4370   */\n      dup2\n        /* \"#utility.yul\":4359:4362   */\n      dup6\n        /* \"#utility.yul\":4300:4371   */\n      tag_138\n      jump\t// in\n    tag_137:\n        /* \"#utility.yul\":4293:4371   */\n      swap4\n      pop\n        /* \"#utility.yul\":4380:4432   */\n      tag_139\n        /* \"#utility.yul\":4425:4431   */\n      dup2\n        /* \"#utility.yul\":4420:4423   */\n      dup6\n        /* \"#utility.yul\":4413:4417   */\n      0x20\n        /* \"#utility.yul\":4406:4411   */\n      dup7\n        /* \"#utility.yul\":4402:4418   */\n      add\n        /* \"#utility.yul\":4380:4432   */\n      tag_140\n      jump\t// in\n    tag_139:\n        /* \"#utility.yul\":4457:4486   */\n      tag_141\n        /* \"#utility.yul\":4479:4485   */\n      dup2\n        /* \"#utility.yul\":4457:4486   */\n      tag_142\n      jump\t// in\n    tag_141:\n        /* \"#utility.yul\":4452:4455   */\n      dup5\n        /* \"#utility.yul\":4448:4487   */\n      add\n        /* \"#utility.yul\":4441:4487   */\n      swap2\n      pop\n        /* \"#utility.yul\":4221:4493   */\n      pop\n        /* \"#utility.yul\":4129:4493   */\n      swap3\n      swap2\n      pop\n      pop\n      jump\t// out\n        /* \"#utility.yul\":4499:4617   */\n    tag_143:\n        /* \"#utility.yul\":4586:4610   */\n      tag_145\n        /* \"#utility.yul\":4604:4609   */\n      dup2\n        /* \"#utility.yul\":4586:4610   */\n      tag_146\n      jump\t// in\n    tag_145:\n        /* \"#utility.yul\":4581:4584   */\n      dup3\n        /* \"#utility.yul\":4574:4611   */\n      mstore\n        /* \"#utility.yul\":4499:4617   */\n      pop\n      pop\n      jump\t// out\n        /* \"#utility.yul\":4623:5065   */\n    tag_58:\n        /* \"#utility.yul\":4772:4776   */\n      0x00\n        /* \"#utility.yul\":4810:4812   */\n      0x60\n        /* \"#utility.yul\":4799:4808   */\n      dup3\n        /* \"#utility.yul\":4795:4813   */\n      add\n        /* \"#utility.yul\":4787:4813   */\n      swap1\n      pop\n        /* \"#utility.yul\":4823:4894   */\n      tag_148\n        /* \"#utility.yul\":4891:4892   */\n      0x00\n        /* \"#utility.yul\":4880:4889   */\n      dup4\n        /* \"#utility.yul\":4876:4893   */\n      add\n        /* \"#utility.yul\":4867:4873   */\n      dup7\n        /* \"#utility.yul\":4823:4894   */\n      tag_129\n      jump\t// in\n    tag_148:\n        /* \"#utility.yul\":4904:4976   */\n      tag_149\n        /* \"#utility.yul\":4972:4974   */\n      0x20\n        /* \"#utility.yul\":4961:4970   */\n      dup4\n        /* \"#utility.yul\":4957:4975   */\n      add\n        /* \"#utility.yul\":4948:4954   */\n      dup6\n        /* \"#utility.yul\":4904:4976   */\n      tag_129\n      jump\t// in\n    tag_149:\n        /* \"#utility.yul\":4986:5058   */\n      tag_150\n        /* \"#utility.yul\":5054:5056   */\n      0x40\n        /* \"#utility.yul\":5043:5052   */\n      dup4\n        /* \"#utility.yul\":5039:5057   */\n      add\n        /* \"#utility.yul\":5030:5036   */\n      dup5\n        /* \"#utility.yul\":4986:5058   */\n      tag_143\n      jump\t// in\n    tag_150:\n        /* \"#utility.yul\":4623:5065   */\n      swap5\n      swap4\n      pop\n      pop\n      pop\n      pop\n      jump\t// out\n        /* \"#utility.yul\":5071:6119   */\n    tag_20:\n        /* \"#utility.yul\":5364:5368   */\n      0x00\n        /* \"#utility.yul\":5402:5405   */\n      0xc0\n        /* \"#utility.yul\":5391:5400   */\n      dup3\n        /* \"#utility.yul\":5387:5406   */\n      add\n        /* \"#utility.yul\":5379:5406   */\n      swap1\n      pop\n        /* \"#utility.yul\":5452:5461   */\n      dup2\n        /* \"#utility.yul\":5446:5450   */\n      dup2\n        /* \"#utility.yul\":5442:5462   */\n      sub\n        /* \"#utility.yul\":5438:5439   */\n      0x00\n        /* \"#utility.yul\":5427:5436   */\n      dup4\n        /* \"#utility.yul\":5423:5440   */\n      add\n        /* \"#utility.yul\":5416:5463   */\n      mstore\n        /* \"#utility.yul\":5480:5558   */\n      tag_152\n        /* \"#utility.yul\":5553:5557   */\n      dup2\n        /* \"#utility.yul\":5544:5550   */\n      dup10\n        /* \"#utility.yul\":5480:5558   */\n      tag_133\n      jump\t// in\n    tag_152:\n        /* \"#utility.yul\":5472:5558   */\n      swap1\n      pop\n        /* \"#utility.yul\":5568:5640   */\n      tag_153\n        /* \"#utility.yul\":5636:5638   */\n      0x20\n        /* \"#utility.yul\":5625:5634   */\n      dup4\n        /* \"#utility.yul\":5621:5639   */\n      add\n        /* \"#utility.yul\":5612:5618   */\n      dup9\n        /* \"#utility.yul\":5568:5640   */\n      tag_143\n      jump\t// in\n    tag_153:\n        /* \"#utility.yul\":5687:5696   */\n      dup2\n        /* \"#utility.yul\":5681:5685   */\n      dup2\n        /* \"#utility.yul\":5677:5697   */\n      sub\n        /* \"#utility.yul\":5672:5674   */\n      0x40\n        /* \"#utility.yul\":5661:5670   */\n      dup4\n        /* \"#utility.yul\":5657:5675   */\n      add\n        /* \"#utility.yul\":5650:5698   */\n      mstore\n        /* \"#utility.yul\":5715:5793   */\n      tag_154\n        /* \"#utility.yul\":5788:5792   */\n      dup2\n        /* \"#utility.yul\":5779:5785   */\n      dup8\n        /* \"#utility.yul\":5715:5793   */\n      tag_133\n      jump\t// in\n    tag_154:\n        /* \"#utility.yul\":5707:5793   */\n      swap1\n      pop\n        /* \"#utility.yul\":5803:5875   */\n      tag_155\n        /* \"#utility.yul\":5871:5873   */\n      0x60\n        /* \"#utility.yul\":5860:5869   */\n      dup4\n        /* \"#utility.yul\":5856:5874   */\n      add\n        /* \"#utility.yul\":5847:5853   */\n      dup7\n        /* \"#utility.yul\":5803:5875   */\n      tag_143\n      jump\t// in\n    tag_155:\n        /* \"#utility.yul\":5923:5932   */\n      dup2\n        /* \"#utility.yul\":5917:5921   */\n      dup2\n        /* \"#utility.yul\":5913:5933   */\n      sub\n        /* \"#utility.yul\":5907:5910   */\n      0x80\n        /* \"#utility.yul\":5896:5905   */\n      dup4\n        /* \"#utility.yul\":5892:5911   */\n      add\n        /* \"#utility.yul\":5885:5934   */\n      mstore\n        /* \"#utility.yul\":5951:6029   */\n      tag_156\n        /* \"#utility.yul\":6024:6028   */\n      dup2\n        /* \"#utility.yul\":6015:6021   */\n      dup6\n        /* \"#utility.yul\":5951:6029   */\n      tag_133\n      jump\t// in\n    tag_156:\n        /* \"#utility.yul\":5943:6029   */\n      swap1\n      pop\n        /* \"#utility.yul\":6039:6112   */\n      tag_157\n        /* \"#utility.yul\":6107:6110   */\n      0xa0\n        /* \"#utility.yul\":6096:6105   */\n      dup4\n        /* \"#utility.yul\":6092:6111   */\n      add\n        /* \"#utility.yul\":6083:6089   */\n      dup5\n        /* \"#utility.yul\":6039:6112   */\n      tag_143\n      jump\t// in\n    tag_157:\n        /* \"#utility.yul\":5071:6119   */\n      swap8\n      swap7\n      pop\n      pop\n      pop\n      pop\n      pop\n      pop\n      pop\n      jump\t// out\n        /* \"#utility.yul\":6125:6347   */\n    tag_29:\n        /* \"#utility.yul\":6218:6222   */\n      0x00\n        /* \"#utility.yul\":6256:6258   */\n      0x20\n        /* \"#utility.yul\":6245:6254   */\n      dup3\n        /* \"#utility.yul\":6241:6259   */\n      add\n        /* \"#utility.yul\":6233:6259   */\n      swap1\n      pop\n        /* \"#utility.yul\":6269:6340   */\n      tag_159\n        /* \"#utility.yul\":6337:6338   */\n      0x00\n        /* \"#utility.yul\":6326:6335   */\n      dup4\n        /* \"#utility.yul\":6322:6339   */\n      add\n        /* \"#utility.yul\":6313:6319   */\n      dup5\n        /* \"#utility.yul\":6269:6340   */\n      tag_143\n      jump\t// in\n    tag_159:\n        /* \"#utility.yul\":6125:6347   */\n      swap3\n      swap2\n      pop\n      pop\n      jump\t// out\n        /* \"#utility.yul\":6353:6482   */\n    tag_75:\n        /* \"#utility.yul\":6387:6393   */\n      0x00\n        /* \"#utility.yul\":6414:6434   */\n      tag_161\n      tag_162\n      jump\t// in\n    tag_161:\n        /* \"#utility.yul\":6404:6434   */\n      swap1\n      pop\n        /* \"#utility.yul\":6443:6476   */\n      tag_163\n        /* \"#utility.yul\":6471:6475   */\n      dup3\n        /* \"#utility.yul\":6463:6469   */\n      dup3\n        /* \"#utility.yul\":6443:6476   */\n      tag_164\n      jump\t// in\n    tag_163:\n        /* \"#utility.yul\":6353:6482   */\n      swap2\n      swap1\n      pop\n      jump\t// out\n        /* \"#utility.yul\":6488:6563   */\n    tag_162:\n        /* \"#utility.yul\":6521:6527   */\n      0x00\n        /* \"#utility.yul\":6554:6556   */\n      0x40\n        /* \"#utility.yul\":6548:6557   */\n      mload\n        /* \"#utility.yul\":6538:6557   */\n      swap1\n      pop\n        /* \"#utility.yul\":6488:6563   */\n      swap1\n      jump\t// out\n        /* \"#utility.yul\":6569:6877   */\n    tag_74:\n        /* \"#utility.yul\":6631:6635   */\n      0x00\n        /* \"#utility.yul\":6721:6739   */\n      0xffffffffffffffff\n        /* \"#utility.yul\":6713:6719   */\n      dup3\n        /* \"#utility.yul\":6710:6740   */\n      gt\n        /* \"#utility.yul\":6707:6763   */\n      iszero\n      tag_167\n      jumpi\n        /* \"#utility.yul\":6743:6761   */\n      tag_168\n      tag_169\n      jump\t// in\n    tag_168:\n        /* \"#utility.yul\":6707:6763   */\n    tag_167:\n        /* \"#utility.yul\":6781:6810   */\n      tag_170\n        /* \"#utility.yul\":6803:6809   */\n      dup3\n        /* \"#utility.yul\":6781:6810   */\n      tag_142\n      jump\t// in\n    tag_170:\n        /* \"#utility.yul\":6773:6810   */\n      swap1\n      pop\n        /* \"#utility.yul\":6865:6869   */\n      0x20\n        /* \"#utility.yul\":6859:6863   */\n      dup2\n        /* \"#utility.yul\":6855:6870   */\n      add\n        /* \"#utility.yul\":6847:6870   */\n      swap1\n      pop\n        /* \"#utility.yul\":6569:6877   */\n      swap2\n      swap1\n      pop\n      jump\t// out\n        /* \"#utility.yul\":6883:6982   */\n    tag_136:\n        /* \"#utility.yul\":6935:6941   */\n      0x00\n        /* \"#utility.yul\":6969:6974   */\n      dup2\n        /* \"#utility.yul\":6963:6975   */\n      mload\n        /* \"#utility.yul\":6953:6975   */\n      swap1\n      pop\n        /* \"#utility.yul\":6883:6982   */\n      swap2\n      swap1\n      pop\n      jump\t// out\n        /* \"#utility.yul\":6988:7157   */\n    tag_138:\n        /* \"#utility.yul\":7072:7083   */\n      0x00\n        /* \"#utility.yul\":7106:7112   */\n      dup3\n        /* \"#utility.yul\":7101:7104   */\n      dup3\n        /* \"#utility.yul\":7094:7113   */\n      mstore\n        /* \"#utility.yul\":7146:7150   */\n      0x20\n        /* \"#utility.yul\":7141:7144   */\n      dup3\n        /* \"#utility.yul\":7137:7151   */\n      add\n        /* \"#utility.yul\":7122:7151   */\n      swap1\n      pop\n        /* \"#utility.yul\":6988:7157   */\n      swap3\n      swap2\n      pop\n      pop\n      jump\t// out\n        /* \"#utility.yul\":7163:7468   */\n    tag_56:\n        /* \"#utility.yul\":7203:7206   */\n      0x00\n        /* \"#utility.yul\":7222:7242   */\n      tag_174\n        /* \"#utility.yul\":7240:7241   */\n      dup3\n        /* \"#utility.yul\":7222:7242   */\n      tag_146\n      jump\t// in\n    tag_174:\n        /* \"#utility.yul\":7217:7242   */\n      swap2\n      pop\n        /* \"#utility.yul\":7256:7276   */\n      tag_175\n        /* \"#utility.yul\":7274:7275   */\n      dup4\n        /* \"#utility.yul\":7256:7276   */\n      tag_146\n      jump\t// in\n    tag_175:\n        /* \"#utility.yul\":7251:7276   */\n      swap3\n      pop\n        /* \"#utility.yul\":7410:7411   */\n      dup3\n        /* \"#utility.yul\":7342:7408   */\n      0xffffffffffffffffffffffffffffffffffffffffffffffffffffffffffffffff\n        /* \"#utility.yul\":7338:7412   */\n      sub\n        /* \"#utility.yul\":7335:7336   */\n      dup3\n        /* \"#utility.yul\":7332:7413   */\n      gt\n        /* \"#utility.yul\":7329:7436   */\n      iszero\n      tag_176\n      jumpi\n        /* \"#utility.yul\":7416:7434   */\n      tag_177\n      tag_178\n      jump\t// in\n    tag_177:\n        /* \"#utility.yul\":7329:7436   */\n    tag_176:\n        /* \"#utility.yul\":7460:7461   */\n      dup3\n        /* \"#utility.yul\":7457:7458   */\n      dup3\n        /* \"#utility.yul\":7453:7462   */\n      add\n        /* \"#utility.yul\":7446:7462   */\n      swap1\n      pop\n        /* \"#utility.yul\":7163:7468   */\n      swap3\n      swap2\n      pop\n      pop\n      jump\t// out\n        /* \"#utility.yul\":7474:7665   */\n    tag_54:\n        /* \"#utility.yul\":7514:7518   */\n      0x00\n        /* \"#utility.yul\":7534:7554   */\n      tag_180\n        /* \"#utility.yul\":7552:7553   */\n      dup3\n        /* \"#utility.yul\":7534:7554   */\n      tag_146\n      jump\t// in\n    tag_180:\n        /* \"#utility.yul\":7529:7554   */\n      swap2\n      pop\n        /* \"#utility.yul\":7568:7588   */\n      tag_181\n        /* \"#utility.yul\":7586:7587   */\n      dup4\n        /* \"#utility.yul\":7568:7588   */\n      tag_146\n      jump\t// in\n    tag_181:\n        /* \"#utility.yul\":7563:7588   */\n      swap3\n      pop\n        /* \"#utility.yul\":7607:7608   */\n      dup3\n        /* \"#utility.yul\":7604:7605   */\n      dup3\n        /* \"#utility.yul\":7601:7609   */\n      lt\n        /* \"#utility.yul\":7598:7632   */\n      iszero\n      tag_182\n      jumpi\n        /* \"#utility.yul\":7612:7630   */\n      tag_183\n      tag_178\n      jump\t// in\n    tag_183:\n        /* \"#utility.yul\":7598:7632   */\n    tag_182:\n        /* \"#utility.yul\":7657:7658   */\n      dup3\n        /* \"#utility.yul\":7654:7655   */\n      dup3\n        /* \"#utility.yul\":7650:7659   */\n      sub\n        /* \"#utility.yul\":7642:7659   */\n      swap1\n      pop\n        /* \"#utility.yul\":7474:7665   */\n      swap3\n      swap2\n      pop\n      pop\n      jump\t// out\n        /* \"#utility.yul\":7671:7767   */\n    tag_132:\n        /* \"#utility.yul\":7708:7715   */\n      0x00\n        /* \"#utility.yul\":7737:7761   */\n      tag_185\n        /* \"#utility.yul\":7755:7760   */\n      dup3\n        /* \"#utility.yul\":7737:7761   */\n      tag_186\n      jump\t// in\n    tag_185:\n        /* \"#utility.yul\":7726:7761   */\n      swap1\n      pop\n        /* \"#utility.yul\":7671:7767   */\n      swap2\n      swap1\n      pop\n      jump\t// out\n        /* \"#utility.yul\":7773:7877   */\n    tag_187:\n        /* \"#utility.yul\":7818:7825   */\n      0x00\n        /* \"#utility.yul\":7847:7871   */\n      tag_189\n        /* \"#utility.yul\":7865:7870   */\n      dup3\n        /* \"#utility.yul\":7847:7871   */\n      tag_186\n      jump\t// in\n    tag_189:\n        /* \"#utility.yul\":7836:7871   */\n      swap1\n      pop\n        /* \"#utility.yul\":7773:7877   */\n      swap2\n      swap1\n      pop\n      jump\t// out\n        /* \"#utility.yul\":7883:8009   */\n    tag_186:\n        /* \"#utility.yul\":7920:7927   */\n      0x00\n        /* \"#utility.yul\":7960:8002   */\n      0xffffffffffffffffffffffffffffffffffffffff\n        /* \"#utility.yul\":7953:7958   */\n      dup3\n        /* \"#utility.yul\":7949:8003   */\n      and\n        /* \"#utility.yul\":7938:8003   */\n      swap1\n      pop\n        /* \"#utility.yul\":7883:8009   */\n      swap2\n      swap1\n      pop\n      jump\t// out\n        /* \"#utility.yul\":8015:8092   */\n    tag_146:\n        /* \"#utility.yul\":8052:8059   */\n      0x00\n        /* \"#utility.yul\":8081:8086   */\n      dup2\n        /* \"#utility.yul\":8070:8086   */\n      swap1\n      pop\n        /* \"#utility.yul\":8015:8092   */\n      swap2\n      swap1\n      pop\n      jump\t// out\n        /* \"#utility.yul\":8098:8252   */\n    tag_80:\n        /* \"#utility.yul\":8182:8188   */\n      dup3\n        /* \"#utility.yul\":8177:8180   */\n      dup2\n        /* \"#utility.yul\":8172:8175   */\n      dup4\n        /* \"#utility.yul\":8159:8189   */\n      calldatacopy\n        /* \"#utility.yul\":8244:8245   */\n      0x00\n        /* \"#utility.yul\":8235:8241   */\n      dup4\n        /* \"#utility.yul\":8230:8233   */\n      dup4\n        /* \"#utility.yul\":8226:8242   */\n      add\n        /* \"#utility.yul\":8219:8246   */\n      mstore\n        /* \"#utility.yul\":8098:8252   */\n      pop\n      pop\n      pop\n      jump\t// out\n        /* \"#utility.yul\":8258:8565   */\n    tag_140:\n        /* \"#utility.yul\":8326:8327   */\n      0x00\n        /* \"#utility.yul\":8336:8449   */\n    tag_194:\n        /* \"#utility.yul\":8350:8356   */\n      dup4\n        /* \"#utility.yul\":8347:8348   */\n      dup2\n        /* \"#utility.yul\":8344:8357   */\n      lt\n        /* \"#utility.yul\":8336:8449   */\n      iszero\n      tag_196\n      jumpi\n        /* \"#utility.yul\":8435:8436   */\n      dup1\n        /* \"#utility.yul\":8430:8433   */\n      dup3\n        /* \"#utility.yul\":8426:8437   */\n      add\n        /* \"#utility.yul\":8420:8438   */\n      mload\n        /* \"#utility.yul\":8416:8417   */\n      dup2\n        /* \"#utility.yul\":8411:8414   */\n      dup5\n        /* \"#utility.yul\":8407:8418   */\n      add\n        /* \"#utility.yul\":8400:8439   */\n      mstore\n        /* \"#utility.yul\":8372:8374   */\n      0x20\n        /* \"#utility.yul\":8369:8370   */\n      dup2\n        /* \"#utility.yul\":8365:8375   */\n      add\n        /* \"#utility.yul\":8360:8375   */\n      swap1\n      pop\n        /* \"#utility.yul\":8336:8449   */\n      jump(tag_194)\n    tag_196:\n        /* \"#utility.yul\":8467:8473   */\n      dup4\n        /* \"#utility.yul\":8464:8465   */\n      dup2\n        /* \"#utility.yul\":8461:8474   */\n      gt\n        /* \"#utility.yul\":8458:8559   */\n      iszero\n      tag_197\n      jumpi\n        /* \"#utility.yul\":8547:8548   */\n      0x00\n        /* \"#utility.yul\":8538:8544   */\n      dup5\n        /* \"#utility.yul\":8533:8536   */\n      dup5\n        /* \"#utility.yul\":8529:8545   */\n      add\n        /* \"#utility.yul\":8522:8549   */\n      mstore\n        /* \"#utility.yul\":8458:8559   */\n    tag_197:\n        /* \"#utility.yul\":8307:8565   */\n      pop\n        /* \"#utility.yul\":8258:8565   */\n      pop\n      pop\n      pop\n      jump\t// out\n        /* \"#utility.yul\":8571:8891   */\n    tag_36:\n        /* \"#utility.yul\":8615:8621   */\n      0x00\n        /* \"#utility.yul\":8652:8653   */\n      0x02\n        /* \"#utility.yul\":8646:8650   */\n      dup3\n        /* \"#utility.yul\":8642:8654   */\n      div\n        /* \"#utility.yul\":8632:8654   */\n      swap1\n      pop\n        /* \"#utility.yul\":8699:8700   */\n      0x01\n        /* \"#utility.yul\":8693:8697   */\n      dup3\n        /* \"#utility.yul\":8689:8701   */\n      and\n        /* \"#utility.yul\":8720:8738   */\n      dup1\n        /* \"#utility.yul\":8710:8791   */\n      tag_199\n      jumpi\n        /* \"#utility.yul\":8776:8780   */\n      0x7f\n        /* \"#utility.yul\":8768:8774   */\n      dup3\n        /* \"#utility.yul\":8764:8781   */\n      and\n        /* \"#utility.yul\":8754:8781   */\n      swap2\n      pop\n        /* \"#utility.yul\":8710:8791   */\n    tag_199:\n        /* \"#utility.yul\":8838:8840   */\n      0x20\n        /* \"#utility.yul\":8830:8836   */\n      dup3\n        /* \"#utility.yul\":8827:8841   */\n      lt\n        /* \"#utility.yul\":8807:8825   */\n      dup2\n        /* \"#utility.yul\":8804:8842   */\n      eq\n        /* \"#utility.yul\":8801:8885   */\n      iszero\n      tag_200\n      jumpi\n        /* \"#utility.yul\":8857:8875   */\n      tag_201\n      tag_202\n      jump\t// in\n    tag_201:\n        /* \"#utility.yul\":8801:8885   */\n    tag_200:\n        /* \"#utility.yul\":8622:8891   */\n      pop\n        /* \"#utility.yul\":8571:8891   */\n      swap2\n      swap1\n      pop\n      jump\t// out\n        /* \"#utility.yul\":8897:9178   */\n    tag_164:\n        /* \"#utility.yul\":8980:9007   */\n      tag_204\n        /* \"#utility.yul\":9002:9006   */\n      dup3\n        /* \"#utility.yul\":8980:9007   */\n      tag_142\n      jump\t// in\n    tag_204:\n        /* \"#utility.yul\":8972:8978   */\n      dup2\n        /* \"#utility.yul\":8968:9008   */\n      add\n        /* \"#utility.yul\":9110:9116   */\n      dup2\n        /* \"#utility.yul\":9098:9108   */\n      dup2\n        /* \"#utility.yul\":9095:9117   */\n      lt\n        /* \"#utility.yul\":9074:9092   */\n      0xffffffffffffffff\n        /* \"#utility.yul\":9062:9072   */\n      dup3\n        /* \"#utility.yul\":9059:9093   */\n      gt\n        /* \"#utility.yul\":9056:9118   */\n      or\n        /* \"#utility.yul\":9053:9141   */\n      iszero\n      tag_205\n      jumpi\n        /* \"#utility.yul\":9121:9139   */\n      tag_206\n      tag_169\n      jump\t// in\n    tag_206:\n        /* \"#utility.yul\":9053:9141   */\n    tag_205:\n        /* \"#utility.yul\":9161:9171   */\n      dup1\n        /* \"#utility.yul\":9157:9159   */\n      0x40\n        /* \"#utility.yul\":9150:9172   */\n      mstore\n        /* \"#utility.yul\":8940:9178   */\n      pop\n        /* \"#utility.yul\":8897:9178   */\n      pop\n      pop\n      jump\t// out\n        /* \"#utility.yul\":9184:9364   */\n    tag_178:\n        /* \"#utility.yul\":9232:9309   */\n      0x4e487b7100000000000000000000000000000000000000000000000000000000\n        /* \"#utility.yul\":9229:9230   */\n      0x00\n        /* \"#utility.yul\":9222:9310   */\n      mstore\n        /* \"#utility.yul\":9329:9333   */\n      0x11\n        /* \"#utility.yul\":9326:9327   */\n      0x04\n        /* \"#utility.yul\":9319:9334   */\n      mstore\n        /* \"#utility.yul\":9353:9357   */\n      0x24\n        /* \"#utility.yul\":9350:9351   */\n      0x00\n        /* \"#utility.yul\":9343:9358   */\n      revert\n        /* \"#utility.yul\":9370:9550   */\n    tag_202:\n        /* \"#utility.yul\":9418:9495   */\n      0x4e487b7100000000000000000000000000000000000000000000000000000000\n        /* \"#utility.yul\":9415:9416   */\n      0x00\n        /* \"#utility.yul\":9408:9496   */\n      mstore\n        /* \"#utility.yul\":9515:9519   */\n      0x22\n        /* \"#utility.yul\":9512:9513   */\n      0x04\n        /* \"#utility.yul\":9505:9520   */\n      mstore\n        /* \"#utility.yul\":9539:9543   */\n      0x24\n        /* \"#utility.yul\":9536:9537   */\n      0x00\n        /* \"#utility.yul\":9529:9544   */\n      revert\n        /* \"#utility.yul\":9556:9736   */\n    tag_169:\n        /* \"#utility.yul\":9604:9681   */\n      0x4e487b7100000000000000000000000000000000000000000000000000000000\n        /* \"#utility.yul\":9601:9602   */\n      0x00\n        /* \"#utility.yul\":9594:9682   */\n      mstore\n        /* \"#utility.yul\":9701:9705   */\n      0x41\n        /* \"#utility.yul\":9698:9699   */\n      0x04\n        /* \"#utility.yul\":9691:9706   */\n      mstore\n        /* \"#utility.yul\":9725:9729   */\n      0x24\n        /* \"#utility.yul\":9722:9723   */\n      0x00\n        /* \"#utility.yul\":9715:9730   */\n      revert\n        /* \"#utility.yul\":9742:9859   */\n    tag_93:\n        /* \"#utility.yul\":9851:9852   */\n      0x00\n        /* \"#utility.yul\":9848:9849   */\n      dup1\n        /* \"#utility.yul\":9841:9853   */\n      revert\n        /* \"#utility.yul\":9865:9982   */\n    tag_78:\n        /* \"#utility.yul\":9974:9975   */\n      0x00\n        /* \"#utility.yul\":9971:9972   */\n      dup1\n        /* \"#utility.yul\":9964:9976   */\n      revert\n        /* \"#utility.yul\":9988:10105   */\n    tag_114:\n        /* \"#utility.yul\":10097:10098   */\n      0x00\n        /* \"#utility.yul\":10094:10095   */\n      dup1\n        /* \"#utility.yul\":10087:10099   */\n      revert\n        /* \"#utility.yul\":10111:10228   */\n    tag_102:\n        /* \"#utility.yul\":10220:10221   */\n      0x00\n        /* \"#utility.yul\":10217:10218   */\n      dup1\n        /* \"#utility.yul\":10210:10222   */\n      revert\n        /* \"#utility.yul\":10234:10336   */\n    tag_142:\n        /* \"#utility.yul\":10275:10281   */\n      0x00\n        /* \"#utility.yul\":10326:10328   */\n      0x1f\n        /* \"#utility.yul\":10322:10329   */\n      not\n        /* \"#utility.yul\":10317:10319   */\n      0x1f\n        /* \"#utility.yul\":10310:10315   */\n      dup4\n        /* \"#utility.yul\":10306:10320   */\n      add\n        /* \"#utility.yul\":10302:10330   */\n      and\n        /* \"#utility.yul\":10292:10330   */\n      swap1\n      pop\n        /* \"#utility.yul\":10234:10336   */\n      swap2\n      swap1\n      pop\n      jump\t// out\n        /* \"#utility.yul\":10342:10464   */\n    tag_84:\n        /* \"#utility.yul\":10415:10439   */\n      tag_216\n        /* \"#utility.yul\":10433:10438   */\n      dup2\n        /* \"#utility.yul\":10415:10439   */\n      tag_132\n      jump\t// in\n    tag_216:\n        /* \"#utility.yul\":10408:10413   */\n      dup2\n        /* \"#utility.yul\":10405:10440   */\n      eq\n        /* \"#utility.yul\":10395:10458   */\n      tag_217\n      jumpi\n        /* \"#utility.yul\":10454:10455   */\n      0x00\n        /* \"#utility.yul\":10451:10452   */\n      dup1\n        /* \"#utility.yul\":10444:10456   */\n      revert\n        /* \"#utility.yul\":10395:10458   */\n    tag_217:\n        /* \"#utility.yul\":10342:10464   */\n      pop\n      jump\t// out\n        /* \"#utility.yul\":10470:10608   */\n    tag_88:\n        /* \"#utility.yul\":10551:10583   */\n      tag_219\n        /* \"#utility.yul\":10577:10582   */\n      dup2\n        /* \"#utility.yul\":10551:10583   */\n      tag_187\n      jump\t// in\n    tag_219:\n        /* \"#utility.yul\":10544:10549   */\n      dup2\n        /* \"#utility.yul\":10541:10584   */\n      eq\n        /* \"#utility.yul\":10531:10602   */\n      tag_220\n      jumpi\n        /* \"#utility.yul\":10598:10599   */\n      0x00\n        /* \"#utility.yul\":10595:10596   */\n      dup1\n        /* \"#utility.yul\":10588:10600   */\n      revert\n        /* \"#utility.yul\":10531:10602   */\n    tag_220:\n        /* \"#utility.yul\":10470:10608   */\n      pop\n      jump\t// out\n        /* \"#utility.yul\":10614:10736   */\n    tag_98:\n        /* \"#utility.yul\":10687:10711   */\n      tag_222\n        /* \"#utility.yul\":10705:10710   */\n      dup2\n        /* \"#utility.yul\":10687:10711   */\n      tag_146\n      jump\t// in\n    tag_222:\n        /* \"#utility.yul\":10680:10685   */\n      dup2\n        /* \"#utility.yul\":10677:10712   */\n      eq\n        /* \"#utility.yul\":10667:10730   */\n      tag_223\n      jumpi\n        /* \"#utility.yul\":10726:10727   */\n      0x00\n        /* \"#utility.yul\":10723:10724   */\n      dup1\n        /* \"#utility.yul\":10716:10728   */\n      revert\n        /* \"#utility.yul\":10667:10730   */\n    tag_223:\n        /* \"#utility.yul\":10614:10736   */\n      pop\n      jump\t// out\n\n    auxdata: 0xa2646970667358221220edbecb78e855d40d9932b77b0a3c54ebfa2310f653a656d85f012f32803eef9264736f6c63430008070033\n}\n",
				"bytecode": {
					"linkReferences": {},
					"object": "608060405260405180602001604052806000815250600090805190602001906200002b92919062000045565b5060006001553480156200003e57600080fd5b506200015a565b8280546200005390620000f5565b90600052602060002090601f016020900481019282620000775760008555620000c3565b82601f106200009257805160ff1916838001178555620000c3565b82800160010185558215620000c3579182015b82811115620000c2578251825591602001919060010190620000a5565b5b509050620000d29190620000d6565b5090565b5b80821115620000f1576000816000905550600101620000d7565b5090565b600060028204905060018216806200010e57607f821691505b602082108114156200012557620001246200012b565b5b50919050565b7f4e487b7100000000000000000000000000000000000000000000000000000000600052602260045260246000fd5b610d71806200016a6000396000f3fe60806040526004361061003f5760003560e01c80630b1fa23f146100445780630ebcbdb8146100605780638b9c657a1461007c578063d0679d34146100be575b600080fd5b61005e600480360381019061005991906107e8565b6100da565b005b61007a60048036038101906100759190610815565b61015b565b005b34801561008857600080fd5b506100a3600480360381019061009e91906107bb565b610354565b6040516100b5969594939291906109c4565b60405180910390f35b6100d860048036038101906100d391906108f6565b610528565b005b8073ffffffffffffffffffffffffffffffffffffffff166108fc349081150290604051600060405180830381858888f19350505050158015610120573d6000803e3d6000fd5b507fe4f740571b79610deff27ca80ef3046de224a7fc42e82177a0d9919cd5b7a8d9346040516101509190610a3a565b60405180910390a150565b84600360008873ffffffffffffffffffffffffffffffffffffffff1673ffffffffffffffffffffffffffffffffffffffff16815260200190815260200160002060000190805190602001906101b1929190610669565b5083600360008873ffffffffffffffffffffffffffffffffffffffff1673ffffffffffffffffffffffffffffffffffffffff1681526020019081526020016000206001018190555082600360008873ffffffffffffffffffffffffffffffffffffffff1673ffffffffffffffffffffffffffffffffffffffff168152602001908152602001600020600201908051906020019061024f929190610669565b5081600360008873ffffffffffffffffffffffffffffffffffffffff1673ffffffffffffffffffffffffffffffffffffffff1681526020019081526020016000206003018190555080600360008873ffffffffffffffffffffffffffffffffffffffff1673ffffffffffffffffffffffffffffffffffffffff16815260200190815260200160002060040190805190602001906102ed929190610669565b508573ffffffffffffffffffffffffffffffffffffffff1631600360008873ffffffffffffffffffffffffffffffffffffffff1673ffffffffffffffffffffffffffffffffffffffff16815260200190815260200160002060050181905550505050505050565b600360205280600052604060002060009150905080600001805461037790610be1565b80601f01602080910402602001604051908101604052809291908181526020018280546103a390610be1565b80156103f05780601f106103c5576101008083540402835291602001916103f0565b820191906000526020600020905b8154815290600101906020018083116103d357829003601f168201915b50505050509080600101549080600201805461040b90610be1565b80601f016020809104026020016040519081016040528092919081815260200182805461043790610be1565b80156104845780601f1061045957610100808354040283529160200191610484565b820191906000526020600020905b81548152906001019060200180831161046757829003601f168201915b50505050509080600301549080600401805461049f90610be1565b80601f01602080910402602001604051908101604052809291908181526020018280546104cb90610be1565b80156105185780601f106104ed57610100808354040283529160200191610518565b820191906000526020600020905b8154815290600101906020018083116104fb57829003601f168201915b5050505050908060050154905086565b80600360003373ffffffffffffffffffffffffffffffffffffffff1673ffffffffffffffffffffffffffffffffffffffff16815260200190815260200160002060050154101561057757610665565b80600360003373ffffffffffffffffffffffffffffffffffffffff1673ffffffffffffffffffffffffffffffffffffffff16815260200190815260200160002060050160008282546105c99190610b1d565b9250508190555080600360008473ffffffffffffffffffffffffffffffffffffffff1673ffffffffffffffffffffffffffffffffffffffff16815260200190815260200160002060050160008282546106229190610ac7565b925050819055507f3990db2d31862302a685e8086b5755072a6e2b5b780af1ee81ece35ee3cd334533838360405161065c9392919061098d565b60405180910390a15b5050565b82805461067590610be1565b90600052602060002090601f01602090048101928261069757600085556106de565b82601f106106b057805160ff19168380011785556106de565b828001600101855582156106de579182015b828111156106dd5782518255916020019190600101906106c2565b5b5090506106eb91906106ef565b5090565b5b808211156107085760008160009055506001016106f0565b5090565b600061071f61071a84610a7a565b610a55565b90508281526020810184848401111561073b5761073a610cd6565b5b610746848285610b9f565b509392505050565b60008135905061075d81610cf6565b92915050565b60008135905061077281610d0d565b92915050565b600082601f83011261078d5761078c610cd1565b5b813561079d84826020860161070c565b91505092915050565b6000813590506107b581610d24565b92915050565b6000602082840312156107d1576107d0610ce0565b5b60006107df8482850161074e565b91505092915050565b6000602082840312156107fe576107fd610ce0565b5b600061080c84828501610763565b91505092915050565b60008060008060008060c0878903121561083257610831610ce0565b5b600061084089828a0161074e565b965050602087013567ffffffffffffffff81111561086157610860610cdb565b5b61086d89828a01610778565b955050604061087e89828a016107a6565b945050606087013567ffffffffffffffff81111561089f5761089e610cdb565b5b6108ab89828a01610778565b93505060806108bc89828a016107a6565b92505060a087013567ffffffffffffffff8111156108dd576108dc610cdb565b5b6108e989828a01610778565b9150509295509295509295565b6000806040838503121561090d5761090c610ce0565b5b600061091b8582860161074e565b925050602061092c858286016107a6565b9150509250929050565b61093f81610b51565b82525050565b600061095082610aab565b61095a8185610ab6565b935061096a818560208601610bae565b61097381610ce5565b840191505092915050565b61098781610b95565b82525050565b60006060820190506109a26000830186610936565b6109af6020830185610936565b6109bc604083018461097e565b949350505050565b600060c08201905081810360008301526109de8189610945565b90506109ed602083018861097e565b81810360408301526109ff8187610945565b9050610a0e606083018661097e565b8181036080830152610a208185610945565b9050610a2f60a083018461097e565b979650505050505050565b6000602082019050610a4f600083018461097e565b92915050565b6000610a5f610a70565b9050610a6b8282610c13565b919050565b6000604051905090565b600067ffffffffffffffff821115610a9557610a94610ca2565b5b610a9e82610ce5565b9050602081019050919050565b600081519050919050565b600082825260208201905092915050565b6000610ad282610b95565b9150610add83610b95565b9250827fffffffffffffffffffffffffffffffffffffffffffffffffffffffffffffffff03821115610b1257610b11610c44565b5b828201905092915050565b6000610b2882610b95565b9150610b3383610b95565b925082821015610b4657610b45610c44565b5b828203905092915050565b6000610b5c82610b75565b9050919050565b6000610b6e82610b75565b9050919050565b600073ffffffffffffffffffffffffffffffffffffffff82169050919050565b6000819050919050565b82818337600083830152505050565b60005b83811015610bcc578082015181840152602081019050610bb1565b83811115610bdb576000848401525b50505050565b60006002820490506001821680610bf957607f821691505b60208210811415610c0d57610c0c610c73565b5b50919050565b610c1c82610ce5565b810181811067ffffffffffffffff82111715610c3b57610c3a610ca2565b5b80604052505050565b7f4e487b7100000000000000000000000000000000000000000000000000000000600052601160045260246000fd5b7f4e487b7100000000000000000000000000000000000000000000000000000000600052602260045260246000fd5b7f4e487b7100000000000000000000000000000000000000000000000000000000600052604160045260246000fd5b600080fd5b600080fd5b600080fd5b600080fd5b6000601f19601f8301169050919050565b610cff81610b51565b8114610d0a57600080fd5b50565b610d1681610b63565b8114610d2157600080fd5b50565b610d2d81610b95565b8114610d3857600080fd5b5056fea2646970667358221220edbecb78e855d40d9932b77b0a3c54ebfa2310f653a656d85f012f32803eef9264736f6c63430008070033",
					"opcodes": "PUSH1 0x80 PUSH1 0x40 MSTORE PUSH1 0x40 MLOAD DUP1 PUSH1 0x20 ADD PUSH1 0x40 MSTORE DUP1 PUSH1 0x0 DUP2 MSTORE POP PUSH1 0x0 SWAP1 DUP1 MLOAD SWAP1 PUSH1 0x20 ADD SWAP1 PUSH3 0x2B SWAP3 SWAP2 SWAP1 PUSH3 0x45 JUMP JUMPDEST POP PUSH1 0x0 PUSH1 0x1 SSTORE CALLVALUE DUP1 ISZERO PUSH3 0x3E JUMPI PUSH1 0x0 DUP1 REVERT JUMPDEST POP PUSH3 0x15A JUMP JUMPDEST DUP3 DUP1 SLOAD PUSH3 0x53 SWAP1 PUSH3 0xF5 JUMP JUMPDEST SWAP1 PUSH1 0x0 MSTORE PUSH1 0x20 PUSH1 0x0 KECCAK256 SWAP1 PUSH1 0x1F ADD PUSH1 0x20 SWAP1 DIV DUP2 ADD SWAP3 DUP3 PUSH3 0x77 JUMPI PUSH1 0x0 DUP6 SSTORE PUSH3 0xC3 JUMP JUMPDEST DUP3 PUSH1 0x1F LT PUSH3 0x92 JUMPI DUP1 MLOAD PUSH1 0xFF NOT AND DUP4 DUP1 ADD OR DUP6 SSTORE PUSH3 0xC3 JUMP JUMPDEST DUP3 DUP1 ADD PUSH1 0x1 ADD DUP6 SSTORE DUP3 ISZERO PUSH3 0xC3 JUMPI SWAP2 DUP3 ADD JUMPDEST DUP3 DUP2 GT ISZERO PUSH3 0xC2 JUMPI DUP3 MLOAD DUP3 SSTORE SWAP2 PUSH1 0x20 ADD SWAP2 SWAP1 PUSH1 0x1 ADD SWAP1 PUSH3 0xA5 JUMP JUMPDEST JUMPDEST POP SWAP1 POP PUSH3 0xD2 SWAP2 SWAP1 PUSH3 0xD6 JUMP JUMPDEST POP SWAP1 JUMP JUMPDEST JUMPDEST DUP1 DUP3 GT ISZERO PUSH3 0xF1 JUMPI PUSH1 0x0 DUP2 PUSH1 0x0 SWAP1 SSTORE POP PUSH1 0x1 ADD PUSH3 0xD7 JUMP JUMPDEST POP SWAP1 JUMP JUMPDEST PUSH1 0x0 PUSH1 0x2 DUP3 DIV SWAP1 POP PUSH1 0x1 DUP3 AND DUP1 PUSH3 0x10E JUMPI PUSH1 0x7F DUP3 AND SWAP2 POP JUMPDEST PUSH1 0x20 DUP3 LT DUP2 EQ ISZERO PUSH3 0x125 JUMPI PUSH3 0x124 PUSH3 0x12B JUMP JUMPDEST JUMPDEST POP SWAP2 SWAP1 POP JUMP JUMPDEST PUSH32 0x4E487B7100000000000000000000000000000000000000000000000000000000 PUSH1 0x0 MSTORE PUSH1 0x22 PUSH1 0x4 MSTORE PUSH1 0x24 PUSH1 0x0 REVERT JUMPDEST PUSH2 0xD71 DUP1 PUSH3 0x16A PUSH1 0x0 CODECOPY PUSH1 0x0 RETURN INVALID PUSH1 0x80 PUSH1 0x40 MSTORE PUSH1 0x4 CALLDATASIZE LT PUSH2 0x3F JUMPI PUSH1 0x0 CALLDATALOAD PUSH1 0xE0 SHR DUP1 PUSH4 0xB1FA23F EQ PUSH2 0x44 JUMPI DUP1 PUSH4 0xEBCBDB8 EQ PUSH2 0x60 JUMPI DUP1 PUSH4 0x8B9C657A EQ PUSH2 0x7C JUMPI DUP1 PUSH4 0xD0679D34 EQ PUSH2 0xBE JUMPI JUMPDEST PUSH1 0x0 DUP1 REVERT JUMPDEST PUSH2 0x5E PUSH1 0x4 DUP1 CALLDATASIZE SUB DUP2 ADD SWAP1 PUSH2 0x59 SWAP2 SWAP1 PUSH2 0x7E8 JUMP JUMPDEST PUSH2 0xDA JUMP JUMPDEST STOP JUMPDEST PUSH2 0x7A PUSH1 0x4 DUP1 CALLDATASIZE SUB DUP2 ADD SWAP1 PUSH2 0x75 SWAP2 SWAP1 PUSH2 0x815 JUMP JUMPDEST PUSH2 0x15B JUMP JUMPDEST STOP JUMPDEST CALLVALUE DUP1 ISZERO PUSH2 0x88 JUMPI PUSH1 0x0 DUP1 REVERT JUMPDEST POP PUSH2 0xA3 PUSH1 0x4 DUP1 CALLDATASIZE SUB DUP2 ADD SWAP1 PUSH2 0x9E SWAP2 SWAP1 PUSH2 0x7BB JUMP JUMPDEST PUSH2 0x354 JUMP JUMPDEST PUSH1 0x40 MLOAD PUSH2 0xB5 SWAP7 SWAP6 SWAP5 SWAP4 SWAP3 SWAP2 SWAP1 PUSH2 0x9C4 JUMP JUMPDEST PUSH1 0x40 MLOAD DUP1 SWAP2 SUB SWAP1 RETURN JUMPDEST PUSH2 0xD8 PUSH1 0x4 DUP1 CALLDATASIZE SUB DUP2 ADD SWAP1 PUSH2 0xD3 SWAP2 SWAP1 PUSH2 0x8F6 JUMP JUMPDEST PUSH2 0x528 JUMP JUMPDEST STOP JUMPDEST DUP1 PUSH20 0xFFFFFFFFFFFFFFFFFFFFFFFFFFFFFFFFFFFFFFFF AND PUSH2 0x8FC CALLVALUE SWAP1 DUP2 ISZERO MUL SWAP1 PUSH1 0x40 MLOAD PUSH1 0x0 PUSH1 0x40 MLOAD DUP1 DUP4 SUB DUP2 DUP6 DUP9 DUP9 CALL SWAP4 POP POP POP POP ISZERO DUP1 ISZERO PUSH2 0x120 JUMPI RETURNDATASIZE PUSH1 0x0 DUP1 RETURNDATACOPY RETURNDATASIZE PUSH1 0x0 REVERT JUMPDEST POP PUSH32 0xE4F740571B79610DEFF27CA80EF3046DE224A7FC42E82177A0D9919CD5B7A8D9 CALLVALUE PUSH1 0x40 MLOAD PUSH2 0x150 SWAP2 SWAP1 PUSH2 0xA3A JUMP JUMPDEST PUSH1 0x40 MLOAD DUP1 SWAP2 SUB SWAP1 LOG1 POP JUMP JUMPDEST DUP5 PUSH1 0x3 PUSH1 0x0 DUP9 PUSH20 0xFFFFFFFFFFFFFFFFFFFFFFFFFFFFFFFFFFFFFFFF AND PUSH20 0xFFFFFFFFFFFFFFFFFFFFFFFFFFFFFFFFFFFFFFFF AND DUP2 MSTORE PUSH1 0x20 ADD SWAP1 DUP2 MSTORE PUSH1 0x20 ADD PUSH1 0x0 KECCAK256 PUSH1 0x0 ADD SWAP1 DUP1 MLOAD SWAP1 PUSH1 0x20 ADD SWAP1 PUSH2 0x1B1 SWAP3 SWAP2 SWAP1 PUSH2 0x669 JUMP JUMPDEST POP DUP4 PUSH1 0x3 PUSH1 0x0 DUP9 PUSH20 0xFFFFFFFFFFFFFFFFFFFFFFFFFFFFFFFFFFFFFFFF AND PUSH20 0xFFFFFFFFFFFFFFFFFFFFFFFFFFFFFFFFFFFFFFFF AND DUP2 MSTORE PUSH1 0x20 ADD SWAP1 DUP2 MSTORE PUSH1 0x20 ADD PUSH1 0x0 KECCAK256 PUSH1 0x1 ADD DUP2 SWAP1 SSTORE POP DUP3 PUSH1 0x3 PUSH1 0x0 DUP9 PUSH20 0xFFFFFFFFFFFFFFFFFFFFFFFFFFFFFFFFFFFFFFFF AND PUSH20 0xFFFFFFFFFFFFFFFFFFFFFFFFFFFFFFFFFFFFFFFF AND DUP2 MSTORE PUSH1 0x20 ADD SWAP1 DUP2 MSTORE PUSH1 0x20 ADD PUSH1 0x0 KECCAK256 PUSH1 0x2 ADD SWAP1 DUP1 MLOAD SWAP1 PUSH1 0x20 ADD SWAP1 PUSH2 0x24F SWAP3 SWAP2 SWAP1 PUSH2 0x669 JUMP JUMPDEST POP DUP2 PUSH1 0x3 PUSH1 0x0 DUP9 PUSH20 0xFFFFFFFFFFFFFFFFFFFFFFFFFFFFFFFFFFFFFFFF AND PUSH20 0xFFFFFFFFFFFFFFFFFFFFFFFFFFFFFFFFFFFFFFFF AND DUP2 MSTORE PUSH1 0x20 ADD SWAP1 DUP2 MSTORE PUSH1 0x20 ADD PUSH1 0x0 KECCAK256 PUSH1 0x3 ADD DUP2 SWAP1 SSTORE POP DUP1 PUSH1 0x3 PUSH1 0x0 DUP9 PUSH20 0xFFFFFFFFFFFFFFFFFFFFFFFFFFFFFFFFFFFFFFFF AND PUSH20 0xFFFFFFFFFFFFFFFFFFFFFFFFFFFFFFFFFFFFFFFF AND DUP2 MSTORE PUSH1 0x20 ADD SWAP1 DUP2 MSTORE PUSH1 0x20 ADD PUSH1 0x0 KECCAK256 PUSH1 0x4 ADD SWAP1 DUP1 MLOAD SWAP1 PUSH1 0x20 ADD SWAP1 PUSH2 0x2ED SWAP3 SWAP2 SWAP1 PUSH2 0x669 JUMP JUMPDEST POP DUP6 PUSH20 0xFFFFFFFFFFFFFFFFFFFFFFFFFFFFFFFFFFFFFFFF AND BALANCE PUSH1 0x3 PUSH1 0x0 DUP9 PUSH20 0xFFFFFFFFFFFFFFFFFFFFFFFFFFFFFFFFFFFFFFFF AND PUSH20 0xFFFFFFFFFFFFFFFFFFFFFFFFFFFFFFFFFFFFFFFF AND DUP2 MSTORE PUSH1 0x20 ADD SWAP1 DUP2 MSTORE PUSH1 0x20 ADD PUSH1 0x0 KECCAK256 PUSH1 0x5 ADD DUP2 SWAP1 SSTORE POP POP POP POP POP POP POP JUMP JUMPDEST PUSH1 0x3 PUSH1 0x20 MSTORE DUP1 PUSH1 0x0 MSTORE PUSH1 0x40 PUSH1 0x0 KECCAK256 PUSH1 0x0 SWAP2 POP SWAP1 POP DUP1 PUSH1 0x0 ADD DUP1 SLOAD PUSH2 0x377 SWAP1 PUSH2 0xBE1 JUMP JUMPDEST DUP1 PUSH1 0x1F ADD PUSH1 0x20 DUP1 SWAP2 DIV MUL PUSH1 0x20 ADD PUSH1 0x40 MLOAD SWAP1 DUP2 ADD PUSH1 0x40 MSTORE DUP1 SWAP3 SWAP2 SWAP1 DUP2 DUP2 MSTORE PUSH1 0x20 ADD DUP3 DUP1 SLOAD PUSH2 0x3A3 SWAP1 PUSH2 0xBE1 JUMP JUMPDEST DUP1 ISZERO PUSH2 0x3F0 JUMPI DUP1 PUSH1 0x1F LT PUSH2 0x3C5 JUMPI PUSH2 0x100 DUP1 DUP4 SLOAD DIV MUL DUP4 MSTORE SWAP2 PUSH1 0x20 ADD SWAP2 PUSH2 0x3F0 JUMP JUMPDEST DUP3 ADD SWAP2 SWAP1 PUSH1 0x0 MSTORE PUSH1 0x20 PUSH1 0x0 KECCAK256 SWAP1 JUMPDEST DUP2 SLOAD DUP2 MSTORE SWAP1 PUSH1 0x1 ADD SWAP1 PUSH1 0x20 ADD DUP1 DUP4 GT PUSH2 0x3D3 JUMPI DUP3 SWAP1 SUB PUSH1 0x1F AND DUP3 ADD SWAP2 JUMPDEST POP POP POP POP POP SWAP1 DUP1 PUSH1 0x1 ADD SLOAD SWAP1 DUP1 PUSH1 0x2 ADD DUP1 SLOAD PUSH2 0x40B SWAP1 PUSH2 0xBE1 JUMP JUMPDEST DUP1 PUSH1 0x1F ADD PUSH1 0x20 DUP1 SWAP2 DIV MUL PUSH1 0x20 ADD PUSH1 0x40 MLOAD SWAP1 DUP2 ADD PUSH1 0x40 MSTORE DUP1 SWAP3 SWAP2 SWAP1 DUP2 DUP2 MSTORE PUSH1 0x20 ADD DUP3 DUP1 SLOAD PUSH2 0x437 SWAP1 PUSH2 0xBE1 JUMP JUMPDEST DUP1 ISZERO PUSH2 0x484 JUMPI DUP1 PUSH1 0x1F LT PUSH2 0x459 JUMPI PUSH2 0x100 DUP1 DUP4 SLOAD DIV MUL DUP4 MSTORE SWAP2 PUSH1 0x20 ADD SWAP2 PUSH2 0x484 JUMP JUMPDEST DUP3 ADD SWAP2 SWAP1 PUSH1 0x0 MSTORE PUSH1 0x20 PUSH1 0x0 KECCAK256 SWAP1 JUMPDEST DUP2 SLOAD DUP2 MSTORE SWAP1 PUSH1 0x1 ADD SWAP1 PUSH1 0x20 ADD DUP1 DUP4 GT PUSH2 0x467 JUMPI DUP3 SWAP1 SUB PUSH1 0x1F AND DUP3 ADD SWAP2 JUMPDEST POP POP POP POP POP SWAP1 DUP1 PUSH1 0x3 ADD SLOAD SWAP1 DUP1 PUSH1 0x4 ADD DUP1 SLOAD PUSH2 0x49F SWAP1 PUSH2 0xBE1 JUMP JUMPDEST DUP1 PUSH1 0x1F ADD PUSH1 0x20 DUP1 SWAP2 DIV MUL PUSH1 0x20 ADD PUSH1 0x40 MLOAD SWAP1 DUP2 ADD PUSH1 0x40 MSTORE DUP1 SWAP3 SWAP2 SWAP1 DUP2 DUP2 MSTORE PUSH1 0x20 ADD DUP3 DUP1 SLOAD PUSH2 0x4CB SWAP1 PUSH2 0xBE1 JUMP JUMPDEST DUP1 ISZERO PUSH2 0x518 JUMPI DUP1 PUSH1 0x1F LT PUSH2 0x4ED JUMPI PUSH2 0x100 DUP1 DUP4 SLOAD DIV MUL DUP4 MSTORE SWAP2 PUSH1 0x20 ADD SWAP2 PUSH2 0x518 JUMP JUMPDEST DUP3 ADD SWAP2 SWAP1 PUSH1 0x0 MSTORE PUSH1 0x20 PUSH1 0x0 KECCAK256 SWAP1 JUMPDEST DUP2 SLOAD DUP2 MSTORE SWAP1 PUSH1 0x1 ADD SWAP1 PUSH1 0x20 ADD DUP1 DUP4 GT PUSH2 0x4FB JUMPI DUP3 SWAP1 SUB PUSH1 0x1F AND DUP3 ADD SWAP2 JUMPDEST POP POP POP POP POP SWAP1 DUP1 PUSH1 0x5 ADD SLOAD SWAP1 POP DUP7 JUMP JUMPDEST DUP1 PUSH1 0x3 PUSH1 0x0 CALLER PUSH20 0xFFFFFFFFFFFFFFFFFFFFFFFFFFFFFFFFFFFFFFFF AND PUSH20 0xFFFFFFFFFFFFFFFFFFFFFFFFFFFFFFFFFFFFFFFF AND DUP2 MSTORE PUSH1 0x20 ADD SWAP1 DUP2 MSTORE PUSH1 0x20 ADD PUSH1 0x0 KECCAK256 PUSH1 0x5 ADD SLOAD LT ISZERO PUSH2 0x577 JUMPI PUSH2 0x665 JUMP JUMPDEST DUP1 PUSH1 0x3 PUSH1 0x0 CALLER PUSH20 0xFFFFFFFFFFFFFFFFFFFFFFFFFFFFFFFFFFFFFFFF AND PUSH20 0xFFFFFFFFFFFFFFFFFFFFFFFFFFFFFFFFFFFFFFFF AND DUP2 MSTORE PUSH1 0x20 ADD SWAP1 DUP2 MSTORE PUSH1 0x20 ADD PUSH1 0x0 KECCAK256 PUSH1 0x5 ADD PUSH1 0x0 DUP3 DUP3 SLOAD PUSH2 0x5C9 SWAP2 SWAP1 PUSH2 0xB1D JUMP JUMPDEST SWAP3 POP POP DUP2 SWAP1 SSTORE POP DUP1 PUSH1 0x3 PUSH1 0x0 DUP5 PUSH20 0xFFFFFFFFFFFFFFFFFFFFFFFFFFFFFFFFFFFFFFFF AND PUSH20 0xFFFFFFFFFFFFFFFFFFFFFFFFFFFFFFFFFFFFFFFF AND DUP2 MSTORE PUSH1 0x20 ADD SWAP1 DUP2 MSTORE PUSH1 0x20 ADD PUSH1 0x0 KECCAK256 PUSH1 0x5 ADD PUSH1 0x0 DUP3 DUP3 SLOAD PUSH2 0x622 SWAP2 SWAP1 PUSH2 0xAC7 JUMP JUMPDEST SWAP3 POP POP DUP2 SWAP1 SSTORE POP PUSH32 0x3990DB2D31862302A685E8086B5755072A6E2B5B780AF1EE81ECE35EE3CD3345 CALLER DUP4 DUP4 PUSH1 0x40 MLOAD PUSH2 0x65C SWAP4 SWAP3 SWAP2 SWAP1 PUSH2 0x98D JUMP JUMPDEST PUSH1 0x40 MLOAD DUP1 SWAP2 SUB SWAP1 LOG1 JUMPDEST POP POP JUMP JUMPDEST DUP3 DUP1 SLOAD PUSH2 0x675 SWAP1 PUSH2 0xBE1 JUMP JUMPDEST SWAP1 PUSH1 0x0 MSTORE PUSH1 0x20 PUSH1 0x0 KECCAK256 SWAP1 PUSH1 0x1F ADD PUSH1 0x20 SWAP1 DIV DUP2 ADD SWAP3 DUP3 PUSH2 0x697 JUMPI PUSH1 0x0 DUP6 SSTORE PUSH2 0x6DE JUMP JUMPDEST DUP3 PUSH1 0x1F LT PUSH2 0x6B0 JUMPI DUP1 MLOAD PUSH1 0xFF NOT AND DUP4 DUP1 ADD OR DUP6 SSTORE PUSH2 0x6DE JUMP JUMPDEST DUP3 DUP1 ADD PUSH1 0x1 ADD DUP6 SSTORE DUP3 ISZERO PUSH2 0x6DE JUMPI SWAP2 DUP3 ADD JUMPDEST DUP3 DUP2 GT ISZERO PUSH2 0x6DD JUMPI DUP3 MLOAD DUP3 SSTORE SWAP2 PUSH1 0x20 ADD SWAP2 SWAP1 PUSH1 0x1 ADD SWAP1 PUSH2 0x6C2 JUMP JUMPDEST JUMPDEST POP SWAP1 POP PUSH2 0x6EB SWAP2 SWAP1 PUSH2 0x6EF JUMP JUMPDEST POP SWAP1 JUMP JUMPDEST JUMPDEST DUP1 DUP3 GT ISZERO PUSH2 0x708 JUMPI PUSH1 0x0 DUP2 PUSH1 0x0 SWAP1 SSTORE POP PUSH1 0x1 ADD PUSH2 0x6F0 JUMP JUMPDEST POP SWAP1 JUMP JUMPDEST PUSH1 0x0 PUSH2 0x71F PUSH2 0x71A DUP5 PUSH2 0xA7A JUMP JUMPDEST PUSH2 0xA55 JUMP JUMPDEST SWAP1 POP DUP3 DUP2 MSTORE PUSH1 0x20 DUP2 ADD DUP5 DUP5 DUP5 ADD GT ISZERO PUSH2 0x73B JUMPI PUSH2 0x73A PUSH2 0xCD6 JUMP JUMPDEST JUMPDEST PUSH2 0x746 DUP5 DUP3 DUP6 PUSH2 0xB9F JUMP JUMPDEST POP SWAP4 SWAP3 POP POP POP JUMP JUMPDEST PUSH1 0x0 DUP2 CALLDATALOAD SWAP1 POP PUSH2 0x75D DUP2 PUSH2 0xCF6 JUMP JUMPDEST SWAP3 SWAP2 POP POP JUMP JUMPDEST PUSH1 0x0 DUP2 CALLDATALOAD SWAP1 POP PUSH2 0x772 DUP2 PUSH2 0xD0D JUMP JUMPDEST SWAP3 SWAP2 POP POP JUMP JUMPDEST PUSH1 0x0 DUP3 PUSH1 0x1F DUP4 ADD SLT PUSH2 0x78D JUMPI PUSH2 0x78C PUSH2 0xCD1 JUMP JUMPDEST JUMPDEST DUP2 CALLDATALOAD PUSH2 0x79D DUP5 DUP3 PUSH1 0x20 DUP7 ADD PUSH2 0x70C JUMP JUMPDEST SWAP2 POP POP SWAP3 SWAP2 POP POP JUMP JUMPDEST PUSH1 0x0 DUP2 CALLDATALOAD SWAP1 POP PUSH2 0x7B5 DUP2 PUSH2 0xD24 JUMP JUMPDEST SWAP3 SWAP2 POP POP JUMP JUMPDEST PUSH1 0x0 PUSH1 0x20 DUP3 DUP5 SUB SLT ISZERO PUSH2 0x7D1 JUMPI PUSH2 0x7D0 PUSH2 0xCE0 JUMP JUMPDEST JUMPDEST PUSH1 0x0 PUSH2 0x7DF DUP5 DUP3 DUP6 ADD PUSH2 0x74E JUMP JUMPDEST SWAP2 POP POP SWAP3 SWAP2 POP POP JUMP JUMPDEST PUSH1 0x0 PUSH1 0x20 DUP3 DUP5 SUB SLT ISZERO PUSH2 0x7FE JUMPI PUSH2 0x7FD PUSH2 0xCE0 JUMP JUMPDEST JUMPDEST PUSH1 0x0 PUSH2 0x80C DUP5 DUP3 DUP6 ADD PUSH2 0x763 JUMP JUMPDEST SWAP2 POP POP SWAP3 SWAP2 POP POP JUMP JUMPDEST PUSH1 0x0 DUP1 PUSH1 0x0 DUP1 PUSH1 0x0 DUP1 PUSH1 0xC0 DUP8 DUP10 SUB SLT ISZERO PUSH2 0x832 JUMPI PUSH2 0x831 PUSH2 0xCE0 JUMP JUMPDEST JUMPDEST PUSH1 0x0 PUSH2 0x840 DUP10 DUP3 DUP11 ADD PUSH2 0x74E JUMP JUMPDEST SWAP7 POP POP PUSH1 0x20 DUP8 ADD CALLDATALOAD PUSH8 0xFFFFFFFFFFFFFFFF DUP2 GT ISZERO PUSH2 0x861 JUMPI PUSH2 0x860 PUSH2 0xCDB JUMP JUMPDEST JUMPDEST PUSH2 0x86D DUP10 DUP3 DUP11 ADD PUSH2 0x778 JUMP JUMPDEST SWAP6 POP POP PUSH1 0x40 PUSH2 0x87E DUP10 DUP3 DUP11 ADD PUSH2 0x7A6 JUMP JUMPDEST SWAP5 POP POP PUSH1 0x60 DUP8 ADD CALLDATALOAD PUSH8 0xFFFFFFFFFFFFFFFF DUP2 GT ISZERO PUSH2 0x89F JUMPI PUSH2 0x89E PUSH2 0xCDB JUMP JUMPDEST JUMPDEST PUSH2 0x8AB DUP10 DUP3 DUP11 ADD PUSH2 0x778 JUMP JUMPDEST SWAP4 POP POP PUSH1 0x80 PUSH2 0x8BC DUP10 DUP3 DUP11 ADD PUSH2 0x7A6 JUMP JUMPDEST SWAP3 POP POP PUSH1 0xA0 DUP8 ADD CALLDATALOAD PUSH8 0xFFFFFFFFFFFFFFFF DUP2 GT ISZERO PUSH2 0x8DD JUMPI PUSH2 0x8DC PUSH2 0xCDB JUMP JUMPDEST JUMPDEST PUSH2 0x8E9 DUP10 DUP3 DUP11 ADD PUSH2 0x778 JUMP JUMPDEST SWAP2 POP POP SWAP3 SWAP6 POP SWAP3 SWAP6 POP SWAP3 SWAP6 JUMP JUMPDEST PUSH1 0x0 DUP1 PUSH1 0x40 DUP4 DUP6 SUB SLT ISZERO PUSH2 0x90D JUMPI PUSH2 0x90C PUSH2 0xCE0 JUMP JUMPDEST JUMPDEST PUSH1 0x0 PUSH2 0x91B DUP6 DUP3 DUP7 ADD PUSH2 0x74E JUMP JUMPDEST SWAP3 POP POP PUSH1 0x20 PUSH2 0x92C DUP6 DUP3 DUP7 ADD PUSH2 0x7A6 JUMP JUMPDEST SWAP2 POP POP SWAP3 POP SWAP3 SWAP1 POP JUMP JUMPDEST PUSH2 0x93F DUP2 PUSH2 0xB51 JUMP JUMPDEST DUP3 MSTORE POP POP JUMP JUMPDEST PUSH1 0x0 PUSH2 0x950 DUP3 PUSH2 0xAAB JUMP JUMPDEST PUSH2 0x95A DUP2 DUP6 PUSH2 0xAB6 JUMP JUMPDEST SWAP4 POP PUSH2 0x96A DUP2 DUP6 PUSH1 0x20 DUP7 ADD PUSH2 0xBAE JUMP JUMPDEST PUSH2 0x973 DUP2 PUSH2 0xCE5 JUMP JUMPDEST DUP5 ADD SWAP2 POP POP SWAP3 SWAP2 POP POP JUMP JUMPDEST PUSH2 0x987 DUP2 PUSH2 0xB95 JUMP JUMPDEST DUP3 MSTORE POP POP JUMP JUMPDEST PUSH1 0x0 PUSH1 0x60 DUP3 ADD SWAP1 POP PUSH2 0x9A2 PUSH1 0x0 DUP4 ADD DUP7 PUSH2 0x936 JUMP JUMPDEST PUSH2 0x9AF PUSH1 0x20 DUP4 ADD DUP6 PUSH2 0x936 JUMP JUMPDEST PUSH2 0x9BC PUSH1 0x40 DUP4 ADD DUP5 PUSH2 0x97E JUMP JUMPDEST SWAP5 SWAP4 POP POP POP POP JUMP JUMPDEST PUSH1 0x0 PUSH1 0xC0 DUP3 ADD SWAP1 POP DUP2 DUP2 SUB PUSH1 0x0 DUP4 ADD MSTORE PUSH2 0x9DE DUP2 DUP10 PUSH2 0x945 JUMP JUMPDEST SWAP1 POP PUSH2 0x9ED PUSH1 0x20 DUP4 ADD DUP9 PUSH2 0x97E JUMP JUMPDEST DUP2 DUP2 SUB PUSH1 0x40 DUP4 ADD MSTORE PUSH2 0x9FF DUP2 DUP8 PUSH2 0x945 JUMP JUMPDEST SWAP1 POP PUSH2 0xA0E PUSH1 0x60 DUP4 ADD DUP7 PUSH2 0x97E JUMP JUMPDEST DUP2 DUP2 SUB PUSH1 0x80 DUP4 ADD MSTORE PUSH2 0xA20 DUP2 DUP6 PUSH2 0x945 JUMP JUMPDEST SWAP1 POP PUSH2 0xA2F PUSH1 0xA0 DUP4 ADD DUP5 PUSH2 0x97E JUMP JUMPDEST SWAP8 SWAP7 POP POP POP POP POP POP POP JUMP JUMPDEST PUSH1 0x0 PUSH1 0x20 DUP3 ADD SWAP1 POP PUSH2 0xA4F PUSH1 0x0 DUP4 ADD DUP5 PUSH2 0x97E JUMP JUMPDEST SWAP3 SWAP2 POP POP JUMP JUMPDEST PUSH1 0x0 PUSH2 0xA5F PUSH2 0xA70 JUMP JUMPDEST SWAP1 POP PUSH2 0xA6B DUP3 DUP3 PUSH2 0xC13 JUMP JUMPDEST SWAP2 SWAP1 POP JUMP JUMPDEST PUSH1 0x0 PUSH1 0x40 MLOAD SWAP1 POP SWAP1 JUMP JUMPDEST PUSH1 0x0 PUSH8 0xFFFFFFFFFFFFFFFF DUP3 GT ISZERO PUSH2 0xA95 JUMPI PUSH2 0xA94 PUSH2 0xCA2 JUMP JUMPDEST JUMPDEST PUSH2 0xA9E DUP3 PUSH2 0xCE5 JUMP JUMPDEST SWAP1 POP PUSH1 0x20 DUP2 ADD SWAP1 POP SWAP2 SWAP1 POP JUMP JUMPDEST PUSH1 0x0 DUP2 MLOAD SWAP1 POP SWAP2 SWAP1 POP JUMP JUMPDEST PUSH1 0x0 DUP3 DUP3 MSTORE PUSH1 0x20 DUP3 ADD SWAP1 POP SWAP3 SWAP2 POP POP JUMP JUMPDEST PUSH1 0x0 PUSH2 0xAD2 DUP3 PUSH2 0xB95 JUMP JUMPDEST SWAP2 POP PUSH2 0xADD DUP4 PUSH2 0xB95 JUMP JUMPDEST SWAP3 POP DUP3 PUSH32 0xFFFFFFFFFFFFFFFFFFFFFFFFFFFFFFFFFFFFFFFFFFFFFFFFFFFFFFFFFFFFFFFF SUB DUP3 GT ISZERO PUSH2 0xB12 JUMPI PUSH2 0xB11 PUSH2 0xC44 JUMP JUMPDEST JUMPDEST DUP3 DUP3 ADD SWAP1 POP SWAP3 SWAP2 POP POP JUMP JUMPDEST PUSH1 0x0 PUSH2 0xB28 DUP3 PUSH2 0xB95 JUMP JUMPDEST SWAP2 POP PUSH2 0xB33 DUP4 PUSH2 0xB95 JUMP JUMPDEST SWAP3 POP DUP3 DUP3 LT ISZERO PUSH2 0xB46 JUMPI PUSH2 0xB45 PUSH2 0xC44 JUMP JUMPDEST JUMPDEST DUP3 DUP3 SUB SWAP1 POP SWAP3 SWAP2 POP POP JUMP JUMPDEST PUSH1 0x0 PUSH2 0xB5C DUP3 PUSH2 0xB75 JUMP JUMPDEST SWAP1 POP SWAP2 SWAP1 POP JUMP JUMPDEST PUSH1 0x0 PUSH2 0xB6E DUP3 PUSH2 0xB75 JUMP JUMPDEST SWAP1 POP SWAP2 SWAP1 POP JUMP JUMPDEST PUSH1 0x0 PUSH20 0xFFFFFFFFFFFFFFFFFFFFFFFFFFFFFFFFFFFFFFFF DUP3 AND SWAP1 POP SWAP2 SWAP1 POP JUMP JUMPDEST PUSH1 0x0 DUP2 SWAP1 POP SWAP2 SWAP1 POP JUMP JUMPDEST DUP3 DUP2 DUP4 CALLDATACOPY PUSH1 0x0 DUP4 DUP4 ADD MSTORE POP POP POP JUMP JUMPDEST PUSH1 0x0 JUMPDEST DUP4 DUP2 LT ISZERO PUSH2 0xBCC JUMPI DUP1 DUP3 ADD MLOAD DUP2 DUP5 ADD MSTORE PUSH1 0x20 DUP2 ADD SWAP1 POP PUSH2 0xBB1 JUMP JUMPDEST DUP4 DUP2 GT ISZERO PUSH2 0xBDB JUMPI PUSH1 0x0 DUP5 DUP5 ADD MSTORE JUMPDEST POP POP POP POP JUMP JUMPDEST PUSH1 0x0 PUSH1 0x2 DUP3 DIV SWAP1 POP PUSH1 0x1 DUP3 AND DUP1 PUSH2 0xBF9 JUMPI PUSH1 0x7F DUP3 AND SWAP2 POP JUMPDEST PUSH1 0x20 DUP3 LT DUP2 EQ ISZERO PUSH2 0xC0D JUMPI PUSH2 0xC0C PUSH2 0xC73 JUMP JUMPDEST JUMPDEST POP SWAP2 SWAP1 POP JUMP JUMPDEST PUSH2 0xC1C DUP3 PUSH2 0xCE5 JUMP JUMPDEST DUP2 ADD DUP2 DUP2 LT PUSH8 0xFFFFFFFFFFFFFFFF DUP3 GT OR ISZERO PUSH2 0xC3B JUMPI PUSH2 0xC3A PUSH2 0xCA2 JUMP JUMPDEST JUMPDEST DUP1 PUSH1 0x40 MSTORE POP POP POP JUMP JUMPDEST PUSH32 0x4E487B7100000000000000000000000000000000000000000000000000000000 PUSH1 0x0 MSTORE PUSH1 0x11 PUSH1 0x4 MSTORE PUSH1 0x24 PUSH1 0x0 REVERT JUMPDEST PUSH32 0x4E487B7100000000000000000000000000000000000000000000000000000000 PUSH1 0x0 MSTORE PUSH1 0x22 PUSH1 0x4 MSTORE PUSH1 0x24 PUSH1 0x0 REVERT JUMPDEST PUSH32 0x4E487B7100000000000000000000000000000000000000000000000000000000 PUSH1 0x0 MSTORE PUSH1 0x41 PUSH1 0x4 MSTORE PUSH1 0x24 PUSH1 0x0 REVERT JUMPDEST PUSH1 0x0 DUP1 REVERT JUMPDEST PUSH1 0x0 DUP1 REVERT JUMPDEST PUSH1 0x0 DUP1 REVERT JUMPDEST PUSH1 0x0 DUP1 REVERT JUMPDEST PUSH1 0x0 PUSH1 0x1F NOT PUSH1 0x1F DUP4 ADD AND SWAP1 POP SWAP2 SWAP1 POP JUMP JUMPDEST PUSH2 0xCFF DUP2 PUSH2 0xB51 JUMP JUMPDEST DUP2 EQ PUSH2 0xD0A JUMPI PUSH1 0x0 DUP1 REVERT JUMPDEST POP JUMP JUMPDEST PUSH2 0xD16 DUP2 PUSH2 0xB63 JUMP JUMPDEST DUP2 EQ PUSH2 0xD21 JUMPI PUSH1 0x0 DUP1 REVERT JUMPDEST POP JUMP JUMPDEST PUSH2 0xD2D DUP2 PUSH2 0xB95 JUMP JUMPDEST DUP2 EQ PUSH2 0xD38 JUMPI PUSH1 0x0 DUP1 REVERT JUMPDEST POP JUMP INVALID LOG2 PUSH5 0x6970667358 0x22 SLT KECCAK256 0xED 0xBE 0xCB PUSH25 0xE855D40D9932B77B0A3C54EBFA2310F653A656D85F012F3280 RETURNDATACOPY 0xEF SWAP3 PUSH5 0x736F6C6343 STOP ADDMOD SMOD STOP CALLER "
				},
				"gasEstimates": {
					"creation": {
						"codeDepositCost": "688200",
						"executionCost": "infinite",
						"totalCost": "infinite"
					},
					"external": {
						"getInfoByWallet(address)": "infinite",
						"send(address,uint256)": "infinite",
						"sendNow(address)": "infinite",
						"setInfo(address,string,uint256,string,uint256,string)": "infinite"
					}
				},
				"methodIdentifiers": {
					"getInfoByWallet(address)": "8b9c657a",
					"send(address,uint256)": "d0679d34",
					"sendNow(address)": "0b1fa23f",
					"setInfo(address,string,uint256,string,uint256,string)": "0ebcbdb8"
				}
			},
			"storageLayout": {
				"storage": [
					{
						"astId": 29,
						"contract": "sendtosend.sol:status",
						"label": "name",
						"offset": 0,
						"slot": "0",
						"type": "t_string_storage"
					},
					{
						"astId": 32,
						"contract": "sendtosend.sol:status",
						"label": "balance",
						"offset": 0,
						"slot": "1",
						"type": "t_uint256"
					},
					{
						"astId": 36,
						"contract": "sendtosend.sol:status",
						"label": "Students",
						"offset": 0,
						"slot": "2",
						"type": "t_array(t_struct(Student)26_storage)dyn_storage"
					},
					{
						"astId": 41,
						"contract": "sendtosend.sol:status",
						"label": "getInfoByWallet",
						"offset": 0,
						"slot": "3",
						"type": "t_mapping(t_address,t_struct(Student)26_storage)"
					}
				],
				"types": {
					"t_address": {
						"encoding": "inplace",
						"label": "address",
						"numberOfBytes": "20"
					},
					"t_array(t_struct(Student)26_storage)dyn_storage": {
						"base": "t_struct(Student)26_storage",
						"encoding": "dynamic_array",
						"label": "struct status.Student[]",
						"numberOfBytes": "32"
					},
					"t_mapping(t_address,t_struct(Student)26_storage)": {
						"encoding": "mapping",
						"key": "t_address",
						"label": "mapping(address => struct status.Student)",
						"numberOfBytes": "32",
						"value": "t_struct(Student)26_storage"
					},
					"t_string_storage": {
						"encoding": "bytes",
						"label": "string",
						"numberOfBytes": "32"
					},
					"t_struct(Student)26_storage": {
						"encoding": "inplace",
						"label": "struct status.Student",
						"members": [
							{
								"astId": 15,
								"contract": "sendtosend.sol:status",
								"label": "name",
								"offset": 0,
								"slot": "0",
								"type": "t_string_storage"
							},
							{
								"astId": 17,
								"contract": "sendtosend.sol:status",
								"label": "StudentID",
								"offset": 0,
								"slot": "1",
								"type": "t_uint256"
							},
							{
								"astId": 19,
								"contract": "sendtosend.sol:status",
								"label": "major",
								"offset": 0,
								"slot": "2",
								"type": "t_string_storage"
							},
							{
								"astId": 21,
								"contract": "sendtosend.sol:status",
								"label": "gpa",
								"offset": 0,
								"slot": "3",
								"type": "t_uint256"
							},
							{
								"astId": 23,
								"contract": "sendtosend.sol:status",
								"label": "company",
								"offset": 0,
								"slot": "4",
								"type": "t_string_storage"
							},
							{
								"astId": 25,
								"contract": "sendtosend.sol:status",
								"label": "balance",
								"offset": 0,
								"slot": "5",
								"type": "t_uint256"
							}
						],
						"numberOfBytes": "192"
					},
					"t_uint256": {
						"encoding": "inplace",
						"label": "uint256",
						"numberOfBytes": "32"
					}
				}
			},
			"userdoc": {
				"kind": "user",
				"methods": {},
				"version": 1
			}
		}
	}
}