{
	"SetNSend.sol": {
		"status": {
			"abi": [
				{
					"anonymous": false,
					"inputs": [
						{
							"indexed": false,
							"internalType": "address",
							"name": "from",
							"type": "address"
						},
						{
							"indexed": false,
							"internalType": "address",
							"name": "to",
							"type": "address"
						},
						{
							"indexed": false,
							"internalType": "uint256",
							"name": "amount",
							"type": "uint256"
						}
					],
					"name": "Sent",
					"type": "event"
				},
				{
					"inputs": [
						{
							"internalType": "address",
							"name": "",
							"type": "address"
						}
					],
					"name": "getInfoByWallet",
					"outputs": [
						{
							"internalType": "string",
							"name": "name",
							"type": "string"
						},
						{
							"internalType": "uint256",
							"name": "StudentID",
							"type": "uint256"
						},
						{
							"internalType": "string",
							"name": "major",
							"type": "string"
						},
						{
							"internalType": "uint256",
							"name": "gpa",
							"type": "uint256"
						},
						{
							"internalType": "string",
							"name": "company",
							"type": "string"
						},
						{
							"internalType": "uint256",
							"name": "balance",
							"type": "uint256"
						}
					],
					"stateMutability": "view",
					"type": "function"
				},
				{
					"inputs": [
						{
							"internalType": "address",
							"name": "receiver",
							"type": "address"
						},
						{
							"internalType": "uint256",
							"name": "amount",
							"type": "uint256"
						}
					],
					"name": "send",
					"outputs": [],
					"stateMutability": "payable",
					"type": "function"
				},
				{
					"inputs": [
						{
							"internalType": "address",
							"name": "_wall",
							"type": "address"
						},
						{
							"internalType": "string",
							"name": "_name",
							"type": "string"
						},
						{
							"internalType": "uint256",
							"name": "_StudentID",
							"type": "uint256"
						},
						{
							"internalType": "string",
							"name": "_major",
							"type": "string"
						},
						{
							"internalType": "uint256",
							"name": "_gpa",
							"type": "uint256"
						},
						{
							"internalType": "string",
							"name": "_company",
							"type": "string"
						},
						{
							"internalType": "uint256",
							"name": "_balance",
							"type": "uint256"
						}
					],
					"name": "setInfo",
					"outputs": [],
					"stateMutability": "payable",
					"type": "function"
				}
			],
			"devdoc": {
				"kind": "dev",
				"methods": {},
				"version": 1
			},
			"evm": {
				"assembly": "    /* \"SetNSend.sol\":72:1278  contract status{\r... */\n  mstore(0x40, 0x80)\n    /* \"SetNSend.sol\":417:433  string name = \"\" */\n  mload(0x40)\n  dup1\n  0x20\n  add\n  0x40\n  mstore\n  dup1\n  0x00\n  dup2\n  mstore\n  pop\n  0x00\n  swap1\n  dup1\n  mload\n  swap1\n  0x20\n  add\n  swap1\n  tag_1\n  swap3\n  swap2\n  swap1\n  tag_2\n  jump\t// in\ntag_1:\n  pop\n    /* \"SetNSend.sol\":458:459  0 */\n  0x00\n    /* \"SetNSend.sol\":440:459  uint256 balance = 0 */\n  0x01\n  sstore\n    /* \"SetNSend.sol\":72:1278  contract status{\r... */\n  callvalue\n  dup1\n  iszero\n  tag_3\n  jumpi\n  0x00\n  dup1\n  revert\ntag_3:\n  pop\n  jump(tag_4)\ntag_2:\n  dup3\n  dup1\n  sload\n  tag_5\n  swap1\n  tag_6\n  jump\t// in\ntag_5:\n  swap1\n  0x00\n  mstore\n  keccak256(0x00, 0x20)\n  swap1\n  0x1f\n  add\n  0x20\n  swap1\n  div\n  dup2\n  add\n  swap3\n  dup3\n  tag_8\n  jumpi\n  0x00\n  dup6\n  sstore\n  jump(tag_7)\ntag_8:\n  dup3\n  0x1f\n  lt\n  tag_9\n  jumpi\n  dup1\n  mload\n  not(0xff)\n  and\n  dup4\n  dup1\n  add\n  or\n  dup6\n  sstore\n  jump(tag_7)\ntag_9:\n  dup3\n  dup1\n  add\n  0x01\n  add\n  dup6\n  sstore\n  dup3\n  iszero\n  tag_7\n  jumpi\n  swap2\n  dup3\n  add\ntag_10:\n  dup3\n  dup2\n  gt\n  iszero\n  tag_11\n  jumpi\n  dup3\n  mload\n  dup3\n  sstore\n  swap2\n  0x20\n  add\n  swap2\n  swap1\n  0x01\n  add\n  swap1\n  jump(tag_10)\ntag_11:\ntag_7:\n  pop\n  swap1\n  pop\n  tag_12\n  swap2\n  swap1\n  tag_13\n  jump\t// in\ntag_12:\n  pop\n  swap1\n  jump\t// out\ntag_13:\ntag_14:\n  dup1\n  dup3\n  gt\n  iszero\n  tag_15\n  jumpi\n  0x00\n  dup2\n  0x00\n  swap1\n  sstore\n  pop\n  0x01\n  add\n  jump(tag_14)\ntag_15:\n  pop\n  swap1\n  jump\t// out\n    /* \"#utility.yul\":7:327   */\ntag_6:\n    /* \"#utility.yul\":51:57   */\n  0x00\n    /* \"#utility.yul\":88:89   */\n  0x02\n    /* \"#utility.yul\":82:86   */\n  dup3\n    /* \"#utility.yul\":78:90   */\n  div\n    /* \"#utility.yul\":68:90   */\n  swap1\n  pop\n    /* \"#utility.yul\":135:136   */\n  0x01\n    /* \"#utility.yul\":129:133   */\n  dup3\n    /* \"#utility.yul\":125:137   */\n  and\n    /* \"#utility.yul\":156:174   */\n  dup1\n    /* \"#utility.yul\":146:227   */\n  tag_18\n  jumpi\n    /* \"#utility.yul\":212:216   */\n  0x7f\n    /* \"#utility.yul\":204:210   */\n  dup3\n    /* \"#utility.yul\":200:217   */\n  and\n    /* \"#utility.yul\":190:217   */\n  swap2\n  pop\n    /* \"#utility.yul\":146:227   */\ntag_18:\n    /* \"#utility.yul\":274:276   */\n  0x20\n    /* \"#utility.yul\":266:272   */\n  dup3\n    /* \"#utility.yul\":263:277   */\n  lt\n    /* \"#utility.yul\":243:261   */\n  dup2\n    /* \"#utility.yul\":240:278   */\n  eq\n    /* \"#utility.yul\":237:321   */\n  iszero\n  tag_19\n  jumpi\n    /* \"#utility.yul\":293:311   */\n  tag_20\n  tag_21\n  jump\t// in\ntag_20:\n    /* \"#utility.yul\":237:321   */\ntag_19:\n    /* \"#utility.yul\":58:327   */\n  pop\n    /* \"#utility.yul\":7:327   */\n  swap2\n  swap1\n  pop\n  jump\t// out\n    /* \"#utility.yul\":333:513   */\ntag_21:\n    /* \"#utility.yul\":381:458   */\n  0x4e487b7100000000000000000000000000000000000000000000000000000000\n    /* \"#utility.yul\":378:379   */\n  0x00\n    /* \"#utility.yul\":371:459   */\n  mstore\n    /* \"#utility.yul\":478:482   */\n  0x22\n    /* \"#utility.yul\":475:476   */\n  0x04\n    /* \"#utility.yul\":468:483   */\n  mstore\n    /* \"#utility.yul\":502:506   */\n  0x24\n    /* \"#utility.yul\":499:500   */\n  0x00\n    /* \"#utility.yul\":492:507   */\n  revert\n    /* \"SetNSend.sol\":72:1278  contract status{\r... */\ntag_4:\n  dataSize(sub_0)\n  dup1\n  dataOffset(sub_0)\n  0x00\n  codecopy\n  0x00\n  return\nstop\n\nsub_0: assembly {\n        /* \"SetNSend.sol\":72:1278  contract status{\r... */\n      mstore(0x40, 0x80)\n      jumpi(tag_1, lt(calldatasize, 0x04))\n      shr(0xe0, calldataload(0x00))\n      dup1\n      0x8b9c657a\n      eq\n      tag_2\n      jumpi\n      dup1\n      0x90e1f79d\n      eq\n      tag_3\n      jumpi\n      dup1\n      0xd0679d34\n      eq\n      tag_4\n      jumpi\n    tag_1:\n      0x00\n      dup1\n      revert\n        /* \"SetNSend.sol\":493:543  mapping(address => Student) public getInfoByWallet */\n    tag_2:\n      callvalue\n      dup1\n      iszero\n      tag_5\n      jumpi\n      0x00\n      dup1\n      revert\n    tag_5:\n      pop\n      tag_6\n      0x04\n      dup1\n      calldatasize\n      sub\n      dup2\n      add\n      swap1\n      tag_7\n      swap2\n      swap1\n      tag_8\n      jump\t// in\n    tag_7:\n      tag_9\n      jump\t// in\n    tag_6:\n      mload(0x40)\n      tag_10\n      swap7\n      swap6\n      swap5\n      swap4\n      swap3\n      swap2\n      swap1\n      tag_11\n      jump\t// in\n    tag_10:\n      mload(0x40)\n      dup1\n      swap2\n      sub\n      swap1\n      return\n        /* \"SetNSend.sol\":552:972  function setInfo(address _wall, string memory _name, uint256 _StudentID, string memory _major, uint256 _gpa, string memory _company, uint256 _balance) public payable {\r... */\n    tag_3:\n      tag_12\n      0x04\n      dup1\n      calldatasize\n      sub\n      dup2\n      add\n      swap1\n      tag_13\n      swap2\n      swap1\n      tag_14\n      jump\t// in\n    tag_13:\n      tag_15\n      jump\t// in\n    tag_12:\n      stop\n        /* \"SetNSend.sol\":980:1275  function send(address receiver, uint amount) public payable {\r... */\n    tag_4:\n      tag_16\n      0x04\n      dup1\n      calldatasize\n      sub\n      dup2\n      add\n      swap1\n      tag_17\n      swap2\n      swap1\n      tag_18\n      jump\t// in\n    tag_17:\n      tag_19\n      jump\t// in\n    tag_16:\n      stop\n        /* \"SetNSend.sol\":493:543  mapping(address => Student) public getInfoByWallet */\n    tag_9:\n      mstore(0x20, 0x03)\n      dup1\n      0x00\n      mstore\n      keccak256(0x00, 0x40)\n      0x00\n      swap2\n      pop\n      swap1\n      pop\n      dup1\n      0x00\n      add\n      dup1\n      sload\n      tag_20\n      swap1\n      tag_21\n      jump\t// in\n    tag_20:\n      dup1\n      0x1f\n      add\n      0x20\n      dup1\n      swap2\n      div\n      mul\n      0x20\n      add\n      mload(0x40)\n      swap1\n      dup2\n      add\n      0x40\n      mstore\n      dup1\n      swap3\n      swap2\n      swap1\n      dup2\n      dup2\n      mstore\n      0x20\n      add\n      dup3\n      dup1\n      sload\n      tag_22\n      swap1\n      tag_21\n      jump\t// in\n    tag_22:\n      dup1\n      iszero\n      tag_23\n      jumpi\n      dup1\n      0x1f\n      lt\n      tag_24\n      jumpi\n      0x0100\n      dup1\n      dup4\n      sload\n      div\n      mul\n      dup4\n      mstore\n      swap2\n      0x20\n      add\n      swap2\n      jump(tag_23)\n    tag_24:\n      dup3\n      add\n      swap2\n      swap1\n      0x00\n      mstore\n      keccak256(0x00, 0x20)\n      swap1\n    tag_25:\n      dup2\n      sload\n      dup2\n      mstore\n      swap1\n      0x01\n      add\n      swap1\n      0x20\n      add\n      dup1\n      dup4\n      gt\n      tag_25\n      jumpi\n      dup3\n      swap1\n      sub\n      0x1f\n      and\n      dup3\n      add\n      swap2\n    tag_23:\n      pop\n      pop\n      pop\n      pop\n      pop\n      swap1\n      dup1\n      0x01\n      add\n      sload\n      swap1\n      dup1\n      0x02\n      add\n      dup1\n      sload\n      tag_26\n      swap1\n      tag_21\n      jump\t// in\n    tag_26:\n      dup1\n      0x1f\n      add\n      0x20\n      dup1\n      swap2\n      div\n      mul\n      0x20\n      add\n      mload(0x40)\n      swap1\n      dup2\n      add\n      0x40\n      mstore\n      dup1\n      swap3\n      swap2\n      swap1\n      dup2\n      dup2\n      mstore\n      0x20\n      add\n      dup3\n      dup1\n      sload\n      tag_27\n      swap1\n      tag_21\n      jump\t// in\n    tag_27:\n      dup1\n      iszero\n      tag_28\n      jumpi\n      dup1\n      0x1f\n      lt\n      tag_29\n      jumpi\n      0x0100\n      dup1\n      dup4\n      sload\n      div\n      mul\n      dup4\n      mstore\n      swap2\n      0x20\n      add\n      swap2\n      jump(tag_28)\n    tag_29:\n      dup3\n      add\n      swap2\n      swap1\n      0x00\n      mstore\n      keccak256(0x00, 0x20)\n      swap1\n    tag_30:\n      dup2\n      sload\n      dup2\n      mstore\n      swap1\n      0x01\n      add\n      swap1\n      0x20\n      add\n      dup1\n      dup4\n      gt\n      tag_30\n      jumpi\n      dup3\n      swap1\n      sub\n      0x1f\n      and\n      dup3\n      add\n      swap2\n    tag_28:\n      pop\n      pop\n      pop\n      pop\n      pop\n      swap1\n      dup1\n      0x03\n      add\n      sload\n      swap1\n      dup1\n      0x04\n      add\n      dup1\n      sload\n      tag_31\n      swap1\n      tag_21\n      jump\t// in\n    tag_31:\n      dup1\n      0x1f\n      add\n      0x20\n      dup1\n      swap2\n      div\n      mul\n      0x20\n      add\n      mload(0x40)\n      swap1\n      dup2\n      add\n      0x40\n      mstore\n      dup1\n      swap3\n      swap2\n      swap1\n      dup2\n      dup2\n      mstore\n      0x20\n      add\n      dup3\n      dup1\n      sload\n      tag_32\n      swap1\n      tag_21\n      jump\t// in\n    tag_32:\n      dup1\n      iszero\n      tag_33\n      jumpi\n      dup1\n      0x1f\n      lt\n      tag_34\n      jumpi\n      0x0100\n      dup1\n      dup4\n      sload\n      div\n      mul\n      dup4\n      mstore\n      swap2\n      0x20\n      add\n      swap2\n      jump(tag_33)\n    tag_34:\n      dup3\n      add\n      swap2\n      swap1\n      0x00\n      mstore\n      keccak256(0x00, 0x20)\n      swap1\n    tag_35:\n      dup2\n      sload\n      dup2\n      mstore\n      swap1\n      0x01\n      add\n      swap1\n      0x20\n      add\n      dup1\n      dup4\n      gt\n      tag_35\n      jumpi\n      dup3\n      swap1\n      sub\n      0x1f\n      and\n      dup3\n      add\n      swap2\n    tag_33:\n      pop\n      pop\n      pop\n      pop\n      pop\n      swap1\n      dup1\n      0x05\n      add\n      sload\n      swap1\n      pop\n      dup7\n      jump\t// out\n        /* \"SetNSend.sol\":552:972  function setInfo(address _wall, string memory _name, uint256 _StudentID, string memory _major, uint256 _gpa, string memory _company, uint256 _balance) public payable {\r... */\n    tag_15:\n        /* \"SetNSend.sol\":759:764  _name */\n      dup6\n        /* \"SetNSend.sol\":729:744  getInfoByWallet */\n      0x03\n        /* \"SetNSend.sol\":729:751  getInfoByWallet[_wall] */\n      0x00\n        /* \"SetNSend.sol\":745:750  _wall */\n      dup10\n        /* \"SetNSend.sol\":729:751  getInfoByWallet[_wall] */\n      0xffffffffffffffffffffffffffffffffffffffff\n      and\n      0xffffffffffffffffffffffffffffffffffffffff\n      and\n      dup2\n      mstore\n      0x20\n      add\n      swap1\n      dup2\n      mstore\n      0x20\n      add\n      0x00\n      keccak256\n        /* \"SetNSend.sol\":729:756  getInfoByWallet[_wall].name */\n      0x00\n      add\n        /* \"SetNSend.sol\":729:764  getInfoByWallet[_wall].name = _name */\n      swap1\n      dup1\n      mload\n      swap1\n      0x20\n      add\n      swap1\n      tag_37\n      swap3\n      swap2\n      swap1\n      tag_38\n      jump\t// in\n    tag_37:\n      pop\n        /* \"SetNSend.sol\":810:820  _StudentID */\n      dup5\n        /* \"SetNSend.sol\":775:790  getInfoByWallet */\n      0x03\n        /* \"SetNSend.sol\":775:797  getInfoByWallet[_wall] */\n      0x00\n        /* \"SetNSend.sol\":791:796  _wall */\n      dup10\n        /* \"SetNSend.sol\":775:797  getInfoByWallet[_wall] */\n      0xffffffffffffffffffffffffffffffffffffffff\n      and\n      0xffffffffffffffffffffffffffffffffffffffff\n      and\n      dup2\n      mstore\n      0x20\n      add\n      swap1\n      dup2\n      mstore\n      0x20\n      add\n      0x00\n      keccak256\n        /* \"SetNSend.sol\":775:807  getInfoByWallet[_wall].StudentID */\n      0x01\n      add\n        /* \"SetNSend.sol\":775:820  getInfoByWallet[_wall].StudentID = _StudentID */\n      dup2\n      swap1\n      sstore\n      pop\n        /* \"SetNSend.sol\":862:868  _major */\n      dup4\n        /* \"SetNSend.sol\":831:846  getInfoByWallet */\n      0x03\n        /* \"SetNSend.sol\":831:853  getInfoByWallet[_wall] */\n      0x00\n        /* \"SetNSend.sol\":847:852  _wall */\n      dup10\n        /* \"SetNSend.sol\":831:853  getInfoByWallet[_wall] */\n      0xffffffffffffffffffffffffffffffffffffffff\n      and\n      0xffffffffffffffffffffffffffffffffffffffff\n      and\n      dup2\n      mstore\n      0x20\n      add\n      swap1\n      dup2\n      mstore\n      0x20\n      add\n      0x00\n      keccak256\n        /* \"SetNSend.sol\":831:859  getInfoByWallet[_wall].major */\n      0x02\n      add\n        /* \"SetNSend.sol\":831:868  getInfoByWallet[_wall].major = _major */\n      swap1\n      dup1\n      mload\n      swap1\n      0x20\n      add\n      swap1\n      tag_39\n      swap3\n      swap2\n      swap1\n      tag_38\n      jump\t// in\n    tag_39:\n      pop\n        /* \"SetNSend.sol\":908:912  _gpa */\n      dup3\n        /* \"SetNSend.sol\":879:894  getInfoByWallet */\n      0x03\n        /* \"SetNSend.sol\":879:901  getInfoByWallet[_wall] */\n      0x00\n        /* \"SetNSend.sol\":895:900  _wall */\n      dup10\n        /* \"SetNSend.sol\":879:901  getInfoByWallet[_wall] */\n      0xffffffffffffffffffffffffffffffffffffffff\n      and\n      0xffffffffffffffffffffffffffffffffffffffff\n      and\n      dup2\n      mstore\n      0x20\n      add\n      swap1\n      dup2\n      mstore\n      0x20\n      add\n      0x00\n      keccak256\n        /* \"SetNSend.sol\":879:905  getInfoByWallet[_wall].gpa */\n      0x03\n      add\n        /* \"SetNSend.sol\":879:912  getInfoByWallet[_wall].gpa = _gpa */\n      dup2\n      swap1\n      sstore\n      pop\n        /* \"SetNSend.sol\":956:964  _company */\n      dup2\n        /* \"SetNSend.sol\":923:938  getInfoByWallet */\n      0x03\n        /* \"SetNSend.sol\":923:945  getInfoByWallet[_wall] */\n      0x00\n        /* \"SetNSend.sol\":939:944  _wall */\n      dup10\n        /* \"SetNSend.sol\":923:945  getInfoByWallet[_wall] */\n      0xffffffffffffffffffffffffffffffffffffffff\n      and\n      0xffffffffffffffffffffffffffffffffffffffff\n      and\n      dup2\n      mstore\n      0x20\n      add\n      swap1\n      dup2\n      mstore\n      0x20\n      add\n      0x00\n      keccak256\n        /* \"SetNSend.sol\":923:953  getInfoByWallet[_wall].company */\n      0x04\n      add\n        /* \"SetNSend.sol\":923:964  getInfoByWallet[_wall].company = _company */\n      swap1\n      dup1\n      mload\n      swap1\n      0x20\n      add\n      swap1\n      tag_40\n      swap3\n      swap2\n      swap1\n      tag_38\n      jump\t// in\n    tag_40:\n      pop\n        /* \"SetNSend.sol\":552:972  function setInfo(address _wall, string memory _name, uint256 _StudentID, string memory _major, uint256 _gpa, string memory _company, uint256 _balance) public payable {\r... */\n      pop\n      pop\n      pop\n      pop\n      pop\n      pop\n      pop\n      jump\t// out\n        /* \"SetNSend.sol\":980:1275  function send(address receiver, uint amount) public payable {\r... */\n    tag_19:\n        /* \"SetNSend.sol\":1093:1099  amount */\n      dup1\n        /* \"SetNSend.sol\":1055:1070  getInfoByWallet */\n      0x03\n        /* \"SetNSend.sol\":1055:1082  getInfoByWallet[msg.sender] */\n      0x00\n        /* \"SetNSend.sol\":1071:1081  msg.sender */\n      caller\n        /* \"SetNSend.sol\":1055:1082  getInfoByWallet[msg.sender] */\n      0xffffffffffffffffffffffffffffffffffffffff\n      and\n      0xffffffffffffffffffffffffffffffffffffffff\n      and\n      dup2\n      mstore\n      0x20\n      add\n      swap1\n      dup2\n      mstore\n      0x20\n      add\n      0x00\n      keccak256\n        /* \"SetNSend.sol\":1055:1090  getInfoByWallet[msg.sender].balance */\n      0x05\n      add\n      sload\n        /* \"SetNSend.sol\":1055:1099  getInfoByWallet[msg.sender].balance < amount */\n      lt\n        /* \"SetNSend.sol\":1051:1108  if (getInfoByWallet[msg.sender].balance < amount) return; */\n      iszero\n      tag_42\n      jumpi\n        /* \"SetNSend.sol\":1101:1108  return; */\n      jump(tag_41)\n        /* \"SetNSend.sol\":1051:1108  if (getInfoByWallet[msg.sender].balance < amount) return; */\n    tag_42:\n        /* \"SetNSend.sol\":1157:1163  amount */\n      dup1\n        /* \"SetNSend.sol\":1118:1133  getInfoByWallet */\n      0x03\n        /* \"SetNSend.sol\":1118:1145  getInfoByWallet[msg.sender] */\n      0x00\n        /* \"SetNSend.sol\":1134:1144  msg.sender */\n      caller\n        /* \"SetNSend.sol\":1118:1145  getInfoByWallet[msg.sender] */\n      0xffffffffffffffffffffffffffffffffffffffff\n      and\n      0xffffffffffffffffffffffffffffffffffffffff\n      and\n      dup2\n      mstore\n      0x20\n      add\n      swap1\n      dup2\n      mstore\n      0x20\n      add\n      0x00\n      keccak256\n        /* \"SetNSend.sol\":1118:1153  getInfoByWallet[msg.sender].balance */\n      0x05\n      add\n      0x00\n        /* \"SetNSend.sol\":1118:1163  getInfoByWallet[msg.sender].balance -= amount */\n      dup3\n      dup3\n      sload\n      tag_43\n      swap2\n      swap1\n      tag_44\n      jump\t// in\n    tag_43:\n      swap3\n      pop\n      pop\n      dup2\n      swap1\n      sstore\n      pop\n        /* \"SetNSend.sol\":1211:1217  amount */\n      dup1\n        /* \"SetNSend.sol\":1174:1189  getInfoByWallet */\n      0x03\n        /* \"SetNSend.sol\":1174:1199  getInfoByWallet[receiver] */\n      0x00\n        /* \"SetNSend.sol\":1190:1198  receiver */\n      dup5\n        /* \"SetNSend.sol\":1174:1199  getInfoByWallet[receiver] */\n      0xffffffffffffffffffffffffffffffffffffffff\n      and\n      0xffffffffffffffffffffffffffffffffffffffff\n      and\n      dup2\n      mstore\n      0x20\n      add\n      swap1\n      dup2\n      mstore\n      0x20\n      add\n      0x00\n      keccak256\n        /* \"SetNSend.sol\":1174:1207  getInfoByWallet[receiver].balance */\n      0x05\n      add\n      0x00\n        /* \"SetNSend.sol\":1174:1217  getInfoByWallet[receiver].balance += amount */\n      dup3\n      dup3\n      sload\n      tag_45\n      swap2\n      swap1\n      tag_46\n      jump\t// in\n    tag_45:\n      swap3\n      pop\n      pop\n      dup2\n      swap1\n      sstore\n      pop\n        /* \"SetNSend.sol\":1233:1267  Sent(msg.sender, receiver, amount) */\n      0x3990db2d31862302a685e8086b5755072a6e2b5b780af1ee81ece35ee3cd3345\n        /* \"SetNSend.sol\":1238:1248  msg.sender */\n      caller\n        /* \"SetNSend.sol\":1250:1258  receiver */\n      dup4\n        /* \"SetNSend.sol\":1260:1266  amount */\n      dup4\n        /* \"SetNSend.sol\":1233:1267  Sent(msg.sender, receiver, amount) */\n      mload(0x40)\n      tag_47\n      swap4\n      swap3\n      swap2\n      swap1\n      tag_48\n      jump\t// in\n    tag_47:\n      mload(0x40)\n      dup1\n      swap2\n      sub\n      swap1\n      log1\n        /* \"SetNSend.sol\":980:1275  function send(address receiver, uint amount) public payable {\r... */\n    tag_41:\n      pop\n      pop\n      jump\t// out\n    tag_38:\n      dup3\n      dup1\n      sload\n      tag_49\n      swap1\n      tag_21\n      jump\t// in\n    tag_49:\n      swap1\n      0x00\n      mstore\n      keccak256(0x00, 0x20)\n      swap1\n      0x1f\n      add\n      0x20\n      swap1\n      div\n      dup2\n      add\n      swap3\n      dup3\n      tag_51\n      jumpi\n      0x00\n      dup6\n      sstore\n      jump(tag_50)\n    tag_51:\n      dup3\n      0x1f\n      lt\n      tag_52\n      jumpi\n      dup1\n      mload\n      not(0xff)\n      and\n      dup4\n      dup1\n      add\n      or\n      dup6\n      sstore\n      jump(tag_50)\n    tag_52:\n      dup3\n      dup1\n      add\n      0x01\n      add\n      dup6\n      sstore\n      dup3\n      iszero\n      tag_50\n      jumpi\n      swap2\n      dup3\n      add\n    tag_53:\n      dup3\n      dup2\n      gt\n      iszero\n      tag_54\n      jumpi\n      dup3\n      mload\n      dup3\n      sstore\n      swap2\n      0x20\n      add\n      swap2\n      swap1\n      0x01\n      add\n      swap1\n      jump(tag_53)\n    tag_54:\n    tag_50:\n      pop\n      swap1\n      pop\n      tag_55\n      swap2\n      swap1\n      tag_56\n      jump\t// in\n    tag_55:\n      pop\n      swap1\n      jump\t// out\n    tag_56:\n    tag_57:\n      dup1\n      dup3\n      gt\n      iszero\n      tag_58\n      jumpi\n      0x00\n      dup2\n      0x00\n      swap1\n      sstore\n      pop\n      0x01\n      add\n      jump(tag_57)\n    tag_58:\n      pop\n      swap1\n      jump\t// out\n        /* \"#utility.yul\":7:419   */\n    tag_60:\n        /* \"#utility.yul\":85:90   */\n      0x00\n        /* \"#utility.yul\":110:176   */\n      tag_62\n        /* \"#utility.yul\":126:175   */\n      tag_63\n        /* \"#utility.yul\":168:174   */\n      dup5\n        /* \"#utility.yul\":126:175   */\n      tag_64\n      jump\t// in\n    tag_63:\n        /* \"#utility.yul\":110:176   */\n      tag_65\n      jump\t// in\n    tag_62:\n        /* \"#utility.yul\":101:176   */\n      swap1\n      pop\n        /* \"#utility.yul\":199:205   */\n      dup3\n        /* \"#utility.yul\":192:197   */\n      dup2\n        /* \"#utility.yul\":185:206   */\n      mstore\n        /* \"#utility.yul\":237:241   */\n      0x20\n        /* \"#utility.yul\":230:235   */\n      dup2\n        /* \"#utility.yul\":226:242   */\n      add\n        /* \"#utility.yul\":275:278   */\n      dup5\n        /* \"#utility.yul\":266:272   */\n      dup5\n        /* \"#utility.yul\":261:264   */\n      dup5\n        /* \"#utility.yul\":257:273   */\n      add\n        /* \"#utility.yul\":254:279   */\n      gt\n        /* \"#utility.yul\":251:363   */\n      iszero\n      tag_66\n      jumpi\n        /* \"#utility.yul\":282:361   */\n      tag_67\n      tag_68\n      jump\t// in\n    tag_67:\n        /* \"#utility.yul\":251:363   */\n    tag_66:\n        /* \"#utility.yul\":372:413   */\n      tag_69\n        /* \"#utility.yul\":406:412   */\n      dup5\n        /* \"#utility.yul\":401:404   */\n      dup3\n        /* \"#utility.yul\":396:399   */\n      dup6\n        /* \"#utility.yul\":372:413   */\n      tag_70\n      jump\t// in\n    tag_69:\n        /* \"#utility.yul\":91:419   */\n      pop\n        /* \"#utility.yul\":7:419   */\n      swap4\n      swap3\n      pop\n      pop\n      pop\n      jump\t// out\n        /* \"#utility.yul\":425:564   */\n    tag_71:\n        /* \"#utility.yul\":471:476   */\n      0x00\n        /* \"#utility.yul\":509:515   */\n      dup2\n        /* \"#utility.yul\":496:516   */\n      calldataload\n        /* \"#utility.yul\":487:516   */\n      swap1\n      pop\n        /* \"#utility.yul\":525:558   */\n      tag_73\n        /* \"#utility.yul\":552:557   */\n      dup2\n        /* \"#utility.yul\":525:558   */\n      tag_74\n      jump\t// in\n    tag_73:\n        /* \"#utility.yul\":425:564   */\n      swap3\n      swap2\n      pop\n      pop\n      jump\t// out\n        /* \"#utility.yul\":584:924   */\n    tag_75:\n        /* \"#utility.yul\":640:645   */\n      0x00\n        /* \"#utility.yul\":689:692   */\n      dup3\n        /* \"#utility.yul\":682:686   */\n      0x1f\n        /* \"#utility.yul\":674:680   */\n      dup4\n        /* \"#utility.yul\":670:687   */\n      add\n        /* \"#utility.yul\":666:693   */\n      slt\n        /* \"#utility.yul\":656:778   */\n      tag_77\n      jumpi\n        /* \"#utility.yul\":697:776   */\n      tag_78\n      tag_79\n      jump\t// in\n    tag_78:\n        /* \"#utility.yul\":656:778   */\n    tag_77:\n        /* \"#utility.yul\":814:820   */\n      dup2\n        /* \"#utility.yul\":801:821   */\n      calldataload\n        /* \"#utility.yul\":839:918   */\n      tag_80\n        /* \"#utility.yul\":914:917   */\n      dup5\n        /* \"#utility.yul\":906:912   */\n      dup3\n        /* \"#utility.yul\":899:903   */\n      0x20\n        /* \"#utility.yul\":891:897   */\n      dup7\n        /* \"#utility.yul\":887:904   */\n      add\n        /* \"#utility.yul\":839:918   */\n      tag_60\n      jump\t// in\n    tag_80:\n        /* \"#utility.yul\":830:918   */\n      swap2\n      pop\n        /* \"#utility.yul\":646:924   */\n      pop\n        /* \"#utility.yul\":584:924   */\n      swap3\n      swap2\n      pop\n      pop\n      jump\t// out\n        /* \"#utility.yul\":930:1069   */\n    tag_81:\n        /* \"#utility.yul\":976:981   */\n      0x00\n        /* \"#utility.yul\":1014:1020   */\n      dup2\n        /* \"#utility.yul\":1001:1021   */\n      calldataload\n        /* \"#utility.yul\":992:1021   */\n      swap1\n      pop\n        /* \"#utility.yul\":1030:1063   */\n      tag_83\n        /* \"#utility.yul\":1057:1062   */\n      dup2\n        /* \"#utility.yul\":1030:1063   */\n      tag_84\n      jump\t// in\n    tag_83:\n        /* \"#utility.yul\":930:1069   */\n      swap3\n      swap2\n      pop\n      pop\n      jump\t// out\n        /* \"#utility.yul\":1075:1404   */\n    tag_8:\n        /* \"#utility.yul\":1134:1140   */\n      0x00\n        /* \"#utility.yul\":1183:1185   */\n      0x20\n        /* \"#utility.yul\":1171:1180   */\n      dup3\n        /* \"#utility.yul\":1162:1169   */\n      dup5\n        /* \"#utility.yul\":1158:1181   */\n      sub\n        /* \"#utility.yul\":1154:1186   */\n      slt\n        /* \"#utility.yul\":1151:1270   */\n      iszero\n      tag_86\n      jumpi\n        /* \"#utility.yul\":1189:1268   */\n      tag_87\n      tag_88\n      jump\t// in\n    tag_87:\n        /* \"#utility.yul\":1151:1270   */\n    tag_86:\n        /* \"#utility.yul\":1309:1310   */\n      0x00\n        /* \"#utility.yul\":1334:1387   */\n      tag_89\n        /* \"#utility.yul\":1379:1386   */\n      dup5\n        /* \"#utility.yul\":1370:1376   */\n      dup3\n        /* \"#utility.yul\":1359:1368   */\n      dup6\n        /* \"#utility.yul\":1355:1377   */\n      add\n        /* \"#utility.yul\":1334:1387   */\n      tag_71\n      jump\t// in\n    tag_89:\n        /* \"#utility.yul\":1324:1387   */\n      swap2\n      pop\n        /* \"#utility.yul\":1280:1397   */\n      pop\n        /* \"#utility.yul\":1075:1404   */\n      swap3\n      swap2\n      pop\n      pop\n      jump\t// out\n        /* \"#utility.yul\":1410:3153   */\n    tag_14:\n        /* \"#utility.yul\":1553:1559   */\n      0x00\n        /* \"#utility.yul\":1561:1567   */\n      dup1\n        /* \"#utility.yul\":1569:1575   */\n      0x00\n        /* \"#utility.yul\":1577:1583   */\n      dup1\n        /* \"#utility.yul\":1585:1591   */\n      0x00\n        /* \"#utility.yul\":1593:1599   */\n      dup1\n        /* \"#utility.yul\":1601:1607   */\n      0x00\n        /* \"#utility.yul\":1650:1653   */\n      0xe0\n        /* \"#utility.yul\":1638:1647   */\n      dup9\n        /* \"#utility.yul\":1629:1636   */\n      dup11\n        /* \"#utility.yul\":1625:1648   */\n      sub\n        /* \"#utility.yul\":1621:1654   */\n      slt\n        /* \"#utility.yul\":1618:1738   */\n      iszero\n      tag_91\n      jumpi\n        /* \"#utility.yul\":1657:1736   */\n      tag_92\n      tag_88\n      jump\t// in\n    tag_92:\n        /* \"#utility.yul\":1618:1738   */\n    tag_91:\n        /* \"#utility.yul\":1777:1778   */\n      0x00\n        /* \"#utility.yul\":1802:1855   */\n      tag_93\n        /* \"#utility.yul\":1847:1854   */\n      dup11\n        /* \"#utility.yul\":1838:1844   */\n      dup3\n        /* \"#utility.yul\":1827:1836   */\n      dup12\n        /* \"#utility.yul\":1823:1845   */\n      add\n        /* \"#utility.yul\":1802:1855   */\n      tag_71\n      jump\t// in\n    tag_93:\n        /* \"#utility.yul\":1792:1855   */\n      swap8\n      pop\n        /* \"#utility.yul\":1748:1865   */\n      pop\n        /* \"#utility.yul\":1932:1934   */\n      0x20\n        /* \"#utility.yul\":1921:1930   */\n      dup9\n        /* \"#utility.yul\":1917:1935   */\n      add\n        /* \"#utility.yul\":1904:1936   */\n      calldataload\n        /* \"#utility.yul\":1963:1981   */\n      0xffffffffffffffff\n        /* \"#utility.yul\":1955:1961   */\n      dup2\n        /* \"#utility.yul\":1952:1982   */\n      gt\n        /* \"#utility.yul\":1949:2066   */\n      iszero\n      tag_94\n      jumpi\n        /* \"#utility.yul\":1985:2064   */\n      tag_95\n      tag_96\n      jump\t// in\n    tag_95:\n        /* \"#utility.yul\":1949:2066   */\n    tag_94:\n        /* \"#utility.yul\":2090:2153   */\n      tag_97\n        /* \"#utility.yul\":2145:2152   */\n      dup11\n        /* \"#utility.yul\":2136:2142   */\n      dup3\n        /* \"#utility.yul\":2125:2134   */\n      dup12\n        /* \"#utility.yul\":2121:2143   */\n      add\n        /* \"#utility.yul\":2090:2153   */\n      tag_75\n      jump\t// in\n    tag_97:\n        /* \"#utility.yul\":2080:2153   */\n      swap7\n      pop\n        /* \"#utility.yul\":1875:2163   */\n      pop\n        /* \"#utility.yul\":2202:2204   */\n      0x40\n        /* \"#utility.yul\":2228:2281   */\n      tag_98\n        /* \"#utility.yul\":2273:2280   */\n      dup11\n        /* \"#utility.yul\":2264:2270   */\n      dup3\n        /* \"#utility.yul\":2253:2262   */\n      dup12\n        /* \"#utility.yul\":2249:2271   */\n      add\n        /* \"#utility.yul\":2228:2281   */\n      tag_81\n      jump\t// in\n    tag_98:\n        /* \"#utility.yul\":2218:2281   */\n      swap6\n      pop\n        /* \"#utility.yul\":2173:2291   */\n      pop\n        /* \"#utility.yul\":2358:2360   */\n      0x60\n        /* \"#utility.yul\":2347:2356   */\n      dup9\n        /* \"#utility.yul\":2343:2361   */\n      add\n        /* \"#utility.yul\":2330:2362   */\n      calldataload\n        /* \"#utility.yul\":2389:2407   */\n      0xffffffffffffffff\n        /* \"#utility.yul\":2381:2387   */\n      dup2\n        /* \"#utility.yul\":2378:2408   */\n      gt\n        /* \"#utility.yul\":2375:2492   */\n      iszero\n      tag_99\n      jumpi\n        /* \"#utility.yul\":2411:2490   */\n      tag_100\n      tag_96\n      jump\t// in\n    tag_100:\n        /* \"#utility.yul\":2375:2492   */\n    tag_99:\n        /* \"#utility.yul\":2516:2579   */\n      tag_101\n        /* \"#utility.yul\":2571:2578   */\n      dup11\n        /* \"#utility.yul\":2562:2568   */\n      dup3\n        /* \"#utility.yul\":2551:2560   */\n      dup12\n        /* \"#utility.yul\":2547:2569   */\n      add\n        /* \"#utility.yul\":2516:2579   */\n      tag_75\n      jump\t// in\n    tag_101:\n        /* \"#utility.yul\":2506:2579   */\n      swap5\n      pop\n        /* \"#utility.yul\":2301:2589   */\n      pop\n        /* \"#utility.yul\":2628:2631   */\n      0x80\n        /* \"#utility.yul\":2655:2708   */\n      tag_102\n        /* \"#utility.yul\":2700:2707   */\n      dup11\n        /* \"#utility.yul\":2691:2697   */\n      dup3\n        /* \"#utility.yul\":2680:2689   */\n      dup12\n        /* \"#utility.yul\":2676:2698   */\n      add\n        /* \"#utility.yul\":2655:2708   */\n      tag_81\n      jump\t// in\n    tag_102:\n        /* \"#utility.yul\":2645:2708   */\n      swap4\n      pop\n        /* \"#utility.yul\":2599:2718   */\n      pop\n        /* \"#utility.yul\":2785:2788   */\n      0xa0\n        /* \"#utility.yul\":2774:2783   */\n      dup9\n        /* \"#utility.yul\":2770:2789   */\n      add\n        /* \"#utility.yul\":2757:2790   */\n      calldataload\n        /* \"#utility.yul\":2817:2835   */\n      0xffffffffffffffff\n        /* \"#utility.yul\":2809:2815   */\n      dup2\n        /* \"#utility.yul\":2806:2836   */\n      gt\n        /* \"#utility.yul\":2803:2920   */\n      iszero\n      tag_103\n      jumpi\n        /* \"#utility.yul\":2839:2918   */\n      tag_104\n      tag_96\n      jump\t// in\n    tag_104:\n        /* \"#utility.yul\":2803:2920   */\n    tag_103:\n        /* \"#utility.yul\":2944:3007   */\n      tag_105\n        /* \"#utility.yul\":2999:3006   */\n      dup11\n        /* \"#utility.yul\":2990:2996   */\n      dup3\n        /* \"#utility.yul\":2979:2988   */\n      dup12\n        /* \"#utility.yul\":2975:2997   */\n      add\n        /* \"#utility.yul\":2944:3007   */\n      tag_75\n      jump\t// in\n    tag_105:\n        /* \"#utility.yul\":2934:3007   */\n      swap3\n      pop\n        /* \"#utility.yul\":2728:3017   */\n      pop\n        /* \"#utility.yul\":3056:3059   */\n      0xc0\n        /* \"#utility.yul\":3083:3136   */\n      tag_106\n        /* \"#utility.yul\":3128:3135   */\n      dup11\n        /* \"#utility.yul\":3119:3125   */\n      dup3\n        /* \"#utility.yul\":3108:3117   */\n      dup12\n        /* \"#utility.yul\":3104:3126   */\n      add\n        /* \"#utility.yul\":3083:3136   */\n      tag_81\n      jump\t// in\n    tag_106:\n        /* \"#utility.yul\":3073:3136   */\n      swap2\n      pop\n        /* \"#utility.yul\":3027:3146   */\n      pop\n        /* \"#utility.yul\":1410:3153   */\n      swap3\n      swap6\n      swap9\n      swap2\n      swap5\n      swap8\n      pop\n      swap3\n      swap6\n      pop\n      jump\t// out\n        /* \"#utility.yul\":3159:3633   */\n    tag_18:\n        /* \"#utility.yul\":3227:3233   */\n      0x00\n        /* \"#utility.yul\":3235:3241   */\n      dup1\n        /* \"#utility.yul\":3284:3286   */\n      0x40\n        /* \"#utility.yul\":3272:3281   */\n      dup4\n        /* \"#utility.yul\":3263:3270   */\n      dup6\n        /* \"#utility.yul\":3259:3282   */\n      sub\n        /* \"#utility.yul\":3255:3287   */\n      slt\n        /* \"#utility.yul\":3252:3371   */\n      iszero\n      tag_108\n      jumpi\n        /* \"#utility.yul\":3290:3369   */\n      tag_109\n      tag_88\n      jump\t// in\n    tag_109:\n        /* \"#utility.yul\":3252:3371   */\n    tag_108:\n        /* \"#utility.yul\":3410:3411   */\n      0x00\n        /* \"#utility.yul\":3435:3488   */\n      tag_110\n        /* \"#utility.yul\":3480:3487   */\n      dup6\n        /* \"#utility.yul\":3471:3477   */\n      dup3\n        /* \"#utility.yul\":3460:3469   */\n      dup7\n        /* \"#utility.yul\":3456:3478   */\n      add\n        /* \"#utility.yul\":3435:3488   */\n      tag_71\n      jump\t// in\n    tag_110:\n        /* \"#utility.yul\":3425:3488   */\n      swap3\n      pop\n        /* \"#utility.yul\":3381:3498   */\n      pop\n        /* \"#utility.yul\":3537:3539   */\n      0x20\n        /* \"#utility.yul\":3563:3616   */\n      tag_111\n        /* \"#utility.yul\":3608:3615   */\n      dup6\n        /* \"#utility.yul\":3599:3605   */\n      dup3\n        /* \"#utility.yul\":3588:3597   */\n      dup7\n        /* \"#utility.yul\":3584:3606   */\n      add\n        /* \"#utility.yul\":3563:3616   */\n      tag_81\n      jump\t// in\n    tag_111:\n        /* \"#utility.yul\":3553:3616   */\n      swap2\n      pop\n        /* \"#utility.yul\":3508:3626   */\n      pop\n        /* \"#utility.yul\":3159:3633   */\n      swap3\n      pop\n      swap3\n      swap1\n      pop\n      jump\t// out\n        /* \"#utility.yul\":3639:3757   */\n    tag_112:\n        /* \"#utility.yul\":3726:3750   */\n      tag_114\n        /* \"#utility.yul\":3744:3749   */\n      dup2\n        /* \"#utility.yul\":3726:3750   */\n      tag_115\n      jump\t// in\n    tag_114:\n        /* \"#utility.yul\":3721:3724   */\n      dup3\n        /* \"#utility.yul\":3714:3751   */\n      mstore\n        /* \"#utility.yul\":3639:3757   */\n      pop\n      pop\n      jump\t// out\n        /* \"#utility.yul\":3763:4127   */\n    tag_116:\n        /* \"#utility.yul\":3851:3854   */\n      0x00\n        /* \"#utility.yul\":3879:3918   */\n      tag_118\n        /* \"#utility.yul\":3912:3917   */\n      dup3\n        /* \"#utility.yul\":3879:3918   */\n      tag_119\n      jump\t// in\n    tag_118:\n        /* \"#utility.yul\":3934:4005   */\n      tag_120\n        /* \"#utility.yul\":3998:4004   */\n      dup2\n        /* \"#utility.yul\":3993:3996   */\n      dup6\n        /* \"#utility.yul\":3934:4005   */\n      tag_121\n      jump\t// in\n    tag_120:\n        /* \"#utility.yul\":3927:4005   */\n      swap4\n      pop\n        /* \"#utility.yul\":4014:4066   */\n      tag_122\n        /* \"#utility.yul\":4059:4065   */\n      dup2\n        /* \"#utility.yul\":4054:4057   */\n      dup6\n        /* \"#utility.yul\":4047:4051   */\n      0x20\n        /* \"#utility.yul\":4040:4045   */\n      dup7\n        /* \"#utility.yul\":4036:4052   */\n      add\n        /* \"#utility.yul\":4014:4066   */\n      tag_123\n      jump\t// in\n    tag_122:\n        /* \"#utility.yul\":4091:4120   */\n      tag_124\n        /* \"#utility.yul\":4113:4119   */\n      dup2\n        /* \"#utility.yul\":4091:4120   */\n      tag_125\n      jump\t// in\n    tag_124:\n        /* \"#utility.yul\":4086:4089   */\n      dup5\n        /* \"#utility.yul\":4082:4121   */\n      add\n        /* \"#utility.yul\":4075:4121   */\n      swap2\n      pop\n        /* \"#utility.yul\":3855:4127   */\n      pop\n        /* \"#utility.yul\":3763:4127   */\n      swap3\n      swap2\n      pop\n      pop\n      jump\t// out\n        /* \"#utility.yul\":4133:4251   */\n    tag_126:\n        /* \"#utility.yul\":4220:4244   */\n      tag_128\n        /* \"#utility.yul\":4238:4243   */\n      dup2\n        /* \"#utility.yul\":4220:4244   */\n      tag_129\n      jump\t// in\n    tag_128:\n        /* \"#utility.yul\":4215:4218   */\n      dup3\n        /* \"#utility.yul\":4208:4245   */\n      mstore\n        /* \"#utility.yul\":4133:4251   */\n      pop\n      pop\n      jump\t// out\n        /* \"#utility.yul\":4257:4699   */\n    tag_48:\n        /* \"#utility.yul\":4406:4410   */\n      0x00\n        /* \"#utility.yul\":4444:4446   */\n      0x60\n        /* \"#utility.yul\":4433:4442   */\n      dup3\n        /* \"#utility.yul\":4429:4447   */\n      add\n        /* \"#utility.yul\":4421:4447   */\n      swap1\n      pop\n        /* \"#utility.yul\":4457:4528   */\n      tag_131\n        /* \"#utility.yul\":4525:4526   */\n      0x00\n        /* \"#utility.yul\":4514:4523   */\n      dup4\n        /* \"#utility.yul\":4510:4527   */\n      add\n        /* \"#utility.yul\":4501:4507   */\n      dup7\n        /* \"#utility.yul\":4457:4528   */\n      tag_112\n      jump\t// in\n    tag_131:\n        /* \"#utility.yul\":4538:4610   */\n      tag_132\n        /* \"#utility.yul\":4606:4608   */\n      0x20\n        /* \"#utility.yul\":4595:4604   */\n      dup4\n        /* \"#utility.yul\":4591:4609   */\n      add\n        /* \"#utility.yul\":4582:4588   */\n      dup6\n        /* \"#utility.yul\":4538:4610   */\n      tag_112\n      jump\t// in\n    tag_132:\n        /* \"#utility.yul\":4620:4692   */\n      tag_133\n        /* \"#utility.yul\":4688:4690   */\n      0x40\n        /* \"#utility.yul\":4677:4686   */\n      dup4\n        /* \"#utility.yul\":4673:4691   */\n      add\n        /* \"#utility.yul\":4664:4670   */\n      dup5\n        /* \"#utility.yul\":4620:4692   */\n      tag_126\n      jump\t// in\n    tag_133:\n        /* \"#utility.yul\":4257:4699   */\n      swap5\n      swap4\n      pop\n      pop\n      pop\n      pop\n      jump\t// out\n        /* \"#utility.yul\":4705:5753   */\n    tag_11:\n        /* \"#utility.yul\":4998:5002   */\n      0x00\n        /* \"#utility.yul\":5036:5039   */\n      0xc0\n        /* \"#utility.yul\":5025:5034   */\n      dup3\n        /* \"#utility.yul\":5021:5040   */\n      add\n        /* \"#utility.yul\":5013:5040   */\n      swap1\n      pop\n        /* \"#utility.yul\":5086:5095   */\n      dup2\n        /* \"#utility.yul\":5080:5084   */\n      dup2\n        /* \"#utility.yul\":5076:5096   */\n      sub\n        /* \"#utility.yul\":5072:5073   */\n      0x00\n        /* \"#utility.yul\":5061:5070   */\n      dup4\n        /* \"#utility.yul\":5057:5074   */\n      add\n        /* \"#utility.yul\":5050:5097   */\n      mstore\n        /* \"#utility.yul\":5114:5192   */\n      tag_135\n        /* \"#utility.yul\":5187:5191   */\n      dup2\n        /* \"#utility.yul\":5178:5184   */\n      dup10\n        /* \"#utility.yul\":5114:5192   */\n      tag_116\n      jump\t// in\n    tag_135:\n        /* \"#utility.yul\":5106:5192   */\n      swap1\n      pop\n        /* \"#utility.yul\":5202:5274   */\n      tag_136\n        /* \"#utility.yul\":5270:5272   */\n      0x20\n        /* \"#utility.yul\":5259:5268   */\n      dup4\n        /* \"#utility.yul\":5255:5273   */\n      add\n        /* \"#utility.yul\":5246:5252   */\n      dup9\n        /* \"#utility.yul\":5202:5274   */\n      tag_126\n      jump\t// in\n    tag_136:\n        /* \"#utility.yul\":5321:5330   */\n      dup2\n        /* \"#utility.yul\":5315:5319   */\n      dup2\n        /* \"#utility.yul\":5311:5331   */\n      sub\n        /* \"#utility.yul\":5306:5308   */\n      0x40\n        /* \"#utility.yul\":5295:5304   */\n      dup4\n        /* \"#utility.yul\":5291:5309   */\n      add\n        /* \"#utility.yul\":5284:5332   */\n      mstore\n        /* \"#utility.yul\":5349:5427   */\n      tag_137\n        /* \"#utility.yul\":5422:5426   */\n      dup2\n        /* \"#utility.yul\":5413:5419   */\n      dup8\n        /* \"#utility.yul\":5349:5427   */\n      tag_116\n      jump\t// in\n    tag_137:\n        /* \"#utility.yul\":5341:5427   */\n      swap1\n      pop\n        /* \"#utility.yul\":5437:5509   */\n      tag_138\n        /* \"#utility.yul\":5505:5507   */\n      0x60\n        /* \"#utility.yul\":5494:5503   */\n      dup4\n        /* \"#utility.yul\":5490:5508   */\n      add\n        /* \"#utility.yul\":5481:5487   */\n      dup7\n        /* \"#utility.yul\":5437:5509   */\n      tag_126\n      jump\t// in\n    tag_138:\n        /* \"#utility.yul\":5557:5566   */\n      dup2\n        /* \"#utility.yul\":5551:5555   */\n      dup2\n        /* \"#utility.yul\":5547:5567   */\n      sub\n        /* \"#utility.yul\":5541:5544   */\n      0x80\n        /* \"#utility.yul\":5530:5539   */\n      dup4\n        /* \"#utility.yul\":5526:5545   */\n      add\n        /* \"#utility.yul\":5519:5568   */\n      mstore\n        /* \"#utility.yul\":5585:5663   */\n      tag_139\n        /* \"#utility.yul\":5658:5662   */\n      dup2\n        /* \"#utility.yul\":5649:5655   */\n      dup6\n        /* \"#utility.yul\":5585:5663   */\n      tag_116\n      jump\t// in\n    tag_139:\n        /* \"#utility.yul\":5577:5663   */\n      swap1\n      pop\n        /* \"#utility.yul\":5673:5746   */\n      tag_140\n        /* \"#utility.yul\":5741:5744   */\n      0xa0\n        /* \"#utility.yul\":5730:5739   */\n      dup4\n        /* \"#utility.yul\":5726:5745   */\n      add\n        /* \"#utility.yul\":5717:5723   */\n      dup5\n        /* \"#utility.yul\":5673:5746   */\n      tag_126\n      jump\t// in\n    tag_140:\n        /* \"#utility.yul\":4705:5753   */\n      swap8\n      swap7\n      pop\n      pop\n      pop\n      pop\n      pop\n      pop\n      pop\n      jump\t// out\n        /* \"#utility.yul\":5759:5888   */\n    tag_65:\n        /* \"#utility.yul\":5793:5799   */\n      0x00\n        /* \"#utility.yul\":5820:5840   */\n      tag_142\n      tag_143\n      jump\t// in\n    tag_142:\n        /* \"#utility.yul\":5810:5840   */\n      swap1\n      pop\n        /* \"#utility.yul\":5849:5882   */\n      tag_144\n        /* \"#utility.yul\":5877:5881   */\n      dup3\n        /* \"#utility.yul\":5869:5875   */\n      dup3\n        /* \"#utility.yul\":5849:5882   */\n      tag_145\n      jump\t// in\n    tag_144:\n        /* \"#utility.yul\":5759:5888   */\n      swap2\n      swap1\n      pop\n      jump\t// out\n        /* \"#utility.yul\":5894:5969   */\n    tag_143:\n        /* \"#utility.yul\":5927:5933   */\n      0x00\n        /* \"#utility.yul\":5960:5962   */\n      0x40\n        /* \"#utility.yul\":5954:5963   */\n      mload\n        /* \"#utility.yul\":5944:5963   */\n      swap1\n      pop\n        /* \"#utility.yul\":5894:5969   */\n      swap1\n      jump\t// out\n        /* \"#utility.yul\":5975:6283   */\n    tag_64:\n        /* \"#utility.yul\":6037:6041   */\n      0x00\n        /* \"#utility.yul\":6127:6145   */\n      0xffffffffffffffff\n        /* \"#utility.yul\":6119:6125   */\n      dup3\n        /* \"#utility.yul\":6116:6146   */\n      gt\n        /* \"#utility.yul\":6113:6169   */\n      iszero\n      tag_148\n      jumpi\n        /* \"#utility.yul\":6149:6167   */\n      tag_149\n      tag_150\n      jump\t// in\n    tag_149:\n        /* \"#utility.yul\":6113:6169   */\n    tag_148:\n        /* \"#utility.yul\":6187:6216   */\n      tag_151\n        /* \"#utility.yul\":6209:6215   */\n      dup3\n        /* \"#utility.yul\":6187:6216   */\n      tag_125\n      jump\t// in\n    tag_151:\n        /* \"#utility.yul\":6179:6216   */\n      swap1\n      pop\n        /* \"#utility.yul\":6271:6275   */\n      0x20\n        /* \"#utility.yul\":6265:6269   */\n      dup2\n        /* \"#utility.yul\":6261:6276   */\n      add\n        /* \"#utility.yul\":6253:6276   */\n      swap1\n      pop\n        /* \"#utility.yul\":5975:6283   */\n      swap2\n      swap1\n      pop\n      jump\t// out\n        /* \"#utility.yul\":6289:6388   */\n    tag_119:\n        /* \"#utility.yul\":6341:6347   */\n      0x00\n        /* \"#utility.yul\":6375:6380   */\n      dup2\n        /* \"#utility.yul\":6369:6381   */\n      mload\n        /* \"#utility.yul\":6359:6381   */\n      swap1\n      pop\n        /* \"#utility.yul\":6289:6388   */\n      swap2\n      swap1\n      pop\n      jump\t// out\n        /* \"#utility.yul\":6394:6563   */\n    tag_121:\n        /* \"#utility.yul\":6478:6489   */\n      0x00\n        /* \"#utility.yul\":6512:6518   */\n      dup3\n        /* \"#utility.yul\":6507:6510   */\n      dup3\n        /* \"#utility.yul\":6500:6519   */\n      mstore\n        /* \"#utility.yul\":6552:6556   */\n      0x20\n        /* \"#utility.yul\":6547:6550   */\n      dup3\n        /* \"#utility.yul\":6543:6557   */\n      add\n        /* \"#utility.yul\":6528:6557   */\n      swap1\n      pop\n        /* \"#utility.yul\":6394:6563   */\n      swap3\n      swap2\n      pop\n      pop\n      jump\t// out\n        /* \"#utility.yul\":6569:6874   */\n    tag_46:\n        /* \"#utility.yul\":6609:6612   */\n      0x00\n        /* \"#utility.yul\":6628:6648   */\n      tag_155\n        /* \"#utility.yul\":6646:6647   */\n      dup3\n        /* \"#utility.yul\":6628:6648   */\n      tag_129\n      jump\t// in\n    tag_155:\n        /* \"#utility.yul\":6623:6648   */\n      swap2\n      pop\n        /* \"#utility.yul\":6662:6682   */\n      tag_156\n        /* \"#utility.yul\":6680:6681   */\n      dup4\n        /* \"#utility.yul\":6662:6682   */\n      tag_129\n      jump\t// in\n    tag_156:\n        /* \"#utility.yul\":6657:6682   */\n      swap3\n      pop\n        /* \"#utility.yul\":6816:6817   */\n      dup3\n        /* \"#utility.yul\":6748:6814   */\n      0xffffffffffffffffffffffffffffffffffffffffffffffffffffffffffffffff\n        /* \"#utility.yul\":6744:6818   */\n      sub\n        /* \"#utility.yul\":6741:6742   */\n      dup3\n        /* \"#utility.yul\":6738:6819   */\n      gt\n        /* \"#utility.yul\":6735:6842   */\n      iszero\n      tag_157\n      jumpi\n        /* \"#utility.yul\":6822:6840   */\n      tag_158\n      tag_159\n      jump\t// in\n    tag_158:\n        /* \"#utility.yul\":6735:6842   */\n    tag_157:\n        /* \"#utility.yul\":6866:6867   */\n      dup3\n        /* \"#utility.yul\":6863:6864   */\n      dup3\n        /* \"#utility.yul\":6859:6868   */\n      add\n        /* \"#utility.yul\":6852:6868   */\n      swap1\n      pop\n        /* \"#utility.yul\":6569:6874   */\n      swap3\n      swap2\n      pop\n      pop\n      jump\t// out\n        /* \"#utility.yul\":6880:7071   */\n    tag_44:\n        /* \"#utility.yul\":6920:6924   */\n      0x00\n        /* \"#utility.yul\":6940:6960   */\n      tag_161\n        /* \"#utility.yul\":6958:6959   */\n      dup3\n        /* \"#utility.yul\":6940:6960   */\n      tag_129\n      jump\t// in\n    tag_161:\n        /* \"#utility.yul\":6935:6960   */\n      swap2\n      pop\n        /* \"#utility.yul\":6974:6994   */\n      tag_162\n        /* \"#utility.yul\":6992:6993   */\n      dup4\n        /* \"#utility.yul\":6974:6994   */\n      tag_129\n      jump\t// in\n    tag_162:\n        /* \"#utility.yul\":6969:6994   */\n      swap3\n      pop\n        /* \"#utility.yul\":7013:7014   */\n      dup3\n        /* \"#utility.yul\":7010:7011   */\n      dup3\n        /* \"#utility.yul\":7007:7015   */\n      lt\n        /* \"#utility.yul\":7004:7038   */\n      iszero\n      tag_163\n      jumpi\n        /* \"#utility.yul\":7018:7036   */\n      tag_164\n      tag_159\n      jump\t// in\n    tag_164:\n        /* \"#utility.yul\":7004:7038   */\n    tag_163:\n        /* \"#utility.yul\":7063:7064   */\n      dup3\n        /* \"#utility.yul\":7060:7061   */\n      dup3\n        /* \"#utility.yul\":7056:7065   */\n      sub\n        /* \"#utility.yul\":7048:7065   */\n      swap1\n      pop\n        /* \"#utility.yul\":6880:7071   */\n      swap3\n      swap2\n      pop\n      pop\n      jump\t// out\n        /* \"#utility.yul\":7077:7173   */\n    tag_115:\n        /* \"#utility.yul\":7114:7121   */\n      0x00\n        /* \"#utility.yul\":7143:7167   */\n      tag_166\n        /* \"#utility.yul\":7161:7166   */\n      dup3\n        /* \"#utility.yul\":7143:7167   */\n      tag_167\n      jump\t// in\n    tag_166:\n        /* \"#utility.yul\":7132:7167   */\n      swap1\n      pop\n        /* \"#utility.yul\":7077:7173   */\n      swap2\n      swap1\n      pop\n      jump\t// out\n        /* \"#utility.yul\":7179:7305   */\n    tag_167:\n        /* \"#utility.yul\":7216:7223   */\n      0x00\n        /* \"#utility.yul\":7256:7298   */\n      0xffffffffffffffffffffffffffffffffffffffff\n        /* \"#utility.yul\":7249:7254   */\n      dup3\n        /* \"#utility.yul\":7245:7299   */\n      and\n        /* \"#utility.yul\":7234:7299   */\n      swap1\n      pop\n        /* \"#utility.yul\":7179:7305   */\n      swap2\n      swap1\n      pop\n      jump\t// out\n        /* \"#utility.yul\":7311:7388   */\n    tag_129:\n        /* \"#utility.yul\":7348:7355   */\n      0x00\n        /* \"#utility.yul\":7377:7382   */\n      dup2\n        /* \"#utility.yul\":7366:7382   */\n      swap1\n      pop\n        /* \"#utility.yul\":7311:7388   */\n      swap2\n      swap1\n      pop\n      jump\t// out\n        /* \"#utility.yul\":7394:7548   */\n    tag_70:\n        /* \"#utility.yul\":7478:7484   */\n      dup3\n        /* \"#utility.yul\":7473:7476   */\n      dup2\n        /* \"#utility.yul\":7468:7471   */\n      dup4\n        /* \"#utility.yul\":7455:7485   */\n      calldatacopy\n        /* \"#utility.yul\":7540:7541   */\n      0x00\n        /* \"#utility.yul\":7531:7537   */\n      dup4\n        /* \"#utility.yul\":7526:7529   */\n      dup4\n        /* \"#utility.yul\":7522:7538   */\n      add\n        /* \"#utility.yul\":7515:7542   */\n      mstore\n        /* \"#utility.yul\":7394:7548   */\n      pop\n      pop\n      pop\n      jump\t// out\n        /* \"#utility.yul\":7554:7861   */\n    tag_123:\n        /* \"#utility.yul\":7622:7623   */\n      0x00\n        /* \"#utility.yul\":7632:7745   */\n    tag_172:\n        /* \"#utility.yul\":7646:7652   */\n      dup4\n        /* \"#utility.yul\":7643:7644   */\n      dup2\n        /* \"#utility.yul\":7640:7653   */\n      lt\n        /* \"#utility.yul\":7632:7745   */\n      iszero\n      tag_174\n      jumpi\n        /* \"#utility.yul\":7731:7732   */\n      dup1\n        /* \"#utility.yul\":7726:7729   */\n      dup3\n        /* \"#utility.yul\":7722:7733   */\n      add\n        /* \"#utility.yul\":7716:7734   */\n      mload\n        /* \"#utility.yul\":7712:7713   */\n      dup2\n        /* \"#utility.yul\":7707:7710   */\n      dup5\n        /* \"#utility.yul\":7703:7714   */\n      add\n        /* \"#utility.yul\":7696:7735   */\n      mstore\n        /* \"#utility.yul\":7668:7670   */\n      0x20\n        /* \"#utility.yul\":7665:7666   */\n      dup2\n        /* \"#utility.yul\":7661:7671   */\n      add\n        /* \"#utility.yul\":7656:7671   */\n      swap1\n      pop\n        /* \"#utility.yul\":7632:7745   */\n      jump(tag_172)\n    tag_174:\n        /* \"#utility.yul\":7763:7769   */\n      dup4\n        /* \"#utility.yul\":7760:7761   */\n      dup2\n        /* \"#utility.yul\":7757:7770   */\n      gt\n        /* \"#utility.yul\":7754:7855   */\n      iszero\n      tag_175\n      jumpi\n        /* \"#utility.yul\":7843:7844   */\n      0x00\n        /* \"#utility.yul\":7834:7840   */\n      dup5\n        /* \"#utility.yul\":7829:7832   */\n      dup5\n        /* \"#utility.yul\":7825:7841   */\n      add\n        /* \"#utility.yul\":7818:7845   */\n      mstore\n        /* \"#utility.yul\":7754:7855   */\n    tag_175:\n        /* \"#utility.yul\":7603:7861   */\n      pop\n        /* \"#utility.yul\":7554:7861   */\n      pop\n      pop\n      pop\n      jump\t// out\n        /* \"#utility.yul\":7867:8187   */\n    tag_21:\n        /* \"#utility.yul\":7911:7917   */\n      0x00\n        /* \"#utility.yul\":7948:7949   */\n      0x02\n        /* \"#utility.yul\":7942:7946   */\n      dup3\n        /* \"#utility.yul\":7938:7950   */\n      div\n        /* \"#utility.yul\":7928:7950   */\n      swap1\n      pop\n        /* \"#utility.yul\":7995:7996   */\n      0x01\n        /* \"#utility.yul\":7989:7993   */\n      dup3\n        /* \"#utility.yul\":7985:7997   */\n      and\n        /* \"#utility.yul\":8016:8034   */\n      dup1\n        /* \"#utility.yul\":8006:8087   */\n      tag_177\n      jumpi\n        /* \"#utility.yul\":8072:8076   */\n      0x7f\n        /* \"#utility.yul\":8064:8070   */\n      dup3\n        /* \"#utility.yul\":8060:8077   */\n      and\n        /* \"#utility.yul\":8050:8077   */\n      swap2\n      pop\n        /* \"#utility.yul\":8006:8087   */\n    tag_177:\n        /* \"#utility.yul\":8134:8136   */\n      0x20\n        /* \"#utility.yul\":8126:8132   */\n      dup3\n        /* \"#utility.yul\":8123:8137   */\n      lt\n        /* \"#utility.yul\":8103:8121   */\n      dup2\n        /* \"#utility.yul\":8100:8138   */\n      eq\n        /* \"#utility.yul\":8097:8181   */\n      iszero\n      tag_178\n      jumpi\n        /* \"#utility.yul\":8153:8171   */\n      tag_179\n      tag_180\n      jump\t// in\n    tag_179:\n        /* \"#utility.yul\":8097:8181   */\n    tag_178:\n        /* \"#utility.yul\":7918:8187   */\n      pop\n        /* \"#utility.yul\":7867:8187   */\n      swap2\n      swap1\n      pop\n      jump\t// out\n        /* \"#utility.yul\":8193:8474   */\n    tag_145:\n        /* \"#utility.yul\":8276:8303   */\n      tag_182\n        /* \"#utility.yul\":8298:8302   */\n      dup3\n        /* \"#utility.yul\":8276:8303   */\n      tag_125\n      jump\t// in\n    tag_182:\n        /* \"#utility.yul\":8268:8274   */\n      dup2\n        /* \"#utility.yul\":8264:8304   */\n      add\n        /* \"#utility.yul\":8406:8412   */\n      dup2\n        /* \"#utility.yul\":8394:8404   */\n      dup2\n        /* \"#utility.yul\":8391:8413   */\n      lt\n        /* \"#utility.yul\":8370:8388   */\n      0xffffffffffffffff\n        /* \"#utility.yul\":8358:8368   */\n      dup3\n        /* \"#utility.yul\":8355:8389   */\n      gt\n        /* \"#utility.yul\":8352:8414   */\n      or\n        /* \"#utility.yul\":8349:8437   */\n      iszero\n      tag_183\n      jumpi\n        /* \"#utility.yul\":8417:8435   */\n      tag_184\n      tag_150\n      jump\t// in\n    tag_184:\n        /* \"#utility.yul\":8349:8437   */\n    tag_183:\n        /* \"#utility.yul\":8457:8467   */\n      dup1\n        /* \"#utility.yul\":8453:8455   */\n      0x40\n        /* \"#utility.yul\":8446:8468   */\n      mstore\n        /* \"#utility.yul\":8236:8474   */\n      pop\n        /* \"#utility.yul\":8193:8474   */\n      pop\n      pop\n      jump\t// out\n        /* \"#utility.yul\":8480:8660   */\n    tag_159:\n        /* \"#utility.yul\":8528:8605   */\n      0x4e487b7100000000000000000000000000000000000000000000000000000000\n        /* \"#utility.yul\":8525:8526   */\n      0x00\n        /* \"#utility.yul\":8518:8606   */\n      mstore\n        /* \"#utility.yul\":8625:8629   */\n      0x11\n        /* \"#utility.yul\":8622:8623   */\n      0x04\n        /* \"#utility.yul\":8615:8630   */\n      mstore\n        /* \"#utility.yul\":8649:8653   */\n      0x24\n        /* \"#utility.yul\":8646:8647   */\n      0x00\n        /* \"#utility.yul\":8639:8654   */\n      revert\n        /* \"#utility.yul\":8666:8846   */\n    tag_180:\n        /* \"#utility.yul\":8714:8791   */\n      0x4e487b7100000000000000000000000000000000000000000000000000000000\n        /* \"#utility.yul\":8711:8712   */\n      0x00\n        /* \"#utility.yul\":8704:8792   */\n      mstore\n        /* \"#utility.yul\":8811:8815   */\n      0x22\n        /* \"#utility.yul\":8808:8809   */\n      0x04\n        /* \"#utility.yul\":8801:8816   */\n      mstore\n        /* \"#utility.yul\":8835:8839   */\n      0x24\n        /* \"#utility.yul\":8832:8833   */\n      0x00\n        /* \"#utility.yul\":8825:8840   */\n      revert\n        /* \"#utility.yul\":8852:9032   */\n    tag_150:\n        /* \"#utility.yul\":8900:8977   */\n      0x4e487b7100000000000000000000000000000000000000000000000000000000\n        /* \"#utility.yul\":8897:8898   */\n      0x00\n        /* \"#utility.yul\":8890:8978   */\n      mstore\n        /* \"#utility.yul\":8997:9001   */\n      0x41\n        /* \"#utility.yul\":8994:8995   */\n      0x04\n        /* \"#utility.yul\":8987:9002   */\n      mstore\n        /* \"#utility.yul\":9021:9025   */\n      0x24\n        /* \"#utility.yul\":9018:9019   */\n      0x00\n        /* \"#utility.yul\":9011:9026   */\n      revert\n        /* \"#utility.yul\":9038:9155   */\n    tag_79:\n        /* \"#utility.yul\":9147:9148   */\n      0x00\n        /* \"#utility.yul\":9144:9145   */\n      dup1\n        /* \"#utility.yul\":9137:9149   */\n      revert\n        /* \"#utility.yul\":9161:9278   */\n    tag_68:\n        /* \"#utility.yul\":9270:9271   */\n      0x00\n        /* \"#utility.yul\":9267:9268   */\n      dup1\n        /* \"#utility.yul\":9260:9272   */\n      revert\n        /* \"#utility.yul\":9284:9401   */\n    tag_96:\n        /* \"#utility.yul\":9393:9394   */\n      0x00\n        /* \"#utility.yul\":9390:9391   */\n      dup1\n        /* \"#utility.yul\":9383:9395   */\n      revert\n        /* \"#utility.yul\":9407:9524   */\n    tag_88:\n        /* \"#utility.yul\":9516:9517   */\n      0x00\n        /* \"#utility.yul\":9513:9514   */\n      dup1\n        /* \"#utility.yul\":9506:9518   */\n      revert\n        /* \"#utility.yul\":9530:9632   */\n    tag_125:\n        /* \"#utility.yul\":9571:9577   */\n      0x00\n        /* \"#utility.yul\":9622:9624   */\n      0x1f\n        /* \"#utility.yul\":9618:9625   */\n      not\n        /* \"#utility.yul\":9613:9615   */\n      0x1f\n        /* \"#utility.yul\":9606:9611   */\n      dup4\n        /* \"#utility.yul\":9602:9616   */\n      add\n        /* \"#utility.yul\":9598:9626   */\n      and\n        /* \"#utility.yul\":9588:9626   */\n      swap1\n      pop\n        /* \"#utility.yul\":9530:9632   */\n      swap2\n      swap1\n      pop\n      jump\t// out\n        /* \"#utility.yul\":9638:9760   */\n    tag_74:\n        /* \"#utility.yul\":9711:9735   */\n      tag_194\n        /* \"#utility.yul\":9729:9734   */\n      dup2\n        /* \"#utility.yul\":9711:9735   */\n      tag_115\n      jump\t// in\n    tag_194:\n        /* \"#utility.yul\":9704:9709   */\n      dup2\n        /* \"#utility.yul\":9701:9736   */\n      eq\n        /* \"#utility.yul\":9691:9754   */\n      tag_195\n      jumpi\n        /* \"#utility.yul\":9750:9751   */\n      0x00\n        /* \"#utility.yul\":9747:9748   */\n      dup1\n        /* \"#utility.yul\":9740:9752   */\n      revert\n        /* \"#utility.yul\":9691:9754   */\n    tag_195:\n        /* \"#utility.yul\":9638:9760   */\n      pop\n      jump\t// out\n        /* \"#utility.yul\":9766:9888   */\n    tag_84:\n        /* \"#utility.yul\":9839:9863   */\n      tag_197\n        /* \"#utility.yul\":9857:9862   */\n      dup2\n        /* \"#utility.yul\":9839:9863   */\n      tag_129\n      jump\t// in\n    tag_197:\n        /* \"#utility.yul\":9832:9837   */\n      dup2\n        /* \"#utility.yul\":9829:9864   */\n      eq\n        /* \"#utility.yul\":9819:9882   */\n      tag_198\n      jumpi\n        /* \"#utility.yul\":9878:9879   */\n      0x00\n        /* \"#utility.yul\":9875:9876   */\n      dup1\n        /* \"#utility.yul\":9868:9880   */\n      revert\n        /* \"#utility.yul\":9819:9882   */\n    tag_198:\n        /* \"#utility.yul\":9766:9888   */\n      pop\n      jump\t// out\n\n    auxdata: 0xa2646970667358221220a4a0a535109cdb57dca6fb507f2d7af71aff57c18dcfddd115bd20cde77dfee664736f6c63430008070033\n}\n",
				"bytecode": {
					"linkReferences": {},
					"object": "608060405260405180602001604052806000815250600090805190602001906200002b92919062000045565b5060006001553480156200003e57600080fd5b506200015a565b8280546200005390620000f5565b90600052602060002090601f016020900481019282620000775760008555620000c3565b82601f106200009257805160ff1916838001178555620000c3565b82800160010185558215620000c3579182015b82811115620000c2578251825591602001919060010190620000a5565b5b509050620000d29190620000d6565b5090565b5b80821115620000f1576000816000905550600101620000d7565b5090565b600060028204905060018216806200010e57607f821691505b602082108114156200012557620001246200012b565b5b50919050565b7f4e487b7100000000000000000000000000000000000000000000000000000000600052602260045260246000fd5b610bfb806200016a6000396000f3fe6080604052600436106100345760003560e01c80638b9c657a1461003957806390e1f79d1461007b578063d0679d3414610097575b600080fd5b34801561004557600080fd5b50610060600480360381019061005b91906106a1565b6100b3565b60405161007296959493929190610892565b60405180910390f35b610095600480360381019061009091906106ce565b610287565b005b6100b160048036038101906100ac91906107c4565b610423565b005b60036020528060005260406000206000915090508060000180546100d690610a82565b80601f016020809104026020016040519081016040528092919081815260200182805461010290610a82565b801561014f5780601f106101245761010080835404028352916020019161014f565b820191906000526020600020905b81548152906001019060200180831161013257829003601f168201915b50505050509080600101549080600201805461016a90610a82565b80601f016020809104026020016040519081016040528092919081815260200182805461019690610a82565b80156101e35780601f106101b8576101008083540402835291602001916101e3565b820191906000526020600020905b8154815290600101906020018083116101c657829003601f168201915b5050505050908060030154908060040180546101fe90610a82565b80601f016020809104026020016040519081016040528092919081815260200182805461022a90610a82565b80156102775780601f1061024c57610100808354040283529160200191610277565b820191906000526020600020905b81548152906001019060200180831161025a57829003601f168201915b5050505050908060050154905086565b85600360008973ffffffffffffffffffffffffffffffffffffffff1673ffffffffffffffffffffffffffffffffffffffff16815260200190815260200160002060000190805190602001906102dd929190610564565b5084600360008973ffffffffffffffffffffffffffffffffffffffff1673ffffffffffffffffffffffffffffffffffffffff1681526020019081526020016000206001018190555083600360008973ffffffffffffffffffffffffffffffffffffffff1673ffffffffffffffffffffffffffffffffffffffff168152602001908152602001600020600201908051906020019061037b929190610564565b5082600360008973ffffffffffffffffffffffffffffffffffffffff1673ffffffffffffffffffffffffffffffffffffffff1681526020019081526020016000206003018190555081600360008973ffffffffffffffffffffffffffffffffffffffff1673ffffffffffffffffffffffffffffffffffffffff1681526020019081526020016000206004019080519060200190610419929190610564565b5050505050505050565b80600360003373ffffffffffffffffffffffffffffffffffffffff1673ffffffffffffffffffffffffffffffffffffffff16815260200190815260200160002060050154101561047257610560565b80600360003373ffffffffffffffffffffffffffffffffffffffff1673ffffffffffffffffffffffffffffffffffffffff16815260200190815260200160002060050160008282546104c491906109d0565b9250508190555080600360008473ffffffffffffffffffffffffffffffffffffffff1673ffffffffffffffffffffffffffffffffffffffff168152602001908152602001600020600501600082825461051d919061097a565b925050819055507f3990db2d31862302a685e8086b5755072a6e2b5b780af1ee81ece35ee3cd33453383836040516105579392919061085b565b60405180910390a15b5050565b82805461057090610a82565b90600052602060002090601f01602090048101928261059257600085556105d9565b82601f106105ab57805160ff19168380011785556105d9565b828001600101855582156105d9579182015b828111156105d85782518255916020019190600101906105bd565b5b5090506105e691906105ea565b5090565b5b808211156106035760008160009055506001016105eb565b5090565b600061061a6106158461092d565b610908565b90508281526020810184848401111561063657610635610b77565b5b610641848285610a40565b509392505050565b60008135905061065881610b97565b92915050565b600082601f83011261067357610672610b72565b5b8135610683848260208601610607565b91505092915050565b60008135905061069b81610bae565b92915050565b6000602082840312156106b7576106b6610b81565b5b60006106c584828501610649565b91505092915050565b600080600080600080600060e0888a0312156106ed576106ec610b81565b5b60006106fb8a828b01610649565b975050602088013567ffffffffffffffff81111561071c5761071b610b7c565b5b6107288a828b0161065e565b96505060406107398a828b0161068c565b955050606088013567ffffffffffffffff81111561075a57610759610b7c565b5b6107668a828b0161065e565b94505060806107778a828b0161068c565b93505060a088013567ffffffffffffffff81111561079857610797610b7c565b5b6107a48a828b0161065e565b92505060c06107b58a828b0161068c565b91505092959891949750929550565b600080604083850312156107db576107da610b81565b5b60006107e985828601610649565b92505060206107fa8582860161068c565b9150509250929050565b61080d81610a04565b82525050565b600061081e8261095e565b6108288185610969565b9350610838818560208601610a4f565b61084181610b86565b840191505092915050565b61085581610a36565b82525050565b60006060820190506108706000830186610804565b61087d6020830185610804565b61088a604083018461084c565b949350505050565b600060c08201905081810360008301526108ac8189610813565b90506108bb602083018861084c565b81810360408301526108cd8187610813565b90506108dc606083018661084c565b81810360808301526108ee8185610813565b90506108fd60a083018461084c565b979650505050505050565b6000610912610923565b905061091e8282610ab4565b919050565b6000604051905090565b600067ffffffffffffffff82111561094857610947610b43565b5b61095182610b86565b9050602081019050919050565b600081519050919050565b600082825260208201905092915050565b600061098582610a36565b915061099083610a36565b9250827fffffffffffffffffffffffffffffffffffffffffffffffffffffffffffffffff038211156109c5576109c4610ae5565b5b828201905092915050565b60006109db82610a36565b91506109e683610a36565b9250828210156109f9576109f8610ae5565b5b828203905092915050565b6000610a0f82610a16565b9050919050565b600073ffffffffffffffffffffffffffffffffffffffff82169050919050565b6000819050919050565b82818337600083830152505050565b60005b83811015610a6d578082015181840152602081019050610a52565b83811115610a7c576000848401525b50505050565b60006002820490506001821680610a9a57607f821691505b60208210811415610aae57610aad610b14565b5b50919050565b610abd82610b86565b810181811067ffffffffffffffff82111715610adc57610adb610b43565b5b80604052505050565b7f4e487b7100000000000000000000000000000000000000000000000000000000600052601160045260246000fd5b7f4e487b7100000000000000000000000000000000000000000000000000000000600052602260045260246000fd5b7f4e487b7100000000000000000000000000000000000000000000000000000000600052604160045260246000fd5b600080fd5b600080fd5b600080fd5b600080fd5b6000601f19601f8301169050919050565b610ba081610a04565b8114610bab57600080fd5b50565b610bb781610a36565b8114610bc257600080fd5b5056fea2646970667358221220a4a0a535109cdb57dca6fb507f2d7af71aff57c18dcfddd115bd20cde77dfee664736f6c63430008070033",
					"opcodes": "PUSH1 0x80 PUSH1 0x40 MSTORE PUSH1 0x40 MLOAD DUP1 PUSH1 0x20 ADD PUSH1 0x40 MSTORE DUP1 PUSH1 0x0 DUP2 MSTORE POP PUSH1 0x0 SWAP1 DUP1 MLOAD SWAP1 PUSH1 0x20 ADD SWAP1 PUSH3 0x2B SWAP3 SWAP2 SWAP1 PUSH3 0x45 JUMP JUMPDEST POP PUSH1 0x0 PUSH1 0x1 SSTORE CALLVALUE DUP1 ISZERO PUSH3 0x3E JUMPI PUSH1 0x0 DUP1 REVERT JUMPDEST POP PUSH3 0x15A JUMP JUMPDEST DUP3 DUP1 SLOAD PUSH3 0x53 SWAP1 PUSH3 0xF5 JUMP JUMPDEST SWAP1 PUSH1 0x0 MSTORE PUSH1 0x20 PUSH1 0x0 KECCAK256 SWAP1 PUSH1 0x1F ADD PUSH1 0x20 SWAP1 DIV DUP2 ADD SWAP3 DUP3 PUSH3 0x77 JUMPI PUSH1 0x0 DUP6 SSTORE PUSH3 0xC3 JUMP JUMPDEST DUP3 PUSH1 0x1F LT PUSH3 0x92 JUMPI DUP1 MLOAD PUSH1 0xFF NOT AND DUP4 DUP1 ADD OR DUP6 SSTORE PUSH3 0xC3 JUMP JUMPDEST DUP3 DUP1 ADD PUSH1 0x1 ADD DUP6 SSTORE DUP3 ISZERO PUSH3 0xC3 JUMPI SWAP2 DUP3 ADD JUMPDEST DUP3 DUP2 GT ISZERO PUSH3 0xC2 JUMPI DUP3 MLOAD DUP3 SSTORE SWAP2 PUSH1 0x20 ADD SWAP2 SWAP1 PUSH1 0x1 ADD SWAP1 PUSH3 0xA5 JUMP JUMPDEST JUMPDEST POP SWAP1 POP PUSH3 0xD2 SWAP2 SWAP1 PUSH3 0xD6 JUMP JUMPDEST POP SWAP1 JUMP JUMPDEST JUMPDEST DUP1 DUP3 GT ISZERO PUSH3 0xF1 JUMPI PUSH1 0x0 DUP2 PUSH1 0x0 SWAP1 SSTORE POP PUSH1 0x1 ADD PUSH3 0xD7 JUMP JUMPDEST POP SWAP1 JUMP JUMPDEST PUSH1 0x0 PUSH1 0x2 DUP3 DIV SWAP1 POP PUSH1 0x1 DUP3 AND DUP1 PUSH3 0x10E JUMPI PUSH1 0x7F DUP3 AND SWAP2 POP JUMPDEST PUSH1 0x20 DUP3 LT DUP2 EQ ISZERO PUSH3 0x125 JUMPI PUSH3 0x124 PUSH3 0x12B JUMP JUMPDEST JUMPDEST POP SWAP2 SWAP1 POP JUMP JUMPDEST PUSH32 0x4E487B7100000000000000000000000000000000000000000000000000000000 PUSH1 0x0 MSTORE PUSH1 0x22 PUSH1 0x4 MSTORE PUSH1 0x24 PUSH1 0x0 REVERT JUMPDEST PUSH2 0xBFB DUP1 PUSH3 0x16A PUSH1 0x0 CODECOPY PUSH1 0x0 RETURN INVALID PUSH1 0x80 PUSH1 0x40 MSTORE PUSH1 0x4 CALLDATASIZE LT PUSH2 0x34 JUMPI PUSH1 0x0 CALLDATALOAD PUSH1 0xE0 SHR DUP1 PUSH4 0x8B9C657A EQ PUSH2 0x39 JUMPI DUP1 PUSH4 0x90E1F79D EQ PUSH2 0x7B JUMPI DUP1 PUSH4 0xD0679D34 EQ PUSH2 0x97 JUMPI JUMPDEST PUSH1 0x0 DUP1 REVERT JUMPDEST CALLVALUE DUP1 ISZERO PUSH2 0x45 JUMPI PUSH1 0x0 DUP1 REVERT JUMPDEST POP PUSH2 0x60 PUSH1 0x4 DUP1 CALLDATASIZE SUB DUP2 ADD SWAP1 PUSH2 0x5B SWAP2 SWAP1 PUSH2 0x6A1 JUMP JUMPDEST PUSH2 0xB3 JUMP JUMPDEST PUSH1 0x40 MLOAD PUSH2 0x72 SWAP7 SWAP6 SWAP5 SWAP4 SWAP3 SWAP2 SWAP1 PUSH2 0x892 JUMP JUMPDEST PUSH1 0x40 MLOAD DUP1 SWAP2 SUB SWAP1 RETURN JUMPDEST PUSH2 0x95 PUSH1 0x4 DUP1 CALLDATASIZE SUB DUP2 ADD SWAP1 PUSH2 0x90 SWAP2 SWAP1 PUSH2 0x6CE JUMP JUMPDEST PUSH2 0x287 JUMP JUMPDEST STOP JUMPDEST PUSH2 0xB1 PUSH1 0x4 DUP1 CALLDATASIZE SUB DUP2 ADD SWAP1 PUSH2 0xAC SWAP2 SWAP1 PUSH2 0x7C4 JUMP JUMPDEST PUSH2 0x423 JUMP JUMPDEST STOP JUMPDEST PUSH1 0x3 PUSH1 0x20 MSTORE DUP1 PUSH1 0x0 MSTORE PUSH1 0x40 PUSH1 0x0 KECCAK256 PUSH1 0x0 SWAP2 POP SWAP1 POP DUP1 PUSH1 0x0 ADD DUP1 SLOAD PUSH2 0xD6 SWAP1 PUSH2 0xA82 JUMP JUMPDEST DUP1 PUSH1 0x1F ADD PUSH1 0x20 DUP1 SWAP2 DIV MUL PUSH1 0x20 ADD PUSH1 0x40 MLOAD SWAP1 DUP2 ADD PUSH1 0x40 MSTORE DUP1 SWAP3 SWAP2 SWAP1 DUP2 DUP2 MSTORE PUSH1 0x20 ADD DUP3 DUP1 SLOAD PUSH2 0x102 SWAP1 PUSH2 0xA82 JUMP JUMPDEST DUP1 ISZERO PUSH2 0x14F JUMPI DUP1 PUSH1 0x1F LT PUSH2 0x124 JUMPI PUSH2 0x100 DUP1 DUP4 SLOAD DIV MUL DUP4 MSTORE SWAP2 PUSH1 0x20 ADD SWAP2 PUSH2 0x14F JUMP JUMPDEST DUP3 ADD SWAP2 SWAP1 PUSH1 0x0 MSTORE PUSH1 0x20 PUSH1 0x0 KECCAK256 SWAP1 JUMPDEST DUP2 SLOAD DUP2 MSTORE SWAP1 PUSH1 0x1 ADD SWAP1 PUSH1 0x20 ADD DUP1 DUP4 GT PUSH2 0x132 JUMPI DUP3 SWAP1 SUB PUSH1 0x1F AND DUP3 ADD SWAP2 JUMPDEST POP POP POP POP POP SWAP1 DUP1 PUSH1 0x1 ADD SLOAD SWAP1 DUP1 PUSH1 0x2 ADD DUP1 SLOAD PUSH2 0x16A SWAP1 PUSH2 0xA82 JUMP JUMPDEST DUP1 PUSH1 0x1F ADD PUSH1 0x20 DUP1 SWAP2 DIV MUL PUSH1 0x20 ADD PUSH1 0x40 MLOAD SWAP1 DUP2 ADD PUSH1 0x40 MSTORE DUP1 SWAP3 SWAP2 SWAP1 DUP2 DUP2 MSTORE PUSH1 0x20 ADD DUP3 DUP1 SLOAD PUSH2 0x196 SWAP1 PUSH2 0xA82 JUMP JUMPDEST DUP1 ISZERO PUSH2 0x1E3 JUMPI DUP1 PUSH1 0x1F LT PUSH2 0x1B8 JUMPI PUSH2 0x100 DUP1 DUP4 SLOAD DIV MUL DUP4 MSTORE SWAP2 PUSH1 0x20 ADD SWAP2 PUSH2 0x1E3 JUMP JUMPDEST DUP3 ADD SWAP2 SWAP1 PUSH1 0x0 MSTORE PUSH1 0x20 PUSH1 0x0 KECCAK256 SWAP1 JUMPDEST DUP2 SLOAD DUP2 MSTORE SWAP1 PUSH1 0x1 ADD SWAP1 PUSH1 0x20 ADD DUP1 DUP4 GT PUSH2 0x1C6 JUMPI DUP3 SWAP1 SUB PUSH1 0x1F AND DUP3 ADD SWAP2 JUMPDEST POP POP POP POP POP SWAP1 DUP1 PUSH1 0x3 ADD SLOAD SWAP1 DUP1 PUSH1 0x4 ADD DUP1 SLOAD PUSH2 0x1FE SWAP1 PUSH2 0xA82 JUMP JUMPDEST DUP1 PUSH1 0x1F ADD PUSH1 0x20 DUP1 SWAP2 DIV MUL PUSH1 0x20 ADD PUSH1 0x40 MLOAD SWAP1 DUP2 ADD PUSH1 0x40 MSTORE DUP1 SWAP3 SWAP2 SWAP1 DUP2 DUP2 MSTORE PUSH1 0x20 ADD DUP3 DUP1 SLOAD PUSH2 0x22A SWAP1 PUSH2 0xA82 JUMP JUMPDEST DUP1 ISZERO PUSH2 0x277 JUMPI DUP1 PUSH1 0x1F LT PUSH2 0x24C JUMPI PUSH2 0x100 DUP1 DUP4 SLOAD DIV MUL DUP4 MSTORE SWAP2 PUSH1 0x20 ADD SWAP2 PUSH2 0x277 JUMP JUMPDEST DUP3 ADD SWAP2 SWAP1 PUSH1 0x0 MSTORE PUSH1 0x20 PUSH1 0x0 KECCAK256 SWAP1 JUMPDEST DUP2 SLOAD DUP2 MSTORE SWAP1 PUSH1 0x1 ADD SWAP1 PUSH1 0x20 ADD DUP1 DUP4 GT PUSH2 0x25A JUMPI DUP3 SWAP1 SUB PUSH1 0x1F AND DUP3 ADD SWAP2 JUMPDEST POP POP POP POP POP SWAP1 DUP1 PUSH1 0x5 ADD SLOAD SWAP1 POP DUP7 JUMP JUMPDEST DUP6 PUSH1 0x3 PUSH1 0x0 DUP10 PUSH20 0xFFFFFFFFFFFFFFFFFFFFFFFFFFFFFFFFFFFFFFFF AND PUSH20 0xFFFFFFFFFFFFFFFFFFFFFFFFFFFFFFFFFFFFFFFF AND DUP2 MSTORE PUSH1 0x20 ADD SWAP1 DUP2 MSTORE PUSH1 0x20 ADD PUSH1 0x0 KECCAK256 PUSH1 0x0 ADD SWAP1 DUP1 MLOAD SWAP1 PUSH1 0x20 ADD SWAP1 PUSH2 0x2DD SWAP3 SWAP2 SWAP1 PUSH2 0x564 JUMP JUMPDEST POP DUP5 PUSH1 0x3 PUSH1 0x0 DUP10 PUSH20 0xFFFFFFFFFFFFFFFFFFFFFFFFFFFFFFFFFFFFFFFF AND PUSH20 0xFFFFFFFFFFFFFFFFFFFFFFFFFFFFFFFFFFFFFFFF AND DUP2 MSTORE PUSH1 0x20 ADD SWAP1 DUP2 MSTORE PUSH1 0x20 ADD PUSH1 0x0 KECCAK256 PUSH1 0x1 ADD DUP2 SWAP1 SSTORE POP DUP4 PUSH1 0x3 PUSH1 0x0 DUP10 PUSH20 0xFFFFFFFFFFFFFFFFFFFFFFFFFFFFFFFFFFFFFFFF AND PUSH20 0xFFFFFFFFFFFFFFFFFFFFFFFFFFFFFFFFFFFFFFFF AND DUP2 MSTORE PUSH1 0x20 ADD SWAP1 DUP2 MSTORE PUSH1 0x20 ADD PUSH1 0x0 KECCAK256 PUSH1 0x2 ADD SWAP1 DUP1 MLOAD SWAP1 PUSH1 0x20 ADD SWAP1 PUSH2 0x37B SWAP3 SWAP2 SWAP1 PUSH2 0x564 JUMP JUMPDEST POP DUP3 PUSH1 0x3 PUSH1 0x0 DUP10 PUSH20 0xFFFFFFFFFFFFFFFFFFFFFFFFFFFFFFFFFFFFFFFF AND PUSH20 0xFFFFFFFFFFFFFFFFFFFFFFFFFFFFFFFFFFFFFFFF AND DUP2 MSTORE PUSH1 0x20 ADD SWAP1 DUP2 MSTORE PUSH1 0x20 ADD PUSH1 0x0 KECCAK256 PUSH1 0x3 ADD DUP2 SWAP1 SSTORE POP DUP2 PUSH1 0x3 PUSH1 0x0 DUP10 PUSH20 0xFFFFFFFFFFFFFFFFFFFFFFFFFFFFFFFFFFFFFFFF AND PUSH20 0xFFFFFFFFFFFFFFFFFFFFFFFFFFFFFFFFFFFFFFFF AND DUP2 MSTORE PUSH1 0x20 ADD SWAP1 DUP2 MSTORE PUSH1 0x20 ADD PUSH1 0x0 KECCAK256 PUSH1 0x4 ADD SWAP1 DUP1 MLOAD SWAP1 PUSH1 0x20 ADD SWAP1 PUSH2 0x419 SWAP3 SWAP2 SWAP1 PUSH2 0x564 JUMP JUMPDEST POP POP POP POP POP POP POP POP JUMP JUMPDEST DUP1 PUSH1 0x3 PUSH1 0x0 CALLER PUSH20 0xFFFFFFFFFFFFFFFFFFFFFFFFFFFFFFFFFFFFFFFF AND PUSH20 0xFFFFFFFFFFFFFFFFFFFFFFFFFFFFFFFFFFFFFFFF AND DUP2 MSTORE PUSH1 0x20 ADD SWAP1 DUP2 MSTORE PUSH1 0x20 ADD PUSH1 0x0 KECCAK256 PUSH1 0x5 ADD SLOAD LT ISZERO PUSH2 0x472 JUMPI PUSH2 0x560 JUMP JUMPDEST DUP1 PUSH1 0x3 PUSH1 0x0 CALLER PUSH20 0xFFFFFFFFFFFFFFFFFFFFFFFFFFFFFFFFFFFFFFFF AND PUSH20 0xFFFFFFFFFFFFFFFFFFFFFFFFFFFFFFFFFFFFFFFF AND DUP2 MSTORE PUSH1 0x20 ADD SWAP1 DUP2 MSTORE PUSH1 0x20 ADD PUSH1 0x0 KECCAK256 PUSH1 0x5 ADD PUSH1 0x0 DUP3 DUP3 SLOAD PUSH2 0x4C4 SWAP2 SWAP1 PUSH2 0x9D0 JUMP JUMPDEST SWAP3 POP POP DUP2 SWAP1 SSTORE POP DUP1 PUSH1 0x3 PUSH1 0x0 DUP5 PUSH20 0xFFFFFFFFFFFFFFFFFFFFFFFFFFFFFFFFFFFFFFFF AND PUSH20 0xFFFFFFFFFFFFFFFFFFFFFFFFFFFFFFFFFFFFFFFF AND DUP2 MSTORE PUSH1 0x20 ADD SWAP1 DUP2 MSTORE PUSH1 0x20 ADD PUSH1 0x0 KECCAK256 PUSH1 0x5 ADD PUSH1 0x0 DUP3 DUP3 SLOAD PUSH2 0x51D SWAP2 SWAP1 PUSH2 0x97A JUMP JUMPDEST SWAP3 POP POP DUP2 SWAP1 SSTORE POP PUSH32 0x3990DB2D31862302A685E8086B5755072A6E2B5B780AF1EE81ECE35EE3CD3345 CALLER DUP4 DUP4 PUSH1 0x40 MLOAD PUSH2 0x557 SWAP4 SWAP3 SWAP2 SWAP1 PUSH2 0x85B JUMP JUMPDEST PUSH1 0x40 MLOAD DUP1 SWAP2 SUB SWAP1 LOG1 JUMPDEST POP POP JUMP JUMPDEST DUP3 DUP1 SLOAD PUSH2 0x570 SWAP1 PUSH2 0xA82 JUMP JUMPDEST SWAP1 PUSH1 0x0 MSTORE PUSH1 0x20 PUSH1 0x0 KECCAK256 SWAP1 PUSH1 0x1F ADD PUSH1 0x20 SWAP1 DIV DUP2 ADD SWAP3 DUP3 PUSH2 0x592 JUMPI PUSH1 0x0 DUP6 SSTORE PUSH2 0x5D9 JUMP JUMPDEST DUP3 PUSH1 0x1F LT PUSH2 0x5AB JUMPI DUP1 MLOAD PUSH1 0xFF NOT AND DUP4 DUP1 ADD OR DUP6 SSTORE PUSH2 0x5D9 JUMP JUMPDEST DUP3 DUP1 ADD PUSH1 0x1 ADD DUP6 SSTORE DUP3 ISZERO PUSH2 0x5D9 JUMPI SWAP2 DUP3 ADD JUMPDEST DUP3 DUP2 GT ISZERO PUSH2 0x5D8 JUMPI DUP3 MLOAD DUP3 SSTORE SWAP2 PUSH1 0x20 ADD SWAP2 SWAP1 PUSH1 0x1 ADD SWAP1 PUSH2 0x5BD JUMP JUMPDEST JUMPDEST POP SWAP1 POP PUSH2 0x5E6 SWAP2 SWAP1 PUSH2 0x5EA JUMP JUMPDEST POP SWAP1 JUMP JUMPDEST JUMPDEST DUP1 DUP3 GT ISZERO PUSH2 0x603 JUMPI PUSH1 0x0 DUP2 PUSH1 0x0 SWAP1 SSTORE POP PUSH1 0x1 ADD PUSH2 0x5EB JUMP JUMPDEST POP SWAP1 JUMP JUMPDEST PUSH1 0x0 PUSH2 0x61A PUSH2 0x615 DUP5 PUSH2 0x92D JUMP JUMPDEST PUSH2 0x908 JUMP JUMPDEST SWAP1 POP DUP3 DUP2 MSTORE PUSH1 0x20 DUP2 ADD DUP5 DUP5 DUP5 ADD GT ISZERO PUSH2 0x636 JUMPI PUSH2 0x635 PUSH2 0xB77 JUMP JUMPDEST JUMPDEST PUSH2 0x641 DUP5 DUP3 DUP6 PUSH2 0xA40 JUMP JUMPDEST POP SWAP4 SWAP3 POP POP POP JUMP JUMPDEST PUSH1 0x0 DUP2 CALLDATALOAD SWAP1 POP PUSH2 0x658 DUP2 PUSH2 0xB97 JUMP JUMPDEST SWAP3 SWAP2 POP POP JUMP JUMPDEST PUSH1 0x0 DUP3 PUSH1 0x1F DUP4 ADD SLT PUSH2 0x673 JUMPI PUSH2 0x672 PUSH2 0xB72 JUMP JUMPDEST JUMPDEST DUP2 CALLDATALOAD PUSH2 0x683 DUP5 DUP3 PUSH1 0x20 DUP7 ADD PUSH2 0x607 JUMP JUMPDEST SWAP2 POP POP SWAP3 SWAP2 POP POP JUMP JUMPDEST PUSH1 0x0 DUP2 CALLDATALOAD SWAP1 POP PUSH2 0x69B DUP2 PUSH2 0xBAE JUMP JUMPDEST SWAP3 SWAP2 POP POP JUMP JUMPDEST PUSH1 0x0 PUSH1 0x20 DUP3 DUP5 SUB SLT ISZERO PUSH2 0x6B7 JUMPI PUSH2 0x6B6 PUSH2 0xB81 JUMP JUMPDEST JUMPDEST PUSH1 0x0 PUSH2 0x6C5 DUP5 DUP3 DUP6 ADD PUSH2 0x649 JUMP JUMPDEST SWAP2 POP POP SWAP3 SWAP2 POP POP JUMP JUMPDEST PUSH1 0x0 DUP1 PUSH1 0x0 DUP1 PUSH1 0x0 DUP1 PUSH1 0x0 PUSH1 0xE0 DUP9 DUP11 SUB SLT ISZERO PUSH2 0x6ED JUMPI PUSH2 0x6EC PUSH2 0xB81 JUMP JUMPDEST JUMPDEST PUSH1 0x0 PUSH2 0x6FB DUP11 DUP3 DUP12 ADD PUSH2 0x649 JUMP JUMPDEST SWAP8 POP POP PUSH1 0x20 DUP9 ADD CALLDATALOAD PUSH8 0xFFFFFFFFFFFFFFFF DUP2 GT ISZERO PUSH2 0x71C JUMPI PUSH2 0x71B PUSH2 0xB7C JUMP JUMPDEST JUMPDEST PUSH2 0x728 DUP11 DUP3 DUP12 ADD PUSH2 0x65E JUMP JUMPDEST SWAP7 POP POP PUSH1 0x40 PUSH2 0x739 DUP11 DUP3 DUP12 ADD PUSH2 0x68C JUMP JUMPDEST SWAP6 POP POP PUSH1 0x60 DUP9 ADD CALLDATALOAD PUSH8 0xFFFFFFFFFFFFFFFF DUP2 GT ISZERO PUSH2 0x75A JUMPI PUSH2 0x759 PUSH2 0xB7C JUMP JUMPDEST JUMPDEST PUSH2 0x766 DUP11 DUP3 DUP12 ADD PUSH2 0x65E JUMP JUMPDEST SWAP5 POP POP PUSH1 0x80 PUSH2 0x777 DUP11 DUP3 DUP12 ADD PUSH2 0x68C JUMP JUMPDEST SWAP4 POP POP PUSH1 0xA0 DUP9 ADD CALLDATALOAD PUSH8 0xFFFFFFFFFFFFFFFF DUP2 GT ISZERO PUSH2 0x798 JUMPI PUSH2 0x797 PUSH2 0xB7C JUMP JUMPDEST JUMPDEST PUSH2 0x7A4 DUP11 DUP3 DUP12 ADD PUSH2 0x65E JUMP JUMPDEST SWAP3 POP POP PUSH1 0xC0 PUSH2 0x7B5 DUP11 DUP3 DUP12 ADD PUSH2 0x68C JUMP JUMPDEST SWAP2 POP POP SWAP3 SWAP6 SWAP9 SWAP2 SWAP5 SWAP8 POP SWAP3 SWAP6 POP JUMP JUMPDEST PUSH1 0x0 DUP1 PUSH1 0x40 DUP4 DUP6 SUB SLT ISZERO PUSH2 0x7DB JUMPI PUSH2 0x7DA PUSH2 0xB81 JUMP JUMPDEST JUMPDEST PUSH1 0x0 PUSH2 0x7E9 DUP6 DUP3 DUP7 ADD PUSH2 0x649 JUMP JUMPDEST SWAP3 POP POP PUSH1 0x20 PUSH2 0x7FA DUP6 DUP3 DUP7 ADD PUSH2 0x68C JUMP JUMPDEST SWAP2 POP POP SWAP3 POP SWAP3 SWAP1 POP JUMP JUMPDEST PUSH2 0x80D DUP2 PUSH2 0xA04 JUMP JUMPDEST DUP3 MSTORE POP POP JUMP JUMPDEST PUSH1 0x0 PUSH2 0x81E DUP3 PUSH2 0x95E JUMP JUMPDEST PUSH2 0x828 DUP2 DUP6 PUSH2 0x969 JUMP JUMPDEST SWAP4 POP PUSH2 0x838 DUP2 DUP6 PUSH1 0x20 DUP7 ADD PUSH2 0xA4F JUMP JUMPDEST PUSH2 0x841 DUP2 PUSH2 0xB86 JUMP JUMPDEST DUP5 ADD SWAP2 POP POP SWAP3 SWAP2 POP POP JUMP JUMPDEST PUSH2 0x855 DUP2 PUSH2 0xA36 JUMP JUMPDEST DUP3 MSTORE POP POP JUMP JUMPDEST PUSH1 0x0 PUSH1 0x60 DUP3 ADD SWAP1 POP PUSH2 0x870 PUSH1 0x0 DUP4 ADD DUP7 PUSH2 0x804 JUMP JUMPDEST PUSH2 0x87D PUSH1 0x20 DUP4 ADD DUP6 PUSH2 0x804 JUMP JUMPDEST PUSH2 0x88A PUSH1 0x40 DUP4 ADD DUP5 PUSH2 0x84C JUMP JUMPDEST SWAP5 SWAP4 POP POP POP POP JUMP JUMPDEST PUSH1 0x0 PUSH1 0xC0 DUP3 ADD SWAP1 POP DUP2 DUP2 SUB PUSH1 0x0 DUP4 ADD MSTORE PUSH2 0x8AC DUP2 DUP10 PUSH2 0x813 JUMP JUMPDEST SWAP1 POP PUSH2 0x8BB PUSH1 0x20 DUP4 ADD DUP9 PUSH2 0x84C JUMP JUMPDEST DUP2 DUP2 SUB PUSH1 0x40 DUP4 ADD MSTORE PUSH2 0x8CD DUP2 DUP8 PUSH2 0x813 JUMP JUMPDEST SWAP1 POP PUSH2 0x8DC PUSH1 0x60 DUP4 ADD DUP7 PUSH2 0x84C JUMP JUMPDEST DUP2 DUP2 SUB PUSH1 0x80 DUP4 ADD MSTORE PUSH2 0x8EE DUP2 DUP6 PUSH2 0x813 JUMP JUMPDEST SWAP1 POP PUSH2 0x8FD PUSH1 0xA0 DUP4 ADD DUP5 PUSH2 0x84C JUMP JUMPDEST SWAP8 SWAP7 POP POP POP POP POP POP POP JUMP JUMPDEST PUSH1 0x0 PUSH2 0x912 PUSH2 0x923 JUMP JUMPDEST SWAP1 POP PUSH2 0x91E DUP3 DUP3 PUSH2 0xAB4 JUMP JUMPDEST SWAP2 SWAP1 POP JUMP JUMPDEST PUSH1 0x0 PUSH1 0x40 MLOAD SWAP1 POP SWAP1 JUMP JUMPDEST PUSH1 0x0 PUSH8 0xFFFFFFFFFFFFFFFF DUP3 GT ISZERO PUSH2 0x948 JUMPI PUSH2 0x947 PUSH2 0xB43 JUMP JUMPDEST JUMPDEST PUSH2 0x951 DUP3 PUSH2 0xB86 JUMP JUMPDEST SWAP1 POP PUSH1 0x20 DUP2 ADD SWAP1 POP SWAP2 SWAP1 POP JUMP JUMPDEST PUSH1 0x0 DUP2 MLOAD SWAP1 POP SWAP2 SWAP1 POP JUMP JUMPDEST PUSH1 0x0 DUP3 DUP3 MSTORE PUSH1 0x20 DUP3 ADD SWAP1 POP SWAP3 SWAP2 POP POP JUMP JUMPDEST PUSH1 0x0 PUSH2 0x985 DUP3 PUSH2 0xA36 JUMP JUMPDEST SWAP2 POP PUSH2 0x990 DUP4 PUSH2 0xA36 JUMP JUMPDEST SWAP3 POP DUP3 PUSH32 0xFFFFFFFFFFFFFFFFFFFFFFFFFFFFFFFFFFFFFFFFFFFFFFFFFFFFFFFFFFFFFFFF SUB DUP3 GT ISZERO PUSH2 0x9C5 JUMPI PUSH2 0x9C4 PUSH2 0xAE5 JUMP JUMPDEST JUMPDEST DUP3 DUP3 ADD SWAP1 POP SWAP3 SWAP2 POP POP JUMP JUMPDEST PUSH1 0x0 PUSH2 0x9DB DUP3 PUSH2 0xA36 JUMP JUMPDEST SWAP2 POP PUSH2 0x9E6 DUP4 PUSH2 0xA36 JUMP JUMPDEST SWAP3 POP DUP3 DUP3 LT ISZERO PUSH2 0x9F9 JUMPI PUSH2 0x9F8 PUSH2 0xAE5 JUMP JUMPDEST JUMPDEST DUP3 DUP3 SUB SWAP1 POP SWAP3 SWAP2 POP POP JUMP JUMPDEST PUSH1 0x0 PUSH2 0xA0F DUP3 PUSH2 0xA16 JUMP JUMPDEST SWAP1 POP SWAP2 SWAP1 POP JUMP JUMPDEST PUSH1 0x0 PUSH20 0xFFFFFFFFFFFFFFFFFFFFFFFFFFFFFFFFFFFFFFFF DUP3 AND SWAP1 POP SWAP2 SWAP1 POP JUMP JUMPDEST PUSH1 0x0 DUP2 SWAP1 POP SWAP2 SWAP1 POP JUMP JUMPDEST DUP3 DUP2 DUP4 CALLDATACOPY PUSH1 0x0 DUP4 DUP4 ADD MSTORE POP POP POP JUMP JUMPDEST PUSH1 0x0 JUMPDEST DUP4 DUP2 LT ISZERO PUSH2 0xA6D JUMPI DUP1 DUP3 ADD MLOAD DUP2 DUP5 ADD MSTORE PUSH1 0x20 DUP2 ADD SWAP1 POP PUSH2 0xA52 JUMP JUMPDEST DUP4 DUP2 GT ISZERO PUSH2 0xA7C JUMPI PUSH1 0x0 DUP5 DUP5 ADD MSTORE JUMPDEST POP POP POP POP JUMP JUMPDEST PUSH1 0x0 PUSH1 0x2 DUP3 DIV SWAP1 POP PUSH1 0x1 DUP3 AND DUP1 PUSH2 0xA9A JUMPI PUSH1 0x7F DUP3 AND SWAP2 POP JUMPDEST PUSH1 0x20 DUP3 LT DUP2 EQ ISZERO PUSH2 0xAAE JUMPI PUSH2 0xAAD PUSH2 0xB14 JUMP JUMPDEST JUMPDEST POP SWAP2 SWAP1 POP JUMP JUMPDEST PUSH2 0xABD DUP3 PUSH2 0xB86 JUMP JUMPDEST DUP2 ADD DUP2 DUP2 LT PUSH8 0xFFFFFFFFFFFFFFFF DUP3 GT OR ISZERO PUSH2 0xADC JUMPI PUSH2 0xADB PUSH2 0xB43 JUMP JUMPDEST JUMPDEST DUP1 PUSH1 0x40 MSTORE POP POP POP JUMP JUMPDEST PUSH32 0x4E487B7100000000000000000000000000000000000000000000000000000000 PUSH1 0x0 MSTORE PUSH1 0x11 PUSH1 0x4 MSTORE PUSH1 0x24 PUSH1 0x0 REVERT JUMPDEST PUSH32 0x4E487B7100000000000000000000000000000000000000000000000000000000 PUSH1 0x0 MSTORE PUSH1 0x22 PUSH1 0x4 MSTORE PUSH1 0x24 PUSH1 0x0 REVERT JUMPDEST PUSH32 0x4E487B7100000000000000000000000000000000000000000000000000000000 PUSH1 0x0 MSTORE PUSH1 0x41 PUSH1 0x4 MSTORE PUSH1 0x24 PUSH1 0x0 REVERT JUMPDEST PUSH1 0x0 DUP1 REVERT JUMPDEST PUSH1 0x0 DUP1 REVERT JUMPDEST PUSH1 0x0 DUP1 REVERT JUMPDEST PUSH1 0x0 DUP1 REVERT JUMPDEST PUSH1 0x0 PUSH1 0x1F NOT PUSH1 0x1F DUP4 ADD AND SWAP1 POP SWAP2 SWAP1 POP JUMP JUMPDEST PUSH2 0xBA0 DUP2 PUSH2 0xA04 JUMP JUMPDEST DUP2 EQ PUSH2 0xBAB JUMPI PUSH1 0x0 DUP1 REVERT JUMPDEST POP JUMP JUMPDEST PUSH2 0xBB7 DUP2 PUSH2 0xA36 JUMP JUMPDEST DUP2 EQ PUSH2 0xBC2 JUMPI PUSH1 0x0 DUP1 REVERT JUMPDEST POP JUMP INVALID LOG2 PUSH5 0x6970667358 0x22 SLT KECCAK256 LOG4 LOG0 0xA5 CALLDATALOAD LT SWAP13 0xDB JUMPI 0xDC 0xA6 0xFB POP PUSH32 0x2D7AF71AFF57C18DCFDDD115BD20CDE77DFEE664736F6C634300080700330000 "
				},
				"gasEstimates": {
					"creation": {
						"codeDepositCost": "613400",
						"executionCost": "infinite",
						"totalCost": "infinite"
					},
					"external": {
						"getInfoByWallet(address)": "infinite",
						"send(address,uint256)": "infinite",
						"setInfo(address,string,uint256,string,uint256,string,uint256)": "infinite"
					}
				},
				"methodIdentifiers": {
					"getInfoByWallet(address)": "8b9c657a",
					"send(address,uint256)": "d0679d34",
					"setInfo(address,string,uint256,string,uint256,string,uint256)": "90e1f79d"
				}
			},
			"storageLayout": {
				"storage": [
					{
						"astId": 25,
						"contract": "SetNSend.sol:status",
						"label": "name",
						"offset": 0,
						"slot": "0",
						"type": "t_string_storage"
					},
					{
						"astId": 28,
						"contract": "SetNSend.sol:status",
						"label": "balance",
						"offset": 0,
						"slot": "1",
						"type": "t_uint256"
					},
					{
						"astId": 32,
						"contract": "SetNSend.sol:status",
						"label": "Students",
						"offset": 0,
						"slot": "2",
						"type": "t_array(t_struct(Student)22_storage)dyn_storage"
					},
					{
						"astId": 37,
						"contract": "SetNSend.sol:status",
						"label": "getInfoByWallet",
						"offset": 0,
						"slot": "3",
						"type": "t_mapping(t_address,t_struct(Student)22_storage)"
					}
				],
				"types": {
					"t_address": {
						"encoding": "inplace",
						"label": "address",
						"numberOfBytes": "20"
					},
					"t_array(t_struct(Student)22_storage)dyn_storage": {
						"base": "t_struct(Student)22_storage",
						"encoding": "dynamic_array",
						"label": "struct status.Student[]",
						"numberOfBytes": "32"
					},
					"t_mapping(t_address,t_struct(Student)22_storage)": {
						"encoding": "mapping",
						"key": "t_address",
						"label": "mapping(address => struct status.Student)",
						"numberOfBytes": "32",
						"value": "t_struct(Student)22_storage"
					},
					"t_string_storage": {
						"encoding": "bytes",
						"label": "string",
						"numberOfBytes": "32"
					},
					"t_struct(Student)22_storage": {
						"encoding": "inplace",
						"label": "struct status.Student",
						"members": [
							{
								"astId": 11,
								"contract": "SetNSend.sol:status",
								"label": "name",
								"offset": 0,
								"slot": "0",
								"type": "t_string_storage"
							},
							{
								"astId": 13,
								"contract": "SetNSend.sol:status",
								"label": "StudentID",
								"offset": 0,
								"slot": "1",
								"type": "t_uint256"
							},
							{
								"astId": 15,
								"contract": "SetNSend.sol:status",
								"label": "major",
								"offset": 0,
								"slot": "2",
								"type": "t_string_storage"
							},
							{
								"astId": 17,
								"contract": "SetNSend.sol:status",
								"label": "gpa",
								"offset": 0,
								"slot": "3",
								"type": "t_uint256"
							},
							{
								"astId": 19,
								"contract": "SetNSend.sol:status",
								"label": "company",
								"offset": 0,
								"slot": "4",
								"type": "t_string_storage"
							},
							{
								"astId": 21,
								"contract": "SetNSend.sol:status",
								"label": "balance",
								"offset": 0,
								"slot": "5",
								"type": "t_uint256"
							}
						],
						"numberOfBytes": "192"
					},
					"t_uint256": {
						"encoding": "inplace",
						"label": "uint256",
						"numberOfBytes": "32"
					}
				}
			},
			"userdoc": {
				"kind": "user",
				"methods": {},
				"version": 1
			}
		}
	}
}