{
	"test1.sol": {
		"status": {
			"abi": [
				{
					"inputs": [],
					"stateMutability": "nonpayable",
					"type": "constructor"
				},
				{
					"anonymous": false,
					"inputs": [
						{
							"indexed": false,
							"internalType": "address",
							"name": "from",
							"type": "address"
						},
						{
							"indexed": false,
							"internalType": "address",
							"name": "to",
							"type": "address"
						},
						{
							"indexed": false,
							"internalType": "uint256",
							"name": "amount",
							"type": "uint256"
						}
					],
					"name": "Sent",
					"type": "event"
				},
				{
					"inputs": [
						{
							"internalType": "address",
							"name": "",
							"type": "address"
						}
					],
					"name": "balances",
					"outputs": [
						{
							"internalType": "uint256",
							"name": "",
							"type": "uint256"
						}
					],
					"stateMutability": "view",
					"type": "function"
				},
				{
					"inputs": [
						{
							"internalType": "uint256",
							"name": "_number",
							"type": "uint256"
						}
					],
					"name": "getStu",
					"outputs": [
						{
							"internalType": "string",
							"name": "getStuName",
							"type": "string"
						},
						{
							"internalType": "uint256",
							"name": "getStuID",
							"type": "uint256"
						},
						{
							"internalType": "string",
							"name": "getStuMajor",
							"type": "string"
						},
						{
							"internalType": "uint256",
							"name": "getStuGPA",
							"type": "uint256"
						},
						{
							"internalType": "string",
							"name": "getStuCompany",
							"type": "string"
						}
					],
					"stateMutability": "view",
					"type": "function"
				},
				{
					"inputs": [
						{
							"internalType": "address",
							"name": "receiver",
							"type": "address"
						},
						{
							"internalType": "uint256",
							"name": "amount",
							"type": "uint256"
						}
					],
					"name": "mint",
					"outputs": [],
					"stateMutability": "payable",
					"type": "function"
				},
				{
					"inputs": [],
					"name": "minter",
					"outputs": [
						{
							"internalType": "address",
							"name": "",
							"type": "address"
						}
					],
					"stateMutability": "view",
					"type": "function"
				},
				{
					"inputs": [
						{
							"internalType": "address",
							"name": "receiver",
							"type": "address"
						},
						{
							"internalType": "uint256",
							"name": "amount",
							"type": "uint256"
						}
					],
					"name": "send",
					"outputs": [],
					"stateMutability": "nonpayable",
					"type": "function"
				},
				{
					"inputs": [
						{
							"internalType": "string",
							"name": "_name",
							"type": "string"
						},
						{
							"internalType": "uint256",
							"name": "_StudentID",
							"type": "uint256"
						},
						{
							"internalType": "string",
							"name": "_major",
							"type": "string"
						},
						{
							"internalType": "uint256",
							"name": "_gpa",
							"type": "uint256"
						},
						{
							"internalType": "string",
							"name": "_company",
							"type": "string"
						}
					],
					"name": "setStu",
					"outputs": [],
					"stateMutability": "payable",
					"type": "function"
				}
			],
			"devdoc": {
				"kind": "dev",
				"methods": {},
				"version": 1
			},
			"evm": {
				"assembly": "    /* \"test1.sol\":72:1640  contract status{\r... */\n  mstore(0x40, 0x80)\n    /* \"test1.sol\":231:283  constructor() {\r... */\n  callvalue\n  dup1\n  iszero\n  tag_1\n  jumpi\n  0x00\n  dup1\n  revert\ntag_1:\n  pop\n    /* \"test1.sol\":265:275  msg.sender */\n  caller\n    /* \"test1.sol\":256:262  minter */\n  0x00\n  dup1\n    /* \"test1.sol\":256:275  minter = msg.sender */\n  0x0100\n  exp\n  dup2\n  sload\n  dup2\n  0xffffffffffffffffffffffffffffffffffffffff\n  mul\n  not\n  and\n  swap1\n  dup4\n  0xffffffffffffffffffffffffffffffffffffffff\n  and\n  mul\n  or\n  swap1\n  sstore\n  pop\n    /* \"test1.sol\":72:1640  contract status{\r... */\n  dataSize(sub_0)\n  dup1\n  dataOffset(sub_0)\n  0x00\n  codecopy\n  0x00\n  return\nstop\n\nsub_0: assembly {\n        /* \"test1.sol\":72:1640  contract status{\r... */\n      mstore(0x40, 0x80)\n      jumpi(tag_1, lt(calldatasize, 0x04))\n      shr(0xe0, calldataload(0x00))\n      dup1\n      0x07546172\n      eq\n      tag_2\n      jumpi\n      dup1\n      0x27e235e3\n      eq\n      tag_3\n      jumpi\n      dup1\n      0x40c10f19\n      eq\n      tag_4\n      jumpi\n      dup1\n      0x435c28e5\n      eq\n      tag_5\n      jumpi\n      dup1\n      0x82e3472d\n      eq\n      tag_6\n      jumpi\n      dup1\n      0xd0679d34\n      eq\n      tag_7\n      jumpi\n    tag_1:\n      0x00\n      dup1\n      revert\n        /* \"test1.sol\":96:117  address public minter */\n    tag_2:\n      callvalue\n      dup1\n      iszero\n      tag_8\n      jumpi\n      0x00\n      dup1\n      revert\n    tag_8:\n      pop\n      tag_9\n      tag_10\n      jump\t// in\n    tag_9:\n      mload(0x40)\n      tag_11\n      swap2\n      swap1\n      tag_12\n      jump\t// in\n    tag_11:\n      mload(0x40)\n      dup1\n      swap2\n      sub\n      swap1\n      return\n        /* \"test1.sol\":124:165  mapping (address => uint) public balances */\n    tag_3:\n      callvalue\n      dup1\n      iszero\n      tag_13\n      jumpi\n      0x00\n      dup1\n      revert\n    tag_13:\n      pop\n      tag_14\n      0x04\n      dup1\n      calldatasize\n      sub\n      dup2\n      add\n      swap1\n      tag_15\n      swap2\n      swap1\n      tag_16\n      jump\t// in\n    tag_15:\n      tag_17\n      jump\t// in\n    tag_14:\n      mload(0x40)\n      tag_18\n      swap2\n      swap1\n      tag_19\n      jump\t// in\n    tag_18:\n      mload(0x40)\n      dup1\n      swap2\n      sub\n      swap1\n      return\n        /* \"test1.sol\":1237:1387  function mint(address receiver, uint amount) public payable {\r... */\n    tag_4:\n      tag_20\n      0x04\n      dup1\n      calldatasize\n      sub\n      dup2\n      add\n      swap1\n      tag_21\n      swap2\n      swap1\n      tag_22\n      jump\t// in\n    tag_21:\n      tag_23\n      jump\t// in\n    tag_20:\n      stop\n        /* \"test1.sol\":580:803  function setStu(string memory _name, uint256 _StudentID, string memory _major, uint256 _gpa, string memory _company) public payable{\r... */\n    tag_5:\n      tag_24\n      0x04\n      dup1\n      calldatasize\n      sub\n      dup2\n      add\n      swap1\n      tag_25\n      swap2\n      swap1\n      tag_26\n      jump\t// in\n    tag_25:\n      tag_27\n      jump\t// in\n    tag_24:\n      stop\n        /* \"test1.sol\":811:1227  function getStu(uint _number) public view returns (string memory getStuName, uint256 getStuID, string memory getStuMajor, uint256 getStuGPA, string memory getStuCompany){\r... */\n    tag_6:\n      callvalue\n      dup1\n      iszero\n      tag_28\n      jumpi\n      0x00\n      dup1\n      revert\n    tag_28:\n      pop\n      tag_29\n      0x04\n      dup1\n      calldatasize\n      sub\n      dup2\n      add\n      swap1\n      tag_30\n      swap2\n      swap1\n      tag_31\n      jump\t// in\n    tag_30:\n      tag_32\n      jump\t// in\n    tag_29:\n      mload(0x40)\n      tag_33\n      swap6\n      swap5\n      swap4\n      swap3\n      swap2\n      swap1\n      tag_34\n      jump\t// in\n    tag_33:\n      mload(0x40)\n      dup1\n      swap2\n      sub\n      swap1\n      return\n        /* \"test1.sol\":1395:1637  function send(address receiver, uint amount) public {\r... */\n    tag_7:\n      callvalue\n      dup1\n      iszero\n      tag_35\n      jumpi\n      0x00\n      dup1\n      revert\n    tag_35:\n      pop\n      tag_36\n      0x04\n      dup1\n      calldatasize\n      sub\n      dup2\n      add\n      swap1\n      tag_37\n      swap2\n      swap1\n      tag_22\n      jump\t// in\n    tag_37:\n      tag_38\n      jump\t// in\n    tag_36:\n      stop\n        /* \"test1.sol\":96:117  address public minter */\n    tag_10:\n      0x00\n      dup1\n      sload\n      swap1\n      0x0100\n      exp\n      swap1\n      div\n      0xffffffffffffffffffffffffffffffffffffffff\n      and\n      dup2\n      jump\t// out\n        /* \"test1.sol\":124:165  mapping (address => uint) public balances */\n    tag_17:\n      mstore(0x20, 0x01)\n      dup1\n      0x00\n      mstore\n      keccak256(0x00, 0x40)\n      0x00\n      swap2\n      pop\n      swap1\n      pop\n      sload\n      dup2\n      jump\t// out\n        /* \"test1.sol\":1237:1387  function mint(address receiver, uint amount) public payable {\r... */\n    tag_23:\n        /* \"test1.sol\":1326:1332  minter */\n      0x00\n      dup1\n      sload\n      swap1\n      0x0100\n      exp\n      swap1\n      div\n      0xffffffffffffffffffffffffffffffffffffffff\n      and\n        /* \"test1.sol\":1312:1332  msg.sender != minter */\n      0xffffffffffffffffffffffffffffffffffffffff\n      and\n        /* \"test1.sol\":1312:1322  msg.sender */\n      caller\n        /* \"test1.sol\":1312:1332  msg.sender != minter */\n      0xffffffffffffffffffffffffffffffffffffffff\n      and\n      eq\n        /* \"test1.sol\":1308:1341  if (msg.sender != minter) return; */\n      tag_40\n      jumpi\n        /* \"test1.sol\":1334:1341  return; */\n      jump(tag_39)\n        /* \"test1.sol\":1308:1341  if (msg.sender != minter) return; */\n    tag_40:\n        /* \"test1.sol\":1373:1379  amount */\n      dup1\n        /* \"test1.sol\":1351:1359  balances */\n      0x01\n        /* \"test1.sol\":1351:1369  balances[receiver] */\n      0x00\n        /* \"test1.sol\":1360:1368  receiver */\n      dup5\n        /* \"test1.sol\":1351:1369  balances[receiver] */\n      0xffffffffffffffffffffffffffffffffffffffff\n      and\n      0xffffffffffffffffffffffffffffffffffffffff\n      and\n      dup2\n      mstore\n      0x20\n      add\n      swap1\n      dup2\n      mstore\n      0x20\n      add\n      0x00\n      keccak256\n      0x00\n        /* \"test1.sol\":1351:1379  balances[receiver] += amount */\n      dup3\n      dup3\n      sload\n      tag_41\n      swap2\n      swap1\n      tag_42\n      jump\t// in\n    tag_41:\n      swap3\n      pop\n      pop\n      dup2\n      swap1\n      sstore\n      pop\n        /* \"test1.sol\":1237:1387  function mint(address receiver, uint amount) public payable {\r... */\n    tag_39:\n      pop\n      pop\n      jump\t// out\n        /* \"test1.sol\":580:803  function setStu(string memory _name, uint256 _StudentID, string memory _major, uint256 _gpa, string memory _company) public payable{\r... */\n    tag_27:\n        /* \"test1.sol\":722:730  Students */\n      0x02\n        /* \"test1.sol\":736:794  Student(_name, _StudentID, _major, _gpa, _company, minter) */\n      mload(0x40)\n      dup1\n      0xc0\n      add\n      0x40\n      mstore\n      dup1\n        /* \"test1.sol\":744:749  _name */\n      dup8\n        /* \"test1.sol\":736:794  Student(_name, _StudentID, _major, _gpa, _company, minter) */\n      dup2\n      mstore\n      0x20\n      add\n        /* \"test1.sol\":751:761  _StudentID */\n      dup7\n        /* \"test1.sol\":736:794  Student(_name, _StudentID, _major, _gpa, _company, minter) */\n      dup2\n      mstore\n      0x20\n      add\n        /* \"test1.sol\":763:769  _major */\n      dup6\n        /* \"test1.sol\":736:794  Student(_name, _StudentID, _major, _gpa, _company, minter) */\n      dup2\n      mstore\n      0x20\n      add\n        /* \"test1.sol\":771:775  _gpa */\n      dup5\n        /* \"test1.sol\":736:794  Student(_name, _StudentID, _major, _gpa, _company, minter) */\n      dup2\n      mstore\n      0x20\n      add\n        /* \"test1.sol\":777:785  _company */\n      dup4\n        /* \"test1.sol\":736:794  Student(_name, _StudentID, _major, _gpa, _company, minter) */\n      dup2\n      mstore\n      0x20\n      add\n        /* \"test1.sol\":787:793  minter */\n      0x00\n      dup1\n      sload\n      swap1\n      0x0100\n      exp\n      swap1\n      div\n      0xffffffffffffffffffffffffffffffffffffffff\n      and\n        /* \"test1.sol\":736:794  Student(_name, _StudentID, _major, _gpa, _company, minter) */\n      0xffffffffffffffffffffffffffffffffffffffff\n      and\n      dup2\n      mstore\n      pop\n        /* \"test1.sol\":722:795  Students.push(Student(_name, _StudentID, _major, _gpa, _company, minter)) */\n      swap1\n      dup1\n      0x01\n      dup2\n      sload\n      add\n      dup1\n      dup3\n      sstore\n      dup1\n      swap2\n      pop\n      pop\n      0x01\n      swap1\n      sub\n      swap1\n      0x00\n      mstore\n      keccak256(0x00, 0x20)\n      swap1\n      0x06\n      mul\n      add\n      0x00\n      swap1\n      swap2\n      swap1\n      swap2\n      swap1\n      swap2\n      pop\n      0x00\n      dup3\n      add\n      mload\n      dup2\n      0x00\n      add\n      swap1\n      dup1\n      mload\n      swap1\n      0x20\n      add\n      swap1\n      tag_45\n      swap3\n      swap2\n      swap1\n      tag_46\n      jump\t// in\n    tag_45:\n      pop\n      0x20\n      dup3\n      add\n      mload\n      dup2\n      0x01\n      add\n      sstore\n      0x40\n      dup3\n      add\n      mload\n      dup2\n      0x02\n      add\n      swap1\n      dup1\n      mload\n      swap1\n      0x20\n      add\n      swap1\n      tag_47\n      swap3\n      swap2\n      swap1\n      tag_46\n      jump\t// in\n    tag_47:\n      pop\n      0x60\n      dup3\n      add\n      mload\n      dup2\n      0x03\n      add\n      sstore\n      0x80\n      dup3\n      add\n      mload\n      dup2\n      0x04\n      add\n      swap1\n      dup1\n      mload\n      swap1\n      0x20\n      add\n      swap1\n      tag_48\n      swap3\n      swap2\n      swap1\n      tag_46\n      jump\t// in\n    tag_48:\n      pop\n      0xa0\n      dup3\n      add\n      mload\n      dup2\n      0x05\n      add\n      exp(0x0100, 0x00)\n      dup2\n      sload\n      dup2\n      0xffffffffffffffffffffffffffffffffffffffff\n      mul\n      not\n      and\n      swap1\n      dup4\n      0xffffffffffffffffffffffffffffffffffffffff\n      and\n      mul\n      or\n      swap1\n      sstore\n      pop\n      pop\n      pop\n        /* \"test1.sol\":580:803  function setStu(string memory _name, uint256 _StudentID, string memory _major, uint256 _gpa, string memory _company) public payable{\r... */\n      pop\n      pop\n      pop\n      pop\n      pop\n      jump\t// out\n        /* \"test1.sol\":811:1227  function getStu(uint _number) public view returns (string memory getStuName, uint256 getStuID, string memory getStuMajor, uint256 getStuGPA, string memory getStuCompany){\r... */\n    tag_32:\n        /* \"test1.sol\":862:886  string memory getStuName */\n      0x60\n        /* \"test1.sol\":888:904  uint256 getStuID */\n      0x00\n        /* \"test1.sol\":906:931  string memory getStuMajor */\n      0x60\n        /* \"test1.sol\":933:950  uint256 getStuGPA */\n      0x00\n        /* \"test1.sol\":952:979  string memory getStuCompany */\n      0x60\n        /* \"test1.sol\":1004:1012  Students */\n      0x02\n        /* \"test1.sol\":1013:1020  _number */\n      dup7\n        /* \"test1.sol\":1004:1021  Students[_number] */\n      dup2\n      sload\n      dup2\n      lt\n      tag_50\n      jumpi\n      tag_51\n      tag_52\n      jump\t// in\n    tag_51:\n    tag_50:\n      swap1\n      0x00\n      mstore\n      keccak256(0x00, 0x20)\n      swap1\n      0x06\n      mul\n      add\n        /* \"test1.sol\":1004:1026  Students[_number].name */\n      0x00\n      add\n        /* \"test1.sol\":991:1026  getStuName = Students[_number].name */\n      dup1\n      sload\n      tag_54\n      swap1\n      tag_55\n      jump\t// in\n    tag_54:\n      dup1\n      0x1f\n      add\n      0x20\n      dup1\n      swap2\n      div\n      mul\n      0x20\n      add\n      mload(0x40)\n      swap1\n      dup2\n      add\n      0x40\n      mstore\n      dup1\n      swap3\n      swap2\n      swap1\n      dup2\n      dup2\n      mstore\n      0x20\n      add\n      dup3\n      dup1\n      sload\n      tag_56\n      swap1\n      tag_55\n      jump\t// in\n    tag_56:\n      dup1\n      iszero\n      tag_57\n      jumpi\n      dup1\n      0x1f\n      lt\n      tag_58\n      jumpi\n      0x0100\n      dup1\n      dup4\n      sload\n      div\n      mul\n      dup4\n      mstore\n      swap2\n      0x20\n      add\n      swap2\n      jump(tag_57)\n    tag_58:\n      dup3\n      add\n      swap2\n      swap1\n      0x00\n      mstore\n      keccak256(0x00, 0x20)\n      swap1\n    tag_59:\n      dup2\n      sload\n      dup2\n      mstore\n      swap1\n      0x01\n      add\n      swap1\n      0x20\n      add\n      dup1\n      dup4\n      gt\n      tag_59\n      jumpi\n      dup3\n      swap1\n      sub\n      0x1f\n      and\n      dup3\n      add\n      swap2\n    tag_57:\n      pop\n      pop\n      pop\n      pop\n      pop\n      swap5\n      pop\n        /* \"test1.sol\":1048:1056  Students */\n      0x02\n        /* \"test1.sol\":1057:1064  _number */\n      dup7\n        /* \"test1.sol\":1048:1065  Students[_number] */\n      dup2\n      sload\n      dup2\n      lt\n      tag_60\n      jumpi\n      tag_61\n      tag_52\n      jump\t// in\n    tag_61:\n    tag_60:\n      swap1\n      0x00\n      mstore\n      keccak256(0x00, 0x20)\n      swap1\n      0x06\n      mul\n      add\n        /* \"test1.sol\":1048:1075  Students[_number].StudentID */\n      0x01\n      add\n      sload\n        /* \"test1.sol\":1037:1075  getStuID = Students[_number].StudentID */\n      swap4\n      pop\n        /* \"test1.sol\":1100:1108  Students */\n      0x02\n        /* \"test1.sol\":1109:1116  _number */\n      dup7\n        /* \"test1.sol\":1100:1117  Students[_number] */\n      dup2\n      sload\n      dup2\n      lt\n      tag_63\n      jumpi\n      tag_64\n      tag_52\n      jump\t// in\n    tag_64:\n    tag_63:\n      swap1\n      0x00\n      mstore\n      keccak256(0x00, 0x20)\n      swap1\n      0x06\n      mul\n      add\n        /* \"test1.sol\":1100:1123  Students[_number].major */\n      0x02\n      add\n        /* \"test1.sol\":1086:1123  getStuMajor = Students[_number].major */\n      dup1\n      sload\n      tag_66\n      swap1\n      tag_55\n      jump\t// in\n    tag_66:\n      dup1\n      0x1f\n      add\n      0x20\n      dup1\n      swap2\n      div\n      mul\n      0x20\n      add\n      mload(0x40)\n      swap1\n      dup2\n      add\n      0x40\n      mstore\n      dup1\n      swap3\n      swap2\n      swap1\n      dup2\n      dup2\n      mstore\n      0x20\n      add\n      dup3\n      dup1\n      sload\n      tag_67\n      swap1\n      tag_55\n      jump\t// in\n    tag_67:\n      dup1\n      iszero\n      tag_68\n      jumpi\n      dup1\n      0x1f\n      lt\n      tag_69\n      jumpi\n      0x0100\n      dup1\n      dup4\n      sload\n      div\n      mul\n      dup4\n      mstore\n      swap2\n      0x20\n      add\n      swap2\n      jump(tag_68)\n    tag_69:\n      dup3\n      add\n      swap2\n      swap1\n      0x00\n      mstore\n      keccak256(0x00, 0x20)\n      swap1\n    tag_70:\n      dup2\n      sload\n      dup2\n      mstore\n      swap1\n      0x01\n      add\n      swap1\n      0x20\n      add\n      dup1\n      dup4\n      gt\n      tag_70\n      jumpi\n      dup3\n      swap1\n      sub\n      0x1f\n      and\n      dup3\n      add\n      swap2\n    tag_68:\n      pop\n      pop\n      pop\n      pop\n      pop\n      swap3\n      pop\n        /* \"test1.sol\":1146:1154  Students */\n      0x02\n        /* \"test1.sol\":1155:1162  _number */\n      dup7\n        /* \"test1.sol\":1146:1163  Students[_number] */\n      dup2\n      sload\n      dup2\n      lt\n      tag_71\n      jumpi\n      tag_72\n      tag_52\n      jump\t// in\n    tag_72:\n    tag_71:\n      swap1\n      0x00\n      mstore\n      keccak256(0x00, 0x20)\n      swap1\n      0x06\n      mul\n      add\n        /* \"test1.sol\":1146:1167  Students[_number].gpa */\n      0x03\n      add\n      sload\n        /* \"test1.sol\":1134:1167  getStuGPA = Students[_number].gpa */\n      swap2\n      pop\n        /* \"test1.sol\":1194:1202  Students */\n      0x02\n        /* \"test1.sol\":1203:1210  _number */\n      dup7\n        /* \"test1.sol\":1194:1211  Students[_number] */\n      dup2\n      sload\n      dup2\n      lt\n      tag_74\n      jumpi\n      tag_75\n      tag_52\n      jump\t// in\n    tag_75:\n    tag_74:\n      swap1\n      0x00\n      mstore\n      keccak256(0x00, 0x20)\n      swap1\n      0x06\n      mul\n      add\n        /* \"test1.sol\":1194:1219  Students[_number].company */\n      0x04\n      add\n        /* \"test1.sol\":1178:1219  getStuCompany = Students[_number].company */\n      dup1\n      sload\n      tag_77\n      swap1\n      tag_55\n      jump\t// in\n    tag_77:\n      dup1\n      0x1f\n      add\n      0x20\n      dup1\n      swap2\n      div\n      mul\n      0x20\n      add\n      mload(0x40)\n      swap1\n      dup2\n      add\n      0x40\n      mstore\n      dup1\n      swap3\n      swap2\n      swap1\n      dup2\n      dup2\n      mstore\n      0x20\n      add\n      dup3\n      dup1\n      sload\n      tag_78\n      swap1\n      tag_55\n      jump\t// in\n    tag_78:\n      dup1\n      iszero\n      tag_79\n      jumpi\n      dup1\n      0x1f\n      lt\n      tag_80\n      jumpi\n      0x0100\n      dup1\n      dup4\n      sload\n      div\n      mul\n      dup4\n      mstore\n      swap2\n      0x20\n      add\n      swap2\n      jump(tag_79)\n    tag_80:\n      dup3\n      add\n      swap2\n      swap1\n      0x00\n      mstore\n      keccak256(0x00, 0x20)\n      swap1\n    tag_81:\n      dup2\n      sload\n      dup2\n      mstore\n      swap1\n      0x01\n      add\n      swap1\n      0x20\n      add\n      dup1\n      dup4\n      gt\n      tag_81\n      jumpi\n      dup3\n      swap1\n      sub\n      0x1f\n      and\n      dup3\n      add\n      swap2\n    tag_79:\n      pop\n      pop\n      pop\n      pop\n      pop\n      swap1\n      pop\n        /* \"test1.sol\":811:1227  function getStu(uint _number) public view returns (string memory getStuName, uint256 getStuID, string memory getStuMajor, uint256 getStuGPA, string memory getStuCompany){\r... */\n      swap2\n      swap4\n      swap6\n      swap1\n      swap3\n      swap5\n      pop\n      jump\t// out\n        /* \"test1.sol\":1395:1637  function send(address receiver, uint amount) public {\r... */\n    tag_38:\n        /* \"test1.sol\":1485:1491  amount */\n      dup1\n        /* \"test1.sol\":1462:1470  balances */\n      0x01\n        /* \"test1.sol\":1462:1482  balances[msg.sender] */\n      0x00\n        /* \"test1.sol\":1471:1481  msg.sender */\n      caller\n        /* \"test1.sol\":1462:1482  balances[msg.sender] */\n      0xffffffffffffffffffffffffffffffffffffffff\n      and\n      0xffffffffffffffffffffffffffffffffffffffff\n      and\n      dup2\n      mstore\n      0x20\n      add\n      swap1\n      dup2\n      mstore\n      0x20\n      add\n      0x00\n      keccak256\n      sload\n        /* \"test1.sol\":1462:1491  balances[msg.sender] < amount */\n      lt\n        /* \"test1.sol\":1458:1500  if (balances[msg.sender] < amount) return; */\n      iszero\n      tag_83\n      jumpi\n        /* \"test1.sol\":1493:1500  return; */\n      jump(tag_82)\n        /* \"test1.sol\":1458:1500  if (balances[msg.sender] < amount) return; */\n    tag_83:\n        /* \"test1.sol\":1534:1540  amount */\n      dup1\n        /* \"test1.sol\":1510:1518  balances */\n      0x01\n        /* \"test1.sol\":1510:1530  balances[msg.sender] */\n      0x00\n        /* \"test1.sol\":1519:1529  msg.sender */\n      caller\n        /* \"test1.sol\":1510:1530  balances[msg.sender] */\n      0xffffffffffffffffffffffffffffffffffffffff\n      and\n      0xffffffffffffffffffffffffffffffffffffffff\n      and\n      dup2\n      mstore\n      0x20\n      add\n      swap1\n      dup2\n      mstore\n      0x20\n      add\n      0x00\n      keccak256\n      0x00\n        /* \"test1.sol\":1510:1540  balances[msg.sender] -= amount */\n      dup3\n      dup3\n      sload\n      tag_84\n      swap2\n      swap1\n      tag_85\n      jump\t// in\n    tag_84:\n      swap3\n      pop\n      pop\n      dup2\n      swap1\n      sstore\n      pop\n        /* \"test1.sol\":1573:1579  amount */\n      dup1\n        /* \"test1.sol\":1551:1559  balances */\n      0x01\n        /* \"test1.sol\":1551:1569  balances[receiver] */\n      0x00\n        /* \"test1.sol\":1560:1568  receiver */\n      dup5\n        /* \"test1.sol\":1551:1569  balances[receiver] */\n      0xffffffffffffffffffffffffffffffffffffffff\n      and\n      0xffffffffffffffffffffffffffffffffffffffff\n      and\n      dup2\n      mstore\n      0x20\n      add\n      swap1\n      dup2\n      mstore\n      0x20\n      add\n      0x00\n      keccak256\n      0x00\n        /* \"test1.sol\":1551:1579  balances[receiver] += amount */\n      dup3\n      dup3\n      sload\n      tag_86\n      swap2\n      swap1\n      tag_42\n      jump\t// in\n    tag_86:\n      swap3\n      pop\n      pop\n      dup2\n      swap1\n      sstore\n      pop\n        /* \"test1.sol\":1595:1629  Sent(msg.sender, receiver, amount) */\n      0x3990db2d31862302a685e8086b5755072a6e2b5b780af1ee81ece35ee3cd3345\n        /* \"test1.sol\":1600:1610  msg.sender */\n      caller\n        /* \"test1.sol\":1612:1620  receiver */\n      dup4\n        /* \"test1.sol\":1622:1628  amount */\n      dup4\n        /* \"test1.sol\":1595:1629  Sent(msg.sender, receiver, amount) */\n      mload(0x40)\n      tag_87\n      swap4\n      swap3\n      swap2\n      swap1\n      tag_88\n      jump\t// in\n    tag_87:\n      mload(0x40)\n      dup1\n      swap2\n      sub\n      swap1\n      log1\n        /* \"test1.sol\":1395:1637  function send(address receiver, uint amount) public {\r... */\n    tag_82:\n      pop\n      pop\n      jump\t// out\n    tag_46:\n      dup3\n      dup1\n      sload\n      tag_89\n      swap1\n      tag_55\n      jump\t// in\n    tag_89:\n      swap1\n      0x00\n      mstore\n      keccak256(0x00, 0x20)\n      swap1\n      0x1f\n      add\n      0x20\n      swap1\n      div\n      dup2\n      add\n      swap3\n      dup3\n      tag_91\n      jumpi\n      0x00\n      dup6\n      sstore\n      jump(tag_90)\n    tag_91:\n      dup3\n      0x1f\n      lt\n      tag_92\n      jumpi\n      dup1\n      mload\n      not(0xff)\n      and\n      dup4\n      dup1\n      add\n      or\n      dup6\n      sstore\n      jump(tag_90)\n    tag_92:\n      dup3\n      dup1\n      add\n      0x01\n      add\n      dup6\n      sstore\n      dup3\n      iszero\n      tag_90\n      jumpi\n      swap2\n      dup3\n      add\n    tag_93:\n      dup3\n      dup2\n      gt\n      iszero\n      tag_94\n      jumpi\n      dup3\n      mload\n      dup3\n      sstore\n      swap2\n      0x20\n      add\n      swap2\n      swap1\n      0x01\n      add\n      swap1\n      jump(tag_93)\n    tag_94:\n    tag_90:\n      pop\n      swap1\n      pop\n      tag_95\n      swap2\n      swap1\n      tag_96\n      jump\t// in\n    tag_95:\n      pop\n      swap1\n      jump\t// out\n    tag_96:\n    tag_97:\n      dup1\n      dup3\n      gt\n      iszero\n      tag_98\n      jumpi\n      0x00\n      dup2\n      0x00\n      swap1\n      sstore\n      pop\n      0x01\n      add\n      jump(tag_97)\n    tag_98:\n      pop\n      swap1\n      jump\t// out\n        /* \"#utility.yul\":7:419   */\n    tag_100:\n        /* \"#utility.yul\":85:90   */\n      0x00\n        /* \"#utility.yul\":110:176   */\n      tag_102\n        /* \"#utility.yul\":126:175   */\n      tag_103\n        /* \"#utility.yul\":168:174   */\n      dup5\n        /* \"#utility.yul\":126:175   */\n      tag_104\n      jump\t// in\n    tag_103:\n        /* \"#utility.yul\":110:176   */\n      tag_105\n      jump\t// in\n    tag_102:\n        /* \"#utility.yul\":101:176   */\n      swap1\n      pop\n        /* \"#utility.yul\":199:205   */\n      dup3\n        /* \"#utility.yul\":192:197   */\n      dup2\n        /* \"#utility.yul\":185:206   */\n      mstore\n        /* \"#utility.yul\":237:241   */\n      0x20\n        /* \"#utility.yul\":230:235   */\n      dup2\n        /* \"#utility.yul\":226:242   */\n      add\n        /* \"#utility.yul\":275:278   */\n      dup5\n        /* \"#utility.yul\":266:272   */\n      dup5\n        /* \"#utility.yul\":261:264   */\n      dup5\n        /* \"#utility.yul\":257:273   */\n      add\n        /* \"#utility.yul\":254:279   */\n      gt\n        /* \"#utility.yul\":251:363   */\n      iszero\n      tag_106\n      jumpi\n        /* \"#utility.yul\":282:361   */\n      tag_107\n      tag_108\n      jump\t// in\n    tag_107:\n        /* \"#utility.yul\":251:363   */\n    tag_106:\n        /* \"#utility.yul\":372:413   */\n      tag_109\n        /* \"#utility.yul\":406:412   */\n      dup5\n        /* \"#utility.yul\":401:404   */\n      dup3\n        /* \"#utility.yul\":396:399   */\n      dup6\n        /* \"#utility.yul\":372:413   */\n      tag_110\n      jump\t// in\n    tag_109:\n        /* \"#utility.yul\":91:419   */\n      pop\n        /* \"#utility.yul\":7:419   */\n      swap4\n      swap3\n      pop\n      pop\n      pop\n      jump\t// out\n        /* \"#utility.yul\":425:564   */\n    tag_111:\n        /* \"#utility.yul\":471:476   */\n      0x00\n        /* \"#utility.yul\":509:515   */\n      dup2\n        /* \"#utility.yul\":496:516   */\n      calldataload\n        /* \"#utility.yul\":487:516   */\n      swap1\n      pop\n        /* \"#utility.yul\":525:558   */\n      tag_113\n        /* \"#utility.yul\":552:557   */\n      dup2\n        /* \"#utility.yul\":525:558   */\n      tag_114\n      jump\t// in\n    tag_113:\n        /* \"#utility.yul\":425:564   */\n      swap3\n      swap2\n      pop\n      pop\n      jump\t// out\n        /* \"#utility.yul\":584:924   */\n    tag_115:\n        /* \"#utility.yul\":640:645   */\n      0x00\n        /* \"#utility.yul\":689:692   */\n      dup3\n        /* \"#utility.yul\":682:686   */\n      0x1f\n        /* \"#utility.yul\":674:680   */\n      dup4\n        /* \"#utility.yul\":670:687   */\n      add\n        /* \"#utility.yul\":666:693   */\n      slt\n        /* \"#utility.yul\":656:778   */\n      tag_117\n      jumpi\n        /* \"#utility.yul\":697:776   */\n      tag_118\n      tag_119\n      jump\t// in\n    tag_118:\n        /* \"#utility.yul\":656:778   */\n    tag_117:\n        /* \"#utility.yul\":814:820   */\n      dup2\n        /* \"#utility.yul\":801:821   */\n      calldataload\n        /* \"#utility.yul\":839:918   */\n      tag_120\n        /* \"#utility.yul\":914:917   */\n      dup5\n        /* \"#utility.yul\":906:912   */\n      dup3\n        /* \"#utility.yul\":899:903   */\n      0x20\n        /* \"#utility.yul\":891:897   */\n      dup7\n        /* \"#utility.yul\":887:904   */\n      add\n        /* \"#utility.yul\":839:918   */\n      tag_100\n      jump\t// in\n    tag_120:\n        /* \"#utility.yul\":830:918   */\n      swap2\n      pop\n        /* \"#utility.yul\":646:924   */\n      pop\n        /* \"#utility.yul\":584:924   */\n      swap3\n      swap2\n      pop\n      pop\n      jump\t// out\n        /* \"#utility.yul\":930:1069   */\n    tag_121:\n        /* \"#utility.yul\":976:981   */\n      0x00\n        /* \"#utility.yul\":1014:1020   */\n      dup2\n        /* \"#utility.yul\":1001:1021   */\n      calldataload\n        /* \"#utility.yul\":992:1021   */\n      swap1\n      pop\n        /* \"#utility.yul\":1030:1063   */\n      tag_123\n        /* \"#utility.yul\":1057:1062   */\n      dup2\n        /* \"#utility.yul\":1030:1063   */\n      tag_124\n      jump\t// in\n    tag_123:\n        /* \"#utility.yul\":930:1069   */\n      swap3\n      swap2\n      pop\n      pop\n      jump\t// out\n        /* \"#utility.yul\":1075:1404   */\n    tag_16:\n        /* \"#utility.yul\":1134:1140   */\n      0x00\n        /* \"#utility.yul\":1183:1185   */\n      0x20\n        /* \"#utility.yul\":1171:1180   */\n      dup3\n        /* \"#utility.yul\":1162:1169   */\n      dup5\n        /* \"#utility.yul\":1158:1181   */\n      sub\n        /* \"#utility.yul\":1154:1186   */\n      slt\n        /* \"#utility.yul\":1151:1270   */\n      iszero\n      tag_126\n      jumpi\n        /* \"#utility.yul\":1189:1268   */\n      tag_127\n      tag_128\n      jump\t// in\n    tag_127:\n        /* \"#utility.yul\":1151:1270   */\n    tag_126:\n        /* \"#utility.yul\":1309:1310   */\n      0x00\n        /* \"#utility.yul\":1334:1387   */\n      tag_129\n        /* \"#utility.yul\":1379:1386   */\n      dup5\n        /* \"#utility.yul\":1370:1376   */\n      dup3\n        /* \"#utility.yul\":1359:1368   */\n      dup6\n        /* \"#utility.yul\":1355:1377   */\n      add\n        /* \"#utility.yul\":1334:1387   */\n      tag_111\n      jump\t// in\n    tag_129:\n        /* \"#utility.yul\":1324:1387   */\n      swap2\n      pop\n        /* \"#utility.yul\":1280:1397   */\n      pop\n        /* \"#utility.yul\":1075:1404   */\n      swap3\n      swap2\n      pop\n      pop\n      jump\t// out\n        /* \"#utility.yul\":1410:1884   */\n    tag_22:\n        /* \"#utility.yul\":1478:1484   */\n      0x00\n        /* \"#utility.yul\":1486:1492   */\n      dup1\n        /* \"#utility.yul\":1535:1537   */\n      0x40\n        /* \"#utility.yul\":1523:1532   */\n      dup4\n        /* \"#utility.yul\":1514:1521   */\n      dup6\n        /* \"#utility.yul\":1510:1533   */\n      sub\n        /* \"#utility.yul\":1506:1538   */\n      slt\n        /* \"#utility.yul\":1503:1622   */\n      iszero\n      tag_131\n      jumpi\n        /* \"#utility.yul\":1541:1620   */\n      tag_132\n      tag_128\n      jump\t// in\n    tag_132:\n        /* \"#utility.yul\":1503:1622   */\n    tag_131:\n        /* \"#utility.yul\":1661:1662   */\n      0x00\n        /* \"#utility.yul\":1686:1739   */\n      tag_133\n        /* \"#utility.yul\":1731:1738   */\n      dup6\n        /* \"#utility.yul\":1722:1728   */\n      dup3\n        /* \"#utility.yul\":1711:1720   */\n      dup7\n        /* \"#utility.yul\":1707:1729   */\n      add\n        /* \"#utility.yul\":1686:1739   */\n      tag_111\n      jump\t// in\n    tag_133:\n        /* \"#utility.yul\":1676:1739   */\n      swap3\n      pop\n        /* \"#utility.yul\":1632:1749   */\n      pop\n        /* \"#utility.yul\":1788:1790   */\n      0x20\n        /* \"#utility.yul\":1814:1867   */\n      tag_134\n        /* \"#utility.yul\":1859:1866   */\n      dup6\n        /* \"#utility.yul\":1850:1856   */\n      dup3\n        /* \"#utility.yul\":1839:1848   */\n      dup7\n        /* \"#utility.yul\":1835:1857   */\n      add\n        /* \"#utility.yul\":1814:1867   */\n      tag_121\n      jump\t// in\n    tag_134:\n        /* \"#utility.yul\":1804:1867   */\n      swap2\n      pop\n        /* \"#utility.yul\":1759:1877   */\n      pop\n        /* \"#utility.yul\":1410:1884   */\n      swap3\n      pop\n      swap3\n      swap1\n      pop\n      jump\t// out\n        /* \"#utility.yul\":1890:3341   */\n    tag_26:\n        /* \"#utility.yul\":2015:2021   */\n      0x00\n        /* \"#utility.yul\":2023:2029   */\n      dup1\n        /* \"#utility.yul\":2031:2037   */\n      0x00\n        /* \"#utility.yul\":2039:2045   */\n      dup1\n        /* \"#utility.yul\":2047:2053   */\n      0x00\n        /* \"#utility.yul\":2096:2099   */\n      0xa0\n        /* \"#utility.yul\":2084:2093   */\n      dup7\n        /* \"#utility.yul\":2075:2082   */\n      dup9\n        /* \"#utility.yul\":2071:2094   */\n      sub\n        /* \"#utility.yul\":2067:2100   */\n      slt\n        /* \"#utility.yul\":2064:2184   */\n      iszero\n      tag_136\n      jumpi\n        /* \"#utility.yul\":2103:2182   */\n      tag_137\n      tag_128\n      jump\t// in\n    tag_137:\n        /* \"#utility.yul\":2064:2184   */\n    tag_136:\n        /* \"#utility.yul\":2251:2252   */\n      0x00\n        /* \"#utility.yul\":2240:2249   */\n      dup7\n        /* \"#utility.yul\":2236:2253   */\n      add\n        /* \"#utility.yul\":2223:2254   */\n      calldataload\n        /* \"#utility.yul\":2281:2299   */\n      0xffffffffffffffff\n        /* \"#utility.yul\":2273:2279   */\n      dup2\n        /* \"#utility.yul\":2270:2300   */\n      gt\n        /* \"#utility.yul\":2267:2384   */\n      iszero\n      tag_138\n      jumpi\n        /* \"#utility.yul\":2303:2382   */\n      tag_139\n      tag_140\n      jump\t// in\n    tag_139:\n        /* \"#utility.yul\":2267:2384   */\n    tag_138:\n        /* \"#utility.yul\":2408:2471   */\n      tag_141\n        /* \"#utility.yul\":2463:2470   */\n      dup9\n        /* \"#utility.yul\":2454:2460   */\n      dup3\n        /* \"#utility.yul\":2443:2452   */\n      dup10\n        /* \"#utility.yul\":2439:2461   */\n      add\n        /* \"#utility.yul\":2408:2471   */\n      tag_115\n      jump\t// in\n    tag_141:\n        /* \"#utility.yul\":2398:2471   */\n      swap6\n      pop\n        /* \"#utility.yul\":2194:2481   */\n      pop\n        /* \"#utility.yul\":2520:2522   */\n      0x20\n        /* \"#utility.yul\":2546:2599   */\n      tag_142\n        /* \"#utility.yul\":2591:2598   */\n      dup9\n        /* \"#utility.yul\":2582:2588   */\n      dup3\n        /* \"#utility.yul\":2571:2580   */\n      dup10\n        /* \"#utility.yul\":2567:2589   */\n      add\n        /* \"#utility.yul\":2546:2599   */\n      tag_121\n      jump\t// in\n    tag_142:\n        /* \"#utility.yul\":2536:2599   */\n      swap5\n      pop\n        /* \"#utility.yul\":2491:2609   */\n      pop\n        /* \"#utility.yul\":2676:2678   */\n      0x40\n        /* \"#utility.yul\":2665:2674   */\n      dup7\n        /* \"#utility.yul\":2661:2679   */\n      add\n        /* \"#utility.yul\":2648:2680   */\n      calldataload\n        /* \"#utility.yul\":2707:2725   */\n      0xffffffffffffffff\n        /* \"#utility.yul\":2699:2705   */\n      dup2\n        /* \"#utility.yul\":2696:2726   */\n      gt\n        /* \"#utility.yul\":2693:2810   */\n      iszero\n      tag_143\n      jumpi\n        /* \"#utility.yul\":2729:2808   */\n      tag_144\n      tag_140\n      jump\t// in\n    tag_144:\n        /* \"#utility.yul\":2693:2810   */\n    tag_143:\n        /* \"#utility.yul\":2834:2897   */\n      tag_145\n        /* \"#utility.yul\":2889:2896   */\n      dup9\n        /* \"#utility.yul\":2880:2886   */\n      dup3\n        /* \"#utility.yul\":2869:2878   */\n      dup10\n        /* \"#utility.yul\":2865:2887   */\n      add\n        /* \"#utility.yul\":2834:2897   */\n      tag_115\n      jump\t// in\n    tag_145:\n        /* \"#utility.yul\":2824:2897   */\n      swap4\n      pop\n        /* \"#utility.yul\":2619:2907   */\n      pop\n        /* \"#utility.yul\":2946:2948   */\n      0x60\n        /* \"#utility.yul\":2972:3025   */\n      tag_146\n        /* \"#utility.yul\":3017:3024   */\n      dup9\n        /* \"#utility.yul\":3008:3014   */\n      dup3\n        /* \"#utility.yul\":2997:3006   */\n      dup10\n        /* \"#utility.yul\":2993:3015   */\n      add\n        /* \"#utility.yul\":2972:3025   */\n      tag_121\n      jump\t// in\n    tag_146:\n        /* \"#utility.yul\":2962:3025   */\n      swap3\n      pop\n        /* \"#utility.yul\":2917:3035   */\n      pop\n        /* \"#utility.yul\":3102:3105   */\n      0x80\n        /* \"#utility.yul\":3091:3100   */\n      dup7\n        /* \"#utility.yul\":3087:3106   */\n      add\n        /* \"#utility.yul\":3074:3107   */\n      calldataload\n        /* \"#utility.yul\":3134:3152   */\n      0xffffffffffffffff\n        /* \"#utility.yul\":3126:3132   */\n      dup2\n        /* \"#utility.yul\":3123:3153   */\n      gt\n        /* \"#utility.yul\":3120:3237   */\n      iszero\n      tag_147\n      jumpi\n        /* \"#utility.yul\":3156:3235   */\n      tag_148\n      tag_140\n      jump\t// in\n    tag_148:\n        /* \"#utility.yul\":3120:3237   */\n    tag_147:\n        /* \"#utility.yul\":3261:3324   */\n      tag_149\n        /* \"#utility.yul\":3316:3323   */\n      dup9\n        /* \"#utility.yul\":3307:3313   */\n      dup3\n        /* \"#utility.yul\":3296:3305   */\n      dup10\n        /* \"#utility.yul\":3292:3314   */\n      add\n        /* \"#utility.yul\":3261:3324   */\n      tag_115\n      jump\t// in\n    tag_149:\n        /* \"#utility.yul\":3251:3324   */\n      swap2\n      pop\n        /* \"#utility.yul\":3045:3334   */\n      pop\n        /* \"#utility.yul\":1890:3341   */\n      swap3\n      swap6\n      pop\n      swap3\n      swap6\n      swap1\n      swap4\n      pop\n      jump\t// out\n        /* \"#utility.yul\":3347:3676   */\n    tag_31:\n        /* \"#utility.yul\":3406:3412   */\n      0x00\n        /* \"#utility.yul\":3455:3457   */\n      0x20\n        /* \"#utility.yul\":3443:3452   */\n      dup3\n        /* \"#utility.yul\":3434:3441   */\n      dup5\n        /* \"#utility.yul\":3430:3453   */\n      sub\n        /* \"#utility.yul\":3426:3458   */\n      slt\n        /* \"#utility.yul\":3423:3542   */\n      iszero\n      tag_151\n      jumpi\n        /* \"#utility.yul\":3461:3540   */\n      tag_152\n      tag_128\n      jump\t// in\n    tag_152:\n        /* \"#utility.yul\":3423:3542   */\n    tag_151:\n        /* \"#utility.yul\":3581:3582   */\n      0x00\n        /* \"#utility.yul\":3606:3659   */\n      tag_153\n        /* \"#utility.yul\":3651:3658   */\n      dup5\n        /* \"#utility.yul\":3642:3648   */\n      dup3\n        /* \"#utility.yul\":3631:3640   */\n      dup6\n        /* \"#utility.yul\":3627:3649   */\n      add\n        /* \"#utility.yul\":3606:3659   */\n      tag_121\n      jump\t// in\n    tag_153:\n        /* \"#utility.yul\":3596:3659   */\n      swap2\n      pop\n        /* \"#utility.yul\":3552:3669   */\n      pop\n        /* \"#utility.yul\":3347:3676   */\n      swap3\n      swap2\n      pop\n      pop\n      jump\t// out\n        /* \"#utility.yul\":3682:3800   */\n    tag_154:\n        /* \"#utility.yul\":3769:3793   */\n      tag_156\n        /* \"#utility.yul\":3787:3792   */\n      dup2\n        /* \"#utility.yul\":3769:3793   */\n      tag_157\n      jump\t// in\n    tag_156:\n        /* \"#utility.yul\":3764:3767   */\n      dup3\n        /* \"#utility.yul\":3757:3794   */\n      mstore\n        /* \"#utility.yul\":3682:3800   */\n      pop\n      pop\n      jump\t// out\n        /* \"#utility.yul\":3806:4170   */\n    tag_158:\n        /* \"#utility.yul\":3894:3897   */\n      0x00\n        /* \"#utility.yul\":3922:3961   */\n      tag_160\n        /* \"#utility.yul\":3955:3960   */\n      dup3\n        /* \"#utility.yul\":3922:3961   */\n      tag_161\n      jump\t// in\n    tag_160:\n        /* \"#utility.yul\":3977:4048   */\n      tag_162\n        /* \"#utility.yul\":4041:4047   */\n      dup2\n        /* \"#utility.yul\":4036:4039   */\n      dup6\n        /* \"#utility.yul\":3977:4048   */\n      tag_163\n      jump\t// in\n    tag_162:\n        /* \"#utility.yul\":3970:4048   */\n      swap4\n      pop\n        /* \"#utility.yul\":4057:4109   */\n      tag_164\n        /* \"#utility.yul\":4102:4108   */\n      dup2\n        /* \"#utility.yul\":4097:4100   */\n      dup6\n        /* \"#utility.yul\":4090:4094   */\n      0x20\n        /* \"#utility.yul\":4083:4088   */\n      dup7\n        /* \"#utility.yul\":4079:4095   */\n      add\n        /* \"#utility.yul\":4057:4109   */\n      tag_165\n      jump\t// in\n    tag_164:\n        /* \"#utility.yul\":4134:4163   */\n      tag_166\n        /* \"#utility.yul\":4156:4162   */\n      dup2\n        /* \"#utility.yul\":4134:4163   */\n      tag_167\n      jump\t// in\n    tag_166:\n        /* \"#utility.yul\":4129:4132   */\n      dup5\n        /* \"#utility.yul\":4125:4164   */\n      add\n        /* \"#utility.yul\":4118:4164   */\n      swap2\n      pop\n        /* \"#utility.yul\":3898:4170   */\n      pop\n        /* \"#utility.yul\":3806:4170   */\n      swap3\n      swap2\n      pop\n      pop\n      jump\t// out\n        /* \"#utility.yul\":4176:4294   */\n    tag_168:\n        /* \"#utility.yul\":4263:4287   */\n      tag_170\n        /* \"#utility.yul\":4281:4286   */\n      dup2\n        /* \"#utility.yul\":4263:4287   */\n      tag_171\n      jump\t// in\n    tag_170:\n        /* \"#utility.yul\":4258:4261   */\n      dup3\n        /* \"#utility.yul\":4251:4288   */\n      mstore\n        /* \"#utility.yul\":4176:4294   */\n      pop\n      pop\n      jump\t// out\n        /* \"#utility.yul\":4300:4522   */\n    tag_12:\n        /* \"#utility.yul\":4393:4397   */\n      0x00\n        /* \"#utility.yul\":4431:4433   */\n      0x20\n        /* \"#utility.yul\":4420:4429   */\n      dup3\n        /* \"#utility.yul\":4416:4434   */\n      add\n        /* \"#utility.yul\":4408:4434   */\n      swap1\n      pop\n        /* \"#utility.yul\":4444:4515   */\n      tag_173\n        /* \"#utility.yul\":4512:4513   */\n      0x00\n        /* \"#utility.yul\":4501:4510   */\n      dup4\n        /* \"#utility.yul\":4497:4514   */\n      add\n        /* \"#utility.yul\":4488:4494   */\n      dup5\n        /* \"#utility.yul\":4444:4515   */\n      tag_154\n      jump\t// in\n    tag_173:\n        /* \"#utility.yul\":4300:4522   */\n      swap3\n      swap2\n      pop\n      pop\n      jump\t// out\n        /* \"#utility.yul\":4528:4970   */\n    tag_88:\n        /* \"#utility.yul\":4677:4681   */\n      0x00\n        /* \"#utility.yul\":4715:4717   */\n      0x60\n        /* \"#utility.yul\":4704:4713   */\n      dup3\n        /* \"#utility.yul\":4700:4718   */\n      add\n        /* \"#utility.yul\":4692:4718   */\n      swap1\n      pop\n        /* \"#utility.yul\":4728:4799   */\n      tag_175\n        /* \"#utility.yul\":4796:4797   */\n      0x00\n        /* \"#utility.yul\":4785:4794   */\n      dup4\n        /* \"#utility.yul\":4781:4798   */\n      add\n        /* \"#utility.yul\":4772:4778   */\n      dup7\n        /* \"#utility.yul\":4728:4799   */\n      tag_154\n      jump\t// in\n    tag_175:\n        /* \"#utility.yul\":4809:4881   */\n      tag_176\n        /* \"#utility.yul\":4877:4879   */\n      0x20\n        /* \"#utility.yul\":4866:4875   */\n      dup4\n        /* \"#utility.yul\":4862:4880   */\n      add\n        /* \"#utility.yul\":4853:4859   */\n      dup6\n        /* \"#utility.yul\":4809:4881   */\n      tag_154\n      jump\t// in\n    tag_176:\n        /* \"#utility.yul\":4891:4963   */\n      tag_177\n        /* \"#utility.yul\":4959:4961   */\n      0x40\n        /* \"#utility.yul\":4948:4957   */\n      dup4\n        /* \"#utility.yul\":4944:4962   */\n      add\n        /* \"#utility.yul\":4935:4941   */\n      dup5\n        /* \"#utility.yul\":4891:4963   */\n      tag_168\n      jump\t// in\n    tag_177:\n        /* \"#utility.yul\":4528:4970   */\n      swap5\n      swap4\n      pop\n      pop\n      pop\n      pop\n      jump\t// out\n        /* \"#utility.yul\":4976:5913   */\n    tag_34:\n        /* \"#utility.yul\":5241:5245   */\n      0x00\n        /* \"#utility.yul\":5279:5282   */\n      0xa0\n        /* \"#utility.yul\":5268:5277   */\n      dup3\n        /* \"#utility.yul\":5264:5283   */\n      add\n        /* \"#utility.yul\":5256:5283   */\n      swap1\n      pop\n        /* \"#utility.yul\":5329:5338   */\n      dup2\n        /* \"#utility.yul\":5323:5327   */\n      dup2\n        /* \"#utility.yul\":5319:5339   */\n      sub\n        /* \"#utility.yul\":5315:5316   */\n      0x00\n        /* \"#utility.yul\":5304:5313   */\n      dup4\n        /* \"#utility.yul\":5300:5317   */\n      add\n        /* \"#utility.yul\":5293:5340   */\n      mstore\n        /* \"#utility.yul\":5357:5435   */\n      tag_179\n        /* \"#utility.yul\":5430:5434   */\n      dup2\n        /* \"#utility.yul\":5421:5427   */\n      dup9\n        /* \"#utility.yul\":5357:5435   */\n      tag_158\n      jump\t// in\n    tag_179:\n        /* \"#utility.yul\":5349:5435   */\n      swap1\n      pop\n        /* \"#utility.yul\":5445:5517   */\n      tag_180\n        /* \"#utility.yul\":5513:5515   */\n      0x20\n        /* \"#utility.yul\":5502:5511   */\n      dup4\n        /* \"#utility.yul\":5498:5516   */\n      add\n        /* \"#utility.yul\":5489:5495   */\n      dup8\n        /* \"#utility.yul\":5445:5517   */\n      tag_168\n      jump\t// in\n    tag_180:\n        /* \"#utility.yul\":5564:5573   */\n      dup2\n        /* \"#utility.yul\":5558:5562   */\n      dup2\n        /* \"#utility.yul\":5554:5574   */\n      sub\n        /* \"#utility.yul\":5549:5551   */\n      0x40\n        /* \"#utility.yul\":5538:5547   */\n      dup4\n        /* \"#utility.yul\":5534:5552   */\n      add\n        /* \"#utility.yul\":5527:5575   */\n      mstore\n        /* \"#utility.yul\":5592:5670   */\n      tag_181\n        /* \"#utility.yul\":5665:5669   */\n      dup2\n        /* \"#utility.yul\":5656:5662   */\n      dup7\n        /* \"#utility.yul\":5592:5670   */\n      tag_158\n      jump\t// in\n    tag_181:\n        /* \"#utility.yul\":5584:5670   */\n      swap1\n      pop\n        /* \"#utility.yul\":5680:5752   */\n      tag_182\n        /* \"#utility.yul\":5748:5750   */\n      0x60\n        /* \"#utility.yul\":5737:5746   */\n      dup4\n        /* \"#utility.yul\":5733:5751   */\n      add\n        /* \"#utility.yul\":5724:5730   */\n      dup6\n        /* \"#utility.yul\":5680:5752   */\n      tag_168\n      jump\t// in\n    tag_182:\n        /* \"#utility.yul\":5800:5809   */\n      dup2\n        /* \"#utility.yul\":5794:5798   */\n      dup2\n        /* \"#utility.yul\":5790:5810   */\n      sub\n        /* \"#utility.yul\":5784:5787   */\n      0x80\n        /* \"#utility.yul\":5773:5782   */\n      dup4\n        /* \"#utility.yul\":5769:5788   */\n      add\n        /* \"#utility.yul\":5762:5811   */\n      mstore\n        /* \"#utility.yul\":5828:5906   */\n      tag_183\n        /* \"#utility.yul\":5901:5905   */\n      dup2\n        /* \"#utility.yul\":5892:5898   */\n      dup5\n        /* \"#utility.yul\":5828:5906   */\n      tag_158\n      jump\t// in\n    tag_183:\n        /* \"#utility.yul\":5820:5906   */\n      swap1\n      pop\n        /* \"#utility.yul\":4976:5913   */\n      swap7\n      swap6\n      pop\n      pop\n      pop\n      pop\n      pop\n      pop\n      jump\t// out\n        /* \"#utility.yul\":5919:6141   */\n    tag_19:\n        /* \"#utility.yul\":6012:6016   */\n      0x00\n        /* \"#utility.yul\":6050:6052   */\n      0x20\n        /* \"#utility.yul\":6039:6048   */\n      dup3\n        /* \"#utility.yul\":6035:6053   */\n      add\n        /* \"#utility.yul\":6027:6053   */\n      swap1\n      pop\n        /* \"#utility.yul\":6063:6134   */\n      tag_185\n        /* \"#utility.yul\":6131:6132   */\n      0x00\n        /* \"#utility.yul\":6120:6129   */\n      dup4\n        /* \"#utility.yul\":6116:6133   */\n      add\n        /* \"#utility.yul\":6107:6113   */\n      dup5\n        /* \"#utility.yul\":6063:6134   */\n      tag_168\n      jump\t// in\n    tag_185:\n        /* \"#utility.yul\":5919:6141   */\n      swap3\n      swap2\n      pop\n      pop\n      jump\t// out\n        /* \"#utility.yul\":6147:6276   */\n    tag_105:\n        /* \"#utility.yul\":6181:6187   */\n      0x00\n        /* \"#utility.yul\":6208:6228   */\n      tag_187\n      tag_188\n      jump\t// in\n    tag_187:\n        /* \"#utility.yul\":6198:6228   */\n      swap1\n      pop\n        /* \"#utility.yul\":6237:6270   */\n      tag_189\n        /* \"#utility.yul\":6265:6269   */\n      dup3\n        /* \"#utility.yul\":6257:6263   */\n      dup3\n        /* \"#utility.yul\":6237:6270   */\n      tag_190\n      jump\t// in\n    tag_189:\n        /* \"#utility.yul\":6147:6276   */\n      swap2\n      swap1\n      pop\n      jump\t// out\n        /* \"#utility.yul\":6282:6357   */\n    tag_188:\n        /* \"#utility.yul\":6315:6321   */\n      0x00\n        /* \"#utility.yul\":6348:6350   */\n      0x40\n        /* \"#utility.yul\":6342:6351   */\n      mload\n        /* \"#utility.yul\":6332:6351   */\n      swap1\n      pop\n        /* \"#utility.yul\":6282:6357   */\n      swap1\n      jump\t// out\n        /* \"#utility.yul\":6363:6671   */\n    tag_104:\n        /* \"#utility.yul\":6425:6429   */\n      0x00\n        /* \"#utility.yul\":6515:6533   */\n      0xffffffffffffffff\n        /* \"#utility.yul\":6507:6513   */\n      dup3\n        /* \"#utility.yul\":6504:6534   */\n      gt\n        /* \"#utility.yul\":6501:6557   */\n      iszero\n      tag_193\n      jumpi\n        /* \"#utility.yul\":6537:6555   */\n      tag_194\n      tag_195\n      jump\t// in\n    tag_194:\n        /* \"#utility.yul\":6501:6557   */\n    tag_193:\n        /* \"#utility.yul\":6575:6604   */\n      tag_196\n        /* \"#utility.yul\":6597:6603   */\n      dup3\n        /* \"#utility.yul\":6575:6604   */\n      tag_167\n      jump\t// in\n    tag_196:\n        /* \"#utility.yul\":6567:6604   */\n      swap1\n      pop\n        /* \"#utility.yul\":6659:6663   */\n      0x20\n        /* \"#utility.yul\":6653:6657   */\n      dup2\n        /* \"#utility.yul\":6649:6664   */\n      add\n        /* \"#utility.yul\":6641:6664   */\n      swap1\n      pop\n        /* \"#utility.yul\":6363:6671   */\n      swap2\n      swap1\n      pop\n      jump\t// out\n        /* \"#utility.yul\":6677:6776   */\n    tag_161:\n        /* \"#utility.yul\":6729:6735   */\n      0x00\n        /* \"#utility.yul\":6763:6768   */\n      dup2\n        /* \"#utility.yul\":6757:6769   */\n      mload\n        /* \"#utility.yul\":6747:6769   */\n      swap1\n      pop\n        /* \"#utility.yul\":6677:6776   */\n      swap2\n      swap1\n      pop\n      jump\t// out\n        /* \"#utility.yul\":6782:6951   */\n    tag_163:\n        /* \"#utility.yul\":6866:6877   */\n      0x00\n        /* \"#utility.yul\":6900:6906   */\n      dup3\n        /* \"#utility.yul\":6895:6898   */\n      dup3\n        /* \"#utility.yul\":6888:6907   */\n      mstore\n        /* \"#utility.yul\":6940:6944   */\n      0x20\n        /* \"#utility.yul\":6935:6938   */\n      dup3\n        /* \"#utility.yul\":6931:6945   */\n      add\n        /* \"#utility.yul\":6916:6945   */\n      swap1\n      pop\n        /* \"#utility.yul\":6782:6951   */\n      swap3\n      swap2\n      pop\n      pop\n      jump\t// out\n        /* \"#utility.yul\":6957:7262   */\n    tag_42:\n        /* \"#utility.yul\":6997:7000   */\n      0x00\n        /* \"#utility.yul\":7016:7036   */\n      tag_200\n        /* \"#utility.yul\":7034:7035   */\n      dup3\n        /* \"#utility.yul\":7016:7036   */\n      tag_171\n      jump\t// in\n    tag_200:\n        /* \"#utility.yul\":7011:7036   */\n      swap2\n      pop\n        /* \"#utility.yul\":7050:7070   */\n      tag_201\n        /* \"#utility.yul\":7068:7069   */\n      dup4\n        /* \"#utility.yul\":7050:7070   */\n      tag_171\n      jump\t// in\n    tag_201:\n        /* \"#utility.yul\":7045:7070   */\n      swap3\n      pop\n        /* \"#utility.yul\":7204:7205   */\n      dup3\n        /* \"#utility.yul\":7136:7202   */\n      0xffffffffffffffffffffffffffffffffffffffffffffffffffffffffffffffff\n        /* \"#utility.yul\":7132:7206   */\n      sub\n        /* \"#utility.yul\":7129:7130   */\n      dup3\n        /* \"#utility.yul\":7126:7207   */\n      gt\n        /* \"#utility.yul\":7123:7230   */\n      iszero\n      tag_202\n      jumpi\n        /* \"#utility.yul\":7210:7228   */\n      tag_203\n      tag_204\n      jump\t// in\n    tag_203:\n        /* \"#utility.yul\":7123:7230   */\n    tag_202:\n        /* \"#utility.yul\":7254:7255   */\n      dup3\n        /* \"#utility.yul\":7251:7252   */\n      dup3\n        /* \"#utility.yul\":7247:7256   */\n      add\n        /* \"#utility.yul\":7240:7256   */\n      swap1\n      pop\n        /* \"#utility.yul\":6957:7262   */\n      swap3\n      swap2\n      pop\n      pop\n      jump\t// out\n        /* \"#utility.yul\":7268:7459   */\n    tag_85:\n        /* \"#utility.yul\":7308:7312   */\n      0x00\n        /* \"#utility.yul\":7328:7348   */\n      tag_206\n        /* \"#utility.yul\":7346:7347   */\n      dup3\n        /* \"#utility.yul\":7328:7348   */\n      tag_171\n      jump\t// in\n    tag_206:\n        /* \"#utility.yul\":7323:7348   */\n      swap2\n      pop\n        /* \"#utility.yul\":7362:7382   */\n      tag_207\n        /* \"#utility.yul\":7380:7381   */\n      dup4\n        /* \"#utility.yul\":7362:7382   */\n      tag_171\n      jump\t// in\n    tag_207:\n        /* \"#utility.yul\":7357:7382   */\n      swap3\n      pop\n        /* \"#utility.yul\":7401:7402   */\n      dup3\n        /* \"#utility.yul\":7398:7399   */\n      dup3\n        /* \"#utility.yul\":7395:7403   */\n      lt\n        /* \"#utility.yul\":7392:7426   */\n      iszero\n      tag_208\n      jumpi\n        /* \"#utility.yul\":7406:7424   */\n      tag_209\n      tag_204\n      jump\t// in\n    tag_209:\n        /* \"#utility.yul\":7392:7426   */\n    tag_208:\n        /* \"#utility.yul\":7451:7452   */\n      dup3\n        /* \"#utility.yul\":7448:7449   */\n      dup3\n        /* \"#utility.yul\":7444:7453   */\n      sub\n        /* \"#utility.yul\":7436:7453   */\n      swap1\n      pop\n        /* \"#utility.yul\":7268:7459   */\n      swap3\n      swap2\n      pop\n      pop\n      jump\t// out\n        /* \"#utility.yul\":7465:7561   */\n    tag_157:\n        /* \"#utility.yul\":7502:7509   */\n      0x00\n        /* \"#utility.yul\":7531:7555   */\n      tag_211\n        /* \"#utility.yul\":7549:7554   */\n      dup3\n        /* \"#utility.yul\":7531:7555   */\n      tag_212\n      jump\t// in\n    tag_211:\n        /* \"#utility.yul\":7520:7555   */\n      swap1\n      pop\n        /* \"#utility.yul\":7465:7561   */\n      swap2\n      swap1\n      pop\n      jump\t// out\n        /* \"#utility.yul\":7567:7693   */\n    tag_212:\n        /* \"#utility.yul\":7604:7611   */\n      0x00\n        /* \"#utility.yul\":7644:7686   */\n      0xffffffffffffffffffffffffffffffffffffffff\n        /* \"#utility.yul\":7637:7642   */\n      dup3\n        /* \"#utility.yul\":7633:7687   */\n      and\n        /* \"#utility.yul\":7622:7687   */\n      swap1\n      pop\n        /* \"#utility.yul\":7567:7693   */\n      swap2\n      swap1\n      pop\n      jump\t// out\n        /* \"#utility.yul\":7699:7776   */\n    tag_171:\n        /* \"#utility.yul\":7736:7743   */\n      0x00\n        /* \"#utility.yul\":7765:7770   */\n      dup2\n        /* \"#utility.yul\":7754:7770   */\n      swap1\n      pop\n        /* \"#utility.yul\":7699:7776   */\n      swap2\n      swap1\n      pop\n      jump\t// out\n        /* \"#utility.yul\":7782:7936   */\n    tag_110:\n        /* \"#utility.yul\":7866:7872   */\n      dup3\n        /* \"#utility.yul\":7861:7864   */\n      dup2\n        /* \"#utility.yul\":7856:7859   */\n      dup4\n        /* \"#utility.yul\":7843:7873   */\n      calldatacopy\n        /* \"#utility.yul\":7928:7929   */\n      0x00\n        /* \"#utility.yul\":7919:7925   */\n      dup4\n        /* \"#utility.yul\":7914:7917   */\n      dup4\n        /* \"#utility.yul\":7910:7926   */\n      add\n        /* \"#utility.yul\":7903:7930   */\n      mstore\n        /* \"#utility.yul\":7782:7936   */\n      pop\n      pop\n      pop\n      jump\t// out\n        /* \"#utility.yul\":7942:8249   */\n    tag_165:\n        /* \"#utility.yul\":8010:8011   */\n      0x00\n        /* \"#utility.yul\":8020:8133   */\n    tag_217:\n        /* \"#utility.yul\":8034:8040   */\n      dup4\n        /* \"#utility.yul\":8031:8032   */\n      dup2\n        /* \"#utility.yul\":8028:8041   */\n      lt\n        /* \"#utility.yul\":8020:8133   */\n      iszero\n      tag_219\n      jumpi\n        /* \"#utility.yul\":8119:8120   */\n      dup1\n        /* \"#utility.yul\":8114:8117   */\n      dup3\n        /* \"#utility.yul\":8110:8121   */\n      add\n        /* \"#utility.yul\":8104:8122   */\n      mload\n        /* \"#utility.yul\":8100:8101   */\n      dup2\n        /* \"#utility.yul\":8095:8098   */\n      dup5\n        /* \"#utility.yul\":8091:8102   */\n      add\n        /* \"#utility.yul\":8084:8123   */\n      mstore\n        /* \"#utility.yul\":8056:8058   */\n      0x20\n        /* \"#utility.yul\":8053:8054   */\n      dup2\n        /* \"#utility.yul\":8049:8059   */\n      add\n        /* \"#utility.yul\":8044:8059   */\n      swap1\n      pop\n        /* \"#utility.yul\":8020:8133   */\n      jump(tag_217)\n    tag_219:\n        /* \"#utility.yul\":8151:8157   */\n      dup4\n        /* \"#utility.yul\":8148:8149   */\n      dup2\n        /* \"#utility.yul\":8145:8158   */\n      gt\n        /* \"#utility.yul\":8142:8243   */\n      iszero\n      tag_220\n      jumpi\n        /* \"#utility.yul\":8231:8232   */\n      0x00\n        /* \"#utility.yul\":8222:8228   */\n      dup5\n        /* \"#utility.yul\":8217:8220   */\n      dup5\n        /* \"#utility.yul\":8213:8229   */\n      add\n        /* \"#utility.yul\":8206:8233   */\n      mstore\n        /* \"#utility.yul\":8142:8243   */\n    tag_220:\n        /* \"#utility.yul\":7991:8249   */\n      pop\n        /* \"#utility.yul\":7942:8249   */\n      pop\n      pop\n      pop\n      jump\t// out\n        /* \"#utility.yul\":8255:8575   */\n    tag_55:\n        /* \"#utility.yul\":8299:8305   */\n      0x00\n        /* \"#utility.yul\":8336:8337   */\n      0x02\n        /* \"#utility.yul\":8330:8334   */\n      dup3\n        /* \"#utility.yul\":8326:8338   */\n      div\n        /* \"#utility.yul\":8316:8338   */\n      swap1\n      pop\n        /* \"#utility.yul\":8383:8384   */\n      0x01\n        /* \"#utility.yul\":8377:8381   */\n      dup3\n        /* \"#utility.yul\":8373:8385   */\n      and\n        /* \"#utility.yul\":8404:8422   */\n      dup1\n        /* \"#utility.yul\":8394:8475   */\n      tag_222\n      jumpi\n        /* \"#utility.yul\":8460:8464   */\n      0x7f\n        /* \"#utility.yul\":8452:8458   */\n      dup3\n        /* \"#utility.yul\":8448:8465   */\n      and\n        /* \"#utility.yul\":8438:8465   */\n      swap2\n      pop\n        /* \"#utility.yul\":8394:8475   */\n    tag_222:\n        /* \"#utility.yul\":8522:8524   */\n      0x20\n        /* \"#utility.yul\":8514:8520   */\n      dup3\n        /* \"#utility.yul\":8511:8525   */\n      lt\n        /* \"#utility.yul\":8491:8509   */\n      dup2\n        /* \"#utility.yul\":8488:8526   */\n      eq\n        /* \"#utility.yul\":8485:8569   */\n      iszero\n      tag_223\n      jumpi\n        /* \"#utility.yul\":8541:8559   */\n      tag_224\n      tag_225\n      jump\t// in\n    tag_224:\n        /* \"#utility.yul\":8485:8569   */\n    tag_223:\n        /* \"#utility.yul\":8306:8575   */\n      pop\n        /* \"#utility.yul\":8255:8575   */\n      swap2\n      swap1\n      pop\n      jump\t// out\n        /* \"#utility.yul\":8581:8862   */\n    tag_190:\n        /* \"#utility.yul\":8664:8691   */\n      tag_227\n        /* \"#utility.yul\":8686:8690   */\n      dup3\n        /* \"#utility.yul\":8664:8691   */\n      tag_167\n      jump\t// in\n    tag_227:\n        /* \"#utility.yul\":8656:8662   */\n      dup2\n        /* \"#utility.yul\":8652:8692   */\n      add\n        /* \"#utility.yul\":8794:8800   */\n      dup2\n        /* \"#utility.yul\":8782:8792   */\n      dup2\n        /* \"#utility.yul\":8779:8801   */\n      lt\n        /* \"#utility.yul\":8758:8776   */\n      0xffffffffffffffff\n        /* \"#utility.yul\":8746:8756   */\n      dup3\n        /* \"#utility.yul\":8743:8777   */\n      gt\n        /* \"#utility.yul\":8740:8802   */\n      or\n        /* \"#utility.yul\":8737:8825   */\n      iszero\n      tag_228\n      jumpi\n        /* \"#utility.yul\":8805:8823   */\n      tag_229\n      tag_195\n      jump\t// in\n    tag_229:\n        /* \"#utility.yul\":8737:8825   */\n    tag_228:\n        /* \"#utility.yul\":8845:8855   */\n      dup1\n        /* \"#utility.yul\":8841:8843   */\n      0x40\n        /* \"#utility.yul\":8834:8856   */\n      mstore\n        /* \"#utility.yul\":8624:8862   */\n      pop\n        /* \"#utility.yul\":8581:8862   */\n      pop\n      pop\n      jump\t// out\n        /* \"#utility.yul\":8868:9048   */\n    tag_204:\n        /* \"#utility.yul\":8916:8993   */\n      0x4e487b7100000000000000000000000000000000000000000000000000000000\n        /* \"#utility.yul\":8913:8914   */\n      0x00\n        /* \"#utility.yul\":8906:8994   */\n      mstore\n        /* \"#utility.yul\":9013:9017   */\n      0x11\n        /* \"#utility.yul\":9010:9011   */\n      0x04\n        /* \"#utility.yul\":9003:9018   */\n      mstore\n        /* \"#utility.yul\":9037:9041   */\n      0x24\n        /* \"#utility.yul\":9034:9035   */\n      0x00\n        /* \"#utility.yul\":9027:9042   */\n      revert\n        /* \"#utility.yul\":9054:9234   */\n    tag_225:\n        /* \"#utility.yul\":9102:9179   */\n      0x4e487b7100000000000000000000000000000000000000000000000000000000\n        /* \"#utility.yul\":9099:9100   */\n      0x00\n        /* \"#utility.yul\":9092:9180   */\n      mstore\n        /* \"#utility.yul\":9199:9203   */\n      0x22\n        /* \"#utility.yul\":9196:9197   */\n      0x04\n        /* \"#utility.yul\":9189:9204   */\n      mstore\n        /* \"#utility.yul\":9223:9227   */\n      0x24\n        /* \"#utility.yul\":9220:9221   */\n      0x00\n        /* \"#utility.yul\":9213:9228   */\n      revert\n        /* \"#utility.yul\":9240:9420   */\n    tag_52:\n        /* \"#utility.yul\":9288:9365   */\n      0x4e487b7100000000000000000000000000000000000000000000000000000000\n        /* \"#utility.yul\":9285:9286   */\n      0x00\n        /* \"#utility.yul\":9278:9366   */\n      mstore\n        /* \"#utility.yul\":9385:9389   */\n      0x32\n        /* \"#utility.yul\":9382:9383   */\n      0x04\n        /* \"#utility.yul\":9375:9390   */\n      mstore\n        /* \"#utility.yul\":9409:9413   */\n      0x24\n        /* \"#utility.yul\":9406:9407   */\n      0x00\n        /* \"#utility.yul\":9399:9414   */\n      revert\n        /* \"#utility.yul\":9426:9606   */\n    tag_195:\n        /* \"#utility.yul\":9474:9551   */\n      0x4e487b7100000000000000000000000000000000000000000000000000000000\n        /* \"#utility.yul\":9471:9472   */\n      0x00\n        /* \"#utility.yul\":9464:9552   */\n      mstore\n        /* \"#utility.yul\":9571:9575   */\n      0x41\n        /* \"#utility.yul\":9568:9569   */\n      0x04\n        /* \"#utility.yul\":9561:9576   */\n      mstore\n        /* \"#utility.yul\":9595:9599   */\n      0x24\n        /* \"#utility.yul\":9592:9593   */\n      0x00\n        /* \"#utility.yul\":9585:9600   */\n      revert\n        /* \"#utility.yul\":9612:9729   */\n    tag_119:\n        /* \"#utility.yul\":9721:9722   */\n      0x00\n        /* \"#utility.yul\":9718:9719   */\n      dup1\n        /* \"#utility.yul\":9711:9723   */\n      revert\n        /* \"#utility.yul\":9735:9852   */\n    tag_108:\n        /* \"#utility.yul\":9844:9845   */\n      0x00\n        /* \"#utility.yul\":9841:9842   */\n      dup1\n        /* \"#utility.yul\":9834:9846   */\n      revert\n        /* \"#utility.yul\":9858:9975   */\n    tag_140:\n        /* \"#utility.yul\":9967:9968   */\n      0x00\n        /* \"#utility.yul\":9964:9965   */\n      dup1\n        /* \"#utility.yul\":9957:9969   */\n      revert\n        /* \"#utility.yul\":9981:10098   */\n    tag_128:\n        /* \"#utility.yul\":10090:10091   */\n      0x00\n        /* \"#utility.yul\":10087:10088   */\n      dup1\n        /* \"#utility.yul\":10080:10092   */\n      revert\n        /* \"#utility.yul\":10104:10206   */\n    tag_167:\n        /* \"#utility.yul\":10145:10151   */\n      0x00\n        /* \"#utility.yul\":10196:10198   */\n      0x1f\n        /* \"#utility.yul\":10192:10199   */\n      not\n        /* \"#utility.yul\":10187:10189   */\n      0x1f\n        /* \"#utility.yul\":10180:10185   */\n      dup4\n        /* \"#utility.yul\":10176:10190   */\n      add\n        /* \"#utility.yul\":10172:10200   */\n      and\n        /* \"#utility.yul\":10162:10200   */\n      swap1\n      pop\n        /* \"#utility.yul\":10104:10206   */\n      swap2\n      swap1\n      pop\n      jump\t// out\n        /* \"#utility.yul\":10212:10334   */\n    tag_114:\n        /* \"#utility.yul\":10285:10309   */\n      tag_240\n        /* \"#utility.yul\":10303:10308   */\n      dup2\n        /* \"#utility.yul\":10285:10309   */\n      tag_157\n      jump\t// in\n    tag_240:\n        /* \"#utility.yul\":10278:10283   */\n      dup2\n        /* \"#utility.yul\":10275:10310   */\n      eq\n        /* \"#utility.yul\":10265:10328   */\n      tag_241\n      jumpi\n        /* \"#utility.yul\":10324:10325   */\n      0x00\n        /* \"#utility.yul\":10321:10322   */\n      dup1\n        /* \"#utility.yul\":10314:10326   */\n      revert\n        /* \"#utility.yul\":10265:10328   */\n    tag_241:\n        /* \"#utility.yul\":10212:10334   */\n      pop\n      jump\t// out\n        /* \"#utility.yul\":10340:10462   */\n    tag_124:\n        /* \"#utility.yul\":10413:10437   */\n      tag_243\n        /* \"#utility.yul\":10431:10436   */\n      dup2\n        /* \"#utility.yul\":10413:10437   */\n      tag_171\n      jump\t// in\n    tag_243:\n        /* \"#utility.yul\":10406:10411   */\n      dup2\n        /* \"#utility.yul\":10403:10438   */\n      eq\n        /* \"#utility.yul\":10393:10456   */\n      tag_244\n      jumpi\n        /* \"#utility.yul\":10452:10453   */\n      0x00\n        /* \"#utility.yul\":10449:10450   */\n      dup1\n        /* \"#utility.yul\":10442:10454   */\n      revert\n        /* \"#utility.yul\":10393:10456   */\n    tag_244:\n        /* \"#utility.yul\":10340:10462   */\n      pop\n      jump\t// out\n\n    auxdata: 0xa2646970667358221220984b5a06e04f444c8ef00f54d142c3dc13f1cd2865dcc6d06272c5b8fbd3acf264736f6c63430008070033\n}\n",
				"bytecode": {
					"linkReferences": {},
					"object": "608060405234801561001057600080fd5b50336000806101000a81548173ffffffffffffffffffffffffffffffffffffffff021916908373ffffffffffffffffffffffffffffffffffffffff160217905550610e3b806100606000396000f3fe6080604052600436106100555760003560e01c8063075461721461005a57806327e235e31461008557806340c10f19146100c2578063435c28e5146100de57806382e3472d146100fa578063d0679d341461013b575b600080fd5b34801561006657600080fd5b5061006f610164565b60405161007c9190610a44565b60405180910390f35b34801561009157600080fd5b506100ac60048036038101906100a79190610884565b610188565b6040516100b99190610afe565b60405180910390f35b6100dc60048036038101906100d791906108b1565b6101a0565b005b6100f860048036038101906100f391906108f1565b610253565b005b34801561010657600080fd5b50610121600480360381019061011c91906109c0565b61039c565b604051610132959493929190610a96565b60405180910390f35b34801561014757600080fd5b50610162600480360381019061015d91906108b1565b61060f565b005b60008054906101000a900473ffffffffffffffffffffffffffffffffffffffff1681565b60016020528060005260406000206000915090505481565b60008054906101000a900473ffffffffffffffffffffffffffffffffffffffff1673ffffffffffffffffffffffffffffffffffffffff163373ffffffffffffffffffffffffffffffffffffffff16146101f85761024f565b80600160008473ffffffffffffffffffffffffffffffffffffffff1673ffffffffffffffffffffffffffffffffffffffff16815260200190815260200160002060008282546102479190610b8b565b925050819055505b5050565b60026040518060c0016040528087815260200186815260200185815260200184815260200183815260200160008054906101000a900473ffffffffffffffffffffffffffffffffffffffff1673ffffffffffffffffffffffffffffffffffffffff16815250908060018154018082558091505060019003906000526020600020906006020160009091909190915060008201518160000190805190602001906102fd929190610747565b50602082015181600101556040820151816002019080519060200190610324929190610747565b5060608201518160030155608082015181600401908051906020019061034b929190610747565b5060a08201518160050160006101000a81548173ffffffffffffffffffffffffffffffffffffffff021916908373ffffffffffffffffffffffffffffffffffffffff16021790555050505050505050565b60606000606060006060600286815481106103ba576103b9610d54565b5b906000526020600020906006020160000180546103d690610c93565b80601f016020809104026020016040519081016040528092919081815260200182805461040290610c93565b801561044f5780601f106104245761010080835404028352916020019161044f565b820191906000526020600020905b81548152906001019060200180831161043257829003601f168201915b505050505094506002868154811061046a57610469610d54565b5b90600052602060002090600602016001015493506002868154811061049257610491610d54565b5b906000526020600020906006020160020180546104ae90610c93565b80601f01602080910402602001604051908101604052809291908181526020018280546104da90610c93565b80156105275780601f106104fc57610100808354040283529160200191610527565b820191906000526020600020905b81548152906001019060200180831161050a57829003601f168201915b505050505092506002868154811061054257610541610d54565b5b90600052602060002090600602016003015491506002868154811061056a57610569610d54565b5b9060005260206000209060060201600401805461058690610c93565b80601f01602080910402602001604051908101604052809291908181526020018280546105b290610c93565b80156105ff5780601f106105d4576101008083540402835291602001916105ff565b820191906000526020600020905b8154815290600101906020018083116105e257829003601f168201915b5050505050905091939590929450565b80600160003373ffffffffffffffffffffffffffffffffffffffff1673ffffffffffffffffffffffffffffffffffffffff16815260200190815260200160002054101561065b57610743565b80600160003373ffffffffffffffffffffffffffffffffffffffff1673ffffffffffffffffffffffffffffffffffffffff16815260200190815260200160002060008282546106aa9190610be1565b9250508190555080600160008473ffffffffffffffffffffffffffffffffffffffff1673ffffffffffffffffffffffffffffffffffffffff16815260200190815260200160002060008282546107009190610b8b565b925050819055507f3990db2d31862302a685e8086b5755072a6e2b5b780af1ee81ece35ee3cd334533838360405161073a93929190610a5f565b60405180910390a15b5050565b82805461075390610c93565b90600052602060002090601f01602090048101928261077557600085556107bc565b82601f1061078e57805160ff19168380011785556107bc565b828001600101855582156107bc579182015b828111156107bb5782518255916020019190600101906107a0565b5b5090506107c991906107cd565b5090565b5b808211156107e65760008160009055506001016107ce565b5090565b60006107fd6107f884610b3e565b610b19565b90508281526020810184848401111561081957610818610db7565b5b610824848285610c51565b509392505050565b60008135905061083b81610dd7565b92915050565b600082601f83011261085657610855610db2565b5b81356108668482602086016107ea565b91505092915050565b60008135905061087e81610dee565b92915050565b60006020828403121561089a57610899610dc1565b5b60006108a88482850161082c565b91505092915050565b600080604083850312156108c8576108c7610dc1565b5b60006108d68582860161082c565b92505060206108e78582860161086f565b9150509250929050565b600080600080600060a0868803121561090d5761090c610dc1565b5b600086013567ffffffffffffffff81111561092b5761092a610dbc565b5b61093788828901610841565b95505060206109488882890161086f565b945050604086013567ffffffffffffffff81111561096957610968610dbc565b5b61097588828901610841565b93505060606109868882890161086f565b925050608086013567ffffffffffffffff8111156109a7576109a6610dbc565b5b6109b388828901610841565b9150509295509295909350565b6000602082840312156109d6576109d5610dc1565b5b60006109e48482850161086f565b91505092915050565b6109f681610c15565b82525050565b6000610a0782610b6f565b610a118185610b7a565b9350610a21818560208601610c60565b610a2a81610dc6565b840191505092915050565b610a3e81610c47565b82525050565b6000602082019050610a5960008301846109ed565b92915050565b6000606082019050610a7460008301866109ed565b610a8160208301856109ed565b610a8e6040830184610a35565b949350505050565b600060a0820190508181036000830152610ab081886109fc565b9050610abf6020830187610a35565b8181036040830152610ad181866109fc565b9050610ae06060830185610a35565b8181036080830152610af281846109fc565b90509695505050505050565b6000602082019050610b136000830184610a35565b92915050565b6000610b23610b34565b9050610b2f8282610cc5565b919050565b6000604051905090565b600067ffffffffffffffff821115610b5957610b58610d83565b5b610b6282610dc6565b9050602081019050919050565b600081519050919050565b600082825260208201905092915050565b6000610b9682610c47565b9150610ba183610c47565b9250827fffffffffffffffffffffffffffffffffffffffffffffffffffffffffffffffff03821115610bd657610bd5610cf6565b5b828201905092915050565b6000610bec82610c47565b9150610bf783610c47565b925082821015610c0a57610c09610cf6565b5b828203905092915050565b6000610c2082610c27565b9050919050565b600073ffffffffffffffffffffffffffffffffffffffff82169050919050565b6000819050919050565b82818337600083830152505050565b60005b83811015610c7e578082015181840152602081019050610c63565b83811115610c8d576000848401525b50505050565b60006002820490506001821680610cab57607f821691505b60208210811415610cbf57610cbe610d25565b5b50919050565b610cce82610dc6565b810181811067ffffffffffffffff82111715610ced57610cec610d83565b5b80604052505050565b7f4e487b7100000000000000000000000000000000000000000000000000000000600052601160045260246000fd5b7f4e487b7100000000000000000000000000000000000000000000000000000000600052602260045260246000fd5b7f4e487b7100000000000000000000000000000000000000000000000000000000600052603260045260246000fd5b7f4e487b7100000000000000000000000000000000000000000000000000000000600052604160045260246000fd5b600080fd5b600080fd5b600080fd5b600080fd5b6000601f19601f8301169050919050565b610de081610c15565b8114610deb57600080fd5b50565b610df781610c47565b8114610e0257600080fd5b5056fea2646970667358221220984b5a06e04f444c8ef00f54d142c3dc13f1cd2865dcc6d06272c5b8fbd3acf264736f6c63430008070033",
					"opcodes": "PUSH1 0x80 PUSH1 0x40 MSTORE CALLVALUE DUP1 ISZERO PUSH2 0x10 JUMPI PUSH1 0x0 DUP1 REVERT JUMPDEST POP CALLER PUSH1 0x0 DUP1 PUSH2 0x100 EXP DUP2 SLOAD DUP2 PUSH20 0xFFFFFFFFFFFFFFFFFFFFFFFFFFFFFFFFFFFFFFFF MUL NOT AND SWAP1 DUP4 PUSH20 0xFFFFFFFFFFFFFFFFFFFFFFFFFFFFFFFFFFFFFFFF AND MUL OR SWAP1 SSTORE POP PUSH2 0xE3B DUP1 PUSH2 0x60 PUSH1 0x0 CODECOPY PUSH1 0x0 RETURN INVALID PUSH1 0x80 PUSH1 0x40 MSTORE PUSH1 0x4 CALLDATASIZE LT PUSH2 0x55 JUMPI PUSH1 0x0 CALLDATALOAD PUSH1 0xE0 SHR DUP1 PUSH4 0x7546172 EQ PUSH2 0x5A JUMPI DUP1 PUSH4 0x27E235E3 EQ PUSH2 0x85 JUMPI DUP1 PUSH4 0x40C10F19 EQ PUSH2 0xC2 JUMPI DUP1 PUSH4 0x435C28E5 EQ PUSH2 0xDE JUMPI DUP1 PUSH4 0x82E3472D EQ PUSH2 0xFA JUMPI DUP1 PUSH4 0xD0679D34 EQ PUSH2 0x13B JUMPI JUMPDEST PUSH1 0x0 DUP1 REVERT JUMPDEST CALLVALUE DUP1 ISZERO PUSH2 0x66 JUMPI PUSH1 0x0 DUP1 REVERT JUMPDEST POP PUSH2 0x6F PUSH2 0x164 JUMP JUMPDEST PUSH1 0x40 MLOAD PUSH2 0x7C SWAP2 SWAP1 PUSH2 0xA44 JUMP JUMPDEST PUSH1 0x40 MLOAD DUP1 SWAP2 SUB SWAP1 RETURN JUMPDEST CALLVALUE DUP1 ISZERO PUSH2 0x91 JUMPI PUSH1 0x0 DUP1 REVERT JUMPDEST POP PUSH2 0xAC PUSH1 0x4 DUP1 CALLDATASIZE SUB DUP2 ADD SWAP1 PUSH2 0xA7 SWAP2 SWAP1 PUSH2 0x884 JUMP JUMPDEST PUSH2 0x188 JUMP JUMPDEST PUSH1 0x40 MLOAD PUSH2 0xB9 SWAP2 SWAP1 PUSH2 0xAFE JUMP JUMPDEST PUSH1 0x40 MLOAD DUP1 SWAP2 SUB SWAP1 RETURN JUMPDEST PUSH2 0xDC PUSH1 0x4 DUP1 CALLDATASIZE SUB DUP2 ADD SWAP1 PUSH2 0xD7 SWAP2 SWAP1 PUSH2 0x8B1 JUMP JUMPDEST PUSH2 0x1A0 JUMP JUMPDEST STOP JUMPDEST PUSH2 0xF8 PUSH1 0x4 DUP1 CALLDATASIZE SUB DUP2 ADD SWAP1 PUSH2 0xF3 SWAP2 SWAP1 PUSH2 0x8F1 JUMP JUMPDEST PUSH2 0x253 JUMP JUMPDEST STOP JUMPDEST CALLVALUE DUP1 ISZERO PUSH2 0x106 JUMPI PUSH1 0x0 DUP1 REVERT JUMPDEST POP PUSH2 0x121 PUSH1 0x4 DUP1 CALLDATASIZE SUB DUP2 ADD SWAP1 PUSH2 0x11C SWAP2 SWAP1 PUSH2 0x9C0 JUMP JUMPDEST PUSH2 0x39C JUMP JUMPDEST PUSH1 0x40 MLOAD PUSH2 0x132 SWAP6 SWAP5 SWAP4 SWAP3 SWAP2 SWAP1 PUSH2 0xA96 JUMP JUMPDEST PUSH1 0x40 MLOAD DUP1 SWAP2 SUB SWAP1 RETURN JUMPDEST CALLVALUE DUP1 ISZERO PUSH2 0x147 JUMPI PUSH1 0x0 DUP1 REVERT JUMPDEST POP PUSH2 0x162 PUSH1 0x4 DUP1 CALLDATASIZE SUB DUP2 ADD SWAP1 PUSH2 0x15D SWAP2 SWAP1 PUSH2 0x8B1 JUMP JUMPDEST PUSH2 0x60F JUMP JUMPDEST STOP JUMPDEST PUSH1 0x0 DUP1 SLOAD SWAP1 PUSH2 0x100 EXP SWAP1 DIV PUSH20 0xFFFFFFFFFFFFFFFFFFFFFFFFFFFFFFFFFFFFFFFF AND DUP2 JUMP JUMPDEST PUSH1 0x1 PUSH1 0x20 MSTORE DUP1 PUSH1 0x0 MSTORE PUSH1 0x40 PUSH1 0x0 KECCAK256 PUSH1 0x0 SWAP2 POP SWAP1 POP SLOAD DUP2 JUMP JUMPDEST PUSH1 0x0 DUP1 SLOAD SWAP1 PUSH2 0x100 EXP SWAP1 DIV PUSH20 0xFFFFFFFFFFFFFFFFFFFFFFFFFFFFFFFFFFFFFFFF AND PUSH20 0xFFFFFFFFFFFFFFFFFFFFFFFFFFFFFFFFFFFFFFFF AND CALLER PUSH20 0xFFFFFFFFFFFFFFFFFFFFFFFFFFFFFFFFFFFFFFFF AND EQ PUSH2 0x1F8 JUMPI PUSH2 0x24F JUMP JUMPDEST DUP1 PUSH1 0x1 PUSH1 0x0 DUP5 PUSH20 0xFFFFFFFFFFFFFFFFFFFFFFFFFFFFFFFFFFFFFFFF AND PUSH20 0xFFFFFFFFFFFFFFFFFFFFFFFFFFFFFFFFFFFFFFFF AND DUP2 MSTORE PUSH1 0x20 ADD SWAP1 DUP2 MSTORE PUSH1 0x20 ADD PUSH1 0x0 KECCAK256 PUSH1 0x0 DUP3 DUP3 SLOAD PUSH2 0x247 SWAP2 SWAP1 PUSH2 0xB8B JUMP JUMPDEST SWAP3 POP POP DUP2 SWAP1 SSTORE POP JUMPDEST POP POP JUMP JUMPDEST PUSH1 0x2 PUSH1 0x40 MLOAD DUP1 PUSH1 0xC0 ADD PUSH1 0x40 MSTORE DUP1 DUP8 DUP2 MSTORE PUSH1 0x20 ADD DUP7 DUP2 MSTORE PUSH1 0x20 ADD DUP6 DUP2 MSTORE PUSH1 0x20 ADD DUP5 DUP2 MSTORE PUSH1 0x20 ADD DUP4 DUP2 MSTORE PUSH1 0x20 ADD PUSH1 0x0 DUP1 SLOAD SWAP1 PUSH2 0x100 EXP SWAP1 DIV PUSH20 0xFFFFFFFFFFFFFFFFFFFFFFFFFFFFFFFFFFFFFFFF AND PUSH20 0xFFFFFFFFFFFFFFFFFFFFFFFFFFFFFFFFFFFFFFFF AND DUP2 MSTORE POP SWAP1 DUP1 PUSH1 0x1 DUP2 SLOAD ADD DUP1 DUP3 SSTORE DUP1 SWAP2 POP POP PUSH1 0x1 SWAP1 SUB SWAP1 PUSH1 0x0 MSTORE PUSH1 0x20 PUSH1 0x0 KECCAK256 SWAP1 PUSH1 0x6 MUL ADD PUSH1 0x0 SWAP1 SWAP2 SWAP1 SWAP2 SWAP1 SWAP2 POP PUSH1 0x0 DUP3 ADD MLOAD DUP2 PUSH1 0x0 ADD SWAP1 DUP1 MLOAD SWAP1 PUSH1 0x20 ADD SWAP1 PUSH2 0x2FD SWAP3 SWAP2 SWAP1 PUSH2 0x747 JUMP JUMPDEST POP PUSH1 0x20 DUP3 ADD MLOAD DUP2 PUSH1 0x1 ADD SSTORE PUSH1 0x40 DUP3 ADD MLOAD DUP2 PUSH1 0x2 ADD SWAP1 DUP1 MLOAD SWAP1 PUSH1 0x20 ADD SWAP1 PUSH2 0x324 SWAP3 SWAP2 SWAP1 PUSH2 0x747 JUMP JUMPDEST POP PUSH1 0x60 DUP3 ADD MLOAD DUP2 PUSH1 0x3 ADD SSTORE PUSH1 0x80 DUP3 ADD MLOAD DUP2 PUSH1 0x4 ADD SWAP1 DUP1 MLOAD SWAP1 PUSH1 0x20 ADD SWAP1 PUSH2 0x34B SWAP3 SWAP2 SWAP1 PUSH2 0x747 JUMP JUMPDEST POP PUSH1 0xA0 DUP3 ADD MLOAD DUP2 PUSH1 0x5 ADD PUSH1 0x0 PUSH2 0x100 EXP DUP2 SLOAD DUP2 PUSH20 0xFFFFFFFFFFFFFFFFFFFFFFFFFFFFFFFFFFFFFFFF MUL NOT AND SWAP1 DUP4 PUSH20 0xFFFFFFFFFFFFFFFFFFFFFFFFFFFFFFFFFFFFFFFF AND MUL OR SWAP1 SSTORE POP POP POP POP POP POP POP POP JUMP JUMPDEST PUSH1 0x60 PUSH1 0x0 PUSH1 0x60 PUSH1 0x0 PUSH1 0x60 PUSH1 0x2 DUP7 DUP2 SLOAD DUP2 LT PUSH2 0x3BA JUMPI PUSH2 0x3B9 PUSH2 0xD54 JUMP JUMPDEST JUMPDEST SWAP1 PUSH1 0x0 MSTORE PUSH1 0x20 PUSH1 0x0 KECCAK256 SWAP1 PUSH1 0x6 MUL ADD PUSH1 0x0 ADD DUP1 SLOAD PUSH2 0x3D6 SWAP1 PUSH2 0xC93 JUMP JUMPDEST DUP1 PUSH1 0x1F ADD PUSH1 0x20 DUP1 SWAP2 DIV MUL PUSH1 0x20 ADD PUSH1 0x40 MLOAD SWAP1 DUP2 ADD PUSH1 0x40 MSTORE DUP1 SWAP3 SWAP2 SWAP1 DUP2 DUP2 MSTORE PUSH1 0x20 ADD DUP3 DUP1 SLOAD PUSH2 0x402 SWAP1 PUSH2 0xC93 JUMP JUMPDEST DUP1 ISZERO PUSH2 0x44F JUMPI DUP1 PUSH1 0x1F LT PUSH2 0x424 JUMPI PUSH2 0x100 DUP1 DUP4 SLOAD DIV MUL DUP4 MSTORE SWAP2 PUSH1 0x20 ADD SWAP2 PUSH2 0x44F JUMP JUMPDEST DUP3 ADD SWAP2 SWAP1 PUSH1 0x0 MSTORE PUSH1 0x20 PUSH1 0x0 KECCAK256 SWAP1 JUMPDEST DUP2 SLOAD DUP2 MSTORE SWAP1 PUSH1 0x1 ADD SWAP1 PUSH1 0x20 ADD DUP1 DUP4 GT PUSH2 0x432 JUMPI DUP3 SWAP1 SUB PUSH1 0x1F AND DUP3 ADD SWAP2 JUMPDEST POP POP POP POP POP SWAP5 POP PUSH1 0x2 DUP7 DUP2 SLOAD DUP2 LT PUSH2 0x46A JUMPI PUSH2 0x469 PUSH2 0xD54 JUMP JUMPDEST JUMPDEST SWAP1 PUSH1 0x0 MSTORE PUSH1 0x20 PUSH1 0x0 KECCAK256 SWAP1 PUSH1 0x6 MUL ADD PUSH1 0x1 ADD SLOAD SWAP4 POP PUSH1 0x2 DUP7 DUP2 SLOAD DUP2 LT PUSH2 0x492 JUMPI PUSH2 0x491 PUSH2 0xD54 JUMP JUMPDEST JUMPDEST SWAP1 PUSH1 0x0 MSTORE PUSH1 0x20 PUSH1 0x0 KECCAK256 SWAP1 PUSH1 0x6 MUL ADD PUSH1 0x2 ADD DUP1 SLOAD PUSH2 0x4AE SWAP1 PUSH2 0xC93 JUMP JUMPDEST DUP1 PUSH1 0x1F ADD PUSH1 0x20 DUP1 SWAP2 DIV MUL PUSH1 0x20 ADD PUSH1 0x40 MLOAD SWAP1 DUP2 ADD PUSH1 0x40 MSTORE DUP1 SWAP3 SWAP2 SWAP1 DUP2 DUP2 MSTORE PUSH1 0x20 ADD DUP3 DUP1 SLOAD PUSH2 0x4DA SWAP1 PUSH2 0xC93 JUMP JUMPDEST DUP1 ISZERO PUSH2 0x527 JUMPI DUP1 PUSH1 0x1F LT PUSH2 0x4FC JUMPI PUSH2 0x100 DUP1 DUP4 SLOAD DIV MUL DUP4 MSTORE SWAP2 PUSH1 0x20 ADD SWAP2 PUSH2 0x527 JUMP JUMPDEST DUP3 ADD SWAP2 SWAP1 PUSH1 0x0 MSTORE PUSH1 0x20 PUSH1 0x0 KECCAK256 SWAP1 JUMPDEST DUP2 SLOAD DUP2 MSTORE SWAP1 PUSH1 0x1 ADD SWAP1 PUSH1 0x20 ADD DUP1 DUP4 GT PUSH2 0x50A JUMPI DUP3 SWAP1 SUB PUSH1 0x1F AND DUP3 ADD SWAP2 JUMPDEST POP POP POP POP POP SWAP3 POP PUSH1 0x2 DUP7 DUP2 SLOAD DUP2 LT PUSH2 0x542 JUMPI PUSH2 0x541 PUSH2 0xD54 JUMP JUMPDEST JUMPDEST SWAP1 PUSH1 0x0 MSTORE PUSH1 0x20 PUSH1 0x0 KECCAK256 SWAP1 PUSH1 0x6 MUL ADD PUSH1 0x3 ADD SLOAD SWAP2 POP PUSH1 0x2 DUP7 DUP2 SLOAD DUP2 LT PUSH2 0x56A JUMPI PUSH2 0x569 PUSH2 0xD54 JUMP JUMPDEST JUMPDEST SWAP1 PUSH1 0x0 MSTORE PUSH1 0x20 PUSH1 0x0 KECCAK256 SWAP1 PUSH1 0x6 MUL ADD PUSH1 0x4 ADD DUP1 SLOAD PUSH2 0x586 SWAP1 PUSH2 0xC93 JUMP JUMPDEST DUP1 PUSH1 0x1F ADD PUSH1 0x20 DUP1 SWAP2 DIV MUL PUSH1 0x20 ADD PUSH1 0x40 MLOAD SWAP1 DUP2 ADD PUSH1 0x40 MSTORE DUP1 SWAP3 SWAP2 SWAP1 DUP2 DUP2 MSTORE PUSH1 0x20 ADD DUP3 DUP1 SLOAD PUSH2 0x5B2 SWAP1 PUSH2 0xC93 JUMP JUMPDEST DUP1 ISZERO PUSH2 0x5FF JUMPI DUP1 PUSH1 0x1F LT PUSH2 0x5D4 JUMPI PUSH2 0x100 DUP1 DUP4 SLOAD DIV MUL DUP4 MSTORE SWAP2 PUSH1 0x20 ADD SWAP2 PUSH2 0x5FF JUMP JUMPDEST DUP3 ADD SWAP2 SWAP1 PUSH1 0x0 MSTORE PUSH1 0x20 PUSH1 0x0 KECCAK256 SWAP1 JUMPDEST DUP2 SLOAD DUP2 MSTORE SWAP1 PUSH1 0x1 ADD SWAP1 PUSH1 0x20 ADD DUP1 DUP4 GT PUSH2 0x5E2 JUMPI DUP3 SWAP1 SUB PUSH1 0x1F AND DUP3 ADD SWAP2 JUMPDEST POP POP POP POP POP SWAP1 POP SWAP2 SWAP4 SWAP6 SWAP1 SWAP3 SWAP5 POP JUMP JUMPDEST DUP1 PUSH1 0x1 PUSH1 0x0 CALLER PUSH20 0xFFFFFFFFFFFFFFFFFFFFFFFFFFFFFFFFFFFFFFFF AND PUSH20 0xFFFFFFFFFFFFFFFFFFFFFFFFFFFFFFFFFFFFFFFF AND DUP2 MSTORE PUSH1 0x20 ADD SWAP1 DUP2 MSTORE PUSH1 0x20 ADD PUSH1 0x0 KECCAK256 SLOAD LT ISZERO PUSH2 0x65B JUMPI PUSH2 0x743 JUMP JUMPDEST DUP1 PUSH1 0x1 PUSH1 0x0 CALLER PUSH20 0xFFFFFFFFFFFFFFFFFFFFFFFFFFFFFFFFFFFFFFFF AND PUSH20 0xFFFFFFFFFFFFFFFFFFFFFFFFFFFFFFFFFFFFFFFF AND DUP2 MSTORE PUSH1 0x20 ADD SWAP1 DUP2 MSTORE PUSH1 0x20 ADD PUSH1 0x0 KECCAK256 PUSH1 0x0 DUP3 DUP3 SLOAD PUSH2 0x6AA SWAP2 SWAP1 PUSH2 0xBE1 JUMP JUMPDEST SWAP3 POP POP DUP2 SWAP1 SSTORE POP DUP1 PUSH1 0x1 PUSH1 0x0 DUP5 PUSH20 0xFFFFFFFFFFFFFFFFFFFFFFFFFFFFFFFFFFFFFFFF AND PUSH20 0xFFFFFFFFFFFFFFFFFFFFFFFFFFFFFFFFFFFFFFFF AND DUP2 MSTORE PUSH1 0x20 ADD SWAP1 DUP2 MSTORE PUSH1 0x20 ADD PUSH1 0x0 KECCAK256 PUSH1 0x0 DUP3 DUP3 SLOAD PUSH2 0x700 SWAP2 SWAP1 PUSH2 0xB8B JUMP JUMPDEST SWAP3 POP POP DUP2 SWAP1 SSTORE POP PUSH32 0x3990DB2D31862302A685E8086B5755072A6E2B5B780AF1EE81ECE35EE3CD3345 CALLER DUP4 DUP4 PUSH1 0x40 MLOAD PUSH2 0x73A SWAP4 SWAP3 SWAP2 SWAP1 PUSH2 0xA5F JUMP JUMPDEST PUSH1 0x40 MLOAD DUP1 SWAP2 SUB SWAP1 LOG1 JUMPDEST POP POP JUMP JUMPDEST DUP3 DUP1 SLOAD PUSH2 0x753 SWAP1 PUSH2 0xC93 JUMP JUMPDEST SWAP1 PUSH1 0x0 MSTORE PUSH1 0x20 PUSH1 0x0 KECCAK256 SWAP1 PUSH1 0x1F ADD PUSH1 0x20 SWAP1 DIV DUP2 ADD SWAP3 DUP3 PUSH2 0x775 JUMPI PUSH1 0x0 DUP6 SSTORE PUSH2 0x7BC JUMP JUMPDEST DUP3 PUSH1 0x1F LT PUSH2 0x78E JUMPI DUP1 MLOAD PUSH1 0xFF NOT AND DUP4 DUP1 ADD OR DUP6 SSTORE PUSH2 0x7BC JUMP JUMPDEST DUP3 DUP1 ADD PUSH1 0x1 ADD DUP6 SSTORE DUP3 ISZERO PUSH2 0x7BC JUMPI SWAP2 DUP3 ADD JUMPDEST DUP3 DUP2 GT ISZERO PUSH2 0x7BB JUMPI DUP3 MLOAD DUP3 SSTORE SWAP2 PUSH1 0x20 ADD SWAP2 SWAP1 PUSH1 0x1 ADD SWAP1 PUSH2 0x7A0 JUMP JUMPDEST JUMPDEST POP SWAP1 POP PUSH2 0x7C9 SWAP2 SWAP1 PUSH2 0x7CD JUMP JUMPDEST POP SWAP1 JUMP JUMPDEST JUMPDEST DUP1 DUP3 GT ISZERO PUSH2 0x7E6 JUMPI PUSH1 0x0 DUP2 PUSH1 0x0 SWAP1 SSTORE POP PUSH1 0x1 ADD PUSH2 0x7CE JUMP JUMPDEST POP SWAP1 JUMP JUMPDEST PUSH1 0x0 PUSH2 0x7FD PUSH2 0x7F8 DUP5 PUSH2 0xB3E JUMP JUMPDEST PUSH2 0xB19 JUMP JUMPDEST SWAP1 POP DUP3 DUP2 MSTORE PUSH1 0x20 DUP2 ADD DUP5 DUP5 DUP5 ADD GT ISZERO PUSH2 0x819 JUMPI PUSH2 0x818 PUSH2 0xDB7 JUMP JUMPDEST JUMPDEST PUSH2 0x824 DUP5 DUP3 DUP6 PUSH2 0xC51 JUMP JUMPDEST POP SWAP4 SWAP3 POP POP POP JUMP JUMPDEST PUSH1 0x0 DUP2 CALLDATALOAD SWAP1 POP PUSH2 0x83B DUP2 PUSH2 0xDD7 JUMP JUMPDEST SWAP3 SWAP2 POP POP JUMP JUMPDEST PUSH1 0x0 DUP3 PUSH1 0x1F DUP4 ADD SLT PUSH2 0x856 JUMPI PUSH2 0x855 PUSH2 0xDB2 JUMP JUMPDEST JUMPDEST DUP2 CALLDATALOAD PUSH2 0x866 DUP5 DUP3 PUSH1 0x20 DUP7 ADD PUSH2 0x7EA JUMP JUMPDEST SWAP2 POP POP SWAP3 SWAP2 POP POP JUMP JUMPDEST PUSH1 0x0 DUP2 CALLDATALOAD SWAP1 POP PUSH2 0x87E DUP2 PUSH2 0xDEE JUMP JUMPDEST SWAP3 SWAP2 POP POP JUMP JUMPDEST PUSH1 0x0 PUSH1 0x20 DUP3 DUP5 SUB SLT ISZERO PUSH2 0x89A JUMPI PUSH2 0x899 PUSH2 0xDC1 JUMP JUMPDEST JUMPDEST PUSH1 0x0 PUSH2 0x8A8 DUP5 DUP3 DUP6 ADD PUSH2 0x82C JUMP JUMPDEST SWAP2 POP POP SWAP3 SWAP2 POP POP JUMP JUMPDEST PUSH1 0x0 DUP1 PUSH1 0x40 DUP4 DUP6 SUB SLT ISZERO PUSH2 0x8C8 JUMPI PUSH2 0x8C7 PUSH2 0xDC1 JUMP JUMPDEST JUMPDEST PUSH1 0x0 PUSH2 0x8D6 DUP6 DUP3 DUP7 ADD PUSH2 0x82C JUMP JUMPDEST SWAP3 POP POP PUSH1 0x20 PUSH2 0x8E7 DUP6 DUP3 DUP7 ADD PUSH2 0x86F JUMP JUMPDEST SWAP2 POP POP SWAP3 POP SWAP3 SWAP1 POP JUMP JUMPDEST PUSH1 0x0 DUP1 PUSH1 0x0 DUP1 PUSH1 0x0 PUSH1 0xA0 DUP7 DUP9 SUB SLT ISZERO PUSH2 0x90D JUMPI PUSH2 0x90C PUSH2 0xDC1 JUMP JUMPDEST JUMPDEST PUSH1 0x0 DUP7 ADD CALLDATALOAD PUSH8 0xFFFFFFFFFFFFFFFF DUP2 GT ISZERO PUSH2 0x92B JUMPI PUSH2 0x92A PUSH2 0xDBC JUMP JUMPDEST JUMPDEST PUSH2 0x937 DUP9 DUP3 DUP10 ADD PUSH2 0x841 JUMP JUMPDEST SWAP6 POP POP PUSH1 0x20 PUSH2 0x948 DUP9 DUP3 DUP10 ADD PUSH2 0x86F JUMP JUMPDEST SWAP5 POP POP PUSH1 0x40 DUP7 ADD CALLDATALOAD PUSH8 0xFFFFFFFFFFFFFFFF DUP2 GT ISZERO PUSH2 0x969 JUMPI PUSH2 0x968 PUSH2 0xDBC JUMP JUMPDEST JUMPDEST PUSH2 0x975 DUP9 DUP3 DUP10 ADD PUSH2 0x841 JUMP JUMPDEST SWAP4 POP POP PUSH1 0x60 PUSH2 0x986 DUP9 DUP3 DUP10 ADD PUSH2 0x86F JUMP JUMPDEST SWAP3 POP POP PUSH1 0x80 DUP7 ADD CALLDATALOAD PUSH8 0xFFFFFFFFFFFFFFFF DUP2 GT ISZERO PUSH2 0x9A7 JUMPI PUSH2 0x9A6 PUSH2 0xDBC JUMP JUMPDEST JUMPDEST PUSH2 0x9B3 DUP9 DUP3 DUP10 ADD PUSH2 0x841 JUMP JUMPDEST SWAP2 POP POP SWAP3 SWAP6 POP SWAP3 SWAP6 SWAP1 SWAP4 POP JUMP JUMPDEST PUSH1 0x0 PUSH1 0x20 DUP3 DUP5 SUB SLT ISZERO PUSH2 0x9D6 JUMPI PUSH2 0x9D5 PUSH2 0xDC1 JUMP JUMPDEST JUMPDEST PUSH1 0x0 PUSH2 0x9E4 DUP5 DUP3 DUP6 ADD PUSH2 0x86F JUMP JUMPDEST SWAP2 POP POP SWAP3 SWAP2 POP POP JUMP JUMPDEST PUSH2 0x9F6 DUP2 PUSH2 0xC15 JUMP JUMPDEST DUP3 MSTORE POP POP JUMP JUMPDEST PUSH1 0x0 PUSH2 0xA07 DUP3 PUSH2 0xB6F JUMP JUMPDEST PUSH2 0xA11 DUP2 DUP6 PUSH2 0xB7A JUMP JUMPDEST SWAP4 POP PUSH2 0xA21 DUP2 DUP6 PUSH1 0x20 DUP7 ADD PUSH2 0xC60 JUMP JUMPDEST PUSH2 0xA2A DUP2 PUSH2 0xDC6 JUMP JUMPDEST DUP5 ADD SWAP2 POP POP SWAP3 SWAP2 POP POP JUMP JUMPDEST PUSH2 0xA3E DUP2 PUSH2 0xC47 JUMP JUMPDEST DUP3 MSTORE POP POP JUMP JUMPDEST PUSH1 0x0 PUSH1 0x20 DUP3 ADD SWAP1 POP PUSH2 0xA59 PUSH1 0x0 DUP4 ADD DUP5 PUSH2 0x9ED JUMP JUMPDEST SWAP3 SWAP2 POP POP JUMP JUMPDEST PUSH1 0x0 PUSH1 0x60 DUP3 ADD SWAP1 POP PUSH2 0xA74 PUSH1 0x0 DUP4 ADD DUP7 PUSH2 0x9ED JUMP JUMPDEST PUSH2 0xA81 PUSH1 0x20 DUP4 ADD DUP6 PUSH2 0x9ED JUMP JUMPDEST PUSH2 0xA8E PUSH1 0x40 DUP4 ADD DUP5 PUSH2 0xA35 JUMP JUMPDEST SWAP5 SWAP4 POP POP POP POP JUMP JUMPDEST PUSH1 0x0 PUSH1 0xA0 DUP3 ADD SWAP1 POP DUP2 DUP2 SUB PUSH1 0x0 DUP4 ADD MSTORE PUSH2 0xAB0 DUP2 DUP9 PUSH2 0x9FC JUMP JUMPDEST SWAP1 POP PUSH2 0xABF PUSH1 0x20 DUP4 ADD DUP8 PUSH2 0xA35 JUMP JUMPDEST DUP2 DUP2 SUB PUSH1 0x40 DUP4 ADD MSTORE PUSH2 0xAD1 DUP2 DUP7 PUSH2 0x9FC JUMP JUMPDEST SWAP1 POP PUSH2 0xAE0 PUSH1 0x60 DUP4 ADD DUP6 PUSH2 0xA35 JUMP JUMPDEST DUP2 DUP2 SUB PUSH1 0x80 DUP4 ADD MSTORE PUSH2 0xAF2 DUP2 DUP5 PUSH2 0x9FC JUMP JUMPDEST SWAP1 POP SWAP7 SWAP6 POP POP POP POP POP POP JUMP JUMPDEST PUSH1 0x0 PUSH1 0x20 DUP3 ADD SWAP1 POP PUSH2 0xB13 PUSH1 0x0 DUP4 ADD DUP5 PUSH2 0xA35 JUMP JUMPDEST SWAP3 SWAP2 POP POP JUMP JUMPDEST PUSH1 0x0 PUSH2 0xB23 PUSH2 0xB34 JUMP JUMPDEST SWAP1 POP PUSH2 0xB2F DUP3 DUP3 PUSH2 0xCC5 JUMP JUMPDEST SWAP2 SWAP1 POP JUMP JUMPDEST PUSH1 0x0 PUSH1 0x40 MLOAD SWAP1 POP SWAP1 JUMP JUMPDEST PUSH1 0x0 PUSH8 0xFFFFFFFFFFFFFFFF DUP3 GT ISZERO PUSH2 0xB59 JUMPI PUSH2 0xB58 PUSH2 0xD83 JUMP JUMPDEST JUMPDEST PUSH2 0xB62 DUP3 PUSH2 0xDC6 JUMP JUMPDEST SWAP1 POP PUSH1 0x20 DUP2 ADD SWAP1 POP SWAP2 SWAP1 POP JUMP JUMPDEST PUSH1 0x0 DUP2 MLOAD SWAP1 POP SWAP2 SWAP1 POP JUMP JUMPDEST PUSH1 0x0 DUP3 DUP3 MSTORE PUSH1 0x20 DUP3 ADD SWAP1 POP SWAP3 SWAP2 POP POP JUMP JUMPDEST PUSH1 0x0 PUSH2 0xB96 DUP3 PUSH2 0xC47 JUMP JUMPDEST SWAP2 POP PUSH2 0xBA1 DUP4 PUSH2 0xC47 JUMP JUMPDEST SWAP3 POP DUP3 PUSH32 0xFFFFFFFFFFFFFFFFFFFFFFFFFFFFFFFFFFFFFFFFFFFFFFFFFFFFFFFFFFFFFFFF SUB DUP3 GT ISZERO PUSH2 0xBD6 JUMPI PUSH2 0xBD5 PUSH2 0xCF6 JUMP JUMPDEST JUMPDEST DUP3 DUP3 ADD SWAP1 POP SWAP3 SWAP2 POP POP JUMP JUMPDEST PUSH1 0x0 PUSH2 0xBEC DUP3 PUSH2 0xC47 JUMP JUMPDEST SWAP2 POP PUSH2 0xBF7 DUP4 PUSH2 0xC47 JUMP JUMPDEST SWAP3 POP DUP3 DUP3 LT ISZERO PUSH2 0xC0A JUMPI PUSH2 0xC09 PUSH2 0xCF6 JUMP JUMPDEST JUMPDEST DUP3 DUP3 SUB SWAP1 POP SWAP3 SWAP2 POP POP JUMP JUMPDEST PUSH1 0x0 PUSH2 0xC20 DUP3 PUSH2 0xC27 JUMP JUMPDEST SWAP1 POP SWAP2 SWAP1 POP JUMP JUMPDEST PUSH1 0x0 PUSH20 0xFFFFFFFFFFFFFFFFFFFFFFFFFFFFFFFFFFFFFFFF DUP3 AND SWAP1 POP SWAP2 SWAP1 POP JUMP JUMPDEST PUSH1 0x0 DUP2 SWAP1 POP SWAP2 SWAP1 POP JUMP JUMPDEST DUP3 DUP2 DUP4 CALLDATACOPY PUSH1 0x0 DUP4 DUP4 ADD MSTORE POP POP POP JUMP JUMPDEST PUSH1 0x0 JUMPDEST DUP4 DUP2 LT ISZERO PUSH2 0xC7E JUMPI DUP1 DUP3 ADD MLOAD DUP2 DUP5 ADD MSTORE PUSH1 0x20 DUP2 ADD SWAP1 POP PUSH2 0xC63 JUMP JUMPDEST DUP4 DUP2 GT ISZERO PUSH2 0xC8D JUMPI PUSH1 0x0 DUP5 DUP5 ADD MSTORE JUMPDEST POP POP POP POP JUMP JUMPDEST PUSH1 0x0 PUSH1 0x2 DUP3 DIV SWAP1 POP PUSH1 0x1 DUP3 AND DUP1 PUSH2 0xCAB JUMPI PUSH1 0x7F DUP3 AND SWAP2 POP JUMPDEST PUSH1 0x20 DUP3 LT DUP2 EQ ISZERO PUSH2 0xCBF JUMPI PUSH2 0xCBE PUSH2 0xD25 JUMP JUMPDEST JUMPDEST POP SWAP2 SWAP1 POP JUMP JUMPDEST PUSH2 0xCCE DUP3 PUSH2 0xDC6 JUMP JUMPDEST DUP2 ADD DUP2 DUP2 LT PUSH8 0xFFFFFFFFFFFFFFFF DUP3 GT OR ISZERO PUSH2 0xCED JUMPI PUSH2 0xCEC PUSH2 0xD83 JUMP JUMPDEST JUMPDEST DUP1 PUSH1 0x40 MSTORE POP POP POP JUMP JUMPDEST PUSH32 0x4E487B7100000000000000000000000000000000000000000000000000000000 PUSH1 0x0 MSTORE PUSH1 0x11 PUSH1 0x4 MSTORE PUSH1 0x24 PUSH1 0x0 REVERT JUMPDEST PUSH32 0x4E487B7100000000000000000000000000000000000000000000000000000000 PUSH1 0x0 MSTORE PUSH1 0x22 PUSH1 0x4 MSTORE PUSH1 0x24 PUSH1 0x0 REVERT JUMPDEST PUSH32 0x4E487B7100000000000000000000000000000000000000000000000000000000 PUSH1 0x0 MSTORE PUSH1 0x32 PUSH1 0x4 MSTORE PUSH1 0x24 PUSH1 0x0 REVERT JUMPDEST PUSH32 0x4E487B7100000000000000000000000000000000000000000000000000000000 PUSH1 0x0 MSTORE PUSH1 0x41 PUSH1 0x4 MSTORE PUSH1 0x24 PUSH1 0x0 REVERT JUMPDEST PUSH1 0x0 DUP1 REVERT JUMPDEST PUSH1 0x0 DUP1 REVERT JUMPDEST PUSH1 0x0 DUP1 REVERT JUMPDEST PUSH1 0x0 DUP1 REVERT JUMPDEST PUSH1 0x0 PUSH1 0x1F NOT PUSH1 0x1F DUP4 ADD AND SWAP1 POP SWAP2 SWAP1 POP JUMP JUMPDEST PUSH2 0xDE0 DUP2 PUSH2 0xC15 JUMP JUMPDEST DUP2 EQ PUSH2 0xDEB JUMPI PUSH1 0x0 DUP1 REVERT JUMPDEST POP JUMP JUMPDEST PUSH2 0xDF7 DUP2 PUSH2 0xC47 JUMP JUMPDEST DUP2 EQ PUSH2 0xE02 JUMPI PUSH1 0x0 DUP1 REVERT JUMPDEST POP JUMP INVALID LOG2 PUSH5 0x6970667358 0x22 SLT KECCAK256 SWAP9 0x4B GAS MOD 0xE0 0x4F DIFFICULTY 0x4C DUP15 CREATE 0xF SLOAD 0xD1 TIMESTAMP 0xC3 0xDC SGT CALL 0xCD 0x28 PUSH6 0xDCC6D06272C5 0xB8 0xFB 0xD3 0xAC CALLCODE PUSH5 0x736F6C6343 STOP ADDMOD SMOD STOP CALLER "
				},
				"gasEstimates": {
					"creation": {
						"codeDepositCost": "728600",
						"executionCost": "25026",
						"totalCost": "753626"
					},
					"external": {
						"balances(address)": "2814",
						"getStu(uint256)": "infinite",
						"mint(address,uint256)": "infinite",
						"minter()": "2489",
						"send(address,uint256)": "infinite",
						"setStu(string,uint256,string,uint256,string)": "infinite"
					}
				},
				"methodIdentifiers": {
					"balances(address)": "27e235e3",
					"getStu(uint256)": "82e3472d",
					"mint(address,uint256)": "40c10f19",
					"minter()": "07546172",
					"send(address,uint256)": "d0679d34",
					"setStu(string,uint256,string,uint256,string)": "435c28e5"
				}
			},
			"storageLayout": {
				"storage": [
					{
						"astId": 3,
						"contract": "test1.sol:status",
						"label": "minter",
						"offset": 0,
						"slot": "0",
						"type": "t_address"
					},
					{
						"astId": 7,
						"contract": "test1.sol:status",
						"label": "balances",
						"offset": 0,
						"slot": "1",
						"type": "t_mapping(t_address,t_uint256)"
					},
					{
						"astId": 41,
						"contract": "test1.sol:status",
						"label": "Students",
						"offset": 0,
						"slot": "2",
						"type": "t_array(t_struct(Student)37_storage)dyn_storage"
					}
				],
				"types": {
					"t_address": {
						"encoding": "inplace",
						"label": "address",
						"numberOfBytes": "20"
					},
					"t_array(t_struct(Student)37_storage)dyn_storage": {
						"base": "t_struct(Student)37_storage",
						"encoding": "dynamic_array",
						"label": "struct status.Student[]",
						"numberOfBytes": "32"
					},
					"t_mapping(t_address,t_uint256)": {
						"encoding": "mapping",
						"key": "t_address",
						"label": "mapping(address => uint256)",
						"numberOfBytes": "32",
						"value": "t_uint256"
					},
					"t_string_storage": {
						"encoding": "bytes",
						"label": "string",
						"numberOfBytes": "32"
					},
					"t_struct(Student)37_storage": {
						"encoding": "inplace",
						"label": "struct status.Student",
						"members": [
							{
								"astId": 26,
								"contract": "test1.sol:status",
								"label": "name",
								"offset": 0,
								"slot": "0",
								"type": "t_string_storage"
							},
							{
								"astId": 28,
								"contract": "test1.sol:status",
								"label": "StudentID",
								"offset": 0,
								"slot": "1",
								"type": "t_uint256"
							},
							{
								"astId": 30,
								"contract": "test1.sol:status",
								"label": "major",
								"offset": 0,
								"slot": "2",
								"type": "t_string_storage"
							},
							{
								"astId": 32,
								"contract": "test1.sol:status",
								"label": "gpa",
								"offset": 0,
								"slot": "3",
								"type": "t_uint256"
							},
							{
								"astId": 34,
								"contract": "test1.sol:status",
								"label": "company",
								"offset": 0,
								"slot": "4",
								"type": "t_string_storage"
							},
							{
								"astId": 36,
								"contract": "test1.sol:status",
								"label": "addr",
								"offset": 0,
								"slot": "5",
								"type": "t_address"
							}
						],
						"numberOfBytes": "192"
					},
					"t_uint256": {
						"encoding": "inplace",
						"label": "uint256",
						"numberOfBytes": "32"
					}
				}
			},
			"userdoc": {
				"kind": "user",
				"methods": {},
				"version": 1
			}
		}
	}
}