{
	"sendtosend.sol": {
		"status": {
			"abi": [
				{
					"anonymous": false,
					"inputs": [
						{
							"indexed": false,
							"internalType": "address",
							"name": "from",
							"type": "address"
						},
						{
							"indexed": false,
							"internalType": "address",
							"name": "to",
							"type": "address"
						},
						{
							"indexed": false,
							"internalType": "uint256",
							"name": "amount",
							"type": "uint256"
						}
					],
					"name": "Sent",
					"type": "event"
				},
				{
					"inputs": [
						{
							"internalType": "address",
							"name": "",
							"type": "address"
						}
					],
					"name": "getInfoByWallet",
					"outputs": [
						{
							"internalType": "string",
							"name": "name",
							"type": "string"
						},
						{
							"internalType": "uint256",
							"name": "StudentID",
							"type": "uint256"
						},
						{
							"internalType": "string",
							"name": "major",
							"type": "string"
						},
						{
							"internalType": "uint256",
							"name": "gpa",
							"type": "uint256"
						},
						{
							"internalType": "string",
							"name": "company",
							"type": "string"
						},
						{
							"internalType": "uint256",
							"name": "balance",
							"type": "uint256"
						}
					],
					"stateMutability": "view",
					"type": "function"
				},
				{
					"inputs": [
						{
							"internalType": "address",
							"name": "receiver",
							"type": "address"
						},
						{
							"internalType": "uint256",
							"name": "amount",
							"type": "uint256"
						}
					],
					"name": "send",
					"outputs": [],
					"stateMutability": "payable",
					"type": "function"
				},
				{
					"inputs": [
						{
							"internalType": "address",
							"name": "_addr",
							"type": "address"
						},
						{
							"internalType": "string",
							"name": "_name",
							"type": "string"
						},
						{
							"internalType": "uint256",
							"name": "_StudentID",
							"type": "uint256"
						},
						{
							"internalType": "string",
							"name": "_major",
							"type": "string"
						},
						{
							"internalType": "uint256",
							"name": "_gpa",
							"type": "uint256"
						},
						{
							"internalType": "string",
							"name": "_company",
							"type": "string"
						}
					],
					"name": "setInfo",
					"outputs": [],
					"stateMutability": "payable",
					"type": "function"
				}
			],
			"devdoc": {
				"kind": "dev",
				"methods": {},
				"version": 1
			},
			"evm": {
				"assembly": "    /* \"sendtosend.sol\":72:1321  contract status{\r... */\n  mstore(0x40, 0x80)\n    /* \"sendtosend.sol\":417:433  string name = \"\" */\n  mload(0x40)\n  dup1\n  0x20\n  add\n  0x40\n  mstore\n  dup1\n  0x00\n  dup2\n  mstore\n  pop\n  0x00\n  swap1\n  dup1\n  mload\n  swap1\n  0x20\n  add\n  swap1\n  tag_1\n  swap3\n  swap2\n  swap1\n  tag_2\n  jump\t// in\ntag_1:\n  pop\n    /* \"sendtosend.sol\":458:459  0 */\n  0x00\n    /* \"sendtosend.sol\":440:459  uint256 balance = 0 */\n  0x01\n  sstore\n    /* \"sendtosend.sol\":72:1321  contract status{\r... */\n  callvalue\n  dup1\n  iszero\n  tag_3\n  jumpi\n  0x00\n  dup1\n  revert\ntag_3:\n  pop\n  jump(tag_4)\ntag_2:\n  dup3\n  dup1\n  sload\n  tag_5\n  swap1\n  tag_6\n  jump\t// in\ntag_5:\n  swap1\n  0x00\n  mstore\n  keccak256(0x00, 0x20)\n  swap1\n  0x1f\n  add\n  0x20\n  swap1\n  div\n  dup2\n  add\n  swap3\n  dup3\n  tag_8\n  jumpi\n  0x00\n  dup6\n  sstore\n  jump(tag_7)\ntag_8:\n  dup3\n  0x1f\n  lt\n  tag_9\n  jumpi\n  dup1\n  mload\n  not(0xff)\n  and\n  dup4\n  dup1\n  add\n  or\n  dup6\n  sstore\n  jump(tag_7)\ntag_9:\n  dup3\n  dup1\n  add\n  0x01\n  add\n  dup6\n  sstore\n  dup3\n  iszero\n  tag_7\n  jumpi\n  swap2\n  dup3\n  add\ntag_10:\n  dup3\n  dup2\n  gt\n  iszero\n  tag_11\n  jumpi\n  dup3\n  mload\n  dup3\n  sstore\n  swap2\n  0x20\n  add\n  swap2\n  swap1\n  0x01\n  add\n  swap1\n  jump(tag_10)\ntag_11:\ntag_7:\n  pop\n  swap1\n  pop\n  tag_12\n  swap2\n  swap1\n  tag_13\n  jump\t// in\ntag_12:\n  pop\n  swap1\n  jump\t// out\ntag_13:\ntag_14:\n  dup1\n  dup3\n  gt\n  iszero\n  tag_15\n  jumpi\n  0x00\n  dup2\n  0x00\n  swap1\n  sstore\n  pop\n  0x01\n  add\n  jump(tag_14)\ntag_15:\n  pop\n  swap1\n  jump\t// out\n    /* \"#utility.yul\":7:327   */\ntag_6:\n    /* \"#utility.yul\":51:57   */\n  0x00\n    /* \"#utility.yul\":88:89   */\n  0x02\n    /* \"#utility.yul\":82:86   */\n  dup3\n    /* \"#utility.yul\":78:90   */\n  div\n    /* \"#utility.yul\":68:90   */\n  swap1\n  pop\n    /* \"#utility.yul\":135:136   */\n  0x01\n    /* \"#utility.yul\":129:133   */\n  dup3\n    /* \"#utility.yul\":125:137   */\n  and\n    /* \"#utility.yul\":156:174   */\n  dup1\n    /* \"#utility.yul\":146:227   */\n  tag_18\n  jumpi\n    /* \"#utility.yul\":212:216   */\n  0x7f\n    /* \"#utility.yul\":204:210   */\n  dup3\n    /* \"#utility.yul\":200:217   */\n  and\n    /* \"#utility.yul\":190:217   */\n  swap2\n  pop\n    /* \"#utility.yul\":146:227   */\ntag_18:\n    /* \"#utility.yul\":274:276   */\n  0x20\n    /* \"#utility.yul\":266:272   */\n  dup3\n    /* \"#utility.yul\":263:277   */\n  lt\n    /* \"#utility.yul\":243:261   */\n  dup2\n    /* \"#utility.yul\":240:278   */\n  eq\n    /* \"#utility.yul\":237:321   */\n  iszero\n  tag_19\n  jumpi\n    /* \"#utility.yul\":293:311   */\n  tag_20\n  tag_21\n  jump\t// in\ntag_20:\n    /* \"#utility.yul\":237:321   */\ntag_19:\n    /* \"#utility.yul\":58:327   */\n  pop\n    /* \"#utility.yul\":7:327   */\n  swap2\n  swap1\n  pop\n  jump\t// out\n    /* \"#utility.yul\":333:513   */\ntag_21:\n    /* \"#utility.yul\":381:458   */\n  0x4e487b7100000000000000000000000000000000000000000000000000000000\n    /* \"#utility.yul\":378:379   */\n  0x00\n    /* \"#utility.yul\":371:459   */\n  mstore\n    /* \"#utility.yul\":478:482   */\n  0x22\n    /* \"#utility.yul\":475:476   */\n  0x04\n    /* \"#utility.yul\":468:483   */\n  mstore\n    /* \"#utility.yul\":502:506   */\n  0x24\n    /* \"#utility.yul\":499:500   */\n  0x00\n    /* \"#utility.yul\":492:507   */\n  revert\n    /* \"sendtosend.sol\":72:1321  contract status{\r... */\ntag_4:\n  dataSize(sub_0)\n  dup1\n  dataOffset(sub_0)\n  0x00\n  codecopy\n  0x00\n  return\nstop\n\nsub_0: assembly {\n        /* \"sendtosend.sol\":72:1321  contract status{\r... */\n      mstore(0x40, 0x80)\n      jumpi(tag_1, lt(calldatasize, 0x04))\n      shr(0xe0, calldataload(0x00))\n      dup1\n      0x0ebcbdb8\n      eq\n      tag_2\n      jumpi\n      dup1\n      0x8b9c657a\n      eq\n      tag_3\n      jumpi\n      dup1\n      0xd0679d34\n      eq\n      tag_4\n      jumpi\n    tag_1:\n      0x00\n      dup1\n      revert\n        /* \"sendtosend.sol\":552:1011  function setInfo(address _addr, string memory _name, uint256 _StudentID, string memory _major, uint256 _gpa, string memory _company) public payable {\r... */\n    tag_2:\n      tag_5\n      0x04\n      dup1\n      calldatasize\n      sub\n      dup2\n      add\n      swap1\n      tag_6\n      swap2\n      swap1\n      tag_7\n      jump\t// in\n    tag_6:\n      tag_8\n      jump\t// in\n    tag_5:\n      stop\n        /* \"sendtosend.sol\":493:543  mapping(address => Student) public getInfoByWallet */\n    tag_3:\n      callvalue\n      dup1\n      iszero\n      tag_9\n      jumpi\n      0x00\n      dup1\n      revert\n    tag_9:\n      pop\n      tag_10\n      0x04\n      dup1\n      calldatasize\n      sub\n      dup2\n      add\n      swap1\n      tag_11\n      swap2\n      swap1\n      tag_12\n      jump\t// in\n    tag_11:\n      tag_13\n      jump\t// in\n    tag_10:\n      mload(0x40)\n      tag_14\n      swap7\n      swap6\n      swap5\n      swap4\n      swap3\n      swap2\n      swap1\n      tag_15\n      jump\t// in\n    tag_14:\n      mload(0x40)\n      dup1\n      swap2\n      sub\n      swap1\n      return\n        /* \"sendtosend.sol\":1019:1314  function send(address receiver, uint amount) public payable {\r... */\n    tag_4:\n      tag_16\n      0x04\n      dup1\n      calldatasize\n      sub\n      dup2\n      add\n      swap1\n      tag_17\n      swap2\n      swap1\n      tag_18\n      jump\t// in\n    tag_17:\n      tag_19\n      jump\t// in\n    tag_16:\n      stop\n        /* \"sendtosend.sol\":552:1011  function setInfo(address _addr, string memory _name, uint256 _StudentID, string memory _major, uint256 _gpa, string memory _company) public payable {\r... */\n    tag_8:\n        /* \"sendtosend.sol\":741:746  _name */\n      dup5\n        /* \"sendtosend.sol\":711:726  getInfoByWallet */\n      0x03\n        /* \"sendtosend.sol\":711:733  getInfoByWallet[_addr] */\n      0x00\n        /* \"sendtosend.sol\":727:732  _addr */\n      dup9\n        /* \"sendtosend.sol\":711:733  getInfoByWallet[_addr] */\n      0xffffffffffffffffffffffffffffffffffffffff\n      and\n      0xffffffffffffffffffffffffffffffffffffffff\n      and\n      dup2\n      mstore\n      0x20\n      add\n      swap1\n      dup2\n      mstore\n      0x20\n      add\n      0x00\n      keccak256\n        /* \"sendtosend.sol\":711:738  getInfoByWallet[_addr].name */\n      0x00\n      add\n        /* \"sendtosend.sol\":711:746  getInfoByWallet[_addr].name = _name */\n      swap1\n      dup1\n      mload\n      swap1\n      0x20\n      add\n      swap1\n      tag_21\n      swap3\n      swap2\n      swap1\n      tag_22\n      jump\t// in\n    tag_21:\n      pop\n        /* \"sendtosend.sol\":792:802  _StudentID */\n      dup4\n        /* \"sendtosend.sol\":757:772  getInfoByWallet */\n      0x03\n        /* \"sendtosend.sol\":757:779  getInfoByWallet[_addr] */\n      0x00\n        /* \"sendtosend.sol\":773:778  _addr */\n      dup9\n        /* \"sendtosend.sol\":757:779  getInfoByWallet[_addr] */\n      0xffffffffffffffffffffffffffffffffffffffff\n      and\n      0xffffffffffffffffffffffffffffffffffffffff\n      and\n      dup2\n      mstore\n      0x20\n      add\n      swap1\n      dup2\n      mstore\n      0x20\n      add\n      0x00\n      keccak256\n        /* \"sendtosend.sol\":757:789  getInfoByWallet[_addr].StudentID */\n      0x01\n      add\n        /* \"sendtosend.sol\":757:802  getInfoByWallet[_addr].StudentID = _StudentID */\n      dup2\n      swap1\n      sstore\n      pop\n        /* \"sendtosend.sol\":844:850  _major */\n      dup3\n        /* \"sendtosend.sol\":813:828  getInfoByWallet */\n      0x03\n        /* \"sendtosend.sol\":813:835  getInfoByWallet[_addr] */\n      0x00\n        /* \"sendtosend.sol\":829:834  _addr */\n      dup9\n        /* \"sendtosend.sol\":813:835  getInfoByWallet[_addr] */\n      0xffffffffffffffffffffffffffffffffffffffff\n      and\n      0xffffffffffffffffffffffffffffffffffffffff\n      and\n      dup2\n      mstore\n      0x20\n      add\n      swap1\n      dup2\n      mstore\n      0x20\n      add\n      0x00\n      keccak256\n        /* \"sendtosend.sol\":813:841  getInfoByWallet[_addr].major */\n      0x02\n      add\n        /* \"sendtosend.sol\":813:850  getInfoByWallet[_addr].major = _major */\n      swap1\n      dup1\n      mload\n      swap1\n      0x20\n      add\n      swap1\n      tag_23\n      swap3\n      swap2\n      swap1\n      tag_22\n      jump\t// in\n    tag_23:\n      pop\n        /* \"sendtosend.sol\":890:894  _gpa */\n      dup2\n        /* \"sendtosend.sol\":861:876  getInfoByWallet */\n      0x03\n        /* \"sendtosend.sol\":861:883  getInfoByWallet[_addr] */\n      0x00\n        /* \"sendtosend.sol\":877:882  _addr */\n      dup9\n        /* \"sendtosend.sol\":861:883  getInfoByWallet[_addr] */\n      0xffffffffffffffffffffffffffffffffffffffff\n      and\n      0xffffffffffffffffffffffffffffffffffffffff\n      and\n      dup2\n      mstore\n      0x20\n      add\n      swap1\n      dup2\n      mstore\n      0x20\n      add\n      0x00\n      keccak256\n        /* \"sendtosend.sol\":861:887  getInfoByWallet[_addr].gpa */\n      0x03\n      add\n        /* \"sendtosend.sol\":861:894  getInfoByWallet[_addr].gpa = _gpa */\n      dup2\n      swap1\n      sstore\n      pop\n        /* \"sendtosend.sol\":938:946  _company */\n      dup1\n        /* \"sendtosend.sol\":905:920  getInfoByWallet */\n      0x03\n        /* \"sendtosend.sol\":905:927  getInfoByWallet[_addr] */\n      0x00\n        /* \"sendtosend.sol\":921:926  _addr */\n      dup9\n        /* \"sendtosend.sol\":905:927  getInfoByWallet[_addr] */\n      0xffffffffffffffffffffffffffffffffffffffff\n      and\n      0xffffffffffffffffffffffffffffffffffffffff\n      and\n      dup2\n      mstore\n      0x20\n      add\n      swap1\n      dup2\n      mstore\n      0x20\n      add\n      0x00\n      keccak256\n        /* \"sendtosend.sol\":905:935  getInfoByWallet[_addr].company */\n      0x04\n      add\n        /* \"sendtosend.sol\":905:946  getInfoByWallet[_addr].company = _company */\n      swap1\n      dup1\n      mload\n      swap1\n      0x20\n      add\n      swap1\n      tag_24\n      swap3\n      swap2\n      swap1\n      tag_22\n      jump\t// in\n    tag_24:\n      pop\n        /* \"sendtosend.sol\":990:995  _addr */\n      dup6\n        /* \"sendtosend.sol\":990:1003  _addr.balance */\n      0xffffffffffffffffffffffffffffffffffffffff\n      and\n      balance\n        /* \"sendtosend.sol\":957:972  getInfoByWallet */\n      0x03\n        /* \"sendtosend.sol\":957:979  getInfoByWallet[_addr] */\n      0x00\n        /* \"sendtosend.sol\":973:978  _addr */\n      dup9\n        /* \"sendtosend.sol\":957:979  getInfoByWallet[_addr] */\n      0xffffffffffffffffffffffffffffffffffffffff\n      and\n      0xffffffffffffffffffffffffffffffffffffffff\n      and\n      dup2\n      mstore\n      0x20\n      add\n      swap1\n      dup2\n      mstore\n      0x20\n      add\n      0x00\n      keccak256\n        /* \"sendtosend.sol\":957:987  getInfoByWallet[_addr].balance */\n      0x05\n      add\n        /* \"sendtosend.sol\":957:1003  getInfoByWallet[_addr].balance = _addr.balance */\n      dup2\n      swap1\n      sstore\n      pop\n        /* \"sendtosend.sol\":552:1011  function setInfo(address _addr, string memory _name, uint256 _StudentID, string memory _major, uint256 _gpa, string memory _company) public payable {\r... */\n      pop\n      pop\n      pop\n      pop\n      pop\n      pop\n      jump\t// out\n        /* \"sendtosend.sol\":493:543  mapping(address => Student) public getInfoByWallet */\n    tag_13:\n      mstore(0x20, 0x03)\n      dup1\n      0x00\n      mstore\n      keccak256(0x00, 0x40)\n      0x00\n      swap2\n      pop\n      swap1\n      pop\n      dup1\n      0x00\n      add\n      dup1\n      sload\n      tag_25\n      swap1\n      tag_26\n      jump\t// in\n    tag_25:\n      dup1\n      0x1f\n      add\n      0x20\n      dup1\n      swap2\n      div\n      mul\n      0x20\n      add\n      mload(0x40)\n      swap1\n      dup2\n      add\n      0x40\n      mstore\n      dup1\n      swap3\n      swap2\n      swap1\n      dup2\n      dup2\n      mstore\n      0x20\n      add\n      dup3\n      dup1\n      sload\n      tag_27\n      swap1\n      tag_26\n      jump\t// in\n    tag_27:\n      dup1\n      iszero\n      tag_28\n      jumpi\n      dup1\n      0x1f\n      lt\n      tag_29\n      jumpi\n      0x0100\n      dup1\n      dup4\n      sload\n      div\n      mul\n      dup4\n      mstore\n      swap2\n      0x20\n      add\n      swap2\n      jump(tag_28)\n    tag_29:\n      dup3\n      add\n      swap2\n      swap1\n      0x00\n      mstore\n      keccak256(0x00, 0x20)\n      swap1\n    tag_30:\n      dup2\n      sload\n      dup2\n      mstore\n      swap1\n      0x01\n      add\n      swap1\n      0x20\n      add\n      dup1\n      dup4\n      gt\n      tag_30\n      jumpi\n      dup3\n      swap1\n      sub\n      0x1f\n      and\n      dup3\n      add\n      swap2\n    tag_28:\n      pop\n      pop\n      pop\n      pop\n      pop\n      swap1\n      dup1\n      0x01\n      add\n      sload\n      swap1\n      dup1\n      0x02\n      add\n      dup1\n      sload\n      tag_31\n      swap1\n      tag_26\n      jump\t// in\n    tag_31:\n      dup1\n      0x1f\n      add\n      0x20\n      dup1\n      swap2\n      div\n      mul\n      0x20\n      add\n      mload(0x40)\n      swap1\n      dup2\n      add\n      0x40\n      mstore\n      dup1\n      swap3\n      swap2\n      swap1\n      dup2\n      dup2\n      mstore\n      0x20\n      add\n      dup3\n      dup1\n      sload\n      tag_32\n      swap1\n      tag_26\n      jump\t// in\n    tag_32:\n      dup1\n      iszero\n      tag_33\n      jumpi\n      dup1\n      0x1f\n      lt\n      tag_34\n      jumpi\n      0x0100\n      dup1\n      dup4\n      sload\n      div\n      mul\n      dup4\n      mstore\n      swap2\n      0x20\n      add\n      swap2\n      jump(tag_33)\n    tag_34:\n      dup3\n      add\n      swap2\n      swap1\n      0x00\n      mstore\n      keccak256(0x00, 0x20)\n      swap1\n    tag_35:\n      dup2\n      sload\n      dup2\n      mstore\n      swap1\n      0x01\n      add\n      swap1\n      0x20\n      add\n      dup1\n      dup4\n      gt\n      tag_35\n      jumpi\n      dup3\n      swap1\n      sub\n      0x1f\n      and\n      dup3\n      add\n      swap2\n    tag_33:\n      pop\n      pop\n      pop\n      pop\n      pop\n      swap1\n      dup1\n      0x03\n      add\n      sload\n      swap1\n      dup1\n      0x04\n      add\n      dup1\n      sload\n      tag_36\n      swap1\n      tag_26\n      jump\t// in\n    tag_36:\n      dup1\n      0x1f\n      add\n      0x20\n      dup1\n      swap2\n      div\n      mul\n      0x20\n      add\n      mload(0x40)\n      swap1\n      dup2\n      add\n      0x40\n      mstore\n      dup1\n      swap3\n      swap2\n      swap1\n      dup2\n      dup2\n      mstore\n      0x20\n      add\n      dup3\n      dup1\n      sload\n      tag_37\n      swap1\n      tag_26\n      jump\t// in\n    tag_37:\n      dup1\n      iszero\n      tag_38\n      jumpi\n      dup1\n      0x1f\n      lt\n      tag_39\n      jumpi\n      0x0100\n      dup1\n      dup4\n      sload\n      div\n      mul\n      dup4\n      mstore\n      swap2\n      0x20\n      add\n      swap2\n      jump(tag_38)\n    tag_39:\n      dup3\n      add\n      swap2\n      swap1\n      0x00\n      mstore\n      keccak256(0x00, 0x20)\n      swap1\n    tag_40:\n      dup2\n      sload\n      dup2\n      mstore\n      swap1\n      0x01\n      add\n      swap1\n      0x20\n      add\n      dup1\n      dup4\n      gt\n      tag_40\n      jumpi\n      dup3\n      swap1\n      sub\n      0x1f\n      and\n      dup3\n      add\n      swap2\n    tag_38:\n      pop\n      pop\n      pop\n      pop\n      pop\n      swap1\n      dup1\n      0x05\n      add\n      sload\n      swap1\n      pop\n      dup7\n      jump\t// out\n        /* \"sendtosend.sol\":1019:1314  function send(address receiver, uint amount) public payable {\r... */\n    tag_19:\n        /* \"sendtosend.sol\":1132:1138  amount */\n      dup1\n        /* \"sendtosend.sol\":1094:1109  getInfoByWallet */\n      0x03\n        /* \"sendtosend.sol\":1094:1121  getInfoByWallet[msg.sender] */\n      0x00\n        /* \"sendtosend.sol\":1110:1120  msg.sender */\n      caller\n        /* \"sendtosend.sol\":1094:1121  getInfoByWallet[msg.sender] */\n      0xffffffffffffffffffffffffffffffffffffffff\n      and\n      0xffffffffffffffffffffffffffffffffffffffff\n      and\n      dup2\n      mstore\n      0x20\n      add\n      swap1\n      dup2\n      mstore\n      0x20\n      add\n      0x00\n      keccak256\n        /* \"sendtosend.sol\":1094:1129  getInfoByWallet[msg.sender].balance */\n      0x05\n      add\n      sload\n        /* \"sendtosend.sol\":1094:1138  getInfoByWallet[msg.sender].balance < amount */\n      lt\n        /* \"sendtosend.sol\":1090:1147  if (getInfoByWallet[msg.sender].balance < amount) return; */\n      iszero\n      tag_42\n      jumpi\n        /* \"sendtosend.sol\":1140:1147  return; */\n      jump(tag_41)\n        /* \"sendtosend.sol\":1090:1147  if (getInfoByWallet[msg.sender].balance < amount) return; */\n    tag_42:\n        /* \"sendtosend.sol\":1196:1202  amount */\n      dup1\n        /* \"sendtosend.sol\":1157:1172  getInfoByWallet */\n      0x03\n        /* \"sendtosend.sol\":1157:1184  getInfoByWallet[msg.sender] */\n      0x00\n        /* \"sendtosend.sol\":1173:1183  msg.sender */\n      caller\n        /* \"sendtosend.sol\":1157:1184  getInfoByWallet[msg.sender] */\n      0xffffffffffffffffffffffffffffffffffffffff\n      and\n      0xffffffffffffffffffffffffffffffffffffffff\n      and\n      dup2\n      mstore\n      0x20\n      add\n      swap1\n      dup2\n      mstore\n      0x20\n      add\n      0x00\n      keccak256\n        /* \"sendtosend.sol\":1157:1192  getInfoByWallet[msg.sender].balance */\n      0x05\n      add\n      0x00\n        /* \"sendtosend.sol\":1157:1202  getInfoByWallet[msg.sender].balance -= amount */\n      dup3\n      dup3\n      sload\n      tag_43\n      swap2\n      swap1\n      tag_44\n      jump\t// in\n    tag_43:\n      swap3\n      pop\n      pop\n      dup2\n      swap1\n      sstore\n      pop\n        /* \"sendtosend.sol\":1250:1256  amount */\n      dup1\n        /* \"sendtosend.sol\":1213:1228  getInfoByWallet */\n      0x03\n        /* \"sendtosend.sol\":1213:1238  getInfoByWallet[receiver] */\n      0x00\n        /* \"sendtosend.sol\":1229:1237  receiver */\n      dup5\n        /* \"sendtosend.sol\":1213:1238  getInfoByWallet[receiver] */\n      0xffffffffffffffffffffffffffffffffffffffff\n      and\n      0xffffffffffffffffffffffffffffffffffffffff\n      and\n      dup2\n      mstore\n      0x20\n      add\n      swap1\n      dup2\n      mstore\n      0x20\n      add\n      0x00\n      keccak256\n        /* \"sendtosend.sol\":1213:1246  getInfoByWallet[receiver].balance */\n      0x05\n      add\n      0x00\n        /* \"sendtosend.sol\":1213:1256  getInfoByWallet[receiver].balance += amount */\n      dup3\n      dup3\n      sload\n      tag_45\n      swap2\n      swap1\n      tag_46\n      jump\t// in\n    tag_45:\n      swap3\n      pop\n      pop\n      dup2\n      swap1\n      sstore\n      pop\n        /* \"sendtosend.sol\":1272:1306  Sent(msg.sender, receiver, amount) */\n      0x3990db2d31862302a685e8086b5755072a6e2b5b780af1ee81ece35ee3cd3345\n        /* \"sendtosend.sol\":1277:1287  msg.sender */\n      caller\n        /* \"sendtosend.sol\":1289:1297  receiver */\n      dup4\n        /* \"sendtosend.sol\":1299:1305  amount */\n      dup4\n        /* \"sendtosend.sol\":1272:1306  Sent(msg.sender, receiver, amount) */\n      mload(0x40)\n      tag_47\n      swap4\n      swap3\n      swap2\n      swap1\n      tag_48\n      jump\t// in\n    tag_47:\n      mload(0x40)\n      dup1\n      swap2\n      sub\n      swap1\n      log1\n        /* \"sendtosend.sol\":1019:1314  function send(address receiver, uint amount) public payable {\r... */\n    tag_41:\n      pop\n      pop\n      jump\t// out\n    tag_22:\n      dup3\n      dup1\n      sload\n      tag_49\n      swap1\n      tag_26\n      jump\t// in\n    tag_49:\n      swap1\n      0x00\n      mstore\n      keccak256(0x00, 0x20)\n      swap1\n      0x1f\n      add\n      0x20\n      swap1\n      div\n      dup2\n      add\n      swap3\n      dup3\n      tag_51\n      jumpi\n      0x00\n      dup6\n      sstore\n      jump(tag_50)\n    tag_51:\n      dup3\n      0x1f\n      lt\n      tag_52\n      jumpi\n      dup1\n      mload\n      not(0xff)\n      and\n      dup4\n      dup1\n      add\n      or\n      dup6\n      sstore\n      jump(tag_50)\n    tag_52:\n      dup3\n      dup1\n      add\n      0x01\n      add\n      dup6\n      sstore\n      dup3\n      iszero\n      tag_50\n      jumpi\n      swap2\n      dup3\n      add\n    tag_53:\n      dup3\n      dup2\n      gt\n      iszero\n      tag_54\n      jumpi\n      dup3\n      mload\n      dup3\n      sstore\n      swap2\n      0x20\n      add\n      swap2\n      swap1\n      0x01\n      add\n      swap1\n      jump(tag_53)\n    tag_54:\n    tag_50:\n      pop\n      swap1\n      pop\n      tag_55\n      swap2\n      swap1\n      tag_56\n      jump\t// in\n    tag_55:\n      pop\n      swap1\n      jump\t// out\n    tag_56:\n    tag_57:\n      dup1\n      dup3\n      gt\n      iszero\n      tag_58\n      jumpi\n      0x00\n      dup2\n      0x00\n      swap1\n      sstore\n      pop\n      0x01\n      add\n      jump(tag_57)\n    tag_58:\n      pop\n      swap1\n      jump\t// out\n        /* \"#utility.yul\":7:419   */\n    tag_60:\n        /* \"#utility.yul\":85:90   */\n      0x00\n        /* \"#utility.yul\":110:176   */\n      tag_62\n        /* \"#utility.yul\":126:175   */\n      tag_63\n        /* \"#utility.yul\":168:174   */\n      dup5\n        /* \"#utility.yul\":126:175   */\n      tag_64\n      jump\t// in\n    tag_63:\n        /* \"#utility.yul\":110:176   */\n      tag_65\n      jump\t// in\n    tag_62:\n        /* \"#utility.yul\":101:176   */\n      swap1\n      pop\n        /* \"#utility.yul\":199:205   */\n      dup3\n        /* \"#utility.yul\":192:197   */\n      dup2\n        /* \"#utility.yul\":185:206   */\n      mstore\n        /* \"#utility.yul\":237:241   */\n      0x20\n        /* \"#utility.yul\":230:235   */\n      dup2\n        /* \"#utility.yul\":226:242   */\n      add\n        /* \"#utility.yul\":275:278   */\n      dup5\n        /* \"#utility.yul\":266:272   */\n      dup5\n        /* \"#utility.yul\":261:264   */\n      dup5\n        /* \"#utility.yul\":257:273   */\n      add\n        /* \"#utility.yul\":254:279   */\n      gt\n        /* \"#utility.yul\":251:363   */\n      iszero\n      tag_66\n      jumpi\n        /* \"#utility.yul\":282:361   */\n      tag_67\n      tag_68\n      jump\t// in\n    tag_67:\n        /* \"#utility.yul\":251:363   */\n    tag_66:\n        /* \"#utility.yul\":372:413   */\n      tag_69\n        /* \"#utility.yul\":406:412   */\n      dup5\n        /* \"#utility.yul\":401:404   */\n      dup3\n        /* \"#utility.yul\":396:399   */\n      dup6\n        /* \"#utility.yul\":372:413   */\n      tag_70\n      jump\t// in\n    tag_69:\n        /* \"#utility.yul\":91:419   */\n      pop\n        /* \"#utility.yul\":7:419   */\n      swap4\n      swap3\n      pop\n      pop\n      pop\n      jump\t// out\n        /* \"#utility.yul\":425:564   */\n    tag_71:\n        /* \"#utility.yul\":471:476   */\n      0x00\n        /* \"#utility.yul\":509:515   */\n      dup2\n        /* \"#utility.yul\":496:516   */\n      calldataload\n        /* \"#utility.yul\":487:516   */\n      swap1\n      pop\n        /* \"#utility.yul\":525:558   */\n      tag_73\n        /* \"#utility.yul\":552:557   */\n      dup2\n        /* \"#utility.yul\":525:558   */\n      tag_74\n      jump\t// in\n    tag_73:\n        /* \"#utility.yul\":425:564   */\n      swap3\n      swap2\n      pop\n      pop\n      jump\t// out\n        /* \"#utility.yul\":584:924   */\n    tag_75:\n        /* \"#utility.yul\":640:645   */\n      0x00\n        /* \"#utility.yul\":689:692   */\n      dup3\n        /* \"#utility.yul\":682:686   */\n      0x1f\n        /* \"#utility.yul\":674:680   */\n      dup4\n        /* \"#utility.yul\":670:687   */\n      add\n        /* \"#utility.yul\":666:693   */\n      slt\n        /* \"#utility.yul\":656:778   */\n      tag_77\n      jumpi\n        /* \"#utility.yul\":697:776   */\n      tag_78\n      tag_79\n      jump\t// in\n    tag_78:\n        /* \"#utility.yul\":656:778   */\n    tag_77:\n        /* \"#utility.yul\":814:820   */\n      dup2\n        /* \"#utility.yul\":801:821   */\n      calldataload\n        /* \"#utility.yul\":839:918   */\n      tag_80\n        /* \"#utility.yul\":914:917   */\n      dup5\n        /* \"#utility.yul\":906:912   */\n      dup3\n        /* \"#utility.yul\":899:903   */\n      0x20\n        /* \"#utility.yul\":891:897   */\n      dup7\n        /* \"#utility.yul\":887:904   */\n      add\n        /* \"#utility.yul\":839:918   */\n      tag_60\n      jump\t// in\n    tag_80:\n        /* \"#utility.yul\":830:918   */\n      swap2\n      pop\n        /* \"#utility.yul\":646:924   */\n      pop\n        /* \"#utility.yul\":584:924   */\n      swap3\n      swap2\n      pop\n      pop\n      jump\t// out\n        /* \"#utility.yul\":930:1069   */\n    tag_81:\n        /* \"#utility.yul\":976:981   */\n      0x00\n        /* \"#utility.yul\":1014:1020   */\n      dup2\n        /* \"#utility.yul\":1001:1021   */\n      calldataload\n        /* \"#utility.yul\":992:1021   */\n      swap1\n      pop\n        /* \"#utility.yul\":1030:1063   */\n      tag_83\n        /* \"#utility.yul\":1057:1062   */\n      dup2\n        /* \"#utility.yul\":1030:1063   */\n      tag_84\n      jump\t// in\n    tag_83:\n        /* \"#utility.yul\":930:1069   */\n      swap3\n      swap2\n      pop\n      pop\n      jump\t// out\n        /* \"#utility.yul\":1075:1404   */\n    tag_12:\n        /* \"#utility.yul\":1134:1140   */\n      0x00\n        /* \"#utility.yul\":1183:1185   */\n      0x20\n        /* \"#utility.yul\":1171:1180   */\n      dup3\n        /* \"#utility.yul\":1162:1169   */\n      dup5\n        /* \"#utility.yul\":1158:1181   */\n      sub\n        /* \"#utility.yul\":1154:1186   */\n      slt\n        /* \"#utility.yul\":1151:1270   */\n      iszero\n      tag_86\n      jumpi\n        /* \"#utility.yul\":1189:1268   */\n      tag_87\n      tag_88\n      jump\t// in\n    tag_87:\n        /* \"#utility.yul\":1151:1270   */\n    tag_86:\n        /* \"#utility.yul\":1309:1310   */\n      0x00\n        /* \"#utility.yul\":1334:1387   */\n      tag_89\n        /* \"#utility.yul\":1379:1386   */\n      dup5\n        /* \"#utility.yul\":1370:1376   */\n      dup3\n        /* \"#utility.yul\":1359:1368   */\n      dup6\n        /* \"#utility.yul\":1355:1377   */\n      add\n        /* \"#utility.yul\":1334:1387   */\n      tag_71\n      jump\t// in\n    tag_89:\n        /* \"#utility.yul\":1324:1387   */\n      swap2\n      pop\n        /* \"#utility.yul\":1280:1397   */\n      pop\n        /* \"#utility.yul\":1075:1404   */\n      swap3\n      swap2\n      pop\n      pop\n      jump\t// out\n        /* \"#utility.yul\":1410:3007   */\n    tag_7:\n        /* \"#utility.yul\":1544:1550   */\n      0x00\n        /* \"#utility.yul\":1552:1558   */\n      dup1\n        /* \"#utility.yul\":1560:1566   */\n      0x00\n        /* \"#utility.yul\":1568:1574   */\n      dup1\n        /* \"#utility.yul\":1576:1582   */\n      0x00\n        /* \"#utility.yul\":1584:1590   */\n      dup1\n        /* \"#utility.yul\":1633:1636   */\n      0xc0\n        /* \"#utility.yul\":1621:1630   */\n      dup8\n        /* \"#utility.yul\":1612:1619   */\n      dup10\n        /* \"#utility.yul\":1608:1631   */\n      sub\n        /* \"#utility.yul\":1604:1637   */\n      slt\n        /* \"#utility.yul\":1601:1721   */\n      iszero\n      tag_91\n      jumpi\n        /* \"#utility.yul\":1640:1719   */\n      tag_92\n      tag_88\n      jump\t// in\n    tag_92:\n        /* \"#utility.yul\":1601:1721   */\n    tag_91:\n        /* \"#utility.yul\":1760:1761   */\n      0x00\n        /* \"#utility.yul\":1785:1838   */\n      tag_93\n        /* \"#utility.yul\":1830:1837   */\n      dup10\n        /* \"#utility.yul\":1821:1827   */\n      dup3\n        /* \"#utility.yul\":1810:1819   */\n      dup11\n        /* \"#utility.yul\":1806:1828   */\n      add\n        /* \"#utility.yul\":1785:1838   */\n      tag_71\n      jump\t// in\n    tag_93:\n        /* \"#utility.yul\":1775:1838   */\n      swap7\n      pop\n        /* \"#utility.yul\":1731:1848   */\n      pop\n        /* \"#utility.yul\":1915:1917   */\n      0x20\n        /* \"#utility.yul\":1904:1913   */\n      dup8\n        /* \"#utility.yul\":1900:1918   */\n      add\n        /* \"#utility.yul\":1887:1919   */\n      calldataload\n        /* \"#utility.yul\":1946:1964   */\n      0xffffffffffffffff\n        /* \"#utility.yul\":1938:1944   */\n      dup2\n        /* \"#utility.yul\":1935:1965   */\n      gt\n        /* \"#utility.yul\":1932:2049   */\n      iszero\n      tag_94\n      jumpi\n        /* \"#utility.yul\":1968:2047   */\n      tag_95\n      tag_96\n      jump\t// in\n    tag_95:\n        /* \"#utility.yul\":1932:2049   */\n    tag_94:\n        /* \"#utility.yul\":2073:2136   */\n      tag_97\n        /* \"#utility.yul\":2128:2135   */\n      dup10\n        /* \"#utility.yul\":2119:2125   */\n      dup3\n        /* \"#utility.yul\":2108:2117   */\n      dup11\n        /* \"#utility.yul\":2104:2126   */\n      add\n        /* \"#utility.yul\":2073:2136   */\n      tag_75\n      jump\t// in\n    tag_97:\n        /* \"#utility.yul\":2063:2136   */\n      swap6\n      pop\n        /* \"#utility.yul\":1858:2146   */\n      pop\n        /* \"#utility.yul\":2185:2187   */\n      0x40\n        /* \"#utility.yul\":2211:2264   */\n      tag_98\n        /* \"#utility.yul\":2256:2263   */\n      dup10\n        /* \"#utility.yul\":2247:2253   */\n      dup3\n        /* \"#utility.yul\":2236:2245   */\n      dup11\n        /* \"#utility.yul\":2232:2254   */\n      add\n        /* \"#utility.yul\":2211:2264   */\n      tag_81\n      jump\t// in\n    tag_98:\n        /* \"#utility.yul\":2201:2264   */\n      swap5\n      pop\n        /* \"#utility.yul\":2156:2274   */\n      pop\n        /* \"#utility.yul\":2341:2343   */\n      0x60\n        /* \"#utility.yul\":2330:2339   */\n      dup8\n        /* \"#utility.yul\":2326:2344   */\n      add\n        /* \"#utility.yul\":2313:2345   */\n      calldataload\n        /* \"#utility.yul\":2372:2390   */\n      0xffffffffffffffff\n        /* \"#utility.yul\":2364:2370   */\n      dup2\n        /* \"#utility.yul\":2361:2391   */\n      gt\n        /* \"#utility.yul\":2358:2475   */\n      iszero\n      tag_99\n      jumpi\n        /* \"#utility.yul\":2394:2473   */\n      tag_100\n      tag_96\n      jump\t// in\n    tag_100:\n        /* \"#utility.yul\":2358:2475   */\n    tag_99:\n        /* \"#utility.yul\":2499:2562   */\n      tag_101\n        /* \"#utility.yul\":2554:2561   */\n      dup10\n        /* \"#utility.yul\":2545:2551   */\n      dup3\n        /* \"#utility.yul\":2534:2543   */\n      dup11\n        /* \"#utility.yul\":2530:2552   */\n      add\n        /* \"#utility.yul\":2499:2562   */\n      tag_75\n      jump\t// in\n    tag_101:\n        /* \"#utility.yul\":2489:2562   */\n      swap4\n      pop\n        /* \"#utility.yul\":2284:2572   */\n      pop\n        /* \"#utility.yul\":2611:2614   */\n      0x80\n        /* \"#utility.yul\":2638:2691   */\n      tag_102\n        /* \"#utility.yul\":2683:2690   */\n      dup10\n        /* \"#utility.yul\":2674:2680   */\n      dup3\n        /* \"#utility.yul\":2663:2672   */\n      dup11\n        /* \"#utility.yul\":2659:2681   */\n      add\n        /* \"#utility.yul\":2638:2691   */\n      tag_81\n      jump\t// in\n    tag_102:\n        /* \"#utility.yul\":2628:2691   */\n      swap3\n      pop\n        /* \"#utility.yul\":2582:2701   */\n      pop\n        /* \"#utility.yul\":2768:2771   */\n      0xa0\n        /* \"#utility.yul\":2757:2766   */\n      dup8\n        /* \"#utility.yul\":2753:2772   */\n      add\n        /* \"#utility.yul\":2740:2773   */\n      calldataload\n        /* \"#utility.yul\":2800:2818   */\n      0xffffffffffffffff\n        /* \"#utility.yul\":2792:2798   */\n      dup2\n        /* \"#utility.yul\":2789:2819   */\n      gt\n        /* \"#utility.yul\":2786:2903   */\n      iszero\n      tag_103\n      jumpi\n        /* \"#utility.yul\":2822:2901   */\n      tag_104\n      tag_96\n      jump\t// in\n    tag_104:\n        /* \"#utility.yul\":2786:2903   */\n    tag_103:\n        /* \"#utility.yul\":2927:2990   */\n      tag_105\n        /* \"#utility.yul\":2982:2989   */\n      dup10\n        /* \"#utility.yul\":2973:2979   */\n      dup3\n        /* \"#utility.yul\":2962:2971   */\n      dup11\n        /* \"#utility.yul\":2958:2980   */\n      add\n        /* \"#utility.yul\":2927:2990   */\n      tag_75\n      jump\t// in\n    tag_105:\n        /* \"#utility.yul\":2917:2990   */\n      swap2\n      pop\n        /* \"#utility.yul\":2711:3000   */\n      pop\n        /* \"#utility.yul\":1410:3007   */\n      swap3\n      swap6\n      pop\n      swap3\n      swap6\n      pop\n      swap3\n      swap6\n      jump\t// out\n        /* \"#utility.yul\":3013:3487   */\n    tag_18:\n        /* \"#utility.yul\":3081:3087   */\n      0x00\n        /* \"#utility.yul\":3089:3095   */\n      dup1\n        /* \"#utility.yul\":3138:3140   */\n      0x40\n        /* \"#utility.yul\":3126:3135   */\n      dup4\n        /* \"#utility.yul\":3117:3124   */\n      dup6\n        /* \"#utility.yul\":3113:3136   */\n      sub\n        /* \"#utility.yul\":3109:3141   */\n      slt\n        /* \"#utility.yul\":3106:3225   */\n      iszero\n      tag_107\n      jumpi\n        /* \"#utility.yul\":3144:3223   */\n      tag_108\n      tag_88\n      jump\t// in\n    tag_108:\n        /* \"#utility.yul\":3106:3225   */\n    tag_107:\n        /* \"#utility.yul\":3264:3265   */\n      0x00\n        /* \"#utility.yul\":3289:3342   */\n      tag_109\n        /* \"#utility.yul\":3334:3341   */\n      dup6\n        /* \"#utility.yul\":3325:3331   */\n      dup3\n        /* \"#utility.yul\":3314:3323   */\n      dup7\n        /* \"#utility.yul\":3310:3332   */\n      add\n        /* \"#utility.yul\":3289:3342   */\n      tag_71\n      jump\t// in\n    tag_109:\n        /* \"#utility.yul\":3279:3342   */\n      swap3\n      pop\n        /* \"#utility.yul\":3235:3352   */\n      pop\n        /* \"#utility.yul\":3391:3393   */\n      0x20\n        /* \"#utility.yul\":3417:3470   */\n      tag_110\n        /* \"#utility.yul\":3462:3469   */\n      dup6\n        /* \"#utility.yul\":3453:3459   */\n      dup3\n        /* \"#utility.yul\":3442:3451   */\n      dup7\n        /* \"#utility.yul\":3438:3460   */\n      add\n        /* \"#utility.yul\":3417:3470   */\n      tag_81\n      jump\t// in\n    tag_110:\n        /* \"#utility.yul\":3407:3470   */\n      swap2\n      pop\n        /* \"#utility.yul\":3362:3480   */\n      pop\n        /* \"#utility.yul\":3013:3487   */\n      swap3\n      pop\n      swap3\n      swap1\n      pop\n      jump\t// out\n        /* \"#utility.yul\":3493:3611   */\n    tag_111:\n        /* \"#utility.yul\":3580:3604   */\n      tag_113\n        /* \"#utility.yul\":3598:3603   */\n      dup2\n        /* \"#utility.yul\":3580:3604   */\n      tag_114\n      jump\t// in\n    tag_113:\n        /* \"#utility.yul\":3575:3578   */\n      dup3\n        /* \"#utility.yul\":3568:3605   */\n      mstore\n        /* \"#utility.yul\":3493:3611   */\n      pop\n      pop\n      jump\t// out\n        /* \"#utility.yul\":3617:3981   */\n    tag_115:\n        /* \"#utility.yul\":3705:3708   */\n      0x00\n        /* \"#utility.yul\":3733:3772   */\n      tag_117\n        /* \"#utility.yul\":3766:3771   */\n      dup3\n        /* \"#utility.yul\":3733:3772   */\n      tag_118\n      jump\t// in\n    tag_117:\n        /* \"#utility.yul\":3788:3859   */\n      tag_119\n        /* \"#utility.yul\":3852:3858   */\n      dup2\n        /* \"#utility.yul\":3847:3850   */\n      dup6\n        /* \"#utility.yul\":3788:3859   */\n      tag_120\n      jump\t// in\n    tag_119:\n        /* \"#utility.yul\":3781:3859   */\n      swap4\n      pop\n        /* \"#utility.yul\":3868:3920   */\n      tag_121\n        /* \"#utility.yul\":3913:3919   */\n      dup2\n        /* \"#utility.yul\":3908:3911   */\n      dup6\n        /* \"#utility.yul\":3901:3905   */\n      0x20\n        /* \"#utility.yul\":3894:3899   */\n      dup7\n        /* \"#utility.yul\":3890:3906   */\n      add\n        /* \"#utility.yul\":3868:3920   */\n      tag_122\n      jump\t// in\n    tag_121:\n        /* \"#utility.yul\":3945:3974   */\n      tag_123\n        /* \"#utility.yul\":3967:3973   */\n      dup2\n        /* \"#utility.yul\":3945:3974   */\n      tag_124\n      jump\t// in\n    tag_123:\n        /* \"#utility.yul\":3940:3943   */\n      dup5\n        /* \"#utility.yul\":3936:3975   */\n      add\n        /* \"#utility.yul\":3929:3975   */\n      swap2\n      pop\n        /* \"#utility.yul\":3709:3981   */\n      pop\n        /* \"#utility.yul\":3617:3981   */\n      swap3\n      swap2\n      pop\n      pop\n      jump\t// out\n        /* \"#utility.yul\":3987:4105   */\n    tag_125:\n        /* \"#utility.yul\":4074:4098   */\n      tag_127\n        /* \"#utility.yul\":4092:4097   */\n      dup2\n        /* \"#utility.yul\":4074:4098   */\n      tag_128\n      jump\t// in\n    tag_127:\n        /* \"#utility.yul\":4069:4072   */\n      dup3\n        /* \"#utility.yul\":4062:4099   */\n      mstore\n        /* \"#utility.yul\":3987:4105   */\n      pop\n      pop\n      jump\t// out\n        /* \"#utility.yul\":4111:4553   */\n    tag_48:\n        /* \"#utility.yul\":4260:4264   */\n      0x00\n        /* \"#utility.yul\":4298:4300   */\n      0x60\n        /* \"#utility.yul\":4287:4296   */\n      dup3\n        /* \"#utility.yul\":4283:4301   */\n      add\n        /* \"#utility.yul\":4275:4301   */\n      swap1\n      pop\n        /* \"#utility.yul\":4311:4382   */\n      tag_130\n        /* \"#utility.yul\":4379:4380   */\n      0x00\n        /* \"#utility.yul\":4368:4377   */\n      dup4\n        /* \"#utility.yul\":4364:4381   */\n      add\n        /* \"#utility.yul\":4355:4361   */\n      dup7\n        /* \"#utility.yul\":4311:4382   */\n      tag_111\n      jump\t// in\n    tag_130:\n        /* \"#utility.yul\":4392:4464   */\n      tag_131\n        /* \"#utility.yul\":4460:4462   */\n      0x20\n        /* \"#utility.yul\":4449:4458   */\n      dup4\n        /* \"#utility.yul\":4445:4463   */\n      add\n        /* \"#utility.yul\":4436:4442   */\n      dup6\n        /* \"#utility.yul\":4392:4464   */\n      tag_111\n      jump\t// in\n    tag_131:\n        /* \"#utility.yul\":4474:4546   */\n      tag_132\n        /* \"#utility.yul\":4542:4544   */\n      0x40\n        /* \"#utility.yul\":4531:4540   */\n      dup4\n        /* \"#utility.yul\":4527:4545   */\n      add\n        /* \"#utility.yul\":4518:4524   */\n      dup5\n        /* \"#utility.yul\":4474:4546   */\n      tag_125\n      jump\t// in\n    tag_132:\n        /* \"#utility.yul\":4111:4553   */\n      swap5\n      swap4\n      pop\n      pop\n      pop\n      pop\n      jump\t// out\n        /* \"#utility.yul\":4559:5607   */\n    tag_15:\n        /* \"#utility.yul\":4852:4856   */\n      0x00\n        /* \"#utility.yul\":4890:4893   */\n      0xc0\n        /* \"#utility.yul\":4879:4888   */\n      dup3\n        /* \"#utility.yul\":4875:4894   */\n      add\n        /* \"#utility.yul\":4867:4894   */\n      swap1\n      pop\n        /* \"#utility.yul\":4940:4949   */\n      dup2\n        /* \"#utility.yul\":4934:4938   */\n      dup2\n        /* \"#utility.yul\":4930:4950   */\n      sub\n        /* \"#utility.yul\":4926:4927   */\n      0x00\n        /* \"#utility.yul\":4915:4924   */\n      dup4\n        /* \"#utility.yul\":4911:4928   */\n      add\n        /* \"#utility.yul\":4904:4951   */\n      mstore\n        /* \"#utility.yul\":4968:5046   */\n      tag_134\n        /* \"#utility.yul\":5041:5045   */\n      dup2\n        /* \"#utility.yul\":5032:5038   */\n      dup10\n        /* \"#utility.yul\":4968:5046   */\n      tag_115\n      jump\t// in\n    tag_134:\n        /* \"#utility.yul\":4960:5046   */\n      swap1\n      pop\n        /* \"#utility.yul\":5056:5128   */\n      tag_135\n        /* \"#utility.yul\":5124:5126   */\n      0x20\n        /* \"#utility.yul\":5113:5122   */\n      dup4\n        /* \"#utility.yul\":5109:5127   */\n      add\n        /* \"#utility.yul\":5100:5106   */\n      dup9\n        /* \"#utility.yul\":5056:5128   */\n      tag_125\n      jump\t// in\n    tag_135:\n        /* \"#utility.yul\":5175:5184   */\n      dup2\n        /* \"#utility.yul\":5169:5173   */\n      dup2\n        /* \"#utility.yul\":5165:5185   */\n      sub\n        /* \"#utility.yul\":5160:5162   */\n      0x40\n        /* \"#utility.yul\":5149:5158   */\n      dup4\n        /* \"#utility.yul\":5145:5163   */\n      add\n        /* \"#utility.yul\":5138:5186   */\n      mstore\n        /* \"#utility.yul\":5203:5281   */\n      tag_136\n        /* \"#utility.yul\":5276:5280   */\n      dup2\n        /* \"#utility.yul\":5267:5273   */\n      dup8\n        /* \"#utility.yul\":5203:5281   */\n      tag_115\n      jump\t// in\n    tag_136:\n        /* \"#utility.yul\":5195:5281   */\n      swap1\n      pop\n        /* \"#utility.yul\":5291:5363   */\n      tag_137\n        /* \"#utility.yul\":5359:5361   */\n      0x60\n        /* \"#utility.yul\":5348:5357   */\n      dup4\n        /* \"#utility.yul\":5344:5362   */\n      add\n        /* \"#utility.yul\":5335:5341   */\n      dup7\n        /* \"#utility.yul\":5291:5363   */\n      tag_125\n      jump\t// in\n    tag_137:\n        /* \"#utility.yul\":5411:5420   */\n      dup2\n        /* \"#utility.yul\":5405:5409   */\n      dup2\n        /* \"#utility.yul\":5401:5421   */\n      sub\n        /* \"#utility.yul\":5395:5398   */\n      0x80\n        /* \"#utility.yul\":5384:5393   */\n      dup4\n        /* \"#utility.yul\":5380:5399   */\n      add\n        /* \"#utility.yul\":5373:5422   */\n      mstore\n        /* \"#utility.yul\":5439:5517   */\n      tag_138\n        /* \"#utility.yul\":5512:5516   */\n      dup2\n        /* \"#utility.yul\":5503:5509   */\n      dup6\n        /* \"#utility.yul\":5439:5517   */\n      tag_115\n      jump\t// in\n    tag_138:\n        /* \"#utility.yul\":5431:5517   */\n      swap1\n      pop\n        /* \"#utility.yul\":5527:5600   */\n      tag_139\n        /* \"#utility.yul\":5595:5598   */\n      0xa0\n        /* \"#utility.yul\":5584:5593   */\n      dup4\n        /* \"#utility.yul\":5580:5599   */\n      add\n        /* \"#utility.yul\":5571:5577   */\n      dup5\n        /* \"#utility.yul\":5527:5600   */\n      tag_125\n      jump\t// in\n    tag_139:\n        /* \"#utility.yul\":4559:5607   */\n      swap8\n      swap7\n      pop\n      pop\n      pop\n      pop\n      pop\n      pop\n      pop\n      jump\t// out\n        /* \"#utility.yul\":5613:5742   */\n    tag_65:\n        /* \"#utility.yul\":5647:5653   */\n      0x00\n        /* \"#utility.yul\":5674:5694   */\n      tag_141\n      tag_142\n      jump\t// in\n    tag_141:\n        /* \"#utility.yul\":5664:5694   */\n      swap1\n      pop\n        /* \"#utility.yul\":5703:5736   */\n      tag_143\n        /* \"#utility.yul\":5731:5735   */\n      dup3\n        /* \"#utility.yul\":5723:5729   */\n      dup3\n        /* \"#utility.yul\":5703:5736   */\n      tag_144\n      jump\t// in\n    tag_143:\n        /* \"#utility.yul\":5613:5742   */\n      swap2\n      swap1\n      pop\n      jump\t// out\n        /* \"#utility.yul\":5748:5823   */\n    tag_142:\n        /* \"#utility.yul\":5781:5787   */\n      0x00\n        /* \"#utility.yul\":5814:5816   */\n      0x40\n        /* \"#utility.yul\":5808:5817   */\n      mload\n        /* \"#utility.yul\":5798:5817   */\n      swap1\n      pop\n        /* \"#utility.yul\":5748:5823   */\n      swap1\n      jump\t// out\n        /* \"#utility.yul\":5829:6137   */\n    tag_64:\n        /* \"#utility.yul\":5891:5895   */\n      0x00\n        /* \"#utility.yul\":5981:5999   */\n      0xffffffffffffffff\n        /* \"#utility.yul\":5973:5979   */\n      dup3\n        /* \"#utility.yul\":5970:6000   */\n      gt\n        /* \"#utility.yul\":5967:6023   */\n      iszero\n      tag_147\n      jumpi\n        /* \"#utility.yul\":6003:6021   */\n      tag_148\n      tag_149\n      jump\t// in\n    tag_148:\n        /* \"#utility.yul\":5967:6023   */\n    tag_147:\n        /* \"#utility.yul\":6041:6070   */\n      tag_150\n        /* \"#utility.yul\":6063:6069   */\n      dup3\n        /* \"#utility.yul\":6041:6070   */\n      tag_124\n      jump\t// in\n    tag_150:\n        /* \"#utility.yul\":6033:6070   */\n      swap1\n      pop\n        /* \"#utility.yul\":6125:6129   */\n      0x20\n        /* \"#utility.yul\":6119:6123   */\n      dup2\n        /* \"#utility.yul\":6115:6130   */\n      add\n        /* \"#utility.yul\":6107:6130   */\n      swap1\n      pop\n        /* \"#utility.yul\":5829:6137   */\n      swap2\n      swap1\n      pop\n      jump\t// out\n        /* \"#utility.yul\":6143:6242   */\n    tag_118:\n        /* \"#utility.yul\":6195:6201   */\n      0x00\n        /* \"#utility.yul\":6229:6234   */\n      dup2\n        /* \"#utility.yul\":6223:6235   */\n      mload\n        /* \"#utility.yul\":6213:6235   */\n      swap1\n      pop\n        /* \"#utility.yul\":6143:6242   */\n      swap2\n      swap1\n      pop\n      jump\t// out\n        /* \"#utility.yul\":6248:6417   */\n    tag_120:\n        /* \"#utility.yul\":6332:6343   */\n      0x00\n        /* \"#utility.yul\":6366:6372   */\n      dup3\n        /* \"#utility.yul\":6361:6364   */\n      dup3\n        /* \"#utility.yul\":6354:6373   */\n      mstore\n        /* \"#utility.yul\":6406:6410   */\n      0x20\n        /* \"#utility.yul\":6401:6404   */\n      dup3\n        /* \"#utility.yul\":6397:6411   */\n      add\n        /* \"#utility.yul\":6382:6411   */\n      swap1\n      pop\n        /* \"#utility.yul\":6248:6417   */\n      swap3\n      swap2\n      pop\n      pop\n      jump\t// out\n        /* \"#utility.yul\":6423:6728   */\n    tag_46:\n        /* \"#utility.yul\":6463:6466   */\n      0x00\n        /* \"#utility.yul\":6482:6502   */\n      tag_154\n        /* \"#utility.yul\":6500:6501   */\n      dup3\n        /* \"#utility.yul\":6482:6502   */\n      tag_128\n      jump\t// in\n    tag_154:\n        /* \"#utility.yul\":6477:6502   */\n      swap2\n      pop\n        /* \"#utility.yul\":6516:6536   */\n      tag_155\n        /* \"#utility.yul\":6534:6535   */\n      dup4\n        /* \"#utility.yul\":6516:6536   */\n      tag_128\n      jump\t// in\n    tag_155:\n        /* \"#utility.yul\":6511:6536   */\n      swap3\n      pop\n        /* \"#utility.yul\":6670:6671   */\n      dup3\n        /* \"#utility.yul\":6602:6668   */\n      0xffffffffffffffffffffffffffffffffffffffffffffffffffffffffffffffff\n        /* \"#utility.yul\":6598:6672   */\n      sub\n        /* \"#utility.yul\":6595:6596   */\n      dup3\n        /* \"#utility.yul\":6592:6673   */\n      gt\n        /* \"#utility.yul\":6589:6696   */\n      iszero\n      tag_156\n      jumpi\n        /* \"#utility.yul\":6676:6694   */\n      tag_157\n      tag_158\n      jump\t// in\n    tag_157:\n        /* \"#utility.yul\":6589:6696   */\n    tag_156:\n        /* \"#utility.yul\":6720:6721   */\n      dup3\n        /* \"#utility.yul\":6717:6718   */\n      dup3\n        /* \"#utility.yul\":6713:6722   */\n      add\n        /* \"#utility.yul\":6706:6722   */\n      swap1\n      pop\n        /* \"#utility.yul\":6423:6728   */\n      swap3\n      swap2\n      pop\n      pop\n      jump\t// out\n        /* \"#utility.yul\":6734:6925   */\n    tag_44:\n        /* \"#utility.yul\":6774:6778   */\n      0x00\n        /* \"#utility.yul\":6794:6814   */\n      tag_160\n        /* \"#utility.yul\":6812:6813   */\n      dup3\n        /* \"#utility.yul\":6794:6814   */\n      tag_128\n      jump\t// in\n    tag_160:\n        /* \"#utility.yul\":6789:6814   */\n      swap2\n      pop\n        /* \"#utility.yul\":6828:6848   */\n      tag_161\n        /* \"#utility.yul\":6846:6847   */\n      dup4\n        /* \"#utility.yul\":6828:6848   */\n      tag_128\n      jump\t// in\n    tag_161:\n        /* \"#utility.yul\":6823:6848   */\n      swap3\n      pop\n        /* \"#utility.yul\":6867:6868   */\n      dup3\n        /* \"#utility.yul\":6864:6865   */\n      dup3\n        /* \"#utility.yul\":6861:6869   */\n      lt\n        /* \"#utility.yul\":6858:6892   */\n      iszero\n      tag_162\n      jumpi\n        /* \"#utility.yul\":6872:6890   */\n      tag_163\n      tag_158\n      jump\t// in\n    tag_163:\n        /* \"#utility.yul\":6858:6892   */\n    tag_162:\n        /* \"#utility.yul\":6917:6918   */\n      dup3\n        /* \"#utility.yul\":6914:6915   */\n      dup3\n        /* \"#utility.yul\":6910:6919   */\n      sub\n        /* \"#utility.yul\":6902:6919   */\n      swap1\n      pop\n        /* \"#utility.yul\":6734:6925   */\n      swap3\n      swap2\n      pop\n      pop\n      jump\t// out\n        /* \"#utility.yul\":6931:7027   */\n    tag_114:\n        /* \"#utility.yul\":6968:6975   */\n      0x00\n        /* \"#utility.yul\":6997:7021   */\n      tag_165\n        /* \"#utility.yul\":7015:7020   */\n      dup3\n        /* \"#utility.yul\":6997:7021   */\n      tag_166\n      jump\t// in\n    tag_165:\n        /* \"#utility.yul\":6986:7021   */\n      swap1\n      pop\n        /* \"#utility.yul\":6931:7027   */\n      swap2\n      swap1\n      pop\n      jump\t// out\n        /* \"#utility.yul\":7033:7159   */\n    tag_166:\n        /* \"#utility.yul\":7070:7077   */\n      0x00\n        /* \"#utility.yul\":7110:7152   */\n      0xffffffffffffffffffffffffffffffffffffffff\n        /* \"#utility.yul\":7103:7108   */\n      dup3\n        /* \"#utility.yul\":7099:7153   */\n      and\n        /* \"#utility.yul\":7088:7153   */\n      swap1\n      pop\n        /* \"#utility.yul\":7033:7159   */\n      swap2\n      swap1\n      pop\n      jump\t// out\n        /* \"#utility.yul\":7165:7242   */\n    tag_128:\n        /* \"#utility.yul\":7202:7209   */\n      0x00\n        /* \"#utility.yul\":7231:7236   */\n      dup2\n        /* \"#utility.yul\":7220:7236   */\n      swap1\n      pop\n        /* \"#utility.yul\":7165:7242   */\n      swap2\n      swap1\n      pop\n      jump\t// out\n        /* \"#utility.yul\":7248:7402   */\n    tag_70:\n        /* \"#utility.yul\":7332:7338   */\n      dup3\n        /* \"#utility.yul\":7327:7330   */\n      dup2\n        /* \"#utility.yul\":7322:7325   */\n      dup4\n        /* \"#utility.yul\":7309:7339   */\n      calldatacopy\n        /* \"#utility.yul\":7394:7395   */\n      0x00\n        /* \"#utility.yul\":7385:7391   */\n      dup4\n        /* \"#utility.yul\":7380:7383   */\n      dup4\n        /* \"#utility.yul\":7376:7392   */\n      add\n        /* \"#utility.yul\":7369:7396   */\n      mstore\n        /* \"#utility.yul\":7248:7402   */\n      pop\n      pop\n      pop\n      jump\t// out\n        /* \"#utility.yul\":7408:7715   */\n    tag_122:\n        /* \"#utility.yul\":7476:7477   */\n      0x00\n        /* \"#utility.yul\":7486:7599   */\n    tag_171:\n        /* \"#utility.yul\":7500:7506   */\n      dup4\n        /* \"#utility.yul\":7497:7498   */\n      dup2\n        /* \"#utility.yul\":7494:7507   */\n      lt\n        /* \"#utility.yul\":7486:7599   */\n      iszero\n      tag_173\n      jumpi\n        /* \"#utility.yul\":7585:7586   */\n      dup1\n        /* \"#utility.yul\":7580:7583   */\n      dup3\n        /* \"#utility.yul\":7576:7587   */\n      add\n        /* \"#utility.yul\":7570:7588   */\n      mload\n        /* \"#utility.yul\":7566:7567   */\n      dup2\n        /* \"#utility.yul\":7561:7564   */\n      dup5\n        /* \"#utility.yul\":7557:7568   */\n      add\n        /* \"#utility.yul\":7550:7589   */\n      mstore\n        /* \"#utility.yul\":7522:7524   */\n      0x20\n        /* \"#utility.yul\":7519:7520   */\n      dup2\n        /* \"#utility.yul\":7515:7525   */\n      add\n        /* \"#utility.yul\":7510:7525   */\n      swap1\n      pop\n        /* \"#utility.yul\":7486:7599   */\n      jump(tag_171)\n    tag_173:\n        /* \"#utility.yul\":7617:7623   */\n      dup4\n        /* \"#utility.yul\":7614:7615   */\n      dup2\n        /* \"#utility.yul\":7611:7624   */\n      gt\n        /* \"#utility.yul\":7608:7709   */\n      iszero\n      tag_174\n      jumpi\n        /* \"#utility.yul\":7697:7698   */\n      0x00\n        /* \"#utility.yul\":7688:7694   */\n      dup5\n        /* \"#utility.yul\":7683:7686   */\n      dup5\n        /* \"#utility.yul\":7679:7695   */\n      add\n        /* \"#utility.yul\":7672:7699   */\n      mstore\n        /* \"#utility.yul\":7608:7709   */\n    tag_174:\n        /* \"#utility.yul\":7457:7715   */\n      pop\n        /* \"#utility.yul\":7408:7715   */\n      pop\n      pop\n      pop\n      jump\t// out\n        /* \"#utility.yul\":7721:8041   */\n    tag_26:\n        /* \"#utility.yul\":7765:7771   */\n      0x00\n        /* \"#utility.yul\":7802:7803   */\n      0x02\n        /* \"#utility.yul\":7796:7800   */\n      dup3\n        /* \"#utility.yul\":7792:7804   */\n      div\n        /* \"#utility.yul\":7782:7804   */\n      swap1\n      pop\n        /* \"#utility.yul\":7849:7850   */\n      0x01\n        /* \"#utility.yul\":7843:7847   */\n      dup3\n        /* \"#utility.yul\":7839:7851   */\n      and\n        /* \"#utility.yul\":7870:7888   */\n      dup1\n        /* \"#utility.yul\":7860:7941   */\n      tag_176\n      jumpi\n        /* \"#utility.yul\":7926:7930   */\n      0x7f\n        /* \"#utility.yul\":7918:7924   */\n      dup3\n        /* \"#utility.yul\":7914:7931   */\n      and\n        /* \"#utility.yul\":7904:7931   */\n      swap2\n      pop\n        /* \"#utility.yul\":7860:7941   */\n    tag_176:\n        /* \"#utility.yul\":7988:7990   */\n      0x20\n        /* \"#utility.yul\":7980:7986   */\n      dup3\n        /* \"#utility.yul\":7977:7991   */\n      lt\n        /* \"#utility.yul\":7957:7975   */\n      dup2\n        /* \"#utility.yul\":7954:7992   */\n      eq\n        /* \"#utility.yul\":7951:8035   */\n      iszero\n      tag_177\n      jumpi\n        /* \"#utility.yul\":8007:8025   */\n      tag_178\n      tag_179\n      jump\t// in\n    tag_178:\n        /* \"#utility.yul\":7951:8035   */\n    tag_177:\n        /* \"#utility.yul\":7772:8041   */\n      pop\n        /* \"#utility.yul\":7721:8041   */\n      swap2\n      swap1\n      pop\n      jump\t// out\n        /* \"#utility.yul\":8047:8328   */\n    tag_144:\n        /* \"#utility.yul\":8130:8157   */\n      tag_181\n        /* \"#utility.yul\":8152:8156   */\n      dup3\n        /* \"#utility.yul\":8130:8157   */\n      tag_124\n      jump\t// in\n    tag_181:\n        /* \"#utility.yul\":8122:8128   */\n      dup2\n        /* \"#utility.yul\":8118:8158   */\n      add\n        /* \"#utility.yul\":8260:8266   */\n      dup2\n        /* \"#utility.yul\":8248:8258   */\n      dup2\n        /* \"#utility.yul\":8245:8267   */\n      lt\n        /* \"#utility.yul\":8224:8242   */\n      0xffffffffffffffff\n        /* \"#utility.yul\":8212:8222   */\n      dup3\n        /* \"#utility.yul\":8209:8243   */\n      gt\n        /* \"#utility.yul\":8206:8268   */\n      or\n        /* \"#utility.yul\":8203:8291   */\n      iszero\n      tag_182\n      jumpi\n        /* \"#utility.yul\":8271:8289   */\n      tag_183\n      tag_149\n      jump\t// in\n    tag_183:\n        /* \"#utility.yul\":8203:8291   */\n    tag_182:\n        /* \"#utility.yul\":8311:8321   */\n      dup1\n        /* \"#utility.yul\":8307:8309   */\n      0x40\n        /* \"#utility.yul\":8300:8322   */\n      mstore\n        /* \"#utility.yul\":8090:8328   */\n      pop\n        /* \"#utility.yul\":8047:8328   */\n      pop\n      pop\n      jump\t// out\n        /* \"#utility.yul\":8334:8514   */\n    tag_158:\n        /* \"#utility.yul\":8382:8459   */\n      0x4e487b7100000000000000000000000000000000000000000000000000000000\n        /* \"#utility.yul\":8379:8380   */\n      0x00\n        /* \"#utility.yul\":8372:8460   */\n      mstore\n        /* \"#utility.yul\":8479:8483   */\n      0x11\n        /* \"#utility.yul\":8476:8477   */\n      0x04\n        /* \"#utility.yul\":8469:8484   */\n      mstore\n        /* \"#utility.yul\":8503:8507   */\n      0x24\n        /* \"#utility.yul\":8500:8501   */\n      0x00\n        /* \"#utility.yul\":8493:8508   */\n      revert\n        /* \"#utility.yul\":8520:8700   */\n    tag_179:\n        /* \"#utility.yul\":8568:8645   */\n      0x4e487b7100000000000000000000000000000000000000000000000000000000\n        /* \"#utility.yul\":8565:8566   */\n      0x00\n        /* \"#utility.yul\":8558:8646   */\n      mstore\n        /* \"#utility.yul\":8665:8669   */\n      0x22\n        /* \"#utility.yul\":8662:8663   */\n      0x04\n        /* \"#utility.yul\":8655:8670   */\n      mstore\n        /* \"#utility.yul\":8689:8693   */\n      0x24\n        /* \"#utility.yul\":8686:8687   */\n      0x00\n        /* \"#utility.yul\":8679:8694   */\n      revert\n        /* \"#utility.yul\":8706:8886   */\n    tag_149:\n        /* \"#utility.yul\":8754:8831   */\n      0x4e487b7100000000000000000000000000000000000000000000000000000000\n        /* \"#utility.yul\":8751:8752   */\n      0x00\n        /* \"#utility.yul\":8744:8832   */\n      mstore\n        /* \"#utility.yul\":8851:8855   */\n      0x41\n        /* \"#utility.yul\":8848:8849   */\n      0x04\n        /* \"#utility.yul\":8841:8856   */\n      mstore\n        /* \"#utility.yul\":8875:8879   */\n      0x24\n        /* \"#utility.yul\":8872:8873   */\n      0x00\n        /* \"#utility.yul\":8865:8880   */\n      revert\n        /* \"#utility.yul\":8892:9009   */\n    tag_79:\n        /* \"#utility.yul\":9001:9002   */\n      0x00\n        /* \"#utility.yul\":8998:8999   */\n      dup1\n        /* \"#utility.yul\":8991:9003   */\n      revert\n        /* \"#utility.yul\":9015:9132   */\n    tag_68:\n        /* \"#utility.yul\":9124:9125   */\n      0x00\n        /* \"#utility.yul\":9121:9122   */\n      dup1\n        /* \"#utility.yul\":9114:9126   */\n      revert\n        /* \"#utility.yul\":9138:9255   */\n    tag_96:\n        /* \"#utility.yul\":9247:9248   */\n      0x00\n        /* \"#utility.yul\":9244:9245   */\n      dup1\n        /* \"#utility.yul\":9237:9249   */\n      revert\n        /* \"#utility.yul\":9261:9378   */\n    tag_88:\n        /* \"#utility.yul\":9370:9371   */\n      0x00\n        /* \"#utility.yul\":9367:9368   */\n      dup1\n        /* \"#utility.yul\":9360:9372   */\n      revert\n        /* \"#utility.yul\":9384:9486   */\n    tag_124:\n        /* \"#utility.yul\":9425:9431   */\n      0x00\n        /* \"#utility.yul\":9476:9478   */\n      0x1f\n        /* \"#utility.yul\":9472:9479   */\n      not\n        /* \"#utility.yul\":9467:9469   */\n      0x1f\n        /* \"#utility.yul\":9460:9465   */\n      dup4\n        /* \"#utility.yul\":9456:9470   */\n      add\n        /* \"#utility.yul\":9452:9480   */\n      and\n        /* \"#utility.yul\":9442:9480   */\n      swap1\n      pop\n        /* \"#utility.yul\":9384:9486   */\n      swap2\n      swap1\n      pop\n      jump\t// out\n        /* \"#utility.yul\":9492:9614   */\n    tag_74:\n        /* \"#utility.yul\":9565:9589   */\n      tag_193\n        /* \"#utility.yul\":9583:9588   */\n      dup2\n        /* \"#utility.yul\":9565:9589   */\n      tag_114\n      jump\t// in\n    tag_193:\n        /* \"#utility.yul\":9558:9563   */\n      dup2\n        /* \"#utility.yul\":9555:9590   */\n      eq\n        /* \"#utility.yul\":9545:9608   */\n      tag_194\n      jumpi\n        /* \"#utility.yul\":9604:9605   */\n      0x00\n        /* \"#utility.yul\":9601:9602   */\n      dup1\n        /* \"#utility.yul\":9594:9606   */\n      revert\n        /* \"#utility.yul\":9545:9608   */\n    tag_194:\n        /* \"#utility.yul\":9492:9614   */\n      pop\n      jump\t// out\n        /* \"#utility.yul\":9620:9742   */\n    tag_84:\n        /* \"#utility.yul\":9693:9717   */\n      tag_196\n        /* \"#utility.yul\":9711:9716   */\n      dup2\n        /* \"#utility.yul\":9693:9717   */\n      tag_128\n      jump\t// in\n    tag_196:\n        /* \"#utility.yul\":9686:9691   */\n      dup2\n        /* \"#utility.yul\":9683:9718   */\n      eq\n        /* \"#utility.yul\":9673:9736   */\n      tag_197\n      jumpi\n        /* \"#utility.yul\":9732:9733   */\n      0x00\n        /* \"#utility.yul\":9729:9730   */\n      dup1\n        /* \"#utility.yul\":9722:9734   */\n      revert\n        /* \"#utility.yul\":9673:9736   */\n    tag_197:\n        /* \"#utility.yul\":9620:9742   */\n      pop\n      jump\t// out\n\n    auxdata: 0xa2646970667358221220f7f57858eedb889965532a4a2cb9e31769da15f13cf28811a93d706a57a4688264736f6c63430008070033\n}\n",
				"bytecode": {
					"linkReferences": {},
					"object": "608060405260405180602001604052806000815250600090805190602001906200002b92919062000045565b5060006001553480156200003e57600080fd5b506200015a565b8280546200005390620000f5565b90600052602060002090601f016020900481019282620000775760008555620000c3565b82601f106200009257805160ff1916838001178555620000c3565b82800160010185558215620000c3579182015b82811115620000c2578251825591602001919060010190620000a5565b5b509050620000d29190620000d6565b5090565b5b80821115620000f1576000816000905550600101620000d7565b5090565b600060028204905060018216806200010e57607f821691505b602082108114156200012557620001246200012b565b5b50919050565b7f4e487b7100000000000000000000000000000000000000000000000000000000600052602260045260246000fd5b610c43806200016a6000396000f3fe6080604052600436106100345760003560e01c80630ebcbdb8146100395780638b9c657a14610055578063d0679d3414610097575b600080fd5b610053600480360381019061004e919061072b565b6100b3565b005b34801561006157600080fd5b5061007c600480360381019061007791906106fe565b6102ac565b60405161008e969594939291906108da565b60405180910390f35b6100b160048036038101906100ac919061080c565b610480565b005b84600360008873ffffffffffffffffffffffffffffffffffffffff1673ffffffffffffffffffffffffffffffffffffffff16815260200190815260200160002060000190805190602001906101099291906105c1565b5083600360008873ffffffffffffffffffffffffffffffffffffffff1673ffffffffffffffffffffffffffffffffffffffff1681526020019081526020016000206001018190555082600360008873ffffffffffffffffffffffffffffffffffffffff1673ffffffffffffffffffffffffffffffffffffffff16815260200190815260200160002060020190805190602001906101a79291906105c1565b5081600360008873ffffffffffffffffffffffffffffffffffffffff1673ffffffffffffffffffffffffffffffffffffffff1681526020019081526020016000206003018190555080600360008873ffffffffffffffffffffffffffffffffffffffff1673ffffffffffffffffffffffffffffffffffffffff16815260200190815260200160002060040190805190602001906102459291906105c1565b508573ffffffffffffffffffffffffffffffffffffffff1631600360008873ffffffffffffffffffffffffffffffffffffffff1673ffffffffffffffffffffffffffffffffffffffff16815260200190815260200160002060050181905550505050505050565b60036020528060005260406000206000915090508060000180546102cf90610aca565b80601f01602080910402602001604051908101604052809291908181526020018280546102fb90610aca565b80156103485780601f1061031d57610100808354040283529160200191610348565b820191906000526020600020905b81548152906001019060200180831161032b57829003601f168201915b50505050509080600101549080600201805461036390610aca565b80601f016020809104026020016040519081016040528092919081815260200182805461038f90610aca565b80156103dc5780601f106103b1576101008083540402835291602001916103dc565b820191906000526020600020905b8154815290600101906020018083116103bf57829003601f168201915b5050505050908060030154908060040180546103f790610aca565b80601f016020809104026020016040519081016040528092919081815260200182805461042390610aca565b80156104705780601f1061044557610100808354040283529160200191610470565b820191906000526020600020905b81548152906001019060200180831161045357829003601f168201915b5050505050908060050154905086565b80600360003373ffffffffffffffffffffffffffffffffffffffff1673ffffffffffffffffffffffffffffffffffffffff1681526020019081526020016000206005015410156104cf576105bd565b80600360003373ffffffffffffffffffffffffffffffffffffffff1673ffffffffffffffffffffffffffffffffffffffff16815260200190815260200160002060050160008282546105219190610a18565b9250508190555080600360008473ffffffffffffffffffffffffffffffffffffffff1673ffffffffffffffffffffffffffffffffffffffff168152602001908152602001600020600501600082825461057a91906109c2565b925050819055507f3990db2d31862302a685e8086b5755072a6e2b5b780af1ee81ece35ee3cd33453383836040516105b4939291906108a3565b60405180910390a15b5050565b8280546105cd90610aca565b90600052602060002090601f0160209004810192826105ef5760008555610636565b82601f1061060857805160ff1916838001178555610636565b82800160010185558215610636579182015b8281111561063557825182559160200191906001019061061a565b5b5090506106439190610647565b5090565b5b80821115610660576000816000905550600101610648565b5090565b600061067761067284610975565b610950565b90508281526020810184848401111561069357610692610bbf565b5b61069e848285610a88565b509392505050565b6000813590506106b581610bdf565b92915050565b600082601f8301126106d0576106cf610bba565b5b81356106e0848260208601610664565b91505092915050565b6000813590506106f881610bf6565b92915050565b60006020828403121561071457610713610bc9565b5b6000610722848285016106a6565b91505092915050565b60008060008060008060c0878903121561074857610747610bc9565b5b600061075689828a016106a6565b965050602087013567ffffffffffffffff81111561077757610776610bc4565b5b61078389828a016106bb565b955050604061079489828a016106e9565b945050606087013567ffffffffffffffff8111156107b5576107b4610bc4565b5b6107c189828a016106bb565b93505060806107d289828a016106e9565b92505060a087013567ffffffffffffffff8111156107f3576107f2610bc4565b5b6107ff89828a016106bb565b9150509295509295509295565b6000806040838503121561082357610822610bc9565b5b6000610831858286016106a6565b9250506020610842858286016106e9565b9150509250929050565b61085581610a4c565b82525050565b6000610866826109a6565b61087081856109b1565b9350610880818560208601610a97565b61088981610bce565b840191505092915050565b61089d81610a7e565b82525050565b60006060820190506108b8600083018661084c565b6108c5602083018561084c565b6108d26040830184610894565b949350505050565b600060c08201905081810360008301526108f4818961085b565b90506109036020830188610894565b8181036040830152610915818761085b565b90506109246060830186610894565b8181036080830152610936818561085b565b905061094560a0830184610894565b979650505050505050565b600061095a61096b565b90506109668282610afc565b919050565b6000604051905090565b600067ffffffffffffffff8211156109905761098f610b8b565b5b61099982610bce565b9050602081019050919050565b600081519050919050565b600082825260208201905092915050565b60006109cd82610a7e565b91506109d883610a7e565b9250827fffffffffffffffffffffffffffffffffffffffffffffffffffffffffffffffff03821115610a0d57610a0c610b2d565b5b828201905092915050565b6000610a2382610a7e565b9150610a2e83610a7e565b925082821015610a4157610a40610b2d565b5b828203905092915050565b6000610a5782610a5e565b9050919050565b600073ffffffffffffffffffffffffffffffffffffffff82169050919050565b6000819050919050565b82818337600083830152505050565b60005b83811015610ab5578082015181840152602081019050610a9a565b83811115610ac4576000848401525b50505050565b60006002820490506001821680610ae257607f821691505b60208210811415610af657610af5610b5c565b5b50919050565b610b0582610bce565b810181811067ffffffffffffffff82111715610b2457610b23610b8b565b5b80604052505050565b7f4e487b7100000000000000000000000000000000000000000000000000000000600052601160045260246000fd5b7f4e487b7100000000000000000000000000000000000000000000000000000000600052602260045260246000fd5b7f4e487b7100000000000000000000000000000000000000000000000000000000600052604160045260246000fd5b600080fd5b600080fd5b600080fd5b600080fd5b6000601f19601f8301169050919050565b610be881610a4c565b8114610bf357600080fd5b50565b610bff81610a7e565b8114610c0a57600080fd5b5056fea2646970667358221220f7f57858eedb889965532a4a2cb9e31769da15f13cf28811a93d706a57a4688264736f6c63430008070033",
					"opcodes": "PUSH1 0x80 PUSH1 0x40 MSTORE PUSH1 0x40 MLOAD DUP1 PUSH1 0x20 ADD PUSH1 0x40 MSTORE DUP1 PUSH1 0x0 DUP2 MSTORE POP PUSH1 0x0 SWAP1 DUP1 MLOAD SWAP1 PUSH1 0x20 ADD SWAP1 PUSH3 0x2B SWAP3 SWAP2 SWAP1 PUSH3 0x45 JUMP JUMPDEST POP PUSH1 0x0 PUSH1 0x1 SSTORE CALLVALUE DUP1 ISZERO PUSH3 0x3E JUMPI PUSH1 0x0 DUP1 REVERT JUMPDEST POP PUSH3 0x15A JUMP JUMPDEST DUP3 DUP1 SLOAD PUSH3 0x53 SWAP1 PUSH3 0xF5 JUMP JUMPDEST SWAP1 PUSH1 0x0 MSTORE PUSH1 0x20 PUSH1 0x0 KECCAK256 SWAP1 PUSH1 0x1F ADD PUSH1 0x20 SWAP1 DIV DUP2 ADD SWAP3 DUP3 PUSH3 0x77 JUMPI PUSH1 0x0 DUP6 SSTORE PUSH3 0xC3 JUMP JUMPDEST DUP3 PUSH1 0x1F LT PUSH3 0x92 JUMPI DUP1 MLOAD PUSH1 0xFF NOT AND DUP4 DUP1 ADD OR DUP6 SSTORE PUSH3 0xC3 JUMP JUMPDEST DUP3 DUP1 ADD PUSH1 0x1 ADD DUP6 SSTORE DUP3 ISZERO PUSH3 0xC3 JUMPI SWAP2 DUP3 ADD JUMPDEST DUP3 DUP2 GT ISZERO PUSH3 0xC2 JUMPI DUP3 MLOAD DUP3 SSTORE SWAP2 PUSH1 0x20 ADD SWAP2 SWAP1 PUSH1 0x1 ADD SWAP1 PUSH3 0xA5 JUMP JUMPDEST JUMPDEST POP SWAP1 POP PUSH3 0xD2 SWAP2 SWAP1 PUSH3 0xD6 JUMP JUMPDEST POP SWAP1 JUMP JUMPDEST JUMPDEST DUP1 DUP3 GT ISZERO PUSH3 0xF1 JUMPI PUSH1 0x0 DUP2 PUSH1 0x0 SWAP1 SSTORE POP PUSH1 0x1 ADD PUSH3 0xD7 JUMP JUMPDEST POP SWAP1 JUMP JUMPDEST PUSH1 0x0 PUSH1 0x2 DUP3 DIV SWAP1 POP PUSH1 0x1 DUP3 AND DUP1 PUSH3 0x10E JUMPI PUSH1 0x7F DUP3 AND SWAP2 POP JUMPDEST PUSH1 0x20 DUP3 LT DUP2 EQ ISZERO PUSH3 0x125 JUMPI PUSH3 0x124 PUSH3 0x12B JUMP JUMPDEST JUMPDEST POP SWAP2 SWAP1 POP JUMP JUMPDEST PUSH32 0x4E487B7100000000000000000000000000000000000000000000000000000000 PUSH1 0x0 MSTORE PUSH1 0x22 PUSH1 0x4 MSTORE PUSH1 0x24 PUSH1 0x0 REVERT JUMPDEST PUSH2 0xC43 DUP1 PUSH3 0x16A PUSH1 0x0 CODECOPY PUSH1 0x0 RETURN INVALID PUSH1 0x80 PUSH1 0x40 MSTORE PUSH1 0x4 CALLDATASIZE LT PUSH2 0x34 JUMPI PUSH1 0x0 CALLDATALOAD PUSH1 0xE0 SHR DUP1 PUSH4 0xEBCBDB8 EQ PUSH2 0x39 JUMPI DUP1 PUSH4 0x8B9C657A EQ PUSH2 0x55 JUMPI DUP1 PUSH4 0xD0679D34 EQ PUSH2 0x97 JUMPI JUMPDEST PUSH1 0x0 DUP1 REVERT JUMPDEST PUSH2 0x53 PUSH1 0x4 DUP1 CALLDATASIZE SUB DUP2 ADD SWAP1 PUSH2 0x4E SWAP2 SWAP1 PUSH2 0x72B JUMP JUMPDEST PUSH2 0xB3 JUMP JUMPDEST STOP JUMPDEST CALLVALUE DUP1 ISZERO PUSH2 0x61 JUMPI PUSH1 0x0 DUP1 REVERT JUMPDEST POP PUSH2 0x7C PUSH1 0x4 DUP1 CALLDATASIZE SUB DUP2 ADD SWAP1 PUSH2 0x77 SWAP2 SWAP1 PUSH2 0x6FE JUMP JUMPDEST PUSH2 0x2AC JUMP JUMPDEST PUSH1 0x40 MLOAD PUSH2 0x8E SWAP7 SWAP6 SWAP5 SWAP4 SWAP3 SWAP2 SWAP1 PUSH2 0x8DA JUMP JUMPDEST PUSH1 0x40 MLOAD DUP1 SWAP2 SUB SWAP1 RETURN JUMPDEST PUSH2 0xB1 PUSH1 0x4 DUP1 CALLDATASIZE SUB DUP2 ADD SWAP1 PUSH2 0xAC SWAP2 SWAP1 PUSH2 0x80C JUMP JUMPDEST PUSH2 0x480 JUMP JUMPDEST STOP JUMPDEST DUP5 PUSH1 0x3 PUSH1 0x0 DUP9 PUSH20 0xFFFFFFFFFFFFFFFFFFFFFFFFFFFFFFFFFFFFFFFF AND PUSH20 0xFFFFFFFFFFFFFFFFFFFFFFFFFFFFFFFFFFFFFFFF AND DUP2 MSTORE PUSH1 0x20 ADD SWAP1 DUP2 MSTORE PUSH1 0x20 ADD PUSH1 0x0 KECCAK256 PUSH1 0x0 ADD SWAP1 DUP1 MLOAD SWAP1 PUSH1 0x20 ADD SWAP1 PUSH2 0x109 SWAP3 SWAP2 SWAP1 PUSH2 0x5C1 JUMP JUMPDEST POP DUP4 PUSH1 0x3 PUSH1 0x0 DUP9 PUSH20 0xFFFFFFFFFFFFFFFFFFFFFFFFFFFFFFFFFFFFFFFF AND PUSH20 0xFFFFFFFFFFFFFFFFFFFFFFFFFFFFFFFFFFFFFFFF AND DUP2 MSTORE PUSH1 0x20 ADD SWAP1 DUP2 MSTORE PUSH1 0x20 ADD PUSH1 0x0 KECCAK256 PUSH1 0x1 ADD DUP2 SWAP1 SSTORE POP DUP3 PUSH1 0x3 PUSH1 0x0 DUP9 PUSH20 0xFFFFFFFFFFFFFFFFFFFFFFFFFFFFFFFFFFFFFFFF AND PUSH20 0xFFFFFFFFFFFFFFFFFFFFFFFFFFFFFFFFFFFFFFFF AND DUP2 MSTORE PUSH1 0x20 ADD SWAP1 DUP2 MSTORE PUSH1 0x20 ADD PUSH1 0x0 KECCAK256 PUSH1 0x2 ADD SWAP1 DUP1 MLOAD SWAP1 PUSH1 0x20 ADD SWAP1 PUSH2 0x1A7 SWAP3 SWAP2 SWAP1 PUSH2 0x5C1 JUMP JUMPDEST POP DUP2 PUSH1 0x3 PUSH1 0x0 DUP9 PUSH20 0xFFFFFFFFFFFFFFFFFFFFFFFFFFFFFFFFFFFFFFFF AND PUSH20 0xFFFFFFFFFFFFFFFFFFFFFFFFFFFFFFFFFFFFFFFF AND DUP2 MSTORE PUSH1 0x20 ADD SWAP1 DUP2 MSTORE PUSH1 0x20 ADD PUSH1 0x0 KECCAK256 PUSH1 0x3 ADD DUP2 SWAP1 SSTORE POP DUP1 PUSH1 0x3 PUSH1 0x0 DUP9 PUSH20 0xFFFFFFFFFFFFFFFFFFFFFFFFFFFFFFFFFFFFFFFF AND PUSH20 0xFFFFFFFFFFFFFFFFFFFFFFFFFFFFFFFFFFFFFFFF AND DUP2 MSTORE PUSH1 0x20 ADD SWAP1 DUP2 MSTORE PUSH1 0x20 ADD PUSH1 0x0 KECCAK256 PUSH1 0x4 ADD SWAP1 DUP1 MLOAD SWAP1 PUSH1 0x20 ADD SWAP1 PUSH2 0x245 SWAP3 SWAP2 SWAP1 PUSH2 0x5C1 JUMP JUMPDEST POP DUP6 PUSH20 0xFFFFFFFFFFFFFFFFFFFFFFFFFFFFFFFFFFFFFFFF AND BALANCE PUSH1 0x3 PUSH1 0x0 DUP9 PUSH20 0xFFFFFFFFFFFFFFFFFFFFFFFFFFFFFFFFFFFFFFFF AND PUSH20 0xFFFFFFFFFFFFFFFFFFFFFFFFFFFFFFFFFFFFFFFF AND DUP2 MSTORE PUSH1 0x20 ADD SWAP1 DUP2 MSTORE PUSH1 0x20 ADD PUSH1 0x0 KECCAK256 PUSH1 0x5 ADD DUP2 SWAP1 SSTORE POP POP POP POP POP POP POP JUMP JUMPDEST PUSH1 0x3 PUSH1 0x20 MSTORE DUP1 PUSH1 0x0 MSTORE PUSH1 0x40 PUSH1 0x0 KECCAK256 PUSH1 0x0 SWAP2 POP SWAP1 POP DUP1 PUSH1 0x0 ADD DUP1 SLOAD PUSH2 0x2CF SWAP1 PUSH2 0xACA JUMP JUMPDEST DUP1 PUSH1 0x1F ADD PUSH1 0x20 DUP1 SWAP2 DIV MUL PUSH1 0x20 ADD PUSH1 0x40 MLOAD SWAP1 DUP2 ADD PUSH1 0x40 MSTORE DUP1 SWAP3 SWAP2 SWAP1 DUP2 DUP2 MSTORE PUSH1 0x20 ADD DUP3 DUP1 SLOAD PUSH2 0x2FB SWAP1 PUSH2 0xACA JUMP JUMPDEST DUP1 ISZERO PUSH2 0x348 JUMPI DUP1 PUSH1 0x1F LT PUSH2 0x31D JUMPI PUSH2 0x100 DUP1 DUP4 SLOAD DIV MUL DUP4 MSTORE SWAP2 PUSH1 0x20 ADD SWAP2 PUSH2 0x348 JUMP JUMPDEST DUP3 ADD SWAP2 SWAP1 PUSH1 0x0 MSTORE PUSH1 0x20 PUSH1 0x0 KECCAK256 SWAP1 JUMPDEST DUP2 SLOAD DUP2 MSTORE SWAP1 PUSH1 0x1 ADD SWAP1 PUSH1 0x20 ADD DUP1 DUP4 GT PUSH2 0x32B JUMPI DUP3 SWAP1 SUB PUSH1 0x1F AND DUP3 ADD SWAP2 JUMPDEST POP POP POP POP POP SWAP1 DUP1 PUSH1 0x1 ADD SLOAD SWAP1 DUP1 PUSH1 0x2 ADD DUP1 SLOAD PUSH2 0x363 SWAP1 PUSH2 0xACA JUMP JUMPDEST DUP1 PUSH1 0x1F ADD PUSH1 0x20 DUP1 SWAP2 DIV MUL PUSH1 0x20 ADD PUSH1 0x40 MLOAD SWAP1 DUP2 ADD PUSH1 0x40 MSTORE DUP1 SWAP3 SWAP2 SWAP1 DUP2 DUP2 MSTORE PUSH1 0x20 ADD DUP3 DUP1 SLOAD PUSH2 0x38F SWAP1 PUSH2 0xACA JUMP JUMPDEST DUP1 ISZERO PUSH2 0x3DC JUMPI DUP1 PUSH1 0x1F LT PUSH2 0x3B1 JUMPI PUSH2 0x100 DUP1 DUP4 SLOAD DIV MUL DUP4 MSTORE SWAP2 PUSH1 0x20 ADD SWAP2 PUSH2 0x3DC JUMP JUMPDEST DUP3 ADD SWAP2 SWAP1 PUSH1 0x0 MSTORE PUSH1 0x20 PUSH1 0x0 KECCAK256 SWAP1 JUMPDEST DUP2 SLOAD DUP2 MSTORE SWAP1 PUSH1 0x1 ADD SWAP1 PUSH1 0x20 ADD DUP1 DUP4 GT PUSH2 0x3BF JUMPI DUP3 SWAP1 SUB PUSH1 0x1F AND DUP3 ADD SWAP2 JUMPDEST POP POP POP POP POP SWAP1 DUP1 PUSH1 0x3 ADD SLOAD SWAP1 DUP1 PUSH1 0x4 ADD DUP1 SLOAD PUSH2 0x3F7 SWAP1 PUSH2 0xACA JUMP JUMPDEST DUP1 PUSH1 0x1F ADD PUSH1 0x20 DUP1 SWAP2 DIV MUL PUSH1 0x20 ADD PUSH1 0x40 MLOAD SWAP1 DUP2 ADD PUSH1 0x40 MSTORE DUP1 SWAP3 SWAP2 SWAP1 DUP2 DUP2 MSTORE PUSH1 0x20 ADD DUP3 DUP1 SLOAD PUSH2 0x423 SWAP1 PUSH2 0xACA JUMP JUMPDEST DUP1 ISZERO PUSH2 0x470 JUMPI DUP1 PUSH1 0x1F LT PUSH2 0x445 JUMPI PUSH2 0x100 DUP1 DUP4 SLOAD DIV MUL DUP4 MSTORE SWAP2 PUSH1 0x20 ADD SWAP2 PUSH2 0x470 JUMP JUMPDEST DUP3 ADD SWAP2 SWAP1 PUSH1 0x0 MSTORE PUSH1 0x20 PUSH1 0x0 KECCAK256 SWAP1 JUMPDEST DUP2 SLOAD DUP2 MSTORE SWAP1 PUSH1 0x1 ADD SWAP1 PUSH1 0x20 ADD DUP1 DUP4 GT PUSH2 0x453 JUMPI DUP3 SWAP1 SUB PUSH1 0x1F AND DUP3 ADD SWAP2 JUMPDEST POP POP POP POP POP SWAP1 DUP1 PUSH1 0x5 ADD SLOAD SWAP1 POP DUP7 JUMP JUMPDEST DUP1 PUSH1 0x3 PUSH1 0x0 CALLER PUSH20 0xFFFFFFFFFFFFFFFFFFFFFFFFFFFFFFFFFFFFFFFF AND PUSH20 0xFFFFFFFFFFFFFFFFFFFFFFFFFFFFFFFFFFFFFFFF AND DUP2 MSTORE PUSH1 0x20 ADD SWAP1 DUP2 MSTORE PUSH1 0x20 ADD PUSH1 0x0 KECCAK256 PUSH1 0x5 ADD SLOAD LT ISZERO PUSH2 0x4CF JUMPI PUSH2 0x5BD JUMP JUMPDEST DUP1 PUSH1 0x3 PUSH1 0x0 CALLER PUSH20 0xFFFFFFFFFFFFFFFFFFFFFFFFFFFFFFFFFFFFFFFF AND PUSH20 0xFFFFFFFFFFFFFFFFFFFFFFFFFFFFFFFFFFFFFFFF AND DUP2 MSTORE PUSH1 0x20 ADD SWAP1 DUP2 MSTORE PUSH1 0x20 ADD PUSH1 0x0 KECCAK256 PUSH1 0x5 ADD PUSH1 0x0 DUP3 DUP3 SLOAD PUSH2 0x521 SWAP2 SWAP1 PUSH2 0xA18 JUMP JUMPDEST SWAP3 POP POP DUP2 SWAP1 SSTORE POP DUP1 PUSH1 0x3 PUSH1 0x0 DUP5 PUSH20 0xFFFFFFFFFFFFFFFFFFFFFFFFFFFFFFFFFFFFFFFF AND PUSH20 0xFFFFFFFFFFFFFFFFFFFFFFFFFFFFFFFFFFFFFFFF AND DUP2 MSTORE PUSH1 0x20 ADD SWAP1 DUP2 MSTORE PUSH1 0x20 ADD PUSH1 0x0 KECCAK256 PUSH1 0x5 ADD PUSH1 0x0 DUP3 DUP3 SLOAD PUSH2 0x57A SWAP2 SWAP1 PUSH2 0x9C2 JUMP JUMPDEST SWAP3 POP POP DUP2 SWAP1 SSTORE POP PUSH32 0x3990DB2D31862302A685E8086B5755072A6E2B5B780AF1EE81ECE35EE3CD3345 CALLER DUP4 DUP4 PUSH1 0x40 MLOAD PUSH2 0x5B4 SWAP4 SWAP3 SWAP2 SWAP1 PUSH2 0x8A3 JUMP JUMPDEST PUSH1 0x40 MLOAD DUP1 SWAP2 SUB SWAP1 LOG1 JUMPDEST POP POP JUMP JUMPDEST DUP3 DUP1 SLOAD PUSH2 0x5CD SWAP1 PUSH2 0xACA JUMP JUMPDEST SWAP1 PUSH1 0x0 MSTORE PUSH1 0x20 PUSH1 0x0 KECCAK256 SWAP1 PUSH1 0x1F ADD PUSH1 0x20 SWAP1 DIV DUP2 ADD SWAP3 DUP3 PUSH2 0x5EF JUMPI PUSH1 0x0 DUP6 SSTORE PUSH2 0x636 JUMP JUMPDEST DUP3 PUSH1 0x1F LT PUSH2 0x608 JUMPI DUP1 MLOAD PUSH1 0xFF NOT AND DUP4 DUP1 ADD OR DUP6 SSTORE PUSH2 0x636 JUMP JUMPDEST DUP3 DUP1 ADD PUSH1 0x1 ADD DUP6 SSTORE DUP3 ISZERO PUSH2 0x636 JUMPI SWAP2 DUP3 ADD JUMPDEST DUP3 DUP2 GT ISZERO PUSH2 0x635 JUMPI DUP3 MLOAD DUP3 SSTORE SWAP2 PUSH1 0x20 ADD SWAP2 SWAP1 PUSH1 0x1 ADD SWAP1 PUSH2 0x61A JUMP JUMPDEST JUMPDEST POP SWAP1 POP PUSH2 0x643 SWAP2 SWAP1 PUSH2 0x647 JUMP JUMPDEST POP SWAP1 JUMP JUMPDEST JUMPDEST DUP1 DUP3 GT ISZERO PUSH2 0x660 JUMPI PUSH1 0x0 DUP2 PUSH1 0x0 SWAP1 SSTORE POP PUSH1 0x1 ADD PUSH2 0x648 JUMP JUMPDEST POP SWAP1 JUMP JUMPDEST PUSH1 0x0 PUSH2 0x677 PUSH2 0x672 DUP5 PUSH2 0x975 JUMP JUMPDEST PUSH2 0x950 JUMP JUMPDEST SWAP1 POP DUP3 DUP2 MSTORE PUSH1 0x20 DUP2 ADD DUP5 DUP5 DUP5 ADD GT ISZERO PUSH2 0x693 JUMPI PUSH2 0x692 PUSH2 0xBBF JUMP JUMPDEST JUMPDEST PUSH2 0x69E DUP5 DUP3 DUP6 PUSH2 0xA88 JUMP JUMPDEST POP SWAP4 SWAP3 POP POP POP JUMP JUMPDEST PUSH1 0x0 DUP2 CALLDATALOAD SWAP1 POP PUSH2 0x6B5 DUP2 PUSH2 0xBDF JUMP JUMPDEST SWAP3 SWAP2 POP POP JUMP JUMPDEST PUSH1 0x0 DUP3 PUSH1 0x1F DUP4 ADD SLT PUSH2 0x6D0 JUMPI PUSH2 0x6CF PUSH2 0xBBA JUMP JUMPDEST JUMPDEST DUP2 CALLDATALOAD PUSH2 0x6E0 DUP5 DUP3 PUSH1 0x20 DUP7 ADD PUSH2 0x664 JUMP JUMPDEST SWAP2 POP POP SWAP3 SWAP2 POP POP JUMP JUMPDEST PUSH1 0x0 DUP2 CALLDATALOAD SWAP1 POP PUSH2 0x6F8 DUP2 PUSH2 0xBF6 JUMP JUMPDEST SWAP3 SWAP2 POP POP JUMP JUMPDEST PUSH1 0x0 PUSH1 0x20 DUP3 DUP5 SUB SLT ISZERO PUSH2 0x714 JUMPI PUSH2 0x713 PUSH2 0xBC9 JUMP JUMPDEST JUMPDEST PUSH1 0x0 PUSH2 0x722 DUP5 DUP3 DUP6 ADD PUSH2 0x6A6 JUMP JUMPDEST SWAP2 POP POP SWAP3 SWAP2 POP POP JUMP JUMPDEST PUSH1 0x0 DUP1 PUSH1 0x0 DUP1 PUSH1 0x0 DUP1 PUSH1 0xC0 DUP8 DUP10 SUB SLT ISZERO PUSH2 0x748 JUMPI PUSH2 0x747 PUSH2 0xBC9 JUMP JUMPDEST JUMPDEST PUSH1 0x0 PUSH2 0x756 DUP10 DUP3 DUP11 ADD PUSH2 0x6A6 JUMP JUMPDEST SWAP7 POP POP PUSH1 0x20 DUP8 ADD CALLDATALOAD PUSH8 0xFFFFFFFFFFFFFFFF DUP2 GT ISZERO PUSH2 0x777 JUMPI PUSH2 0x776 PUSH2 0xBC4 JUMP JUMPDEST JUMPDEST PUSH2 0x783 DUP10 DUP3 DUP11 ADD PUSH2 0x6BB JUMP JUMPDEST SWAP6 POP POP PUSH1 0x40 PUSH2 0x794 DUP10 DUP3 DUP11 ADD PUSH2 0x6E9 JUMP JUMPDEST SWAP5 POP POP PUSH1 0x60 DUP8 ADD CALLDATALOAD PUSH8 0xFFFFFFFFFFFFFFFF DUP2 GT ISZERO PUSH2 0x7B5 JUMPI PUSH2 0x7B4 PUSH2 0xBC4 JUMP JUMPDEST JUMPDEST PUSH2 0x7C1 DUP10 DUP3 DUP11 ADD PUSH2 0x6BB JUMP JUMPDEST SWAP4 POP POP PUSH1 0x80 PUSH2 0x7D2 DUP10 DUP3 DUP11 ADD PUSH2 0x6E9 JUMP JUMPDEST SWAP3 POP POP PUSH1 0xA0 DUP8 ADD CALLDATALOAD PUSH8 0xFFFFFFFFFFFFFFFF DUP2 GT ISZERO PUSH2 0x7F3 JUMPI PUSH2 0x7F2 PUSH2 0xBC4 JUMP JUMPDEST JUMPDEST PUSH2 0x7FF DUP10 DUP3 DUP11 ADD PUSH2 0x6BB JUMP JUMPDEST SWAP2 POP POP SWAP3 SWAP6 POP SWAP3 SWAP6 POP SWAP3 SWAP6 JUMP JUMPDEST PUSH1 0x0 DUP1 PUSH1 0x40 DUP4 DUP6 SUB SLT ISZERO PUSH2 0x823 JUMPI PUSH2 0x822 PUSH2 0xBC9 JUMP JUMPDEST JUMPDEST PUSH1 0x0 PUSH2 0x831 DUP6 DUP3 DUP7 ADD PUSH2 0x6A6 JUMP JUMPDEST SWAP3 POP POP PUSH1 0x20 PUSH2 0x842 DUP6 DUP3 DUP7 ADD PUSH2 0x6E9 JUMP JUMPDEST SWAP2 POP POP SWAP3 POP SWAP3 SWAP1 POP JUMP JUMPDEST PUSH2 0x855 DUP2 PUSH2 0xA4C JUMP JUMPDEST DUP3 MSTORE POP POP JUMP JUMPDEST PUSH1 0x0 PUSH2 0x866 DUP3 PUSH2 0x9A6 JUMP JUMPDEST PUSH2 0x870 DUP2 DUP6 PUSH2 0x9B1 JUMP JUMPDEST SWAP4 POP PUSH2 0x880 DUP2 DUP6 PUSH1 0x20 DUP7 ADD PUSH2 0xA97 JUMP JUMPDEST PUSH2 0x889 DUP2 PUSH2 0xBCE JUMP JUMPDEST DUP5 ADD SWAP2 POP POP SWAP3 SWAP2 POP POP JUMP JUMPDEST PUSH2 0x89D DUP2 PUSH2 0xA7E JUMP JUMPDEST DUP3 MSTORE POP POP JUMP JUMPDEST PUSH1 0x0 PUSH1 0x60 DUP3 ADD SWAP1 POP PUSH2 0x8B8 PUSH1 0x0 DUP4 ADD DUP7 PUSH2 0x84C JUMP JUMPDEST PUSH2 0x8C5 PUSH1 0x20 DUP4 ADD DUP6 PUSH2 0x84C JUMP JUMPDEST PUSH2 0x8D2 PUSH1 0x40 DUP4 ADD DUP5 PUSH2 0x894 JUMP JUMPDEST SWAP5 SWAP4 POP POP POP POP JUMP JUMPDEST PUSH1 0x0 PUSH1 0xC0 DUP3 ADD SWAP1 POP DUP2 DUP2 SUB PUSH1 0x0 DUP4 ADD MSTORE PUSH2 0x8F4 DUP2 DUP10 PUSH2 0x85B JUMP JUMPDEST SWAP1 POP PUSH2 0x903 PUSH1 0x20 DUP4 ADD DUP9 PUSH2 0x894 JUMP JUMPDEST DUP2 DUP2 SUB PUSH1 0x40 DUP4 ADD MSTORE PUSH2 0x915 DUP2 DUP8 PUSH2 0x85B JUMP JUMPDEST SWAP1 POP PUSH2 0x924 PUSH1 0x60 DUP4 ADD DUP7 PUSH2 0x894 JUMP JUMPDEST DUP2 DUP2 SUB PUSH1 0x80 DUP4 ADD MSTORE PUSH2 0x936 DUP2 DUP6 PUSH2 0x85B JUMP JUMPDEST SWAP1 POP PUSH2 0x945 PUSH1 0xA0 DUP4 ADD DUP5 PUSH2 0x894 JUMP JUMPDEST SWAP8 SWAP7 POP POP POP POP POP POP POP JUMP JUMPDEST PUSH1 0x0 PUSH2 0x95A PUSH2 0x96B JUMP JUMPDEST SWAP1 POP PUSH2 0x966 DUP3 DUP3 PUSH2 0xAFC JUMP JUMPDEST SWAP2 SWAP1 POP JUMP JUMPDEST PUSH1 0x0 PUSH1 0x40 MLOAD SWAP1 POP SWAP1 JUMP JUMPDEST PUSH1 0x0 PUSH8 0xFFFFFFFFFFFFFFFF DUP3 GT ISZERO PUSH2 0x990 JUMPI PUSH2 0x98F PUSH2 0xB8B JUMP JUMPDEST JUMPDEST PUSH2 0x999 DUP3 PUSH2 0xBCE JUMP JUMPDEST SWAP1 POP PUSH1 0x20 DUP2 ADD SWAP1 POP SWAP2 SWAP1 POP JUMP JUMPDEST PUSH1 0x0 DUP2 MLOAD SWAP1 POP SWAP2 SWAP1 POP JUMP JUMPDEST PUSH1 0x0 DUP3 DUP3 MSTORE PUSH1 0x20 DUP3 ADD SWAP1 POP SWAP3 SWAP2 POP POP JUMP JUMPDEST PUSH1 0x0 PUSH2 0x9CD DUP3 PUSH2 0xA7E JUMP JUMPDEST SWAP2 POP PUSH2 0x9D8 DUP4 PUSH2 0xA7E JUMP JUMPDEST SWAP3 POP DUP3 PUSH32 0xFFFFFFFFFFFFFFFFFFFFFFFFFFFFFFFFFFFFFFFFFFFFFFFFFFFFFFFFFFFFFFFF SUB DUP3 GT ISZERO PUSH2 0xA0D JUMPI PUSH2 0xA0C PUSH2 0xB2D JUMP JUMPDEST JUMPDEST DUP3 DUP3 ADD SWAP1 POP SWAP3 SWAP2 POP POP JUMP JUMPDEST PUSH1 0x0 PUSH2 0xA23 DUP3 PUSH2 0xA7E JUMP JUMPDEST SWAP2 POP PUSH2 0xA2E DUP4 PUSH2 0xA7E JUMP JUMPDEST SWAP3 POP DUP3 DUP3 LT ISZERO PUSH2 0xA41 JUMPI PUSH2 0xA40 PUSH2 0xB2D JUMP JUMPDEST JUMPDEST DUP3 DUP3 SUB SWAP1 POP SWAP3 SWAP2 POP POP JUMP JUMPDEST PUSH1 0x0 PUSH2 0xA57 DUP3 PUSH2 0xA5E JUMP JUMPDEST SWAP1 POP SWAP2 SWAP1 POP JUMP JUMPDEST PUSH1 0x0 PUSH20 0xFFFFFFFFFFFFFFFFFFFFFFFFFFFFFFFFFFFFFFFF DUP3 AND SWAP1 POP SWAP2 SWAP1 POP JUMP JUMPDEST PUSH1 0x0 DUP2 SWAP1 POP SWAP2 SWAP1 POP JUMP JUMPDEST DUP3 DUP2 DUP4 CALLDATACOPY PUSH1 0x0 DUP4 DUP4 ADD MSTORE POP POP POP JUMP JUMPDEST PUSH1 0x0 JUMPDEST DUP4 DUP2 LT ISZERO PUSH2 0xAB5 JUMPI DUP1 DUP3 ADD MLOAD DUP2 DUP5 ADD MSTORE PUSH1 0x20 DUP2 ADD SWAP1 POP PUSH2 0xA9A JUMP JUMPDEST DUP4 DUP2 GT ISZERO PUSH2 0xAC4 JUMPI PUSH1 0x0 DUP5 DUP5 ADD MSTORE JUMPDEST POP POP POP POP JUMP JUMPDEST PUSH1 0x0 PUSH1 0x2 DUP3 DIV SWAP1 POP PUSH1 0x1 DUP3 AND DUP1 PUSH2 0xAE2 JUMPI PUSH1 0x7F DUP3 AND SWAP2 POP JUMPDEST PUSH1 0x20 DUP3 LT DUP2 EQ ISZERO PUSH2 0xAF6 JUMPI PUSH2 0xAF5 PUSH2 0xB5C JUMP JUMPDEST JUMPDEST POP SWAP2 SWAP1 POP JUMP JUMPDEST PUSH2 0xB05 DUP3 PUSH2 0xBCE JUMP JUMPDEST DUP2 ADD DUP2 DUP2 LT PUSH8 0xFFFFFFFFFFFFFFFF DUP3 GT OR ISZERO PUSH2 0xB24 JUMPI PUSH2 0xB23 PUSH2 0xB8B JUMP JUMPDEST JUMPDEST DUP1 PUSH1 0x40 MSTORE POP POP POP JUMP JUMPDEST PUSH32 0x4E487B7100000000000000000000000000000000000000000000000000000000 PUSH1 0x0 MSTORE PUSH1 0x11 PUSH1 0x4 MSTORE PUSH1 0x24 PUSH1 0x0 REVERT JUMPDEST PUSH32 0x4E487B7100000000000000000000000000000000000000000000000000000000 PUSH1 0x0 MSTORE PUSH1 0x22 PUSH1 0x4 MSTORE PUSH1 0x24 PUSH1 0x0 REVERT JUMPDEST PUSH32 0x4E487B7100000000000000000000000000000000000000000000000000000000 PUSH1 0x0 MSTORE PUSH1 0x41 PUSH1 0x4 MSTORE PUSH1 0x24 PUSH1 0x0 REVERT JUMPDEST PUSH1 0x0 DUP1 REVERT JUMPDEST PUSH1 0x0 DUP1 REVERT JUMPDEST PUSH1 0x0 DUP1 REVERT JUMPDEST PUSH1 0x0 DUP1 REVERT JUMPDEST PUSH1 0x0 PUSH1 0x1F NOT PUSH1 0x1F DUP4 ADD AND SWAP1 POP SWAP2 SWAP1 POP JUMP JUMPDEST PUSH2 0xBE8 DUP2 PUSH2 0xA4C JUMP JUMPDEST DUP2 EQ PUSH2 0xBF3 JUMPI PUSH1 0x0 DUP1 REVERT JUMPDEST POP JUMP JUMPDEST PUSH2 0xBFF DUP2 PUSH2 0xA7E JUMP JUMPDEST DUP2 EQ PUSH2 0xC0A JUMPI PUSH1 0x0 DUP1 REVERT JUMPDEST POP JUMP INVALID LOG2 PUSH5 0x6970667358 0x22 SLT KECCAK256 0xF7 CREATE2 PUSH25 0x58EEDB889965532A4A2CB9E31769DA15F13CF28811A93D706A JUMPI LOG4 PUSH9 0x8264736F6C63430008 SMOD STOP CALLER "
				},
				"gasEstimates": {
					"creation": {
						"codeDepositCost": "627800",
						"executionCost": "infinite",
						"totalCost": "infinite"
					},
					"external": {
						"getInfoByWallet(address)": "infinite",
						"send(address,uint256)": "infinite",
						"setInfo(address,string,uint256,string,uint256,string)": "infinite"
					}
				},
				"methodIdentifiers": {
					"getInfoByWallet(address)": "8b9c657a",
					"send(address,uint256)": "d0679d34",
					"setInfo(address,string,uint256,string,uint256,string)": "0ebcbdb8"
				}
			},
			"storageLayout": {
				"storage": [
					{
						"astId": 25,
						"contract": "sendtosend.sol:status",
						"label": "name",
						"offset": 0,
						"slot": "0",
						"type": "t_string_storage"
					},
					{
						"astId": 28,
						"contract": "sendtosend.sol:status",
						"label": "balance",
						"offset": 0,
						"slot": "1",
						"type": "t_uint256"
					},
					{
						"astId": 32,
						"contract": "sendtosend.sol:status",
						"label": "Students",
						"offset": 0,
						"slot": "2",
						"type": "t_array(t_struct(Student)22_storage)dyn_storage"
					},
					{
						"astId": 37,
						"contract": "sendtosend.sol:status",
						"label": "getInfoByWallet",
						"offset": 0,
						"slot": "3",
						"type": "t_mapping(t_address,t_struct(Student)22_storage)"
					}
				],
				"types": {
					"t_address": {
						"encoding": "inplace",
						"label": "address",
						"numberOfBytes": "20"
					},
					"t_array(t_struct(Student)22_storage)dyn_storage": {
						"base": "t_struct(Student)22_storage",
						"encoding": "dynamic_array",
						"label": "struct status.Student[]",
						"numberOfBytes": "32"
					},
					"t_mapping(t_address,t_struct(Student)22_storage)": {
						"encoding": "mapping",
						"key": "t_address",
						"label": "mapping(address => struct status.Student)",
						"numberOfBytes": "32",
						"value": "t_struct(Student)22_storage"
					},
					"t_string_storage": {
						"encoding": "bytes",
						"label": "string",
						"numberOfBytes": "32"
					},
					"t_struct(Student)22_storage": {
						"encoding": "inplace",
						"label": "struct status.Student",
						"members": [
							{
								"astId": 11,
								"contract": "sendtosend.sol:status",
								"label": "name",
								"offset": 0,
								"slot": "0",
								"type": "t_string_storage"
							},
							{
								"astId": 13,
								"contract": "sendtosend.sol:status",
								"label": "StudentID",
								"offset": 0,
								"slot": "1",
								"type": "t_uint256"
							},
							{
								"astId": 15,
								"contract": "sendtosend.sol:status",
								"label": "major",
								"offset": 0,
								"slot": "2",
								"type": "t_string_storage"
							},
							{
								"astId": 17,
								"contract": "sendtosend.sol:status",
								"label": "gpa",
								"offset": 0,
								"slot": "3",
								"type": "t_uint256"
							},
							{
								"astId": 19,
								"contract": "sendtosend.sol:status",
								"label": "company",
								"offset": 0,
								"slot": "4",
								"type": "t_string_storage"
							},
							{
								"astId": 21,
								"contract": "sendtosend.sol:status",
								"label": "balance",
								"offset": 0,
								"slot": "5",
								"type": "t_uint256"
							}
						],
						"numberOfBytes": "192"
					},
					"t_uint256": {
						"encoding": "inplace",
						"label": "uint256",
						"numberOfBytes": "32"
					}
				}
			},
			"userdoc": {
				"kind": "user",
				"methods": {},
				"version": 1
			}
		}
	}
}