{
	"sendtosend.sol": {
		"status": {
			"abi": [
				{
					"anonymous": false,
					"inputs": [
						{
							"indexed": false,
							"internalType": "address",
							"name": "from",
							"type": "address"
						},
						{
							"indexed": false,
							"internalType": "address",
							"name": "to",
							"type": "address"
						},
						{
							"indexed": false,
							"internalType": "uint256",
							"name": "amount",
							"type": "uint256"
						}
					],
					"name": "Sent",
					"type": "event"
				},
				{
					"inputs": [
						{
							"internalType": "address",
							"name": "",
							"type": "address"
						}
					],
					"name": "getInfoByWallet",
					"outputs": [
						{
							"internalType": "string",
							"name": "name",
							"type": "string"
						},
						{
							"internalType": "uint256",
							"name": "StudentID",
							"type": "uint256"
						},
						{
							"internalType": "string",
							"name": "major",
							"type": "string"
						},
						{
							"internalType": "uint256",
							"name": "gpa",
							"type": "uint256"
						},
						{
							"internalType": "string",
							"name": "company",
							"type": "string"
						},
						{
							"internalType": "uint256",
							"name": "balance",
							"type": "uint256"
						}
					],
					"stateMutability": "view",
					"type": "function"
				},
				{
					"inputs": [
						{
							"internalType": "address",
							"name": "receiver",
							"type": "address"
						},
						{
							"internalType": "uint256",
							"name": "amount",
							"type": "uint256"
						}
					],
					"name": "send",
					"outputs": [],
					"stateMutability": "payable",
					"type": "function"
				},
				{
					"inputs": [
						{
							"internalType": "address payable",
							"name": "receiver",
							"type": "address"
						}
					],
					"name": "sendNow",
					"outputs": [],
					"stateMutability": "payable",
					"type": "function"
				},
				{
					"inputs": [
						{
							"internalType": "address",
							"name": "_addr",
							"type": "address"
						},
						{
							"internalType": "string",
							"name": "_name",
							"type": "string"
						},
						{
							"internalType": "uint256",
							"name": "_StudentID",
							"type": "uint256"
						},
						{
							"internalType": "string",
							"name": "_major",
							"type": "string"
						},
						{
							"internalType": "uint256",
							"name": "_gpa",
							"type": "uint256"
						},
						{
							"internalType": "string",
							"name": "_company",
							"type": "string"
						}
					],
					"name": "setInfo",
					"outputs": [],
					"stateMutability": "payable",
					"type": "function"
				}
			],
			"devdoc": {
				"kind": "dev",
				"methods": {},
				"version": 1
			},
			"evm": {
				"assembly": "    /* \"sendtosend.sol\":72:1444  contract status{\r... */\n  mstore(0x40, 0x80)\n    /* \"sendtosend.sol\":417:433  string name = \"\" */\n  mload(0x40)\n  dup1\n  0x20\n  add\n  0x40\n  mstore\n  dup1\n  0x00\n  dup2\n  mstore\n  pop\n  0x00\n  swap1\n  dup1\n  mload\n  swap1\n  0x20\n  add\n  swap1\n  tag_1\n  swap3\n  swap2\n  swap1\n  tag_2\n  jump\t// in\ntag_1:\n  pop\n    /* \"sendtosend.sol\":458:459  0 */\n  0x00\n    /* \"sendtosend.sol\":440:459  uint256 balance = 0 */\n  0x01\n  sstore\n    /* \"sendtosend.sol\":72:1444  contract status{\r... */\n  callvalue\n  dup1\n  iszero\n  tag_3\n  jumpi\n  0x00\n  dup1\n  revert\ntag_3:\n  pop\n  jump(tag_4)\ntag_2:\n  dup3\n  dup1\n  sload\n  tag_5\n  swap1\n  tag_6\n  jump\t// in\ntag_5:\n  swap1\n  0x00\n  mstore\n  keccak256(0x00, 0x20)\n  swap1\n  0x1f\n  add\n  0x20\n  swap1\n  div\n  dup2\n  add\n  swap3\n  dup3\n  tag_8\n  jumpi\n  0x00\n  dup6\n  sstore\n  jump(tag_7)\ntag_8:\n  dup3\n  0x1f\n  lt\n  tag_9\n  jumpi\n  dup1\n  mload\n  not(0xff)\n  and\n  dup4\n  dup1\n  add\n  or\n  dup6\n  sstore\n  jump(tag_7)\ntag_9:\n  dup3\n  dup1\n  add\n  0x01\n  add\n  dup6\n  sstore\n  dup3\n  iszero\n  tag_7\n  jumpi\n  swap2\n  dup3\n  add\ntag_10:\n  dup3\n  dup2\n  gt\n  iszero\n  tag_11\n  jumpi\n  dup3\n  mload\n  dup3\n  sstore\n  swap2\n  0x20\n  add\n  swap2\n  swap1\n  0x01\n  add\n  swap1\n  jump(tag_10)\ntag_11:\ntag_7:\n  pop\n  swap1\n  pop\n  tag_12\n  swap2\n  swap1\n  tag_13\n  jump\t// in\ntag_12:\n  pop\n  swap1\n  jump\t// out\ntag_13:\ntag_14:\n  dup1\n  dup3\n  gt\n  iszero\n  tag_15\n  jumpi\n  0x00\n  dup2\n  0x00\n  swap1\n  sstore\n  pop\n  0x01\n  add\n  jump(tag_14)\ntag_15:\n  pop\n  swap1\n  jump\t// out\n    /* \"#utility.yul\":7:327   */\ntag_6:\n    /* \"#utility.yul\":51:57   */\n  0x00\n    /* \"#utility.yul\":88:89   */\n  0x02\n    /* \"#utility.yul\":82:86   */\n  dup3\n    /* \"#utility.yul\":78:90   */\n  div\n    /* \"#utility.yul\":68:90   */\n  swap1\n  pop\n    /* \"#utility.yul\":135:136   */\n  0x01\n    /* \"#utility.yul\":129:133   */\n  dup3\n    /* \"#utility.yul\":125:137   */\n  and\n    /* \"#utility.yul\":156:174   */\n  dup1\n    /* \"#utility.yul\":146:227   */\n  tag_18\n  jumpi\n    /* \"#utility.yul\":212:216   */\n  0x7f\n    /* \"#utility.yul\":204:210   */\n  dup3\n    /* \"#utility.yul\":200:217   */\n  and\n    /* \"#utility.yul\":190:217   */\n  swap2\n  pop\n    /* \"#utility.yul\":146:227   */\ntag_18:\n    /* \"#utility.yul\":274:276   */\n  0x20\n    /* \"#utility.yul\":266:272   */\n  dup3\n    /* \"#utility.yul\":263:277   */\n  lt\n    /* \"#utility.yul\":243:261   */\n  dup2\n    /* \"#utility.yul\":240:278   */\n  eq\n    /* \"#utility.yul\":237:321   */\n  iszero\n  tag_19\n  jumpi\n    /* \"#utility.yul\":293:311   */\n  tag_20\n  tag_21\n  jump\t// in\ntag_20:\n    /* \"#utility.yul\":237:321   */\ntag_19:\n    /* \"#utility.yul\":58:327   */\n  pop\n    /* \"#utility.yul\":7:327   */\n  swap2\n  swap1\n  pop\n  jump\t// out\n    /* \"#utility.yul\":333:513   */\ntag_21:\n    /* \"#utility.yul\":381:458   */\n  0x4e487b7100000000000000000000000000000000000000000000000000000000\n    /* \"#utility.yul\":378:379   */\n  0x00\n    /* \"#utility.yul\":371:459   */\n  mstore\n    /* \"#utility.yul\":478:482   */\n  0x22\n    /* \"#utility.yul\":475:476   */\n  0x04\n    /* \"#utility.yul\":468:483   */\n  mstore\n    /* \"#utility.yul\":502:506   */\n  0x24\n    /* \"#utility.yul\":499:500   */\n  0x00\n    /* \"#utility.yul\":492:507   */\n  revert\n    /* \"sendtosend.sol\":72:1444  contract status{\r... */\ntag_4:\n  dataSize(sub_0)\n  dup1\n  dataOffset(sub_0)\n  0x00\n  codecopy\n  0x00\n  return\nstop\n\nsub_0: assembly {\n        /* \"sendtosend.sol\":72:1444  contract status{\r... */\n      mstore(0x40, 0x80)\n      jumpi(tag_1, lt(calldatasize, 0x04))\n      shr(0xe0, calldataload(0x00))\n      dup1\n      0x0b1fa23f\n      eq\n      tag_2\n      jumpi\n      dup1\n      0x0ebcbdb8\n      eq\n      tag_3\n      jumpi\n      dup1\n      0x8b9c657a\n      eq\n      tag_4\n      jumpi\n      dup1\n      0xd0679d34\n      eq\n      tag_5\n      jumpi\n    tag_1:\n      0x00\n      dup1\n      revert\n        /* \"sendtosend.sol\":1322:1437  function sendNow(address payable receiver) public payable {\r... */\n    tag_2:\n      tag_6\n      0x04\n      dup1\n      calldatasize\n      sub\n      dup2\n      add\n      swap1\n      tag_7\n      swap2\n      swap1\n      tag_8\n      jump\t// in\n    tag_7:\n      tag_9\n      jump\t// in\n    tag_6:\n      stop\n        /* \"sendtosend.sol\":552:1011  function setInfo(address _addr, string memory _name, uint256 _StudentID, string memory _major, uint256 _gpa, string memory _company) public payable {\r... */\n    tag_3:\n      tag_10\n      0x04\n      dup1\n      calldatasize\n      sub\n      dup2\n      add\n      swap1\n      tag_11\n      swap2\n      swap1\n      tag_12\n      jump\t// in\n    tag_11:\n      tag_13\n      jump\t// in\n    tag_10:\n      stop\n        /* \"sendtosend.sol\":493:543  mapping(address => Student) public getInfoByWallet */\n    tag_4:\n      callvalue\n      dup1\n      iszero\n      tag_14\n      jumpi\n      0x00\n      dup1\n      revert\n    tag_14:\n      pop\n      tag_15\n      0x04\n      dup1\n      calldatasize\n      sub\n      dup2\n      add\n      swap1\n      tag_16\n      swap2\n      swap1\n      tag_17\n      jump\t// in\n    tag_16:\n      tag_18\n      jump\t// in\n    tag_15:\n      mload(0x40)\n      tag_19\n      swap7\n      swap6\n      swap5\n      swap4\n      swap3\n      swap2\n      swap1\n      tag_20\n      jump\t// in\n    tag_19:\n      mload(0x40)\n      dup1\n      swap2\n      sub\n      swap1\n      return\n        /* \"sendtosend.sol\":1019:1314  function send(address receiver, uint amount) public payable {\r... */\n    tag_5:\n      tag_21\n      0x04\n      dup1\n      calldatasize\n      sub\n      dup2\n      add\n      swap1\n      tag_22\n      swap2\n      swap1\n      tag_23\n      jump\t// in\n    tag_22:\n      tag_24\n      jump\t// in\n    tag_21:\n      stop\n        /* \"sendtosend.sol\":1322:1437  function sendNow(address payable receiver) public payable {\r... */\n    tag_9:\n        /* \"sendtosend.sol\":1391:1399  receiver */\n      dup1\n        /* \"sendtosend.sol\":1391:1408  receiver.transfer */\n      0xffffffffffffffffffffffffffffffffffffffff\n      and\n        /* \"sendtosend.sol\":1391:1419  receiver.transfer(msg.value) */\n      0x08fc\n        /* \"sendtosend.sol\":1409:1418  msg.value */\n      callvalue\n        /* \"sendtosend.sol\":1391:1419  receiver.transfer(msg.value) */\n      swap1\n      dup2\n      iszero\n      mul\n      swap1\n      mload(0x40)\n      0x00\n      mload(0x40)\n      dup1\n      dup4\n      sub\n      dup2\n      dup6\n      dup9\n      dup9\n      call\n      swap4\n      pop\n      pop\n      pop\n      pop\n      iszero\n      dup1\n      iszero\n      tag_27\n      jumpi\n      returndatasize\n      0x00\n      dup1\n      returndatacopy\n      revert(0x00, returndatasize)\n    tag_27:\n      pop\n        /* \"sendtosend.sol\":1322:1437  function sendNow(address payable receiver) public payable {\r... */\n      pop\n      jump\t// out\n        /* \"sendtosend.sol\":552:1011  function setInfo(address _addr, string memory _name, uint256 _StudentID, string memory _major, uint256 _gpa, string memory _company) public payable {\r... */\n    tag_13:\n        /* \"sendtosend.sol\":741:746  _name */\n      dup5\n        /* \"sendtosend.sol\":711:726  getInfoByWallet */\n      0x03\n        /* \"sendtosend.sol\":711:733  getInfoByWallet[_addr] */\n      0x00\n        /* \"sendtosend.sol\":727:732  _addr */\n      dup9\n        /* \"sendtosend.sol\":711:733  getInfoByWallet[_addr] */\n      0xffffffffffffffffffffffffffffffffffffffff\n      and\n      0xffffffffffffffffffffffffffffffffffffffff\n      and\n      dup2\n      mstore\n      0x20\n      add\n      swap1\n      dup2\n      mstore\n      0x20\n      add\n      0x00\n      keccak256\n        /* \"sendtosend.sol\":711:738  getInfoByWallet[_addr].name */\n      0x00\n      add\n        /* \"sendtosend.sol\":711:746  getInfoByWallet[_addr].name = _name */\n      swap1\n      dup1\n      mload\n      swap1\n      0x20\n      add\n      swap1\n      tag_29\n      swap3\n      swap2\n      swap1\n      tag_30\n      jump\t// in\n    tag_29:\n      pop\n        /* \"sendtosend.sol\":792:802  _StudentID */\n      dup4\n        /* \"sendtosend.sol\":757:772  getInfoByWallet */\n      0x03\n        /* \"sendtosend.sol\":757:779  getInfoByWallet[_addr] */\n      0x00\n        /* \"sendtosend.sol\":773:778  _addr */\n      dup9\n        /* \"sendtosend.sol\":757:779  getInfoByWallet[_addr] */\n      0xffffffffffffffffffffffffffffffffffffffff\n      and\n      0xffffffffffffffffffffffffffffffffffffffff\n      and\n      dup2\n      mstore\n      0x20\n      add\n      swap1\n      dup2\n      mstore\n      0x20\n      add\n      0x00\n      keccak256\n        /* \"sendtosend.sol\":757:789  getInfoByWallet[_addr].StudentID */\n      0x01\n      add\n        /* \"sendtosend.sol\":757:802  getInfoByWallet[_addr].StudentID = _StudentID */\n      dup2\n      swap1\n      sstore\n      pop\n        /* \"sendtosend.sol\":844:850  _major */\n      dup3\n        /* \"sendtosend.sol\":813:828  getInfoByWallet */\n      0x03\n        /* \"sendtosend.sol\":813:835  getInfoByWallet[_addr] */\n      0x00\n        /* \"sendtosend.sol\":829:834  _addr */\n      dup9\n        /* \"sendtosend.sol\":813:835  getInfoByWallet[_addr] */\n      0xffffffffffffffffffffffffffffffffffffffff\n      and\n      0xffffffffffffffffffffffffffffffffffffffff\n      and\n      dup2\n      mstore\n      0x20\n      add\n      swap1\n      dup2\n      mstore\n      0x20\n      add\n      0x00\n      keccak256\n        /* \"sendtosend.sol\":813:841  getInfoByWallet[_addr].major */\n      0x02\n      add\n        /* \"sendtosend.sol\":813:850  getInfoByWallet[_addr].major = _major */\n      swap1\n      dup1\n      mload\n      swap1\n      0x20\n      add\n      swap1\n      tag_31\n      swap3\n      swap2\n      swap1\n      tag_30\n      jump\t// in\n    tag_31:\n      pop\n        /* \"sendtosend.sol\":890:894  _gpa */\n      dup2\n        /* \"sendtosend.sol\":861:876  getInfoByWallet */\n      0x03\n        /* \"sendtosend.sol\":861:883  getInfoByWallet[_addr] */\n      0x00\n        /* \"sendtosend.sol\":877:882  _addr */\n      dup9\n        /* \"sendtosend.sol\":861:883  getInfoByWallet[_addr] */\n      0xffffffffffffffffffffffffffffffffffffffff\n      and\n      0xffffffffffffffffffffffffffffffffffffffff\n      and\n      dup2\n      mstore\n      0x20\n      add\n      swap1\n      dup2\n      mstore\n      0x20\n      add\n      0x00\n      keccak256\n        /* \"sendtosend.sol\":861:887  getInfoByWallet[_addr].gpa */\n      0x03\n      add\n        /* \"sendtosend.sol\":861:894  getInfoByWallet[_addr].gpa = _gpa */\n      dup2\n      swap1\n      sstore\n      pop\n        /* \"sendtosend.sol\":938:946  _company */\n      dup1\n        /* \"sendtosend.sol\":905:920  getInfoByWallet */\n      0x03\n        /* \"sendtosend.sol\":905:927  getInfoByWallet[_addr] */\n      0x00\n        /* \"sendtosend.sol\":921:926  _addr */\n      dup9\n        /* \"sendtosend.sol\":905:927  getInfoByWallet[_addr] */\n      0xffffffffffffffffffffffffffffffffffffffff\n      and\n      0xffffffffffffffffffffffffffffffffffffffff\n      and\n      dup2\n      mstore\n      0x20\n      add\n      swap1\n      dup2\n      mstore\n      0x20\n      add\n      0x00\n      keccak256\n        /* \"sendtosend.sol\":905:935  getInfoByWallet[_addr].company */\n      0x04\n      add\n        /* \"sendtosend.sol\":905:946  getInfoByWallet[_addr].company = _company */\n      swap1\n      dup1\n      mload\n      swap1\n      0x20\n      add\n      swap1\n      tag_32\n      swap3\n      swap2\n      swap1\n      tag_30\n      jump\t// in\n    tag_32:\n      pop\n        /* \"sendtosend.sol\":990:995  _addr */\n      dup6\n        /* \"sendtosend.sol\":990:1003  _addr.balance */\n      0xffffffffffffffffffffffffffffffffffffffff\n      and\n      balance\n        /* \"sendtosend.sol\":957:972  getInfoByWallet */\n      0x03\n        /* \"sendtosend.sol\":957:979  getInfoByWallet[_addr] */\n      0x00\n        /* \"sendtosend.sol\":973:978  _addr */\n      dup9\n        /* \"sendtosend.sol\":957:979  getInfoByWallet[_addr] */\n      0xffffffffffffffffffffffffffffffffffffffff\n      and\n      0xffffffffffffffffffffffffffffffffffffffff\n      and\n      dup2\n      mstore\n      0x20\n      add\n      swap1\n      dup2\n      mstore\n      0x20\n      add\n      0x00\n      keccak256\n        /* \"sendtosend.sol\":957:987  getInfoByWallet[_addr].balance */\n      0x05\n      add\n        /* \"sendtosend.sol\":957:1003  getInfoByWallet[_addr].balance = _addr.balance */\n      dup2\n      swap1\n      sstore\n      pop\n        /* \"sendtosend.sol\":552:1011  function setInfo(address _addr, string memory _name, uint256 _StudentID, string memory _major, uint256 _gpa, string memory _company) public payable {\r... */\n      pop\n      pop\n      pop\n      pop\n      pop\n      pop\n      jump\t// out\n        /* \"sendtosend.sol\":493:543  mapping(address => Student) public getInfoByWallet */\n    tag_18:\n      mstore(0x20, 0x03)\n      dup1\n      0x00\n      mstore\n      keccak256(0x00, 0x40)\n      0x00\n      swap2\n      pop\n      swap1\n      pop\n      dup1\n      0x00\n      add\n      dup1\n      sload\n      tag_33\n      swap1\n      tag_34\n      jump\t// in\n    tag_33:\n      dup1\n      0x1f\n      add\n      0x20\n      dup1\n      swap2\n      div\n      mul\n      0x20\n      add\n      mload(0x40)\n      swap1\n      dup2\n      add\n      0x40\n      mstore\n      dup1\n      swap3\n      swap2\n      swap1\n      dup2\n      dup2\n      mstore\n      0x20\n      add\n      dup3\n      dup1\n      sload\n      tag_35\n      swap1\n      tag_34\n      jump\t// in\n    tag_35:\n      dup1\n      iszero\n      tag_36\n      jumpi\n      dup1\n      0x1f\n      lt\n      tag_37\n      jumpi\n      0x0100\n      dup1\n      dup4\n      sload\n      div\n      mul\n      dup4\n      mstore\n      swap2\n      0x20\n      add\n      swap2\n      jump(tag_36)\n    tag_37:\n      dup3\n      add\n      swap2\n      swap1\n      0x00\n      mstore\n      keccak256(0x00, 0x20)\n      swap1\n    tag_38:\n      dup2\n      sload\n      dup2\n      mstore\n      swap1\n      0x01\n      add\n      swap1\n      0x20\n      add\n      dup1\n      dup4\n      gt\n      tag_38\n      jumpi\n      dup3\n      swap1\n      sub\n      0x1f\n      and\n      dup3\n      add\n      swap2\n    tag_36:\n      pop\n      pop\n      pop\n      pop\n      pop\n      swap1\n      dup1\n      0x01\n      add\n      sload\n      swap1\n      dup1\n      0x02\n      add\n      dup1\n      sload\n      tag_39\n      swap1\n      tag_34\n      jump\t// in\n    tag_39:\n      dup1\n      0x1f\n      add\n      0x20\n      dup1\n      swap2\n      div\n      mul\n      0x20\n      add\n      mload(0x40)\n      swap1\n      dup2\n      add\n      0x40\n      mstore\n      dup1\n      swap3\n      swap2\n      swap1\n      dup2\n      dup2\n      mstore\n      0x20\n      add\n      dup3\n      dup1\n      sload\n      tag_40\n      swap1\n      tag_34\n      jump\t// in\n    tag_40:\n      dup1\n      iszero\n      tag_41\n      jumpi\n      dup1\n      0x1f\n      lt\n      tag_42\n      jumpi\n      0x0100\n      dup1\n      dup4\n      sload\n      div\n      mul\n      dup4\n      mstore\n      swap2\n      0x20\n      add\n      swap2\n      jump(tag_41)\n    tag_42:\n      dup3\n      add\n      swap2\n      swap1\n      0x00\n      mstore\n      keccak256(0x00, 0x20)\n      swap1\n    tag_43:\n      dup2\n      sload\n      dup2\n      mstore\n      swap1\n      0x01\n      add\n      swap1\n      0x20\n      add\n      dup1\n      dup4\n      gt\n      tag_43\n      jumpi\n      dup3\n      swap1\n      sub\n      0x1f\n      and\n      dup3\n      add\n      swap2\n    tag_41:\n      pop\n      pop\n      pop\n      pop\n      pop\n      swap1\n      dup1\n      0x03\n      add\n      sload\n      swap1\n      dup1\n      0x04\n      add\n      dup1\n      sload\n      tag_44\n      swap1\n      tag_34\n      jump\t// in\n    tag_44:\n      dup1\n      0x1f\n      add\n      0x20\n      dup1\n      swap2\n      div\n      mul\n      0x20\n      add\n      mload(0x40)\n      swap1\n      dup2\n      add\n      0x40\n      mstore\n      dup1\n      swap3\n      swap2\n      swap1\n      dup2\n      dup2\n      mstore\n      0x20\n      add\n      dup3\n      dup1\n      sload\n      tag_45\n      swap1\n      tag_34\n      jump\t// in\n    tag_45:\n      dup1\n      iszero\n      tag_46\n      jumpi\n      dup1\n      0x1f\n      lt\n      tag_47\n      jumpi\n      0x0100\n      dup1\n      dup4\n      sload\n      div\n      mul\n      dup4\n      mstore\n      swap2\n      0x20\n      add\n      swap2\n      jump(tag_46)\n    tag_47:\n      dup3\n      add\n      swap2\n      swap1\n      0x00\n      mstore\n      keccak256(0x00, 0x20)\n      swap1\n    tag_48:\n      dup2\n      sload\n      dup2\n      mstore\n      swap1\n      0x01\n      add\n      swap1\n      0x20\n      add\n      dup1\n      dup4\n      gt\n      tag_48\n      jumpi\n      dup3\n      swap1\n      sub\n      0x1f\n      and\n      dup3\n      add\n      swap2\n    tag_46:\n      pop\n      pop\n      pop\n      pop\n      pop\n      swap1\n      dup1\n      0x05\n      add\n      sload\n      swap1\n      pop\n      dup7\n      jump\t// out\n        /* \"sendtosend.sol\":1019:1314  function send(address receiver, uint amount) public payable {\r... */\n    tag_24:\n        /* \"sendtosend.sol\":1132:1138  amount */\n      dup1\n        /* \"sendtosend.sol\":1094:1109  getInfoByWallet */\n      0x03\n        /* \"sendtosend.sol\":1094:1121  getInfoByWallet[msg.sender] */\n      0x00\n        /* \"sendtosend.sol\":1110:1120  msg.sender */\n      caller\n        /* \"sendtosend.sol\":1094:1121  getInfoByWallet[msg.sender] */\n      0xffffffffffffffffffffffffffffffffffffffff\n      and\n      0xffffffffffffffffffffffffffffffffffffffff\n      and\n      dup2\n      mstore\n      0x20\n      add\n      swap1\n      dup2\n      mstore\n      0x20\n      add\n      0x00\n      keccak256\n        /* \"sendtosend.sol\":1094:1129  getInfoByWallet[msg.sender].balance */\n      0x05\n      add\n      sload\n        /* \"sendtosend.sol\":1094:1138  getInfoByWallet[msg.sender].balance < amount */\n      lt\n        /* \"sendtosend.sol\":1090:1147  if (getInfoByWallet[msg.sender].balance < amount) return; */\n      iszero\n      tag_50\n      jumpi\n        /* \"sendtosend.sol\":1140:1147  return; */\n      jump(tag_49)\n        /* \"sendtosend.sol\":1090:1147  if (getInfoByWallet[msg.sender].balance < amount) return; */\n    tag_50:\n        /* \"sendtosend.sol\":1196:1202  amount */\n      dup1\n        /* \"sendtosend.sol\":1157:1172  getInfoByWallet */\n      0x03\n        /* \"sendtosend.sol\":1157:1184  getInfoByWallet[msg.sender] */\n      0x00\n        /* \"sendtosend.sol\":1173:1183  msg.sender */\n      caller\n        /* \"sendtosend.sol\":1157:1184  getInfoByWallet[msg.sender] */\n      0xffffffffffffffffffffffffffffffffffffffff\n      and\n      0xffffffffffffffffffffffffffffffffffffffff\n      and\n      dup2\n      mstore\n      0x20\n      add\n      swap1\n      dup2\n      mstore\n      0x20\n      add\n      0x00\n      keccak256\n        /* \"sendtosend.sol\":1157:1192  getInfoByWallet[msg.sender].balance */\n      0x05\n      add\n      0x00\n        /* \"sendtosend.sol\":1157:1202  getInfoByWallet[msg.sender].balance -= amount */\n      dup3\n      dup3\n      sload\n      tag_51\n      swap2\n      swap1\n      tag_52\n      jump\t// in\n    tag_51:\n      swap3\n      pop\n      pop\n      dup2\n      swap1\n      sstore\n      pop\n        /* \"sendtosend.sol\":1250:1256  amount */\n      dup1\n        /* \"sendtosend.sol\":1213:1228  getInfoByWallet */\n      0x03\n        /* \"sendtosend.sol\":1213:1238  getInfoByWallet[receiver] */\n      0x00\n        /* \"sendtosend.sol\":1229:1237  receiver */\n      dup5\n        /* \"sendtosend.sol\":1213:1238  getInfoByWallet[receiver] */\n      0xffffffffffffffffffffffffffffffffffffffff\n      and\n      0xffffffffffffffffffffffffffffffffffffffff\n      and\n      dup2\n      mstore\n      0x20\n      add\n      swap1\n      dup2\n      mstore\n      0x20\n      add\n      0x00\n      keccak256\n        /* \"sendtosend.sol\":1213:1246  getInfoByWallet[receiver].balance */\n      0x05\n      add\n      0x00\n        /* \"sendtosend.sol\":1213:1256  getInfoByWallet[receiver].balance += amount */\n      dup3\n      dup3\n      sload\n      tag_53\n      swap2\n      swap1\n      tag_54\n      jump\t// in\n    tag_53:\n      swap3\n      pop\n      pop\n      dup2\n      swap1\n      sstore\n      pop\n        /* \"sendtosend.sol\":1272:1306  Sent(msg.sender, receiver, amount) */\n      0x3990db2d31862302a685e8086b5755072a6e2b5b780af1ee81ece35ee3cd3345\n        /* \"sendtosend.sol\":1277:1287  msg.sender */\n      caller\n        /* \"sendtosend.sol\":1289:1297  receiver */\n      dup4\n        /* \"sendtosend.sol\":1299:1305  amount */\n      dup4\n        /* \"sendtosend.sol\":1272:1306  Sent(msg.sender, receiver, amount) */\n      mload(0x40)\n      tag_55\n      swap4\n      swap3\n      swap2\n      swap1\n      tag_56\n      jump\t// in\n    tag_55:\n      mload(0x40)\n      dup1\n      swap2\n      sub\n      swap1\n      log1\n        /* \"sendtosend.sol\":1019:1314  function send(address receiver, uint amount) public payable {\r... */\n    tag_49:\n      pop\n      pop\n      jump\t// out\n    tag_30:\n      dup3\n      dup1\n      sload\n      tag_57\n      swap1\n      tag_34\n      jump\t// in\n    tag_57:\n      swap1\n      0x00\n      mstore\n      keccak256(0x00, 0x20)\n      swap1\n      0x1f\n      add\n      0x20\n      swap1\n      div\n      dup2\n      add\n      swap3\n      dup3\n      tag_59\n      jumpi\n      0x00\n      dup6\n      sstore\n      jump(tag_58)\n    tag_59:\n      dup3\n      0x1f\n      lt\n      tag_60\n      jumpi\n      dup1\n      mload\n      not(0xff)\n      and\n      dup4\n      dup1\n      add\n      or\n      dup6\n      sstore\n      jump(tag_58)\n    tag_60:\n      dup3\n      dup1\n      add\n      0x01\n      add\n      dup6\n      sstore\n      dup3\n      iszero\n      tag_58\n      jumpi\n      swap2\n      dup3\n      add\n    tag_61:\n      dup3\n      dup2\n      gt\n      iszero\n      tag_62\n      jumpi\n      dup3\n      mload\n      dup3\n      sstore\n      swap2\n      0x20\n      add\n      swap2\n      swap1\n      0x01\n      add\n      swap1\n      jump(tag_61)\n    tag_62:\n    tag_58:\n      pop\n      swap1\n      pop\n      tag_63\n      swap2\n      swap1\n      tag_64\n      jump\t// in\n    tag_63:\n      pop\n      swap1\n      jump\t// out\n    tag_64:\n    tag_65:\n      dup1\n      dup3\n      gt\n      iszero\n      tag_66\n      jumpi\n      0x00\n      dup2\n      0x00\n      swap1\n      sstore\n      pop\n      0x01\n      add\n      jump(tag_65)\n    tag_66:\n      pop\n      swap1\n      jump\t// out\n        /* \"#utility.yul\":7:419   */\n    tag_68:\n        /* \"#utility.yul\":85:90   */\n      0x00\n        /* \"#utility.yul\":110:176   */\n      tag_70\n        /* \"#utility.yul\":126:175   */\n      tag_71\n        /* \"#utility.yul\":168:174   */\n      dup5\n        /* \"#utility.yul\":126:175   */\n      tag_72\n      jump\t// in\n    tag_71:\n        /* \"#utility.yul\":110:176   */\n      tag_73\n      jump\t// in\n    tag_70:\n        /* \"#utility.yul\":101:176   */\n      swap1\n      pop\n        /* \"#utility.yul\":199:205   */\n      dup3\n        /* \"#utility.yul\":192:197   */\n      dup2\n        /* \"#utility.yul\":185:206   */\n      mstore\n        /* \"#utility.yul\":237:241   */\n      0x20\n        /* \"#utility.yul\":230:235   */\n      dup2\n        /* \"#utility.yul\":226:242   */\n      add\n        /* \"#utility.yul\":275:278   */\n      dup5\n        /* \"#utility.yul\":266:272   */\n      dup5\n        /* \"#utility.yul\":261:264   */\n      dup5\n        /* \"#utility.yul\":257:273   */\n      add\n        /* \"#utility.yul\":254:279   */\n      gt\n        /* \"#utility.yul\":251:363   */\n      iszero\n      tag_74\n      jumpi\n        /* \"#utility.yul\":282:361   */\n      tag_75\n      tag_76\n      jump\t// in\n    tag_75:\n        /* \"#utility.yul\":251:363   */\n    tag_74:\n        /* \"#utility.yul\":372:413   */\n      tag_77\n        /* \"#utility.yul\":406:412   */\n      dup5\n        /* \"#utility.yul\":401:404   */\n      dup3\n        /* \"#utility.yul\":396:399   */\n      dup6\n        /* \"#utility.yul\":372:413   */\n      tag_78\n      jump\t// in\n    tag_77:\n        /* \"#utility.yul\":91:419   */\n      pop\n        /* \"#utility.yul\":7:419   */\n      swap4\n      swap3\n      pop\n      pop\n      pop\n      jump\t// out\n        /* \"#utility.yul\":425:564   */\n    tag_79:\n        /* \"#utility.yul\":471:476   */\n      0x00\n        /* \"#utility.yul\":509:515   */\n      dup2\n        /* \"#utility.yul\":496:516   */\n      calldataload\n        /* \"#utility.yul\":487:516   */\n      swap1\n      pop\n        /* \"#utility.yul\":525:558   */\n      tag_81\n        /* \"#utility.yul\":552:557   */\n      dup2\n        /* \"#utility.yul\":525:558   */\n      tag_82\n      jump\t// in\n    tag_81:\n        /* \"#utility.yul\":425:564   */\n      swap3\n      swap2\n      pop\n      pop\n      jump\t// out\n        /* \"#utility.yul\":570:725   */\n    tag_83:\n        /* \"#utility.yul\":624:629   */\n      0x00\n        /* \"#utility.yul\":662:668   */\n      dup2\n        /* \"#utility.yul\":649:669   */\n      calldataload\n        /* \"#utility.yul\":640:669   */\n      swap1\n      pop\n        /* \"#utility.yul\":678:719   */\n      tag_85\n        /* \"#utility.yul\":713:718   */\n      dup2\n        /* \"#utility.yul\":678:719   */\n      tag_86\n      jump\t// in\n    tag_85:\n        /* \"#utility.yul\":570:725   */\n      swap3\n      swap2\n      pop\n      pop\n      jump\t// out\n        /* \"#utility.yul\":745:1085   */\n    tag_87:\n        /* \"#utility.yul\":801:806   */\n      0x00\n        /* \"#utility.yul\":850:853   */\n      dup3\n        /* \"#utility.yul\":843:847   */\n      0x1f\n        /* \"#utility.yul\":835:841   */\n      dup4\n        /* \"#utility.yul\":831:848   */\n      add\n        /* \"#utility.yul\":827:854   */\n      slt\n        /* \"#utility.yul\":817:939   */\n      tag_89\n      jumpi\n        /* \"#utility.yul\":858:937   */\n      tag_90\n      tag_91\n      jump\t// in\n    tag_90:\n        /* \"#utility.yul\":817:939   */\n    tag_89:\n        /* \"#utility.yul\":975:981   */\n      dup2\n        /* \"#utility.yul\":962:982   */\n      calldataload\n        /* \"#utility.yul\":1000:1079   */\n      tag_92\n        /* \"#utility.yul\":1075:1078   */\n      dup5\n        /* \"#utility.yul\":1067:1073   */\n      dup3\n        /* \"#utility.yul\":1060:1064   */\n      0x20\n        /* \"#utility.yul\":1052:1058   */\n      dup7\n        /* \"#utility.yul\":1048:1065   */\n      add\n        /* \"#utility.yul\":1000:1079   */\n      tag_68\n      jump\t// in\n    tag_92:\n        /* \"#utility.yul\":991:1079   */\n      swap2\n      pop\n        /* \"#utility.yul\":807:1085   */\n      pop\n        /* \"#utility.yul\":745:1085   */\n      swap3\n      swap2\n      pop\n      pop\n      jump\t// out\n        /* \"#utility.yul\":1091:1230   */\n    tag_93:\n        /* \"#utility.yul\":1137:1142   */\n      0x00\n        /* \"#utility.yul\":1175:1181   */\n      dup2\n        /* \"#utility.yul\":1162:1182   */\n      calldataload\n        /* \"#utility.yul\":1153:1182   */\n      swap1\n      pop\n        /* \"#utility.yul\":1191:1224   */\n      tag_95\n        /* \"#utility.yul\":1218:1223   */\n      dup2\n        /* \"#utility.yul\":1191:1224   */\n      tag_96\n      jump\t// in\n    tag_95:\n        /* \"#utility.yul\":1091:1230   */\n      swap3\n      swap2\n      pop\n      pop\n      jump\t// out\n        /* \"#utility.yul\":1236:1565   */\n    tag_17:\n        /* \"#utility.yul\":1295:1301   */\n      0x00\n        /* \"#utility.yul\":1344:1346   */\n      0x20\n        /* \"#utility.yul\":1332:1341   */\n      dup3\n        /* \"#utility.yul\":1323:1330   */\n      dup5\n        /* \"#utility.yul\":1319:1342   */\n      sub\n        /* \"#utility.yul\":1315:1347   */\n      slt\n        /* \"#utility.yul\":1312:1431   */\n      iszero\n      tag_98\n      jumpi\n        /* \"#utility.yul\":1350:1429   */\n      tag_99\n      tag_100\n      jump\t// in\n    tag_99:\n        /* \"#utility.yul\":1312:1431   */\n    tag_98:\n        /* \"#utility.yul\":1470:1471   */\n      0x00\n        /* \"#utility.yul\":1495:1548   */\n      tag_101\n        /* \"#utility.yul\":1540:1547   */\n      dup5\n        /* \"#utility.yul\":1531:1537   */\n      dup3\n        /* \"#utility.yul\":1520:1529   */\n      dup6\n        /* \"#utility.yul\":1516:1538   */\n      add\n        /* \"#utility.yul\":1495:1548   */\n      tag_79\n      jump\t// in\n    tag_101:\n        /* \"#utility.yul\":1485:1548   */\n      swap2\n      pop\n        /* \"#utility.yul\":1441:1558   */\n      pop\n        /* \"#utility.yul\":1236:1565   */\n      swap3\n      swap2\n      pop\n      pop\n      jump\t// out\n        /* \"#utility.yul\":1571:1916   */\n    tag_8:\n        /* \"#utility.yul\":1638:1644   */\n      0x00\n        /* \"#utility.yul\":1687:1689   */\n      0x20\n        /* \"#utility.yul\":1675:1684   */\n      dup3\n        /* \"#utility.yul\":1666:1673   */\n      dup5\n        /* \"#utility.yul\":1662:1685   */\n      sub\n        /* \"#utility.yul\":1658:1690   */\n      slt\n        /* \"#utility.yul\":1655:1774   */\n      iszero\n      tag_103\n      jumpi\n        /* \"#utility.yul\":1693:1772   */\n      tag_104\n      tag_100\n      jump\t// in\n    tag_104:\n        /* \"#utility.yul\":1655:1774   */\n    tag_103:\n        /* \"#utility.yul\":1813:1814   */\n      0x00\n        /* \"#utility.yul\":1838:1899   */\n      tag_105\n        /* \"#utility.yul\":1891:1898   */\n      dup5\n        /* \"#utility.yul\":1882:1888   */\n      dup3\n        /* \"#utility.yul\":1871:1880   */\n      dup6\n        /* \"#utility.yul\":1867:1889   */\n      add\n        /* \"#utility.yul\":1838:1899   */\n      tag_83\n      jump\t// in\n    tag_105:\n        /* \"#utility.yul\":1828:1899   */\n      swap2\n      pop\n        /* \"#utility.yul\":1784:1909   */\n      pop\n        /* \"#utility.yul\":1571:1916   */\n      swap3\n      swap2\n      pop\n      pop\n      jump\t// out\n        /* \"#utility.yul\":1922:3519   */\n    tag_12:\n        /* \"#utility.yul\":2056:2062   */\n      0x00\n        /* \"#utility.yul\":2064:2070   */\n      dup1\n        /* \"#utility.yul\":2072:2078   */\n      0x00\n        /* \"#utility.yul\":2080:2086   */\n      dup1\n        /* \"#utility.yul\":2088:2094   */\n      0x00\n        /* \"#utility.yul\":2096:2102   */\n      dup1\n        /* \"#utility.yul\":2145:2148   */\n      0xc0\n        /* \"#utility.yul\":2133:2142   */\n      dup8\n        /* \"#utility.yul\":2124:2131   */\n      dup10\n        /* \"#utility.yul\":2120:2143   */\n      sub\n        /* \"#utility.yul\":2116:2149   */\n      slt\n        /* \"#utility.yul\":2113:2233   */\n      iszero\n      tag_107\n      jumpi\n        /* \"#utility.yul\":2152:2231   */\n      tag_108\n      tag_100\n      jump\t// in\n    tag_108:\n        /* \"#utility.yul\":2113:2233   */\n    tag_107:\n        /* \"#utility.yul\":2272:2273   */\n      0x00\n        /* \"#utility.yul\":2297:2350   */\n      tag_109\n        /* \"#utility.yul\":2342:2349   */\n      dup10\n        /* \"#utility.yul\":2333:2339   */\n      dup3\n        /* \"#utility.yul\":2322:2331   */\n      dup11\n        /* \"#utility.yul\":2318:2340   */\n      add\n        /* \"#utility.yul\":2297:2350   */\n      tag_79\n      jump\t// in\n    tag_109:\n        /* \"#utility.yul\":2287:2350   */\n      swap7\n      pop\n        /* \"#utility.yul\":2243:2360   */\n      pop\n        /* \"#utility.yul\":2427:2429   */\n      0x20\n        /* \"#utility.yul\":2416:2425   */\n      dup8\n        /* \"#utility.yul\":2412:2430   */\n      add\n        /* \"#utility.yul\":2399:2431   */\n      calldataload\n        /* \"#utility.yul\":2458:2476   */\n      0xffffffffffffffff\n        /* \"#utility.yul\":2450:2456   */\n      dup2\n        /* \"#utility.yul\":2447:2477   */\n      gt\n        /* \"#utility.yul\":2444:2561   */\n      iszero\n      tag_110\n      jumpi\n        /* \"#utility.yul\":2480:2559   */\n      tag_111\n      tag_112\n      jump\t// in\n    tag_111:\n        /* \"#utility.yul\":2444:2561   */\n    tag_110:\n        /* \"#utility.yul\":2585:2648   */\n      tag_113\n        /* \"#utility.yul\":2640:2647   */\n      dup10\n        /* \"#utility.yul\":2631:2637   */\n      dup3\n        /* \"#utility.yul\":2620:2629   */\n      dup11\n        /* \"#utility.yul\":2616:2638   */\n      add\n        /* \"#utility.yul\":2585:2648   */\n      tag_87\n      jump\t// in\n    tag_113:\n        /* \"#utility.yul\":2575:2648   */\n      swap6\n      pop\n        /* \"#utility.yul\":2370:2658   */\n      pop\n        /* \"#utility.yul\":2697:2699   */\n      0x40\n        /* \"#utility.yul\":2723:2776   */\n      tag_114\n        /* \"#utility.yul\":2768:2775   */\n      dup10\n        /* \"#utility.yul\":2759:2765   */\n      dup3\n        /* \"#utility.yul\":2748:2757   */\n      dup11\n        /* \"#utility.yul\":2744:2766   */\n      add\n        /* \"#utility.yul\":2723:2776   */\n      tag_93\n      jump\t// in\n    tag_114:\n        /* \"#utility.yul\":2713:2776   */\n      swap5\n      pop\n        /* \"#utility.yul\":2668:2786   */\n      pop\n        /* \"#utility.yul\":2853:2855   */\n      0x60\n        /* \"#utility.yul\":2842:2851   */\n      dup8\n        /* \"#utility.yul\":2838:2856   */\n      add\n        /* \"#utility.yul\":2825:2857   */\n      calldataload\n        /* \"#utility.yul\":2884:2902   */\n      0xffffffffffffffff\n        /* \"#utility.yul\":2876:2882   */\n      dup2\n        /* \"#utility.yul\":2873:2903   */\n      gt\n        /* \"#utility.yul\":2870:2987   */\n      iszero\n      tag_115\n      jumpi\n        /* \"#utility.yul\":2906:2985   */\n      tag_116\n      tag_112\n      jump\t// in\n    tag_116:\n        /* \"#utility.yul\":2870:2987   */\n    tag_115:\n        /* \"#utility.yul\":3011:3074   */\n      tag_117\n        /* \"#utility.yul\":3066:3073   */\n      dup10\n        /* \"#utility.yul\":3057:3063   */\n      dup3\n        /* \"#utility.yul\":3046:3055   */\n      dup11\n        /* \"#utility.yul\":3042:3064   */\n      add\n        /* \"#utility.yul\":3011:3074   */\n      tag_87\n      jump\t// in\n    tag_117:\n        /* \"#utility.yul\":3001:3074   */\n      swap4\n      pop\n        /* \"#utility.yul\":2796:3084   */\n      pop\n        /* \"#utility.yul\":3123:3126   */\n      0x80\n        /* \"#utility.yul\":3150:3203   */\n      tag_118\n        /* \"#utility.yul\":3195:3202   */\n      dup10\n        /* \"#utility.yul\":3186:3192   */\n      dup3\n        /* \"#utility.yul\":3175:3184   */\n      dup11\n        /* \"#utility.yul\":3171:3193   */\n      add\n        /* \"#utility.yul\":3150:3203   */\n      tag_93\n      jump\t// in\n    tag_118:\n        /* \"#utility.yul\":3140:3203   */\n      swap3\n      pop\n        /* \"#utility.yul\":3094:3213   */\n      pop\n        /* \"#utility.yul\":3280:3283   */\n      0xa0\n        /* \"#utility.yul\":3269:3278   */\n      dup8\n        /* \"#utility.yul\":3265:3284   */\n      add\n        /* \"#utility.yul\":3252:3285   */\n      calldataload\n        /* \"#utility.yul\":3312:3330   */\n      0xffffffffffffffff\n        /* \"#utility.yul\":3304:3310   */\n      dup2\n        /* \"#utility.yul\":3301:3331   */\n      gt\n        /* \"#utility.yul\":3298:3415   */\n      iszero\n      tag_119\n      jumpi\n        /* \"#utility.yul\":3334:3413   */\n      tag_120\n      tag_112\n      jump\t// in\n    tag_120:\n        /* \"#utility.yul\":3298:3415   */\n    tag_119:\n        /* \"#utility.yul\":3439:3502   */\n      tag_121\n        /* \"#utility.yul\":3494:3501   */\n      dup10\n        /* \"#utility.yul\":3485:3491   */\n      dup3\n        /* \"#utility.yul\":3474:3483   */\n      dup11\n        /* \"#utility.yul\":3470:3492   */\n      add\n        /* \"#utility.yul\":3439:3502   */\n      tag_87\n      jump\t// in\n    tag_121:\n        /* \"#utility.yul\":3429:3502   */\n      swap2\n      pop\n        /* \"#utility.yul\":3223:3512   */\n      pop\n        /* \"#utility.yul\":1922:3519   */\n      swap3\n      swap6\n      pop\n      swap3\n      swap6\n      pop\n      swap3\n      swap6\n      jump\t// out\n        /* \"#utility.yul\":3525:3999   */\n    tag_23:\n        /* \"#utility.yul\":3593:3599   */\n      0x00\n        /* \"#utility.yul\":3601:3607   */\n      dup1\n        /* \"#utility.yul\":3650:3652   */\n      0x40\n        /* \"#utility.yul\":3638:3647   */\n      dup4\n        /* \"#utility.yul\":3629:3636   */\n      dup6\n        /* \"#utility.yul\":3625:3648   */\n      sub\n        /* \"#utility.yul\":3621:3653   */\n      slt\n        /* \"#utility.yul\":3618:3737   */\n      iszero\n      tag_123\n      jumpi\n        /* \"#utility.yul\":3656:3735   */\n      tag_124\n      tag_100\n      jump\t// in\n    tag_124:\n        /* \"#utility.yul\":3618:3737   */\n    tag_123:\n        /* \"#utility.yul\":3776:3777   */\n      0x00\n        /* \"#utility.yul\":3801:3854   */\n      tag_125\n        /* \"#utility.yul\":3846:3853   */\n      dup6\n        /* \"#utility.yul\":3837:3843   */\n      dup3\n        /* \"#utility.yul\":3826:3835   */\n      dup7\n        /* \"#utility.yul\":3822:3844   */\n      add\n        /* \"#utility.yul\":3801:3854   */\n      tag_79\n      jump\t// in\n    tag_125:\n        /* \"#utility.yul\":3791:3854   */\n      swap3\n      pop\n        /* \"#utility.yul\":3747:3864   */\n      pop\n        /* \"#utility.yul\":3903:3905   */\n      0x20\n        /* \"#utility.yul\":3929:3982   */\n      tag_126\n        /* \"#utility.yul\":3974:3981   */\n      dup6\n        /* \"#utility.yul\":3965:3971   */\n      dup3\n        /* \"#utility.yul\":3954:3963   */\n      dup7\n        /* \"#utility.yul\":3950:3972   */\n      add\n        /* \"#utility.yul\":3929:3982   */\n      tag_93\n      jump\t// in\n    tag_126:\n        /* \"#utility.yul\":3919:3982   */\n      swap2\n      pop\n        /* \"#utility.yul\":3874:3992   */\n      pop\n        /* \"#utility.yul\":3525:3999   */\n      swap3\n      pop\n      swap3\n      swap1\n      pop\n      jump\t// out\n        /* \"#utility.yul\":4005:4123   */\n    tag_127:\n        /* \"#utility.yul\":4092:4116   */\n      tag_129\n        /* \"#utility.yul\":4110:4115   */\n      dup2\n        /* \"#utility.yul\":4092:4116   */\n      tag_130\n      jump\t// in\n    tag_129:\n        /* \"#utility.yul\":4087:4090   */\n      dup3\n        /* \"#utility.yul\":4080:4117   */\n      mstore\n        /* \"#utility.yul\":4005:4123   */\n      pop\n      pop\n      jump\t// out\n        /* \"#utility.yul\":4129:4493   */\n    tag_131:\n        /* \"#utility.yul\":4217:4220   */\n      0x00\n        /* \"#utility.yul\":4245:4284   */\n      tag_133\n        /* \"#utility.yul\":4278:4283   */\n      dup3\n        /* \"#utility.yul\":4245:4284   */\n      tag_134\n      jump\t// in\n    tag_133:\n        /* \"#utility.yul\":4300:4371   */\n      tag_135\n        /* \"#utility.yul\":4364:4370   */\n      dup2\n        /* \"#utility.yul\":4359:4362   */\n      dup6\n        /* \"#utility.yul\":4300:4371   */\n      tag_136\n      jump\t// in\n    tag_135:\n        /* \"#utility.yul\":4293:4371   */\n      swap4\n      pop\n        /* \"#utility.yul\":4380:4432   */\n      tag_137\n        /* \"#utility.yul\":4425:4431   */\n      dup2\n        /* \"#utility.yul\":4420:4423   */\n      dup6\n        /* \"#utility.yul\":4413:4417   */\n      0x20\n        /* \"#utility.yul\":4406:4411   */\n      dup7\n        /* \"#utility.yul\":4402:4418   */\n      add\n        /* \"#utility.yul\":4380:4432   */\n      tag_138\n      jump\t// in\n    tag_137:\n        /* \"#utility.yul\":4457:4486   */\n      tag_139\n        /* \"#utility.yul\":4479:4485   */\n      dup2\n        /* \"#utility.yul\":4457:4486   */\n      tag_140\n      jump\t// in\n    tag_139:\n        /* \"#utility.yul\":4452:4455   */\n      dup5\n        /* \"#utility.yul\":4448:4487   */\n      add\n        /* \"#utility.yul\":4441:4487   */\n      swap2\n      pop\n        /* \"#utility.yul\":4221:4493   */\n      pop\n        /* \"#utility.yul\":4129:4493   */\n      swap3\n      swap2\n      pop\n      pop\n      jump\t// out\n        /* \"#utility.yul\":4499:4617   */\n    tag_141:\n        /* \"#utility.yul\":4586:4610   */\n      tag_143\n        /* \"#utility.yul\":4604:4609   */\n      dup2\n        /* \"#utility.yul\":4586:4610   */\n      tag_144\n      jump\t// in\n    tag_143:\n        /* \"#utility.yul\":4581:4584   */\n      dup3\n        /* \"#utility.yul\":4574:4611   */\n      mstore\n        /* \"#utility.yul\":4499:4617   */\n      pop\n      pop\n      jump\t// out\n        /* \"#utility.yul\":4623:5065   */\n    tag_56:\n        /* \"#utility.yul\":4772:4776   */\n      0x00\n        /* \"#utility.yul\":4810:4812   */\n      0x60\n        /* \"#utility.yul\":4799:4808   */\n      dup3\n        /* \"#utility.yul\":4795:4813   */\n      add\n        /* \"#utility.yul\":4787:4813   */\n      swap1\n      pop\n        /* \"#utility.yul\":4823:4894   */\n      tag_146\n        /* \"#utility.yul\":4891:4892   */\n      0x00\n        /* \"#utility.yul\":4880:4889   */\n      dup4\n        /* \"#utility.yul\":4876:4893   */\n      add\n        /* \"#utility.yul\":4867:4873   */\n      dup7\n        /* \"#utility.yul\":4823:4894   */\n      tag_127\n      jump\t// in\n    tag_146:\n        /* \"#utility.yul\":4904:4976   */\n      tag_147\n        /* \"#utility.yul\":4972:4974   */\n      0x20\n        /* \"#utility.yul\":4961:4970   */\n      dup4\n        /* \"#utility.yul\":4957:4975   */\n      add\n        /* \"#utility.yul\":4948:4954   */\n      dup6\n        /* \"#utility.yul\":4904:4976   */\n      tag_127\n      jump\t// in\n    tag_147:\n        /* \"#utility.yul\":4986:5058   */\n      tag_148\n        /* \"#utility.yul\":5054:5056   */\n      0x40\n        /* \"#utility.yul\":5043:5052   */\n      dup4\n        /* \"#utility.yul\":5039:5057   */\n      add\n        /* \"#utility.yul\":5030:5036   */\n      dup5\n        /* \"#utility.yul\":4986:5058   */\n      tag_141\n      jump\t// in\n    tag_148:\n        /* \"#utility.yul\":4623:5065   */\n      swap5\n      swap4\n      pop\n      pop\n      pop\n      pop\n      jump\t// out\n        /* \"#utility.yul\":5071:6119   */\n    tag_20:\n        /* \"#utility.yul\":5364:5368   */\n      0x00\n        /* \"#utility.yul\":5402:5405   */\n      0xc0\n        /* \"#utility.yul\":5391:5400   */\n      dup3\n        /* \"#utility.yul\":5387:5406   */\n      add\n        /* \"#utility.yul\":5379:5406   */\n      swap1\n      pop\n        /* \"#utility.yul\":5452:5461   */\n      dup2\n        /* \"#utility.yul\":5446:5450   */\n      dup2\n        /* \"#utility.yul\":5442:5462   */\n      sub\n        /* \"#utility.yul\":5438:5439   */\n      0x00\n        /* \"#utility.yul\":5427:5436   */\n      dup4\n        /* \"#utility.yul\":5423:5440   */\n      add\n        /* \"#utility.yul\":5416:5463   */\n      mstore\n        /* \"#utility.yul\":5480:5558   */\n      tag_150\n        /* \"#utility.yul\":5553:5557   */\n      dup2\n        /* \"#utility.yul\":5544:5550   */\n      dup10\n        /* \"#utility.yul\":5480:5558   */\n      tag_131\n      jump\t// in\n    tag_150:\n        /* \"#utility.yul\":5472:5558   */\n      swap1\n      pop\n        /* \"#utility.yul\":5568:5640   */\n      tag_151\n        /* \"#utility.yul\":5636:5638   */\n      0x20\n        /* \"#utility.yul\":5625:5634   */\n      dup4\n        /* \"#utility.yul\":5621:5639   */\n      add\n        /* \"#utility.yul\":5612:5618   */\n      dup9\n        /* \"#utility.yul\":5568:5640   */\n      tag_141\n      jump\t// in\n    tag_151:\n        /* \"#utility.yul\":5687:5696   */\n      dup2\n        /* \"#utility.yul\":5681:5685   */\n      dup2\n        /* \"#utility.yul\":5677:5697   */\n      sub\n        /* \"#utility.yul\":5672:5674   */\n      0x40\n        /* \"#utility.yul\":5661:5670   */\n      dup4\n        /* \"#utility.yul\":5657:5675   */\n      add\n        /* \"#utility.yul\":5650:5698   */\n      mstore\n        /* \"#utility.yul\":5715:5793   */\n      tag_152\n        /* \"#utility.yul\":5788:5792   */\n      dup2\n        /* \"#utility.yul\":5779:5785   */\n      dup8\n        /* \"#utility.yul\":5715:5793   */\n      tag_131\n      jump\t// in\n    tag_152:\n        /* \"#utility.yul\":5707:5793   */\n      swap1\n      pop\n        /* \"#utility.yul\":5803:5875   */\n      tag_153\n        /* \"#utility.yul\":5871:5873   */\n      0x60\n        /* \"#utility.yul\":5860:5869   */\n      dup4\n        /* \"#utility.yul\":5856:5874   */\n      add\n        /* \"#utility.yul\":5847:5853   */\n      dup7\n        /* \"#utility.yul\":5803:5875   */\n      tag_141\n      jump\t// in\n    tag_153:\n        /* \"#utility.yul\":5923:5932   */\n      dup2\n        /* \"#utility.yul\":5917:5921   */\n      dup2\n        /* \"#utility.yul\":5913:5933   */\n      sub\n        /* \"#utility.yul\":5907:5910   */\n      0x80\n        /* \"#utility.yul\":5896:5905   */\n      dup4\n        /* \"#utility.yul\":5892:5911   */\n      add\n        /* \"#utility.yul\":5885:5934   */\n      mstore\n        /* \"#utility.yul\":5951:6029   */\n      tag_154\n        /* \"#utility.yul\":6024:6028   */\n      dup2\n        /* \"#utility.yul\":6015:6021   */\n      dup6\n        /* \"#utility.yul\":5951:6029   */\n      tag_131\n      jump\t// in\n    tag_154:\n        /* \"#utility.yul\":5943:6029   */\n      swap1\n      pop\n        /* \"#utility.yul\":6039:6112   */\n      tag_155\n        /* \"#utility.yul\":6107:6110   */\n      0xa0\n        /* \"#utility.yul\":6096:6105   */\n      dup4\n        /* \"#utility.yul\":6092:6111   */\n      add\n        /* \"#utility.yul\":6083:6089   */\n      dup5\n        /* \"#utility.yul\":6039:6112   */\n      tag_141\n      jump\t// in\n    tag_155:\n        /* \"#utility.yul\":5071:6119   */\n      swap8\n      swap7\n      pop\n      pop\n      pop\n      pop\n      pop\n      pop\n      pop\n      jump\t// out\n        /* \"#utility.yul\":6125:6254   */\n    tag_73:\n        /* \"#utility.yul\":6159:6165   */\n      0x00\n        /* \"#utility.yul\":6186:6206   */\n      tag_157\n      tag_158\n      jump\t// in\n    tag_157:\n        /* \"#utility.yul\":6176:6206   */\n      swap1\n      pop\n        /* \"#utility.yul\":6215:6248   */\n      tag_159\n        /* \"#utility.yul\":6243:6247   */\n      dup3\n        /* \"#utility.yul\":6235:6241   */\n      dup3\n        /* \"#utility.yul\":6215:6248   */\n      tag_160\n      jump\t// in\n    tag_159:\n        /* \"#utility.yul\":6125:6254   */\n      swap2\n      swap1\n      pop\n      jump\t// out\n        /* \"#utility.yul\":6260:6335   */\n    tag_158:\n        /* \"#utility.yul\":6293:6299   */\n      0x00\n        /* \"#utility.yul\":6326:6328   */\n      0x40\n        /* \"#utility.yul\":6320:6329   */\n      mload\n        /* \"#utility.yul\":6310:6329   */\n      swap1\n      pop\n        /* \"#utility.yul\":6260:6335   */\n      swap1\n      jump\t// out\n        /* \"#utility.yul\":6341:6649   */\n    tag_72:\n        /* \"#utility.yul\":6403:6407   */\n      0x00\n        /* \"#utility.yul\":6493:6511   */\n      0xffffffffffffffff\n        /* \"#utility.yul\":6485:6491   */\n      dup3\n        /* \"#utility.yul\":6482:6512   */\n      gt\n        /* \"#utility.yul\":6479:6535   */\n      iszero\n      tag_163\n      jumpi\n        /* \"#utility.yul\":6515:6533   */\n      tag_164\n      tag_165\n      jump\t// in\n    tag_164:\n        /* \"#utility.yul\":6479:6535   */\n    tag_163:\n        /* \"#utility.yul\":6553:6582   */\n      tag_166\n        /* \"#utility.yul\":6575:6581   */\n      dup3\n        /* \"#utility.yul\":6553:6582   */\n      tag_140\n      jump\t// in\n    tag_166:\n        /* \"#utility.yul\":6545:6582   */\n      swap1\n      pop\n        /* \"#utility.yul\":6637:6641   */\n      0x20\n        /* \"#utility.yul\":6631:6635   */\n      dup2\n        /* \"#utility.yul\":6627:6642   */\n      add\n        /* \"#utility.yul\":6619:6642   */\n      swap1\n      pop\n        /* \"#utility.yul\":6341:6649   */\n      swap2\n      swap1\n      pop\n      jump\t// out\n        /* \"#utility.yul\":6655:6754   */\n    tag_134:\n        /* \"#utility.yul\":6707:6713   */\n      0x00\n        /* \"#utility.yul\":6741:6746   */\n      dup2\n        /* \"#utility.yul\":6735:6747   */\n      mload\n        /* \"#utility.yul\":6725:6747   */\n      swap1\n      pop\n        /* \"#utility.yul\":6655:6754   */\n      swap2\n      swap1\n      pop\n      jump\t// out\n        /* \"#utility.yul\":6760:6929   */\n    tag_136:\n        /* \"#utility.yul\":6844:6855   */\n      0x00\n        /* \"#utility.yul\":6878:6884   */\n      dup3\n        /* \"#utility.yul\":6873:6876   */\n      dup3\n        /* \"#utility.yul\":6866:6885   */\n      mstore\n        /* \"#utility.yul\":6918:6922   */\n      0x20\n        /* \"#utility.yul\":6913:6916   */\n      dup3\n        /* \"#utility.yul\":6909:6923   */\n      add\n        /* \"#utility.yul\":6894:6923   */\n      swap1\n      pop\n        /* \"#utility.yul\":6760:6929   */\n      swap3\n      swap2\n      pop\n      pop\n      jump\t// out\n        /* \"#utility.yul\":6935:7240   */\n    tag_54:\n        /* \"#utility.yul\":6975:6978   */\n      0x00\n        /* \"#utility.yul\":6994:7014   */\n      tag_170\n        /* \"#utility.yul\":7012:7013   */\n      dup3\n        /* \"#utility.yul\":6994:7014   */\n      tag_144\n      jump\t// in\n    tag_170:\n        /* \"#utility.yul\":6989:7014   */\n      swap2\n      pop\n        /* \"#utility.yul\":7028:7048   */\n      tag_171\n        /* \"#utility.yul\":7046:7047   */\n      dup4\n        /* \"#utility.yul\":7028:7048   */\n      tag_144\n      jump\t// in\n    tag_171:\n        /* \"#utility.yul\":7023:7048   */\n      swap3\n      pop\n        /* \"#utility.yul\":7182:7183   */\n      dup3\n        /* \"#utility.yul\":7114:7180   */\n      0xffffffffffffffffffffffffffffffffffffffffffffffffffffffffffffffff\n        /* \"#utility.yul\":7110:7184   */\n      sub\n        /* \"#utility.yul\":7107:7108   */\n      dup3\n        /* \"#utility.yul\":7104:7185   */\n      gt\n        /* \"#utility.yul\":7101:7208   */\n      iszero\n      tag_172\n      jumpi\n        /* \"#utility.yul\":7188:7206   */\n      tag_173\n      tag_174\n      jump\t// in\n    tag_173:\n        /* \"#utility.yul\":7101:7208   */\n    tag_172:\n        /* \"#utility.yul\":7232:7233   */\n      dup3\n        /* \"#utility.yul\":7229:7230   */\n      dup3\n        /* \"#utility.yul\":7225:7234   */\n      add\n        /* \"#utility.yul\":7218:7234   */\n      swap1\n      pop\n        /* \"#utility.yul\":6935:7240   */\n      swap3\n      swap2\n      pop\n      pop\n      jump\t// out\n        /* \"#utility.yul\":7246:7437   */\n    tag_52:\n        /* \"#utility.yul\":7286:7290   */\n      0x00\n        /* \"#utility.yul\":7306:7326   */\n      tag_176\n        /* \"#utility.yul\":7324:7325   */\n      dup3\n        /* \"#utility.yul\":7306:7326   */\n      tag_144\n      jump\t// in\n    tag_176:\n        /* \"#utility.yul\":7301:7326   */\n      swap2\n      pop\n        /* \"#utility.yul\":7340:7360   */\n      tag_177\n        /* \"#utility.yul\":7358:7359   */\n      dup4\n        /* \"#utility.yul\":7340:7360   */\n      tag_144\n      jump\t// in\n    tag_177:\n        /* \"#utility.yul\":7335:7360   */\n      swap3\n      pop\n        /* \"#utility.yul\":7379:7380   */\n      dup3\n        /* \"#utility.yul\":7376:7377   */\n      dup3\n        /* \"#utility.yul\":7373:7381   */\n      lt\n        /* \"#utility.yul\":7370:7404   */\n      iszero\n      tag_178\n      jumpi\n        /* \"#utility.yul\":7384:7402   */\n      tag_179\n      tag_174\n      jump\t// in\n    tag_179:\n        /* \"#utility.yul\":7370:7404   */\n    tag_178:\n        /* \"#utility.yul\":7429:7430   */\n      dup3\n        /* \"#utility.yul\":7426:7427   */\n      dup3\n        /* \"#utility.yul\":7422:7431   */\n      sub\n        /* \"#utility.yul\":7414:7431   */\n      swap1\n      pop\n        /* \"#utility.yul\":7246:7437   */\n      swap3\n      swap2\n      pop\n      pop\n      jump\t// out\n        /* \"#utility.yul\":7443:7539   */\n    tag_130:\n        /* \"#utility.yul\":7480:7487   */\n      0x00\n        /* \"#utility.yul\":7509:7533   */\n      tag_181\n        /* \"#utility.yul\":7527:7532   */\n      dup3\n        /* \"#utility.yul\":7509:7533   */\n      tag_182\n      jump\t// in\n    tag_181:\n        /* \"#utility.yul\":7498:7533   */\n      swap1\n      pop\n        /* \"#utility.yul\":7443:7539   */\n      swap2\n      swap1\n      pop\n      jump\t// out\n        /* \"#utility.yul\":7545:7649   */\n    tag_183:\n        /* \"#utility.yul\":7590:7597   */\n      0x00\n        /* \"#utility.yul\":7619:7643   */\n      tag_185\n        /* \"#utility.yul\":7637:7642   */\n      dup3\n        /* \"#utility.yul\":7619:7643   */\n      tag_182\n      jump\t// in\n    tag_185:\n        /* \"#utility.yul\":7608:7643   */\n      swap1\n      pop\n        /* \"#utility.yul\":7545:7649   */\n      swap2\n      swap1\n      pop\n      jump\t// out\n        /* \"#utility.yul\":7655:7781   */\n    tag_182:\n        /* \"#utility.yul\":7692:7699   */\n      0x00\n        /* \"#utility.yul\":7732:7774   */\n      0xffffffffffffffffffffffffffffffffffffffff\n        /* \"#utility.yul\":7725:7730   */\n      dup3\n        /* \"#utility.yul\":7721:7775   */\n      and\n        /* \"#utility.yul\":7710:7775   */\n      swap1\n      pop\n        /* \"#utility.yul\":7655:7781   */\n      swap2\n      swap1\n      pop\n      jump\t// out\n        /* \"#utility.yul\":7787:7864   */\n    tag_144:\n        /* \"#utility.yul\":7824:7831   */\n      0x00\n        /* \"#utility.yul\":7853:7858   */\n      dup2\n        /* \"#utility.yul\":7842:7858   */\n      swap1\n      pop\n        /* \"#utility.yul\":7787:7864   */\n      swap2\n      swap1\n      pop\n      jump\t// out\n        /* \"#utility.yul\":7870:8024   */\n    tag_78:\n        /* \"#utility.yul\":7954:7960   */\n      dup3\n        /* \"#utility.yul\":7949:7952   */\n      dup2\n        /* \"#utility.yul\":7944:7947   */\n      dup4\n        /* \"#utility.yul\":7931:7961   */\n      calldatacopy\n        /* \"#utility.yul\":8016:8017   */\n      0x00\n        /* \"#utility.yul\":8007:8013   */\n      dup4\n        /* \"#utility.yul\":8002:8005   */\n      dup4\n        /* \"#utility.yul\":7998:8014   */\n      add\n        /* \"#utility.yul\":7991:8018   */\n      mstore\n        /* \"#utility.yul\":7870:8024   */\n      pop\n      pop\n      pop\n      jump\t// out\n        /* \"#utility.yul\":8030:8337   */\n    tag_138:\n        /* \"#utility.yul\":8098:8099   */\n      0x00\n        /* \"#utility.yul\":8108:8221   */\n    tag_190:\n        /* \"#utility.yul\":8122:8128   */\n      dup4\n        /* \"#utility.yul\":8119:8120   */\n      dup2\n        /* \"#utility.yul\":8116:8129   */\n      lt\n        /* \"#utility.yul\":8108:8221   */\n      iszero\n      tag_192\n      jumpi\n        /* \"#utility.yul\":8207:8208   */\n      dup1\n        /* \"#utility.yul\":8202:8205   */\n      dup3\n        /* \"#utility.yul\":8198:8209   */\n      add\n        /* \"#utility.yul\":8192:8210   */\n      mload\n        /* \"#utility.yul\":8188:8189   */\n      dup2\n        /* \"#utility.yul\":8183:8186   */\n      dup5\n        /* \"#utility.yul\":8179:8190   */\n      add\n        /* \"#utility.yul\":8172:8211   */\n      mstore\n        /* \"#utility.yul\":8144:8146   */\n      0x20\n        /* \"#utility.yul\":8141:8142   */\n      dup2\n        /* \"#utility.yul\":8137:8147   */\n      add\n        /* \"#utility.yul\":8132:8147   */\n      swap1\n      pop\n        /* \"#utility.yul\":8108:8221   */\n      jump(tag_190)\n    tag_192:\n        /* \"#utility.yul\":8239:8245   */\n      dup4\n        /* \"#utility.yul\":8236:8237   */\n      dup2\n        /* \"#utility.yul\":8233:8246   */\n      gt\n        /* \"#utility.yul\":8230:8331   */\n      iszero\n      tag_193\n      jumpi\n        /* \"#utility.yul\":8319:8320   */\n      0x00\n        /* \"#utility.yul\":8310:8316   */\n      dup5\n        /* \"#utility.yul\":8305:8308   */\n      dup5\n        /* \"#utility.yul\":8301:8317   */\n      add\n        /* \"#utility.yul\":8294:8321   */\n      mstore\n        /* \"#utility.yul\":8230:8331   */\n    tag_193:\n        /* \"#utility.yul\":8079:8337   */\n      pop\n        /* \"#utility.yul\":8030:8337   */\n      pop\n      pop\n      pop\n      jump\t// out\n        /* \"#utility.yul\":8343:8663   */\n    tag_34:\n        /* \"#utility.yul\":8387:8393   */\n      0x00\n        /* \"#utility.yul\":8424:8425   */\n      0x02\n        /* \"#utility.yul\":8418:8422   */\n      dup3\n        /* \"#utility.yul\":8414:8426   */\n      div\n        /* \"#utility.yul\":8404:8426   */\n      swap1\n      pop\n        /* \"#utility.yul\":8471:8472   */\n      0x01\n        /* \"#utility.yul\":8465:8469   */\n      dup3\n        /* \"#utility.yul\":8461:8473   */\n      and\n        /* \"#utility.yul\":8492:8510   */\n      dup1\n        /* \"#utility.yul\":8482:8563   */\n      tag_195\n      jumpi\n        /* \"#utility.yul\":8548:8552   */\n      0x7f\n        /* \"#utility.yul\":8540:8546   */\n      dup3\n        /* \"#utility.yul\":8536:8553   */\n      and\n        /* \"#utility.yul\":8526:8553   */\n      swap2\n      pop\n        /* \"#utility.yul\":8482:8563   */\n    tag_195:\n        /* \"#utility.yul\":8610:8612   */\n      0x20\n        /* \"#utility.yul\":8602:8608   */\n      dup3\n        /* \"#utility.yul\":8599:8613   */\n      lt\n        /* \"#utility.yul\":8579:8597   */\n      dup2\n        /* \"#utility.yul\":8576:8614   */\n      eq\n        /* \"#utility.yul\":8573:8657   */\n      iszero\n      tag_196\n      jumpi\n        /* \"#utility.yul\":8629:8647   */\n      tag_197\n      tag_198\n      jump\t// in\n    tag_197:\n        /* \"#utility.yul\":8573:8657   */\n    tag_196:\n        /* \"#utility.yul\":8394:8663   */\n      pop\n        /* \"#utility.yul\":8343:8663   */\n      swap2\n      swap1\n      pop\n      jump\t// out\n        /* \"#utility.yul\":8669:8950   */\n    tag_160:\n        /* \"#utility.yul\":8752:8779   */\n      tag_200\n        /* \"#utility.yul\":8774:8778   */\n      dup3\n        /* \"#utility.yul\":8752:8779   */\n      tag_140\n      jump\t// in\n    tag_200:\n        /* \"#utility.yul\":8744:8750   */\n      dup2\n        /* \"#utility.yul\":8740:8780   */\n      add\n        /* \"#utility.yul\":8882:8888   */\n      dup2\n        /* \"#utility.yul\":8870:8880   */\n      dup2\n        /* \"#utility.yul\":8867:8889   */\n      lt\n        /* \"#utility.yul\":8846:8864   */\n      0xffffffffffffffff\n        /* \"#utility.yul\":8834:8844   */\n      dup3\n        /* \"#utility.yul\":8831:8865   */\n      gt\n        /* \"#utility.yul\":8828:8890   */\n      or\n        /* \"#utility.yul\":8825:8913   */\n      iszero\n      tag_201\n      jumpi\n        /* \"#utility.yul\":8893:8911   */\n      tag_202\n      tag_165\n      jump\t// in\n    tag_202:\n        /* \"#utility.yul\":8825:8913   */\n    tag_201:\n        /* \"#utility.yul\":8933:8943   */\n      dup1\n        /* \"#utility.yul\":8929:8931   */\n      0x40\n        /* \"#utility.yul\":8922:8944   */\n      mstore\n        /* \"#utility.yul\":8712:8950   */\n      pop\n        /* \"#utility.yul\":8669:8950   */\n      pop\n      pop\n      jump\t// out\n        /* \"#utility.yul\":8956:9136   */\n    tag_174:\n        /* \"#utility.yul\":9004:9081   */\n      0x4e487b7100000000000000000000000000000000000000000000000000000000\n        /* \"#utility.yul\":9001:9002   */\n      0x00\n        /* \"#utility.yul\":8994:9082   */\n      mstore\n        /* \"#utility.yul\":9101:9105   */\n      0x11\n        /* \"#utility.yul\":9098:9099   */\n      0x04\n        /* \"#utility.yul\":9091:9106   */\n      mstore\n        /* \"#utility.yul\":9125:9129   */\n      0x24\n        /* \"#utility.yul\":9122:9123   */\n      0x00\n        /* \"#utility.yul\":9115:9130   */\n      revert\n        /* \"#utility.yul\":9142:9322   */\n    tag_198:\n        /* \"#utility.yul\":9190:9267   */\n      0x4e487b7100000000000000000000000000000000000000000000000000000000\n        /* \"#utility.yul\":9187:9188   */\n      0x00\n        /* \"#utility.yul\":9180:9268   */\n      mstore\n        /* \"#utility.yul\":9287:9291   */\n      0x22\n        /* \"#utility.yul\":9284:9285   */\n      0x04\n        /* \"#utility.yul\":9277:9292   */\n      mstore\n        /* \"#utility.yul\":9311:9315   */\n      0x24\n        /* \"#utility.yul\":9308:9309   */\n      0x00\n        /* \"#utility.yul\":9301:9316   */\n      revert\n        /* \"#utility.yul\":9328:9508   */\n    tag_165:\n        /* \"#utility.yul\":9376:9453   */\n      0x4e487b7100000000000000000000000000000000000000000000000000000000\n        /* \"#utility.yul\":9373:9374   */\n      0x00\n        /* \"#utility.yul\":9366:9454   */\n      mstore\n        /* \"#utility.yul\":9473:9477   */\n      0x41\n        /* \"#utility.yul\":9470:9471   */\n      0x04\n        /* \"#utility.yul\":9463:9478   */\n      mstore\n        /* \"#utility.yul\":9497:9501   */\n      0x24\n        /* \"#utility.yul\":9494:9495   */\n      0x00\n        /* \"#utility.yul\":9487:9502   */\n      revert\n        /* \"#utility.yul\":9514:9631   */\n    tag_91:\n        /* \"#utility.yul\":9623:9624   */\n      0x00\n        /* \"#utility.yul\":9620:9621   */\n      dup1\n        /* \"#utility.yul\":9613:9625   */\n      revert\n        /* \"#utility.yul\":9637:9754   */\n    tag_76:\n        /* \"#utility.yul\":9746:9747   */\n      0x00\n        /* \"#utility.yul\":9743:9744   */\n      dup1\n        /* \"#utility.yul\":9736:9748   */\n      revert\n        /* \"#utility.yul\":9760:9877   */\n    tag_112:\n        /* \"#utility.yul\":9869:9870   */\n      0x00\n        /* \"#utility.yul\":9866:9867   */\n      dup1\n        /* \"#utility.yul\":9859:9871   */\n      revert\n        /* \"#utility.yul\":9883:10000   */\n    tag_100:\n        /* \"#utility.yul\":9992:9993   */\n      0x00\n        /* \"#utility.yul\":9989:9990   */\n      dup1\n        /* \"#utility.yul\":9982:9994   */\n      revert\n        /* \"#utility.yul\":10006:10108   */\n    tag_140:\n        /* \"#utility.yul\":10047:10053   */\n      0x00\n        /* \"#utility.yul\":10098:10100   */\n      0x1f\n        /* \"#utility.yul\":10094:10101   */\n      not\n        /* \"#utility.yul\":10089:10091   */\n      0x1f\n        /* \"#utility.yul\":10082:10087   */\n      dup4\n        /* \"#utility.yul\":10078:10092   */\n      add\n        /* \"#utility.yul\":10074:10102   */\n      and\n        /* \"#utility.yul\":10064:10102   */\n      swap1\n      pop\n        /* \"#utility.yul\":10006:10108   */\n      swap2\n      swap1\n      pop\n      jump\t// out\n        /* \"#utility.yul\":10114:10236   */\n    tag_82:\n        /* \"#utility.yul\":10187:10211   */\n      tag_212\n        /* \"#utility.yul\":10205:10210   */\n      dup2\n        /* \"#utility.yul\":10187:10211   */\n      tag_130\n      jump\t// in\n    tag_212:\n        /* \"#utility.yul\":10180:10185   */\n      dup2\n        /* \"#utility.yul\":10177:10212   */\n      eq\n        /* \"#utility.yul\":10167:10230   */\n      tag_213\n      jumpi\n        /* \"#utility.yul\":10226:10227   */\n      0x00\n        /* \"#utility.yul\":10223:10224   */\n      dup1\n        /* \"#utility.yul\":10216:10228   */\n      revert\n        /* \"#utility.yul\":10167:10230   */\n    tag_213:\n        /* \"#utility.yul\":10114:10236   */\n      pop\n      jump\t// out\n        /* \"#utility.yul\":10242:10380   */\n    tag_86:\n        /* \"#utility.yul\":10323:10355   */\n      tag_215\n        /* \"#utility.yul\":10349:10354   */\n      dup2\n        /* \"#utility.yul\":10323:10355   */\n      tag_183\n      jump\t// in\n    tag_215:\n        /* \"#utility.yul\":10316:10321   */\n      dup2\n        /* \"#utility.yul\":10313:10356   */\n      eq\n        /* \"#utility.yul\":10303:10374   */\n      tag_216\n      jumpi\n        /* \"#utility.yul\":10370:10371   */\n      0x00\n        /* \"#utility.yul\":10367:10368   */\n      dup1\n        /* \"#utility.yul\":10360:10372   */\n      revert\n        /* \"#utility.yul\":10303:10374   */\n    tag_216:\n        /* \"#utility.yul\":10242:10380   */\n      pop\n      jump\t// out\n        /* \"#utility.yul\":10386:10508   */\n    tag_96:\n        /* \"#utility.yul\":10459:10483   */\n      tag_218\n        /* \"#utility.yul\":10477:10482   */\n      dup2\n        /* \"#utility.yul\":10459:10483   */\n      tag_144\n      jump\t// in\n    tag_218:\n        /* \"#utility.yul\":10452:10457   */\n      dup2\n        /* \"#utility.yul\":10449:10484   */\n      eq\n        /* \"#utility.yul\":10439:10502   */\n      tag_219\n      jumpi\n        /* \"#utility.yul\":10498:10499   */\n      0x00\n        /* \"#utility.yul\":10495:10496   */\n      dup1\n        /* \"#utility.yul\":10488:10500   */\n      revert\n        /* \"#utility.yul\":10439:10502   */\n    tag_219:\n        /* \"#utility.yul\":10386:10508   */\n      pop\n      jump\t// out\n\n    auxdata: 0xa2646970667358221220763bd87af3d1be67011e093d9d932c1964e6660c0b0b4294981e6ee8bb9e2c6264736f6c63430008070033\n}\n",
				"bytecode": {
					"linkReferences": {},
					"object": "608060405260405180602001604052806000815250600090805190602001906200002b92919062000045565b5060006001553480156200003e57600080fd5b506200015a565b8280546200005390620000f5565b90600052602060002090601f016020900481019282620000775760008555620000c3565b82601f106200009257805160ff1916838001178555620000c3565b82800160010185558215620000c3579182015b82811115620000c2578251825591602001919060010190620000a5565b5b509050620000d29190620000d6565b5090565b5b80821115620000f1576000816000905550600101620000d7565b5090565b600060028204905060018216806200010e57607f821691505b602082108114156200012557620001246200012b565b5b50919050565b7f4e487b7100000000000000000000000000000000000000000000000000000000600052602260045260246000fd5b610d1f806200016a6000396000f3fe60806040526004361061003f5760003560e01c80630b1fa23f146100445780630ebcbdb8146100605780638b9c657a1461007c578063d0679d34146100be575b600080fd5b61005e600480360381019061005991906107b1565b6100da565b005b61007a600480360381019061007591906107de565b610124565b005b34801561008857600080fd5b506100a3600480360381019061009e9190610784565b61031d565b6040516100b59695949392919061098d565b60405180910390f35b6100d860048036038101906100d391906108bf565b6104f1565b005b8073ffffffffffffffffffffffffffffffffffffffff166108fc349081150290604051600060405180830381858888f19350505050158015610120573d6000803e3d6000fd5b5050565b84600360008873ffffffffffffffffffffffffffffffffffffffff1673ffffffffffffffffffffffffffffffffffffffff168152602001908152602001600020600001908051906020019061017a929190610632565b5083600360008873ffffffffffffffffffffffffffffffffffffffff1673ffffffffffffffffffffffffffffffffffffffff1681526020019081526020016000206001018190555082600360008873ffffffffffffffffffffffffffffffffffffffff1673ffffffffffffffffffffffffffffffffffffffff1681526020019081526020016000206002019080519060200190610218929190610632565b5081600360008873ffffffffffffffffffffffffffffffffffffffff1673ffffffffffffffffffffffffffffffffffffffff1681526020019081526020016000206003018190555080600360008873ffffffffffffffffffffffffffffffffffffffff1673ffffffffffffffffffffffffffffffffffffffff16815260200190815260200160002060040190805190602001906102b6929190610632565b508573ffffffffffffffffffffffffffffffffffffffff1631600360008873ffffffffffffffffffffffffffffffffffffffff1673ffffffffffffffffffffffffffffffffffffffff16815260200190815260200160002060050181905550505050505050565b600360205280600052604060002060009150905080600001805461034090610b8f565b80601f016020809104026020016040519081016040528092919081815260200182805461036c90610b8f565b80156103b95780601f1061038e576101008083540402835291602001916103b9565b820191906000526020600020905b81548152906001019060200180831161039c57829003601f168201915b5050505050908060010154908060020180546103d490610b8f565b80601f016020809104026020016040519081016040528092919081815260200182805461040090610b8f565b801561044d5780601f106104225761010080835404028352916020019161044d565b820191906000526020600020905b81548152906001019060200180831161043057829003601f168201915b50505050509080600301549080600401805461046890610b8f565b80601f016020809104026020016040519081016040528092919081815260200182805461049490610b8f565b80156104e15780601f106104b6576101008083540402835291602001916104e1565b820191906000526020600020905b8154815290600101906020018083116104c457829003601f168201915b5050505050908060050154905086565b80600360003373ffffffffffffffffffffffffffffffffffffffff1673ffffffffffffffffffffffffffffffffffffffff1681526020019081526020016000206005015410156105405761062e565b80600360003373ffffffffffffffffffffffffffffffffffffffff1673ffffffffffffffffffffffffffffffffffffffff16815260200190815260200160002060050160008282546105929190610acb565b9250508190555080600360008473ffffffffffffffffffffffffffffffffffffffff1673ffffffffffffffffffffffffffffffffffffffff16815260200190815260200160002060050160008282546105eb9190610a75565b925050819055507f3990db2d31862302a685e8086b5755072a6e2b5b780af1ee81ece35ee3cd334533838360405161062593929190610956565b60405180910390a15b5050565b82805461063e90610b8f565b90600052602060002090601f01602090048101928261066057600085556106a7565b82601f1061067957805160ff19168380011785556106a7565b828001600101855582156106a7579182015b828111156106a657825182559160200191906001019061068b565b5b5090506106b491906106b8565b5090565b5b808211156106d15760008160009055506001016106b9565b5090565b60006106e86106e384610a28565b610a03565b90508281526020810184848401111561070457610703610c84565b5b61070f848285610b4d565b509392505050565b60008135905061072681610ca4565b92915050565b60008135905061073b81610cbb565b92915050565b600082601f83011261075657610755610c7f565b5b81356107668482602086016106d5565b91505092915050565b60008135905061077e81610cd2565b92915050565b60006020828403121561079a57610799610c8e565b5b60006107a884828501610717565b91505092915050565b6000602082840312156107c7576107c6610c8e565b5b60006107d58482850161072c565b91505092915050565b60008060008060008060c087890312156107fb576107fa610c8e565b5b600061080989828a01610717565b965050602087013567ffffffffffffffff81111561082a57610829610c89565b5b61083689828a01610741565b955050604061084789828a0161076f565b945050606087013567ffffffffffffffff81111561086857610867610c89565b5b61087489828a01610741565b935050608061088589828a0161076f565b92505060a087013567ffffffffffffffff8111156108a6576108a5610c89565b5b6108b289828a01610741565b9150509295509295509295565b600080604083850312156108d6576108d5610c8e565b5b60006108e485828601610717565b92505060206108f58582860161076f565b9150509250929050565b61090881610aff565b82525050565b600061091982610a59565b6109238185610a64565b9350610933818560208601610b5c565b61093c81610c93565b840191505092915050565b61095081610b43565b82525050565b600060608201905061096b60008301866108ff565b61097860208301856108ff565b6109856040830184610947565b949350505050565b600060c08201905081810360008301526109a7818961090e565b90506109b66020830188610947565b81810360408301526109c8818761090e565b90506109d76060830186610947565b81810360808301526109e9818561090e565b90506109f860a0830184610947565b979650505050505050565b6000610a0d610a1e565b9050610a198282610bc1565b919050565b6000604051905090565b600067ffffffffffffffff821115610a4357610a42610c50565b5b610a4c82610c93565b9050602081019050919050565b600081519050919050565b600082825260208201905092915050565b6000610a8082610b43565b9150610a8b83610b43565b9250827fffffffffffffffffffffffffffffffffffffffffffffffffffffffffffffffff03821115610ac057610abf610bf2565b5b828201905092915050565b6000610ad682610b43565b9150610ae183610b43565b925082821015610af457610af3610bf2565b5b828203905092915050565b6000610b0a82610b23565b9050919050565b6000610b1c82610b23565b9050919050565b600073ffffffffffffffffffffffffffffffffffffffff82169050919050565b6000819050919050565b82818337600083830152505050565b60005b83811015610b7a578082015181840152602081019050610b5f565b83811115610b89576000848401525b50505050565b60006002820490506001821680610ba757607f821691505b60208210811415610bbb57610bba610c21565b5b50919050565b610bca82610c93565b810181811067ffffffffffffffff82111715610be957610be8610c50565b5b80604052505050565b7f4e487b7100000000000000000000000000000000000000000000000000000000600052601160045260246000fd5b7f4e487b7100000000000000000000000000000000000000000000000000000000600052602260045260246000fd5b7f4e487b7100000000000000000000000000000000000000000000000000000000600052604160045260246000fd5b600080fd5b600080fd5b600080fd5b600080fd5b6000601f19601f8301169050919050565b610cad81610aff565b8114610cb857600080fd5b50565b610cc481610b11565b8114610ccf57600080fd5b50565b610cdb81610b43565b8114610ce657600080fd5b5056fea2646970667358221220763bd87af3d1be67011e093d9d932c1964e6660c0b0b4294981e6ee8bb9e2c6264736f6c63430008070033",
					"opcodes": "PUSH1 0x80 PUSH1 0x40 MSTORE PUSH1 0x40 MLOAD DUP1 PUSH1 0x20 ADD PUSH1 0x40 MSTORE DUP1 PUSH1 0x0 DUP2 MSTORE POP PUSH1 0x0 SWAP1 DUP1 MLOAD SWAP1 PUSH1 0x20 ADD SWAP1 PUSH3 0x2B SWAP3 SWAP2 SWAP1 PUSH3 0x45 JUMP JUMPDEST POP PUSH1 0x0 PUSH1 0x1 SSTORE CALLVALUE DUP1 ISZERO PUSH3 0x3E JUMPI PUSH1 0x0 DUP1 REVERT JUMPDEST POP PUSH3 0x15A JUMP JUMPDEST DUP3 DUP1 SLOAD PUSH3 0x53 SWAP1 PUSH3 0xF5 JUMP JUMPDEST SWAP1 PUSH1 0x0 MSTORE PUSH1 0x20 PUSH1 0x0 KECCAK256 SWAP1 PUSH1 0x1F ADD PUSH1 0x20 SWAP1 DIV DUP2 ADD SWAP3 DUP3 PUSH3 0x77 JUMPI PUSH1 0x0 DUP6 SSTORE PUSH3 0xC3 JUMP JUMPDEST DUP3 PUSH1 0x1F LT PUSH3 0x92 JUMPI DUP1 MLOAD PUSH1 0xFF NOT AND DUP4 DUP1 ADD OR DUP6 SSTORE PUSH3 0xC3 JUMP JUMPDEST DUP3 DUP1 ADD PUSH1 0x1 ADD DUP6 SSTORE DUP3 ISZERO PUSH3 0xC3 JUMPI SWAP2 DUP3 ADD JUMPDEST DUP3 DUP2 GT ISZERO PUSH3 0xC2 JUMPI DUP3 MLOAD DUP3 SSTORE SWAP2 PUSH1 0x20 ADD SWAP2 SWAP1 PUSH1 0x1 ADD SWAP1 PUSH3 0xA5 JUMP JUMPDEST JUMPDEST POP SWAP1 POP PUSH3 0xD2 SWAP2 SWAP1 PUSH3 0xD6 JUMP JUMPDEST POP SWAP1 JUMP JUMPDEST JUMPDEST DUP1 DUP3 GT ISZERO PUSH3 0xF1 JUMPI PUSH1 0x0 DUP2 PUSH1 0x0 SWAP1 SSTORE POP PUSH1 0x1 ADD PUSH3 0xD7 JUMP JUMPDEST POP SWAP1 JUMP JUMPDEST PUSH1 0x0 PUSH1 0x2 DUP3 DIV SWAP1 POP PUSH1 0x1 DUP3 AND DUP1 PUSH3 0x10E JUMPI PUSH1 0x7F DUP3 AND SWAP2 POP JUMPDEST PUSH1 0x20 DUP3 LT DUP2 EQ ISZERO PUSH3 0x125 JUMPI PUSH3 0x124 PUSH3 0x12B JUMP JUMPDEST JUMPDEST POP SWAP2 SWAP1 POP JUMP JUMPDEST PUSH32 0x4E487B7100000000000000000000000000000000000000000000000000000000 PUSH1 0x0 MSTORE PUSH1 0x22 PUSH1 0x4 MSTORE PUSH1 0x24 PUSH1 0x0 REVERT JUMPDEST PUSH2 0xD1F DUP1 PUSH3 0x16A PUSH1 0x0 CODECOPY PUSH1 0x0 RETURN INVALID PUSH1 0x80 PUSH1 0x40 MSTORE PUSH1 0x4 CALLDATASIZE LT PUSH2 0x3F JUMPI PUSH1 0x0 CALLDATALOAD PUSH1 0xE0 SHR DUP1 PUSH4 0xB1FA23F EQ PUSH2 0x44 JUMPI DUP1 PUSH4 0xEBCBDB8 EQ PUSH2 0x60 JUMPI DUP1 PUSH4 0x8B9C657A EQ PUSH2 0x7C JUMPI DUP1 PUSH4 0xD0679D34 EQ PUSH2 0xBE JUMPI JUMPDEST PUSH1 0x0 DUP1 REVERT JUMPDEST PUSH2 0x5E PUSH1 0x4 DUP1 CALLDATASIZE SUB DUP2 ADD SWAP1 PUSH2 0x59 SWAP2 SWAP1 PUSH2 0x7B1 JUMP JUMPDEST PUSH2 0xDA JUMP JUMPDEST STOP JUMPDEST PUSH2 0x7A PUSH1 0x4 DUP1 CALLDATASIZE SUB DUP2 ADD SWAP1 PUSH2 0x75 SWAP2 SWAP1 PUSH2 0x7DE JUMP JUMPDEST PUSH2 0x124 JUMP JUMPDEST STOP JUMPDEST CALLVALUE DUP1 ISZERO PUSH2 0x88 JUMPI PUSH1 0x0 DUP1 REVERT JUMPDEST POP PUSH2 0xA3 PUSH1 0x4 DUP1 CALLDATASIZE SUB DUP2 ADD SWAP1 PUSH2 0x9E SWAP2 SWAP1 PUSH2 0x784 JUMP JUMPDEST PUSH2 0x31D JUMP JUMPDEST PUSH1 0x40 MLOAD PUSH2 0xB5 SWAP7 SWAP6 SWAP5 SWAP4 SWAP3 SWAP2 SWAP1 PUSH2 0x98D JUMP JUMPDEST PUSH1 0x40 MLOAD DUP1 SWAP2 SUB SWAP1 RETURN JUMPDEST PUSH2 0xD8 PUSH1 0x4 DUP1 CALLDATASIZE SUB DUP2 ADD SWAP1 PUSH2 0xD3 SWAP2 SWAP1 PUSH2 0x8BF JUMP JUMPDEST PUSH2 0x4F1 JUMP JUMPDEST STOP JUMPDEST DUP1 PUSH20 0xFFFFFFFFFFFFFFFFFFFFFFFFFFFFFFFFFFFFFFFF AND PUSH2 0x8FC CALLVALUE SWAP1 DUP2 ISZERO MUL SWAP1 PUSH1 0x40 MLOAD PUSH1 0x0 PUSH1 0x40 MLOAD DUP1 DUP4 SUB DUP2 DUP6 DUP9 DUP9 CALL SWAP4 POP POP POP POP ISZERO DUP1 ISZERO PUSH2 0x120 JUMPI RETURNDATASIZE PUSH1 0x0 DUP1 RETURNDATACOPY RETURNDATASIZE PUSH1 0x0 REVERT JUMPDEST POP POP JUMP JUMPDEST DUP5 PUSH1 0x3 PUSH1 0x0 DUP9 PUSH20 0xFFFFFFFFFFFFFFFFFFFFFFFFFFFFFFFFFFFFFFFF AND PUSH20 0xFFFFFFFFFFFFFFFFFFFFFFFFFFFFFFFFFFFFFFFF AND DUP2 MSTORE PUSH1 0x20 ADD SWAP1 DUP2 MSTORE PUSH1 0x20 ADD PUSH1 0x0 KECCAK256 PUSH1 0x0 ADD SWAP1 DUP1 MLOAD SWAP1 PUSH1 0x20 ADD SWAP1 PUSH2 0x17A SWAP3 SWAP2 SWAP1 PUSH2 0x632 JUMP JUMPDEST POP DUP4 PUSH1 0x3 PUSH1 0x0 DUP9 PUSH20 0xFFFFFFFFFFFFFFFFFFFFFFFFFFFFFFFFFFFFFFFF AND PUSH20 0xFFFFFFFFFFFFFFFFFFFFFFFFFFFFFFFFFFFFFFFF AND DUP2 MSTORE PUSH1 0x20 ADD SWAP1 DUP2 MSTORE PUSH1 0x20 ADD PUSH1 0x0 KECCAK256 PUSH1 0x1 ADD DUP2 SWAP1 SSTORE POP DUP3 PUSH1 0x3 PUSH1 0x0 DUP9 PUSH20 0xFFFFFFFFFFFFFFFFFFFFFFFFFFFFFFFFFFFFFFFF AND PUSH20 0xFFFFFFFFFFFFFFFFFFFFFFFFFFFFFFFFFFFFFFFF AND DUP2 MSTORE PUSH1 0x20 ADD SWAP1 DUP2 MSTORE PUSH1 0x20 ADD PUSH1 0x0 KECCAK256 PUSH1 0x2 ADD SWAP1 DUP1 MLOAD SWAP1 PUSH1 0x20 ADD SWAP1 PUSH2 0x218 SWAP3 SWAP2 SWAP1 PUSH2 0x632 JUMP JUMPDEST POP DUP2 PUSH1 0x3 PUSH1 0x0 DUP9 PUSH20 0xFFFFFFFFFFFFFFFFFFFFFFFFFFFFFFFFFFFFFFFF AND PUSH20 0xFFFFFFFFFFFFFFFFFFFFFFFFFFFFFFFFFFFFFFFF AND DUP2 MSTORE PUSH1 0x20 ADD SWAP1 DUP2 MSTORE PUSH1 0x20 ADD PUSH1 0x0 KECCAK256 PUSH1 0x3 ADD DUP2 SWAP1 SSTORE POP DUP1 PUSH1 0x3 PUSH1 0x0 DUP9 PUSH20 0xFFFFFFFFFFFFFFFFFFFFFFFFFFFFFFFFFFFFFFFF AND PUSH20 0xFFFFFFFFFFFFFFFFFFFFFFFFFFFFFFFFFFFFFFFF AND DUP2 MSTORE PUSH1 0x20 ADD SWAP1 DUP2 MSTORE PUSH1 0x20 ADD PUSH1 0x0 KECCAK256 PUSH1 0x4 ADD SWAP1 DUP1 MLOAD SWAP1 PUSH1 0x20 ADD SWAP1 PUSH2 0x2B6 SWAP3 SWAP2 SWAP1 PUSH2 0x632 JUMP JUMPDEST POP DUP6 PUSH20 0xFFFFFFFFFFFFFFFFFFFFFFFFFFFFFFFFFFFFFFFF AND BALANCE PUSH1 0x3 PUSH1 0x0 DUP9 PUSH20 0xFFFFFFFFFFFFFFFFFFFFFFFFFFFFFFFFFFFFFFFF AND PUSH20 0xFFFFFFFFFFFFFFFFFFFFFFFFFFFFFFFFFFFFFFFF AND DUP2 MSTORE PUSH1 0x20 ADD SWAP1 DUP2 MSTORE PUSH1 0x20 ADD PUSH1 0x0 KECCAK256 PUSH1 0x5 ADD DUP2 SWAP1 SSTORE POP POP POP POP POP POP POP JUMP JUMPDEST PUSH1 0x3 PUSH1 0x20 MSTORE DUP1 PUSH1 0x0 MSTORE PUSH1 0x40 PUSH1 0x0 KECCAK256 PUSH1 0x0 SWAP2 POP SWAP1 POP DUP1 PUSH1 0x0 ADD DUP1 SLOAD PUSH2 0x340 SWAP1 PUSH2 0xB8F JUMP JUMPDEST DUP1 PUSH1 0x1F ADD PUSH1 0x20 DUP1 SWAP2 DIV MUL PUSH1 0x20 ADD PUSH1 0x40 MLOAD SWAP1 DUP2 ADD PUSH1 0x40 MSTORE DUP1 SWAP3 SWAP2 SWAP1 DUP2 DUP2 MSTORE PUSH1 0x20 ADD DUP3 DUP1 SLOAD PUSH2 0x36C SWAP1 PUSH2 0xB8F JUMP JUMPDEST DUP1 ISZERO PUSH2 0x3B9 JUMPI DUP1 PUSH1 0x1F LT PUSH2 0x38E JUMPI PUSH2 0x100 DUP1 DUP4 SLOAD DIV MUL DUP4 MSTORE SWAP2 PUSH1 0x20 ADD SWAP2 PUSH2 0x3B9 JUMP JUMPDEST DUP3 ADD SWAP2 SWAP1 PUSH1 0x0 MSTORE PUSH1 0x20 PUSH1 0x0 KECCAK256 SWAP1 JUMPDEST DUP2 SLOAD DUP2 MSTORE SWAP1 PUSH1 0x1 ADD SWAP1 PUSH1 0x20 ADD DUP1 DUP4 GT PUSH2 0x39C JUMPI DUP3 SWAP1 SUB PUSH1 0x1F AND DUP3 ADD SWAP2 JUMPDEST POP POP POP POP POP SWAP1 DUP1 PUSH1 0x1 ADD SLOAD SWAP1 DUP1 PUSH1 0x2 ADD DUP1 SLOAD PUSH2 0x3D4 SWAP1 PUSH2 0xB8F JUMP JUMPDEST DUP1 PUSH1 0x1F ADD PUSH1 0x20 DUP1 SWAP2 DIV MUL PUSH1 0x20 ADD PUSH1 0x40 MLOAD SWAP1 DUP2 ADD PUSH1 0x40 MSTORE DUP1 SWAP3 SWAP2 SWAP1 DUP2 DUP2 MSTORE PUSH1 0x20 ADD DUP3 DUP1 SLOAD PUSH2 0x400 SWAP1 PUSH2 0xB8F JUMP JUMPDEST DUP1 ISZERO PUSH2 0x44D JUMPI DUP1 PUSH1 0x1F LT PUSH2 0x422 JUMPI PUSH2 0x100 DUP1 DUP4 SLOAD DIV MUL DUP4 MSTORE SWAP2 PUSH1 0x20 ADD SWAP2 PUSH2 0x44D JUMP JUMPDEST DUP3 ADD SWAP2 SWAP1 PUSH1 0x0 MSTORE PUSH1 0x20 PUSH1 0x0 KECCAK256 SWAP1 JUMPDEST DUP2 SLOAD DUP2 MSTORE SWAP1 PUSH1 0x1 ADD SWAP1 PUSH1 0x20 ADD DUP1 DUP4 GT PUSH2 0x430 JUMPI DUP3 SWAP1 SUB PUSH1 0x1F AND DUP3 ADD SWAP2 JUMPDEST POP POP POP POP POP SWAP1 DUP1 PUSH1 0x3 ADD SLOAD SWAP1 DUP1 PUSH1 0x4 ADD DUP1 SLOAD PUSH2 0x468 SWAP1 PUSH2 0xB8F JUMP JUMPDEST DUP1 PUSH1 0x1F ADD PUSH1 0x20 DUP1 SWAP2 DIV MUL PUSH1 0x20 ADD PUSH1 0x40 MLOAD SWAP1 DUP2 ADD PUSH1 0x40 MSTORE DUP1 SWAP3 SWAP2 SWAP1 DUP2 DUP2 MSTORE PUSH1 0x20 ADD DUP3 DUP1 SLOAD PUSH2 0x494 SWAP1 PUSH2 0xB8F JUMP JUMPDEST DUP1 ISZERO PUSH2 0x4E1 JUMPI DUP1 PUSH1 0x1F LT PUSH2 0x4B6 JUMPI PUSH2 0x100 DUP1 DUP4 SLOAD DIV MUL DUP4 MSTORE SWAP2 PUSH1 0x20 ADD SWAP2 PUSH2 0x4E1 JUMP JUMPDEST DUP3 ADD SWAP2 SWAP1 PUSH1 0x0 MSTORE PUSH1 0x20 PUSH1 0x0 KECCAK256 SWAP1 JUMPDEST DUP2 SLOAD DUP2 MSTORE SWAP1 PUSH1 0x1 ADD SWAP1 PUSH1 0x20 ADD DUP1 DUP4 GT PUSH2 0x4C4 JUMPI DUP3 SWAP1 SUB PUSH1 0x1F AND DUP3 ADD SWAP2 JUMPDEST POP POP POP POP POP SWAP1 DUP1 PUSH1 0x5 ADD SLOAD SWAP1 POP DUP7 JUMP JUMPDEST DUP1 PUSH1 0x3 PUSH1 0x0 CALLER PUSH20 0xFFFFFFFFFFFFFFFFFFFFFFFFFFFFFFFFFFFFFFFF AND PUSH20 0xFFFFFFFFFFFFFFFFFFFFFFFFFFFFFFFFFFFFFFFF AND DUP2 MSTORE PUSH1 0x20 ADD SWAP1 DUP2 MSTORE PUSH1 0x20 ADD PUSH1 0x0 KECCAK256 PUSH1 0x5 ADD SLOAD LT ISZERO PUSH2 0x540 JUMPI PUSH2 0x62E JUMP JUMPDEST DUP1 PUSH1 0x3 PUSH1 0x0 CALLER PUSH20 0xFFFFFFFFFFFFFFFFFFFFFFFFFFFFFFFFFFFFFFFF AND PUSH20 0xFFFFFFFFFFFFFFFFFFFFFFFFFFFFFFFFFFFFFFFF AND DUP2 MSTORE PUSH1 0x20 ADD SWAP1 DUP2 MSTORE PUSH1 0x20 ADD PUSH1 0x0 KECCAK256 PUSH1 0x5 ADD PUSH1 0x0 DUP3 DUP3 SLOAD PUSH2 0x592 SWAP2 SWAP1 PUSH2 0xACB JUMP JUMPDEST SWAP3 POP POP DUP2 SWAP1 SSTORE POP DUP1 PUSH1 0x3 PUSH1 0x0 DUP5 PUSH20 0xFFFFFFFFFFFFFFFFFFFFFFFFFFFFFFFFFFFFFFFF AND PUSH20 0xFFFFFFFFFFFFFFFFFFFFFFFFFFFFFFFFFFFFFFFF AND DUP2 MSTORE PUSH1 0x20 ADD SWAP1 DUP2 MSTORE PUSH1 0x20 ADD PUSH1 0x0 KECCAK256 PUSH1 0x5 ADD PUSH1 0x0 DUP3 DUP3 SLOAD PUSH2 0x5EB SWAP2 SWAP1 PUSH2 0xA75 JUMP JUMPDEST SWAP3 POP POP DUP2 SWAP1 SSTORE POP PUSH32 0x3990DB2D31862302A685E8086B5755072A6E2B5B780AF1EE81ECE35EE3CD3345 CALLER DUP4 DUP4 PUSH1 0x40 MLOAD PUSH2 0x625 SWAP4 SWAP3 SWAP2 SWAP1 PUSH2 0x956 JUMP JUMPDEST PUSH1 0x40 MLOAD DUP1 SWAP2 SUB SWAP1 LOG1 JUMPDEST POP POP JUMP JUMPDEST DUP3 DUP1 SLOAD PUSH2 0x63E SWAP1 PUSH2 0xB8F JUMP JUMPDEST SWAP1 PUSH1 0x0 MSTORE PUSH1 0x20 PUSH1 0x0 KECCAK256 SWAP1 PUSH1 0x1F ADD PUSH1 0x20 SWAP1 DIV DUP2 ADD SWAP3 DUP3 PUSH2 0x660 JUMPI PUSH1 0x0 DUP6 SSTORE PUSH2 0x6A7 JUMP JUMPDEST DUP3 PUSH1 0x1F LT PUSH2 0x679 JUMPI DUP1 MLOAD PUSH1 0xFF NOT AND DUP4 DUP1 ADD OR DUP6 SSTORE PUSH2 0x6A7 JUMP JUMPDEST DUP3 DUP1 ADD PUSH1 0x1 ADD DUP6 SSTORE DUP3 ISZERO PUSH2 0x6A7 JUMPI SWAP2 DUP3 ADD JUMPDEST DUP3 DUP2 GT ISZERO PUSH2 0x6A6 JUMPI DUP3 MLOAD DUP3 SSTORE SWAP2 PUSH1 0x20 ADD SWAP2 SWAP1 PUSH1 0x1 ADD SWAP1 PUSH2 0x68B JUMP JUMPDEST JUMPDEST POP SWAP1 POP PUSH2 0x6B4 SWAP2 SWAP1 PUSH2 0x6B8 JUMP JUMPDEST POP SWAP1 JUMP JUMPDEST JUMPDEST DUP1 DUP3 GT ISZERO PUSH2 0x6D1 JUMPI PUSH1 0x0 DUP2 PUSH1 0x0 SWAP1 SSTORE POP PUSH1 0x1 ADD PUSH2 0x6B9 JUMP JUMPDEST POP SWAP1 JUMP JUMPDEST PUSH1 0x0 PUSH2 0x6E8 PUSH2 0x6E3 DUP5 PUSH2 0xA28 JUMP JUMPDEST PUSH2 0xA03 JUMP JUMPDEST SWAP1 POP DUP3 DUP2 MSTORE PUSH1 0x20 DUP2 ADD DUP5 DUP5 DUP5 ADD GT ISZERO PUSH2 0x704 JUMPI PUSH2 0x703 PUSH2 0xC84 JUMP JUMPDEST JUMPDEST PUSH2 0x70F DUP5 DUP3 DUP6 PUSH2 0xB4D JUMP JUMPDEST POP SWAP4 SWAP3 POP POP POP JUMP JUMPDEST PUSH1 0x0 DUP2 CALLDATALOAD SWAP1 POP PUSH2 0x726 DUP2 PUSH2 0xCA4 JUMP JUMPDEST SWAP3 SWAP2 POP POP JUMP JUMPDEST PUSH1 0x0 DUP2 CALLDATALOAD SWAP1 POP PUSH2 0x73B DUP2 PUSH2 0xCBB JUMP JUMPDEST SWAP3 SWAP2 POP POP JUMP JUMPDEST PUSH1 0x0 DUP3 PUSH1 0x1F DUP4 ADD SLT PUSH2 0x756 JUMPI PUSH2 0x755 PUSH2 0xC7F JUMP JUMPDEST JUMPDEST DUP2 CALLDATALOAD PUSH2 0x766 DUP5 DUP3 PUSH1 0x20 DUP7 ADD PUSH2 0x6D5 JUMP JUMPDEST SWAP2 POP POP SWAP3 SWAP2 POP POP JUMP JUMPDEST PUSH1 0x0 DUP2 CALLDATALOAD SWAP1 POP PUSH2 0x77E DUP2 PUSH2 0xCD2 JUMP JUMPDEST SWAP3 SWAP2 POP POP JUMP JUMPDEST PUSH1 0x0 PUSH1 0x20 DUP3 DUP5 SUB SLT ISZERO PUSH2 0x79A JUMPI PUSH2 0x799 PUSH2 0xC8E JUMP JUMPDEST JUMPDEST PUSH1 0x0 PUSH2 0x7A8 DUP5 DUP3 DUP6 ADD PUSH2 0x717 JUMP JUMPDEST SWAP2 POP POP SWAP3 SWAP2 POP POP JUMP JUMPDEST PUSH1 0x0 PUSH1 0x20 DUP3 DUP5 SUB SLT ISZERO PUSH2 0x7C7 JUMPI PUSH2 0x7C6 PUSH2 0xC8E JUMP JUMPDEST JUMPDEST PUSH1 0x0 PUSH2 0x7D5 DUP5 DUP3 DUP6 ADD PUSH2 0x72C JUMP JUMPDEST SWAP2 POP POP SWAP3 SWAP2 POP POP JUMP JUMPDEST PUSH1 0x0 DUP1 PUSH1 0x0 DUP1 PUSH1 0x0 DUP1 PUSH1 0xC0 DUP8 DUP10 SUB SLT ISZERO PUSH2 0x7FB JUMPI PUSH2 0x7FA PUSH2 0xC8E JUMP JUMPDEST JUMPDEST PUSH1 0x0 PUSH2 0x809 DUP10 DUP3 DUP11 ADD PUSH2 0x717 JUMP JUMPDEST SWAP7 POP POP PUSH1 0x20 DUP8 ADD CALLDATALOAD PUSH8 0xFFFFFFFFFFFFFFFF DUP2 GT ISZERO PUSH2 0x82A JUMPI PUSH2 0x829 PUSH2 0xC89 JUMP JUMPDEST JUMPDEST PUSH2 0x836 DUP10 DUP3 DUP11 ADD PUSH2 0x741 JUMP JUMPDEST SWAP6 POP POP PUSH1 0x40 PUSH2 0x847 DUP10 DUP3 DUP11 ADD PUSH2 0x76F JUMP JUMPDEST SWAP5 POP POP PUSH1 0x60 DUP8 ADD CALLDATALOAD PUSH8 0xFFFFFFFFFFFFFFFF DUP2 GT ISZERO PUSH2 0x868 JUMPI PUSH2 0x867 PUSH2 0xC89 JUMP JUMPDEST JUMPDEST PUSH2 0x874 DUP10 DUP3 DUP11 ADD PUSH2 0x741 JUMP JUMPDEST SWAP4 POP POP PUSH1 0x80 PUSH2 0x885 DUP10 DUP3 DUP11 ADD PUSH2 0x76F JUMP JUMPDEST SWAP3 POP POP PUSH1 0xA0 DUP8 ADD CALLDATALOAD PUSH8 0xFFFFFFFFFFFFFFFF DUP2 GT ISZERO PUSH2 0x8A6 JUMPI PUSH2 0x8A5 PUSH2 0xC89 JUMP JUMPDEST JUMPDEST PUSH2 0x8B2 DUP10 DUP3 DUP11 ADD PUSH2 0x741 JUMP JUMPDEST SWAP2 POP POP SWAP3 SWAP6 POP SWAP3 SWAP6 POP SWAP3 SWAP6 JUMP JUMPDEST PUSH1 0x0 DUP1 PUSH1 0x40 DUP4 DUP6 SUB SLT ISZERO PUSH2 0x8D6 JUMPI PUSH2 0x8D5 PUSH2 0xC8E JUMP JUMPDEST JUMPDEST PUSH1 0x0 PUSH2 0x8E4 DUP6 DUP3 DUP7 ADD PUSH2 0x717 JUMP JUMPDEST SWAP3 POP POP PUSH1 0x20 PUSH2 0x8F5 DUP6 DUP3 DUP7 ADD PUSH2 0x76F JUMP JUMPDEST SWAP2 POP POP SWAP3 POP SWAP3 SWAP1 POP JUMP JUMPDEST PUSH2 0x908 DUP2 PUSH2 0xAFF JUMP JUMPDEST DUP3 MSTORE POP POP JUMP JUMPDEST PUSH1 0x0 PUSH2 0x919 DUP3 PUSH2 0xA59 JUMP JUMPDEST PUSH2 0x923 DUP2 DUP6 PUSH2 0xA64 JUMP JUMPDEST SWAP4 POP PUSH2 0x933 DUP2 DUP6 PUSH1 0x20 DUP7 ADD PUSH2 0xB5C JUMP JUMPDEST PUSH2 0x93C DUP2 PUSH2 0xC93 JUMP JUMPDEST DUP5 ADD SWAP2 POP POP SWAP3 SWAP2 POP POP JUMP JUMPDEST PUSH2 0x950 DUP2 PUSH2 0xB43 JUMP JUMPDEST DUP3 MSTORE POP POP JUMP JUMPDEST PUSH1 0x0 PUSH1 0x60 DUP3 ADD SWAP1 POP PUSH2 0x96B PUSH1 0x0 DUP4 ADD DUP7 PUSH2 0x8FF JUMP JUMPDEST PUSH2 0x978 PUSH1 0x20 DUP4 ADD DUP6 PUSH2 0x8FF JUMP JUMPDEST PUSH2 0x985 PUSH1 0x40 DUP4 ADD DUP5 PUSH2 0x947 JUMP JUMPDEST SWAP5 SWAP4 POP POP POP POP JUMP JUMPDEST PUSH1 0x0 PUSH1 0xC0 DUP3 ADD SWAP1 POP DUP2 DUP2 SUB PUSH1 0x0 DUP4 ADD MSTORE PUSH2 0x9A7 DUP2 DUP10 PUSH2 0x90E JUMP JUMPDEST SWAP1 POP PUSH2 0x9B6 PUSH1 0x20 DUP4 ADD DUP9 PUSH2 0x947 JUMP JUMPDEST DUP2 DUP2 SUB PUSH1 0x40 DUP4 ADD MSTORE PUSH2 0x9C8 DUP2 DUP8 PUSH2 0x90E JUMP JUMPDEST SWAP1 POP PUSH2 0x9D7 PUSH1 0x60 DUP4 ADD DUP7 PUSH2 0x947 JUMP JUMPDEST DUP2 DUP2 SUB PUSH1 0x80 DUP4 ADD MSTORE PUSH2 0x9E9 DUP2 DUP6 PUSH2 0x90E JUMP JUMPDEST SWAP1 POP PUSH2 0x9F8 PUSH1 0xA0 DUP4 ADD DUP5 PUSH2 0x947 JUMP JUMPDEST SWAP8 SWAP7 POP POP POP POP POP POP POP JUMP JUMPDEST PUSH1 0x0 PUSH2 0xA0D PUSH2 0xA1E JUMP JUMPDEST SWAP1 POP PUSH2 0xA19 DUP3 DUP3 PUSH2 0xBC1 JUMP JUMPDEST SWAP2 SWAP1 POP JUMP JUMPDEST PUSH1 0x0 PUSH1 0x40 MLOAD SWAP1 POP SWAP1 JUMP JUMPDEST PUSH1 0x0 PUSH8 0xFFFFFFFFFFFFFFFF DUP3 GT ISZERO PUSH2 0xA43 JUMPI PUSH2 0xA42 PUSH2 0xC50 JUMP JUMPDEST JUMPDEST PUSH2 0xA4C DUP3 PUSH2 0xC93 JUMP JUMPDEST SWAP1 POP PUSH1 0x20 DUP2 ADD SWAP1 POP SWAP2 SWAP1 POP JUMP JUMPDEST PUSH1 0x0 DUP2 MLOAD SWAP1 POP SWAP2 SWAP1 POP JUMP JUMPDEST PUSH1 0x0 DUP3 DUP3 MSTORE PUSH1 0x20 DUP3 ADD SWAP1 POP SWAP3 SWAP2 POP POP JUMP JUMPDEST PUSH1 0x0 PUSH2 0xA80 DUP3 PUSH2 0xB43 JUMP JUMPDEST SWAP2 POP PUSH2 0xA8B DUP4 PUSH2 0xB43 JUMP JUMPDEST SWAP3 POP DUP3 PUSH32 0xFFFFFFFFFFFFFFFFFFFFFFFFFFFFFFFFFFFFFFFFFFFFFFFFFFFFFFFFFFFFFFFF SUB DUP3 GT ISZERO PUSH2 0xAC0 JUMPI PUSH2 0xABF PUSH2 0xBF2 JUMP JUMPDEST JUMPDEST DUP3 DUP3 ADD SWAP1 POP SWAP3 SWAP2 POP POP JUMP JUMPDEST PUSH1 0x0 PUSH2 0xAD6 DUP3 PUSH2 0xB43 JUMP JUMPDEST SWAP2 POP PUSH2 0xAE1 DUP4 PUSH2 0xB43 JUMP JUMPDEST SWAP3 POP DUP3 DUP3 LT ISZERO PUSH2 0xAF4 JUMPI PUSH2 0xAF3 PUSH2 0xBF2 JUMP JUMPDEST JUMPDEST DUP3 DUP3 SUB SWAP1 POP SWAP3 SWAP2 POP POP JUMP JUMPDEST PUSH1 0x0 PUSH2 0xB0A DUP3 PUSH2 0xB23 JUMP JUMPDEST SWAP1 POP SWAP2 SWAP1 POP JUMP JUMPDEST PUSH1 0x0 PUSH2 0xB1C DUP3 PUSH2 0xB23 JUMP JUMPDEST SWAP1 POP SWAP2 SWAP1 POP JUMP JUMPDEST PUSH1 0x0 PUSH20 0xFFFFFFFFFFFFFFFFFFFFFFFFFFFFFFFFFFFFFFFF DUP3 AND SWAP1 POP SWAP2 SWAP1 POP JUMP JUMPDEST PUSH1 0x0 DUP2 SWAP1 POP SWAP2 SWAP1 POP JUMP JUMPDEST DUP3 DUP2 DUP4 CALLDATACOPY PUSH1 0x0 DUP4 DUP4 ADD MSTORE POP POP POP JUMP JUMPDEST PUSH1 0x0 JUMPDEST DUP4 DUP2 LT ISZERO PUSH2 0xB7A JUMPI DUP1 DUP3 ADD MLOAD DUP2 DUP5 ADD MSTORE PUSH1 0x20 DUP2 ADD SWAP1 POP PUSH2 0xB5F JUMP JUMPDEST DUP4 DUP2 GT ISZERO PUSH2 0xB89 JUMPI PUSH1 0x0 DUP5 DUP5 ADD MSTORE JUMPDEST POP POP POP POP JUMP JUMPDEST PUSH1 0x0 PUSH1 0x2 DUP3 DIV SWAP1 POP PUSH1 0x1 DUP3 AND DUP1 PUSH2 0xBA7 JUMPI PUSH1 0x7F DUP3 AND SWAP2 POP JUMPDEST PUSH1 0x20 DUP3 LT DUP2 EQ ISZERO PUSH2 0xBBB JUMPI PUSH2 0xBBA PUSH2 0xC21 JUMP JUMPDEST JUMPDEST POP SWAP2 SWAP1 POP JUMP JUMPDEST PUSH2 0xBCA DUP3 PUSH2 0xC93 JUMP JUMPDEST DUP2 ADD DUP2 DUP2 LT PUSH8 0xFFFFFFFFFFFFFFFF DUP3 GT OR ISZERO PUSH2 0xBE9 JUMPI PUSH2 0xBE8 PUSH2 0xC50 JUMP JUMPDEST JUMPDEST DUP1 PUSH1 0x40 MSTORE POP POP POP JUMP JUMPDEST PUSH32 0x4E487B7100000000000000000000000000000000000000000000000000000000 PUSH1 0x0 MSTORE PUSH1 0x11 PUSH1 0x4 MSTORE PUSH1 0x24 PUSH1 0x0 REVERT JUMPDEST PUSH32 0x4E487B7100000000000000000000000000000000000000000000000000000000 PUSH1 0x0 MSTORE PUSH1 0x22 PUSH1 0x4 MSTORE PUSH1 0x24 PUSH1 0x0 REVERT JUMPDEST PUSH32 0x4E487B7100000000000000000000000000000000000000000000000000000000 PUSH1 0x0 MSTORE PUSH1 0x41 PUSH1 0x4 MSTORE PUSH1 0x24 PUSH1 0x0 REVERT JUMPDEST PUSH1 0x0 DUP1 REVERT JUMPDEST PUSH1 0x0 DUP1 REVERT JUMPDEST PUSH1 0x0 DUP1 REVERT JUMPDEST PUSH1 0x0 DUP1 REVERT JUMPDEST PUSH1 0x0 PUSH1 0x1F NOT PUSH1 0x1F DUP4 ADD AND SWAP1 POP SWAP2 SWAP1 POP JUMP JUMPDEST PUSH2 0xCAD DUP2 PUSH2 0xAFF JUMP JUMPDEST DUP2 EQ PUSH2 0xCB8 JUMPI PUSH1 0x0 DUP1 REVERT JUMPDEST POP JUMP JUMPDEST PUSH2 0xCC4 DUP2 PUSH2 0xB11 JUMP JUMPDEST DUP2 EQ PUSH2 0xCCF JUMPI PUSH1 0x0 DUP1 REVERT JUMPDEST POP JUMP JUMPDEST PUSH2 0xCDB DUP2 PUSH2 0xB43 JUMP JUMPDEST DUP2 EQ PUSH2 0xCE6 JUMPI PUSH1 0x0 DUP1 REVERT JUMPDEST POP JUMP INVALID LOG2 PUSH5 0x6970667358 0x22 SLT KECCAK256 PUSH23 0x3BD87AF3D1BE67011E093D9D932C1964E6660C0B0B4294 SWAP9 0x1E PUSH15 0xE8BB9E2C6264736F6C634300080700 CALLER "
				},
				"gasEstimates": {
					"creation": {
						"codeDepositCost": "671800",
						"executionCost": "infinite",
						"totalCost": "infinite"
					},
					"external": {
						"getInfoByWallet(address)": "infinite",
						"send(address,uint256)": "infinite",
						"sendNow(address)": "infinite",
						"setInfo(address,string,uint256,string,uint256,string)": "infinite"
					}
				},
				"methodIdentifiers": {
					"getInfoByWallet(address)": "8b9c657a",
					"send(address,uint256)": "d0679d34",
					"sendNow(address)": "0b1fa23f",
					"setInfo(address,string,uint256,string,uint256,string)": "0ebcbdb8"
				}
			},
			"storageLayout": {
				"storage": [
					{
						"astId": 25,
						"contract": "sendtosend.sol:status",
						"label": "name",
						"offset": 0,
						"slot": "0",
						"type": "t_string_storage"
					},
					{
						"astId": 28,
						"contract": "sendtosend.sol:status",
						"label": "balance",
						"offset": 0,
						"slot": "1",
						"type": "t_uint256"
					},
					{
						"astId": 32,
						"contract": "sendtosend.sol:status",
						"label": "Students",
						"offset": 0,
						"slot": "2",
						"type": "t_array(t_struct(Student)22_storage)dyn_storage"
					},
					{
						"astId": 37,
						"contract": "sendtosend.sol:status",
						"label": "getInfoByWallet",
						"offset": 0,
						"slot": "3",
						"type": "t_mapping(t_address,t_struct(Student)22_storage)"
					}
				],
				"types": {
					"t_address": {
						"encoding": "inplace",
						"label": "address",
						"numberOfBytes": "20"
					},
					"t_array(t_struct(Student)22_storage)dyn_storage": {
						"base": "t_struct(Student)22_storage",
						"encoding": "dynamic_array",
						"label": "struct status.Student[]",
						"numberOfBytes": "32"
					},
					"t_mapping(t_address,t_struct(Student)22_storage)": {
						"encoding": "mapping",
						"key": "t_address",
						"label": "mapping(address => struct status.Student)",
						"numberOfBytes": "32",
						"value": "t_struct(Student)22_storage"
					},
					"t_string_storage": {
						"encoding": "bytes",
						"label": "string",
						"numberOfBytes": "32"
					},
					"t_struct(Student)22_storage": {
						"encoding": "inplace",
						"label": "struct status.Student",
						"members": [
							{
								"astId": 11,
								"contract": "sendtosend.sol:status",
								"label": "name",
								"offset": 0,
								"slot": "0",
								"type": "t_string_storage"
							},
							{
								"astId": 13,
								"contract": "sendtosend.sol:status",
								"label": "StudentID",
								"offset": 0,
								"slot": "1",
								"type": "t_uint256"
							},
							{
								"astId": 15,
								"contract": "sendtosend.sol:status",
								"label": "major",
								"offset": 0,
								"slot": "2",
								"type": "t_string_storage"
							},
							{
								"astId": 17,
								"contract": "sendtosend.sol:status",
								"label": "gpa",
								"offset": 0,
								"slot": "3",
								"type": "t_uint256"
							},
							{
								"astId": 19,
								"contract": "sendtosend.sol:status",
								"label": "company",
								"offset": 0,
								"slot": "4",
								"type": "t_string_storage"
							},
							{
								"astId": 21,
								"contract": "sendtosend.sol:status",
								"label": "balance",
								"offset": 0,
								"slot": "5",
								"type": "t_uint256"
							}
						],
						"numberOfBytes": "192"
					},
					"t_uint256": {
						"encoding": "inplace",
						"label": "uint256",
						"numberOfBytes": "32"
					}
				}
			},
			"userdoc": {
				"kind": "user",
				"methods": {},
				"version": 1
			}
		}
	}
}