{
	"test2.sol": {
		"status": {
			"abi": [
				{
					"anonymous": false,
					"inputs": [
						{
							"indexed": false,
							"internalType": "address",
							"name": "from",
							"type": "address"
						},
						{
							"indexed": false,
							"internalType": "address",
							"name": "to",
							"type": "address"
						},
						{
							"indexed": false,
							"internalType": "uint256",
							"name": "amount",
							"type": "uint256"
						}
					],
					"name": "Sent",
					"type": "event"
				},
				{
					"inputs": [
						{
							"internalType": "address",
							"name": "",
							"type": "address"
						}
					],
					"name": "balances",
					"outputs": [
						{
							"internalType": "uint256",
							"name": "",
							"type": "uint256"
						}
					],
					"stateMutability": "view",
					"type": "function"
				},
				{
					"inputs": [
						{
							"internalType": "address",
							"name": "",
							"type": "address"
						}
					],
					"name": "getInfoByWallet",
					"outputs": [
						{
							"internalType": "string",
							"name": "name",
							"type": "string"
						},
						{
							"internalType": "uint256",
							"name": "StudentID",
							"type": "uint256"
						},
						{
							"internalType": "string",
							"name": "major",
							"type": "string"
						},
						{
							"internalType": "uint256",
							"name": "gpa",
							"type": "uint256"
						},
						{
							"internalType": "string",
							"name": "company",
							"type": "string"
						},
						{
							"internalType": "uint256",
							"name": "balance",
							"type": "uint256"
						}
					],
					"stateMutability": "view",
					"type": "function"
				},
				{
					"inputs": [],
					"name": "minter",
					"outputs": [
						{
							"internalType": "address",
							"name": "",
							"type": "address"
						}
					],
					"stateMutability": "view",
					"type": "function"
				},
				{
					"inputs": [
						{
							"internalType": "address",
							"name": "receiver",
							"type": "address"
						},
						{
							"internalType": "uint256",
							"name": "amount",
							"type": "uint256"
						}
					],
					"name": "send",
					"outputs": [],
					"stateMutability": "payable",
					"type": "function"
				},
				{
					"inputs": [
						{
							"internalType": "address",
							"name": "_wall",
							"type": "address"
						},
						{
							"internalType": "string",
							"name": "_name",
							"type": "string"
						},
						{
							"internalType": "uint256",
							"name": "_StudentID",
							"type": "uint256"
						},
						{
							"internalType": "string",
							"name": "_major",
							"type": "string"
						},
						{
							"internalType": "uint256",
							"name": "_gpa",
							"type": "uint256"
						},
						{
							"internalType": "string",
							"name": "_company",
							"type": "string"
						},
						{
							"internalType": "uint256",
							"name": "_balance",
							"type": "uint256"
						}
					],
					"name": "setInfo",
					"outputs": [],
					"stateMutability": "payable",
					"type": "function"
				}
			],
			"devdoc": {
				"kind": "dev",
				"methods": {},
				"version": 1
			},
			"evm": {
				"assembly": "    /* \"test2.sol\":72:2162  contract status{\r... */\n  mstore(0x40, 0x80)\n    /* \"test2.sol\":496:512  string name = \"\" */\n  mload(0x40)\n  dup1\n  0x20\n  add\n  0x40\n  mstore\n  dup1\n  0x00\n  dup2\n  mstore\n  pop\n  0x02\n  swap1\n  dup1\n  mload\n  swap1\n  0x20\n  add\n  swap1\n  tag_1\n  swap3\n  swap2\n  swap1\n  tag_2\n  jump\t// in\ntag_1:\n  pop\n    /* \"test2.sol\":537:538  0 */\n  0x00\n    /* \"test2.sol\":519:538  uint256 balance = 0 */\n  0x03\n  sstore\n    /* \"test2.sol\":72:2162  contract status{\r... */\n  callvalue\n  dup1\n  iszero\n  tag_3\n  jumpi\n  0x00\n  dup1\n  revert\ntag_3:\n  pop\n  jump(tag_4)\ntag_2:\n  dup3\n  dup1\n  sload\n  tag_5\n  swap1\n  tag_6\n  jump\t// in\ntag_5:\n  swap1\n  0x00\n  mstore\n  keccak256(0x00, 0x20)\n  swap1\n  0x1f\n  add\n  0x20\n  swap1\n  div\n  dup2\n  add\n  swap3\n  dup3\n  tag_8\n  jumpi\n  0x00\n  dup6\n  sstore\n  jump(tag_7)\ntag_8:\n  dup3\n  0x1f\n  lt\n  tag_9\n  jumpi\n  dup1\n  mload\n  not(0xff)\n  and\n  dup4\n  dup1\n  add\n  or\n  dup6\n  sstore\n  jump(tag_7)\ntag_9:\n  dup3\n  dup1\n  add\n  0x01\n  add\n  dup6\n  sstore\n  dup3\n  iszero\n  tag_7\n  jumpi\n  swap2\n  dup3\n  add\ntag_10:\n  dup3\n  dup2\n  gt\n  iszero\n  tag_11\n  jumpi\n  dup3\n  mload\n  dup3\n  sstore\n  swap2\n  0x20\n  add\n  swap2\n  swap1\n  0x01\n  add\n  swap1\n  jump(tag_10)\ntag_11:\ntag_7:\n  pop\n  swap1\n  pop\n  tag_12\n  swap2\n  swap1\n  tag_13\n  jump\t// in\ntag_12:\n  pop\n  swap1\n  jump\t// out\ntag_13:\ntag_14:\n  dup1\n  dup3\n  gt\n  iszero\n  tag_15\n  jumpi\n  0x00\n  dup2\n  0x00\n  swap1\n  sstore\n  pop\n  0x01\n  add\n  jump(tag_14)\ntag_15:\n  pop\n  swap1\n  jump\t// out\n    /* \"#utility.yul\":7:327   */\ntag_6:\n    /* \"#utility.yul\":51:57   */\n  0x00\n    /* \"#utility.yul\":88:89   */\n  0x02\n    /* \"#utility.yul\":82:86   */\n  dup3\n    /* \"#utility.yul\":78:90   */\n  div\n    /* \"#utility.yul\":68:90   */\n  swap1\n  pop\n    /* \"#utility.yul\":135:136   */\n  0x01\n    /* \"#utility.yul\":129:133   */\n  dup3\n    /* \"#utility.yul\":125:137   */\n  and\n    /* \"#utility.yul\":156:174   */\n  dup1\n    /* \"#utility.yul\":146:227   */\n  tag_18\n  jumpi\n    /* \"#utility.yul\":212:216   */\n  0x7f\n    /* \"#utility.yul\":204:210   */\n  dup3\n    /* \"#utility.yul\":200:217   */\n  and\n    /* \"#utility.yul\":190:217   */\n  swap2\n  pop\n    /* \"#utility.yul\":146:227   */\ntag_18:\n    /* \"#utility.yul\":274:276   */\n  0x20\n    /* \"#utility.yul\":266:272   */\n  dup3\n    /* \"#utility.yul\":263:277   */\n  lt\n    /* \"#utility.yul\":243:261   */\n  dup2\n    /* \"#utility.yul\":240:278   */\n  eq\n    /* \"#utility.yul\":237:321   */\n  iszero\n  tag_19\n  jumpi\n    /* \"#utility.yul\":293:311   */\n  tag_20\n  tag_21\n  jump\t// in\ntag_20:\n    /* \"#utility.yul\":237:321   */\ntag_19:\n    /* \"#utility.yul\":58:327   */\n  pop\n    /* \"#utility.yul\":7:327   */\n  swap2\n  swap1\n  pop\n  jump\t// out\n    /* \"#utility.yul\":333:513   */\ntag_21:\n    /* \"#utility.yul\":381:458   */\n  0x4e487b7100000000000000000000000000000000000000000000000000000000\n    /* \"#utility.yul\":378:379   */\n  0x00\n    /* \"#utility.yul\":371:459   */\n  mstore\n    /* \"#utility.yul\":478:482   */\n  0x22\n    /* \"#utility.yul\":475:476   */\n  0x04\n    /* \"#utility.yul\":468:483   */\n  mstore\n    /* \"#utility.yul\":502:506   */\n  0x24\n    /* \"#utility.yul\":499:500   */\n  0x00\n    /* \"#utility.yul\":492:507   */\n  revert\n    /* \"test2.sol\":72:2162  contract status{\r... */\ntag_4:\n  dataSize(sub_0)\n  dup1\n  dataOffset(sub_0)\n  0x00\n  codecopy\n  0x00\n  return\nstop\n\nsub_0: assembly {\n        /* \"test2.sol\":72:2162  contract status{\r... */\n      mstore(0x40, 0x80)\n      jumpi(tag_1, lt(calldatasize, 0x04))\n      shr(0xe0, calldataload(0x00))\n      dup1\n      0x07546172\n      eq\n      tag_2\n      jumpi\n      dup1\n      0x27e235e3\n      eq\n      tag_3\n      jumpi\n      dup1\n      0x8b9c657a\n      eq\n      tag_4\n      jumpi\n      dup1\n      0x90e1f79d\n      eq\n      tag_5\n      jumpi\n      dup1\n      0xd0679d34\n      eq\n      tag_6\n      jumpi\n    tag_1:\n      0x00\n      dup1\n      revert\n        /* \"test2.sol\":98:119  address public minter */\n    tag_2:\n      callvalue\n      dup1\n      iszero\n      tag_7\n      jumpi\n      0x00\n      dup1\n      revert\n    tag_7:\n      pop\n      tag_8\n      tag_9\n      jump\t// in\n    tag_8:\n      mload(0x40)\n      tag_10\n      swap2\n      swap1\n      tag_11\n      jump\t// in\n    tag_10:\n      mload(0x40)\n      dup1\n      swap2\n      sub\n      swap1\n      return\n        /* \"test2.sol\":126:167  mapping (address => uint) public balances */\n    tag_3:\n      callvalue\n      dup1\n      iszero\n      tag_12\n      jumpi\n      0x00\n      dup1\n      revert\n    tag_12:\n      pop\n      tag_13\n      0x04\n      dup1\n      calldatasize\n      sub\n      dup2\n      add\n      swap1\n      tag_14\n      swap2\n      swap1\n      tag_15\n      jump\t// in\n    tag_14:\n      tag_16\n      jump\t// in\n    tag_13:\n      mload(0x40)\n      tag_17\n      swap2\n      swap1\n      tag_18\n      jump\t// in\n    tag_17:\n      mload(0x40)\n      dup1\n      swap2\n      sub\n      swap1\n      return\n        /* \"test2.sol\":572:622  mapping(address => Student) public getInfoByWallet */\n    tag_4:\n      callvalue\n      dup1\n      iszero\n      tag_19\n      jumpi\n      0x00\n      dup1\n      revert\n    tag_19:\n      pop\n      tag_20\n      0x04\n      dup1\n      calldatasize\n      sub\n      dup2\n      add\n      swap1\n      tag_21\n      swap2\n      swap1\n      tag_15\n      jump\t// in\n    tag_21:\n      tag_22\n      jump\t// in\n    tag_20:\n      mload(0x40)\n      tag_23\n      swap7\n      swap6\n      swap5\n      swap4\n      swap3\n      swap2\n      swap1\n      tag_24\n      jump\t// in\n    tag_23:\n      mload(0x40)\n      dup1\n      swap2\n      sub\n      swap1\n      return\n        /* \"test2.sol\":1384:1856  function setInfo(address _wall, string memory _name, uint256 _StudentID, string memory _major, uint256 _gpa, string memory _company, uint256 _balance) public payable {\r... */\n    tag_5:\n      tag_25\n      0x04\n      dup1\n      calldatasize\n      sub\n      dup2\n      add\n      swap1\n      tag_26\n      swap2\n      swap1\n      tag_27\n      jump\t// in\n    tag_26:\n      tag_28\n      jump\t// in\n    tag_25:\n      stop\n        /* \"test2.sol\":1864:2159  function send(address receiver, uint amount) public payable {\r... */\n    tag_6:\n      tag_29\n      0x04\n      dup1\n      calldatasize\n      sub\n      dup2\n      add\n      swap1\n      tag_30\n      swap2\n      swap1\n      tag_31\n      jump\t// in\n    tag_30:\n      tag_32\n      jump\t// in\n    tag_29:\n      stop\n        /* \"test2.sol\":98:119  address public minter */\n    tag_9:\n      0x00\n      dup1\n      sload\n      swap1\n      0x0100\n      exp\n      swap1\n      div\n      0xffffffffffffffffffffffffffffffffffffffff\n      and\n      dup2\n      jump\t// out\n        /* \"test2.sol\":126:167  mapping (address => uint) public balances */\n    tag_16:\n      mstore(0x20, 0x01)\n      dup1\n      0x00\n      mstore\n      keccak256(0x00, 0x40)\n      0x00\n      swap2\n      pop\n      swap1\n      pop\n      sload\n      dup2\n      jump\t// out\n        /* \"test2.sol\":572:622  mapping(address => Student) public getInfoByWallet */\n    tag_22:\n      mstore(0x20, 0x05)\n      dup1\n      0x00\n      mstore\n      keccak256(0x00, 0x40)\n      0x00\n      swap2\n      pop\n      swap1\n      pop\n      dup1\n      0x00\n      add\n      dup1\n      sload\n      tag_33\n      swap1\n      tag_34\n      jump\t// in\n    tag_33:\n      dup1\n      0x1f\n      add\n      0x20\n      dup1\n      swap2\n      div\n      mul\n      0x20\n      add\n      mload(0x40)\n      swap1\n      dup2\n      add\n      0x40\n      mstore\n      dup1\n      swap3\n      swap2\n      swap1\n      dup2\n      dup2\n      mstore\n      0x20\n      add\n      dup3\n      dup1\n      sload\n      tag_35\n      swap1\n      tag_34\n      jump\t// in\n    tag_35:\n      dup1\n      iszero\n      tag_36\n      jumpi\n      dup1\n      0x1f\n      lt\n      tag_37\n      jumpi\n      0x0100\n      dup1\n      dup4\n      sload\n      div\n      mul\n      dup4\n      mstore\n      swap2\n      0x20\n      add\n      swap2\n      jump(tag_36)\n    tag_37:\n      dup3\n      add\n      swap2\n      swap1\n      0x00\n      mstore\n      keccak256(0x00, 0x20)\n      swap1\n    tag_38:\n      dup2\n      sload\n      dup2\n      mstore\n      swap1\n      0x01\n      add\n      swap1\n      0x20\n      add\n      dup1\n      dup4\n      gt\n      tag_38\n      jumpi\n      dup3\n      swap1\n      sub\n      0x1f\n      and\n      dup3\n      add\n      swap2\n    tag_36:\n      pop\n      pop\n      pop\n      pop\n      pop\n      swap1\n      dup1\n      0x01\n      add\n      sload\n      swap1\n      dup1\n      0x02\n      add\n      dup1\n      sload\n      tag_39\n      swap1\n      tag_34\n      jump\t// in\n    tag_39:\n      dup1\n      0x1f\n      add\n      0x20\n      dup1\n      swap2\n      div\n      mul\n      0x20\n      add\n      mload(0x40)\n      swap1\n      dup2\n      add\n      0x40\n      mstore\n      dup1\n      swap3\n      swap2\n      swap1\n      dup2\n      dup2\n      mstore\n      0x20\n      add\n      dup3\n      dup1\n      sload\n      tag_40\n      swap1\n      tag_34\n      jump\t// in\n    tag_40:\n      dup1\n      iszero\n      tag_41\n      jumpi\n      dup1\n      0x1f\n      lt\n      tag_42\n      jumpi\n      0x0100\n      dup1\n      dup4\n      sload\n      div\n      mul\n      dup4\n      mstore\n      swap2\n      0x20\n      add\n      swap2\n      jump(tag_41)\n    tag_42:\n      dup3\n      add\n      swap2\n      swap1\n      0x00\n      mstore\n      keccak256(0x00, 0x20)\n      swap1\n    tag_43:\n      dup2\n      sload\n      dup2\n      mstore\n      swap1\n      0x01\n      add\n      swap1\n      0x20\n      add\n      dup1\n      dup4\n      gt\n      tag_43\n      jumpi\n      dup3\n      swap1\n      sub\n      0x1f\n      and\n      dup3\n      add\n      swap2\n    tag_41:\n      pop\n      pop\n      pop\n      pop\n      pop\n      swap1\n      dup1\n      0x03\n      add\n      sload\n      swap1\n      dup1\n      0x04\n      add\n      dup1\n      sload\n      tag_44\n      swap1\n      tag_34\n      jump\t// in\n    tag_44:\n      dup1\n      0x1f\n      add\n      0x20\n      dup1\n      swap2\n      div\n      mul\n      0x20\n      add\n      mload(0x40)\n      swap1\n      dup2\n      add\n      0x40\n      mstore\n      dup1\n      swap3\n      swap2\n      swap1\n      dup2\n      dup2\n      mstore\n      0x20\n      add\n      dup3\n      dup1\n      sload\n      tag_45\n      swap1\n      tag_34\n      jump\t// in\n    tag_45:\n      dup1\n      iszero\n      tag_46\n      jumpi\n      dup1\n      0x1f\n      lt\n      tag_47\n      jumpi\n      0x0100\n      dup1\n      dup4\n      sload\n      div\n      mul\n      dup4\n      mstore\n      swap2\n      0x20\n      add\n      swap2\n      jump(tag_46)\n    tag_47:\n      dup3\n      add\n      swap2\n      swap1\n      0x00\n      mstore\n      keccak256(0x00, 0x20)\n      swap1\n    tag_48:\n      dup2\n      sload\n      dup2\n      mstore\n      swap1\n      0x01\n      add\n      swap1\n      0x20\n      add\n      dup1\n      dup4\n      gt\n      tag_48\n      jumpi\n      dup3\n      swap1\n      sub\n      0x1f\n      and\n      dup3\n      add\n      swap2\n    tag_46:\n      pop\n      pop\n      pop\n      pop\n      pop\n      swap1\n      dup1\n      0x05\n      add\n      sload\n      swap1\n      pop\n      dup7\n      jump\t// out\n        /* \"test2.sol\":1384:1856  function setInfo(address _wall, string memory _name, uint256 _StudentID, string memory _major, uint256 _gpa, string memory _company, uint256 _balance) public payable {\r... */\n    tag_28:\n        /* \"test2.sol\":1591:1596  _name */\n      dup6\n        /* \"test2.sol\":1561:1576  getInfoByWallet */\n      0x05\n        /* \"test2.sol\":1561:1583  getInfoByWallet[_wall] */\n      0x00\n        /* \"test2.sol\":1577:1582  _wall */\n      dup10\n        /* \"test2.sol\":1561:1583  getInfoByWallet[_wall] */\n      0xffffffffffffffffffffffffffffffffffffffff\n      and\n      0xffffffffffffffffffffffffffffffffffffffff\n      and\n      dup2\n      mstore\n      0x20\n      add\n      swap1\n      dup2\n      mstore\n      0x20\n      add\n      0x00\n      keccak256\n        /* \"test2.sol\":1561:1588  getInfoByWallet[_wall].name */\n      0x00\n      add\n        /* \"test2.sol\":1561:1596  getInfoByWallet[_wall].name = _name */\n      swap1\n      dup1\n      mload\n      swap1\n      0x20\n      add\n      swap1\n      tag_50\n      swap3\n      swap2\n      swap1\n      tag_51\n      jump\t// in\n    tag_50:\n      pop\n        /* \"test2.sol\":1642:1652  _StudentID */\n      dup5\n        /* \"test2.sol\":1607:1622  getInfoByWallet */\n      0x05\n        /* \"test2.sol\":1607:1629  getInfoByWallet[_wall] */\n      0x00\n        /* \"test2.sol\":1623:1628  _wall */\n      dup10\n        /* \"test2.sol\":1607:1629  getInfoByWallet[_wall] */\n      0xffffffffffffffffffffffffffffffffffffffff\n      and\n      0xffffffffffffffffffffffffffffffffffffffff\n      and\n      dup2\n      mstore\n      0x20\n      add\n      swap1\n      dup2\n      mstore\n      0x20\n      add\n      0x00\n      keccak256\n        /* \"test2.sol\":1607:1639  getInfoByWallet[_wall].StudentID */\n      0x01\n      add\n        /* \"test2.sol\":1607:1652  getInfoByWallet[_wall].StudentID = _StudentID */\n      dup2\n      swap1\n      sstore\n      pop\n        /* \"test2.sol\":1694:1700  _major */\n      dup4\n        /* \"test2.sol\":1663:1678  getInfoByWallet */\n      0x05\n        /* \"test2.sol\":1663:1685  getInfoByWallet[_wall] */\n      0x00\n        /* \"test2.sol\":1679:1684  _wall */\n      dup10\n        /* \"test2.sol\":1663:1685  getInfoByWallet[_wall] */\n      0xffffffffffffffffffffffffffffffffffffffff\n      and\n      0xffffffffffffffffffffffffffffffffffffffff\n      and\n      dup2\n      mstore\n      0x20\n      add\n      swap1\n      dup2\n      mstore\n      0x20\n      add\n      0x00\n      keccak256\n        /* \"test2.sol\":1663:1691  getInfoByWallet[_wall].major */\n      0x02\n      add\n        /* \"test2.sol\":1663:1700  getInfoByWallet[_wall].major = _major */\n      swap1\n      dup1\n      mload\n      swap1\n      0x20\n      add\n      swap1\n      tag_52\n      swap3\n      swap2\n      swap1\n      tag_51\n      jump\t// in\n    tag_52:\n      pop\n        /* \"test2.sol\":1740:1744  _gpa */\n      dup3\n        /* \"test2.sol\":1711:1726  getInfoByWallet */\n      0x05\n        /* \"test2.sol\":1711:1733  getInfoByWallet[_wall] */\n      0x00\n        /* \"test2.sol\":1727:1732  _wall */\n      dup10\n        /* \"test2.sol\":1711:1733  getInfoByWallet[_wall] */\n      0xffffffffffffffffffffffffffffffffffffffff\n      and\n      0xffffffffffffffffffffffffffffffffffffffff\n      and\n      dup2\n      mstore\n      0x20\n      add\n      swap1\n      dup2\n      mstore\n      0x20\n      add\n      0x00\n      keccak256\n        /* \"test2.sol\":1711:1737  getInfoByWallet[_wall].gpa */\n      0x03\n      add\n        /* \"test2.sol\":1711:1744  getInfoByWallet[_wall].gpa = _gpa */\n      dup2\n      swap1\n      sstore\n      pop\n        /* \"test2.sol\":1788:1796  _company */\n      dup2\n        /* \"test2.sol\":1755:1770  getInfoByWallet */\n      0x05\n        /* \"test2.sol\":1755:1777  getInfoByWallet[_wall] */\n      0x00\n        /* \"test2.sol\":1771:1776  _wall */\n      dup10\n        /* \"test2.sol\":1755:1777  getInfoByWallet[_wall] */\n      0xffffffffffffffffffffffffffffffffffffffff\n      and\n      0xffffffffffffffffffffffffffffffffffffffff\n      and\n      dup2\n      mstore\n      0x20\n      add\n      swap1\n      dup2\n      mstore\n      0x20\n      add\n      0x00\n      keccak256\n        /* \"test2.sol\":1755:1785  getInfoByWallet[_wall].company */\n      0x04\n      add\n        /* \"test2.sol\":1755:1796  getInfoByWallet[_wall].company = _company */\n      swap1\n      dup1\n      mload\n      swap1\n      0x20\n      add\n      swap1\n      tag_53\n      swap3\n      swap2\n      swap1\n      tag_51\n      jump\t// in\n    tag_53:\n      pop\n        /* \"test2.sol\":1840:1848  _balance */\n      dup1\n        /* \"test2.sol\":1807:1822  getInfoByWallet */\n      0x05\n        /* \"test2.sol\":1807:1829  getInfoByWallet[_wall] */\n      0x00\n        /* \"test2.sol\":1823:1828  _wall */\n      dup10\n        /* \"test2.sol\":1807:1829  getInfoByWallet[_wall] */\n      0xffffffffffffffffffffffffffffffffffffffff\n      and\n      0xffffffffffffffffffffffffffffffffffffffff\n      and\n      dup2\n      mstore\n      0x20\n      add\n      swap1\n      dup2\n      mstore\n      0x20\n      add\n      0x00\n      keccak256\n        /* \"test2.sol\":1807:1837  getInfoByWallet[_wall].balance */\n      0x05\n      add\n        /* \"test2.sol\":1807:1848  getInfoByWallet[_wall].balance = _balance */\n      dup2\n      swap1\n      sstore\n      pop\n        /* \"test2.sol\":1384:1856  function setInfo(address _wall, string memory _name, uint256 _StudentID, string memory _major, uint256 _gpa, string memory _company, uint256 _balance) public payable {\r... */\n      pop\n      pop\n      pop\n      pop\n      pop\n      pop\n      pop\n      jump\t// out\n        /* \"test2.sol\":1864:2159  function send(address receiver, uint amount) public payable {\r... */\n    tag_32:\n        /* \"test2.sol\":1977:1983  amount */\n      dup1\n        /* \"test2.sol\":1939:1954  getInfoByWallet */\n      0x05\n        /* \"test2.sol\":1939:1966  getInfoByWallet[msg.sender] */\n      0x00\n        /* \"test2.sol\":1955:1965  msg.sender */\n      caller\n        /* \"test2.sol\":1939:1966  getInfoByWallet[msg.sender] */\n      0xffffffffffffffffffffffffffffffffffffffff\n      and\n      0xffffffffffffffffffffffffffffffffffffffff\n      and\n      dup2\n      mstore\n      0x20\n      add\n      swap1\n      dup2\n      mstore\n      0x20\n      add\n      0x00\n      keccak256\n        /* \"test2.sol\":1939:1974  getInfoByWallet[msg.sender].balance */\n      0x05\n      add\n      sload\n        /* \"test2.sol\":1939:1983  getInfoByWallet[msg.sender].balance < amount */\n      lt\n        /* \"test2.sol\":1935:1992  if (getInfoByWallet[msg.sender].balance < amount) return; */\n      iszero\n      tag_55\n      jumpi\n        /* \"test2.sol\":1985:1992  return; */\n      jump(tag_54)\n        /* \"test2.sol\":1935:1992  if (getInfoByWallet[msg.sender].balance < amount) return; */\n    tag_55:\n        /* \"test2.sol\":2041:2047  amount */\n      dup1\n        /* \"test2.sol\":2002:2017  getInfoByWallet */\n      0x05\n        /* \"test2.sol\":2002:2029  getInfoByWallet[msg.sender] */\n      0x00\n        /* \"test2.sol\":2018:2028  msg.sender */\n      caller\n        /* \"test2.sol\":2002:2029  getInfoByWallet[msg.sender] */\n      0xffffffffffffffffffffffffffffffffffffffff\n      and\n      0xffffffffffffffffffffffffffffffffffffffff\n      and\n      dup2\n      mstore\n      0x20\n      add\n      swap1\n      dup2\n      mstore\n      0x20\n      add\n      0x00\n      keccak256\n        /* \"test2.sol\":2002:2037  getInfoByWallet[msg.sender].balance */\n      0x05\n      add\n      0x00\n        /* \"test2.sol\":2002:2047  getInfoByWallet[msg.sender].balance -= amount */\n      dup3\n      dup3\n      sload\n      tag_56\n      swap2\n      swap1\n      tag_57\n      jump\t// in\n    tag_56:\n      swap3\n      pop\n      pop\n      dup2\n      swap1\n      sstore\n      pop\n        /* \"test2.sol\":2095:2101  amount */\n      dup1\n        /* \"test2.sol\":2058:2073  getInfoByWallet */\n      0x05\n        /* \"test2.sol\":2058:2083  getInfoByWallet[receiver] */\n      0x00\n        /* \"test2.sol\":2074:2082  receiver */\n      dup5\n        /* \"test2.sol\":2058:2083  getInfoByWallet[receiver] */\n      0xffffffffffffffffffffffffffffffffffffffff\n      and\n      0xffffffffffffffffffffffffffffffffffffffff\n      and\n      dup2\n      mstore\n      0x20\n      add\n      swap1\n      dup2\n      mstore\n      0x20\n      add\n      0x00\n      keccak256\n        /* \"test2.sol\":2058:2091  getInfoByWallet[receiver].balance */\n      0x05\n      add\n      0x00\n        /* \"test2.sol\":2058:2101  getInfoByWallet[receiver].balance += amount */\n      dup3\n      dup3\n      sload\n      tag_58\n      swap2\n      swap1\n      tag_59\n      jump\t// in\n    tag_58:\n      swap3\n      pop\n      pop\n      dup2\n      swap1\n      sstore\n      pop\n        /* \"test2.sol\":2117:2151  Sent(msg.sender, receiver, amount) */\n      0x3990db2d31862302a685e8086b5755072a6e2b5b780af1ee81ece35ee3cd3345\n        /* \"test2.sol\":2122:2132  msg.sender */\n      caller\n        /* \"test2.sol\":2134:2142  receiver */\n      dup4\n        /* \"test2.sol\":2144:2150  amount */\n      dup4\n        /* \"test2.sol\":2117:2151  Sent(msg.sender, receiver, amount) */\n      mload(0x40)\n      tag_60\n      swap4\n      swap3\n      swap2\n      swap1\n      tag_61\n      jump\t// in\n    tag_60:\n      mload(0x40)\n      dup1\n      swap2\n      sub\n      swap1\n      log1\n        /* \"test2.sol\":1864:2159  function send(address receiver, uint amount) public payable {\r... */\n    tag_54:\n      pop\n      pop\n      jump\t// out\n    tag_51:\n      dup3\n      dup1\n      sload\n      tag_62\n      swap1\n      tag_34\n      jump\t// in\n    tag_62:\n      swap1\n      0x00\n      mstore\n      keccak256(0x00, 0x20)\n      swap1\n      0x1f\n      add\n      0x20\n      swap1\n      div\n      dup2\n      add\n      swap3\n      dup3\n      tag_64\n      jumpi\n      0x00\n      dup6\n      sstore\n      jump(tag_63)\n    tag_64:\n      dup3\n      0x1f\n      lt\n      tag_65\n      jumpi\n      dup1\n      mload\n      not(0xff)\n      and\n      dup4\n      dup1\n      add\n      or\n      dup6\n      sstore\n      jump(tag_63)\n    tag_65:\n      dup3\n      dup1\n      add\n      0x01\n      add\n      dup6\n      sstore\n      dup3\n      iszero\n      tag_63\n      jumpi\n      swap2\n      dup3\n      add\n    tag_66:\n      dup3\n      dup2\n      gt\n      iszero\n      tag_67\n      jumpi\n      dup3\n      mload\n      dup3\n      sstore\n      swap2\n      0x20\n      add\n      swap2\n      swap1\n      0x01\n      add\n      swap1\n      jump(tag_66)\n    tag_67:\n    tag_63:\n      pop\n      swap1\n      pop\n      tag_68\n      swap2\n      swap1\n      tag_69\n      jump\t// in\n    tag_68:\n      pop\n      swap1\n      jump\t// out\n    tag_69:\n    tag_70:\n      dup1\n      dup3\n      gt\n      iszero\n      tag_71\n      jumpi\n      0x00\n      dup2\n      0x00\n      swap1\n      sstore\n      pop\n      0x01\n      add\n      jump(tag_70)\n    tag_71:\n      pop\n      swap1\n      jump\t// out\n        /* \"#utility.yul\":7:419   */\n    tag_73:\n        /* \"#utility.yul\":85:90   */\n      0x00\n        /* \"#utility.yul\":110:176   */\n      tag_75\n        /* \"#utility.yul\":126:175   */\n      tag_76\n        /* \"#utility.yul\":168:174   */\n      dup5\n        /* \"#utility.yul\":126:175   */\n      tag_77\n      jump\t// in\n    tag_76:\n        /* \"#utility.yul\":110:176   */\n      tag_78\n      jump\t// in\n    tag_75:\n        /* \"#utility.yul\":101:176   */\n      swap1\n      pop\n        /* \"#utility.yul\":199:205   */\n      dup3\n        /* \"#utility.yul\":192:197   */\n      dup2\n        /* \"#utility.yul\":185:206   */\n      mstore\n        /* \"#utility.yul\":237:241   */\n      0x20\n        /* \"#utility.yul\":230:235   */\n      dup2\n        /* \"#utility.yul\":226:242   */\n      add\n        /* \"#utility.yul\":275:278   */\n      dup5\n        /* \"#utility.yul\":266:272   */\n      dup5\n        /* \"#utility.yul\":261:264   */\n      dup5\n        /* \"#utility.yul\":257:273   */\n      add\n        /* \"#utility.yul\":254:279   */\n      gt\n        /* \"#utility.yul\":251:363   */\n      iszero\n      tag_79\n      jumpi\n        /* \"#utility.yul\":282:361   */\n      tag_80\n      tag_81\n      jump\t// in\n    tag_80:\n        /* \"#utility.yul\":251:363   */\n    tag_79:\n        /* \"#utility.yul\":372:413   */\n      tag_82\n        /* \"#utility.yul\":406:412   */\n      dup5\n        /* \"#utility.yul\":401:404   */\n      dup3\n        /* \"#utility.yul\":396:399   */\n      dup6\n        /* \"#utility.yul\":372:413   */\n      tag_83\n      jump\t// in\n    tag_82:\n        /* \"#utility.yul\":91:419   */\n      pop\n        /* \"#utility.yul\":7:419   */\n      swap4\n      swap3\n      pop\n      pop\n      pop\n      jump\t// out\n        /* \"#utility.yul\":425:564   */\n    tag_84:\n        /* \"#utility.yul\":471:476   */\n      0x00\n        /* \"#utility.yul\":509:515   */\n      dup2\n        /* \"#utility.yul\":496:516   */\n      calldataload\n        /* \"#utility.yul\":487:516   */\n      swap1\n      pop\n        /* \"#utility.yul\":525:558   */\n      tag_86\n        /* \"#utility.yul\":552:557   */\n      dup2\n        /* \"#utility.yul\":525:558   */\n      tag_87\n      jump\t// in\n    tag_86:\n        /* \"#utility.yul\":425:564   */\n      swap3\n      swap2\n      pop\n      pop\n      jump\t// out\n        /* \"#utility.yul\":584:924   */\n    tag_88:\n        /* \"#utility.yul\":640:645   */\n      0x00\n        /* \"#utility.yul\":689:692   */\n      dup3\n        /* \"#utility.yul\":682:686   */\n      0x1f\n        /* \"#utility.yul\":674:680   */\n      dup4\n        /* \"#utility.yul\":670:687   */\n      add\n        /* \"#utility.yul\":666:693   */\n      slt\n        /* \"#utility.yul\":656:778   */\n      tag_90\n      jumpi\n        /* \"#utility.yul\":697:776   */\n      tag_91\n      tag_92\n      jump\t// in\n    tag_91:\n        /* \"#utility.yul\":656:778   */\n    tag_90:\n        /* \"#utility.yul\":814:820   */\n      dup2\n        /* \"#utility.yul\":801:821   */\n      calldataload\n        /* \"#utility.yul\":839:918   */\n      tag_93\n        /* \"#utility.yul\":914:917   */\n      dup5\n        /* \"#utility.yul\":906:912   */\n      dup3\n        /* \"#utility.yul\":899:903   */\n      0x20\n        /* \"#utility.yul\":891:897   */\n      dup7\n        /* \"#utility.yul\":887:904   */\n      add\n        /* \"#utility.yul\":839:918   */\n      tag_73\n      jump\t// in\n    tag_93:\n        /* \"#utility.yul\":830:918   */\n      swap2\n      pop\n        /* \"#utility.yul\":646:924   */\n      pop\n        /* \"#utility.yul\":584:924   */\n      swap3\n      swap2\n      pop\n      pop\n      jump\t// out\n        /* \"#utility.yul\":930:1069   */\n    tag_94:\n        /* \"#utility.yul\":976:981   */\n      0x00\n        /* \"#utility.yul\":1014:1020   */\n      dup2\n        /* \"#utility.yul\":1001:1021   */\n      calldataload\n        /* \"#utility.yul\":992:1021   */\n      swap1\n      pop\n        /* \"#utility.yul\":1030:1063   */\n      tag_96\n        /* \"#utility.yul\":1057:1062   */\n      dup2\n        /* \"#utility.yul\":1030:1063   */\n      tag_97\n      jump\t// in\n    tag_96:\n        /* \"#utility.yul\":930:1069   */\n      swap3\n      swap2\n      pop\n      pop\n      jump\t// out\n        /* \"#utility.yul\":1075:1404   */\n    tag_15:\n        /* \"#utility.yul\":1134:1140   */\n      0x00\n        /* \"#utility.yul\":1183:1185   */\n      0x20\n        /* \"#utility.yul\":1171:1180   */\n      dup3\n        /* \"#utility.yul\":1162:1169   */\n      dup5\n        /* \"#utility.yul\":1158:1181   */\n      sub\n        /* \"#utility.yul\":1154:1186   */\n      slt\n        /* \"#utility.yul\":1151:1270   */\n      iszero\n      tag_99\n      jumpi\n        /* \"#utility.yul\":1189:1268   */\n      tag_100\n      tag_101\n      jump\t// in\n    tag_100:\n        /* \"#utility.yul\":1151:1270   */\n    tag_99:\n        /* \"#utility.yul\":1309:1310   */\n      0x00\n        /* \"#utility.yul\":1334:1387   */\n      tag_102\n        /* \"#utility.yul\":1379:1386   */\n      dup5\n        /* \"#utility.yul\":1370:1376   */\n      dup3\n        /* \"#utility.yul\":1359:1368   */\n      dup6\n        /* \"#utility.yul\":1355:1377   */\n      add\n        /* \"#utility.yul\":1334:1387   */\n      tag_84\n      jump\t// in\n    tag_102:\n        /* \"#utility.yul\":1324:1387   */\n      swap2\n      pop\n        /* \"#utility.yul\":1280:1397   */\n      pop\n        /* \"#utility.yul\":1075:1404   */\n      swap3\n      swap2\n      pop\n      pop\n      jump\t// out\n        /* \"#utility.yul\":1410:3153   */\n    tag_27:\n        /* \"#utility.yul\":1553:1559   */\n      0x00\n        /* \"#utility.yul\":1561:1567   */\n      dup1\n        /* \"#utility.yul\":1569:1575   */\n      0x00\n        /* \"#utility.yul\":1577:1583   */\n      dup1\n        /* \"#utility.yul\":1585:1591   */\n      0x00\n        /* \"#utility.yul\":1593:1599   */\n      dup1\n        /* \"#utility.yul\":1601:1607   */\n      0x00\n        /* \"#utility.yul\":1650:1653   */\n      0xe0\n        /* \"#utility.yul\":1638:1647   */\n      dup9\n        /* \"#utility.yul\":1629:1636   */\n      dup11\n        /* \"#utility.yul\":1625:1648   */\n      sub\n        /* \"#utility.yul\":1621:1654   */\n      slt\n        /* \"#utility.yul\":1618:1738   */\n      iszero\n      tag_104\n      jumpi\n        /* \"#utility.yul\":1657:1736   */\n      tag_105\n      tag_101\n      jump\t// in\n    tag_105:\n        /* \"#utility.yul\":1618:1738   */\n    tag_104:\n        /* \"#utility.yul\":1777:1778   */\n      0x00\n        /* \"#utility.yul\":1802:1855   */\n      tag_106\n        /* \"#utility.yul\":1847:1854   */\n      dup11\n        /* \"#utility.yul\":1838:1844   */\n      dup3\n        /* \"#utility.yul\":1827:1836   */\n      dup12\n        /* \"#utility.yul\":1823:1845   */\n      add\n        /* \"#utility.yul\":1802:1855   */\n      tag_84\n      jump\t// in\n    tag_106:\n        /* \"#utility.yul\":1792:1855   */\n      swap8\n      pop\n        /* \"#utility.yul\":1748:1865   */\n      pop\n        /* \"#utility.yul\":1932:1934   */\n      0x20\n        /* \"#utility.yul\":1921:1930   */\n      dup9\n        /* \"#utility.yul\":1917:1935   */\n      add\n        /* \"#utility.yul\":1904:1936   */\n      calldataload\n        /* \"#utility.yul\":1963:1981   */\n      0xffffffffffffffff\n        /* \"#utility.yul\":1955:1961   */\n      dup2\n        /* \"#utility.yul\":1952:1982   */\n      gt\n        /* \"#utility.yul\":1949:2066   */\n      iszero\n      tag_107\n      jumpi\n        /* \"#utility.yul\":1985:2064   */\n      tag_108\n      tag_109\n      jump\t// in\n    tag_108:\n        /* \"#utility.yul\":1949:2066   */\n    tag_107:\n        /* \"#utility.yul\":2090:2153   */\n      tag_110\n        /* \"#utility.yul\":2145:2152   */\n      dup11\n        /* \"#utility.yul\":2136:2142   */\n      dup3\n        /* \"#utility.yul\":2125:2134   */\n      dup12\n        /* \"#utility.yul\":2121:2143   */\n      add\n        /* \"#utility.yul\":2090:2153   */\n      tag_88\n      jump\t// in\n    tag_110:\n        /* \"#utility.yul\":2080:2153   */\n      swap7\n      pop\n        /* \"#utility.yul\":1875:2163   */\n      pop\n        /* \"#utility.yul\":2202:2204   */\n      0x40\n        /* \"#utility.yul\":2228:2281   */\n      tag_111\n        /* \"#utility.yul\":2273:2280   */\n      dup11\n        /* \"#utility.yul\":2264:2270   */\n      dup3\n        /* \"#utility.yul\":2253:2262   */\n      dup12\n        /* \"#utility.yul\":2249:2271   */\n      add\n        /* \"#utility.yul\":2228:2281   */\n      tag_94\n      jump\t// in\n    tag_111:\n        /* \"#utility.yul\":2218:2281   */\n      swap6\n      pop\n        /* \"#utility.yul\":2173:2291   */\n      pop\n        /* \"#utility.yul\":2358:2360   */\n      0x60\n        /* \"#utility.yul\":2347:2356   */\n      dup9\n        /* \"#utility.yul\":2343:2361   */\n      add\n        /* \"#utility.yul\":2330:2362   */\n      calldataload\n        /* \"#utility.yul\":2389:2407   */\n      0xffffffffffffffff\n        /* \"#utility.yul\":2381:2387   */\n      dup2\n        /* \"#utility.yul\":2378:2408   */\n      gt\n        /* \"#utility.yul\":2375:2492   */\n      iszero\n      tag_112\n      jumpi\n        /* \"#utility.yul\":2411:2490   */\n      tag_113\n      tag_109\n      jump\t// in\n    tag_113:\n        /* \"#utility.yul\":2375:2492   */\n    tag_112:\n        /* \"#utility.yul\":2516:2579   */\n      tag_114\n        /* \"#utility.yul\":2571:2578   */\n      dup11\n        /* \"#utility.yul\":2562:2568   */\n      dup3\n        /* \"#utility.yul\":2551:2560   */\n      dup12\n        /* \"#utility.yul\":2547:2569   */\n      add\n        /* \"#utility.yul\":2516:2579   */\n      tag_88\n      jump\t// in\n    tag_114:\n        /* \"#utility.yul\":2506:2579   */\n      swap5\n      pop\n        /* \"#utility.yul\":2301:2589   */\n      pop\n        /* \"#utility.yul\":2628:2631   */\n      0x80\n        /* \"#utility.yul\":2655:2708   */\n      tag_115\n        /* \"#utility.yul\":2700:2707   */\n      dup11\n        /* \"#utility.yul\":2691:2697   */\n      dup3\n        /* \"#utility.yul\":2680:2689   */\n      dup12\n        /* \"#utility.yul\":2676:2698   */\n      add\n        /* \"#utility.yul\":2655:2708   */\n      tag_94\n      jump\t// in\n    tag_115:\n        /* \"#utility.yul\":2645:2708   */\n      swap4\n      pop\n        /* \"#utility.yul\":2599:2718   */\n      pop\n        /* \"#utility.yul\":2785:2788   */\n      0xa0\n        /* \"#utility.yul\":2774:2783   */\n      dup9\n        /* \"#utility.yul\":2770:2789   */\n      add\n        /* \"#utility.yul\":2757:2790   */\n      calldataload\n        /* \"#utility.yul\":2817:2835   */\n      0xffffffffffffffff\n        /* \"#utility.yul\":2809:2815   */\n      dup2\n        /* \"#utility.yul\":2806:2836   */\n      gt\n        /* \"#utility.yul\":2803:2920   */\n      iszero\n      tag_116\n      jumpi\n        /* \"#utility.yul\":2839:2918   */\n      tag_117\n      tag_109\n      jump\t// in\n    tag_117:\n        /* \"#utility.yul\":2803:2920   */\n    tag_116:\n        /* \"#utility.yul\":2944:3007   */\n      tag_118\n        /* \"#utility.yul\":2999:3006   */\n      dup11\n        /* \"#utility.yul\":2990:2996   */\n      dup3\n        /* \"#utility.yul\":2979:2988   */\n      dup12\n        /* \"#utility.yul\":2975:2997   */\n      add\n        /* \"#utility.yul\":2944:3007   */\n      tag_88\n      jump\t// in\n    tag_118:\n        /* \"#utility.yul\":2934:3007   */\n      swap3\n      pop\n        /* \"#utility.yul\":2728:3017   */\n      pop\n        /* \"#utility.yul\":3056:3059   */\n      0xc0\n        /* \"#utility.yul\":3083:3136   */\n      tag_119\n        /* \"#utility.yul\":3128:3135   */\n      dup11\n        /* \"#utility.yul\":3119:3125   */\n      dup3\n        /* \"#utility.yul\":3108:3117   */\n      dup12\n        /* \"#utility.yul\":3104:3126   */\n      add\n        /* \"#utility.yul\":3083:3136   */\n      tag_94\n      jump\t// in\n    tag_119:\n        /* \"#utility.yul\":3073:3136   */\n      swap2\n      pop\n        /* \"#utility.yul\":3027:3146   */\n      pop\n        /* \"#utility.yul\":1410:3153   */\n      swap3\n      swap6\n      swap9\n      swap2\n      swap5\n      swap8\n      pop\n      swap3\n      swap6\n      pop\n      jump\t// out\n        /* \"#utility.yul\":3159:3633   */\n    tag_31:\n        /* \"#utility.yul\":3227:3233   */\n      0x00\n        /* \"#utility.yul\":3235:3241   */\n      dup1\n        /* \"#utility.yul\":3284:3286   */\n      0x40\n        /* \"#utility.yul\":3272:3281   */\n      dup4\n        /* \"#utility.yul\":3263:3270   */\n      dup6\n        /* \"#utility.yul\":3259:3282   */\n      sub\n        /* \"#utility.yul\":3255:3287   */\n      slt\n        /* \"#utility.yul\":3252:3371   */\n      iszero\n      tag_121\n      jumpi\n        /* \"#utility.yul\":3290:3369   */\n      tag_122\n      tag_101\n      jump\t// in\n    tag_122:\n        /* \"#utility.yul\":3252:3371   */\n    tag_121:\n        /* \"#utility.yul\":3410:3411   */\n      0x00\n        /* \"#utility.yul\":3435:3488   */\n      tag_123\n        /* \"#utility.yul\":3480:3487   */\n      dup6\n        /* \"#utility.yul\":3471:3477   */\n      dup3\n        /* \"#utility.yul\":3460:3469   */\n      dup7\n        /* \"#utility.yul\":3456:3478   */\n      add\n        /* \"#utility.yul\":3435:3488   */\n      tag_84\n      jump\t// in\n    tag_123:\n        /* \"#utility.yul\":3425:3488   */\n      swap3\n      pop\n        /* \"#utility.yul\":3381:3498   */\n      pop\n        /* \"#utility.yul\":3537:3539   */\n      0x20\n        /* \"#utility.yul\":3563:3616   */\n      tag_124\n        /* \"#utility.yul\":3608:3615   */\n      dup6\n        /* \"#utility.yul\":3599:3605   */\n      dup3\n        /* \"#utility.yul\":3588:3597   */\n      dup7\n        /* \"#utility.yul\":3584:3606   */\n      add\n        /* \"#utility.yul\":3563:3616   */\n      tag_94\n      jump\t// in\n    tag_124:\n        /* \"#utility.yul\":3553:3616   */\n      swap2\n      pop\n        /* \"#utility.yul\":3508:3626   */\n      pop\n        /* \"#utility.yul\":3159:3633   */\n      swap3\n      pop\n      swap3\n      swap1\n      pop\n      jump\t// out\n        /* \"#utility.yul\":3639:3757   */\n    tag_125:\n        /* \"#utility.yul\":3726:3750   */\n      tag_127\n        /* \"#utility.yul\":3744:3749   */\n      dup2\n        /* \"#utility.yul\":3726:3750   */\n      tag_128\n      jump\t// in\n    tag_127:\n        /* \"#utility.yul\":3721:3724   */\n      dup3\n        /* \"#utility.yul\":3714:3751   */\n      mstore\n        /* \"#utility.yul\":3639:3757   */\n      pop\n      pop\n      jump\t// out\n        /* \"#utility.yul\":3763:4127   */\n    tag_129:\n        /* \"#utility.yul\":3851:3854   */\n      0x00\n        /* \"#utility.yul\":3879:3918   */\n      tag_131\n        /* \"#utility.yul\":3912:3917   */\n      dup3\n        /* \"#utility.yul\":3879:3918   */\n      tag_132\n      jump\t// in\n    tag_131:\n        /* \"#utility.yul\":3934:4005   */\n      tag_133\n        /* \"#utility.yul\":3998:4004   */\n      dup2\n        /* \"#utility.yul\":3993:3996   */\n      dup6\n        /* \"#utility.yul\":3934:4005   */\n      tag_134\n      jump\t// in\n    tag_133:\n        /* \"#utility.yul\":3927:4005   */\n      swap4\n      pop\n        /* \"#utility.yul\":4014:4066   */\n      tag_135\n        /* \"#utility.yul\":4059:4065   */\n      dup2\n        /* \"#utility.yul\":4054:4057   */\n      dup6\n        /* \"#utility.yul\":4047:4051   */\n      0x20\n        /* \"#utility.yul\":4040:4045   */\n      dup7\n        /* \"#utility.yul\":4036:4052   */\n      add\n        /* \"#utility.yul\":4014:4066   */\n      tag_136\n      jump\t// in\n    tag_135:\n        /* \"#utility.yul\":4091:4120   */\n      tag_137\n        /* \"#utility.yul\":4113:4119   */\n      dup2\n        /* \"#utility.yul\":4091:4120   */\n      tag_138\n      jump\t// in\n    tag_137:\n        /* \"#utility.yul\":4086:4089   */\n      dup5\n        /* \"#utility.yul\":4082:4121   */\n      add\n        /* \"#utility.yul\":4075:4121   */\n      swap2\n      pop\n        /* \"#utility.yul\":3855:4127   */\n      pop\n        /* \"#utility.yul\":3763:4127   */\n      swap3\n      swap2\n      pop\n      pop\n      jump\t// out\n        /* \"#utility.yul\":4133:4251   */\n    tag_139:\n        /* \"#utility.yul\":4220:4244   */\n      tag_141\n        /* \"#utility.yul\":4238:4243   */\n      dup2\n        /* \"#utility.yul\":4220:4244   */\n      tag_142\n      jump\t// in\n    tag_141:\n        /* \"#utility.yul\":4215:4218   */\n      dup3\n        /* \"#utility.yul\":4208:4245   */\n      mstore\n        /* \"#utility.yul\":4133:4251   */\n      pop\n      pop\n      jump\t// out\n        /* \"#utility.yul\":4257:4479   */\n    tag_11:\n        /* \"#utility.yul\":4350:4354   */\n      0x00\n        /* \"#utility.yul\":4388:4390   */\n      0x20\n        /* \"#utility.yul\":4377:4386   */\n      dup3\n        /* \"#utility.yul\":4373:4391   */\n      add\n        /* \"#utility.yul\":4365:4391   */\n      swap1\n      pop\n        /* \"#utility.yul\":4401:4472   */\n      tag_144\n        /* \"#utility.yul\":4469:4470   */\n      0x00\n        /* \"#utility.yul\":4458:4467   */\n      dup4\n        /* \"#utility.yul\":4454:4471   */\n      add\n        /* \"#utility.yul\":4445:4451   */\n      dup5\n        /* \"#utility.yul\":4401:4472   */\n      tag_125\n      jump\t// in\n    tag_144:\n        /* \"#utility.yul\":4257:4479   */\n      swap3\n      swap2\n      pop\n      pop\n      jump\t// out\n        /* \"#utility.yul\":4485:4927   */\n    tag_61:\n        /* \"#utility.yul\":4634:4638   */\n      0x00\n        /* \"#utility.yul\":4672:4674   */\n      0x60\n        /* \"#utility.yul\":4661:4670   */\n      dup3\n        /* \"#utility.yul\":4657:4675   */\n      add\n        /* \"#utility.yul\":4649:4675   */\n      swap1\n      pop\n        /* \"#utility.yul\":4685:4756   */\n      tag_146\n        /* \"#utility.yul\":4753:4754   */\n      0x00\n        /* \"#utility.yul\":4742:4751   */\n      dup4\n        /* \"#utility.yul\":4738:4755   */\n      add\n        /* \"#utility.yul\":4729:4735   */\n      dup7\n        /* \"#utility.yul\":4685:4756   */\n      tag_125\n      jump\t// in\n    tag_146:\n        /* \"#utility.yul\":4766:4838   */\n      tag_147\n        /* \"#utility.yul\":4834:4836   */\n      0x20\n        /* \"#utility.yul\":4823:4832   */\n      dup4\n        /* \"#utility.yul\":4819:4837   */\n      add\n        /* \"#utility.yul\":4810:4816   */\n      dup6\n        /* \"#utility.yul\":4766:4838   */\n      tag_125\n      jump\t// in\n    tag_147:\n        /* \"#utility.yul\":4848:4920   */\n      tag_148\n        /* \"#utility.yul\":4916:4918   */\n      0x40\n        /* \"#utility.yul\":4905:4914   */\n      dup4\n        /* \"#utility.yul\":4901:4919   */\n      add\n        /* \"#utility.yul\":4892:4898   */\n      dup5\n        /* \"#utility.yul\":4848:4920   */\n      tag_139\n      jump\t// in\n    tag_148:\n        /* \"#utility.yul\":4485:4927   */\n      swap5\n      swap4\n      pop\n      pop\n      pop\n      pop\n      jump\t// out\n        /* \"#utility.yul\":4933:5981   */\n    tag_24:\n        /* \"#utility.yul\":5226:5230   */\n      0x00\n        /* \"#utility.yul\":5264:5267   */\n      0xc0\n        /* \"#utility.yul\":5253:5262   */\n      dup3\n        /* \"#utility.yul\":5249:5268   */\n      add\n        /* \"#utility.yul\":5241:5268   */\n      swap1\n      pop\n        /* \"#utility.yul\":5314:5323   */\n      dup2\n        /* \"#utility.yul\":5308:5312   */\n      dup2\n        /* \"#utility.yul\":5304:5324   */\n      sub\n        /* \"#utility.yul\":5300:5301   */\n      0x00\n        /* \"#utility.yul\":5289:5298   */\n      dup4\n        /* \"#utility.yul\":5285:5302   */\n      add\n        /* \"#utility.yul\":5278:5325   */\n      mstore\n        /* \"#utility.yul\":5342:5420   */\n      tag_150\n        /* \"#utility.yul\":5415:5419   */\n      dup2\n        /* \"#utility.yul\":5406:5412   */\n      dup10\n        /* \"#utility.yul\":5342:5420   */\n      tag_129\n      jump\t// in\n    tag_150:\n        /* \"#utility.yul\":5334:5420   */\n      swap1\n      pop\n        /* \"#utility.yul\":5430:5502   */\n      tag_151\n        /* \"#utility.yul\":5498:5500   */\n      0x20\n        /* \"#utility.yul\":5487:5496   */\n      dup4\n        /* \"#utility.yul\":5483:5501   */\n      add\n        /* \"#utility.yul\":5474:5480   */\n      dup9\n        /* \"#utility.yul\":5430:5502   */\n      tag_139\n      jump\t// in\n    tag_151:\n        /* \"#utility.yul\":5549:5558   */\n      dup2\n        /* \"#utility.yul\":5543:5547   */\n      dup2\n        /* \"#utility.yul\":5539:5559   */\n      sub\n        /* \"#utility.yul\":5534:5536   */\n      0x40\n        /* \"#utility.yul\":5523:5532   */\n      dup4\n        /* \"#utility.yul\":5519:5537   */\n      add\n        /* \"#utility.yul\":5512:5560   */\n      mstore\n        /* \"#utility.yul\":5577:5655   */\n      tag_152\n        /* \"#utility.yul\":5650:5654   */\n      dup2\n        /* \"#utility.yul\":5641:5647   */\n      dup8\n        /* \"#utility.yul\":5577:5655   */\n      tag_129\n      jump\t// in\n    tag_152:\n        /* \"#utility.yul\":5569:5655   */\n      swap1\n      pop\n        /* \"#utility.yul\":5665:5737   */\n      tag_153\n        /* \"#utility.yul\":5733:5735   */\n      0x60\n        /* \"#utility.yul\":5722:5731   */\n      dup4\n        /* \"#utility.yul\":5718:5736   */\n      add\n        /* \"#utility.yul\":5709:5715   */\n      dup7\n        /* \"#utility.yul\":5665:5737   */\n      tag_139\n      jump\t// in\n    tag_153:\n        /* \"#utility.yul\":5785:5794   */\n      dup2\n        /* \"#utility.yul\":5779:5783   */\n      dup2\n        /* \"#utility.yul\":5775:5795   */\n      sub\n        /* \"#utility.yul\":5769:5772   */\n      0x80\n        /* \"#utility.yul\":5758:5767   */\n      dup4\n        /* \"#utility.yul\":5754:5773   */\n      add\n        /* \"#utility.yul\":5747:5796   */\n      mstore\n        /* \"#utility.yul\":5813:5891   */\n      tag_154\n        /* \"#utility.yul\":5886:5890   */\n      dup2\n        /* \"#utility.yul\":5877:5883   */\n      dup6\n        /* \"#utility.yul\":5813:5891   */\n      tag_129\n      jump\t// in\n    tag_154:\n        /* \"#utility.yul\":5805:5891   */\n      swap1\n      pop\n        /* \"#utility.yul\":5901:5974   */\n      tag_155\n        /* \"#utility.yul\":5969:5972   */\n      0xa0\n        /* \"#utility.yul\":5958:5967   */\n      dup4\n        /* \"#utility.yul\":5954:5973   */\n      add\n        /* \"#utility.yul\":5945:5951   */\n      dup5\n        /* \"#utility.yul\":5901:5974   */\n      tag_139\n      jump\t// in\n    tag_155:\n        /* \"#utility.yul\":4933:5981   */\n      swap8\n      swap7\n      pop\n      pop\n      pop\n      pop\n      pop\n      pop\n      pop\n      jump\t// out\n        /* \"#utility.yul\":5987:6209   */\n    tag_18:\n        /* \"#utility.yul\":6080:6084   */\n      0x00\n        /* \"#utility.yul\":6118:6120   */\n      0x20\n        /* \"#utility.yul\":6107:6116   */\n      dup3\n        /* \"#utility.yul\":6103:6121   */\n      add\n        /* \"#utility.yul\":6095:6121   */\n      swap1\n      pop\n        /* \"#utility.yul\":6131:6202   */\n      tag_157\n        /* \"#utility.yul\":6199:6200   */\n      0x00\n        /* \"#utility.yul\":6188:6197   */\n      dup4\n        /* \"#utility.yul\":6184:6201   */\n      add\n        /* \"#utility.yul\":6175:6181   */\n      dup5\n        /* \"#utility.yul\":6131:6202   */\n      tag_139\n      jump\t// in\n    tag_157:\n        /* \"#utility.yul\":5987:6209   */\n      swap3\n      swap2\n      pop\n      pop\n      jump\t// out\n        /* \"#utility.yul\":6215:6344   */\n    tag_78:\n        /* \"#utility.yul\":6249:6255   */\n      0x00\n        /* \"#utility.yul\":6276:6296   */\n      tag_159\n      tag_160\n      jump\t// in\n    tag_159:\n        /* \"#utility.yul\":6266:6296   */\n      swap1\n      pop\n        /* \"#utility.yul\":6305:6338   */\n      tag_161\n        /* \"#utility.yul\":6333:6337   */\n      dup3\n        /* \"#utility.yul\":6325:6331   */\n      dup3\n        /* \"#utility.yul\":6305:6338   */\n      tag_162\n      jump\t// in\n    tag_161:\n        /* \"#utility.yul\":6215:6344   */\n      swap2\n      swap1\n      pop\n      jump\t// out\n        /* \"#utility.yul\":6350:6425   */\n    tag_160:\n        /* \"#utility.yul\":6383:6389   */\n      0x00\n        /* \"#utility.yul\":6416:6418   */\n      0x40\n        /* \"#utility.yul\":6410:6419   */\n      mload\n        /* \"#utility.yul\":6400:6419   */\n      swap1\n      pop\n        /* \"#utility.yul\":6350:6425   */\n      swap1\n      jump\t// out\n        /* \"#utility.yul\":6431:6739   */\n    tag_77:\n        /* \"#utility.yul\":6493:6497   */\n      0x00\n        /* \"#utility.yul\":6583:6601   */\n      0xffffffffffffffff\n        /* \"#utility.yul\":6575:6581   */\n      dup3\n        /* \"#utility.yul\":6572:6602   */\n      gt\n        /* \"#utility.yul\":6569:6625   */\n      iszero\n      tag_165\n      jumpi\n        /* \"#utility.yul\":6605:6623   */\n      tag_166\n      tag_167\n      jump\t// in\n    tag_166:\n        /* \"#utility.yul\":6569:6625   */\n    tag_165:\n        /* \"#utility.yul\":6643:6672   */\n      tag_168\n        /* \"#utility.yul\":6665:6671   */\n      dup3\n        /* \"#utility.yul\":6643:6672   */\n      tag_138\n      jump\t// in\n    tag_168:\n        /* \"#utility.yul\":6635:6672   */\n      swap1\n      pop\n        /* \"#utility.yul\":6727:6731   */\n      0x20\n        /* \"#utility.yul\":6721:6725   */\n      dup2\n        /* \"#utility.yul\":6717:6732   */\n      add\n        /* \"#utility.yul\":6709:6732   */\n      swap1\n      pop\n        /* \"#utility.yul\":6431:6739   */\n      swap2\n      swap1\n      pop\n      jump\t// out\n        /* \"#utility.yul\":6745:6844   */\n    tag_132:\n        /* \"#utility.yul\":6797:6803   */\n      0x00\n        /* \"#utility.yul\":6831:6836   */\n      dup2\n        /* \"#utility.yul\":6825:6837   */\n      mload\n        /* \"#utility.yul\":6815:6837   */\n      swap1\n      pop\n        /* \"#utility.yul\":6745:6844   */\n      swap2\n      swap1\n      pop\n      jump\t// out\n        /* \"#utility.yul\":6850:7019   */\n    tag_134:\n        /* \"#utility.yul\":6934:6945   */\n      0x00\n        /* \"#utility.yul\":6968:6974   */\n      dup3\n        /* \"#utility.yul\":6963:6966   */\n      dup3\n        /* \"#utility.yul\":6956:6975   */\n      mstore\n        /* \"#utility.yul\":7008:7012   */\n      0x20\n        /* \"#utility.yul\":7003:7006   */\n      dup3\n        /* \"#utility.yul\":6999:7013   */\n      add\n        /* \"#utility.yul\":6984:7013   */\n      swap1\n      pop\n        /* \"#utility.yul\":6850:7019   */\n      swap3\n      swap2\n      pop\n      pop\n      jump\t// out\n        /* \"#utility.yul\":7025:7330   */\n    tag_59:\n        /* \"#utility.yul\":7065:7068   */\n      0x00\n        /* \"#utility.yul\":7084:7104   */\n      tag_172\n        /* \"#utility.yul\":7102:7103   */\n      dup3\n        /* \"#utility.yul\":7084:7104   */\n      tag_142\n      jump\t// in\n    tag_172:\n        /* \"#utility.yul\":7079:7104   */\n      swap2\n      pop\n        /* \"#utility.yul\":7118:7138   */\n      tag_173\n        /* \"#utility.yul\":7136:7137   */\n      dup4\n        /* \"#utility.yul\":7118:7138   */\n      tag_142\n      jump\t// in\n    tag_173:\n        /* \"#utility.yul\":7113:7138   */\n      swap3\n      pop\n        /* \"#utility.yul\":7272:7273   */\n      dup3\n        /* \"#utility.yul\":7204:7270   */\n      0xffffffffffffffffffffffffffffffffffffffffffffffffffffffffffffffff\n        /* \"#utility.yul\":7200:7274   */\n      sub\n        /* \"#utility.yul\":7197:7198   */\n      dup3\n        /* \"#utility.yul\":7194:7275   */\n      gt\n        /* \"#utility.yul\":7191:7298   */\n      iszero\n      tag_174\n      jumpi\n        /* \"#utility.yul\":7278:7296   */\n      tag_175\n      tag_176\n      jump\t// in\n    tag_175:\n        /* \"#utility.yul\":7191:7298   */\n    tag_174:\n        /* \"#utility.yul\":7322:7323   */\n      dup3\n        /* \"#utility.yul\":7319:7320   */\n      dup3\n        /* \"#utility.yul\":7315:7324   */\n      add\n        /* \"#utility.yul\":7308:7324   */\n      swap1\n      pop\n        /* \"#utility.yul\":7025:7330   */\n      swap3\n      swap2\n      pop\n      pop\n      jump\t// out\n        /* \"#utility.yul\":7336:7527   */\n    tag_57:\n        /* \"#utility.yul\":7376:7380   */\n      0x00\n        /* \"#utility.yul\":7396:7416   */\n      tag_178\n        /* \"#utility.yul\":7414:7415   */\n      dup3\n        /* \"#utility.yul\":7396:7416   */\n      tag_142\n      jump\t// in\n    tag_178:\n        /* \"#utility.yul\":7391:7416   */\n      swap2\n      pop\n        /* \"#utility.yul\":7430:7450   */\n      tag_179\n        /* \"#utility.yul\":7448:7449   */\n      dup4\n        /* \"#utility.yul\":7430:7450   */\n      tag_142\n      jump\t// in\n    tag_179:\n        /* \"#utility.yul\":7425:7450   */\n      swap3\n      pop\n        /* \"#utility.yul\":7469:7470   */\n      dup3\n        /* \"#utility.yul\":7466:7467   */\n      dup3\n        /* \"#utility.yul\":7463:7471   */\n      lt\n        /* \"#utility.yul\":7460:7494   */\n      iszero\n      tag_180\n      jumpi\n        /* \"#utility.yul\":7474:7492   */\n      tag_181\n      tag_176\n      jump\t// in\n    tag_181:\n        /* \"#utility.yul\":7460:7494   */\n    tag_180:\n        /* \"#utility.yul\":7519:7520   */\n      dup3\n        /* \"#utility.yul\":7516:7517   */\n      dup3\n        /* \"#utility.yul\":7512:7521   */\n      sub\n        /* \"#utility.yul\":7504:7521   */\n      swap1\n      pop\n        /* \"#utility.yul\":7336:7527   */\n      swap3\n      swap2\n      pop\n      pop\n      jump\t// out\n        /* \"#utility.yul\":7533:7629   */\n    tag_128:\n        /* \"#utility.yul\":7570:7577   */\n      0x00\n        /* \"#utility.yul\":7599:7623   */\n      tag_183\n        /* \"#utility.yul\":7617:7622   */\n      dup3\n        /* \"#utility.yul\":7599:7623   */\n      tag_184\n      jump\t// in\n    tag_183:\n        /* \"#utility.yul\":7588:7623   */\n      swap1\n      pop\n        /* \"#utility.yul\":7533:7629   */\n      swap2\n      swap1\n      pop\n      jump\t// out\n        /* \"#utility.yul\":7635:7761   */\n    tag_184:\n        /* \"#utility.yul\":7672:7679   */\n      0x00\n        /* \"#utility.yul\":7712:7754   */\n      0xffffffffffffffffffffffffffffffffffffffff\n        /* \"#utility.yul\":7705:7710   */\n      dup3\n        /* \"#utility.yul\":7701:7755   */\n      and\n        /* \"#utility.yul\":7690:7755   */\n      swap1\n      pop\n        /* \"#utility.yul\":7635:7761   */\n      swap2\n      swap1\n      pop\n      jump\t// out\n        /* \"#utility.yul\":7767:7844   */\n    tag_142:\n        /* \"#utility.yul\":7804:7811   */\n      0x00\n        /* \"#utility.yul\":7833:7838   */\n      dup2\n        /* \"#utility.yul\":7822:7838   */\n      swap1\n      pop\n        /* \"#utility.yul\":7767:7844   */\n      swap2\n      swap1\n      pop\n      jump\t// out\n        /* \"#utility.yul\":7850:8004   */\n    tag_83:\n        /* \"#utility.yul\":7934:7940   */\n      dup3\n        /* \"#utility.yul\":7929:7932   */\n      dup2\n        /* \"#utility.yul\":7924:7927   */\n      dup4\n        /* \"#utility.yul\":7911:7941   */\n      calldatacopy\n        /* \"#utility.yul\":7996:7997   */\n      0x00\n        /* \"#utility.yul\":7987:7993   */\n      dup4\n        /* \"#utility.yul\":7982:7985   */\n      dup4\n        /* \"#utility.yul\":7978:7994   */\n      add\n        /* \"#utility.yul\":7971:7998   */\n      mstore\n        /* \"#utility.yul\":7850:8004   */\n      pop\n      pop\n      pop\n      jump\t// out\n        /* \"#utility.yul\":8010:8317   */\n    tag_136:\n        /* \"#utility.yul\":8078:8079   */\n      0x00\n        /* \"#utility.yul\":8088:8201   */\n    tag_189:\n        /* \"#utility.yul\":8102:8108   */\n      dup4\n        /* \"#utility.yul\":8099:8100   */\n      dup2\n        /* \"#utility.yul\":8096:8109   */\n      lt\n        /* \"#utility.yul\":8088:8201   */\n      iszero\n      tag_191\n      jumpi\n        /* \"#utility.yul\":8187:8188   */\n      dup1\n        /* \"#utility.yul\":8182:8185   */\n      dup3\n        /* \"#utility.yul\":8178:8189   */\n      add\n        /* \"#utility.yul\":8172:8190   */\n      mload\n        /* \"#utility.yul\":8168:8169   */\n      dup2\n        /* \"#utility.yul\":8163:8166   */\n      dup5\n        /* \"#utility.yul\":8159:8170   */\n      add\n        /* \"#utility.yul\":8152:8191   */\n      mstore\n        /* \"#utility.yul\":8124:8126   */\n      0x20\n        /* \"#utility.yul\":8121:8122   */\n      dup2\n        /* \"#utility.yul\":8117:8127   */\n      add\n        /* \"#utility.yul\":8112:8127   */\n      swap1\n      pop\n        /* \"#utility.yul\":8088:8201   */\n      jump(tag_189)\n    tag_191:\n        /* \"#utility.yul\":8219:8225   */\n      dup4\n        /* \"#utility.yul\":8216:8217   */\n      dup2\n        /* \"#utility.yul\":8213:8226   */\n      gt\n        /* \"#utility.yul\":8210:8311   */\n      iszero\n      tag_192\n      jumpi\n        /* \"#utility.yul\":8299:8300   */\n      0x00\n        /* \"#utility.yul\":8290:8296   */\n      dup5\n        /* \"#utility.yul\":8285:8288   */\n      dup5\n        /* \"#utility.yul\":8281:8297   */\n      add\n        /* \"#utility.yul\":8274:8301   */\n      mstore\n        /* \"#utility.yul\":8210:8311   */\n    tag_192:\n        /* \"#utility.yul\":8059:8317   */\n      pop\n        /* \"#utility.yul\":8010:8317   */\n      pop\n      pop\n      pop\n      jump\t// out\n        /* \"#utility.yul\":8323:8643   */\n    tag_34:\n        /* \"#utility.yul\":8367:8373   */\n      0x00\n        /* \"#utility.yul\":8404:8405   */\n      0x02\n        /* \"#utility.yul\":8398:8402   */\n      dup3\n        /* \"#utility.yul\":8394:8406   */\n      div\n        /* \"#utility.yul\":8384:8406   */\n      swap1\n      pop\n        /* \"#utility.yul\":8451:8452   */\n      0x01\n        /* \"#utility.yul\":8445:8449   */\n      dup3\n        /* \"#utility.yul\":8441:8453   */\n      and\n        /* \"#utility.yul\":8472:8490   */\n      dup1\n        /* \"#utility.yul\":8462:8543   */\n      tag_194\n      jumpi\n        /* \"#utility.yul\":8528:8532   */\n      0x7f\n        /* \"#utility.yul\":8520:8526   */\n      dup3\n        /* \"#utility.yul\":8516:8533   */\n      and\n        /* \"#utility.yul\":8506:8533   */\n      swap2\n      pop\n        /* \"#utility.yul\":8462:8543   */\n    tag_194:\n        /* \"#utility.yul\":8590:8592   */\n      0x20\n        /* \"#utility.yul\":8582:8588   */\n      dup3\n        /* \"#utility.yul\":8579:8593   */\n      lt\n        /* \"#utility.yul\":8559:8577   */\n      dup2\n        /* \"#utility.yul\":8556:8594   */\n      eq\n        /* \"#utility.yul\":8553:8637   */\n      iszero\n      tag_195\n      jumpi\n        /* \"#utility.yul\":8609:8627   */\n      tag_196\n      tag_197\n      jump\t// in\n    tag_196:\n        /* \"#utility.yul\":8553:8637   */\n    tag_195:\n        /* \"#utility.yul\":8374:8643   */\n      pop\n        /* \"#utility.yul\":8323:8643   */\n      swap2\n      swap1\n      pop\n      jump\t// out\n        /* \"#utility.yul\":8649:8930   */\n    tag_162:\n        /* \"#utility.yul\":8732:8759   */\n      tag_199\n        /* \"#utility.yul\":8754:8758   */\n      dup3\n        /* \"#utility.yul\":8732:8759   */\n      tag_138\n      jump\t// in\n    tag_199:\n        /* \"#utility.yul\":8724:8730   */\n      dup2\n        /* \"#utility.yul\":8720:8760   */\n      add\n        /* \"#utility.yul\":8862:8868   */\n      dup2\n        /* \"#utility.yul\":8850:8860   */\n      dup2\n        /* \"#utility.yul\":8847:8869   */\n      lt\n        /* \"#utility.yul\":8826:8844   */\n      0xffffffffffffffff\n        /* \"#utility.yul\":8814:8824   */\n      dup3\n        /* \"#utility.yul\":8811:8845   */\n      gt\n        /* \"#utility.yul\":8808:8870   */\n      or\n        /* \"#utility.yul\":8805:8893   */\n      iszero\n      tag_200\n      jumpi\n        /* \"#utility.yul\":8873:8891   */\n      tag_201\n      tag_167\n      jump\t// in\n    tag_201:\n        /* \"#utility.yul\":8805:8893   */\n    tag_200:\n        /* \"#utility.yul\":8913:8923   */\n      dup1\n        /* \"#utility.yul\":8909:8911   */\n      0x40\n        /* \"#utility.yul\":8902:8924   */\n      mstore\n        /* \"#utility.yul\":8692:8930   */\n      pop\n        /* \"#utility.yul\":8649:8930   */\n      pop\n      pop\n      jump\t// out\n        /* \"#utility.yul\":8936:9116   */\n    tag_176:\n        /* \"#utility.yul\":8984:9061   */\n      0x4e487b7100000000000000000000000000000000000000000000000000000000\n        /* \"#utility.yul\":8981:8982   */\n      0x00\n        /* \"#utility.yul\":8974:9062   */\n      mstore\n        /* \"#utility.yul\":9081:9085   */\n      0x11\n        /* \"#utility.yul\":9078:9079   */\n      0x04\n        /* \"#utility.yul\":9071:9086   */\n      mstore\n        /* \"#utility.yul\":9105:9109   */\n      0x24\n        /* \"#utility.yul\":9102:9103   */\n      0x00\n        /* \"#utility.yul\":9095:9110   */\n      revert\n        /* \"#utility.yul\":9122:9302   */\n    tag_197:\n        /* \"#utility.yul\":9170:9247   */\n      0x4e487b7100000000000000000000000000000000000000000000000000000000\n        /* \"#utility.yul\":9167:9168   */\n      0x00\n        /* \"#utility.yul\":9160:9248   */\n      mstore\n        /* \"#utility.yul\":9267:9271   */\n      0x22\n        /* \"#utility.yul\":9264:9265   */\n      0x04\n        /* \"#utility.yul\":9257:9272   */\n      mstore\n        /* \"#utility.yul\":9291:9295   */\n      0x24\n        /* \"#utility.yul\":9288:9289   */\n      0x00\n        /* \"#utility.yul\":9281:9296   */\n      revert\n        /* \"#utility.yul\":9308:9488   */\n    tag_167:\n        /* \"#utility.yul\":9356:9433   */\n      0x4e487b7100000000000000000000000000000000000000000000000000000000\n        /* \"#utility.yul\":9353:9354   */\n      0x00\n        /* \"#utility.yul\":9346:9434   */\n      mstore\n        /* \"#utility.yul\":9453:9457   */\n      0x41\n        /* \"#utility.yul\":9450:9451   */\n      0x04\n        /* \"#utility.yul\":9443:9458   */\n      mstore\n        /* \"#utility.yul\":9477:9481   */\n      0x24\n        /* \"#utility.yul\":9474:9475   */\n      0x00\n        /* \"#utility.yul\":9467:9482   */\n      revert\n        /* \"#utility.yul\":9494:9611   */\n    tag_92:\n        /* \"#utility.yul\":9603:9604   */\n      0x00\n        /* \"#utility.yul\":9600:9601   */\n      dup1\n        /* \"#utility.yul\":9593:9605   */\n      revert\n        /* \"#utility.yul\":9617:9734   */\n    tag_81:\n        /* \"#utility.yul\":9726:9727   */\n      0x00\n        /* \"#utility.yul\":9723:9724   */\n      dup1\n        /* \"#utility.yul\":9716:9728   */\n      revert\n        /* \"#utility.yul\":9740:9857   */\n    tag_109:\n        /* \"#utility.yul\":9849:9850   */\n      0x00\n        /* \"#utility.yul\":9846:9847   */\n      dup1\n        /* \"#utility.yul\":9839:9851   */\n      revert\n        /* \"#utility.yul\":9863:9980   */\n    tag_101:\n        /* \"#utility.yul\":9972:9973   */\n      0x00\n        /* \"#utility.yul\":9969:9970   */\n      dup1\n        /* \"#utility.yul\":9962:9974   */\n      revert\n        /* \"#utility.yul\":9986:10088   */\n    tag_138:\n        /* \"#utility.yul\":10027:10033   */\n      0x00\n        /* \"#utility.yul\":10078:10080   */\n      0x1f\n        /* \"#utility.yul\":10074:10081   */\n      not\n        /* \"#utility.yul\":10069:10071   */\n      0x1f\n        /* \"#utility.yul\":10062:10067   */\n      dup4\n        /* \"#utility.yul\":10058:10072   */\n      add\n        /* \"#utility.yul\":10054:10082   */\n      and\n        /* \"#utility.yul\":10044:10082   */\n      swap1\n      pop\n        /* \"#utility.yul\":9986:10088   */\n      swap2\n      swap1\n      pop\n      jump\t// out\n        /* \"#utility.yul\":10094:10216   */\n    tag_87:\n        /* \"#utility.yul\":10167:10191   */\n      tag_211\n        /* \"#utility.yul\":10185:10190   */\n      dup2\n        /* \"#utility.yul\":10167:10191   */\n      tag_128\n      jump\t// in\n    tag_211:\n        /* \"#utility.yul\":10160:10165   */\n      dup2\n        /* \"#utility.yul\":10157:10192   */\n      eq\n        /* \"#utility.yul\":10147:10210   */\n      tag_212\n      jumpi\n        /* \"#utility.yul\":10206:10207   */\n      0x00\n        /* \"#utility.yul\":10203:10204   */\n      dup1\n        /* \"#utility.yul\":10196:10208   */\n      revert\n        /* \"#utility.yul\":10147:10210   */\n    tag_212:\n        /* \"#utility.yul\":10094:10216   */\n      pop\n      jump\t// out\n        /* \"#utility.yul\":10222:10344   */\n    tag_97:\n        /* \"#utility.yul\":10295:10319   */\n      tag_214\n        /* \"#utility.yul\":10313:10318   */\n      dup2\n        /* \"#utility.yul\":10295:10319   */\n      tag_142\n      jump\t// in\n    tag_214:\n        /* \"#utility.yul\":10288:10293   */\n      dup2\n        /* \"#utility.yul\":10285:10320   */\n      eq\n        /* \"#utility.yul\":10275:10338   */\n      tag_215\n      jumpi\n        /* \"#utility.yul\":10334:10335   */\n      0x00\n        /* \"#utility.yul\":10331:10332   */\n      dup1\n        /* \"#utility.yul\":10324:10336   */\n      revert\n        /* \"#utility.yul\":10275:10338   */\n    tag_215:\n        /* \"#utility.yul\":10222:10344   */\n      pop\n      jump\t// out\n\n    auxdata: 0xa264697066735822122029193783658453fb12635bd6a0147add4ef4313df4f5e3a1a8787f1619d1754b64736f6c63430008070033\n}\n",
				"bytecode": {
					"linkReferences": {},
					"object": "608060405260405180602001604052806000815250600290805190602001906200002b92919062000045565b5060006003553480156200003e57600080fd5b506200015a565b8280546200005390620000f5565b90600052602060002090601f016020900481019282620000775760008555620000c3565b82601f106200009257805160ff1916838001178555620000c3565b82800160010185558215620000c3579182015b82811115620000c2578251825591602001919060010190620000a5565b5b509050620000d29190620000d6565b5090565b5b80821115620000f1576000816000905550600101620000d7565b5090565b600060028204905060018216806200010e57607f821691505b602082108114156200012557620001246200012b565b5b50919050565b7f4e487b7100000000000000000000000000000000000000000000000000000000600052602260045260246000fd5b610d32806200016a6000396000f3fe60806040526004361061004a5760003560e01c8063075461721461004f57806327e235e31461007a5780638b9c657a146100b757806390e1f79d146100f9578063d0679d3414610115575b600080fd5b34801561005b57600080fd5b50610064610131565b604051610071919061095c565b60405180910390f35b34801561008657600080fd5b506100a1600480360381019061009c91906107a2565b610155565b6040516100ae9190610a24565b60405180910390f35b3480156100c357600080fd5b506100de60048036038101906100d991906107a2565b61016d565b6040516100f0969594939291906109ae565b60405180910390f35b610113600480360381019061010e91906107cf565b610341565b005b61012f600480360381019061012a91906108c5565b610524565b005b60008054906101000a900473ffffffffffffffffffffffffffffffffffffffff1681565b60016020528060005260406000206000915090505481565b600560205280600052604060002060009150905080600001805461019090610bb9565b80601f01602080910402602001604051908101604052809291908181526020018280546101bc90610bb9565b80156102095780601f106101de57610100808354040283529160200191610209565b820191906000526020600020905b8154815290600101906020018083116101ec57829003601f168201915b50505050509080600101549080600201805461022490610bb9565b80601f016020809104026020016040519081016040528092919081815260200182805461025090610bb9565b801561029d5780601f106102725761010080835404028352916020019161029d565b820191906000526020600020905b81548152906001019060200180831161028057829003601f168201915b5050505050908060030154908060040180546102b890610bb9565b80601f01602080910402602001604051908101604052809291908181526020018280546102e490610bb9565b80156103315780601f1061030657610100808354040283529160200191610331565b820191906000526020600020905b81548152906001019060200180831161031457829003601f168201915b5050505050908060050154905086565b85600560008973ffffffffffffffffffffffffffffffffffffffff1673ffffffffffffffffffffffffffffffffffffffff1681526020019081526020016000206000019080519060200190610397929190610665565b5084600560008973ffffffffffffffffffffffffffffffffffffffff1673ffffffffffffffffffffffffffffffffffffffff1681526020019081526020016000206001018190555083600560008973ffffffffffffffffffffffffffffffffffffffff1673ffffffffffffffffffffffffffffffffffffffff1681526020019081526020016000206002019080519060200190610435929190610665565b5082600560008973ffffffffffffffffffffffffffffffffffffffff1673ffffffffffffffffffffffffffffffffffffffff1681526020019081526020016000206003018190555081600560008973ffffffffffffffffffffffffffffffffffffffff1673ffffffffffffffffffffffffffffffffffffffff16815260200190815260200160002060040190805190602001906104d3929190610665565b5080600560008973ffffffffffffffffffffffffffffffffffffffff1673ffffffffffffffffffffffffffffffffffffffff1681526020019081526020016000206005018190555050505050505050565b80600560003373ffffffffffffffffffffffffffffffffffffffff1673ffffffffffffffffffffffffffffffffffffffff16815260200190815260200160002060050154101561057357610661565b80600560003373ffffffffffffffffffffffffffffffffffffffff1673ffffffffffffffffffffffffffffffffffffffff16815260200190815260200160002060050160008282546105c59190610b07565b9250508190555080600560008473ffffffffffffffffffffffffffffffffffffffff1673ffffffffffffffffffffffffffffffffffffffff168152602001908152602001600020600501600082825461061e9190610ab1565b925050819055507f3990db2d31862302a685e8086b5755072a6e2b5b780af1ee81ece35ee3cd334533838360405161065893929190610977565b60405180910390a15b5050565b82805461067190610bb9565b90600052602060002090601f01602090048101928261069357600085556106da565b82601f106106ac57805160ff19168380011785556106da565b828001600101855582156106da579182015b828111156106d95782518255916020019190600101906106be565b5b5090506106e791906106eb565b5090565b5b808211156107045760008160009055506001016106ec565b5090565b600061071b61071684610a64565b610a3f565b90508281526020810184848401111561073757610736610cae565b5b610742848285610b77565b509392505050565b60008135905061075981610cce565b92915050565b600082601f83011261077457610773610ca9565b5b8135610784848260208601610708565b91505092915050565b60008135905061079c81610ce5565b92915050565b6000602082840312156107b8576107b7610cb8565b5b60006107c68482850161074a565b91505092915050565b600080600080600080600060e0888a0312156107ee576107ed610cb8565b5b60006107fc8a828b0161074a565b975050602088013567ffffffffffffffff81111561081d5761081c610cb3565b5b6108298a828b0161075f565b965050604061083a8a828b0161078d565b955050606088013567ffffffffffffffff81111561085b5761085a610cb3565b5b6108678a828b0161075f565b94505060806108788a828b0161078d565b93505060a088013567ffffffffffffffff81111561089957610898610cb3565b5b6108a58a828b0161075f565b92505060c06108b68a828b0161078d565b91505092959891949750929550565b600080604083850312156108dc576108db610cb8565b5b60006108ea8582860161074a565b92505060206108fb8582860161078d565b9150509250929050565b61090e81610b3b565b82525050565b600061091f82610a95565b6109298185610aa0565b9350610939818560208601610b86565b61094281610cbd565b840191505092915050565b61095681610b6d565b82525050565b60006020820190506109716000830184610905565b92915050565b600060608201905061098c6000830186610905565b6109996020830185610905565b6109a6604083018461094d565b949350505050565b600060c08201905081810360008301526109c88189610914565b90506109d7602083018861094d565b81810360408301526109e98187610914565b90506109f8606083018661094d565b8181036080830152610a0a8185610914565b9050610a1960a083018461094d565b979650505050505050565b6000602082019050610a39600083018461094d565b92915050565b6000610a49610a5a565b9050610a558282610beb565b919050565b6000604051905090565b600067ffffffffffffffff821115610a7f57610a7e610c7a565b5b610a8882610cbd565b9050602081019050919050565b600081519050919050565b600082825260208201905092915050565b6000610abc82610b6d565b9150610ac783610b6d565b9250827fffffffffffffffffffffffffffffffffffffffffffffffffffffffffffffffff03821115610afc57610afb610c1c565b5b828201905092915050565b6000610b1282610b6d565b9150610b1d83610b6d565b925082821015610b3057610b2f610c1c565b5b828203905092915050565b6000610b4682610b4d565b9050919050565b600073ffffffffffffffffffffffffffffffffffffffff82169050919050565b6000819050919050565b82818337600083830152505050565b60005b83811015610ba4578082015181840152602081019050610b89565b83811115610bb3576000848401525b50505050565b60006002820490506001821680610bd157607f821691505b60208210811415610be557610be4610c4b565b5b50919050565b610bf482610cbd565b810181811067ffffffffffffffff82111715610c1357610c12610c7a565b5b80604052505050565b7f4e487b7100000000000000000000000000000000000000000000000000000000600052601160045260246000fd5b7f4e487b7100000000000000000000000000000000000000000000000000000000600052602260045260246000fd5b7f4e487b7100000000000000000000000000000000000000000000000000000000600052604160045260246000fd5b600080fd5b600080fd5b600080fd5b600080fd5b6000601f19601f8301169050919050565b610cd781610b3b565b8114610ce257600080fd5b50565b610cee81610b6d565b8114610cf957600080fd5b5056fea264697066735822122029193783658453fb12635bd6a0147add4ef4313df4f5e3a1a8787f1619d1754b64736f6c63430008070033",
					"opcodes": "PUSH1 0x80 PUSH1 0x40 MSTORE PUSH1 0x40 MLOAD DUP1 PUSH1 0x20 ADD PUSH1 0x40 MSTORE DUP1 PUSH1 0x0 DUP2 MSTORE POP PUSH1 0x2 SWAP1 DUP1 MLOAD SWAP1 PUSH1 0x20 ADD SWAP1 PUSH3 0x2B SWAP3 SWAP2 SWAP1 PUSH3 0x45 JUMP JUMPDEST POP PUSH1 0x0 PUSH1 0x3 SSTORE CALLVALUE DUP1 ISZERO PUSH3 0x3E JUMPI PUSH1 0x0 DUP1 REVERT JUMPDEST POP PUSH3 0x15A JUMP JUMPDEST DUP3 DUP1 SLOAD PUSH3 0x53 SWAP1 PUSH3 0xF5 JUMP JUMPDEST SWAP1 PUSH1 0x0 MSTORE PUSH1 0x20 PUSH1 0x0 KECCAK256 SWAP1 PUSH1 0x1F ADD PUSH1 0x20 SWAP1 DIV DUP2 ADD SWAP3 DUP3 PUSH3 0x77 JUMPI PUSH1 0x0 DUP6 SSTORE PUSH3 0xC3 JUMP JUMPDEST DUP3 PUSH1 0x1F LT PUSH3 0x92 JUMPI DUP1 MLOAD PUSH1 0xFF NOT AND DUP4 DUP1 ADD OR DUP6 SSTORE PUSH3 0xC3 JUMP JUMPDEST DUP3 DUP1 ADD PUSH1 0x1 ADD DUP6 SSTORE DUP3 ISZERO PUSH3 0xC3 JUMPI SWAP2 DUP3 ADD JUMPDEST DUP3 DUP2 GT ISZERO PUSH3 0xC2 JUMPI DUP3 MLOAD DUP3 SSTORE SWAP2 PUSH1 0x20 ADD SWAP2 SWAP1 PUSH1 0x1 ADD SWAP1 PUSH3 0xA5 JUMP JUMPDEST JUMPDEST POP SWAP1 POP PUSH3 0xD2 SWAP2 SWAP1 PUSH3 0xD6 JUMP JUMPDEST POP SWAP1 JUMP JUMPDEST JUMPDEST DUP1 DUP3 GT ISZERO PUSH3 0xF1 JUMPI PUSH1 0x0 DUP2 PUSH1 0x0 SWAP1 SSTORE POP PUSH1 0x1 ADD PUSH3 0xD7 JUMP JUMPDEST POP SWAP1 JUMP JUMPDEST PUSH1 0x0 PUSH1 0x2 DUP3 DIV SWAP1 POP PUSH1 0x1 DUP3 AND DUP1 PUSH3 0x10E JUMPI PUSH1 0x7F DUP3 AND SWAP2 POP JUMPDEST PUSH1 0x20 DUP3 LT DUP2 EQ ISZERO PUSH3 0x125 JUMPI PUSH3 0x124 PUSH3 0x12B JUMP JUMPDEST JUMPDEST POP SWAP2 SWAP1 POP JUMP JUMPDEST PUSH32 0x4E487B7100000000000000000000000000000000000000000000000000000000 PUSH1 0x0 MSTORE PUSH1 0x22 PUSH1 0x4 MSTORE PUSH1 0x24 PUSH1 0x0 REVERT JUMPDEST PUSH2 0xD32 DUP1 PUSH3 0x16A PUSH1 0x0 CODECOPY PUSH1 0x0 RETURN INVALID PUSH1 0x80 PUSH1 0x40 MSTORE PUSH1 0x4 CALLDATASIZE LT PUSH2 0x4A JUMPI PUSH1 0x0 CALLDATALOAD PUSH1 0xE0 SHR DUP1 PUSH4 0x7546172 EQ PUSH2 0x4F JUMPI DUP1 PUSH4 0x27E235E3 EQ PUSH2 0x7A JUMPI DUP1 PUSH4 0x8B9C657A EQ PUSH2 0xB7 JUMPI DUP1 PUSH4 0x90E1F79D EQ PUSH2 0xF9 JUMPI DUP1 PUSH4 0xD0679D34 EQ PUSH2 0x115 JUMPI JUMPDEST PUSH1 0x0 DUP1 REVERT JUMPDEST CALLVALUE DUP1 ISZERO PUSH2 0x5B JUMPI PUSH1 0x0 DUP1 REVERT JUMPDEST POP PUSH2 0x64 PUSH2 0x131 JUMP JUMPDEST PUSH1 0x40 MLOAD PUSH2 0x71 SWAP2 SWAP1 PUSH2 0x95C JUMP JUMPDEST PUSH1 0x40 MLOAD DUP1 SWAP2 SUB SWAP1 RETURN JUMPDEST CALLVALUE DUP1 ISZERO PUSH2 0x86 JUMPI PUSH1 0x0 DUP1 REVERT JUMPDEST POP PUSH2 0xA1 PUSH1 0x4 DUP1 CALLDATASIZE SUB DUP2 ADD SWAP1 PUSH2 0x9C SWAP2 SWAP1 PUSH2 0x7A2 JUMP JUMPDEST PUSH2 0x155 JUMP JUMPDEST PUSH1 0x40 MLOAD PUSH2 0xAE SWAP2 SWAP1 PUSH2 0xA24 JUMP JUMPDEST PUSH1 0x40 MLOAD DUP1 SWAP2 SUB SWAP1 RETURN JUMPDEST CALLVALUE DUP1 ISZERO PUSH2 0xC3 JUMPI PUSH1 0x0 DUP1 REVERT JUMPDEST POP PUSH2 0xDE PUSH1 0x4 DUP1 CALLDATASIZE SUB DUP2 ADD SWAP1 PUSH2 0xD9 SWAP2 SWAP1 PUSH2 0x7A2 JUMP JUMPDEST PUSH2 0x16D JUMP JUMPDEST PUSH1 0x40 MLOAD PUSH2 0xF0 SWAP7 SWAP6 SWAP5 SWAP4 SWAP3 SWAP2 SWAP1 PUSH2 0x9AE JUMP JUMPDEST PUSH1 0x40 MLOAD DUP1 SWAP2 SUB SWAP1 RETURN JUMPDEST PUSH2 0x113 PUSH1 0x4 DUP1 CALLDATASIZE SUB DUP2 ADD SWAP1 PUSH2 0x10E SWAP2 SWAP1 PUSH2 0x7CF JUMP JUMPDEST PUSH2 0x341 JUMP JUMPDEST STOP JUMPDEST PUSH2 0x12F PUSH1 0x4 DUP1 CALLDATASIZE SUB DUP2 ADD SWAP1 PUSH2 0x12A SWAP2 SWAP1 PUSH2 0x8C5 JUMP JUMPDEST PUSH2 0x524 JUMP JUMPDEST STOP JUMPDEST PUSH1 0x0 DUP1 SLOAD SWAP1 PUSH2 0x100 EXP SWAP1 DIV PUSH20 0xFFFFFFFFFFFFFFFFFFFFFFFFFFFFFFFFFFFFFFFF AND DUP2 JUMP JUMPDEST PUSH1 0x1 PUSH1 0x20 MSTORE DUP1 PUSH1 0x0 MSTORE PUSH1 0x40 PUSH1 0x0 KECCAK256 PUSH1 0x0 SWAP2 POP SWAP1 POP SLOAD DUP2 JUMP JUMPDEST PUSH1 0x5 PUSH1 0x20 MSTORE DUP1 PUSH1 0x0 MSTORE PUSH1 0x40 PUSH1 0x0 KECCAK256 PUSH1 0x0 SWAP2 POP SWAP1 POP DUP1 PUSH1 0x0 ADD DUP1 SLOAD PUSH2 0x190 SWAP1 PUSH2 0xBB9 JUMP JUMPDEST DUP1 PUSH1 0x1F ADD PUSH1 0x20 DUP1 SWAP2 DIV MUL PUSH1 0x20 ADD PUSH1 0x40 MLOAD SWAP1 DUP2 ADD PUSH1 0x40 MSTORE DUP1 SWAP3 SWAP2 SWAP1 DUP2 DUP2 MSTORE PUSH1 0x20 ADD DUP3 DUP1 SLOAD PUSH2 0x1BC SWAP1 PUSH2 0xBB9 JUMP JUMPDEST DUP1 ISZERO PUSH2 0x209 JUMPI DUP1 PUSH1 0x1F LT PUSH2 0x1DE JUMPI PUSH2 0x100 DUP1 DUP4 SLOAD DIV MUL DUP4 MSTORE SWAP2 PUSH1 0x20 ADD SWAP2 PUSH2 0x209 JUMP JUMPDEST DUP3 ADD SWAP2 SWAP1 PUSH1 0x0 MSTORE PUSH1 0x20 PUSH1 0x0 KECCAK256 SWAP1 JUMPDEST DUP2 SLOAD DUP2 MSTORE SWAP1 PUSH1 0x1 ADD SWAP1 PUSH1 0x20 ADD DUP1 DUP4 GT PUSH2 0x1EC JUMPI DUP3 SWAP1 SUB PUSH1 0x1F AND DUP3 ADD SWAP2 JUMPDEST POP POP POP POP POP SWAP1 DUP1 PUSH1 0x1 ADD SLOAD SWAP1 DUP1 PUSH1 0x2 ADD DUP1 SLOAD PUSH2 0x224 SWAP1 PUSH2 0xBB9 JUMP JUMPDEST DUP1 PUSH1 0x1F ADD PUSH1 0x20 DUP1 SWAP2 DIV MUL PUSH1 0x20 ADD PUSH1 0x40 MLOAD SWAP1 DUP2 ADD PUSH1 0x40 MSTORE DUP1 SWAP3 SWAP2 SWAP1 DUP2 DUP2 MSTORE PUSH1 0x20 ADD DUP3 DUP1 SLOAD PUSH2 0x250 SWAP1 PUSH2 0xBB9 JUMP JUMPDEST DUP1 ISZERO PUSH2 0x29D JUMPI DUP1 PUSH1 0x1F LT PUSH2 0x272 JUMPI PUSH2 0x100 DUP1 DUP4 SLOAD DIV MUL DUP4 MSTORE SWAP2 PUSH1 0x20 ADD SWAP2 PUSH2 0x29D JUMP JUMPDEST DUP3 ADD SWAP2 SWAP1 PUSH1 0x0 MSTORE PUSH1 0x20 PUSH1 0x0 KECCAK256 SWAP1 JUMPDEST DUP2 SLOAD DUP2 MSTORE SWAP1 PUSH1 0x1 ADD SWAP1 PUSH1 0x20 ADD DUP1 DUP4 GT PUSH2 0x280 JUMPI DUP3 SWAP1 SUB PUSH1 0x1F AND DUP3 ADD SWAP2 JUMPDEST POP POP POP POP POP SWAP1 DUP1 PUSH1 0x3 ADD SLOAD SWAP1 DUP1 PUSH1 0x4 ADD DUP1 SLOAD PUSH2 0x2B8 SWAP1 PUSH2 0xBB9 JUMP JUMPDEST DUP1 PUSH1 0x1F ADD PUSH1 0x20 DUP1 SWAP2 DIV MUL PUSH1 0x20 ADD PUSH1 0x40 MLOAD SWAP1 DUP2 ADD PUSH1 0x40 MSTORE DUP1 SWAP3 SWAP2 SWAP1 DUP2 DUP2 MSTORE PUSH1 0x20 ADD DUP3 DUP1 SLOAD PUSH2 0x2E4 SWAP1 PUSH2 0xBB9 JUMP JUMPDEST DUP1 ISZERO PUSH2 0x331 JUMPI DUP1 PUSH1 0x1F LT PUSH2 0x306 JUMPI PUSH2 0x100 DUP1 DUP4 SLOAD DIV MUL DUP4 MSTORE SWAP2 PUSH1 0x20 ADD SWAP2 PUSH2 0x331 JUMP JUMPDEST DUP3 ADD SWAP2 SWAP1 PUSH1 0x0 MSTORE PUSH1 0x20 PUSH1 0x0 KECCAK256 SWAP1 JUMPDEST DUP2 SLOAD DUP2 MSTORE SWAP1 PUSH1 0x1 ADD SWAP1 PUSH1 0x20 ADD DUP1 DUP4 GT PUSH2 0x314 JUMPI DUP3 SWAP1 SUB PUSH1 0x1F AND DUP3 ADD SWAP2 JUMPDEST POP POP POP POP POP SWAP1 DUP1 PUSH1 0x5 ADD SLOAD SWAP1 POP DUP7 JUMP JUMPDEST DUP6 PUSH1 0x5 PUSH1 0x0 DUP10 PUSH20 0xFFFFFFFFFFFFFFFFFFFFFFFFFFFFFFFFFFFFFFFF AND PUSH20 0xFFFFFFFFFFFFFFFFFFFFFFFFFFFFFFFFFFFFFFFF AND DUP2 MSTORE PUSH1 0x20 ADD SWAP1 DUP2 MSTORE PUSH1 0x20 ADD PUSH1 0x0 KECCAK256 PUSH1 0x0 ADD SWAP1 DUP1 MLOAD SWAP1 PUSH1 0x20 ADD SWAP1 PUSH2 0x397 SWAP3 SWAP2 SWAP1 PUSH2 0x665 JUMP JUMPDEST POP DUP5 PUSH1 0x5 PUSH1 0x0 DUP10 PUSH20 0xFFFFFFFFFFFFFFFFFFFFFFFFFFFFFFFFFFFFFFFF AND PUSH20 0xFFFFFFFFFFFFFFFFFFFFFFFFFFFFFFFFFFFFFFFF AND DUP2 MSTORE PUSH1 0x20 ADD SWAP1 DUP2 MSTORE PUSH1 0x20 ADD PUSH1 0x0 KECCAK256 PUSH1 0x1 ADD DUP2 SWAP1 SSTORE POP DUP4 PUSH1 0x5 PUSH1 0x0 DUP10 PUSH20 0xFFFFFFFFFFFFFFFFFFFFFFFFFFFFFFFFFFFFFFFF AND PUSH20 0xFFFFFFFFFFFFFFFFFFFFFFFFFFFFFFFFFFFFFFFF AND DUP2 MSTORE PUSH1 0x20 ADD SWAP1 DUP2 MSTORE PUSH1 0x20 ADD PUSH1 0x0 KECCAK256 PUSH1 0x2 ADD SWAP1 DUP1 MLOAD SWAP1 PUSH1 0x20 ADD SWAP1 PUSH2 0x435 SWAP3 SWAP2 SWAP1 PUSH2 0x665 JUMP JUMPDEST POP DUP3 PUSH1 0x5 PUSH1 0x0 DUP10 PUSH20 0xFFFFFFFFFFFFFFFFFFFFFFFFFFFFFFFFFFFFFFFF AND PUSH20 0xFFFFFFFFFFFFFFFFFFFFFFFFFFFFFFFFFFFFFFFF AND DUP2 MSTORE PUSH1 0x20 ADD SWAP1 DUP2 MSTORE PUSH1 0x20 ADD PUSH1 0x0 KECCAK256 PUSH1 0x3 ADD DUP2 SWAP1 SSTORE POP DUP2 PUSH1 0x5 PUSH1 0x0 DUP10 PUSH20 0xFFFFFFFFFFFFFFFFFFFFFFFFFFFFFFFFFFFFFFFF AND PUSH20 0xFFFFFFFFFFFFFFFFFFFFFFFFFFFFFFFFFFFFFFFF AND DUP2 MSTORE PUSH1 0x20 ADD SWAP1 DUP2 MSTORE PUSH1 0x20 ADD PUSH1 0x0 KECCAK256 PUSH1 0x4 ADD SWAP1 DUP1 MLOAD SWAP1 PUSH1 0x20 ADD SWAP1 PUSH2 0x4D3 SWAP3 SWAP2 SWAP1 PUSH2 0x665 JUMP JUMPDEST POP DUP1 PUSH1 0x5 PUSH1 0x0 DUP10 PUSH20 0xFFFFFFFFFFFFFFFFFFFFFFFFFFFFFFFFFFFFFFFF AND PUSH20 0xFFFFFFFFFFFFFFFFFFFFFFFFFFFFFFFFFFFFFFFF AND DUP2 MSTORE PUSH1 0x20 ADD SWAP1 DUP2 MSTORE PUSH1 0x20 ADD PUSH1 0x0 KECCAK256 PUSH1 0x5 ADD DUP2 SWAP1 SSTORE POP POP POP POP POP POP POP POP JUMP JUMPDEST DUP1 PUSH1 0x5 PUSH1 0x0 CALLER PUSH20 0xFFFFFFFFFFFFFFFFFFFFFFFFFFFFFFFFFFFFFFFF AND PUSH20 0xFFFFFFFFFFFFFFFFFFFFFFFFFFFFFFFFFFFFFFFF AND DUP2 MSTORE PUSH1 0x20 ADD SWAP1 DUP2 MSTORE PUSH1 0x20 ADD PUSH1 0x0 KECCAK256 PUSH1 0x5 ADD SLOAD LT ISZERO PUSH2 0x573 JUMPI PUSH2 0x661 JUMP JUMPDEST DUP1 PUSH1 0x5 PUSH1 0x0 CALLER PUSH20 0xFFFFFFFFFFFFFFFFFFFFFFFFFFFFFFFFFFFFFFFF AND PUSH20 0xFFFFFFFFFFFFFFFFFFFFFFFFFFFFFFFFFFFFFFFF AND DUP2 MSTORE PUSH1 0x20 ADD SWAP1 DUP2 MSTORE PUSH1 0x20 ADD PUSH1 0x0 KECCAK256 PUSH1 0x5 ADD PUSH1 0x0 DUP3 DUP3 SLOAD PUSH2 0x5C5 SWAP2 SWAP1 PUSH2 0xB07 JUMP JUMPDEST SWAP3 POP POP DUP2 SWAP1 SSTORE POP DUP1 PUSH1 0x5 PUSH1 0x0 DUP5 PUSH20 0xFFFFFFFFFFFFFFFFFFFFFFFFFFFFFFFFFFFFFFFF AND PUSH20 0xFFFFFFFFFFFFFFFFFFFFFFFFFFFFFFFFFFFFFFFF AND DUP2 MSTORE PUSH1 0x20 ADD SWAP1 DUP2 MSTORE PUSH1 0x20 ADD PUSH1 0x0 KECCAK256 PUSH1 0x5 ADD PUSH1 0x0 DUP3 DUP3 SLOAD PUSH2 0x61E SWAP2 SWAP1 PUSH2 0xAB1 JUMP JUMPDEST SWAP3 POP POP DUP2 SWAP1 SSTORE POP PUSH32 0x3990DB2D31862302A685E8086B5755072A6E2B5B780AF1EE81ECE35EE3CD3345 CALLER DUP4 DUP4 PUSH1 0x40 MLOAD PUSH2 0x658 SWAP4 SWAP3 SWAP2 SWAP1 PUSH2 0x977 JUMP JUMPDEST PUSH1 0x40 MLOAD DUP1 SWAP2 SUB SWAP1 LOG1 JUMPDEST POP POP JUMP JUMPDEST DUP3 DUP1 SLOAD PUSH2 0x671 SWAP1 PUSH2 0xBB9 JUMP JUMPDEST SWAP1 PUSH1 0x0 MSTORE PUSH1 0x20 PUSH1 0x0 KECCAK256 SWAP1 PUSH1 0x1F ADD PUSH1 0x20 SWAP1 DIV DUP2 ADD SWAP3 DUP3 PUSH2 0x693 JUMPI PUSH1 0x0 DUP6 SSTORE PUSH2 0x6DA JUMP JUMPDEST DUP3 PUSH1 0x1F LT PUSH2 0x6AC JUMPI DUP1 MLOAD PUSH1 0xFF NOT AND DUP4 DUP1 ADD OR DUP6 SSTORE PUSH2 0x6DA JUMP JUMPDEST DUP3 DUP1 ADD PUSH1 0x1 ADD DUP6 SSTORE DUP3 ISZERO PUSH2 0x6DA JUMPI SWAP2 DUP3 ADD JUMPDEST DUP3 DUP2 GT ISZERO PUSH2 0x6D9 JUMPI DUP3 MLOAD DUP3 SSTORE SWAP2 PUSH1 0x20 ADD SWAP2 SWAP1 PUSH1 0x1 ADD SWAP1 PUSH2 0x6BE JUMP JUMPDEST JUMPDEST POP SWAP1 POP PUSH2 0x6E7 SWAP2 SWAP1 PUSH2 0x6EB JUMP JUMPDEST POP SWAP1 JUMP JUMPDEST JUMPDEST DUP1 DUP3 GT ISZERO PUSH2 0x704 JUMPI PUSH1 0x0 DUP2 PUSH1 0x0 SWAP1 SSTORE POP PUSH1 0x1 ADD PUSH2 0x6EC JUMP JUMPDEST POP SWAP1 JUMP JUMPDEST PUSH1 0x0 PUSH2 0x71B PUSH2 0x716 DUP5 PUSH2 0xA64 JUMP JUMPDEST PUSH2 0xA3F JUMP JUMPDEST SWAP1 POP DUP3 DUP2 MSTORE PUSH1 0x20 DUP2 ADD DUP5 DUP5 DUP5 ADD GT ISZERO PUSH2 0x737 JUMPI PUSH2 0x736 PUSH2 0xCAE JUMP JUMPDEST JUMPDEST PUSH2 0x742 DUP5 DUP3 DUP6 PUSH2 0xB77 JUMP JUMPDEST POP SWAP4 SWAP3 POP POP POP JUMP JUMPDEST PUSH1 0x0 DUP2 CALLDATALOAD SWAP1 POP PUSH2 0x759 DUP2 PUSH2 0xCCE JUMP JUMPDEST SWAP3 SWAP2 POP POP JUMP JUMPDEST PUSH1 0x0 DUP3 PUSH1 0x1F DUP4 ADD SLT PUSH2 0x774 JUMPI PUSH2 0x773 PUSH2 0xCA9 JUMP JUMPDEST JUMPDEST DUP2 CALLDATALOAD PUSH2 0x784 DUP5 DUP3 PUSH1 0x20 DUP7 ADD PUSH2 0x708 JUMP JUMPDEST SWAP2 POP POP SWAP3 SWAP2 POP POP JUMP JUMPDEST PUSH1 0x0 DUP2 CALLDATALOAD SWAP1 POP PUSH2 0x79C DUP2 PUSH2 0xCE5 JUMP JUMPDEST SWAP3 SWAP2 POP POP JUMP JUMPDEST PUSH1 0x0 PUSH1 0x20 DUP3 DUP5 SUB SLT ISZERO PUSH2 0x7B8 JUMPI PUSH2 0x7B7 PUSH2 0xCB8 JUMP JUMPDEST JUMPDEST PUSH1 0x0 PUSH2 0x7C6 DUP5 DUP3 DUP6 ADD PUSH2 0x74A JUMP JUMPDEST SWAP2 POP POP SWAP3 SWAP2 POP POP JUMP JUMPDEST PUSH1 0x0 DUP1 PUSH1 0x0 DUP1 PUSH1 0x0 DUP1 PUSH1 0x0 PUSH1 0xE0 DUP9 DUP11 SUB SLT ISZERO PUSH2 0x7EE JUMPI PUSH2 0x7ED PUSH2 0xCB8 JUMP JUMPDEST JUMPDEST PUSH1 0x0 PUSH2 0x7FC DUP11 DUP3 DUP12 ADD PUSH2 0x74A JUMP JUMPDEST SWAP8 POP POP PUSH1 0x20 DUP9 ADD CALLDATALOAD PUSH8 0xFFFFFFFFFFFFFFFF DUP2 GT ISZERO PUSH2 0x81D JUMPI PUSH2 0x81C PUSH2 0xCB3 JUMP JUMPDEST JUMPDEST PUSH2 0x829 DUP11 DUP3 DUP12 ADD PUSH2 0x75F JUMP JUMPDEST SWAP7 POP POP PUSH1 0x40 PUSH2 0x83A DUP11 DUP3 DUP12 ADD PUSH2 0x78D JUMP JUMPDEST SWAP6 POP POP PUSH1 0x60 DUP9 ADD CALLDATALOAD PUSH8 0xFFFFFFFFFFFFFFFF DUP2 GT ISZERO PUSH2 0x85B JUMPI PUSH2 0x85A PUSH2 0xCB3 JUMP JUMPDEST JUMPDEST PUSH2 0x867 DUP11 DUP3 DUP12 ADD PUSH2 0x75F JUMP JUMPDEST SWAP5 POP POP PUSH1 0x80 PUSH2 0x878 DUP11 DUP3 DUP12 ADD PUSH2 0x78D JUMP JUMPDEST SWAP4 POP POP PUSH1 0xA0 DUP9 ADD CALLDATALOAD PUSH8 0xFFFFFFFFFFFFFFFF DUP2 GT ISZERO PUSH2 0x899 JUMPI PUSH2 0x898 PUSH2 0xCB3 JUMP JUMPDEST JUMPDEST PUSH2 0x8A5 DUP11 DUP3 DUP12 ADD PUSH2 0x75F JUMP JUMPDEST SWAP3 POP POP PUSH1 0xC0 PUSH2 0x8B6 DUP11 DUP3 DUP12 ADD PUSH2 0x78D JUMP JUMPDEST SWAP2 POP POP SWAP3 SWAP6 SWAP9 SWAP2 SWAP5 SWAP8 POP SWAP3 SWAP6 POP JUMP JUMPDEST PUSH1 0x0 DUP1 PUSH1 0x40 DUP4 DUP6 SUB SLT ISZERO PUSH2 0x8DC JUMPI PUSH2 0x8DB PUSH2 0xCB8 JUMP JUMPDEST JUMPDEST PUSH1 0x0 PUSH2 0x8EA DUP6 DUP3 DUP7 ADD PUSH2 0x74A JUMP JUMPDEST SWAP3 POP POP PUSH1 0x20 PUSH2 0x8FB DUP6 DUP3 DUP7 ADD PUSH2 0x78D JUMP JUMPDEST SWAP2 POP POP SWAP3 POP SWAP3 SWAP1 POP JUMP JUMPDEST PUSH2 0x90E DUP2 PUSH2 0xB3B JUMP JUMPDEST DUP3 MSTORE POP POP JUMP JUMPDEST PUSH1 0x0 PUSH2 0x91F DUP3 PUSH2 0xA95 JUMP JUMPDEST PUSH2 0x929 DUP2 DUP6 PUSH2 0xAA0 JUMP JUMPDEST SWAP4 POP PUSH2 0x939 DUP2 DUP6 PUSH1 0x20 DUP7 ADD PUSH2 0xB86 JUMP JUMPDEST PUSH2 0x942 DUP2 PUSH2 0xCBD JUMP JUMPDEST DUP5 ADD SWAP2 POP POP SWAP3 SWAP2 POP POP JUMP JUMPDEST PUSH2 0x956 DUP2 PUSH2 0xB6D JUMP JUMPDEST DUP3 MSTORE POP POP JUMP JUMPDEST PUSH1 0x0 PUSH1 0x20 DUP3 ADD SWAP1 POP PUSH2 0x971 PUSH1 0x0 DUP4 ADD DUP5 PUSH2 0x905 JUMP JUMPDEST SWAP3 SWAP2 POP POP JUMP JUMPDEST PUSH1 0x0 PUSH1 0x60 DUP3 ADD SWAP1 POP PUSH2 0x98C PUSH1 0x0 DUP4 ADD DUP7 PUSH2 0x905 JUMP JUMPDEST PUSH2 0x999 PUSH1 0x20 DUP4 ADD DUP6 PUSH2 0x905 JUMP JUMPDEST PUSH2 0x9A6 PUSH1 0x40 DUP4 ADD DUP5 PUSH2 0x94D JUMP JUMPDEST SWAP5 SWAP4 POP POP POP POP JUMP JUMPDEST PUSH1 0x0 PUSH1 0xC0 DUP3 ADD SWAP1 POP DUP2 DUP2 SUB PUSH1 0x0 DUP4 ADD MSTORE PUSH2 0x9C8 DUP2 DUP10 PUSH2 0x914 JUMP JUMPDEST SWAP1 POP PUSH2 0x9D7 PUSH1 0x20 DUP4 ADD DUP9 PUSH2 0x94D JUMP JUMPDEST DUP2 DUP2 SUB PUSH1 0x40 DUP4 ADD MSTORE PUSH2 0x9E9 DUP2 DUP8 PUSH2 0x914 JUMP JUMPDEST SWAP1 POP PUSH2 0x9F8 PUSH1 0x60 DUP4 ADD DUP7 PUSH2 0x94D JUMP JUMPDEST DUP2 DUP2 SUB PUSH1 0x80 DUP4 ADD MSTORE PUSH2 0xA0A DUP2 DUP6 PUSH2 0x914 JUMP JUMPDEST SWAP1 POP PUSH2 0xA19 PUSH1 0xA0 DUP4 ADD DUP5 PUSH2 0x94D JUMP JUMPDEST SWAP8 SWAP7 POP POP POP POP POP POP POP JUMP JUMPDEST PUSH1 0x0 PUSH1 0x20 DUP3 ADD SWAP1 POP PUSH2 0xA39 PUSH1 0x0 DUP4 ADD DUP5 PUSH2 0x94D JUMP JUMPDEST SWAP3 SWAP2 POP POP JUMP JUMPDEST PUSH1 0x0 PUSH2 0xA49 PUSH2 0xA5A JUMP JUMPDEST SWAP1 POP PUSH2 0xA55 DUP3 DUP3 PUSH2 0xBEB JUMP JUMPDEST SWAP2 SWAP1 POP JUMP JUMPDEST PUSH1 0x0 PUSH1 0x40 MLOAD SWAP1 POP SWAP1 JUMP JUMPDEST PUSH1 0x0 PUSH8 0xFFFFFFFFFFFFFFFF DUP3 GT ISZERO PUSH2 0xA7F JUMPI PUSH2 0xA7E PUSH2 0xC7A JUMP JUMPDEST JUMPDEST PUSH2 0xA88 DUP3 PUSH2 0xCBD JUMP JUMPDEST SWAP1 POP PUSH1 0x20 DUP2 ADD SWAP1 POP SWAP2 SWAP1 POP JUMP JUMPDEST PUSH1 0x0 DUP2 MLOAD SWAP1 POP SWAP2 SWAP1 POP JUMP JUMPDEST PUSH1 0x0 DUP3 DUP3 MSTORE PUSH1 0x20 DUP3 ADD SWAP1 POP SWAP3 SWAP2 POP POP JUMP JUMPDEST PUSH1 0x0 PUSH2 0xABC DUP3 PUSH2 0xB6D JUMP JUMPDEST SWAP2 POP PUSH2 0xAC7 DUP4 PUSH2 0xB6D JUMP JUMPDEST SWAP3 POP DUP3 PUSH32 0xFFFFFFFFFFFFFFFFFFFFFFFFFFFFFFFFFFFFFFFFFFFFFFFFFFFFFFFFFFFFFFFF SUB DUP3 GT ISZERO PUSH2 0xAFC JUMPI PUSH2 0xAFB PUSH2 0xC1C JUMP JUMPDEST JUMPDEST DUP3 DUP3 ADD SWAP1 POP SWAP3 SWAP2 POP POP JUMP JUMPDEST PUSH1 0x0 PUSH2 0xB12 DUP3 PUSH2 0xB6D JUMP JUMPDEST SWAP2 POP PUSH2 0xB1D DUP4 PUSH2 0xB6D JUMP JUMPDEST SWAP3 POP DUP3 DUP3 LT ISZERO PUSH2 0xB30 JUMPI PUSH2 0xB2F PUSH2 0xC1C JUMP JUMPDEST JUMPDEST DUP3 DUP3 SUB SWAP1 POP SWAP3 SWAP2 POP POP JUMP JUMPDEST PUSH1 0x0 PUSH2 0xB46 DUP3 PUSH2 0xB4D JUMP JUMPDEST SWAP1 POP SWAP2 SWAP1 POP JUMP JUMPDEST PUSH1 0x0 PUSH20 0xFFFFFFFFFFFFFFFFFFFFFFFFFFFFFFFFFFFFFFFF DUP3 AND SWAP1 POP SWAP2 SWAP1 POP JUMP JUMPDEST PUSH1 0x0 DUP2 SWAP1 POP SWAP2 SWAP1 POP JUMP JUMPDEST DUP3 DUP2 DUP4 CALLDATACOPY PUSH1 0x0 DUP4 DUP4 ADD MSTORE POP POP POP JUMP JUMPDEST PUSH1 0x0 JUMPDEST DUP4 DUP2 LT ISZERO PUSH2 0xBA4 JUMPI DUP1 DUP3 ADD MLOAD DUP2 DUP5 ADD MSTORE PUSH1 0x20 DUP2 ADD SWAP1 POP PUSH2 0xB89 JUMP JUMPDEST DUP4 DUP2 GT ISZERO PUSH2 0xBB3 JUMPI PUSH1 0x0 DUP5 DUP5 ADD MSTORE JUMPDEST POP POP POP POP JUMP JUMPDEST PUSH1 0x0 PUSH1 0x2 DUP3 DIV SWAP1 POP PUSH1 0x1 DUP3 AND DUP1 PUSH2 0xBD1 JUMPI PUSH1 0x7F DUP3 AND SWAP2 POP JUMPDEST PUSH1 0x20 DUP3 LT DUP2 EQ ISZERO PUSH2 0xBE5 JUMPI PUSH2 0xBE4 PUSH2 0xC4B JUMP JUMPDEST JUMPDEST POP SWAP2 SWAP1 POP JUMP JUMPDEST PUSH2 0xBF4 DUP3 PUSH2 0xCBD JUMP JUMPDEST DUP2 ADD DUP2 DUP2 LT PUSH8 0xFFFFFFFFFFFFFFFF DUP3 GT OR ISZERO PUSH2 0xC13 JUMPI PUSH2 0xC12 PUSH2 0xC7A JUMP JUMPDEST JUMPDEST DUP1 PUSH1 0x40 MSTORE POP POP POP JUMP JUMPDEST PUSH32 0x4E487B7100000000000000000000000000000000000000000000000000000000 PUSH1 0x0 MSTORE PUSH1 0x11 PUSH1 0x4 MSTORE PUSH1 0x24 PUSH1 0x0 REVERT JUMPDEST PUSH32 0x4E487B7100000000000000000000000000000000000000000000000000000000 PUSH1 0x0 MSTORE PUSH1 0x22 PUSH1 0x4 MSTORE PUSH1 0x24 PUSH1 0x0 REVERT JUMPDEST PUSH32 0x4E487B7100000000000000000000000000000000000000000000000000000000 PUSH1 0x0 MSTORE PUSH1 0x41 PUSH1 0x4 MSTORE PUSH1 0x24 PUSH1 0x0 REVERT JUMPDEST PUSH1 0x0 DUP1 REVERT JUMPDEST PUSH1 0x0 DUP1 REVERT JUMPDEST PUSH1 0x0 DUP1 REVERT JUMPDEST PUSH1 0x0 DUP1 REVERT JUMPDEST PUSH1 0x0 PUSH1 0x1F NOT PUSH1 0x1F DUP4 ADD AND SWAP1 POP SWAP2 SWAP1 POP JUMP JUMPDEST PUSH2 0xCD7 DUP2 PUSH2 0xB3B JUMP JUMPDEST DUP2 EQ PUSH2 0xCE2 JUMPI PUSH1 0x0 DUP1 REVERT JUMPDEST POP JUMP JUMPDEST PUSH2 0xCEE DUP2 PUSH2 0xB6D JUMP JUMPDEST DUP2 EQ PUSH2 0xCF9 JUMPI PUSH1 0x0 DUP1 REVERT JUMPDEST POP JUMP INVALID LOG2 PUSH5 0x6970667358 0x22 SLT KECCAK256 0x29 NOT CALLDATACOPY DUP4 PUSH6 0x8453FB12635B 0xD6 LOG0 EQ PUSH27 0xDD4EF4313DF4F5E3A1A8787F1619D1754B64736F6C634300080700 CALLER "
				},
				"gasEstimates": {
					"creation": {
						"codeDepositCost": "675600",
						"executionCost": "infinite",
						"totalCost": "infinite"
					},
					"external": {
						"balances(address)": "2814",
						"getInfoByWallet(address)": "infinite",
						"minter()": "2489",
						"send(address,uint256)": "infinite",
						"setInfo(address,string,uint256,string,uint256,string,uint256)": "infinite"
					}
				},
				"methodIdentifiers": {
					"balances(address)": "27e235e3",
					"getInfoByWallet(address)": "8b9c657a",
					"minter()": "07546172",
					"send(address,uint256)": "d0679d34",
					"setInfo(address,string,uint256,string,uint256,string,uint256)": "90e1f79d"
				}
			},
			"storageLayout": {
				"storage": [
					{
						"astId": 3,
						"contract": "test2.sol:status",
						"label": "minter",
						"offset": 0,
						"slot": "0",
						"type": "t_address"
					},
					{
						"astId": 7,
						"contract": "test2.sol:status",
						"label": "balances",
						"offset": 0,
						"slot": "1",
						"type": "t_mapping(t_address,t_uint256)"
					},
					{
						"astId": 31,
						"contract": "test2.sol:status",
						"label": "name",
						"offset": 0,
						"slot": "2",
						"type": "t_string_storage"
					},
					{
						"astId": 34,
						"contract": "test2.sol:status",
						"label": "balance",
						"offset": 0,
						"slot": "3",
						"type": "t_uint256"
					},
					{
						"astId": 38,
						"contract": "test2.sol:status",
						"label": "Students",
						"offset": 0,
						"slot": "4",
						"type": "t_array(t_struct(Student)28_storage)dyn_storage"
					},
					{
						"astId": 43,
						"contract": "test2.sol:status",
						"label": "getInfoByWallet",
						"offset": 0,
						"slot": "5",
						"type": "t_mapping(t_address,t_struct(Student)28_storage)"
					}
				],
				"types": {
					"t_address": {
						"encoding": "inplace",
						"label": "address",
						"numberOfBytes": "20"
					},
					"t_array(t_struct(Student)28_storage)dyn_storage": {
						"base": "t_struct(Student)28_storage",
						"encoding": "dynamic_array",
						"label": "struct status.Student[]",
						"numberOfBytes": "32"
					},
					"t_mapping(t_address,t_struct(Student)28_storage)": {
						"encoding": "mapping",
						"key": "t_address",
						"label": "mapping(address => struct status.Student)",
						"numberOfBytes": "32",
						"value": "t_struct(Student)28_storage"
					},
					"t_mapping(t_address,t_uint256)": {
						"encoding": "mapping",
						"key": "t_address",
						"label": "mapping(address => uint256)",
						"numberOfBytes": "32",
						"value": "t_uint256"
					},
					"t_string_storage": {
						"encoding": "bytes",
						"label": "string",
						"numberOfBytes": "32"
					},
					"t_struct(Student)28_storage": {
						"encoding": "inplace",
						"label": "struct status.Student",
						"members": [
							{
								"astId": 17,
								"contract": "test2.sol:status",
								"label": "name",
								"offset": 0,
								"slot": "0",
								"type": "t_string_storage"
							},
							{
								"astId": 19,
								"contract": "test2.sol:status",
								"label": "StudentID",
								"offset": 0,
								"slot": "1",
								"type": "t_uint256"
							},
							{
								"astId": 21,
								"contract": "test2.sol:status",
								"label": "major",
								"offset": 0,
								"slot": "2",
								"type": "t_string_storage"
							},
							{
								"astId": 23,
								"contract": "test2.sol:status",
								"label": "gpa",
								"offset": 0,
								"slot": "3",
								"type": "t_uint256"
							},
							{
								"astId": 25,
								"contract": "test2.sol:status",
								"label": "company",
								"offset": 0,
								"slot": "4",
								"type": "t_string_storage"
							},
							{
								"astId": 27,
								"contract": "test2.sol:status",
								"label": "balance",
								"offset": 0,
								"slot": "5",
								"type": "t_uint256"
							}
						],
						"numberOfBytes": "192"
					},
					"t_uint256": {
						"encoding": "inplace",
						"label": "uint256",
						"numberOfBytes": "32"
					}
				}
			},
			"userdoc": {
				"kind": "user",
				"methods": {},
				"version": 1
			}
		}
	}
}