{
	"test2.sol": {
		"status": {
			"abi": [
				{
					"anonymous": false,
					"inputs": [
						{
							"indexed": false,
							"internalType": "address",
							"name": "from",
							"type": "address"
						},
						{
							"indexed": false,
							"internalType": "address",
							"name": "to",
							"type": "address"
						},
						{
							"indexed": false,
							"internalType": "uint256",
							"name": "amount",
							"type": "uint256"
						}
					],
					"name": "Sent",
					"type": "event"
				},
				{
					"inputs": [
						{
							"internalType": "address",
							"name": "",
							"type": "address"
						}
					],
					"name": "balances",
					"outputs": [
						{
							"internalType": "uint256",
							"name": "",
							"type": "uint256"
						}
					],
					"stateMutability": "view",
					"type": "function"
				},
				{
					"inputs": [
						{
							"internalType": "address",
							"name": "",
							"type": "address"
						}
					],
					"name": "getInfoByWallet",
					"outputs": [
						{
							"internalType": "string",
							"name": "name",
							"type": "string"
						},
						{
							"internalType": "uint256",
							"name": "StudentID",
							"type": "uint256"
						},
						{
							"internalType": "string",
							"name": "major",
							"type": "string"
						},
						{
							"internalType": "uint256",
							"name": "gpa",
							"type": "uint256"
						},
						{
							"internalType": "string",
							"name": "company",
							"type": "string"
						}
					],
					"stateMutability": "view",
					"type": "function"
				},
				{
					"inputs": [
						{
							"internalType": "address",
							"name": "receiver",
							"type": "address"
						},
						{
							"internalType": "uint256",
							"name": "amount",
							"type": "uint256"
						}
					],
					"name": "mint",
					"outputs": [],
					"stateMutability": "payable",
					"type": "function"
				},
				{
					"inputs": [],
					"name": "minter",
					"outputs": [
						{
							"internalType": "address",
							"name": "",
							"type": "address"
						}
					],
					"stateMutability": "view",
					"type": "function"
				},
				{
					"inputs": [
						{
							"internalType": "address",
							"name": "receiver",
							"type": "address"
						},
						{
							"internalType": "uint256",
							"name": "amount",
							"type": "uint256"
						}
					],
					"name": "send",
					"outputs": [],
					"stateMutability": "payable",
					"type": "function"
				},
				{
					"inputs": [
						{
							"internalType": "address",
							"name": "_wall",
							"type": "address"
						},
						{
							"internalType": "string",
							"name": "_name",
							"type": "string"
						},
						{
							"internalType": "uint256",
							"name": "_StudentID",
							"type": "uint256"
						},
						{
							"internalType": "string",
							"name": "_major",
							"type": "string"
						},
						{
							"internalType": "uint256",
							"name": "_gpa",
							"type": "uint256"
						},
						{
							"internalType": "string",
							"name": "_company",
							"type": "string"
						}
					],
					"name": "setInfo",
					"outputs": [],
					"stateMutability": "payable",
					"type": "function"
				}
			],
			"devdoc": {
				"kind": "dev",
				"methods": {},
				"version": 1
			},
			"evm": {
				"assembly": "    /* \"test2.sol\":72:2225  contract status{\r... */\n  mstore(0x40, 0x80)\n    /* \"test2.sol\":516:532  string name = \"\" */\n  mload(0x40)\n  dup1\n  0x20\n  add\n  0x40\n  mstore\n  dup1\n  0x00\n  dup2\n  mstore\n  pop\n  0x02\n  swap1\n  dup1\n  mload\n  swap1\n  0x20\n  add\n  swap1\n  tag_1\n  swap3\n  swap2\n  swap1\n  tag_2\n  jump\t// in\ntag_1:\n  pop\n    /* \"test2.sol\":557:558  0 */\n  0x00\n    /* \"test2.sol\":539:558  uint256 balance = 0 */\n  0x03\n  sstore\n    /* \"test2.sol\":72:2225  contract status{\r... */\n  callvalue\n  dup1\n  iszero\n  tag_3\n  jumpi\n  0x00\n  dup1\n  revert\ntag_3:\n  pop\n  jump(tag_4)\ntag_2:\n  dup3\n  dup1\n  sload\n  tag_5\n  swap1\n  tag_6\n  jump\t// in\ntag_5:\n  swap1\n  0x00\n  mstore\n  keccak256(0x00, 0x20)\n  swap1\n  0x1f\n  add\n  0x20\n  swap1\n  div\n  dup2\n  add\n  swap3\n  dup3\n  tag_8\n  jumpi\n  0x00\n  dup6\n  sstore\n  jump(tag_7)\ntag_8:\n  dup3\n  0x1f\n  lt\n  tag_9\n  jumpi\n  dup1\n  mload\n  not(0xff)\n  and\n  dup4\n  dup1\n  add\n  or\n  dup6\n  sstore\n  jump(tag_7)\ntag_9:\n  dup3\n  dup1\n  add\n  0x01\n  add\n  dup6\n  sstore\n  dup3\n  iszero\n  tag_7\n  jumpi\n  swap2\n  dup3\n  add\ntag_10:\n  dup3\n  dup2\n  gt\n  iszero\n  tag_11\n  jumpi\n  dup3\n  mload\n  dup3\n  sstore\n  swap2\n  0x20\n  add\n  swap2\n  swap1\n  0x01\n  add\n  swap1\n  jump(tag_10)\ntag_11:\ntag_7:\n  pop\n  swap1\n  pop\n  tag_12\n  swap2\n  swap1\n  tag_13\n  jump\t// in\ntag_12:\n  pop\n  swap1\n  jump\t// out\ntag_13:\ntag_14:\n  dup1\n  dup3\n  gt\n  iszero\n  tag_15\n  jumpi\n  0x00\n  dup2\n  0x00\n  swap1\n  sstore\n  pop\n  0x01\n  add\n  jump(tag_14)\ntag_15:\n  pop\n  swap1\n  jump\t// out\n    /* \"#utility.yul\":7:327   */\ntag_6:\n    /* \"#utility.yul\":51:57   */\n  0x00\n    /* \"#utility.yul\":88:89   */\n  0x02\n    /* \"#utility.yul\":82:86   */\n  dup3\n    /* \"#utility.yul\":78:90   */\n  div\n    /* \"#utility.yul\":68:90   */\n  swap1\n  pop\n    /* \"#utility.yul\":135:136   */\n  0x01\n    /* \"#utility.yul\":129:133   */\n  dup3\n    /* \"#utility.yul\":125:137   */\n  and\n    /* \"#utility.yul\":156:174   */\n  dup1\n    /* \"#utility.yul\":146:227   */\n  tag_18\n  jumpi\n    /* \"#utility.yul\":212:216   */\n  0x7f\n    /* \"#utility.yul\":204:210   */\n  dup3\n    /* \"#utility.yul\":200:217   */\n  and\n    /* \"#utility.yul\":190:217   */\n  swap2\n  pop\n    /* \"#utility.yul\":146:227   */\ntag_18:\n    /* \"#utility.yul\":274:276   */\n  0x20\n    /* \"#utility.yul\":266:272   */\n  dup3\n    /* \"#utility.yul\":263:277   */\n  lt\n    /* \"#utility.yul\":243:261   */\n  dup2\n    /* \"#utility.yul\":240:278   */\n  eq\n    /* \"#utility.yul\":237:321   */\n  iszero\n  tag_19\n  jumpi\n    /* \"#utility.yul\":293:311   */\n  tag_20\n  tag_21\n  jump\t// in\ntag_20:\n    /* \"#utility.yul\":237:321   */\ntag_19:\n    /* \"#utility.yul\":58:327   */\n  pop\n    /* \"#utility.yul\":7:327   */\n  swap2\n  swap1\n  pop\n  jump\t// out\n    /* \"#utility.yul\":333:513   */\ntag_21:\n    /* \"#utility.yul\":381:458   */\n  0x4e487b7100000000000000000000000000000000000000000000000000000000\n    /* \"#utility.yul\":378:379   */\n  0x00\n    /* \"#utility.yul\":371:459   */\n  mstore\n    /* \"#utility.yul\":478:482   */\n  0x22\n    /* \"#utility.yul\":475:476   */\n  0x04\n    /* \"#utility.yul\":468:483   */\n  mstore\n    /* \"#utility.yul\":502:506   */\n  0x24\n    /* \"#utility.yul\":499:500   */\n  0x00\n    /* \"#utility.yul\":492:507   */\n  revert\n    /* \"test2.sol\":72:2225  contract status{\r... */\ntag_4:\n  dataSize(sub_0)\n  dup1\n  dataOffset(sub_0)\n  0x00\n  codecopy\n  0x00\n  return\nstop\n\nsub_0: assembly {\n        /* \"test2.sol\":72:2225  contract status{\r... */\n      mstore(0x40, 0x80)\n      jumpi(tag_1, lt(calldatasize, 0x04))\n      shr(0xe0, calldataload(0x00))\n      dup1\n      0x07546172\n      eq\n      tag_2\n      jumpi\n      dup1\n      0x0ebcbdb8\n      eq\n      tag_3\n      jumpi\n      dup1\n      0x27e235e3\n      eq\n      tag_4\n      jumpi\n      dup1\n      0x40c10f19\n      eq\n      tag_5\n      jumpi\n      dup1\n      0x8b9c657a\n      eq\n      tag_6\n      jumpi\n      dup1\n      0xd0679d34\n      eq\n      tag_7\n      jumpi\n    tag_1:\n      0x00\n      dup1\n      revert\n        /* \"test2.sol\":98:119  address public minter */\n    tag_2:\n      callvalue\n      dup1\n      iszero\n      tag_8\n      jumpi\n      0x00\n      dup1\n      revert\n    tag_8:\n      pop\n      tag_9\n      tag_10\n      jump\t// in\n    tag_9:\n      mload(0x40)\n      tag_11\n      swap2\n      swap1\n      tag_12\n      jump\t// in\n    tag_11:\n      mload(0x40)\n      dup1\n      swap2\n      sub\n      swap1\n      return\n        /* \"test2.sol\":1404:1806  function setInfo(address _wall, string memory _name, uint256 _StudentID, string memory _major, uint256 _gpa, string memory _company) public payable {\r... */\n    tag_3:\n      tag_13\n      0x04\n      dup1\n      calldatasize\n      sub\n      dup2\n      add\n      swap1\n      tag_14\n      swap2\n      swap1\n      tag_15\n      jump\t// in\n    tag_14:\n      tag_16\n      jump\t// in\n    tag_13:\n      stop\n        /* \"test2.sol\":126:167  mapping (address => uint) public balances */\n    tag_4:\n      callvalue\n      dup1\n      iszero\n      tag_17\n      jumpi\n      0x00\n      dup1\n      revert\n    tag_17:\n      pop\n      tag_18\n      0x04\n      dup1\n      calldatasize\n      sub\n      dup2\n      add\n      swap1\n      tag_19\n      swap2\n      swap1\n      tag_20\n      jump\t// in\n    tag_19:\n      tag_21\n      jump\t// in\n    tag_18:\n      mload(0x40)\n      tag_22\n      swap2\n      swap1\n      tag_23\n      jump\t// in\n    tag_22:\n      mload(0x40)\n      dup1\n      swap2\n      sub\n      swap1\n      return\n        /* \"test2.sol\":1814:1964  function mint(address receiver, uint amount) public payable {\r... */\n    tag_5:\n      tag_24\n      0x04\n      dup1\n      calldatasize\n      sub\n      dup2\n      add\n      swap1\n      tag_25\n      swap2\n      swap1\n      tag_26\n      jump\t// in\n    tag_25:\n      tag_27\n      jump\t// in\n    tag_24:\n      stop\n        /* \"test2.sol\":592:642  mapping(address => Student) public getInfoByWallet */\n    tag_6:\n      callvalue\n      dup1\n      iszero\n      tag_28\n      jumpi\n      0x00\n      dup1\n      revert\n    tag_28:\n      pop\n      tag_29\n      0x04\n      dup1\n      calldatasize\n      sub\n      dup2\n      add\n      swap1\n      tag_30\n      swap2\n      swap1\n      tag_20\n      jump\t// in\n    tag_30:\n      tag_31\n      jump\t// in\n    tag_29:\n      mload(0x40)\n      tag_32\n      swap6\n      swap5\n      swap4\n      swap3\n      swap2\n      swap1\n      tag_33\n      jump\t// in\n    tag_32:\n      mload(0x40)\n      dup1\n      swap2\n      sub\n      swap1\n      return\n        /* \"test2.sol\":1972:2222  function send(address receiver, uint amount) public payable {\r... */\n    tag_7:\n      tag_34\n      0x04\n      dup1\n      calldatasize\n      sub\n      dup2\n      add\n      swap1\n      tag_35\n      swap2\n      swap1\n      tag_26\n      jump\t// in\n    tag_35:\n      tag_36\n      jump\t// in\n    tag_34:\n      stop\n        /* \"test2.sol\":98:119  address public minter */\n    tag_10:\n      0x00\n      dup1\n      sload\n      swap1\n      0x0100\n      exp\n      swap1\n      div\n      0xffffffffffffffffffffffffffffffffffffffff\n      and\n      dup2\n      jump\t// out\n        /* \"test2.sol\":1404:1806  function setInfo(address _wall, string memory _name, uint256 _StudentID, string memory _major, uint256 _gpa, string memory _company) public payable {\r... */\n    tag_16:\n        /* \"test2.sol\":1593:1598  _name */\n      dup5\n        /* \"test2.sol\":1563:1578  getInfoByWallet */\n      0x05\n        /* \"test2.sol\":1563:1585  getInfoByWallet[_wall] */\n      0x00\n        /* \"test2.sol\":1579:1584  _wall */\n      dup9\n        /* \"test2.sol\":1563:1585  getInfoByWallet[_wall] */\n      0xffffffffffffffffffffffffffffffffffffffff\n      and\n      0xffffffffffffffffffffffffffffffffffffffff\n      and\n      dup2\n      mstore\n      0x20\n      add\n      swap1\n      dup2\n      mstore\n      0x20\n      add\n      0x00\n      keccak256\n        /* \"test2.sol\":1563:1590  getInfoByWallet[_wall].name */\n      0x00\n      add\n        /* \"test2.sol\":1563:1598  getInfoByWallet[_wall].name = _name */\n      swap1\n      dup1\n      mload\n      swap1\n      0x20\n      add\n      swap1\n      tag_38\n      swap3\n      swap2\n      swap1\n      tag_39\n      jump\t// in\n    tag_38:\n      pop\n        /* \"test2.sol\":1644:1654  _StudentID */\n      dup4\n        /* \"test2.sol\":1609:1624  getInfoByWallet */\n      0x05\n        /* \"test2.sol\":1609:1631  getInfoByWallet[_wall] */\n      0x00\n        /* \"test2.sol\":1625:1630  _wall */\n      dup9\n        /* \"test2.sol\":1609:1631  getInfoByWallet[_wall] */\n      0xffffffffffffffffffffffffffffffffffffffff\n      and\n      0xffffffffffffffffffffffffffffffffffffffff\n      and\n      dup2\n      mstore\n      0x20\n      add\n      swap1\n      dup2\n      mstore\n      0x20\n      add\n      0x00\n      keccak256\n        /* \"test2.sol\":1609:1641  getInfoByWallet[_wall].StudentID */\n      0x01\n      add\n        /* \"test2.sol\":1609:1654  getInfoByWallet[_wall].StudentID = _StudentID */\n      dup2\n      swap1\n      sstore\n      pop\n        /* \"test2.sol\":1696:1702  _major */\n      dup3\n        /* \"test2.sol\":1665:1680  getInfoByWallet */\n      0x05\n        /* \"test2.sol\":1665:1687  getInfoByWallet[_wall] */\n      0x00\n        /* \"test2.sol\":1681:1686  _wall */\n      dup9\n        /* \"test2.sol\":1665:1687  getInfoByWallet[_wall] */\n      0xffffffffffffffffffffffffffffffffffffffff\n      and\n      0xffffffffffffffffffffffffffffffffffffffff\n      and\n      dup2\n      mstore\n      0x20\n      add\n      swap1\n      dup2\n      mstore\n      0x20\n      add\n      0x00\n      keccak256\n        /* \"test2.sol\":1665:1693  getInfoByWallet[_wall].major */\n      0x02\n      add\n        /* \"test2.sol\":1665:1702  getInfoByWallet[_wall].major = _major */\n      swap1\n      dup1\n      mload\n      swap1\n      0x20\n      add\n      swap1\n      tag_40\n      swap3\n      swap2\n      swap1\n      tag_39\n      jump\t// in\n    tag_40:\n      pop\n        /* \"test2.sol\":1742:1746  _gpa */\n      dup2\n        /* \"test2.sol\":1713:1728  getInfoByWallet */\n      0x05\n        /* \"test2.sol\":1713:1735  getInfoByWallet[_wall] */\n      0x00\n        /* \"test2.sol\":1729:1734  _wall */\n      dup9\n        /* \"test2.sol\":1713:1735  getInfoByWallet[_wall] */\n      0xffffffffffffffffffffffffffffffffffffffff\n      and\n      0xffffffffffffffffffffffffffffffffffffffff\n      and\n      dup2\n      mstore\n      0x20\n      add\n      swap1\n      dup2\n      mstore\n      0x20\n      add\n      0x00\n      keccak256\n        /* \"test2.sol\":1713:1739  getInfoByWallet[_wall].gpa */\n      0x03\n      add\n        /* \"test2.sol\":1713:1746  getInfoByWallet[_wall].gpa = _gpa */\n      dup2\n      swap1\n      sstore\n      pop\n        /* \"test2.sol\":1790:1798  _company */\n      dup1\n        /* \"test2.sol\":1757:1772  getInfoByWallet */\n      0x05\n        /* \"test2.sol\":1757:1779  getInfoByWallet[_wall] */\n      0x00\n        /* \"test2.sol\":1773:1778  _wall */\n      dup9\n        /* \"test2.sol\":1757:1779  getInfoByWallet[_wall] */\n      0xffffffffffffffffffffffffffffffffffffffff\n      and\n      0xffffffffffffffffffffffffffffffffffffffff\n      and\n      dup2\n      mstore\n      0x20\n      add\n      swap1\n      dup2\n      mstore\n      0x20\n      add\n      0x00\n      keccak256\n        /* \"test2.sol\":1757:1787  getInfoByWallet[_wall].company */\n      0x04\n      add\n        /* \"test2.sol\":1757:1798  getInfoByWallet[_wall].company = _company */\n      swap1\n      dup1\n      mload\n      swap1\n      0x20\n      add\n      swap1\n      tag_41\n      swap3\n      swap2\n      swap1\n      tag_39\n      jump\t// in\n    tag_41:\n      pop\n        /* \"test2.sol\":1404:1806  function setInfo(address _wall, string memory _name, uint256 _StudentID, string memory _major, uint256 _gpa, string memory _company) public payable {\r... */\n      pop\n      pop\n      pop\n      pop\n      pop\n      pop\n      jump\t// out\n        /* \"test2.sol\":126:167  mapping (address => uint) public balances */\n    tag_21:\n      mstore(0x20, 0x01)\n      dup1\n      0x00\n      mstore\n      keccak256(0x00, 0x40)\n      0x00\n      swap2\n      pop\n      swap1\n      pop\n      sload\n      dup2\n      jump\t// out\n        /* \"test2.sol\":1814:1964  function mint(address receiver, uint amount) public payable {\r... */\n    tag_27:\n        /* \"test2.sol\":1903:1909  minter */\n      0x00\n      dup1\n      sload\n      swap1\n      0x0100\n      exp\n      swap1\n      div\n      0xffffffffffffffffffffffffffffffffffffffff\n      and\n        /* \"test2.sol\":1889:1909  msg.sender != minter */\n      0xffffffffffffffffffffffffffffffffffffffff\n      and\n        /* \"test2.sol\":1889:1899  msg.sender */\n      caller\n        /* \"test2.sol\":1889:1909  msg.sender != minter */\n      0xffffffffffffffffffffffffffffffffffffffff\n      and\n      eq\n        /* \"test2.sol\":1885:1918  if (msg.sender != minter) return; */\n      tag_43\n      jumpi\n        /* \"test2.sol\":1911:1918  return; */\n      jump(tag_42)\n        /* \"test2.sol\":1885:1918  if (msg.sender != minter) return; */\n    tag_43:\n        /* \"test2.sol\":1950:1956  amount */\n      dup1\n        /* \"test2.sol\":1928:1936  balances */\n      0x01\n        /* \"test2.sol\":1928:1946  balances[receiver] */\n      0x00\n        /* \"test2.sol\":1937:1945  receiver */\n      dup5\n        /* \"test2.sol\":1928:1946  balances[receiver] */\n      0xffffffffffffffffffffffffffffffffffffffff\n      and\n      0xffffffffffffffffffffffffffffffffffffffff\n      and\n      dup2\n      mstore\n      0x20\n      add\n      swap1\n      dup2\n      mstore\n      0x20\n      add\n      0x00\n      keccak256\n      0x00\n        /* \"test2.sol\":1928:1956  balances[receiver] += amount */\n      dup3\n      dup3\n      sload\n      tag_44\n      swap2\n      swap1\n      tag_45\n      jump\t// in\n    tag_44:\n      swap3\n      pop\n      pop\n      dup2\n      swap1\n      sstore\n      pop\n        /* \"test2.sol\":1814:1964  function mint(address receiver, uint amount) public payable {\r... */\n    tag_42:\n      pop\n      pop\n      jump\t// out\n        /* \"test2.sol\":592:642  mapping(address => Student) public getInfoByWallet */\n    tag_31:\n      mstore(0x20, 0x05)\n      dup1\n      0x00\n      mstore\n      keccak256(0x00, 0x40)\n      0x00\n      swap2\n      pop\n      swap1\n      pop\n      dup1\n      0x00\n      add\n      dup1\n      sload\n      tag_46\n      swap1\n      tag_47\n      jump\t// in\n    tag_46:\n      dup1\n      0x1f\n      add\n      0x20\n      dup1\n      swap2\n      div\n      mul\n      0x20\n      add\n      mload(0x40)\n      swap1\n      dup2\n      add\n      0x40\n      mstore\n      dup1\n      swap3\n      swap2\n      swap1\n      dup2\n      dup2\n      mstore\n      0x20\n      add\n      dup3\n      dup1\n      sload\n      tag_48\n      swap1\n      tag_47\n      jump\t// in\n    tag_48:\n      dup1\n      iszero\n      tag_49\n      jumpi\n      dup1\n      0x1f\n      lt\n      tag_50\n      jumpi\n      0x0100\n      dup1\n      dup4\n      sload\n      div\n      mul\n      dup4\n      mstore\n      swap2\n      0x20\n      add\n      swap2\n      jump(tag_49)\n    tag_50:\n      dup3\n      add\n      swap2\n      swap1\n      0x00\n      mstore\n      keccak256(0x00, 0x20)\n      swap1\n    tag_51:\n      dup2\n      sload\n      dup2\n      mstore\n      swap1\n      0x01\n      add\n      swap1\n      0x20\n      add\n      dup1\n      dup4\n      gt\n      tag_51\n      jumpi\n      dup3\n      swap1\n      sub\n      0x1f\n      and\n      dup3\n      add\n      swap2\n    tag_49:\n      pop\n      pop\n      pop\n      pop\n      pop\n      swap1\n      dup1\n      0x01\n      add\n      sload\n      swap1\n      dup1\n      0x02\n      add\n      dup1\n      sload\n      tag_52\n      swap1\n      tag_47\n      jump\t// in\n    tag_52:\n      dup1\n      0x1f\n      add\n      0x20\n      dup1\n      swap2\n      div\n      mul\n      0x20\n      add\n      mload(0x40)\n      swap1\n      dup2\n      add\n      0x40\n      mstore\n      dup1\n      swap3\n      swap2\n      swap1\n      dup2\n      dup2\n      mstore\n      0x20\n      add\n      dup3\n      dup1\n      sload\n      tag_53\n      swap1\n      tag_47\n      jump\t// in\n    tag_53:\n      dup1\n      iszero\n      tag_54\n      jumpi\n      dup1\n      0x1f\n      lt\n      tag_55\n      jumpi\n      0x0100\n      dup1\n      dup4\n      sload\n      div\n      mul\n      dup4\n      mstore\n      swap2\n      0x20\n      add\n      swap2\n      jump(tag_54)\n    tag_55:\n      dup3\n      add\n      swap2\n      swap1\n      0x00\n      mstore\n      keccak256(0x00, 0x20)\n      swap1\n    tag_56:\n      dup2\n      sload\n      dup2\n      mstore\n      swap1\n      0x01\n      add\n      swap1\n      0x20\n      add\n      dup1\n      dup4\n      gt\n      tag_56\n      jumpi\n      dup3\n      swap1\n      sub\n      0x1f\n      and\n      dup3\n      add\n      swap2\n    tag_54:\n      pop\n      pop\n      pop\n      pop\n      pop\n      swap1\n      dup1\n      0x03\n      add\n      sload\n      swap1\n      dup1\n      0x04\n      add\n      dup1\n      sload\n      tag_57\n      swap1\n      tag_47\n      jump\t// in\n    tag_57:\n      dup1\n      0x1f\n      add\n      0x20\n      dup1\n      swap2\n      div\n      mul\n      0x20\n      add\n      mload(0x40)\n      swap1\n      dup2\n      add\n      0x40\n      mstore\n      dup1\n      swap3\n      swap2\n      swap1\n      dup2\n      dup2\n      mstore\n      0x20\n      add\n      dup3\n      dup1\n      sload\n      tag_58\n      swap1\n      tag_47\n      jump\t// in\n    tag_58:\n      dup1\n      iszero\n      tag_59\n      jumpi\n      dup1\n      0x1f\n      lt\n      tag_60\n      jumpi\n      0x0100\n      dup1\n      dup4\n      sload\n      div\n      mul\n      dup4\n      mstore\n      swap2\n      0x20\n      add\n      swap2\n      jump(tag_59)\n    tag_60:\n      dup3\n      add\n      swap2\n      swap1\n      0x00\n      mstore\n      keccak256(0x00, 0x20)\n      swap1\n    tag_61:\n      dup2\n      sload\n      dup2\n      mstore\n      swap1\n      0x01\n      add\n      swap1\n      0x20\n      add\n      dup1\n      dup4\n      gt\n      tag_61\n      jumpi\n      dup3\n      swap1\n      sub\n      0x1f\n      and\n      dup3\n      add\n      swap2\n    tag_59:\n      pop\n      pop\n      pop\n      pop\n      pop\n      swap1\n      pop\n      dup6\n      jump\t// out\n        /* \"test2.sol\":1972:2222  function send(address receiver, uint amount) public payable {\r... */\n    tag_36:\n        /* \"test2.sol\":2070:2076  amount */\n      dup1\n        /* \"test2.sol\":2047:2055  balances */\n      0x01\n        /* \"test2.sol\":2047:2067  balances[msg.sender] */\n      0x00\n        /* \"test2.sol\":2056:2066  msg.sender */\n      caller\n        /* \"test2.sol\":2047:2067  balances[msg.sender] */\n      0xffffffffffffffffffffffffffffffffffffffff\n      and\n      0xffffffffffffffffffffffffffffffffffffffff\n      and\n      dup2\n      mstore\n      0x20\n      add\n      swap1\n      dup2\n      mstore\n      0x20\n      add\n      0x00\n      keccak256\n      sload\n        /* \"test2.sol\":2047:2076  balances[msg.sender] < amount */\n      lt\n        /* \"test2.sol\":2043:2085  if (balances[msg.sender] < amount) return; */\n      iszero\n      tag_63\n      jumpi\n        /* \"test2.sol\":2078:2085  return; */\n      jump(tag_62)\n        /* \"test2.sol\":2043:2085  if (balances[msg.sender] < amount) return; */\n    tag_63:\n        /* \"test2.sol\":2119:2125  amount */\n      dup1\n        /* \"test2.sol\":2095:2103  balances */\n      0x01\n        /* \"test2.sol\":2095:2115  balances[msg.sender] */\n      0x00\n        /* \"test2.sol\":2104:2114  msg.sender */\n      caller\n        /* \"test2.sol\":2095:2115  balances[msg.sender] */\n      0xffffffffffffffffffffffffffffffffffffffff\n      and\n      0xffffffffffffffffffffffffffffffffffffffff\n      and\n      dup2\n      mstore\n      0x20\n      add\n      swap1\n      dup2\n      mstore\n      0x20\n      add\n      0x00\n      keccak256\n      0x00\n        /* \"test2.sol\":2095:2125  balances[msg.sender] -= amount */\n      dup3\n      dup3\n      sload\n      tag_64\n      swap2\n      swap1\n      tag_65\n      jump\t// in\n    tag_64:\n      swap3\n      pop\n      pop\n      dup2\n      swap1\n      sstore\n      pop\n        /* \"test2.sol\":2158:2164  amount */\n      dup1\n        /* \"test2.sol\":2136:2144  balances */\n      0x01\n        /* \"test2.sol\":2136:2154  balances[receiver] */\n      0x00\n        /* \"test2.sol\":2145:2153  receiver */\n      dup5\n        /* \"test2.sol\":2136:2154  balances[receiver] */\n      0xffffffffffffffffffffffffffffffffffffffff\n      and\n      0xffffffffffffffffffffffffffffffffffffffff\n      and\n      dup2\n      mstore\n      0x20\n      add\n      swap1\n      dup2\n      mstore\n      0x20\n      add\n      0x00\n      keccak256\n      0x00\n        /* \"test2.sol\":2136:2164  balances[receiver] += amount */\n      dup3\n      dup3\n      sload\n      tag_66\n      swap2\n      swap1\n      tag_45\n      jump\t// in\n    tag_66:\n      swap3\n      pop\n      pop\n      dup2\n      swap1\n      sstore\n      pop\n        /* \"test2.sol\":2180:2214  Sent(msg.sender, receiver, amount) */\n      0x3990db2d31862302a685e8086b5755072a6e2b5b780af1ee81ece35ee3cd3345\n        /* \"test2.sol\":2185:2195  msg.sender */\n      caller\n        /* \"test2.sol\":2197:2205  receiver */\n      dup4\n        /* \"test2.sol\":2207:2213  amount */\n      dup4\n        /* \"test2.sol\":2180:2214  Sent(msg.sender, receiver, amount) */\n      mload(0x40)\n      tag_67\n      swap4\n      swap3\n      swap2\n      swap1\n      tag_68\n      jump\t// in\n    tag_67:\n      mload(0x40)\n      dup1\n      swap2\n      sub\n      swap1\n      log1\n        /* \"test2.sol\":1972:2222  function send(address receiver, uint amount) public payable {\r... */\n    tag_62:\n      pop\n      pop\n      jump\t// out\n    tag_39:\n      dup3\n      dup1\n      sload\n      tag_69\n      swap1\n      tag_47\n      jump\t// in\n    tag_69:\n      swap1\n      0x00\n      mstore\n      keccak256(0x00, 0x20)\n      swap1\n      0x1f\n      add\n      0x20\n      swap1\n      div\n      dup2\n      add\n      swap3\n      dup3\n      tag_71\n      jumpi\n      0x00\n      dup6\n      sstore\n      jump(tag_70)\n    tag_71:\n      dup3\n      0x1f\n      lt\n      tag_72\n      jumpi\n      dup1\n      mload\n      not(0xff)\n      and\n      dup4\n      dup1\n      add\n      or\n      dup6\n      sstore\n      jump(tag_70)\n    tag_72:\n      dup3\n      dup1\n      add\n      0x01\n      add\n      dup6\n      sstore\n      dup3\n      iszero\n      tag_70\n      jumpi\n      swap2\n      dup3\n      add\n    tag_73:\n      dup3\n      dup2\n      gt\n      iszero\n      tag_74\n      jumpi\n      dup3\n      mload\n      dup3\n      sstore\n      swap2\n      0x20\n      add\n      swap2\n      swap1\n      0x01\n      add\n      swap1\n      jump(tag_73)\n    tag_74:\n    tag_70:\n      pop\n      swap1\n      pop\n      tag_75\n      swap2\n      swap1\n      tag_76\n      jump\t// in\n    tag_75:\n      pop\n      swap1\n      jump\t// out\n    tag_76:\n    tag_77:\n      dup1\n      dup3\n      gt\n      iszero\n      tag_78\n      jumpi\n      0x00\n      dup2\n      0x00\n      swap1\n      sstore\n      pop\n      0x01\n      add\n      jump(tag_77)\n    tag_78:\n      pop\n      swap1\n      jump\t// out\n        /* \"#utility.yul\":7:419   */\n    tag_80:\n        /* \"#utility.yul\":85:90   */\n      0x00\n        /* \"#utility.yul\":110:176   */\n      tag_82\n        /* \"#utility.yul\":126:175   */\n      tag_83\n        /* \"#utility.yul\":168:174   */\n      dup5\n        /* \"#utility.yul\":126:175   */\n      tag_84\n      jump\t// in\n    tag_83:\n        /* \"#utility.yul\":110:176   */\n      tag_85\n      jump\t// in\n    tag_82:\n        /* \"#utility.yul\":101:176   */\n      swap1\n      pop\n        /* \"#utility.yul\":199:205   */\n      dup3\n        /* \"#utility.yul\":192:197   */\n      dup2\n        /* \"#utility.yul\":185:206   */\n      mstore\n        /* \"#utility.yul\":237:241   */\n      0x20\n        /* \"#utility.yul\":230:235   */\n      dup2\n        /* \"#utility.yul\":226:242   */\n      add\n        /* \"#utility.yul\":275:278   */\n      dup5\n        /* \"#utility.yul\":266:272   */\n      dup5\n        /* \"#utility.yul\":261:264   */\n      dup5\n        /* \"#utility.yul\":257:273   */\n      add\n        /* \"#utility.yul\":254:279   */\n      gt\n        /* \"#utility.yul\":251:363   */\n      iszero\n      tag_86\n      jumpi\n        /* \"#utility.yul\":282:361   */\n      tag_87\n      tag_88\n      jump\t// in\n    tag_87:\n        /* \"#utility.yul\":251:363   */\n    tag_86:\n        /* \"#utility.yul\":372:413   */\n      tag_89\n        /* \"#utility.yul\":406:412   */\n      dup5\n        /* \"#utility.yul\":401:404   */\n      dup3\n        /* \"#utility.yul\":396:399   */\n      dup6\n        /* \"#utility.yul\":372:413   */\n      tag_90\n      jump\t// in\n    tag_89:\n        /* \"#utility.yul\":91:419   */\n      pop\n        /* \"#utility.yul\":7:419   */\n      swap4\n      swap3\n      pop\n      pop\n      pop\n      jump\t// out\n        /* \"#utility.yul\":425:564   */\n    tag_91:\n        /* \"#utility.yul\":471:476   */\n      0x00\n        /* \"#utility.yul\":509:515   */\n      dup2\n        /* \"#utility.yul\":496:516   */\n      calldataload\n        /* \"#utility.yul\":487:516   */\n      swap1\n      pop\n        /* \"#utility.yul\":525:558   */\n      tag_93\n        /* \"#utility.yul\":552:557   */\n      dup2\n        /* \"#utility.yul\":525:558   */\n      tag_94\n      jump\t// in\n    tag_93:\n        /* \"#utility.yul\":425:564   */\n      swap3\n      swap2\n      pop\n      pop\n      jump\t// out\n        /* \"#utility.yul\":584:924   */\n    tag_95:\n        /* \"#utility.yul\":640:645   */\n      0x00\n        /* \"#utility.yul\":689:692   */\n      dup3\n        /* \"#utility.yul\":682:686   */\n      0x1f\n        /* \"#utility.yul\":674:680   */\n      dup4\n        /* \"#utility.yul\":670:687   */\n      add\n        /* \"#utility.yul\":666:693   */\n      slt\n        /* \"#utility.yul\":656:778   */\n      tag_97\n      jumpi\n        /* \"#utility.yul\":697:776   */\n      tag_98\n      tag_99\n      jump\t// in\n    tag_98:\n        /* \"#utility.yul\":656:778   */\n    tag_97:\n        /* \"#utility.yul\":814:820   */\n      dup2\n        /* \"#utility.yul\":801:821   */\n      calldataload\n        /* \"#utility.yul\":839:918   */\n      tag_100\n        /* \"#utility.yul\":914:917   */\n      dup5\n        /* \"#utility.yul\":906:912   */\n      dup3\n        /* \"#utility.yul\":899:903   */\n      0x20\n        /* \"#utility.yul\":891:897   */\n      dup7\n        /* \"#utility.yul\":887:904   */\n      add\n        /* \"#utility.yul\":839:918   */\n      tag_80\n      jump\t// in\n    tag_100:\n        /* \"#utility.yul\":830:918   */\n      swap2\n      pop\n        /* \"#utility.yul\":646:924   */\n      pop\n        /* \"#utility.yul\":584:924   */\n      swap3\n      swap2\n      pop\n      pop\n      jump\t// out\n        /* \"#utility.yul\":930:1069   */\n    tag_101:\n        /* \"#utility.yul\":976:981   */\n      0x00\n        /* \"#utility.yul\":1014:1020   */\n      dup2\n        /* \"#utility.yul\":1001:1021   */\n      calldataload\n        /* \"#utility.yul\":992:1021   */\n      swap1\n      pop\n        /* \"#utility.yul\":1030:1063   */\n      tag_103\n        /* \"#utility.yul\":1057:1062   */\n      dup2\n        /* \"#utility.yul\":1030:1063   */\n      tag_104\n      jump\t// in\n    tag_103:\n        /* \"#utility.yul\":930:1069   */\n      swap3\n      swap2\n      pop\n      pop\n      jump\t// out\n        /* \"#utility.yul\":1075:1404   */\n    tag_20:\n        /* \"#utility.yul\":1134:1140   */\n      0x00\n        /* \"#utility.yul\":1183:1185   */\n      0x20\n        /* \"#utility.yul\":1171:1180   */\n      dup3\n        /* \"#utility.yul\":1162:1169   */\n      dup5\n        /* \"#utility.yul\":1158:1181   */\n      sub\n        /* \"#utility.yul\":1154:1186   */\n      slt\n        /* \"#utility.yul\":1151:1270   */\n      iszero\n      tag_106\n      jumpi\n        /* \"#utility.yul\":1189:1268   */\n      tag_107\n      tag_108\n      jump\t// in\n    tag_107:\n        /* \"#utility.yul\":1151:1270   */\n    tag_106:\n        /* \"#utility.yul\":1309:1310   */\n      0x00\n        /* \"#utility.yul\":1334:1387   */\n      tag_109\n        /* \"#utility.yul\":1379:1386   */\n      dup5\n        /* \"#utility.yul\":1370:1376   */\n      dup3\n        /* \"#utility.yul\":1359:1368   */\n      dup6\n        /* \"#utility.yul\":1355:1377   */\n      add\n        /* \"#utility.yul\":1334:1387   */\n      tag_91\n      jump\t// in\n    tag_109:\n        /* \"#utility.yul\":1324:1387   */\n      swap2\n      pop\n        /* \"#utility.yul\":1280:1397   */\n      pop\n        /* \"#utility.yul\":1075:1404   */\n      swap3\n      swap2\n      pop\n      pop\n      jump\t// out\n        /* \"#utility.yul\":1410:3007   */\n    tag_15:\n        /* \"#utility.yul\":1544:1550   */\n      0x00\n        /* \"#utility.yul\":1552:1558   */\n      dup1\n        /* \"#utility.yul\":1560:1566   */\n      0x00\n        /* \"#utility.yul\":1568:1574   */\n      dup1\n        /* \"#utility.yul\":1576:1582   */\n      0x00\n        /* \"#utility.yul\":1584:1590   */\n      dup1\n        /* \"#utility.yul\":1633:1636   */\n      0xc0\n        /* \"#utility.yul\":1621:1630   */\n      dup8\n        /* \"#utility.yul\":1612:1619   */\n      dup10\n        /* \"#utility.yul\":1608:1631   */\n      sub\n        /* \"#utility.yul\":1604:1637   */\n      slt\n        /* \"#utility.yul\":1601:1721   */\n      iszero\n      tag_111\n      jumpi\n        /* \"#utility.yul\":1640:1719   */\n      tag_112\n      tag_108\n      jump\t// in\n    tag_112:\n        /* \"#utility.yul\":1601:1721   */\n    tag_111:\n        /* \"#utility.yul\":1760:1761   */\n      0x00\n        /* \"#utility.yul\":1785:1838   */\n      tag_113\n        /* \"#utility.yul\":1830:1837   */\n      dup10\n        /* \"#utility.yul\":1821:1827   */\n      dup3\n        /* \"#utility.yul\":1810:1819   */\n      dup11\n        /* \"#utility.yul\":1806:1828   */\n      add\n        /* \"#utility.yul\":1785:1838   */\n      tag_91\n      jump\t// in\n    tag_113:\n        /* \"#utility.yul\":1775:1838   */\n      swap7\n      pop\n        /* \"#utility.yul\":1731:1848   */\n      pop\n        /* \"#utility.yul\":1915:1917   */\n      0x20\n        /* \"#utility.yul\":1904:1913   */\n      dup8\n        /* \"#utility.yul\":1900:1918   */\n      add\n        /* \"#utility.yul\":1887:1919   */\n      calldataload\n        /* \"#utility.yul\":1946:1964   */\n      0xffffffffffffffff\n        /* \"#utility.yul\":1938:1944   */\n      dup2\n        /* \"#utility.yul\":1935:1965   */\n      gt\n        /* \"#utility.yul\":1932:2049   */\n      iszero\n      tag_114\n      jumpi\n        /* \"#utility.yul\":1968:2047   */\n      tag_115\n      tag_116\n      jump\t// in\n    tag_115:\n        /* \"#utility.yul\":1932:2049   */\n    tag_114:\n        /* \"#utility.yul\":2073:2136   */\n      tag_117\n        /* \"#utility.yul\":2128:2135   */\n      dup10\n        /* \"#utility.yul\":2119:2125   */\n      dup3\n        /* \"#utility.yul\":2108:2117   */\n      dup11\n        /* \"#utility.yul\":2104:2126   */\n      add\n        /* \"#utility.yul\":2073:2136   */\n      tag_95\n      jump\t// in\n    tag_117:\n        /* \"#utility.yul\":2063:2136   */\n      swap6\n      pop\n        /* \"#utility.yul\":1858:2146   */\n      pop\n        /* \"#utility.yul\":2185:2187   */\n      0x40\n        /* \"#utility.yul\":2211:2264   */\n      tag_118\n        /* \"#utility.yul\":2256:2263   */\n      dup10\n        /* \"#utility.yul\":2247:2253   */\n      dup3\n        /* \"#utility.yul\":2236:2245   */\n      dup11\n        /* \"#utility.yul\":2232:2254   */\n      add\n        /* \"#utility.yul\":2211:2264   */\n      tag_101\n      jump\t// in\n    tag_118:\n        /* \"#utility.yul\":2201:2264   */\n      swap5\n      pop\n        /* \"#utility.yul\":2156:2274   */\n      pop\n        /* \"#utility.yul\":2341:2343   */\n      0x60\n        /* \"#utility.yul\":2330:2339   */\n      dup8\n        /* \"#utility.yul\":2326:2344   */\n      add\n        /* \"#utility.yul\":2313:2345   */\n      calldataload\n        /* \"#utility.yul\":2372:2390   */\n      0xffffffffffffffff\n        /* \"#utility.yul\":2364:2370   */\n      dup2\n        /* \"#utility.yul\":2361:2391   */\n      gt\n        /* \"#utility.yul\":2358:2475   */\n      iszero\n      tag_119\n      jumpi\n        /* \"#utility.yul\":2394:2473   */\n      tag_120\n      tag_116\n      jump\t// in\n    tag_120:\n        /* \"#utility.yul\":2358:2475   */\n    tag_119:\n        /* \"#utility.yul\":2499:2562   */\n      tag_121\n        /* \"#utility.yul\":2554:2561   */\n      dup10\n        /* \"#utility.yul\":2545:2551   */\n      dup3\n        /* \"#utility.yul\":2534:2543   */\n      dup11\n        /* \"#utility.yul\":2530:2552   */\n      add\n        /* \"#utility.yul\":2499:2562   */\n      tag_95\n      jump\t// in\n    tag_121:\n        /* \"#utility.yul\":2489:2562   */\n      swap4\n      pop\n        /* \"#utility.yul\":2284:2572   */\n      pop\n        /* \"#utility.yul\":2611:2614   */\n      0x80\n        /* \"#utility.yul\":2638:2691   */\n      tag_122\n        /* \"#utility.yul\":2683:2690   */\n      dup10\n        /* \"#utility.yul\":2674:2680   */\n      dup3\n        /* \"#utility.yul\":2663:2672   */\n      dup11\n        /* \"#utility.yul\":2659:2681   */\n      add\n        /* \"#utility.yul\":2638:2691   */\n      tag_101\n      jump\t// in\n    tag_122:\n        /* \"#utility.yul\":2628:2691   */\n      swap3\n      pop\n        /* \"#utility.yul\":2582:2701   */\n      pop\n        /* \"#utility.yul\":2768:2771   */\n      0xa0\n        /* \"#utility.yul\":2757:2766   */\n      dup8\n        /* \"#utility.yul\":2753:2772   */\n      add\n        /* \"#utility.yul\":2740:2773   */\n      calldataload\n        /* \"#utility.yul\":2800:2818   */\n      0xffffffffffffffff\n        /* \"#utility.yul\":2792:2798   */\n      dup2\n        /* \"#utility.yul\":2789:2819   */\n      gt\n        /* \"#utility.yul\":2786:2903   */\n      iszero\n      tag_123\n      jumpi\n        /* \"#utility.yul\":2822:2901   */\n      tag_124\n      tag_116\n      jump\t// in\n    tag_124:\n        /* \"#utility.yul\":2786:2903   */\n    tag_123:\n        /* \"#utility.yul\":2927:2990   */\n      tag_125\n        /* \"#utility.yul\":2982:2989   */\n      dup10\n        /* \"#utility.yul\":2973:2979   */\n      dup3\n        /* \"#utility.yul\":2962:2971   */\n      dup11\n        /* \"#utility.yul\":2958:2980   */\n      add\n        /* \"#utility.yul\":2927:2990   */\n      tag_95\n      jump\t// in\n    tag_125:\n        /* \"#utility.yul\":2917:2990   */\n      swap2\n      pop\n        /* \"#utility.yul\":2711:3000   */\n      pop\n        /* \"#utility.yul\":1410:3007   */\n      swap3\n      swap6\n      pop\n      swap3\n      swap6\n      pop\n      swap3\n      swap6\n      jump\t// out\n        /* \"#utility.yul\":3013:3487   */\n    tag_26:\n        /* \"#utility.yul\":3081:3087   */\n      0x00\n        /* \"#utility.yul\":3089:3095   */\n      dup1\n        /* \"#utility.yul\":3138:3140   */\n      0x40\n        /* \"#utility.yul\":3126:3135   */\n      dup4\n        /* \"#utility.yul\":3117:3124   */\n      dup6\n        /* \"#utility.yul\":3113:3136   */\n      sub\n        /* \"#utility.yul\":3109:3141   */\n      slt\n        /* \"#utility.yul\":3106:3225   */\n      iszero\n      tag_127\n      jumpi\n        /* \"#utility.yul\":3144:3223   */\n      tag_128\n      tag_108\n      jump\t// in\n    tag_128:\n        /* \"#utility.yul\":3106:3225   */\n    tag_127:\n        /* \"#utility.yul\":3264:3265   */\n      0x00\n        /* \"#utility.yul\":3289:3342   */\n      tag_129\n        /* \"#utility.yul\":3334:3341   */\n      dup6\n        /* \"#utility.yul\":3325:3331   */\n      dup3\n        /* \"#utility.yul\":3314:3323   */\n      dup7\n        /* \"#utility.yul\":3310:3332   */\n      add\n        /* \"#utility.yul\":3289:3342   */\n      tag_91\n      jump\t// in\n    tag_129:\n        /* \"#utility.yul\":3279:3342   */\n      swap3\n      pop\n        /* \"#utility.yul\":3235:3352   */\n      pop\n        /* \"#utility.yul\":3391:3393   */\n      0x20\n        /* \"#utility.yul\":3417:3470   */\n      tag_130\n        /* \"#utility.yul\":3462:3469   */\n      dup6\n        /* \"#utility.yul\":3453:3459   */\n      dup3\n        /* \"#utility.yul\":3442:3451   */\n      dup7\n        /* \"#utility.yul\":3438:3460   */\n      add\n        /* \"#utility.yul\":3417:3470   */\n      tag_101\n      jump\t// in\n    tag_130:\n        /* \"#utility.yul\":3407:3470   */\n      swap2\n      pop\n        /* \"#utility.yul\":3362:3480   */\n      pop\n        /* \"#utility.yul\":3013:3487   */\n      swap3\n      pop\n      swap3\n      swap1\n      pop\n      jump\t// out\n        /* \"#utility.yul\":3493:3611   */\n    tag_131:\n        /* \"#utility.yul\":3580:3604   */\n      tag_133\n        /* \"#utility.yul\":3598:3603   */\n      dup2\n        /* \"#utility.yul\":3580:3604   */\n      tag_134\n      jump\t// in\n    tag_133:\n        /* \"#utility.yul\":3575:3578   */\n      dup3\n        /* \"#utility.yul\":3568:3605   */\n      mstore\n        /* \"#utility.yul\":3493:3611   */\n      pop\n      pop\n      jump\t// out\n        /* \"#utility.yul\":3617:3981   */\n    tag_135:\n        /* \"#utility.yul\":3705:3708   */\n      0x00\n        /* \"#utility.yul\":3733:3772   */\n      tag_137\n        /* \"#utility.yul\":3766:3771   */\n      dup3\n        /* \"#utility.yul\":3733:3772   */\n      tag_138\n      jump\t// in\n    tag_137:\n        /* \"#utility.yul\":3788:3859   */\n      tag_139\n        /* \"#utility.yul\":3852:3858   */\n      dup2\n        /* \"#utility.yul\":3847:3850   */\n      dup6\n        /* \"#utility.yul\":3788:3859   */\n      tag_140\n      jump\t// in\n    tag_139:\n        /* \"#utility.yul\":3781:3859   */\n      swap4\n      pop\n        /* \"#utility.yul\":3868:3920   */\n      tag_141\n        /* \"#utility.yul\":3913:3919   */\n      dup2\n        /* \"#utility.yul\":3908:3911   */\n      dup6\n        /* \"#utility.yul\":3901:3905   */\n      0x20\n        /* \"#utility.yul\":3894:3899   */\n      dup7\n        /* \"#utility.yul\":3890:3906   */\n      add\n        /* \"#utility.yul\":3868:3920   */\n      tag_142\n      jump\t// in\n    tag_141:\n        /* \"#utility.yul\":3945:3974   */\n      tag_143\n        /* \"#utility.yul\":3967:3973   */\n      dup2\n        /* \"#utility.yul\":3945:3974   */\n      tag_144\n      jump\t// in\n    tag_143:\n        /* \"#utility.yul\":3940:3943   */\n      dup5\n        /* \"#utility.yul\":3936:3975   */\n      add\n        /* \"#utility.yul\":3929:3975   */\n      swap2\n      pop\n        /* \"#utility.yul\":3709:3981   */\n      pop\n        /* \"#utility.yul\":3617:3981   */\n      swap3\n      swap2\n      pop\n      pop\n      jump\t// out\n        /* \"#utility.yul\":3987:4105   */\n    tag_145:\n        /* \"#utility.yul\":4074:4098   */\n      tag_147\n        /* \"#utility.yul\":4092:4097   */\n      dup2\n        /* \"#utility.yul\":4074:4098   */\n      tag_148\n      jump\t// in\n    tag_147:\n        /* \"#utility.yul\":4069:4072   */\n      dup3\n        /* \"#utility.yul\":4062:4099   */\n      mstore\n        /* \"#utility.yul\":3987:4105   */\n      pop\n      pop\n      jump\t// out\n        /* \"#utility.yul\":4111:4333   */\n    tag_12:\n        /* \"#utility.yul\":4204:4208   */\n      0x00\n        /* \"#utility.yul\":4242:4244   */\n      0x20\n        /* \"#utility.yul\":4231:4240   */\n      dup3\n        /* \"#utility.yul\":4227:4245   */\n      add\n        /* \"#utility.yul\":4219:4245   */\n      swap1\n      pop\n        /* \"#utility.yul\":4255:4326   */\n      tag_150\n        /* \"#utility.yul\":4323:4324   */\n      0x00\n        /* \"#utility.yul\":4312:4321   */\n      dup4\n        /* \"#utility.yul\":4308:4325   */\n      add\n        /* \"#utility.yul\":4299:4305   */\n      dup5\n        /* \"#utility.yul\":4255:4326   */\n      tag_131\n      jump\t// in\n    tag_150:\n        /* \"#utility.yul\":4111:4333   */\n      swap3\n      swap2\n      pop\n      pop\n      jump\t// out\n        /* \"#utility.yul\":4339:4781   */\n    tag_68:\n        /* \"#utility.yul\":4488:4492   */\n      0x00\n        /* \"#utility.yul\":4526:4528   */\n      0x60\n        /* \"#utility.yul\":4515:4524   */\n      dup3\n        /* \"#utility.yul\":4511:4529   */\n      add\n        /* \"#utility.yul\":4503:4529   */\n      swap1\n      pop\n        /* \"#utility.yul\":4539:4610   */\n      tag_152\n        /* \"#utility.yul\":4607:4608   */\n      0x00\n        /* \"#utility.yul\":4596:4605   */\n      dup4\n        /* \"#utility.yul\":4592:4609   */\n      add\n        /* \"#utility.yul\":4583:4589   */\n      dup7\n        /* \"#utility.yul\":4539:4610   */\n      tag_131\n      jump\t// in\n    tag_152:\n        /* \"#utility.yul\":4620:4692   */\n      tag_153\n        /* \"#utility.yul\":4688:4690   */\n      0x20\n        /* \"#utility.yul\":4677:4686   */\n      dup4\n        /* \"#utility.yul\":4673:4691   */\n      add\n        /* \"#utility.yul\":4664:4670   */\n      dup6\n        /* \"#utility.yul\":4620:4692   */\n      tag_131\n      jump\t// in\n    tag_153:\n        /* \"#utility.yul\":4702:4774   */\n      tag_154\n        /* \"#utility.yul\":4770:4772   */\n      0x40\n        /* \"#utility.yul\":4759:4768   */\n      dup4\n        /* \"#utility.yul\":4755:4773   */\n      add\n        /* \"#utility.yul\":4746:4752   */\n      dup5\n        /* \"#utility.yul\":4702:4774   */\n      tag_145\n      jump\t// in\n    tag_154:\n        /* \"#utility.yul\":4339:4781   */\n      swap5\n      swap4\n      pop\n      pop\n      pop\n      pop\n      jump\t// out\n        /* \"#utility.yul\":4787:5724   */\n    tag_33:\n        /* \"#utility.yul\":5052:5056   */\n      0x00\n        /* \"#utility.yul\":5090:5093   */\n      0xa0\n        /* \"#utility.yul\":5079:5088   */\n      dup3\n        /* \"#utility.yul\":5075:5094   */\n      add\n        /* \"#utility.yul\":5067:5094   */\n      swap1\n      pop\n        /* \"#utility.yul\":5140:5149   */\n      dup2\n        /* \"#utility.yul\":5134:5138   */\n      dup2\n        /* \"#utility.yul\":5130:5150   */\n      sub\n        /* \"#utility.yul\":5126:5127   */\n      0x00\n        /* \"#utility.yul\":5115:5124   */\n      dup4\n        /* \"#utility.yul\":5111:5128   */\n      add\n        /* \"#utility.yul\":5104:5151   */\n      mstore\n        /* \"#utility.yul\":5168:5246   */\n      tag_156\n        /* \"#utility.yul\":5241:5245   */\n      dup2\n        /* \"#utility.yul\":5232:5238   */\n      dup9\n        /* \"#utility.yul\":5168:5246   */\n      tag_135\n      jump\t// in\n    tag_156:\n        /* \"#utility.yul\":5160:5246   */\n      swap1\n      pop\n        /* \"#utility.yul\":5256:5328   */\n      tag_157\n        /* \"#utility.yul\":5324:5326   */\n      0x20\n        /* \"#utility.yul\":5313:5322   */\n      dup4\n        /* \"#utility.yul\":5309:5327   */\n      add\n        /* \"#utility.yul\":5300:5306   */\n      dup8\n        /* \"#utility.yul\":5256:5328   */\n      tag_145\n      jump\t// in\n    tag_157:\n        /* \"#utility.yul\":5375:5384   */\n      dup2\n        /* \"#utility.yul\":5369:5373   */\n      dup2\n        /* \"#utility.yul\":5365:5385   */\n      sub\n        /* \"#utility.yul\":5360:5362   */\n      0x40\n        /* \"#utility.yul\":5349:5358   */\n      dup4\n        /* \"#utility.yul\":5345:5363   */\n      add\n        /* \"#utility.yul\":5338:5386   */\n      mstore\n        /* \"#utility.yul\":5403:5481   */\n      tag_158\n        /* \"#utility.yul\":5476:5480   */\n      dup2\n        /* \"#utility.yul\":5467:5473   */\n      dup7\n        /* \"#utility.yul\":5403:5481   */\n      tag_135\n      jump\t// in\n    tag_158:\n        /* \"#utility.yul\":5395:5481   */\n      swap1\n      pop\n        /* \"#utility.yul\":5491:5563   */\n      tag_159\n        /* \"#utility.yul\":5559:5561   */\n      0x60\n        /* \"#utility.yul\":5548:5557   */\n      dup4\n        /* \"#utility.yul\":5544:5562   */\n      add\n        /* \"#utility.yul\":5535:5541   */\n      dup6\n        /* \"#utility.yul\":5491:5563   */\n      tag_145\n      jump\t// in\n    tag_159:\n        /* \"#utility.yul\":5611:5620   */\n      dup2\n        /* \"#utility.yul\":5605:5609   */\n      dup2\n        /* \"#utility.yul\":5601:5621   */\n      sub\n        /* \"#utility.yul\":5595:5598   */\n      0x80\n        /* \"#utility.yul\":5584:5593   */\n      dup4\n        /* \"#utility.yul\":5580:5599   */\n      add\n        /* \"#utility.yul\":5573:5622   */\n      mstore\n        /* \"#utility.yul\":5639:5717   */\n      tag_160\n        /* \"#utility.yul\":5712:5716   */\n      dup2\n        /* \"#utility.yul\":5703:5709   */\n      dup5\n        /* \"#utility.yul\":5639:5717   */\n      tag_135\n      jump\t// in\n    tag_160:\n        /* \"#utility.yul\":5631:5717   */\n      swap1\n      pop\n        /* \"#utility.yul\":4787:5724   */\n      swap7\n      swap6\n      pop\n      pop\n      pop\n      pop\n      pop\n      pop\n      jump\t// out\n        /* \"#utility.yul\":5730:5952   */\n    tag_23:\n        /* \"#utility.yul\":5823:5827   */\n      0x00\n        /* \"#utility.yul\":5861:5863   */\n      0x20\n        /* \"#utility.yul\":5850:5859   */\n      dup3\n        /* \"#utility.yul\":5846:5864   */\n      add\n        /* \"#utility.yul\":5838:5864   */\n      swap1\n      pop\n        /* \"#utility.yul\":5874:5945   */\n      tag_162\n        /* \"#utility.yul\":5942:5943   */\n      0x00\n        /* \"#utility.yul\":5931:5940   */\n      dup4\n        /* \"#utility.yul\":5927:5944   */\n      add\n        /* \"#utility.yul\":5918:5924   */\n      dup5\n        /* \"#utility.yul\":5874:5945   */\n      tag_145\n      jump\t// in\n    tag_162:\n        /* \"#utility.yul\":5730:5952   */\n      swap3\n      swap2\n      pop\n      pop\n      jump\t// out\n        /* \"#utility.yul\":5958:6087   */\n    tag_85:\n        /* \"#utility.yul\":5992:5998   */\n      0x00\n        /* \"#utility.yul\":6019:6039   */\n      tag_164\n      tag_165\n      jump\t// in\n    tag_164:\n        /* \"#utility.yul\":6009:6039   */\n      swap1\n      pop\n        /* \"#utility.yul\":6048:6081   */\n      tag_166\n        /* \"#utility.yul\":6076:6080   */\n      dup3\n        /* \"#utility.yul\":6068:6074   */\n      dup3\n        /* \"#utility.yul\":6048:6081   */\n      tag_167\n      jump\t// in\n    tag_166:\n        /* \"#utility.yul\":5958:6087   */\n      swap2\n      swap1\n      pop\n      jump\t// out\n        /* \"#utility.yul\":6093:6168   */\n    tag_165:\n        /* \"#utility.yul\":6126:6132   */\n      0x00\n        /* \"#utility.yul\":6159:6161   */\n      0x40\n        /* \"#utility.yul\":6153:6162   */\n      mload\n        /* \"#utility.yul\":6143:6162   */\n      swap1\n      pop\n        /* \"#utility.yul\":6093:6168   */\n      swap1\n      jump\t// out\n        /* \"#utility.yul\":6174:6482   */\n    tag_84:\n        /* \"#utility.yul\":6236:6240   */\n      0x00\n        /* \"#utility.yul\":6326:6344   */\n      0xffffffffffffffff\n        /* \"#utility.yul\":6318:6324   */\n      dup3\n        /* \"#utility.yul\":6315:6345   */\n      gt\n        /* \"#utility.yul\":6312:6368   */\n      iszero\n      tag_170\n      jumpi\n        /* \"#utility.yul\":6348:6366   */\n      tag_171\n      tag_172\n      jump\t// in\n    tag_171:\n        /* \"#utility.yul\":6312:6368   */\n    tag_170:\n        /* \"#utility.yul\":6386:6415   */\n      tag_173\n        /* \"#utility.yul\":6408:6414   */\n      dup3\n        /* \"#utility.yul\":6386:6415   */\n      tag_144\n      jump\t// in\n    tag_173:\n        /* \"#utility.yul\":6378:6415   */\n      swap1\n      pop\n        /* \"#utility.yul\":6470:6474   */\n      0x20\n        /* \"#utility.yul\":6464:6468   */\n      dup2\n        /* \"#utility.yul\":6460:6475   */\n      add\n        /* \"#utility.yul\":6452:6475   */\n      swap1\n      pop\n        /* \"#utility.yul\":6174:6482   */\n      swap2\n      swap1\n      pop\n      jump\t// out\n        /* \"#utility.yul\":6488:6587   */\n    tag_138:\n        /* \"#utility.yul\":6540:6546   */\n      0x00\n        /* \"#utility.yul\":6574:6579   */\n      dup2\n        /* \"#utility.yul\":6568:6580   */\n      mload\n        /* \"#utility.yul\":6558:6580   */\n      swap1\n      pop\n        /* \"#utility.yul\":6488:6587   */\n      swap2\n      swap1\n      pop\n      jump\t// out\n        /* \"#utility.yul\":6593:6762   */\n    tag_140:\n        /* \"#utility.yul\":6677:6688   */\n      0x00\n        /* \"#utility.yul\":6711:6717   */\n      dup3\n        /* \"#utility.yul\":6706:6709   */\n      dup3\n        /* \"#utility.yul\":6699:6718   */\n      mstore\n        /* \"#utility.yul\":6751:6755   */\n      0x20\n        /* \"#utility.yul\":6746:6749   */\n      dup3\n        /* \"#utility.yul\":6742:6756   */\n      add\n        /* \"#utility.yul\":6727:6756   */\n      swap1\n      pop\n        /* \"#utility.yul\":6593:6762   */\n      swap3\n      swap2\n      pop\n      pop\n      jump\t// out\n        /* \"#utility.yul\":6768:7073   */\n    tag_45:\n        /* \"#utility.yul\":6808:6811   */\n      0x00\n        /* \"#utility.yul\":6827:6847   */\n      tag_177\n        /* \"#utility.yul\":6845:6846   */\n      dup3\n        /* \"#utility.yul\":6827:6847   */\n      tag_148\n      jump\t// in\n    tag_177:\n        /* \"#utility.yul\":6822:6847   */\n      swap2\n      pop\n        /* \"#utility.yul\":6861:6881   */\n      tag_178\n        /* \"#utility.yul\":6879:6880   */\n      dup4\n        /* \"#utility.yul\":6861:6881   */\n      tag_148\n      jump\t// in\n    tag_178:\n        /* \"#utility.yul\":6856:6881   */\n      swap3\n      pop\n        /* \"#utility.yul\":7015:7016   */\n      dup3\n        /* \"#utility.yul\":6947:7013   */\n      0xffffffffffffffffffffffffffffffffffffffffffffffffffffffffffffffff\n        /* \"#utility.yul\":6943:7017   */\n      sub\n        /* \"#utility.yul\":6940:6941   */\n      dup3\n        /* \"#utility.yul\":6937:7018   */\n      gt\n        /* \"#utility.yul\":6934:7041   */\n      iszero\n      tag_179\n      jumpi\n        /* \"#utility.yul\":7021:7039   */\n      tag_180\n      tag_181\n      jump\t// in\n    tag_180:\n        /* \"#utility.yul\":6934:7041   */\n    tag_179:\n        /* \"#utility.yul\":7065:7066   */\n      dup3\n        /* \"#utility.yul\":7062:7063   */\n      dup3\n        /* \"#utility.yul\":7058:7067   */\n      add\n        /* \"#utility.yul\":7051:7067   */\n      swap1\n      pop\n        /* \"#utility.yul\":6768:7073   */\n      swap3\n      swap2\n      pop\n      pop\n      jump\t// out\n        /* \"#utility.yul\":7079:7270   */\n    tag_65:\n        /* \"#utility.yul\":7119:7123   */\n      0x00\n        /* \"#utility.yul\":7139:7159   */\n      tag_183\n        /* \"#utility.yul\":7157:7158   */\n      dup3\n        /* \"#utility.yul\":7139:7159   */\n      tag_148\n      jump\t// in\n    tag_183:\n        /* \"#utility.yul\":7134:7159   */\n      swap2\n      pop\n        /* \"#utility.yul\":7173:7193   */\n      tag_184\n        /* \"#utility.yul\":7191:7192   */\n      dup4\n        /* \"#utility.yul\":7173:7193   */\n      tag_148\n      jump\t// in\n    tag_184:\n        /* \"#utility.yul\":7168:7193   */\n      swap3\n      pop\n        /* \"#utility.yul\":7212:7213   */\n      dup3\n        /* \"#utility.yul\":7209:7210   */\n      dup3\n        /* \"#utility.yul\":7206:7214   */\n      lt\n        /* \"#utility.yul\":7203:7237   */\n      iszero\n      tag_185\n      jumpi\n        /* \"#utility.yul\":7217:7235   */\n      tag_186\n      tag_181\n      jump\t// in\n    tag_186:\n        /* \"#utility.yul\":7203:7237   */\n    tag_185:\n        /* \"#utility.yul\":7262:7263   */\n      dup3\n        /* \"#utility.yul\":7259:7260   */\n      dup3\n        /* \"#utility.yul\":7255:7264   */\n      sub\n        /* \"#utility.yul\":7247:7264   */\n      swap1\n      pop\n        /* \"#utility.yul\":7079:7270   */\n      swap3\n      swap2\n      pop\n      pop\n      jump\t// out\n        /* \"#utility.yul\":7276:7372   */\n    tag_134:\n        /* \"#utility.yul\":7313:7320   */\n      0x00\n        /* \"#utility.yul\":7342:7366   */\n      tag_188\n        /* \"#utility.yul\":7360:7365   */\n      dup3\n        /* \"#utility.yul\":7342:7366   */\n      tag_189\n      jump\t// in\n    tag_188:\n        /* \"#utility.yul\":7331:7366   */\n      swap1\n      pop\n        /* \"#utility.yul\":7276:7372   */\n      swap2\n      swap1\n      pop\n      jump\t// out\n        /* \"#utility.yul\":7378:7504   */\n    tag_189:\n        /* \"#utility.yul\":7415:7422   */\n      0x00\n        /* \"#utility.yul\":7455:7497   */\n      0xffffffffffffffffffffffffffffffffffffffff\n        /* \"#utility.yul\":7448:7453   */\n      dup3\n        /* \"#utility.yul\":7444:7498   */\n      and\n        /* \"#utility.yul\":7433:7498   */\n      swap1\n      pop\n        /* \"#utility.yul\":7378:7504   */\n      swap2\n      swap1\n      pop\n      jump\t// out\n        /* \"#utility.yul\":7510:7587   */\n    tag_148:\n        /* \"#utility.yul\":7547:7554   */\n      0x00\n        /* \"#utility.yul\":7576:7581   */\n      dup2\n        /* \"#utility.yul\":7565:7581   */\n      swap1\n      pop\n        /* \"#utility.yul\":7510:7587   */\n      swap2\n      swap1\n      pop\n      jump\t// out\n        /* \"#utility.yul\":7593:7747   */\n    tag_90:\n        /* \"#utility.yul\":7677:7683   */\n      dup3\n        /* \"#utility.yul\":7672:7675   */\n      dup2\n        /* \"#utility.yul\":7667:7670   */\n      dup4\n        /* \"#utility.yul\":7654:7684   */\n      calldatacopy\n        /* \"#utility.yul\":7739:7740   */\n      0x00\n        /* \"#utility.yul\":7730:7736   */\n      dup4\n        /* \"#utility.yul\":7725:7728   */\n      dup4\n        /* \"#utility.yul\":7721:7737   */\n      add\n        /* \"#utility.yul\":7714:7741   */\n      mstore\n        /* \"#utility.yul\":7593:7747   */\n      pop\n      pop\n      pop\n      jump\t// out\n        /* \"#utility.yul\":7753:8060   */\n    tag_142:\n        /* \"#utility.yul\":7821:7822   */\n      0x00\n        /* \"#utility.yul\":7831:7944   */\n    tag_194:\n        /* \"#utility.yul\":7845:7851   */\n      dup4\n        /* \"#utility.yul\":7842:7843   */\n      dup2\n        /* \"#utility.yul\":7839:7852   */\n      lt\n        /* \"#utility.yul\":7831:7944   */\n      iszero\n      tag_196\n      jumpi\n        /* \"#utility.yul\":7930:7931   */\n      dup1\n        /* \"#utility.yul\":7925:7928   */\n      dup3\n        /* \"#utility.yul\":7921:7932   */\n      add\n        /* \"#utility.yul\":7915:7933   */\n      mload\n        /* \"#utility.yul\":7911:7912   */\n      dup2\n        /* \"#utility.yul\":7906:7909   */\n      dup5\n        /* \"#utility.yul\":7902:7913   */\n      add\n        /* \"#utility.yul\":7895:7934   */\n      mstore\n        /* \"#utility.yul\":7867:7869   */\n      0x20\n        /* \"#utility.yul\":7864:7865   */\n      dup2\n        /* \"#utility.yul\":7860:7870   */\n      add\n        /* \"#utility.yul\":7855:7870   */\n      swap1\n      pop\n        /* \"#utility.yul\":7831:7944   */\n      jump(tag_194)\n    tag_196:\n        /* \"#utility.yul\":7962:7968   */\n      dup4\n        /* \"#utility.yul\":7959:7960   */\n      dup2\n        /* \"#utility.yul\":7956:7969   */\n      gt\n        /* \"#utility.yul\":7953:8054   */\n      iszero\n      tag_197\n      jumpi\n        /* \"#utility.yul\":8042:8043   */\n      0x00\n        /* \"#utility.yul\":8033:8039   */\n      dup5\n        /* \"#utility.yul\":8028:8031   */\n      dup5\n        /* \"#utility.yul\":8024:8040   */\n      add\n        /* \"#utility.yul\":8017:8044   */\n      mstore\n        /* \"#utility.yul\":7953:8054   */\n    tag_197:\n        /* \"#utility.yul\":7802:8060   */\n      pop\n        /* \"#utility.yul\":7753:8060   */\n      pop\n      pop\n      pop\n      jump\t// out\n        /* \"#utility.yul\":8066:8386   */\n    tag_47:\n        /* \"#utility.yul\":8110:8116   */\n      0x00\n        /* \"#utility.yul\":8147:8148   */\n      0x02\n        /* \"#utility.yul\":8141:8145   */\n      dup3\n        /* \"#utility.yul\":8137:8149   */\n      div\n        /* \"#utility.yul\":8127:8149   */\n      swap1\n      pop\n        /* \"#utility.yul\":8194:8195   */\n      0x01\n        /* \"#utility.yul\":8188:8192   */\n      dup3\n        /* \"#utility.yul\":8184:8196   */\n      and\n        /* \"#utility.yul\":8215:8233   */\n      dup1\n        /* \"#utility.yul\":8205:8286   */\n      tag_199\n      jumpi\n        /* \"#utility.yul\":8271:8275   */\n      0x7f\n        /* \"#utility.yul\":8263:8269   */\n      dup3\n        /* \"#utility.yul\":8259:8276   */\n      and\n        /* \"#utility.yul\":8249:8276   */\n      swap2\n      pop\n        /* \"#utility.yul\":8205:8286   */\n    tag_199:\n        /* \"#utility.yul\":8333:8335   */\n      0x20\n        /* \"#utility.yul\":8325:8331   */\n      dup3\n        /* \"#utility.yul\":8322:8336   */\n      lt\n        /* \"#utility.yul\":8302:8320   */\n      dup2\n        /* \"#utility.yul\":8299:8337   */\n      eq\n        /* \"#utility.yul\":8296:8380   */\n      iszero\n      tag_200\n      jumpi\n        /* \"#utility.yul\":8352:8370   */\n      tag_201\n      tag_202\n      jump\t// in\n    tag_201:\n        /* \"#utility.yul\":8296:8380   */\n    tag_200:\n        /* \"#utility.yul\":8117:8386   */\n      pop\n        /* \"#utility.yul\":8066:8386   */\n      swap2\n      swap1\n      pop\n      jump\t// out\n        /* \"#utility.yul\":8392:8673   */\n    tag_167:\n        /* \"#utility.yul\":8475:8502   */\n      tag_204\n        /* \"#utility.yul\":8497:8501   */\n      dup3\n        /* \"#utility.yul\":8475:8502   */\n      tag_144\n      jump\t// in\n    tag_204:\n        /* \"#utility.yul\":8467:8473   */\n      dup2\n        /* \"#utility.yul\":8463:8503   */\n      add\n        /* \"#utility.yul\":8605:8611   */\n      dup2\n        /* \"#utility.yul\":8593:8603   */\n      dup2\n        /* \"#utility.yul\":8590:8612   */\n      lt\n        /* \"#utility.yul\":8569:8587   */\n      0xffffffffffffffff\n        /* \"#utility.yul\":8557:8567   */\n      dup3\n        /* \"#utility.yul\":8554:8588   */\n      gt\n        /* \"#utility.yul\":8551:8613   */\n      or\n        /* \"#utility.yul\":8548:8636   */\n      iszero\n      tag_205\n      jumpi\n        /* \"#utility.yul\":8616:8634   */\n      tag_206\n      tag_172\n      jump\t// in\n    tag_206:\n        /* \"#utility.yul\":8548:8636   */\n    tag_205:\n        /* \"#utility.yul\":8656:8666   */\n      dup1\n        /* \"#utility.yul\":8652:8654   */\n      0x40\n        /* \"#utility.yul\":8645:8667   */\n      mstore\n        /* \"#utility.yul\":8435:8673   */\n      pop\n        /* \"#utility.yul\":8392:8673   */\n      pop\n      pop\n      jump\t// out\n        /* \"#utility.yul\":8679:8859   */\n    tag_181:\n        /* \"#utility.yul\":8727:8804   */\n      0x4e487b7100000000000000000000000000000000000000000000000000000000\n        /* \"#utility.yul\":8724:8725   */\n      0x00\n        /* \"#utility.yul\":8717:8805   */\n      mstore\n        /* \"#utility.yul\":8824:8828   */\n      0x11\n        /* \"#utility.yul\":8821:8822   */\n      0x04\n        /* \"#utility.yul\":8814:8829   */\n      mstore\n        /* \"#utility.yul\":8848:8852   */\n      0x24\n        /* \"#utility.yul\":8845:8846   */\n      0x00\n        /* \"#utility.yul\":8838:8853   */\n      revert\n        /* \"#utility.yul\":8865:9045   */\n    tag_202:\n        /* \"#utility.yul\":8913:8990   */\n      0x4e487b7100000000000000000000000000000000000000000000000000000000\n        /* \"#utility.yul\":8910:8911   */\n      0x00\n        /* \"#utility.yul\":8903:8991   */\n      mstore\n        /* \"#utility.yul\":9010:9014   */\n      0x22\n        /* \"#utility.yul\":9007:9008   */\n      0x04\n        /* \"#utility.yul\":9000:9015   */\n      mstore\n        /* \"#utility.yul\":9034:9038   */\n      0x24\n        /* \"#utility.yul\":9031:9032   */\n      0x00\n        /* \"#utility.yul\":9024:9039   */\n      revert\n        /* \"#utility.yul\":9051:9231   */\n    tag_172:\n        /* \"#utility.yul\":9099:9176   */\n      0x4e487b7100000000000000000000000000000000000000000000000000000000\n        /* \"#utility.yul\":9096:9097   */\n      0x00\n        /* \"#utility.yul\":9089:9177   */\n      mstore\n        /* \"#utility.yul\":9196:9200   */\n      0x41\n        /* \"#utility.yul\":9193:9194   */\n      0x04\n        /* \"#utility.yul\":9186:9201   */\n      mstore\n        /* \"#utility.yul\":9220:9224   */\n      0x24\n        /* \"#utility.yul\":9217:9218   */\n      0x00\n        /* \"#utility.yul\":9210:9225   */\n      revert\n        /* \"#utility.yul\":9237:9354   */\n    tag_99:\n        /* \"#utility.yul\":9346:9347   */\n      0x00\n        /* \"#utility.yul\":9343:9344   */\n      dup1\n        /* \"#utility.yul\":9336:9348   */\n      revert\n        /* \"#utility.yul\":9360:9477   */\n    tag_88:\n        /* \"#utility.yul\":9469:9470   */\n      0x00\n        /* \"#utility.yul\":9466:9467   */\n      dup1\n        /* \"#utility.yul\":9459:9471   */\n      revert\n        /* \"#utility.yul\":9483:9600   */\n    tag_116:\n        /* \"#utility.yul\":9592:9593   */\n      0x00\n        /* \"#utility.yul\":9589:9590   */\n      dup1\n        /* \"#utility.yul\":9582:9594   */\n      revert\n        /* \"#utility.yul\":9606:9723   */\n    tag_108:\n        /* \"#utility.yul\":9715:9716   */\n      0x00\n        /* \"#utility.yul\":9712:9713   */\n      dup1\n        /* \"#utility.yul\":9705:9717   */\n      revert\n        /* \"#utility.yul\":9729:9831   */\n    tag_144:\n        /* \"#utility.yul\":9770:9776   */\n      0x00\n        /* \"#utility.yul\":9821:9823   */\n      0x1f\n        /* \"#utility.yul\":9817:9824   */\n      not\n        /* \"#utility.yul\":9812:9814   */\n      0x1f\n        /* \"#utility.yul\":9805:9810   */\n      dup4\n        /* \"#utility.yul\":9801:9815   */\n      add\n        /* \"#utility.yul\":9797:9825   */\n      and\n        /* \"#utility.yul\":9787:9825   */\n      swap1\n      pop\n        /* \"#utility.yul\":9729:9831   */\n      swap2\n      swap1\n      pop\n      jump\t// out\n        /* \"#utility.yul\":9837:9959   */\n    tag_94:\n        /* \"#utility.yul\":9910:9934   */\n      tag_216\n        /* \"#utility.yul\":9928:9933   */\n      dup2\n        /* \"#utility.yul\":9910:9934   */\n      tag_134\n      jump\t// in\n    tag_216:\n        /* \"#utility.yul\":9903:9908   */\n      dup2\n        /* \"#utility.yul\":9900:9935   */\n      eq\n        /* \"#utility.yul\":9890:9953   */\n      tag_217\n      jumpi\n        /* \"#utility.yul\":9949:9950   */\n      0x00\n        /* \"#utility.yul\":9946:9947   */\n      dup1\n        /* \"#utility.yul\":9939:9951   */\n      revert\n        /* \"#utility.yul\":9890:9953   */\n    tag_217:\n        /* \"#utility.yul\":9837:9959   */\n      pop\n      jump\t// out\n        /* \"#utility.yul\":9965:10087   */\n    tag_104:\n        /* \"#utility.yul\":10038:10062   */\n      tag_219\n        /* \"#utility.yul\":10056:10061   */\n      dup2\n        /* \"#utility.yul\":10038:10062   */\n      tag_148\n      jump\t// in\n    tag_219:\n        /* \"#utility.yul\":10031:10036   */\n      dup2\n        /* \"#utility.yul\":10028:10063   */\n      eq\n        /* \"#utility.yul\":10018:10081   */\n      tag_220\n      jumpi\n        /* \"#utility.yul\":10077:10078   */\n      0x00\n        /* \"#utility.yul\":10074:10075   */\n      dup1\n        /* \"#utility.yul\":10067:10079   */\n      revert\n        /* \"#utility.yul\":10018:10081   */\n    tag_220:\n        /* \"#utility.yul\":9965:10087   */\n      pop\n      jump\t// out\n\n    auxdata: 0xa2646970667358221220b43d4d85edae50de5ea6ba25df964c740be9c79253accc18622e3b7c04bf60b264736f6c63430008070033\n}\n",
				"bytecode": {
					"linkReferences": {},
					"object": "608060405260405180602001604052806000815250600290805190602001906200002b92919062000045565b5060006003553480156200003e57600080fd5b506200015a565b8280546200005390620000f5565b90600052602060002090601f016020900481019282620000775760008555620000c3565b82601f106200009257805160ff1916838001178555620000c3565b82800160010185558215620000c3579182015b82811115620000c2578251825591602001919060010190620000a5565b5b509050620000d29190620000d6565b5090565b5b80821115620000f1576000816000905550600101620000d7565b5090565b600060028204905060018216806200010e57607f821691505b602082108114156200012557620001246200012b565b5b50919050565b7f4e487b7100000000000000000000000000000000000000000000000000000000600052602260045260246000fd5b610d91806200016a6000396000f3fe6080604052600436106100555760003560e01c8063075461721461005a5780630ebcbdb81461008557806327e235e3146100a157806340c10f19146100de5780638b9c657a146100fa578063d0679d341461013b575b600080fd5b34801561006657600080fd5b5061006f610157565b60405161007c91906109c9565b60405180910390f35b61009f600480360381019061009a9190610851565b61017b565b005b3480156100ad57600080fd5b506100c860048036038101906100c39190610824565b610316565b6040516100d59190610a83565b60405180910390f35b6100f860048036038101906100f39190610932565b61032e565b005b34801561010657600080fd5b50610121600480360381019061011c9190610824565b6103e1565b604051610132959493929190610a1b565b60405180910390f35b61015560048036038101906101509190610932565b6105af565b005b60008054906101000a900473ffffffffffffffffffffffffffffffffffffffff1681565b84600560008873ffffffffffffffffffffffffffffffffffffffff1673ffffffffffffffffffffffffffffffffffffffff16815260200190815260200160002060000190805190602001906101d19291906106e7565b5083600560008873ffffffffffffffffffffffffffffffffffffffff1673ffffffffffffffffffffffffffffffffffffffff1681526020019081526020016000206001018190555082600560008873ffffffffffffffffffffffffffffffffffffffff1673ffffffffffffffffffffffffffffffffffffffff168152602001908152602001600020600201908051906020019061026f9291906106e7565b5081600560008873ffffffffffffffffffffffffffffffffffffffff1673ffffffffffffffffffffffffffffffffffffffff1681526020019081526020016000206003018190555080600560008873ffffffffffffffffffffffffffffffffffffffff1673ffffffffffffffffffffffffffffffffffffffff168152602001908152602001600020600401908051906020019061030d9291906106e7565b50505050505050565b60016020528060005260406000206000915090505481565b60008054906101000a900473ffffffffffffffffffffffffffffffffffffffff1673ffffffffffffffffffffffffffffffffffffffff163373ffffffffffffffffffffffffffffffffffffffff1614610386576103dd565b80600160008473ffffffffffffffffffffffffffffffffffffffff1673ffffffffffffffffffffffffffffffffffffffff16815260200190815260200160002060008282546103d59190610b10565b925050819055505b5050565b600560205280600052604060002060009150905080600001805461040490610c18565b80601f016020809104026020016040519081016040528092919081815260200182805461043090610c18565b801561047d5780601f106104525761010080835404028352916020019161047d565b820191906000526020600020905b81548152906001019060200180831161046057829003601f168201915b50505050509080600101549080600201805461049890610c18565b80601f01602080910402602001604051908101604052809291908181526020018280546104c490610c18565b80156105115780601f106104e657610100808354040283529160200191610511565b820191906000526020600020905b8154815290600101906020018083116104f457829003601f168201915b50505050509080600301549080600401805461052c90610c18565b80601f016020809104026020016040519081016040528092919081815260200182805461055890610c18565b80156105a55780601f1061057a576101008083540402835291602001916105a5565b820191906000526020600020905b81548152906001019060200180831161058857829003601f168201915b5050505050905085565b80600160003373ffffffffffffffffffffffffffffffffffffffff1673ffffffffffffffffffffffffffffffffffffffff1681526020019081526020016000205410156105fb576106e3565b80600160003373ffffffffffffffffffffffffffffffffffffffff1673ffffffffffffffffffffffffffffffffffffffff168152602001908152602001600020600082825461064a9190610b66565b9250508190555080600160008473ffffffffffffffffffffffffffffffffffffffff1673ffffffffffffffffffffffffffffffffffffffff16815260200190815260200160002060008282546106a09190610b10565b925050819055507f3990db2d31862302a685e8086b5755072a6e2b5b780af1ee81ece35ee3cd33453383836040516106da939291906109e4565b60405180910390a15b5050565b8280546106f390610c18565b90600052602060002090601f016020900481019282610715576000855561075c565b82601f1061072e57805160ff191683800117855561075c565b8280016001018555821561075c579182015b8281111561075b578251825591602001919060010190610740565b5b509050610769919061076d565b5090565b5b8082111561078657600081600090555060010161076e565b5090565b600061079d61079884610ac3565b610a9e565b9050828152602081018484840111156107b9576107b8610d0d565b5b6107c4848285610bd6565b509392505050565b6000813590506107db81610d2d565b92915050565b600082601f8301126107f6576107f5610d08565b5b813561080684826020860161078a565b91505092915050565b60008135905061081e81610d44565b92915050565b60006020828403121561083a57610839610d17565b5b6000610848848285016107cc565b91505092915050565b60008060008060008060c0878903121561086e5761086d610d17565b5b600061087c89828a016107cc565b965050602087013567ffffffffffffffff81111561089d5761089c610d12565b5b6108a989828a016107e1565b95505060406108ba89828a0161080f565b945050606087013567ffffffffffffffff8111156108db576108da610d12565b5b6108e789828a016107e1565b93505060806108f889828a0161080f565b92505060a087013567ffffffffffffffff81111561091957610918610d12565b5b61092589828a016107e1565b9150509295509295509295565b6000806040838503121561094957610948610d17565b5b6000610957858286016107cc565b92505060206109688582860161080f565b9150509250929050565b61097b81610b9a565b82525050565b600061098c82610af4565b6109968185610aff565b93506109a6818560208601610be5565b6109af81610d1c565b840191505092915050565b6109c381610bcc565b82525050565b60006020820190506109de6000830184610972565b92915050565b60006060820190506109f96000830186610972565b610a066020830185610972565b610a1360408301846109ba565b949350505050565b600060a0820190508181036000830152610a358188610981565b9050610a4460208301876109ba565b8181036040830152610a568186610981565b9050610a6560608301856109ba565b8181036080830152610a778184610981565b90509695505050505050565b6000602082019050610a9860008301846109ba565b92915050565b6000610aa8610ab9565b9050610ab48282610c4a565b919050565b6000604051905090565b600067ffffffffffffffff821115610ade57610add610cd9565b5b610ae782610d1c565b9050602081019050919050565b600081519050919050565b600082825260208201905092915050565b6000610b1b82610bcc565b9150610b2683610bcc565b9250827fffffffffffffffffffffffffffffffffffffffffffffffffffffffffffffffff03821115610b5b57610b5a610c7b565b5b828201905092915050565b6000610b7182610bcc565b9150610b7c83610bcc565b925082821015610b8f57610b8e610c7b565b5b828203905092915050565b6000610ba582610bac565b9050919050565b600073ffffffffffffffffffffffffffffffffffffffff82169050919050565b6000819050919050565b82818337600083830152505050565b60005b83811015610c03578082015181840152602081019050610be8565b83811115610c12576000848401525b50505050565b60006002820490506001821680610c3057607f821691505b60208210811415610c4457610c43610caa565b5b50919050565b610c5382610d1c565b810181811067ffffffffffffffff82111715610c7257610c71610cd9565b5b80604052505050565b7f4e487b7100000000000000000000000000000000000000000000000000000000600052601160045260246000fd5b7f4e487b7100000000000000000000000000000000000000000000000000000000600052602260045260246000fd5b7f4e487b7100000000000000000000000000000000000000000000000000000000600052604160045260246000fd5b600080fd5b600080fd5b600080fd5b600080fd5b6000601f19601f8301169050919050565b610d3681610b9a565b8114610d4157600080fd5b50565b610d4d81610bcc565b8114610d5857600080fd5b5056fea2646970667358221220b43d4d85edae50de5ea6ba25df964c740be9c79253accc18622e3b7c04bf60b264736f6c63430008070033",
					"opcodes": "PUSH1 0x80 PUSH1 0x40 MSTORE PUSH1 0x40 MLOAD DUP1 PUSH1 0x20 ADD PUSH1 0x40 MSTORE DUP1 PUSH1 0x0 DUP2 MSTORE POP PUSH1 0x2 SWAP1 DUP1 MLOAD SWAP1 PUSH1 0x20 ADD SWAP1 PUSH3 0x2B SWAP3 SWAP2 SWAP1 PUSH3 0x45 JUMP JUMPDEST POP PUSH1 0x0 PUSH1 0x3 SSTORE CALLVALUE DUP1 ISZERO PUSH3 0x3E JUMPI PUSH1 0x0 DUP1 REVERT JUMPDEST POP PUSH3 0x15A JUMP JUMPDEST DUP3 DUP1 SLOAD PUSH3 0x53 SWAP1 PUSH3 0xF5 JUMP JUMPDEST SWAP1 PUSH1 0x0 MSTORE PUSH1 0x20 PUSH1 0x0 KECCAK256 SWAP1 PUSH1 0x1F ADD PUSH1 0x20 SWAP1 DIV DUP2 ADD SWAP3 DUP3 PUSH3 0x77 JUMPI PUSH1 0x0 DUP6 SSTORE PUSH3 0xC3 JUMP JUMPDEST DUP3 PUSH1 0x1F LT PUSH3 0x92 JUMPI DUP1 MLOAD PUSH1 0xFF NOT AND DUP4 DUP1 ADD OR DUP6 SSTORE PUSH3 0xC3 JUMP JUMPDEST DUP3 DUP1 ADD PUSH1 0x1 ADD DUP6 SSTORE DUP3 ISZERO PUSH3 0xC3 JUMPI SWAP2 DUP3 ADD JUMPDEST DUP3 DUP2 GT ISZERO PUSH3 0xC2 JUMPI DUP3 MLOAD DUP3 SSTORE SWAP2 PUSH1 0x20 ADD SWAP2 SWAP1 PUSH1 0x1 ADD SWAP1 PUSH3 0xA5 JUMP JUMPDEST JUMPDEST POP SWAP1 POP PUSH3 0xD2 SWAP2 SWAP1 PUSH3 0xD6 JUMP JUMPDEST POP SWAP1 JUMP JUMPDEST JUMPDEST DUP1 DUP3 GT ISZERO PUSH3 0xF1 JUMPI PUSH1 0x0 DUP2 PUSH1 0x0 SWAP1 SSTORE POP PUSH1 0x1 ADD PUSH3 0xD7 JUMP JUMPDEST POP SWAP1 JUMP JUMPDEST PUSH1 0x0 PUSH1 0x2 DUP3 DIV SWAP1 POP PUSH1 0x1 DUP3 AND DUP1 PUSH3 0x10E JUMPI PUSH1 0x7F DUP3 AND SWAP2 POP JUMPDEST PUSH1 0x20 DUP3 LT DUP2 EQ ISZERO PUSH3 0x125 JUMPI PUSH3 0x124 PUSH3 0x12B JUMP JUMPDEST JUMPDEST POP SWAP2 SWAP1 POP JUMP JUMPDEST PUSH32 0x4E487B7100000000000000000000000000000000000000000000000000000000 PUSH1 0x0 MSTORE PUSH1 0x22 PUSH1 0x4 MSTORE PUSH1 0x24 PUSH1 0x0 REVERT JUMPDEST PUSH2 0xD91 DUP1 PUSH3 0x16A PUSH1 0x0 CODECOPY PUSH1 0x0 RETURN INVALID PUSH1 0x80 PUSH1 0x40 MSTORE PUSH1 0x4 CALLDATASIZE LT PUSH2 0x55 JUMPI PUSH1 0x0 CALLDATALOAD PUSH1 0xE0 SHR DUP1 PUSH4 0x7546172 EQ PUSH2 0x5A JUMPI DUP1 PUSH4 0xEBCBDB8 EQ PUSH2 0x85 JUMPI DUP1 PUSH4 0x27E235E3 EQ PUSH2 0xA1 JUMPI DUP1 PUSH4 0x40C10F19 EQ PUSH2 0xDE JUMPI DUP1 PUSH4 0x8B9C657A EQ PUSH2 0xFA JUMPI DUP1 PUSH4 0xD0679D34 EQ PUSH2 0x13B JUMPI JUMPDEST PUSH1 0x0 DUP1 REVERT JUMPDEST CALLVALUE DUP1 ISZERO PUSH2 0x66 JUMPI PUSH1 0x0 DUP1 REVERT JUMPDEST POP PUSH2 0x6F PUSH2 0x157 JUMP JUMPDEST PUSH1 0x40 MLOAD PUSH2 0x7C SWAP2 SWAP1 PUSH2 0x9C9 JUMP JUMPDEST PUSH1 0x40 MLOAD DUP1 SWAP2 SUB SWAP1 RETURN JUMPDEST PUSH2 0x9F PUSH1 0x4 DUP1 CALLDATASIZE SUB DUP2 ADD SWAP1 PUSH2 0x9A SWAP2 SWAP1 PUSH2 0x851 JUMP JUMPDEST PUSH2 0x17B JUMP JUMPDEST STOP JUMPDEST CALLVALUE DUP1 ISZERO PUSH2 0xAD JUMPI PUSH1 0x0 DUP1 REVERT JUMPDEST POP PUSH2 0xC8 PUSH1 0x4 DUP1 CALLDATASIZE SUB DUP2 ADD SWAP1 PUSH2 0xC3 SWAP2 SWAP1 PUSH2 0x824 JUMP JUMPDEST PUSH2 0x316 JUMP JUMPDEST PUSH1 0x40 MLOAD PUSH2 0xD5 SWAP2 SWAP1 PUSH2 0xA83 JUMP JUMPDEST PUSH1 0x40 MLOAD DUP1 SWAP2 SUB SWAP1 RETURN JUMPDEST PUSH2 0xF8 PUSH1 0x4 DUP1 CALLDATASIZE SUB DUP2 ADD SWAP1 PUSH2 0xF3 SWAP2 SWAP1 PUSH2 0x932 JUMP JUMPDEST PUSH2 0x32E JUMP JUMPDEST STOP JUMPDEST CALLVALUE DUP1 ISZERO PUSH2 0x106 JUMPI PUSH1 0x0 DUP1 REVERT JUMPDEST POP PUSH2 0x121 PUSH1 0x4 DUP1 CALLDATASIZE SUB DUP2 ADD SWAP1 PUSH2 0x11C SWAP2 SWAP1 PUSH2 0x824 JUMP JUMPDEST PUSH2 0x3E1 JUMP JUMPDEST PUSH1 0x40 MLOAD PUSH2 0x132 SWAP6 SWAP5 SWAP4 SWAP3 SWAP2 SWAP1 PUSH2 0xA1B JUMP JUMPDEST PUSH1 0x40 MLOAD DUP1 SWAP2 SUB SWAP1 RETURN JUMPDEST PUSH2 0x155 PUSH1 0x4 DUP1 CALLDATASIZE SUB DUP2 ADD SWAP1 PUSH2 0x150 SWAP2 SWAP1 PUSH2 0x932 JUMP JUMPDEST PUSH2 0x5AF JUMP JUMPDEST STOP JUMPDEST PUSH1 0x0 DUP1 SLOAD SWAP1 PUSH2 0x100 EXP SWAP1 DIV PUSH20 0xFFFFFFFFFFFFFFFFFFFFFFFFFFFFFFFFFFFFFFFF AND DUP2 JUMP JUMPDEST DUP5 PUSH1 0x5 PUSH1 0x0 DUP9 PUSH20 0xFFFFFFFFFFFFFFFFFFFFFFFFFFFFFFFFFFFFFFFF AND PUSH20 0xFFFFFFFFFFFFFFFFFFFFFFFFFFFFFFFFFFFFFFFF AND DUP2 MSTORE PUSH1 0x20 ADD SWAP1 DUP2 MSTORE PUSH1 0x20 ADD PUSH1 0x0 KECCAK256 PUSH1 0x0 ADD SWAP1 DUP1 MLOAD SWAP1 PUSH1 0x20 ADD SWAP1 PUSH2 0x1D1 SWAP3 SWAP2 SWAP1 PUSH2 0x6E7 JUMP JUMPDEST POP DUP4 PUSH1 0x5 PUSH1 0x0 DUP9 PUSH20 0xFFFFFFFFFFFFFFFFFFFFFFFFFFFFFFFFFFFFFFFF AND PUSH20 0xFFFFFFFFFFFFFFFFFFFFFFFFFFFFFFFFFFFFFFFF AND DUP2 MSTORE PUSH1 0x20 ADD SWAP1 DUP2 MSTORE PUSH1 0x20 ADD PUSH1 0x0 KECCAK256 PUSH1 0x1 ADD DUP2 SWAP1 SSTORE POP DUP3 PUSH1 0x5 PUSH1 0x0 DUP9 PUSH20 0xFFFFFFFFFFFFFFFFFFFFFFFFFFFFFFFFFFFFFFFF AND PUSH20 0xFFFFFFFFFFFFFFFFFFFFFFFFFFFFFFFFFFFFFFFF AND DUP2 MSTORE PUSH1 0x20 ADD SWAP1 DUP2 MSTORE PUSH1 0x20 ADD PUSH1 0x0 KECCAK256 PUSH1 0x2 ADD SWAP1 DUP1 MLOAD SWAP1 PUSH1 0x20 ADD SWAP1 PUSH2 0x26F SWAP3 SWAP2 SWAP1 PUSH2 0x6E7 JUMP JUMPDEST POP DUP2 PUSH1 0x5 PUSH1 0x0 DUP9 PUSH20 0xFFFFFFFFFFFFFFFFFFFFFFFFFFFFFFFFFFFFFFFF AND PUSH20 0xFFFFFFFFFFFFFFFFFFFFFFFFFFFFFFFFFFFFFFFF AND DUP2 MSTORE PUSH1 0x20 ADD SWAP1 DUP2 MSTORE PUSH1 0x20 ADD PUSH1 0x0 KECCAK256 PUSH1 0x3 ADD DUP2 SWAP1 SSTORE POP DUP1 PUSH1 0x5 PUSH1 0x0 DUP9 PUSH20 0xFFFFFFFFFFFFFFFFFFFFFFFFFFFFFFFFFFFFFFFF AND PUSH20 0xFFFFFFFFFFFFFFFFFFFFFFFFFFFFFFFFFFFFFFFF AND DUP2 MSTORE PUSH1 0x20 ADD SWAP1 DUP2 MSTORE PUSH1 0x20 ADD PUSH1 0x0 KECCAK256 PUSH1 0x4 ADD SWAP1 DUP1 MLOAD SWAP1 PUSH1 0x20 ADD SWAP1 PUSH2 0x30D SWAP3 SWAP2 SWAP1 PUSH2 0x6E7 JUMP JUMPDEST POP POP POP POP POP POP POP JUMP JUMPDEST PUSH1 0x1 PUSH1 0x20 MSTORE DUP1 PUSH1 0x0 MSTORE PUSH1 0x40 PUSH1 0x0 KECCAK256 PUSH1 0x0 SWAP2 POP SWAP1 POP SLOAD DUP2 JUMP JUMPDEST PUSH1 0x0 DUP1 SLOAD SWAP1 PUSH2 0x100 EXP SWAP1 DIV PUSH20 0xFFFFFFFFFFFFFFFFFFFFFFFFFFFFFFFFFFFFFFFF AND PUSH20 0xFFFFFFFFFFFFFFFFFFFFFFFFFFFFFFFFFFFFFFFF AND CALLER PUSH20 0xFFFFFFFFFFFFFFFFFFFFFFFFFFFFFFFFFFFFFFFF AND EQ PUSH2 0x386 JUMPI PUSH2 0x3DD JUMP JUMPDEST DUP1 PUSH1 0x1 PUSH1 0x0 DUP5 PUSH20 0xFFFFFFFFFFFFFFFFFFFFFFFFFFFFFFFFFFFFFFFF AND PUSH20 0xFFFFFFFFFFFFFFFFFFFFFFFFFFFFFFFFFFFFFFFF AND DUP2 MSTORE PUSH1 0x20 ADD SWAP1 DUP2 MSTORE PUSH1 0x20 ADD PUSH1 0x0 KECCAK256 PUSH1 0x0 DUP3 DUP3 SLOAD PUSH2 0x3D5 SWAP2 SWAP1 PUSH2 0xB10 JUMP JUMPDEST SWAP3 POP POP DUP2 SWAP1 SSTORE POP JUMPDEST POP POP JUMP JUMPDEST PUSH1 0x5 PUSH1 0x20 MSTORE DUP1 PUSH1 0x0 MSTORE PUSH1 0x40 PUSH1 0x0 KECCAK256 PUSH1 0x0 SWAP2 POP SWAP1 POP DUP1 PUSH1 0x0 ADD DUP1 SLOAD PUSH2 0x404 SWAP1 PUSH2 0xC18 JUMP JUMPDEST DUP1 PUSH1 0x1F ADD PUSH1 0x20 DUP1 SWAP2 DIV MUL PUSH1 0x20 ADD PUSH1 0x40 MLOAD SWAP1 DUP2 ADD PUSH1 0x40 MSTORE DUP1 SWAP3 SWAP2 SWAP1 DUP2 DUP2 MSTORE PUSH1 0x20 ADD DUP3 DUP1 SLOAD PUSH2 0x430 SWAP1 PUSH2 0xC18 JUMP JUMPDEST DUP1 ISZERO PUSH2 0x47D JUMPI DUP1 PUSH1 0x1F LT PUSH2 0x452 JUMPI PUSH2 0x100 DUP1 DUP4 SLOAD DIV MUL DUP4 MSTORE SWAP2 PUSH1 0x20 ADD SWAP2 PUSH2 0x47D JUMP JUMPDEST DUP3 ADD SWAP2 SWAP1 PUSH1 0x0 MSTORE PUSH1 0x20 PUSH1 0x0 KECCAK256 SWAP1 JUMPDEST DUP2 SLOAD DUP2 MSTORE SWAP1 PUSH1 0x1 ADD SWAP1 PUSH1 0x20 ADD DUP1 DUP4 GT PUSH2 0x460 JUMPI DUP3 SWAP1 SUB PUSH1 0x1F AND DUP3 ADD SWAP2 JUMPDEST POP POP POP POP POP SWAP1 DUP1 PUSH1 0x1 ADD SLOAD SWAP1 DUP1 PUSH1 0x2 ADD DUP1 SLOAD PUSH2 0x498 SWAP1 PUSH2 0xC18 JUMP JUMPDEST DUP1 PUSH1 0x1F ADD PUSH1 0x20 DUP1 SWAP2 DIV MUL PUSH1 0x20 ADD PUSH1 0x40 MLOAD SWAP1 DUP2 ADD PUSH1 0x40 MSTORE DUP1 SWAP3 SWAP2 SWAP1 DUP2 DUP2 MSTORE PUSH1 0x20 ADD DUP3 DUP1 SLOAD PUSH2 0x4C4 SWAP1 PUSH2 0xC18 JUMP JUMPDEST DUP1 ISZERO PUSH2 0x511 JUMPI DUP1 PUSH1 0x1F LT PUSH2 0x4E6 JUMPI PUSH2 0x100 DUP1 DUP4 SLOAD DIV MUL DUP4 MSTORE SWAP2 PUSH1 0x20 ADD SWAP2 PUSH2 0x511 JUMP JUMPDEST DUP3 ADD SWAP2 SWAP1 PUSH1 0x0 MSTORE PUSH1 0x20 PUSH1 0x0 KECCAK256 SWAP1 JUMPDEST DUP2 SLOAD DUP2 MSTORE SWAP1 PUSH1 0x1 ADD SWAP1 PUSH1 0x20 ADD DUP1 DUP4 GT PUSH2 0x4F4 JUMPI DUP3 SWAP1 SUB PUSH1 0x1F AND DUP3 ADD SWAP2 JUMPDEST POP POP POP POP POP SWAP1 DUP1 PUSH1 0x3 ADD SLOAD SWAP1 DUP1 PUSH1 0x4 ADD DUP1 SLOAD PUSH2 0x52C SWAP1 PUSH2 0xC18 JUMP JUMPDEST DUP1 PUSH1 0x1F ADD PUSH1 0x20 DUP1 SWAP2 DIV MUL PUSH1 0x20 ADD PUSH1 0x40 MLOAD SWAP1 DUP2 ADD PUSH1 0x40 MSTORE DUP1 SWAP3 SWAP2 SWAP1 DUP2 DUP2 MSTORE PUSH1 0x20 ADD DUP3 DUP1 SLOAD PUSH2 0x558 SWAP1 PUSH2 0xC18 JUMP JUMPDEST DUP1 ISZERO PUSH2 0x5A5 JUMPI DUP1 PUSH1 0x1F LT PUSH2 0x57A JUMPI PUSH2 0x100 DUP1 DUP4 SLOAD DIV MUL DUP4 MSTORE SWAP2 PUSH1 0x20 ADD SWAP2 PUSH2 0x5A5 JUMP JUMPDEST DUP3 ADD SWAP2 SWAP1 PUSH1 0x0 MSTORE PUSH1 0x20 PUSH1 0x0 KECCAK256 SWAP1 JUMPDEST DUP2 SLOAD DUP2 MSTORE SWAP1 PUSH1 0x1 ADD SWAP1 PUSH1 0x20 ADD DUP1 DUP4 GT PUSH2 0x588 JUMPI DUP3 SWAP1 SUB PUSH1 0x1F AND DUP3 ADD SWAP2 JUMPDEST POP POP POP POP POP SWAP1 POP DUP6 JUMP JUMPDEST DUP1 PUSH1 0x1 PUSH1 0x0 CALLER PUSH20 0xFFFFFFFFFFFFFFFFFFFFFFFFFFFFFFFFFFFFFFFF AND PUSH20 0xFFFFFFFFFFFFFFFFFFFFFFFFFFFFFFFFFFFFFFFF AND DUP2 MSTORE PUSH1 0x20 ADD SWAP1 DUP2 MSTORE PUSH1 0x20 ADD PUSH1 0x0 KECCAK256 SLOAD LT ISZERO PUSH2 0x5FB JUMPI PUSH2 0x6E3 JUMP JUMPDEST DUP1 PUSH1 0x1 PUSH1 0x0 CALLER PUSH20 0xFFFFFFFFFFFFFFFFFFFFFFFFFFFFFFFFFFFFFFFF AND PUSH20 0xFFFFFFFFFFFFFFFFFFFFFFFFFFFFFFFFFFFFFFFF AND DUP2 MSTORE PUSH1 0x20 ADD SWAP1 DUP2 MSTORE PUSH1 0x20 ADD PUSH1 0x0 KECCAK256 PUSH1 0x0 DUP3 DUP3 SLOAD PUSH2 0x64A SWAP2 SWAP1 PUSH2 0xB66 JUMP JUMPDEST SWAP3 POP POP DUP2 SWAP1 SSTORE POP DUP1 PUSH1 0x1 PUSH1 0x0 DUP5 PUSH20 0xFFFFFFFFFFFFFFFFFFFFFFFFFFFFFFFFFFFFFFFF AND PUSH20 0xFFFFFFFFFFFFFFFFFFFFFFFFFFFFFFFFFFFFFFFF AND DUP2 MSTORE PUSH1 0x20 ADD SWAP1 DUP2 MSTORE PUSH1 0x20 ADD PUSH1 0x0 KECCAK256 PUSH1 0x0 DUP3 DUP3 SLOAD PUSH2 0x6A0 SWAP2 SWAP1 PUSH2 0xB10 JUMP JUMPDEST SWAP3 POP POP DUP2 SWAP1 SSTORE POP PUSH32 0x3990DB2D31862302A685E8086B5755072A6E2B5B780AF1EE81ECE35EE3CD3345 CALLER DUP4 DUP4 PUSH1 0x40 MLOAD PUSH2 0x6DA SWAP4 SWAP3 SWAP2 SWAP1 PUSH2 0x9E4 JUMP JUMPDEST PUSH1 0x40 MLOAD DUP1 SWAP2 SUB SWAP1 LOG1 JUMPDEST POP POP JUMP JUMPDEST DUP3 DUP1 SLOAD PUSH2 0x6F3 SWAP1 PUSH2 0xC18 JUMP JUMPDEST SWAP1 PUSH1 0x0 MSTORE PUSH1 0x20 PUSH1 0x0 KECCAK256 SWAP1 PUSH1 0x1F ADD PUSH1 0x20 SWAP1 DIV DUP2 ADD SWAP3 DUP3 PUSH2 0x715 JUMPI PUSH1 0x0 DUP6 SSTORE PUSH2 0x75C JUMP JUMPDEST DUP3 PUSH1 0x1F LT PUSH2 0x72E JUMPI DUP1 MLOAD PUSH1 0xFF NOT AND DUP4 DUP1 ADD OR DUP6 SSTORE PUSH2 0x75C JUMP JUMPDEST DUP3 DUP1 ADD PUSH1 0x1 ADD DUP6 SSTORE DUP3 ISZERO PUSH2 0x75C JUMPI SWAP2 DUP3 ADD JUMPDEST DUP3 DUP2 GT ISZERO PUSH2 0x75B JUMPI DUP3 MLOAD DUP3 SSTORE SWAP2 PUSH1 0x20 ADD SWAP2 SWAP1 PUSH1 0x1 ADD SWAP1 PUSH2 0x740 JUMP JUMPDEST JUMPDEST POP SWAP1 POP PUSH2 0x769 SWAP2 SWAP1 PUSH2 0x76D JUMP JUMPDEST POP SWAP1 JUMP JUMPDEST JUMPDEST DUP1 DUP3 GT ISZERO PUSH2 0x786 JUMPI PUSH1 0x0 DUP2 PUSH1 0x0 SWAP1 SSTORE POP PUSH1 0x1 ADD PUSH2 0x76E JUMP JUMPDEST POP SWAP1 JUMP JUMPDEST PUSH1 0x0 PUSH2 0x79D PUSH2 0x798 DUP5 PUSH2 0xAC3 JUMP JUMPDEST PUSH2 0xA9E JUMP JUMPDEST SWAP1 POP DUP3 DUP2 MSTORE PUSH1 0x20 DUP2 ADD DUP5 DUP5 DUP5 ADD GT ISZERO PUSH2 0x7B9 JUMPI PUSH2 0x7B8 PUSH2 0xD0D JUMP JUMPDEST JUMPDEST PUSH2 0x7C4 DUP5 DUP3 DUP6 PUSH2 0xBD6 JUMP JUMPDEST POP SWAP4 SWAP3 POP POP POP JUMP JUMPDEST PUSH1 0x0 DUP2 CALLDATALOAD SWAP1 POP PUSH2 0x7DB DUP2 PUSH2 0xD2D JUMP JUMPDEST SWAP3 SWAP2 POP POP JUMP JUMPDEST PUSH1 0x0 DUP3 PUSH1 0x1F DUP4 ADD SLT PUSH2 0x7F6 JUMPI PUSH2 0x7F5 PUSH2 0xD08 JUMP JUMPDEST JUMPDEST DUP2 CALLDATALOAD PUSH2 0x806 DUP5 DUP3 PUSH1 0x20 DUP7 ADD PUSH2 0x78A JUMP JUMPDEST SWAP2 POP POP SWAP3 SWAP2 POP POP JUMP JUMPDEST PUSH1 0x0 DUP2 CALLDATALOAD SWAP1 POP PUSH2 0x81E DUP2 PUSH2 0xD44 JUMP JUMPDEST SWAP3 SWAP2 POP POP JUMP JUMPDEST PUSH1 0x0 PUSH1 0x20 DUP3 DUP5 SUB SLT ISZERO PUSH2 0x83A JUMPI PUSH2 0x839 PUSH2 0xD17 JUMP JUMPDEST JUMPDEST PUSH1 0x0 PUSH2 0x848 DUP5 DUP3 DUP6 ADD PUSH2 0x7CC JUMP JUMPDEST SWAP2 POP POP SWAP3 SWAP2 POP POP JUMP JUMPDEST PUSH1 0x0 DUP1 PUSH1 0x0 DUP1 PUSH1 0x0 DUP1 PUSH1 0xC0 DUP8 DUP10 SUB SLT ISZERO PUSH2 0x86E JUMPI PUSH2 0x86D PUSH2 0xD17 JUMP JUMPDEST JUMPDEST PUSH1 0x0 PUSH2 0x87C DUP10 DUP3 DUP11 ADD PUSH2 0x7CC JUMP JUMPDEST SWAP7 POP POP PUSH1 0x20 DUP8 ADD CALLDATALOAD PUSH8 0xFFFFFFFFFFFFFFFF DUP2 GT ISZERO PUSH2 0x89D JUMPI PUSH2 0x89C PUSH2 0xD12 JUMP JUMPDEST JUMPDEST PUSH2 0x8A9 DUP10 DUP3 DUP11 ADD PUSH2 0x7E1 JUMP JUMPDEST SWAP6 POP POP PUSH1 0x40 PUSH2 0x8BA DUP10 DUP3 DUP11 ADD PUSH2 0x80F JUMP JUMPDEST SWAP5 POP POP PUSH1 0x60 DUP8 ADD CALLDATALOAD PUSH8 0xFFFFFFFFFFFFFFFF DUP2 GT ISZERO PUSH2 0x8DB JUMPI PUSH2 0x8DA PUSH2 0xD12 JUMP JUMPDEST JUMPDEST PUSH2 0x8E7 DUP10 DUP3 DUP11 ADD PUSH2 0x7E1 JUMP JUMPDEST SWAP4 POP POP PUSH1 0x80 PUSH2 0x8F8 DUP10 DUP3 DUP11 ADD PUSH2 0x80F JUMP JUMPDEST SWAP3 POP POP PUSH1 0xA0 DUP8 ADD CALLDATALOAD PUSH8 0xFFFFFFFFFFFFFFFF DUP2 GT ISZERO PUSH2 0x919 JUMPI PUSH2 0x918 PUSH2 0xD12 JUMP JUMPDEST JUMPDEST PUSH2 0x925 DUP10 DUP3 DUP11 ADD PUSH2 0x7E1 JUMP JUMPDEST SWAP2 POP POP SWAP3 SWAP6 POP SWAP3 SWAP6 POP SWAP3 SWAP6 JUMP JUMPDEST PUSH1 0x0 DUP1 PUSH1 0x40 DUP4 DUP6 SUB SLT ISZERO PUSH2 0x949 JUMPI PUSH2 0x948 PUSH2 0xD17 JUMP JUMPDEST JUMPDEST PUSH1 0x0 PUSH2 0x957 DUP6 DUP3 DUP7 ADD PUSH2 0x7CC JUMP JUMPDEST SWAP3 POP POP PUSH1 0x20 PUSH2 0x968 DUP6 DUP3 DUP7 ADD PUSH2 0x80F JUMP JUMPDEST SWAP2 POP POP SWAP3 POP SWAP3 SWAP1 POP JUMP JUMPDEST PUSH2 0x97B DUP2 PUSH2 0xB9A JUMP JUMPDEST DUP3 MSTORE POP POP JUMP JUMPDEST PUSH1 0x0 PUSH2 0x98C DUP3 PUSH2 0xAF4 JUMP JUMPDEST PUSH2 0x996 DUP2 DUP6 PUSH2 0xAFF JUMP JUMPDEST SWAP4 POP PUSH2 0x9A6 DUP2 DUP6 PUSH1 0x20 DUP7 ADD PUSH2 0xBE5 JUMP JUMPDEST PUSH2 0x9AF DUP2 PUSH2 0xD1C JUMP JUMPDEST DUP5 ADD SWAP2 POP POP SWAP3 SWAP2 POP POP JUMP JUMPDEST PUSH2 0x9C3 DUP2 PUSH2 0xBCC JUMP JUMPDEST DUP3 MSTORE POP POP JUMP JUMPDEST PUSH1 0x0 PUSH1 0x20 DUP3 ADD SWAP1 POP PUSH2 0x9DE PUSH1 0x0 DUP4 ADD DUP5 PUSH2 0x972 JUMP JUMPDEST SWAP3 SWAP2 POP POP JUMP JUMPDEST PUSH1 0x0 PUSH1 0x60 DUP3 ADD SWAP1 POP PUSH2 0x9F9 PUSH1 0x0 DUP4 ADD DUP7 PUSH2 0x972 JUMP JUMPDEST PUSH2 0xA06 PUSH1 0x20 DUP4 ADD DUP6 PUSH2 0x972 JUMP JUMPDEST PUSH2 0xA13 PUSH1 0x40 DUP4 ADD DUP5 PUSH2 0x9BA JUMP JUMPDEST SWAP5 SWAP4 POP POP POP POP JUMP JUMPDEST PUSH1 0x0 PUSH1 0xA0 DUP3 ADD SWAP1 POP DUP2 DUP2 SUB PUSH1 0x0 DUP4 ADD MSTORE PUSH2 0xA35 DUP2 DUP9 PUSH2 0x981 JUMP JUMPDEST SWAP1 POP PUSH2 0xA44 PUSH1 0x20 DUP4 ADD DUP8 PUSH2 0x9BA JUMP JUMPDEST DUP2 DUP2 SUB PUSH1 0x40 DUP4 ADD MSTORE PUSH2 0xA56 DUP2 DUP7 PUSH2 0x981 JUMP JUMPDEST SWAP1 POP PUSH2 0xA65 PUSH1 0x60 DUP4 ADD DUP6 PUSH2 0x9BA JUMP JUMPDEST DUP2 DUP2 SUB PUSH1 0x80 DUP4 ADD MSTORE PUSH2 0xA77 DUP2 DUP5 PUSH2 0x981 JUMP JUMPDEST SWAP1 POP SWAP7 SWAP6 POP POP POP POP POP POP JUMP JUMPDEST PUSH1 0x0 PUSH1 0x20 DUP3 ADD SWAP1 POP PUSH2 0xA98 PUSH1 0x0 DUP4 ADD DUP5 PUSH2 0x9BA JUMP JUMPDEST SWAP3 SWAP2 POP POP JUMP JUMPDEST PUSH1 0x0 PUSH2 0xAA8 PUSH2 0xAB9 JUMP JUMPDEST SWAP1 POP PUSH2 0xAB4 DUP3 DUP3 PUSH2 0xC4A JUMP JUMPDEST SWAP2 SWAP1 POP JUMP JUMPDEST PUSH1 0x0 PUSH1 0x40 MLOAD SWAP1 POP SWAP1 JUMP JUMPDEST PUSH1 0x0 PUSH8 0xFFFFFFFFFFFFFFFF DUP3 GT ISZERO PUSH2 0xADE JUMPI PUSH2 0xADD PUSH2 0xCD9 JUMP JUMPDEST JUMPDEST PUSH2 0xAE7 DUP3 PUSH2 0xD1C JUMP JUMPDEST SWAP1 POP PUSH1 0x20 DUP2 ADD SWAP1 POP SWAP2 SWAP1 POP JUMP JUMPDEST PUSH1 0x0 DUP2 MLOAD SWAP1 POP SWAP2 SWAP1 POP JUMP JUMPDEST PUSH1 0x0 DUP3 DUP3 MSTORE PUSH1 0x20 DUP3 ADD SWAP1 POP SWAP3 SWAP2 POP POP JUMP JUMPDEST PUSH1 0x0 PUSH2 0xB1B DUP3 PUSH2 0xBCC JUMP JUMPDEST SWAP2 POP PUSH2 0xB26 DUP4 PUSH2 0xBCC JUMP JUMPDEST SWAP3 POP DUP3 PUSH32 0xFFFFFFFFFFFFFFFFFFFFFFFFFFFFFFFFFFFFFFFFFFFFFFFFFFFFFFFFFFFFFFFF SUB DUP3 GT ISZERO PUSH2 0xB5B JUMPI PUSH2 0xB5A PUSH2 0xC7B JUMP JUMPDEST JUMPDEST DUP3 DUP3 ADD SWAP1 POP SWAP3 SWAP2 POP POP JUMP JUMPDEST PUSH1 0x0 PUSH2 0xB71 DUP3 PUSH2 0xBCC JUMP JUMPDEST SWAP2 POP PUSH2 0xB7C DUP4 PUSH2 0xBCC JUMP JUMPDEST SWAP3 POP DUP3 DUP3 LT ISZERO PUSH2 0xB8F JUMPI PUSH2 0xB8E PUSH2 0xC7B JUMP JUMPDEST JUMPDEST DUP3 DUP3 SUB SWAP1 POP SWAP3 SWAP2 POP POP JUMP JUMPDEST PUSH1 0x0 PUSH2 0xBA5 DUP3 PUSH2 0xBAC JUMP JUMPDEST SWAP1 POP SWAP2 SWAP1 POP JUMP JUMPDEST PUSH1 0x0 PUSH20 0xFFFFFFFFFFFFFFFFFFFFFFFFFFFFFFFFFFFFFFFF DUP3 AND SWAP1 POP SWAP2 SWAP1 POP JUMP JUMPDEST PUSH1 0x0 DUP2 SWAP1 POP SWAP2 SWAP1 POP JUMP JUMPDEST DUP3 DUP2 DUP4 CALLDATACOPY PUSH1 0x0 DUP4 DUP4 ADD MSTORE POP POP POP JUMP JUMPDEST PUSH1 0x0 JUMPDEST DUP4 DUP2 LT ISZERO PUSH2 0xC03 JUMPI DUP1 DUP3 ADD MLOAD DUP2 DUP5 ADD MSTORE PUSH1 0x20 DUP2 ADD SWAP1 POP PUSH2 0xBE8 JUMP JUMPDEST DUP4 DUP2 GT ISZERO PUSH2 0xC12 JUMPI PUSH1 0x0 DUP5 DUP5 ADD MSTORE JUMPDEST POP POP POP POP JUMP JUMPDEST PUSH1 0x0 PUSH1 0x2 DUP3 DIV SWAP1 POP PUSH1 0x1 DUP3 AND DUP1 PUSH2 0xC30 JUMPI PUSH1 0x7F DUP3 AND SWAP2 POP JUMPDEST PUSH1 0x20 DUP3 LT DUP2 EQ ISZERO PUSH2 0xC44 JUMPI PUSH2 0xC43 PUSH2 0xCAA JUMP JUMPDEST JUMPDEST POP SWAP2 SWAP1 POP JUMP JUMPDEST PUSH2 0xC53 DUP3 PUSH2 0xD1C JUMP JUMPDEST DUP2 ADD DUP2 DUP2 LT PUSH8 0xFFFFFFFFFFFFFFFF DUP3 GT OR ISZERO PUSH2 0xC72 JUMPI PUSH2 0xC71 PUSH2 0xCD9 JUMP JUMPDEST JUMPDEST DUP1 PUSH1 0x40 MSTORE POP POP POP JUMP JUMPDEST PUSH32 0x4E487B7100000000000000000000000000000000000000000000000000000000 PUSH1 0x0 MSTORE PUSH1 0x11 PUSH1 0x4 MSTORE PUSH1 0x24 PUSH1 0x0 REVERT JUMPDEST PUSH32 0x4E487B7100000000000000000000000000000000000000000000000000000000 PUSH1 0x0 MSTORE PUSH1 0x22 PUSH1 0x4 MSTORE PUSH1 0x24 PUSH1 0x0 REVERT JUMPDEST PUSH32 0x4E487B7100000000000000000000000000000000000000000000000000000000 PUSH1 0x0 MSTORE PUSH1 0x41 PUSH1 0x4 MSTORE PUSH1 0x24 PUSH1 0x0 REVERT JUMPDEST PUSH1 0x0 DUP1 REVERT JUMPDEST PUSH1 0x0 DUP1 REVERT JUMPDEST PUSH1 0x0 DUP1 REVERT JUMPDEST PUSH1 0x0 DUP1 REVERT JUMPDEST PUSH1 0x0 PUSH1 0x1F NOT PUSH1 0x1F DUP4 ADD AND SWAP1 POP SWAP2 SWAP1 POP JUMP JUMPDEST PUSH2 0xD36 DUP2 PUSH2 0xB9A JUMP JUMPDEST DUP2 EQ PUSH2 0xD41 JUMPI PUSH1 0x0 DUP1 REVERT JUMPDEST POP JUMP JUMPDEST PUSH2 0xD4D DUP2 PUSH2 0xBCC JUMP JUMPDEST DUP2 EQ PUSH2 0xD58 JUMPI PUSH1 0x0 DUP1 REVERT JUMPDEST POP JUMP INVALID LOG2 PUSH5 0x6970667358 0x22 SLT KECCAK256 0xB4 RETURNDATASIZE 0x4D DUP6 0xED 0xAE POP 0xDE 0x5E 0xA6 0xBA 0x25 0xDF SWAP7 0x4C PUSH21 0xBE9C79253ACCC18622E3B7C04BF60B264736F6C63 NUMBER STOP ADDMOD SMOD STOP CALLER "
				},
				"gasEstimates": {
					"creation": {
						"codeDepositCost": "694600",
						"executionCost": "infinite",
						"totalCost": "infinite"
					},
					"external": {
						"balances(address)": "2836",
						"getInfoByWallet(address)": "infinite",
						"mint(address,uint256)": "infinite",
						"minter()": "2489",
						"send(address,uint256)": "infinite",
						"setInfo(address,string,uint256,string,uint256,string)": "infinite"
					}
				},
				"methodIdentifiers": {
					"balances(address)": "27e235e3",
					"getInfoByWallet(address)": "8b9c657a",
					"mint(address,uint256)": "40c10f19",
					"minter()": "07546172",
					"send(address,uint256)": "d0679d34",
					"setInfo(address,string,uint256,string,uint256,string)": "0ebcbdb8"
				}
			},
			"storageLayout": {
				"storage": [
					{
						"astId": 3,
						"contract": "test2.sol:status",
						"label": "minter",
						"offset": 0,
						"slot": "0",
						"type": "t_address"
					},
					{
						"astId": 7,
						"contract": "test2.sol:status",
						"label": "balances",
						"offset": 0,
						"slot": "1",
						"type": "t_mapping(t_address,t_uint256)"
					},
					{
						"astId": 33,
						"contract": "test2.sol:status",
						"label": "name",
						"offset": 0,
						"slot": "2",
						"type": "t_string_storage"
					},
					{
						"astId": 36,
						"contract": "test2.sol:status",
						"label": "balance",
						"offset": 0,
						"slot": "3",
						"type": "t_uint256"
					},
					{
						"astId": 40,
						"contract": "test2.sol:status",
						"label": "Students",
						"offset": 0,
						"slot": "4",
						"type": "t_array(t_struct(Student)30_storage)dyn_storage"
					},
					{
						"astId": 45,
						"contract": "test2.sol:status",
						"label": "getInfoByWallet",
						"offset": 0,
						"slot": "5",
						"type": "t_mapping(t_address,t_struct(Student)30_storage)"
					}
				],
				"types": {
					"t_address": {
						"encoding": "inplace",
						"label": "address",
						"numberOfBytes": "20"
					},
					"t_array(t_struct(Student)30_storage)dyn_storage": {
						"base": "t_struct(Student)30_storage",
						"encoding": "dynamic_array",
						"label": "struct status.Student[]",
						"numberOfBytes": "32"
					},
					"t_mapping(t_address,t_struct(Student)30_storage)": {
						"encoding": "mapping",
						"key": "t_address",
						"label": "mapping(address => struct status.Student)",
						"numberOfBytes": "32",
						"value": "t_struct(Student)30_storage"
					},
					"t_mapping(t_address,t_uint256)": {
						"encoding": "mapping",
						"key": "t_address",
						"label": "mapping(address => uint256)",
						"numberOfBytes": "32",
						"value": "t_uint256"
					},
					"t_string_storage": {
						"encoding": "bytes",
						"label": "string",
						"numberOfBytes": "32"
					},
					"t_struct(Student)30_storage": {
						"encoding": "inplace",
						"label": "struct status.Student",
						"members": [
							{
								"astId": 17,
								"contract": "test2.sol:status",
								"label": "name",
								"offset": 0,
								"slot": "0",
								"type": "t_string_storage"
							},
							{
								"astId": 19,
								"contract": "test2.sol:status",
								"label": "StudentID",
								"offset": 0,
								"slot": "1",
								"type": "t_uint256"
							},
							{
								"astId": 21,
								"contract": "test2.sol:status",
								"label": "major",
								"offset": 0,
								"slot": "2",
								"type": "t_string_storage"
							},
							{
								"astId": 23,
								"contract": "test2.sol:status",
								"label": "gpa",
								"offset": 0,
								"slot": "3",
								"type": "t_uint256"
							},
							{
								"astId": 25,
								"contract": "test2.sol:status",
								"label": "company",
								"offset": 0,
								"slot": "4",
								"type": "t_string_storage"
							},
							{
								"astId": 29,
								"contract": "test2.sol:status",
								"label": "balances",
								"offset": 0,
								"slot": "5",
								"type": "t_mapping(t_address,t_uint256)"
							}
						],
						"numberOfBytes": "192"
					},
					"t_uint256": {
						"encoding": "inplace",
						"label": "uint256",
						"numberOfBytes": "32"
					}
				}
			},
			"userdoc": {
				"kind": "user",
				"methods": {},
				"version": 1
			}
		}
	}
}