{
	"sendtosend.sol": {
		"status": {
			"abi": [
				{
					"anonymous": false,
					"inputs": [
						{
							"indexed": false,
							"internalType": "address",
							"name": "from",
							"type": "address"
						},
						{
							"indexed": false,
							"internalType": "address",
							"name": "to",
							"type": "address"
						},
						{
							"indexed": false,
							"internalType": "uint256",
							"name": "amount",
							"type": "uint256"
						}
					],
					"name": "Sent",
					"type": "event"
				},
				{
					"anonymous": false,
					"inputs": [
						{
							"indexed": false,
							"internalType": "uint256",
							"name": "_value",
							"type": "uint256"
						}
					],
					"name": "howMuch",
					"type": "event"
				},
				{
					"inputs": [
						{
							"internalType": "address",
							"name": "",
							"type": "address"
						}
					],
					"name": "getInfoByWallet",
					"outputs": [
						{
							"internalType": "string",
							"name": "name",
							"type": "string"
						},
						{
							"internalType": "uint256",
							"name": "StudentID",
							"type": "uint256"
						},
						{
							"internalType": "string",
							"name": "major",
							"type": "string"
						},
						{
							"internalType": "uint256",
							"name": "gpa",
							"type": "uint256"
						},
						{
							"internalType": "string",
							"name": "company",
							"type": "string"
						},
						{
							"internalType": "uint256",
							"name": "balance",
							"type": "uint256"
						}
					],
					"stateMutability": "view",
					"type": "function"
				},
				{
					"inputs": [
						{
							"internalType": "address payable",
							"name": "receiver",
							"type": "address"
						}
					],
					"name": "sendNow",
					"outputs": [],
					"stateMutability": "payable",
					"type": "function"
				},
				{
					"inputs": [
						{
							"internalType": "address",
							"name": "_addr",
							"type": "address"
						},
						{
							"internalType": "string",
							"name": "_name",
							"type": "string"
						},
						{
							"internalType": "uint256",
							"name": "_StudentID",
							"type": "uint256"
						},
						{
							"internalType": "string",
							"name": "_major",
							"type": "string"
						},
						{
							"internalType": "uint256",
							"name": "_gpa",
							"type": "uint256"
						},
						{
							"internalType": "string",
							"name": "_company",
							"type": "string"
						}
					],
					"name": "setInfo",
					"outputs": [],
					"stateMutability": "payable",
					"type": "function"
				}
			],
			"devdoc": {
				"kind": "dev",
				"methods": {},
				"version": 1
			},
			"evm": {
				"assembly": "    /* \"sendtosend.sol\":72:1518  contract status{\r... */\n  mstore(0x40, 0x80)\n    /* \"sendtosend.sol\":453:469  string name = \"\" */\n  mload(0x40)\n  dup1\n  0x20\n  add\n  0x40\n  mstore\n  dup1\n  0x00\n  dup2\n  mstore\n  pop\n  0x00\n  swap1\n  dup1\n  mload\n  swap1\n  0x20\n  add\n  swap1\n  tag_1\n  swap3\n  swap2\n  swap1\n  tag_2\n  jump\t// in\ntag_1:\n  pop\n    /* \"sendtosend.sol\":494:495  0 */\n  0x00\n    /* \"sendtosend.sol\":476:495  uint256 balance = 0 */\n  0x01\n  sstore\n    /* \"sendtosend.sol\":72:1518  contract status{\r... */\n  callvalue\n  dup1\n  iszero\n  tag_3\n  jumpi\n  0x00\n  dup1\n  revert\ntag_3:\n  pop\n  jump(tag_4)\ntag_2:\n  dup3\n  dup1\n  sload\n  tag_5\n  swap1\n  tag_6\n  jump\t// in\ntag_5:\n  swap1\n  0x00\n  mstore\n  keccak256(0x00, 0x20)\n  swap1\n  0x1f\n  add\n  0x20\n  swap1\n  div\n  dup2\n  add\n  swap3\n  dup3\n  tag_8\n  jumpi\n  0x00\n  dup6\n  sstore\n  jump(tag_7)\ntag_8:\n  dup3\n  0x1f\n  lt\n  tag_9\n  jumpi\n  dup1\n  mload\n  not(0xff)\n  and\n  dup4\n  dup1\n  add\n  or\n  dup6\n  sstore\n  jump(tag_7)\ntag_9:\n  dup3\n  dup1\n  add\n  0x01\n  add\n  dup6\n  sstore\n  dup3\n  iszero\n  tag_7\n  jumpi\n  swap2\n  dup3\n  add\ntag_10:\n  dup3\n  dup2\n  gt\n  iszero\n  tag_11\n  jumpi\n  dup3\n  mload\n  dup3\n  sstore\n  swap2\n  0x20\n  add\n  swap2\n  swap1\n  0x01\n  add\n  swap1\n  jump(tag_10)\ntag_11:\ntag_7:\n  pop\n  swap1\n  pop\n  tag_12\n  swap2\n  swap1\n  tag_13\n  jump\t// in\ntag_12:\n  pop\n  swap1\n  jump\t// out\ntag_13:\ntag_14:\n  dup1\n  dup3\n  gt\n  iszero\n  tag_15\n  jumpi\n  0x00\n  dup2\n  0x00\n  swap1\n  sstore\n  pop\n  0x01\n  add\n  jump(tag_14)\ntag_15:\n  pop\n  swap1\n  jump\t// out\n    /* \"#utility.yul\":7:327   */\ntag_6:\n    /* \"#utility.yul\":51:57   */\n  0x00\n    /* \"#utility.yul\":88:89   */\n  0x02\n    /* \"#utility.yul\":82:86   */\n  dup3\n    /* \"#utility.yul\":78:90   */\n  div\n    /* \"#utility.yul\":68:90   */\n  swap1\n  pop\n    /* \"#utility.yul\":135:136   */\n  0x01\n    /* \"#utility.yul\":129:133   */\n  dup3\n    /* \"#utility.yul\":125:137   */\n  and\n    /* \"#utility.yul\":156:174   */\n  dup1\n    /* \"#utility.yul\":146:227   */\n  tag_18\n  jumpi\n    /* \"#utility.yul\":212:216   */\n  0x7f\n    /* \"#utility.yul\":204:210   */\n  dup3\n    /* \"#utility.yul\":200:217   */\n  and\n    /* \"#utility.yul\":190:217   */\n  swap2\n  pop\n    /* \"#utility.yul\":146:227   */\ntag_18:\n    /* \"#utility.yul\":274:276   */\n  0x20\n    /* \"#utility.yul\":266:272   */\n  dup3\n    /* \"#utility.yul\":263:277   */\n  lt\n    /* \"#utility.yul\":243:261   */\n  dup2\n    /* \"#utility.yul\":240:278   */\n  eq\n    /* \"#utility.yul\":237:321   */\n  iszero\n  tag_19\n  jumpi\n    /* \"#utility.yul\":293:311   */\n  tag_20\n  tag_21\n  jump\t// in\ntag_20:\n    /* \"#utility.yul\":237:321   */\ntag_19:\n    /* \"#utility.yul\":58:327   */\n  pop\n    /* \"#utility.yul\":7:327   */\n  swap2\n  swap1\n  pop\n  jump\t// out\n    /* \"#utility.yul\":333:513   */\ntag_21:\n    /* \"#utility.yul\":381:458   */\n  0x4e487b7100000000000000000000000000000000000000000000000000000000\n    /* \"#utility.yul\":378:379   */\n  0x00\n    /* \"#utility.yul\":371:459   */\n  mstore\n    /* \"#utility.yul\":478:482   */\n  0x22\n    /* \"#utility.yul\":475:476   */\n  0x04\n    /* \"#utility.yul\":468:483   */\n  mstore\n    /* \"#utility.yul\":502:506   */\n  0x24\n    /* \"#utility.yul\":499:500   */\n  0x00\n    /* \"#utility.yul\":492:507   */\n  revert\n    /* \"sendtosend.sol\":72:1518  contract status{\r... */\ntag_4:\n  dataSize(sub_0)\n  dup1\n  dataOffset(sub_0)\n  0x00\n  codecopy\n  0x00\n  return\nstop\n\nsub_0: assembly {\n        /* \"sendtosend.sol\":72:1518  contract status{\r... */\n      mstore(0x40, 0x80)\n      jumpi(tag_1, lt(calldatasize, 0x04))\n      shr(0xe0, calldataload(0x00))\n      dup1\n      0x0b1fa23f\n      eq\n      tag_2\n      jumpi\n      dup1\n      0x0ebcbdb8\n      eq\n      tag_3\n      jumpi\n      dup1\n      0x8b9c657a\n      eq\n      tag_4\n      jumpi\n    tag_1:\n      0x00\n      dup1\n      revert\n        /* \"sendtosend.sol\":1376:1515  function sendNow(address payable receiver) public payable {\r... */\n    tag_2:\n      tag_5\n      0x04\n      dup1\n      calldatasize\n      sub\n      dup2\n      add\n      swap1\n      tag_6\n      swap2\n      swap1\n      tag_7\n      jump\t// in\n    tag_6:\n      tag_8\n      jump\t// in\n    tag_5:\n      stop\n        /* \"sendtosend.sol\":588:1047  function setInfo(address _addr, string memory _name, uint256 _StudentID, string memory _major, uint256 _gpa, string memory _company) public payable {\r... */\n    tag_3:\n      tag_9\n      0x04\n      dup1\n      calldatasize\n      sub\n      dup2\n      add\n      swap1\n      tag_10\n      swap2\n      swap1\n      tag_11\n      jump\t// in\n    tag_10:\n      tag_12\n      jump\t// in\n    tag_9:\n      stop\n        /* \"sendtosend.sol\":529:579  mapping(address => Student) public getInfoByWallet */\n    tag_4:\n      callvalue\n      dup1\n      iszero\n      tag_13\n      jumpi\n      0x00\n      dup1\n      revert\n    tag_13:\n      pop\n      tag_14\n      0x04\n      dup1\n      calldatasize\n      sub\n      dup2\n      add\n      swap1\n      tag_15\n      swap2\n      swap1\n      tag_16\n      jump\t// in\n    tag_15:\n      tag_17\n      jump\t// in\n    tag_14:\n      mload(0x40)\n      tag_18\n      swap7\n      swap6\n      swap5\n      swap4\n      swap3\n      swap2\n      swap1\n      tag_19\n      jump\t// in\n    tag_18:\n      mload(0x40)\n      dup1\n      swap2\n      sub\n      swap1\n      return\n        /* \"sendtosend.sol\":1376:1515  function sendNow(address payable receiver) public payable {\r... */\n    tag_8:\n        /* \"sendtosend.sol\":1445:1453  receiver */\n      dup1\n        /* \"sendtosend.sol\":1445:1462  receiver.transfer */\n      0xffffffffffffffffffffffffffffffffffffffff\n      and\n        /* \"sendtosend.sol\":1445:1473  receiver.transfer(msg.value) */\n      0x08fc\n        /* \"sendtosend.sol\":1463:1472  msg.value */\n      callvalue\n        /* \"sendtosend.sol\":1445:1473  receiver.transfer(msg.value) */\n      swap1\n      dup2\n      iszero\n      mul\n      swap1\n      mload(0x40)\n      0x00\n      mload(0x40)\n      dup1\n      dup4\n      sub\n      dup2\n      dup6\n      dup9\n      dup9\n      call\n      swap4\n      pop\n      pop\n      pop\n      pop\n      iszero\n      dup1\n      iszero\n      tag_22\n      jumpi\n      returndatasize\n      0x00\n      dup1\n      returndatacopy\n      revert(0x00, returndatasize)\n    tag_22:\n      pop\n        /* \"sendtosend.sol\":1489:1507  howMuch(msg.value) */\n      0xe4f740571b79610deff27ca80ef3046de224a7fc42e82177a0d9919cd5b7a8d9\n        /* \"sendtosend.sol\":1497:1506  msg.value */\n      callvalue\n        /* \"sendtosend.sol\":1489:1507  howMuch(msg.value) */\n      mload(0x40)\n      tag_23\n      swap2\n      swap1\n      tag_24\n      jump\t// in\n    tag_23:\n      mload(0x40)\n      dup1\n      swap2\n      sub\n      swap1\n      log1\n        /* \"sendtosend.sol\":1376:1515  function sendNow(address payable receiver) public payable {\r... */\n      pop\n      jump\t// out\n        /* \"sendtosend.sol\":588:1047  function setInfo(address _addr, string memory _name, uint256 _StudentID, string memory _major, uint256 _gpa, string memory _company) public payable {\r... */\n    tag_12:\n        /* \"sendtosend.sol\":777:782  _name */\n      dup5\n        /* \"sendtosend.sol\":747:762  getInfoByWallet */\n      0x03\n        /* \"sendtosend.sol\":747:769  getInfoByWallet[_addr] */\n      0x00\n        /* \"sendtosend.sol\":763:768  _addr */\n      dup9\n        /* \"sendtosend.sol\":747:769  getInfoByWallet[_addr] */\n      0xffffffffffffffffffffffffffffffffffffffff\n      and\n      0xffffffffffffffffffffffffffffffffffffffff\n      and\n      dup2\n      mstore\n      0x20\n      add\n      swap1\n      dup2\n      mstore\n      0x20\n      add\n      0x00\n      keccak256\n        /* \"sendtosend.sol\":747:774  getInfoByWallet[_addr].name */\n      0x00\n      add\n        /* \"sendtosend.sol\":747:782  getInfoByWallet[_addr].name = _name */\n      swap1\n      dup1\n      mload\n      swap1\n      0x20\n      add\n      swap1\n      tag_26\n      swap3\n      swap2\n      swap1\n      tag_27\n      jump\t// in\n    tag_26:\n      pop\n        /* \"sendtosend.sol\":828:838  _StudentID */\n      dup4\n        /* \"sendtosend.sol\":793:808  getInfoByWallet */\n      0x03\n        /* \"sendtosend.sol\":793:815  getInfoByWallet[_addr] */\n      0x00\n        /* \"sendtosend.sol\":809:814  _addr */\n      dup9\n        /* \"sendtosend.sol\":793:815  getInfoByWallet[_addr] */\n      0xffffffffffffffffffffffffffffffffffffffff\n      and\n      0xffffffffffffffffffffffffffffffffffffffff\n      and\n      dup2\n      mstore\n      0x20\n      add\n      swap1\n      dup2\n      mstore\n      0x20\n      add\n      0x00\n      keccak256\n        /* \"sendtosend.sol\":793:825  getInfoByWallet[_addr].StudentID */\n      0x01\n      add\n        /* \"sendtosend.sol\":793:838  getInfoByWallet[_addr].StudentID = _StudentID */\n      dup2\n      swap1\n      sstore\n      pop\n        /* \"sendtosend.sol\":880:886  _major */\n      dup3\n        /* \"sendtosend.sol\":849:864  getInfoByWallet */\n      0x03\n        /* \"sendtosend.sol\":849:871  getInfoByWallet[_addr] */\n      0x00\n        /* \"sendtosend.sol\":865:870  _addr */\n      dup9\n        /* \"sendtosend.sol\":849:871  getInfoByWallet[_addr] */\n      0xffffffffffffffffffffffffffffffffffffffff\n      and\n      0xffffffffffffffffffffffffffffffffffffffff\n      and\n      dup2\n      mstore\n      0x20\n      add\n      swap1\n      dup2\n      mstore\n      0x20\n      add\n      0x00\n      keccak256\n        /* \"sendtosend.sol\":849:877  getInfoByWallet[_addr].major */\n      0x02\n      add\n        /* \"sendtosend.sol\":849:886  getInfoByWallet[_addr].major = _major */\n      swap1\n      dup1\n      mload\n      swap1\n      0x20\n      add\n      swap1\n      tag_28\n      swap3\n      swap2\n      swap1\n      tag_27\n      jump\t// in\n    tag_28:\n      pop\n        /* \"sendtosend.sol\":926:930  _gpa */\n      dup2\n        /* \"sendtosend.sol\":897:912  getInfoByWallet */\n      0x03\n        /* \"sendtosend.sol\":897:919  getInfoByWallet[_addr] */\n      0x00\n        /* \"sendtosend.sol\":913:918  _addr */\n      dup9\n        /* \"sendtosend.sol\":897:919  getInfoByWallet[_addr] */\n      0xffffffffffffffffffffffffffffffffffffffff\n      and\n      0xffffffffffffffffffffffffffffffffffffffff\n      and\n      dup2\n      mstore\n      0x20\n      add\n      swap1\n      dup2\n      mstore\n      0x20\n      add\n      0x00\n      keccak256\n        /* \"sendtosend.sol\":897:923  getInfoByWallet[_addr].gpa */\n      0x03\n      add\n        /* \"sendtosend.sol\":897:930  getInfoByWallet[_addr].gpa = _gpa */\n      dup2\n      swap1\n      sstore\n      pop\n        /* \"sendtosend.sol\":974:982  _company */\n      dup1\n        /* \"sendtosend.sol\":941:956  getInfoByWallet */\n      0x03\n        /* \"sendtosend.sol\":941:963  getInfoByWallet[_addr] */\n      0x00\n        /* \"sendtosend.sol\":957:962  _addr */\n      dup9\n        /* \"sendtosend.sol\":941:963  getInfoByWallet[_addr] */\n      0xffffffffffffffffffffffffffffffffffffffff\n      and\n      0xffffffffffffffffffffffffffffffffffffffff\n      and\n      dup2\n      mstore\n      0x20\n      add\n      swap1\n      dup2\n      mstore\n      0x20\n      add\n      0x00\n      keccak256\n        /* \"sendtosend.sol\":941:971  getInfoByWallet[_addr].company */\n      0x04\n      add\n        /* \"sendtosend.sol\":941:982  getInfoByWallet[_addr].company = _company */\n      swap1\n      dup1\n      mload\n      swap1\n      0x20\n      add\n      swap1\n      tag_29\n      swap3\n      swap2\n      swap1\n      tag_27\n      jump\t// in\n    tag_29:\n      pop\n        /* \"sendtosend.sol\":1026:1031  _addr */\n      dup6\n        /* \"sendtosend.sol\":1026:1039  _addr.balance */\n      0xffffffffffffffffffffffffffffffffffffffff\n      and\n      balance\n        /* \"sendtosend.sol\":993:1008  getInfoByWallet */\n      0x03\n        /* \"sendtosend.sol\":993:1015  getInfoByWallet[_addr] */\n      0x00\n        /* \"sendtosend.sol\":1009:1014  _addr */\n      dup9\n        /* \"sendtosend.sol\":993:1015  getInfoByWallet[_addr] */\n      0xffffffffffffffffffffffffffffffffffffffff\n      and\n      0xffffffffffffffffffffffffffffffffffffffff\n      and\n      dup2\n      mstore\n      0x20\n      add\n      swap1\n      dup2\n      mstore\n      0x20\n      add\n      0x00\n      keccak256\n        /* \"sendtosend.sol\":993:1023  getInfoByWallet[_addr].balance */\n      0x05\n      add\n        /* \"sendtosend.sol\":993:1039  getInfoByWallet[_addr].balance = _addr.balance */\n      dup2\n      swap1\n      sstore\n      pop\n        /* \"sendtosend.sol\":588:1047  function setInfo(address _addr, string memory _name, uint256 _StudentID, string memory _major, uint256 _gpa, string memory _company) public payable {\r... */\n      pop\n      pop\n      pop\n      pop\n      pop\n      pop\n      jump\t// out\n        /* \"sendtosend.sol\":529:579  mapping(address => Student) public getInfoByWallet */\n    tag_17:\n      mstore(0x20, 0x03)\n      dup1\n      0x00\n      mstore\n      keccak256(0x00, 0x40)\n      0x00\n      swap2\n      pop\n      swap1\n      pop\n      dup1\n      0x00\n      add\n      dup1\n      sload\n      tag_30\n      swap1\n      tag_31\n      jump\t// in\n    tag_30:\n      dup1\n      0x1f\n      add\n      0x20\n      dup1\n      swap2\n      div\n      mul\n      0x20\n      add\n      mload(0x40)\n      swap1\n      dup2\n      add\n      0x40\n      mstore\n      dup1\n      swap3\n      swap2\n      swap1\n      dup2\n      dup2\n      mstore\n      0x20\n      add\n      dup3\n      dup1\n      sload\n      tag_32\n      swap1\n      tag_31\n      jump\t// in\n    tag_32:\n      dup1\n      iszero\n      tag_33\n      jumpi\n      dup1\n      0x1f\n      lt\n      tag_34\n      jumpi\n      0x0100\n      dup1\n      dup4\n      sload\n      div\n      mul\n      dup4\n      mstore\n      swap2\n      0x20\n      add\n      swap2\n      jump(tag_33)\n    tag_34:\n      dup3\n      add\n      swap2\n      swap1\n      0x00\n      mstore\n      keccak256(0x00, 0x20)\n      swap1\n    tag_35:\n      dup2\n      sload\n      dup2\n      mstore\n      swap1\n      0x01\n      add\n      swap1\n      0x20\n      add\n      dup1\n      dup4\n      gt\n      tag_35\n      jumpi\n      dup3\n      swap1\n      sub\n      0x1f\n      and\n      dup3\n      add\n      swap2\n    tag_33:\n      pop\n      pop\n      pop\n      pop\n      pop\n      swap1\n      dup1\n      0x01\n      add\n      sload\n      swap1\n      dup1\n      0x02\n      add\n      dup1\n      sload\n      tag_36\n      swap1\n      tag_31\n      jump\t// in\n    tag_36:\n      dup1\n      0x1f\n      add\n      0x20\n      dup1\n      swap2\n      div\n      mul\n      0x20\n      add\n      mload(0x40)\n      swap1\n      dup2\n      add\n      0x40\n      mstore\n      dup1\n      swap3\n      swap2\n      swap1\n      dup2\n      dup2\n      mstore\n      0x20\n      add\n      dup3\n      dup1\n      sload\n      tag_37\n      swap1\n      tag_31\n      jump\t// in\n    tag_37:\n      dup1\n      iszero\n      tag_38\n      jumpi\n      dup1\n      0x1f\n      lt\n      tag_39\n      jumpi\n      0x0100\n      dup1\n      dup4\n      sload\n      div\n      mul\n      dup4\n      mstore\n      swap2\n      0x20\n      add\n      swap2\n      jump(tag_38)\n    tag_39:\n      dup3\n      add\n      swap2\n      swap1\n      0x00\n      mstore\n      keccak256(0x00, 0x20)\n      swap1\n    tag_40:\n      dup2\n      sload\n      dup2\n      mstore\n      swap1\n      0x01\n      add\n      swap1\n      0x20\n      add\n      dup1\n      dup4\n      gt\n      tag_40\n      jumpi\n      dup3\n      swap1\n      sub\n      0x1f\n      and\n      dup3\n      add\n      swap2\n    tag_38:\n      pop\n      pop\n      pop\n      pop\n      pop\n      swap1\n      dup1\n      0x03\n      add\n      sload\n      swap1\n      dup1\n      0x04\n      add\n      dup1\n      sload\n      tag_41\n      swap1\n      tag_31\n      jump\t// in\n    tag_41:\n      dup1\n      0x1f\n      add\n      0x20\n      dup1\n      swap2\n      div\n      mul\n      0x20\n      add\n      mload(0x40)\n      swap1\n      dup2\n      add\n      0x40\n      mstore\n      dup1\n      swap3\n      swap2\n      swap1\n      dup2\n      dup2\n      mstore\n      0x20\n      add\n      dup3\n      dup1\n      sload\n      tag_42\n      swap1\n      tag_31\n      jump\t// in\n    tag_42:\n      dup1\n      iszero\n      tag_43\n      jumpi\n      dup1\n      0x1f\n      lt\n      tag_44\n      jumpi\n      0x0100\n      dup1\n      dup4\n      sload\n      div\n      mul\n      dup4\n      mstore\n      swap2\n      0x20\n      add\n      swap2\n      jump(tag_43)\n    tag_44:\n      dup3\n      add\n      swap2\n      swap1\n      0x00\n      mstore\n      keccak256(0x00, 0x20)\n      swap1\n    tag_45:\n      dup2\n      sload\n      dup2\n      mstore\n      swap1\n      0x01\n      add\n      swap1\n      0x20\n      add\n      dup1\n      dup4\n      gt\n      tag_45\n      jumpi\n      dup3\n      swap1\n      sub\n      0x1f\n      and\n      dup3\n      add\n      swap2\n    tag_43:\n      pop\n      pop\n      pop\n      pop\n      pop\n      swap1\n      dup1\n      0x05\n      add\n      sload\n      swap1\n      pop\n      dup7\n      jump\t// out\n    tag_27:\n      dup3\n      dup1\n      sload\n      tag_46\n      swap1\n      tag_31\n      jump\t// in\n    tag_46:\n      swap1\n      0x00\n      mstore\n      keccak256(0x00, 0x20)\n      swap1\n      0x1f\n      add\n      0x20\n      swap1\n      div\n      dup2\n      add\n      swap3\n      dup3\n      tag_48\n      jumpi\n      0x00\n      dup6\n      sstore\n      jump(tag_47)\n    tag_48:\n      dup3\n      0x1f\n      lt\n      tag_49\n      jumpi\n      dup1\n      mload\n      not(0xff)\n      and\n      dup4\n      dup1\n      add\n      or\n      dup6\n      sstore\n      jump(tag_47)\n    tag_49:\n      dup3\n      dup1\n      add\n      0x01\n      add\n      dup6\n      sstore\n      dup3\n      iszero\n      tag_47\n      jumpi\n      swap2\n      dup3\n      add\n    tag_50:\n      dup3\n      dup2\n      gt\n      iszero\n      tag_51\n      jumpi\n      dup3\n      mload\n      dup3\n      sstore\n      swap2\n      0x20\n      add\n      swap2\n      swap1\n      0x01\n      add\n      swap1\n      jump(tag_50)\n    tag_51:\n    tag_47:\n      pop\n      swap1\n      pop\n      tag_52\n      swap2\n      swap1\n      tag_53\n      jump\t// in\n    tag_52:\n      pop\n      swap1\n      jump\t// out\n    tag_53:\n    tag_54:\n      dup1\n      dup3\n      gt\n      iszero\n      tag_55\n      jumpi\n      0x00\n      dup2\n      0x00\n      swap1\n      sstore\n      pop\n      0x01\n      add\n      jump(tag_54)\n    tag_55:\n      pop\n      swap1\n      jump\t// out\n        /* \"#utility.yul\":7:419   */\n    tag_57:\n        /* \"#utility.yul\":85:90   */\n      0x00\n        /* \"#utility.yul\":110:176   */\n      tag_59\n        /* \"#utility.yul\":126:175   */\n      tag_60\n        /* \"#utility.yul\":168:174   */\n      dup5\n        /* \"#utility.yul\":126:175   */\n      tag_61\n      jump\t// in\n    tag_60:\n        /* \"#utility.yul\":110:176   */\n      tag_62\n      jump\t// in\n    tag_59:\n        /* \"#utility.yul\":101:176   */\n      swap1\n      pop\n        /* \"#utility.yul\":199:205   */\n      dup3\n        /* \"#utility.yul\":192:197   */\n      dup2\n        /* \"#utility.yul\":185:206   */\n      mstore\n        /* \"#utility.yul\":237:241   */\n      0x20\n        /* \"#utility.yul\":230:235   */\n      dup2\n        /* \"#utility.yul\":226:242   */\n      add\n        /* \"#utility.yul\":275:278   */\n      dup5\n        /* \"#utility.yul\":266:272   */\n      dup5\n        /* \"#utility.yul\":261:264   */\n      dup5\n        /* \"#utility.yul\":257:273   */\n      add\n        /* \"#utility.yul\":254:279   */\n      gt\n        /* \"#utility.yul\":251:363   */\n      iszero\n      tag_63\n      jumpi\n        /* \"#utility.yul\":282:361   */\n      tag_64\n      tag_65\n      jump\t// in\n    tag_64:\n        /* \"#utility.yul\":251:363   */\n    tag_63:\n        /* \"#utility.yul\":372:413   */\n      tag_66\n        /* \"#utility.yul\":406:412   */\n      dup5\n        /* \"#utility.yul\":401:404   */\n      dup3\n        /* \"#utility.yul\":396:399   */\n      dup6\n        /* \"#utility.yul\":372:413   */\n      tag_67\n      jump\t// in\n    tag_66:\n        /* \"#utility.yul\":91:419   */\n      pop\n        /* \"#utility.yul\":7:419   */\n      swap4\n      swap3\n      pop\n      pop\n      pop\n      jump\t// out\n        /* \"#utility.yul\":425:564   */\n    tag_68:\n        /* \"#utility.yul\":471:476   */\n      0x00\n        /* \"#utility.yul\":509:515   */\n      dup2\n        /* \"#utility.yul\":496:516   */\n      calldataload\n        /* \"#utility.yul\":487:516   */\n      swap1\n      pop\n        /* \"#utility.yul\":525:558   */\n      tag_70\n        /* \"#utility.yul\":552:557   */\n      dup2\n        /* \"#utility.yul\":525:558   */\n      tag_71\n      jump\t// in\n    tag_70:\n        /* \"#utility.yul\":425:564   */\n      swap3\n      swap2\n      pop\n      pop\n      jump\t// out\n        /* \"#utility.yul\":570:725   */\n    tag_72:\n        /* \"#utility.yul\":624:629   */\n      0x00\n        /* \"#utility.yul\":662:668   */\n      dup2\n        /* \"#utility.yul\":649:669   */\n      calldataload\n        /* \"#utility.yul\":640:669   */\n      swap1\n      pop\n        /* \"#utility.yul\":678:719   */\n      tag_74\n        /* \"#utility.yul\":713:718   */\n      dup2\n        /* \"#utility.yul\":678:719   */\n      tag_75\n      jump\t// in\n    tag_74:\n        /* \"#utility.yul\":570:725   */\n      swap3\n      swap2\n      pop\n      pop\n      jump\t// out\n        /* \"#utility.yul\":745:1085   */\n    tag_76:\n        /* \"#utility.yul\":801:806   */\n      0x00\n        /* \"#utility.yul\":850:853   */\n      dup3\n        /* \"#utility.yul\":843:847   */\n      0x1f\n        /* \"#utility.yul\":835:841   */\n      dup4\n        /* \"#utility.yul\":831:848   */\n      add\n        /* \"#utility.yul\":827:854   */\n      slt\n        /* \"#utility.yul\":817:939   */\n      tag_78\n      jumpi\n        /* \"#utility.yul\":858:937   */\n      tag_79\n      tag_80\n      jump\t// in\n    tag_79:\n        /* \"#utility.yul\":817:939   */\n    tag_78:\n        /* \"#utility.yul\":975:981   */\n      dup2\n        /* \"#utility.yul\":962:982   */\n      calldataload\n        /* \"#utility.yul\":1000:1079   */\n      tag_81\n        /* \"#utility.yul\":1075:1078   */\n      dup5\n        /* \"#utility.yul\":1067:1073   */\n      dup3\n        /* \"#utility.yul\":1060:1064   */\n      0x20\n        /* \"#utility.yul\":1052:1058   */\n      dup7\n        /* \"#utility.yul\":1048:1065   */\n      add\n        /* \"#utility.yul\":1000:1079   */\n      tag_57\n      jump\t// in\n    tag_81:\n        /* \"#utility.yul\":991:1079   */\n      swap2\n      pop\n        /* \"#utility.yul\":807:1085   */\n      pop\n        /* \"#utility.yul\":745:1085   */\n      swap3\n      swap2\n      pop\n      pop\n      jump\t// out\n        /* \"#utility.yul\":1091:1230   */\n    tag_82:\n        /* \"#utility.yul\":1137:1142   */\n      0x00\n        /* \"#utility.yul\":1175:1181   */\n      dup2\n        /* \"#utility.yul\":1162:1182   */\n      calldataload\n        /* \"#utility.yul\":1153:1182   */\n      swap1\n      pop\n        /* \"#utility.yul\":1191:1224   */\n      tag_84\n        /* \"#utility.yul\":1218:1223   */\n      dup2\n        /* \"#utility.yul\":1191:1224   */\n      tag_85\n      jump\t// in\n    tag_84:\n        /* \"#utility.yul\":1091:1230   */\n      swap3\n      swap2\n      pop\n      pop\n      jump\t// out\n        /* \"#utility.yul\":1236:1565   */\n    tag_16:\n        /* \"#utility.yul\":1295:1301   */\n      0x00\n        /* \"#utility.yul\":1344:1346   */\n      0x20\n        /* \"#utility.yul\":1332:1341   */\n      dup3\n        /* \"#utility.yul\":1323:1330   */\n      dup5\n        /* \"#utility.yul\":1319:1342   */\n      sub\n        /* \"#utility.yul\":1315:1347   */\n      slt\n        /* \"#utility.yul\":1312:1431   */\n      iszero\n      tag_87\n      jumpi\n        /* \"#utility.yul\":1350:1429   */\n      tag_88\n      tag_89\n      jump\t// in\n    tag_88:\n        /* \"#utility.yul\":1312:1431   */\n    tag_87:\n        /* \"#utility.yul\":1470:1471   */\n      0x00\n        /* \"#utility.yul\":1495:1548   */\n      tag_90\n        /* \"#utility.yul\":1540:1547   */\n      dup5\n        /* \"#utility.yul\":1531:1537   */\n      dup3\n        /* \"#utility.yul\":1520:1529   */\n      dup6\n        /* \"#utility.yul\":1516:1538   */\n      add\n        /* \"#utility.yul\":1495:1548   */\n      tag_68\n      jump\t// in\n    tag_90:\n        /* \"#utility.yul\":1485:1548   */\n      swap2\n      pop\n        /* \"#utility.yul\":1441:1558   */\n      pop\n        /* \"#utility.yul\":1236:1565   */\n      swap3\n      swap2\n      pop\n      pop\n      jump\t// out\n        /* \"#utility.yul\":1571:1916   */\n    tag_7:\n        /* \"#utility.yul\":1638:1644   */\n      0x00\n        /* \"#utility.yul\":1687:1689   */\n      0x20\n        /* \"#utility.yul\":1675:1684   */\n      dup3\n        /* \"#utility.yul\":1666:1673   */\n      dup5\n        /* \"#utility.yul\":1662:1685   */\n      sub\n        /* \"#utility.yul\":1658:1690   */\n      slt\n        /* \"#utility.yul\":1655:1774   */\n      iszero\n      tag_92\n      jumpi\n        /* \"#utility.yul\":1693:1772   */\n      tag_93\n      tag_89\n      jump\t// in\n    tag_93:\n        /* \"#utility.yul\":1655:1774   */\n    tag_92:\n        /* \"#utility.yul\":1813:1814   */\n      0x00\n        /* \"#utility.yul\":1838:1899   */\n      tag_94\n        /* \"#utility.yul\":1891:1898   */\n      dup5\n        /* \"#utility.yul\":1882:1888   */\n      dup3\n        /* \"#utility.yul\":1871:1880   */\n      dup6\n        /* \"#utility.yul\":1867:1889   */\n      add\n        /* \"#utility.yul\":1838:1899   */\n      tag_72\n      jump\t// in\n    tag_94:\n        /* \"#utility.yul\":1828:1899   */\n      swap2\n      pop\n        /* \"#utility.yul\":1784:1909   */\n      pop\n        /* \"#utility.yul\":1571:1916   */\n      swap3\n      swap2\n      pop\n      pop\n      jump\t// out\n        /* \"#utility.yul\":1922:3519   */\n    tag_11:\n        /* \"#utility.yul\":2056:2062   */\n      0x00\n        /* \"#utility.yul\":2064:2070   */\n      dup1\n        /* \"#utility.yul\":2072:2078   */\n      0x00\n        /* \"#utility.yul\":2080:2086   */\n      dup1\n        /* \"#utility.yul\":2088:2094   */\n      0x00\n        /* \"#utility.yul\":2096:2102   */\n      dup1\n        /* \"#utility.yul\":2145:2148   */\n      0xc0\n        /* \"#utility.yul\":2133:2142   */\n      dup8\n        /* \"#utility.yul\":2124:2131   */\n      dup10\n        /* \"#utility.yul\":2120:2143   */\n      sub\n        /* \"#utility.yul\":2116:2149   */\n      slt\n        /* \"#utility.yul\":2113:2233   */\n      iszero\n      tag_96\n      jumpi\n        /* \"#utility.yul\":2152:2231   */\n      tag_97\n      tag_89\n      jump\t// in\n    tag_97:\n        /* \"#utility.yul\":2113:2233   */\n    tag_96:\n        /* \"#utility.yul\":2272:2273   */\n      0x00\n        /* \"#utility.yul\":2297:2350   */\n      tag_98\n        /* \"#utility.yul\":2342:2349   */\n      dup10\n        /* \"#utility.yul\":2333:2339   */\n      dup3\n        /* \"#utility.yul\":2322:2331   */\n      dup11\n        /* \"#utility.yul\":2318:2340   */\n      add\n        /* \"#utility.yul\":2297:2350   */\n      tag_68\n      jump\t// in\n    tag_98:\n        /* \"#utility.yul\":2287:2350   */\n      swap7\n      pop\n        /* \"#utility.yul\":2243:2360   */\n      pop\n        /* \"#utility.yul\":2427:2429   */\n      0x20\n        /* \"#utility.yul\":2416:2425   */\n      dup8\n        /* \"#utility.yul\":2412:2430   */\n      add\n        /* \"#utility.yul\":2399:2431   */\n      calldataload\n        /* \"#utility.yul\":2458:2476   */\n      0xffffffffffffffff\n        /* \"#utility.yul\":2450:2456   */\n      dup2\n        /* \"#utility.yul\":2447:2477   */\n      gt\n        /* \"#utility.yul\":2444:2561   */\n      iszero\n      tag_99\n      jumpi\n        /* \"#utility.yul\":2480:2559   */\n      tag_100\n      tag_101\n      jump\t// in\n    tag_100:\n        /* \"#utility.yul\":2444:2561   */\n    tag_99:\n        /* \"#utility.yul\":2585:2648   */\n      tag_102\n        /* \"#utility.yul\":2640:2647   */\n      dup10\n        /* \"#utility.yul\":2631:2637   */\n      dup3\n        /* \"#utility.yul\":2620:2629   */\n      dup11\n        /* \"#utility.yul\":2616:2638   */\n      add\n        /* \"#utility.yul\":2585:2648   */\n      tag_76\n      jump\t// in\n    tag_102:\n        /* \"#utility.yul\":2575:2648   */\n      swap6\n      pop\n        /* \"#utility.yul\":2370:2658   */\n      pop\n        /* \"#utility.yul\":2697:2699   */\n      0x40\n        /* \"#utility.yul\":2723:2776   */\n      tag_103\n        /* \"#utility.yul\":2768:2775   */\n      dup10\n        /* \"#utility.yul\":2759:2765   */\n      dup3\n        /* \"#utility.yul\":2748:2757   */\n      dup11\n        /* \"#utility.yul\":2744:2766   */\n      add\n        /* \"#utility.yul\":2723:2776   */\n      tag_82\n      jump\t// in\n    tag_103:\n        /* \"#utility.yul\":2713:2776   */\n      swap5\n      pop\n        /* \"#utility.yul\":2668:2786   */\n      pop\n        /* \"#utility.yul\":2853:2855   */\n      0x60\n        /* \"#utility.yul\":2842:2851   */\n      dup8\n        /* \"#utility.yul\":2838:2856   */\n      add\n        /* \"#utility.yul\":2825:2857   */\n      calldataload\n        /* \"#utility.yul\":2884:2902   */\n      0xffffffffffffffff\n        /* \"#utility.yul\":2876:2882   */\n      dup2\n        /* \"#utility.yul\":2873:2903   */\n      gt\n        /* \"#utility.yul\":2870:2987   */\n      iszero\n      tag_104\n      jumpi\n        /* \"#utility.yul\":2906:2985   */\n      tag_105\n      tag_101\n      jump\t// in\n    tag_105:\n        /* \"#utility.yul\":2870:2987   */\n    tag_104:\n        /* \"#utility.yul\":3011:3074   */\n      tag_106\n        /* \"#utility.yul\":3066:3073   */\n      dup10\n        /* \"#utility.yul\":3057:3063   */\n      dup3\n        /* \"#utility.yul\":3046:3055   */\n      dup11\n        /* \"#utility.yul\":3042:3064   */\n      add\n        /* \"#utility.yul\":3011:3074   */\n      tag_76\n      jump\t// in\n    tag_106:\n        /* \"#utility.yul\":3001:3074   */\n      swap4\n      pop\n        /* \"#utility.yul\":2796:3084   */\n      pop\n        /* \"#utility.yul\":3123:3126   */\n      0x80\n        /* \"#utility.yul\":3150:3203   */\n      tag_107\n        /* \"#utility.yul\":3195:3202   */\n      dup10\n        /* \"#utility.yul\":3186:3192   */\n      dup3\n        /* \"#utility.yul\":3175:3184   */\n      dup11\n        /* \"#utility.yul\":3171:3193   */\n      add\n        /* \"#utility.yul\":3150:3203   */\n      tag_82\n      jump\t// in\n    tag_107:\n        /* \"#utility.yul\":3140:3203   */\n      swap3\n      pop\n        /* \"#utility.yul\":3094:3213   */\n      pop\n        /* \"#utility.yul\":3280:3283   */\n      0xa0\n        /* \"#utility.yul\":3269:3278   */\n      dup8\n        /* \"#utility.yul\":3265:3284   */\n      add\n        /* \"#utility.yul\":3252:3285   */\n      calldataload\n        /* \"#utility.yul\":3312:3330   */\n      0xffffffffffffffff\n        /* \"#utility.yul\":3304:3310   */\n      dup2\n        /* \"#utility.yul\":3301:3331   */\n      gt\n        /* \"#utility.yul\":3298:3415   */\n      iszero\n      tag_108\n      jumpi\n        /* \"#utility.yul\":3334:3413   */\n      tag_109\n      tag_101\n      jump\t// in\n    tag_109:\n        /* \"#utility.yul\":3298:3415   */\n    tag_108:\n        /* \"#utility.yul\":3439:3502   */\n      tag_110\n        /* \"#utility.yul\":3494:3501   */\n      dup10\n        /* \"#utility.yul\":3485:3491   */\n      dup3\n        /* \"#utility.yul\":3474:3483   */\n      dup11\n        /* \"#utility.yul\":3470:3492   */\n      add\n        /* \"#utility.yul\":3439:3502   */\n      tag_76\n      jump\t// in\n    tag_110:\n        /* \"#utility.yul\":3429:3502   */\n      swap2\n      pop\n        /* \"#utility.yul\":3223:3512   */\n      pop\n        /* \"#utility.yul\":1922:3519   */\n      swap3\n      swap6\n      pop\n      swap3\n      swap6\n      pop\n      swap3\n      swap6\n      jump\t// out\n        /* \"#utility.yul\":3525:3889   */\n    tag_111:\n        /* \"#utility.yul\":3613:3616   */\n      0x00\n        /* \"#utility.yul\":3641:3680   */\n      tag_113\n        /* \"#utility.yul\":3674:3679   */\n      dup3\n        /* \"#utility.yul\":3641:3680   */\n      tag_114\n      jump\t// in\n    tag_113:\n        /* \"#utility.yul\":3696:3767   */\n      tag_115\n        /* \"#utility.yul\":3760:3766   */\n      dup2\n        /* \"#utility.yul\":3755:3758   */\n      dup6\n        /* \"#utility.yul\":3696:3767   */\n      tag_116\n      jump\t// in\n    tag_115:\n        /* \"#utility.yul\":3689:3767   */\n      swap4\n      pop\n        /* \"#utility.yul\":3776:3828   */\n      tag_117\n        /* \"#utility.yul\":3821:3827   */\n      dup2\n        /* \"#utility.yul\":3816:3819   */\n      dup6\n        /* \"#utility.yul\":3809:3813   */\n      0x20\n        /* \"#utility.yul\":3802:3807   */\n      dup7\n        /* \"#utility.yul\":3798:3814   */\n      add\n        /* \"#utility.yul\":3776:3828   */\n      tag_118\n      jump\t// in\n    tag_117:\n        /* \"#utility.yul\":3853:3882   */\n      tag_119\n        /* \"#utility.yul\":3875:3881   */\n      dup2\n        /* \"#utility.yul\":3853:3882   */\n      tag_120\n      jump\t// in\n    tag_119:\n        /* \"#utility.yul\":3848:3851   */\n      dup5\n        /* \"#utility.yul\":3844:3883   */\n      add\n        /* \"#utility.yul\":3837:3883   */\n      swap2\n      pop\n        /* \"#utility.yul\":3617:3889   */\n      pop\n        /* \"#utility.yul\":3525:3889   */\n      swap3\n      swap2\n      pop\n      pop\n      jump\t// out\n        /* \"#utility.yul\":3895:4013   */\n    tag_121:\n        /* \"#utility.yul\":3982:4006   */\n      tag_123\n        /* \"#utility.yul\":4000:4005   */\n      dup2\n        /* \"#utility.yul\":3982:4006   */\n      tag_124\n      jump\t// in\n    tag_123:\n        /* \"#utility.yul\":3977:3980   */\n      dup3\n        /* \"#utility.yul\":3970:4007   */\n      mstore\n        /* \"#utility.yul\":3895:4013   */\n      pop\n      pop\n      jump\t// out\n        /* \"#utility.yul\":4019:5067   */\n    tag_19:\n        /* \"#utility.yul\":4312:4316   */\n      0x00\n        /* \"#utility.yul\":4350:4353   */\n      0xc0\n        /* \"#utility.yul\":4339:4348   */\n      dup3\n        /* \"#utility.yul\":4335:4354   */\n      add\n        /* \"#utility.yul\":4327:4354   */\n      swap1\n      pop\n        /* \"#utility.yul\":4400:4409   */\n      dup2\n        /* \"#utility.yul\":4394:4398   */\n      dup2\n        /* \"#utility.yul\":4390:4410   */\n      sub\n        /* \"#utility.yul\":4386:4387   */\n      0x00\n        /* \"#utility.yul\":4375:4384   */\n      dup4\n        /* \"#utility.yul\":4371:4388   */\n      add\n        /* \"#utility.yul\":4364:4411   */\n      mstore\n        /* \"#utility.yul\":4428:4506   */\n      tag_126\n        /* \"#utility.yul\":4501:4505   */\n      dup2\n        /* \"#utility.yul\":4492:4498   */\n      dup10\n        /* \"#utility.yul\":4428:4506   */\n      tag_111\n      jump\t// in\n    tag_126:\n        /* \"#utility.yul\":4420:4506   */\n      swap1\n      pop\n        /* \"#utility.yul\":4516:4588   */\n      tag_127\n        /* \"#utility.yul\":4584:4586   */\n      0x20\n        /* \"#utility.yul\":4573:4582   */\n      dup4\n        /* \"#utility.yul\":4569:4587   */\n      add\n        /* \"#utility.yul\":4560:4566   */\n      dup9\n        /* \"#utility.yul\":4516:4588   */\n      tag_121\n      jump\t// in\n    tag_127:\n        /* \"#utility.yul\":4635:4644   */\n      dup2\n        /* \"#utility.yul\":4629:4633   */\n      dup2\n        /* \"#utility.yul\":4625:4645   */\n      sub\n        /* \"#utility.yul\":4620:4622   */\n      0x40\n        /* \"#utility.yul\":4609:4618   */\n      dup4\n        /* \"#utility.yul\":4605:4623   */\n      add\n        /* \"#utility.yul\":4598:4646   */\n      mstore\n        /* \"#utility.yul\":4663:4741   */\n      tag_128\n        /* \"#utility.yul\":4736:4740   */\n      dup2\n        /* \"#utility.yul\":4727:4733   */\n      dup8\n        /* \"#utility.yul\":4663:4741   */\n      tag_111\n      jump\t// in\n    tag_128:\n        /* \"#utility.yul\":4655:4741   */\n      swap1\n      pop\n        /* \"#utility.yul\":4751:4823   */\n      tag_129\n        /* \"#utility.yul\":4819:4821   */\n      0x60\n        /* \"#utility.yul\":4808:4817   */\n      dup4\n        /* \"#utility.yul\":4804:4822   */\n      add\n        /* \"#utility.yul\":4795:4801   */\n      dup7\n        /* \"#utility.yul\":4751:4823   */\n      tag_121\n      jump\t// in\n    tag_129:\n        /* \"#utility.yul\":4871:4880   */\n      dup2\n        /* \"#utility.yul\":4865:4869   */\n      dup2\n        /* \"#utility.yul\":4861:4881   */\n      sub\n        /* \"#utility.yul\":4855:4858   */\n      0x80\n        /* \"#utility.yul\":4844:4853   */\n      dup4\n        /* \"#utility.yul\":4840:4859   */\n      add\n        /* \"#utility.yul\":4833:4882   */\n      mstore\n        /* \"#utility.yul\":4899:4977   */\n      tag_130\n        /* \"#utility.yul\":4972:4976   */\n      dup2\n        /* \"#utility.yul\":4963:4969   */\n      dup6\n        /* \"#utility.yul\":4899:4977   */\n      tag_111\n      jump\t// in\n    tag_130:\n        /* \"#utility.yul\":4891:4977   */\n      swap1\n      pop\n        /* \"#utility.yul\":4987:5060   */\n      tag_131\n        /* \"#utility.yul\":5055:5058   */\n      0xa0\n        /* \"#utility.yul\":5044:5053   */\n      dup4\n        /* \"#utility.yul\":5040:5059   */\n      add\n        /* \"#utility.yul\":5031:5037   */\n      dup5\n        /* \"#utility.yul\":4987:5060   */\n      tag_121\n      jump\t// in\n    tag_131:\n        /* \"#utility.yul\":4019:5067   */\n      swap8\n      swap7\n      pop\n      pop\n      pop\n      pop\n      pop\n      pop\n      pop\n      jump\t// out\n        /* \"#utility.yul\":5073:5295   */\n    tag_24:\n        /* \"#utility.yul\":5166:5170   */\n      0x00\n        /* \"#utility.yul\":5204:5206   */\n      0x20\n        /* \"#utility.yul\":5193:5202   */\n      dup3\n        /* \"#utility.yul\":5189:5207   */\n      add\n        /* \"#utility.yul\":5181:5207   */\n      swap1\n      pop\n        /* \"#utility.yul\":5217:5288   */\n      tag_133\n        /* \"#utility.yul\":5285:5286   */\n      0x00\n        /* \"#utility.yul\":5274:5283   */\n      dup4\n        /* \"#utility.yul\":5270:5287   */\n      add\n        /* \"#utility.yul\":5261:5267   */\n      dup5\n        /* \"#utility.yul\":5217:5288   */\n      tag_121\n      jump\t// in\n    tag_133:\n        /* \"#utility.yul\":5073:5295   */\n      swap3\n      swap2\n      pop\n      pop\n      jump\t// out\n        /* \"#utility.yul\":5301:5430   */\n    tag_62:\n        /* \"#utility.yul\":5335:5341   */\n      0x00\n        /* \"#utility.yul\":5362:5382   */\n      tag_135\n      tag_136\n      jump\t// in\n    tag_135:\n        /* \"#utility.yul\":5352:5382   */\n      swap1\n      pop\n        /* \"#utility.yul\":5391:5424   */\n      tag_137\n        /* \"#utility.yul\":5419:5423   */\n      dup3\n        /* \"#utility.yul\":5411:5417   */\n      dup3\n        /* \"#utility.yul\":5391:5424   */\n      tag_138\n      jump\t// in\n    tag_137:\n        /* \"#utility.yul\":5301:5430   */\n      swap2\n      swap1\n      pop\n      jump\t// out\n        /* \"#utility.yul\":5436:5511   */\n    tag_136:\n        /* \"#utility.yul\":5469:5475   */\n      0x00\n        /* \"#utility.yul\":5502:5504   */\n      0x40\n        /* \"#utility.yul\":5496:5505   */\n      mload\n        /* \"#utility.yul\":5486:5505   */\n      swap1\n      pop\n        /* \"#utility.yul\":5436:5511   */\n      swap1\n      jump\t// out\n        /* \"#utility.yul\":5517:5825   */\n    tag_61:\n        /* \"#utility.yul\":5579:5583   */\n      0x00\n        /* \"#utility.yul\":5669:5687   */\n      0xffffffffffffffff\n        /* \"#utility.yul\":5661:5667   */\n      dup3\n        /* \"#utility.yul\":5658:5688   */\n      gt\n        /* \"#utility.yul\":5655:5711   */\n      iszero\n      tag_141\n      jumpi\n        /* \"#utility.yul\":5691:5709   */\n      tag_142\n      tag_143\n      jump\t// in\n    tag_142:\n        /* \"#utility.yul\":5655:5711   */\n    tag_141:\n        /* \"#utility.yul\":5729:5758   */\n      tag_144\n        /* \"#utility.yul\":5751:5757   */\n      dup3\n        /* \"#utility.yul\":5729:5758   */\n      tag_120\n      jump\t// in\n    tag_144:\n        /* \"#utility.yul\":5721:5758   */\n      swap1\n      pop\n        /* \"#utility.yul\":5813:5817   */\n      0x20\n        /* \"#utility.yul\":5807:5811   */\n      dup2\n        /* \"#utility.yul\":5803:5818   */\n      add\n        /* \"#utility.yul\":5795:5818   */\n      swap1\n      pop\n        /* \"#utility.yul\":5517:5825   */\n      swap2\n      swap1\n      pop\n      jump\t// out\n        /* \"#utility.yul\":5831:5930   */\n    tag_114:\n        /* \"#utility.yul\":5883:5889   */\n      0x00\n        /* \"#utility.yul\":5917:5922   */\n      dup2\n        /* \"#utility.yul\":5911:5923   */\n      mload\n        /* \"#utility.yul\":5901:5923   */\n      swap1\n      pop\n        /* \"#utility.yul\":5831:5930   */\n      swap2\n      swap1\n      pop\n      jump\t// out\n        /* \"#utility.yul\":5936:6105   */\n    tag_116:\n        /* \"#utility.yul\":6020:6031   */\n      0x00\n        /* \"#utility.yul\":6054:6060   */\n      dup3\n        /* \"#utility.yul\":6049:6052   */\n      dup3\n        /* \"#utility.yul\":6042:6061   */\n      mstore\n        /* \"#utility.yul\":6094:6098   */\n      0x20\n        /* \"#utility.yul\":6089:6092   */\n      dup3\n        /* \"#utility.yul\":6085:6099   */\n      add\n        /* \"#utility.yul\":6070:6099   */\n      swap1\n      pop\n        /* \"#utility.yul\":5936:6105   */\n      swap3\n      swap2\n      pop\n      pop\n      jump\t// out\n        /* \"#utility.yul\":6111:6207   */\n    tag_147:\n        /* \"#utility.yul\":6148:6155   */\n      0x00\n        /* \"#utility.yul\":6177:6201   */\n      tag_149\n        /* \"#utility.yul\":6195:6200   */\n      dup3\n        /* \"#utility.yul\":6177:6201   */\n      tag_150\n      jump\t// in\n    tag_149:\n        /* \"#utility.yul\":6166:6201   */\n      swap1\n      pop\n        /* \"#utility.yul\":6111:6207   */\n      swap2\n      swap1\n      pop\n      jump\t// out\n        /* \"#utility.yul\":6213:6317   */\n    tag_151:\n        /* \"#utility.yul\":6258:6265   */\n      0x00\n        /* \"#utility.yul\":6287:6311   */\n      tag_153\n        /* \"#utility.yul\":6305:6310   */\n      dup3\n        /* \"#utility.yul\":6287:6311   */\n      tag_150\n      jump\t// in\n    tag_153:\n        /* \"#utility.yul\":6276:6311   */\n      swap1\n      pop\n        /* \"#utility.yul\":6213:6317   */\n      swap2\n      swap1\n      pop\n      jump\t// out\n        /* \"#utility.yul\":6323:6449   */\n    tag_150:\n        /* \"#utility.yul\":6360:6367   */\n      0x00\n        /* \"#utility.yul\":6400:6442   */\n      0xffffffffffffffffffffffffffffffffffffffff\n        /* \"#utility.yul\":6393:6398   */\n      dup3\n        /* \"#utility.yul\":6389:6443   */\n      and\n        /* \"#utility.yul\":6378:6443   */\n      swap1\n      pop\n        /* \"#utility.yul\":6323:6449   */\n      swap2\n      swap1\n      pop\n      jump\t// out\n        /* \"#utility.yul\":6455:6532   */\n    tag_124:\n        /* \"#utility.yul\":6492:6499   */\n      0x00\n        /* \"#utility.yul\":6521:6526   */\n      dup2\n        /* \"#utility.yul\":6510:6526   */\n      swap1\n      pop\n        /* \"#utility.yul\":6455:6532   */\n      swap2\n      swap1\n      pop\n      jump\t// out\n        /* \"#utility.yul\":6538:6692   */\n    tag_67:\n        /* \"#utility.yul\":6622:6628   */\n      dup3\n        /* \"#utility.yul\":6617:6620   */\n      dup2\n        /* \"#utility.yul\":6612:6615   */\n      dup4\n        /* \"#utility.yul\":6599:6629   */\n      calldatacopy\n        /* \"#utility.yul\":6684:6685   */\n      0x00\n        /* \"#utility.yul\":6675:6681   */\n      dup4\n        /* \"#utility.yul\":6670:6673   */\n      dup4\n        /* \"#utility.yul\":6666:6682   */\n      add\n        /* \"#utility.yul\":6659:6686   */\n      mstore\n        /* \"#utility.yul\":6538:6692   */\n      pop\n      pop\n      pop\n      jump\t// out\n        /* \"#utility.yul\":6698:7005   */\n    tag_118:\n        /* \"#utility.yul\":6766:6767   */\n      0x00\n        /* \"#utility.yul\":6776:6889   */\n    tag_158:\n        /* \"#utility.yul\":6790:6796   */\n      dup4\n        /* \"#utility.yul\":6787:6788   */\n      dup2\n        /* \"#utility.yul\":6784:6797   */\n      lt\n        /* \"#utility.yul\":6776:6889   */\n      iszero\n      tag_160\n      jumpi\n        /* \"#utility.yul\":6875:6876   */\n      dup1\n        /* \"#utility.yul\":6870:6873   */\n      dup3\n        /* \"#utility.yul\":6866:6877   */\n      add\n        /* \"#utility.yul\":6860:6878   */\n      mload\n        /* \"#utility.yul\":6856:6857   */\n      dup2\n        /* \"#utility.yul\":6851:6854   */\n      dup5\n        /* \"#utility.yul\":6847:6858   */\n      add\n        /* \"#utility.yul\":6840:6879   */\n      mstore\n        /* \"#utility.yul\":6812:6814   */\n      0x20\n        /* \"#utility.yul\":6809:6810   */\n      dup2\n        /* \"#utility.yul\":6805:6815   */\n      add\n        /* \"#utility.yul\":6800:6815   */\n      swap1\n      pop\n        /* \"#utility.yul\":6776:6889   */\n      jump(tag_158)\n    tag_160:\n        /* \"#utility.yul\":6907:6913   */\n      dup4\n        /* \"#utility.yul\":6904:6905   */\n      dup2\n        /* \"#utility.yul\":6901:6914   */\n      gt\n        /* \"#utility.yul\":6898:6999   */\n      iszero\n      tag_161\n      jumpi\n        /* \"#utility.yul\":6987:6988   */\n      0x00\n        /* \"#utility.yul\":6978:6984   */\n      dup5\n        /* \"#utility.yul\":6973:6976   */\n      dup5\n        /* \"#utility.yul\":6969:6985   */\n      add\n        /* \"#utility.yul\":6962:6989   */\n      mstore\n        /* \"#utility.yul\":6898:6999   */\n    tag_161:\n        /* \"#utility.yul\":6747:7005   */\n      pop\n        /* \"#utility.yul\":6698:7005   */\n      pop\n      pop\n      pop\n      jump\t// out\n        /* \"#utility.yul\":7011:7331   */\n    tag_31:\n        /* \"#utility.yul\":7055:7061   */\n      0x00\n        /* \"#utility.yul\":7092:7093   */\n      0x02\n        /* \"#utility.yul\":7086:7090   */\n      dup3\n        /* \"#utility.yul\":7082:7094   */\n      div\n        /* \"#utility.yul\":7072:7094   */\n      swap1\n      pop\n        /* \"#utility.yul\":7139:7140   */\n      0x01\n        /* \"#utility.yul\":7133:7137   */\n      dup3\n        /* \"#utility.yul\":7129:7141   */\n      and\n        /* \"#utility.yul\":7160:7178   */\n      dup1\n        /* \"#utility.yul\":7150:7231   */\n      tag_163\n      jumpi\n        /* \"#utility.yul\":7216:7220   */\n      0x7f\n        /* \"#utility.yul\":7208:7214   */\n      dup3\n        /* \"#utility.yul\":7204:7221   */\n      and\n        /* \"#utility.yul\":7194:7221   */\n      swap2\n      pop\n        /* \"#utility.yul\":7150:7231   */\n    tag_163:\n        /* \"#utility.yul\":7278:7280   */\n      0x20\n        /* \"#utility.yul\":7270:7276   */\n      dup3\n        /* \"#utility.yul\":7267:7281   */\n      lt\n        /* \"#utility.yul\":7247:7265   */\n      dup2\n        /* \"#utility.yul\":7244:7282   */\n      eq\n        /* \"#utility.yul\":7241:7325   */\n      iszero\n      tag_164\n      jumpi\n        /* \"#utility.yul\":7297:7315   */\n      tag_165\n      tag_166\n      jump\t// in\n    tag_165:\n        /* \"#utility.yul\":7241:7325   */\n    tag_164:\n        /* \"#utility.yul\":7062:7331   */\n      pop\n        /* \"#utility.yul\":7011:7331   */\n      swap2\n      swap1\n      pop\n      jump\t// out\n        /* \"#utility.yul\":7337:7618   */\n    tag_138:\n        /* \"#utility.yul\":7420:7447   */\n      tag_168\n        /* \"#utility.yul\":7442:7446   */\n      dup3\n        /* \"#utility.yul\":7420:7447   */\n      tag_120\n      jump\t// in\n    tag_168:\n        /* \"#utility.yul\":7412:7418   */\n      dup2\n        /* \"#utility.yul\":7408:7448   */\n      add\n        /* \"#utility.yul\":7550:7556   */\n      dup2\n        /* \"#utility.yul\":7538:7548   */\n      dup2\n        /* \"#utility.yul\":7535:7557   */\n      lt\n        /* \"#utility.yul\":7514:7532   */\n      0xffffffffffffffff\n        /* \"#utility.yul\":7502:7512   */\n      dup3\n        /* \"#utility.yul\":7499:7533   */\n      gt\n        /* \"#utility.yul\":7496:7558   */\n      or\n        /* \"#utility.yul\":7493:7581   */\n      iszero\n      tag_169\n      jumpi\n        /* \"#utility.yul\":7561:7579   */\n      tag_170\n      tag_143\n      jump\t// in\n    tag_170:\n        /* \"#utility.yul\":7493:7581   */\n    tag_169:\n        /* \"#utility.yul\":7601:7611   */\n      dup1\n        /* \"#utility.yul\":7597:7599   */\n      0x40\n        /* \"#utility.yul\":7590:7612   */\n      mstore\n        /* \"#utility.yul\":7380:7618   */\n      pop\n        /* \"#utility.yul\":7337:7618   */\n      pop\n      pop\n      jump\t// out\n        /* \"#utility.yul\":7624:7804   */\n    tag_166:\n        /* \"#utility.yul\":7672:7749   */\n      0x4e487b7100000000000000000000000000000000000000000000000000000000\n        /* \"#utility.yul\":7669:7670   */\n      0x00\n        /* \"#utility.yul\":7662:7750   */\n      mstore\n        /* \"#utility.yul\":7769:7773   */\n      0x22\n        /* \"#utility.yul\":7766:7767   */\n      0x04\n        /* \"#utility.yul\":7759:7774   */\n      mstore\n        /* \"#utility.yul\":7793:7797   */\n      0x24\n        /* \"#utility.yul\":7790:7791   */\n      0x00\n        /* \"#utility.yul\":7783:7798   */\n      revert\n        /* \"#utility.yul\":7810:7990   */\n    tag_143:\n        /* \"#utility.yul\":7858:7935   */\n      0x4e487b7100000000000000000000000000000000000000000000000000000000\n        /* \"#utility.yul\":7855:7856   */\n      0x00\n        /* \"#utility.yul\":7848:7936   */\n      mstore\n        /* \"#utility.yul\":7955:7959   */\n      0x41\n        /* \"#utility.yul\":7952:7953   */\n      0x04\n        /* \"#utility.yul\":7945:7960   */\n      mstore\n        /* \"#utility.yul\":7979:7983   */\n      0x24\n        /* \"#utility.yul\":7976:7977   */\n      0x00\n        /* \"#utility.yul\":7969:7984   */\n      revert\n        /* \"#utility.yul\":7996:8113   */\n    tag_80:\n        /* \"#utility.yul\":8105:8106   */\n      0x00\n        /* \"#utility.yul\":8102:8103   */\n      dup1\n        /* \"#utility.yul\":8095:8107   */\n      revert\n        /* \"#utility.yul\":8119:8236   */\n    tag_65:\n        /* \"#utility.yul\":8228:8229   */\n      0x00\n        /* \"#utility.yul\":8225:8226   */\n      dup1\n        /* \"#utility.yul\":8218:8230   */\n      revert\n        /* \"#utility.yul\":8242:8359   */\n    tag_101:\n        /* \"#utility.yul\":8351:8352   */\n      0x00\n        /* \"#utility.yul\":8348:8349   */\n      dup1\n        /* \"#utility.yul\":8341:8353   */\n      revert\n        /* \"#utility.yul\":8365:8482   */\n    tag_89:\n        /* \"#utility.yul\":8474:8475   */\n      0x00\n        /* \"#utility.yul\":8471:8472   */\n      dup1\n        /* \"#utility.yul\":8464:8476   */\n      revert\n        /* \"#utility.yul\":8488:8590   */\n    tag_120:\n        /* \"#utility.yul\":8529:8535   */\n      0x00\n        /* \"#utility.yul\":8580:8582   */\n      0x1f\n        /* \"#utility.yul\":8576:8583   */\n      not\n        /* \"#utility.yul\":8571:8573   */\n      0x1f\n        /* \"#utility.yul\":8564:8569   */\n      dup4\n        /* \"#utility.yul\":8560:8574   */\n      add\n        /* \"#utility.yul\":8556:8584   */\n      and\n        /* \"#utility.yul\":8546:8584   */\n      swap1\n      pop\n        /* \"#utility.yul\":8488:8590   */\n      swap2\n      swap1\n      pop\n      jump\t// out\n        /* \"#utility.yul\":8596:8718   */\n    tag_71:\n        /* \"#utility.yul\":8669:8693   */\n      tag_179\n        /* \"#utility.yul\":8687:8692   */\n      dup2\n        /* \"#utility.yul\":8669:8693   */\n      tag_147\n      jump\t// in\n    tag_179:\n        /* \"#utility.yul\":8662:8667   */\n      dup2\n        /* \"#utility.yul\":8659:8694   */\n      eq\n        /* \"#utility.yul\":8649:8712   */\n      tag_180\n      jumpi\n        /* \"#utility.yul\":8708:8709   */\n      0x00\n        /* \"#utility.yul\":8705:8706   */\n      dup1\n        /* \"#utility.yul\":8698:8710   */\n      revert\n        /* \"#utility.yul\":8649:8712   */\n    tag_180:\n        /* \"#utility.yul\":8596:8718   */\n      pop\n      jump\t// out\n        /* \"#utility.yul\":8724:8862   */\n    tag_75:\n        /* \"#utility.yul\":8805:8837   */\n      tag_182\n        /* \"#utility.yul\":8831:8836   */\n      dup2\n        /* \"#utility.yul\":8805:8837   */\n      tag_151\n      jump\t// in\n    tag_182:\n        /* \"#utility.yul\":8798:8803   */\n      dup2\n        /* \"#utility.yul\":8795:8838   */\n      eq\n        /* \"#utility.yul\":8785:8856   */\n      tag_183\n      jumpi\n        /* \"#utility.yul\":8852:8853   */\n      0x00\n        /* \"#utility.yul\":8849:8850   */\n      dup1\n        /* \"#utility.yul\":8842:8854   */\n      revert\n        /* \"#utility.yul\":8785:8856   */\n    tag_183:\n        /* \"#utility.yul\":8724:8862   */\n      pop\n      jump\t// out\n        /* \"#utility.yul\":8868:8990   */\n    tag_85:\n        /* \"#utility.yul\":8941:8965   */\n      tag_185\n        /* \"#utility.yul\":8959:8964   */\n      dup2\n        /* \"#utility.yul\":8941:8965   */\n      tag_124\n      jump\t// in\n    tag_185:\n        /* \"#utility.yul\":8934:8939   */\n      dup2\n        /* \"#utility.yul\":8931:8966   */\n      eq\n        /* \"#utility.yul\":8921:8984   */\n      tag_186\n      jumpi\n        /* \"#utility.yul\":8980:8981   */\n      0x00\n        /* \"#utility.yul\":8977:8978   */\n      dup1\n        /* \"#utility.yul\":8970:8982   */\n      revert\n        /* \"#utility.yul\":8921:8984   */\n    tag_186:\n        /* \"#utility.yul\":8868:8990   */\n      pop\n      jump\t// out\n\n    auxdata: 0xa26469706673582212209e1e5b3d9f9dd1a4b5ab84587969de89893cc93064a7ffce668565dcc253cac664736f6c63430008070033\n}\n",
				"bytecode": {
					"linkReferences": {},
					"object": "60806040526040518060200160405280600081525060009080519060200190610029929190610041565b50600060015534801561003b57600080fd5b50610145565b82805461004d906100e4565b90600052602060002090601f01602090048101928261006f57600085556100b6565b82601f1061008857805160ff19168380011785556100b6565b828001600101855582156100b6579182015b828111156100b557825182559160200191906001019061009a565b5b5090506100c391906100c7565b5090565b5b808211156100e05760008160009055506001016100c8565b5090565b600060028204905060018216806100fc57607f821691505b602082108114156101105761010f610116565b5b50919050565b7f4e487b7100000000000000000000000000000000000000000000000000000000600052602260045260246000fd5b610aca806101546000396000f3fe6080604052600436106100345760003560e01c80630b1fa23f146100395780630ebcbdb8146100555780638b9c657a14610071575b600080fd5b610053600480360381019061004e9190610680565b6100b3565b005b61006f600480360381019061006a91906106ad565b610134565b005b34801561007d57600080fd5b5061009860048036038101906100939190610653565b61032d565b6040516100aa969594939291906107d6565b60405180910390f35b8073ffffffffffffffffffffffffffffffffffffffff166108fc349081150290604051600060405180830381858888f193505050501580156100f9573d6000803e3d6000fd5b507fe4f740571b79610deff27ca80ef3046de224a7fc42e82177a0d9919cd5b7a8d934604051610129919061084c565b60405180910390a150565b84600360008873ffffffffffffffffffffffffffffffffffffffff1673ffffffffffffffffffffffffffffffffffffffff168152602001908152602001600020600001908051906020019061018a929190610501565b5083600360008873ffffffffffffffffffffffffffffffffffffffff1673ffffffffffffffffffffffffffffffffffffffff1681526020019081526020016000206001018190555082600360008873ffffffffffffffffffffffffffffffffffffffff1673ffffffffffffffffffffffffffffffffffffffff1681526020019081526020016000206002019080519060200190610228929190610501565b5081600360008873ffffffffffffffffffffffffffffffffffffffff1673ffffffffffffffffffffffffffffffffffffffff1681526020019081526020016000206003018190555080600360008873ffffffffffffffffffffffffffffffffffffffff1673ffffffffffffffffffffffffffffffffffffffff16815260200190815260200160002060040190805190602001906102c6929190610501565b508573ffffffffffffffffffffffffffffffffffffffff1631600360008873ffffffffffffffffffffffffffffffffffffffff1673ffffffffffffffffffffffffffffffffffffffff16815260200190815260200160002060050181905550505050505050565b600360205280600052604060002060009150905080600001805461035090610969565b80601f016020809104026020016040519081016040528092919081815260200182805461037c90610969565b80156103c95780601f1061039e576101008083540402835291602001916103c9565b820191906000526020600020905b8154815290600101906020018083116103ac57829003601f168201915b5050505050908060010154908060020180546103e490610969565b80601f016020809104026020016040519081016040528092919081815260200182805461041090610969565b801561045d5780601f106104325761010080835404028352916020019161045d565b820191906000526020600020905b81548152906001019060200180831161044057829003601f168201915b50505050509080600301549080600401805461047890610969565b80601f01602080910402602001604051908101604052809291908181526020018280546104a490610969565b80156104f15780601f106104c6576101008083540402835291602001916104f1565b820191906000526020600020905b8154815290600101906020018083116104d457829003601f168201915b5050505050908060050154905086565b82805461050d90610969565b90600052602060002090601f01602090048101928261052f5760008555610576565b82601f1061054857805160ff1916838001178555610576565b82800160010185558215610576579182015b8281111561057557825182559160200191906001019061055a565b5b5090506105839190610587565b5090565b5b808211156105a0576000816000905550600101610588565b5090565b60006105b76105b28461088c565b610867565b9050828152602081018484840111156105d3576105d2610a2f565b5b6105de848285610927565b509392505050565b6000813590506105f581610a4f565b92915050565b60008135905061060a81610a66565b92915050565b600082601f83011261062557610624610a2a565b5b81356106358482602086016105a4565b91505092915050565b60008135905061064d81610a7d565b92915050565b60006020828403121561066957610668610a39565b5b6000610677848285016105e6565b91505092915050565b60006020828403121561069657610695610a39565b5b60006106a4848285016105fb565b91505092915050565b60008060008060008060c087890312156106ca576106c9610a39565b5b60006106d889828a016105e6565b965050602087013567ffffffffffffffff8111156106f9576106f8610a34565b5b61070589828a01610610565b955050604061071689828a0161063e565b945050606087013567ffffffffffffffff81111561073757610736610a34565b5b61074389828a01610610565b935050608061075489828a0161063e565b92505060a087013567ffffffffffffffff81111561077557610774610a34565b5b61078189828a01610610565b9150509295509295509295565b6000610799826108bd565b6107a381856108c8565b93506107b3818560208601610936565b6107bc81610a3e565b840191505092915050565b6107d08161091d565b82525050565b600060c08201905081810360008301526107f0818961078e565b90506107ff60208301886107c7565b8181036040830152610811818761078e565b905061082060608301866107c7565b8181036080830152610832818561078e565b905061084160a08301846107c7565b979650505050505050565b600060208201905061086160008301846107c7565b92915050565b6000610871610882565b905061087d828261099b565b919050565b6000604051905090565b600067ffffffffffffffff8211156108a7576108a66109fb565b5b6108b082610a3e565b9050602081019050919050565b600081519050919050565b600082825260208201905092915050565b60006108e4826108fd565b9050919050565b60006108f6826108fd565b9050919050565b600073ffffffffffffffffffffffffffffffffffffffff82169050919050565b6000819050919050565b82818337600083830152505050565b60005b83811015610954578082015181840152602081019050610939565b83811115610963576000848401525b50505050565b6000600282049050600182168061098157607f821691505b60208210811415610995576109946109cc565b5b50919050565b6109a482610a3e565b810181811067ffffffffffffffff821117156109c3576109c26109fb565b5b80604052505050565b7f4e487b7100000000000000000000000000000000000000000000000000000000600052602260045260246000fd5b7f4e487b7100000000000000000000000000000000000000000000000000000000600052604160045260246000fd5b600080fd5b600080fd5b600080fd5b600080fd5b6000601f19601f8301169050919050565b610a58816108d9565b8114610a6357600080fd5b50565b610a6f816108eb565b8114610a7a57600080fd5b50565b610a868161091d565b8114610a9157600080fd5b5056fea26469706673582212209e1e5b3d9f9dd1a4b5ab84587969de89893cc93064a7ffce668565dcc253cac664736f6c63430008070033",
					"opcodes": "PUSH1 0x80 PUSH1 0x40 MSTORE PUSH1 0x40 MLOAD DUP1 PUSH1 0x20 ADD PUSH1 0x40 MSTORE DUP1 PUSH1 0x0 DUP2 MSTORE POP PUSH1 0x0 SWAP1 DUP1 MLOAD SWAP1 PUSH1 0x20 ADD SWAP1 PUSH2 0x29 SWAP3 SWAP2 SWAP1 PUSH2 0x41 JUMP JUMPDEST POP PUSH1 0x0 PUSH1 0x1 SSTORE CALLVALUE DUP1 ISZERO PUSH2 0x3B JUMPI PUSH1 0x0 DUP1 REVERT JUMPDEST POP PUSH2 0x145 JUMP JUMPDEST DUP3 DUP1 SLOAD PUSH2 0x4D SWAP1 PUSH2 0xE4 JUMP JUMPDEST SWAP1 PUSH1 0x0 MSTORE PUSH1 0x20 PUSH1 0x0 KECCAK256 SWAP1 PUSH1 0x1F ADD PUSH1 0x20 SWAP1 DIV DUP2 ADD SWAP3 DUP3 PUSH2 0x6F JUMPI PUSH1 0x0 DUP6 SSTORE PUSH2 0xB6 JUMP JUMPDEST DUP3 PUSH1 0x1F LT PUSH2 0x88 JUMPI DUP1 MLOAD PUSH1 0xFF NOT AND DUP4 DUP1 ADD OR DUP6 SSTORE PUSH2 0xB6 JUMP JUMPDEST DUP3 DUP1 ADD PUSH1 0x1 ADD DUP6 SSTORE DUP3 ISZERO PUSH2 0xB6 JUMPI SWAP2 DUP3 ADD JUMPDEST DUP3 DUP2 GT ISZERO PUSH2 0xB5 JUMPI DUP3 MLOAD DUP3 SSTORE SWAP2 PUSH1 0x20 ADD SWAP2 SWAP1 PUSH1 0x1 ADD SWAP1 PUSH2 0x9A JUMP JUMPDEST JUMPDEST POP SWAP1 POP PUSH2 0xC3 SWAP2 SWAP1 PUSH2 0xC7 JUMP JUMPDEST POP SWAP1 JUMP JUMPDEST JUMPDEST DUP1 DUP3 GT ISZERO PUSH2 0xE0 JUMPI PUSH1 0x0 DUP2 PUSH1 0x0 SWAP1 SSTORE POP PUSH1 0x1 ADD PUSH2 0xC8 JUMP JUMPDEST POP SWAP1 JUMP JUMPDEST PUSH1 0x0 PUSH1 0x2 DUP3 DIV SWAP1 POP PUSH1 0x1 DUP3 AND DUP1 PUSH2 0xFC JUMPI PUSH1 0x7F DUP3 AND SWAP2 POP JUMPDEST PUSH1 0x20 DUP3 LT DUP2 EQ ISZERO PUSH2 0x110 JUMPI PUSH2 0x10F PUSH2 0x116 JUMP JUMPDEST JUMPDEST POP SWAP2 SWAP1 POP JUMP JUMPDEST PUSH32 0x4E487B7100000000000000000000000000000000000000000000000000000000 PUSH1 0x0 MSTORE PUSH1 0x22 PUSH1 0x4 MSTORE PUSH1 0x24 PUSH1 0x0 REVERT JUMPDEST PUSH2 0xACA DUP1 PUSH2 0x154 PUSH1 0x0 CODECOPY PUSH1 0x0 RETURN INVALID PUSH1 0x80 PUSH1 0x40 MSTORE PUSH1 0x4 CALLDATASIZE LT PUSH2 0x34 JUMPI PUSH1 0x0 CALLDATALOAD PUSH1 0xE0 SHR DUP1 PUSH4 0xB1FA23F EQ PUSH2 0x39 JUMPI DUP1 PUSH4 0xEBCBDB8 EQ PUSH2 0x55 JUMPI DUP1 PUSH4 0x8B9C657A EQ PUSH2 0x71 JUMPI JUMPDEST PUSH1 0x0 DUP1 REVERT JUMPDEST PUSH2 0x53 PUSH1 0x4 DUP1 CALLDATASIZE SUB DUP2 ADD SWAP1 PUSH2 0x4E SWAP2 SWAP1 PUSH2 0x680 JUMP JUMPDEST PUSH2 0xB3 JUMP JUMPDEST STOP JUMPDEST PUSH2 0x6F PUSH1 0x4 DUP1 CALLDATASIZE SUB DUP2 ADD SWAP1 PUSH2 0x6A SWAP2 SWAP1 PUSH2 0x6AD JUMP JUMPDEST PUSH2 0x134 JUMP JUMPDEST STOP JUMPDEST CALLVALUE DUP1 ISZERO PUSH2 0x7D JUMPI PUSH1 0x0 DUP1 REVERT JUMPDEST POP PUSH2 0x98 PUSH1 0x4 DUP1 CALLDATASIZE SUB DUP2 ADD SWAP1 PUSH2 0x93 SWAP2 SWAP1 PUSH2 0x653 JUMP JUMPDEST PUSH2 0x32D JUMP JUMPDEST PUSH1 0x40 MLOAD PUSH2 0xAA SWAP7 SWAP6 SWAP5 SWAP4 SWAP3 SWAP2 SWAP1 PUSH2 0x7D6 JUMP JUMPDEST PUSH1 0x40 MLOAD DUP1 SWAP2 SUB SWAP1 RETURN JUMPDEST DUP1 PUSH20 0xFFFFFFFFFFFFFFFFFFFFFFFFFFFFFFFFFFFFFFFF AND PUSH2 0x8FC CALLVALUE SWAP1 DUP2 ISZERO MUL SWAP1 PUSH1 0x40 MLOAD PUSH1 0x0 PUSH1 0x40 MLOAD DUP1 DUP4 SUB DUP2 DUP6 DUP9 DUP9 CALL SWAP4 POP POP POP POP ISZERO DUP1 ISZERO PUSH2 0xF9 JUMPI RETURNDATASIZE PUSH1 0x0 DUP1 RETURNDATACOPY RETURNDATASIZE PUSH1 0x0 REVERT JUMPDEST POP PUSH32 0xE4F740571B79610DEFF27CA80EF3046DE224A7FC42E82177A0D9919CD5B7A8D9 CALLVALUE PUSH1 0x40 MLOAD PUSH2 0x129 SWAP2 SWAP1 PUSH2 0x84C JUMP JUMPDEST PUSH1 0x40 MLOAD DUP1 SWAP2 SUB SWAP1 LOG1 POP JUMP JUMPDEST DUP5 PUSH1 0x3 PUSH1 0x0 DUP9 PUSH20 0xFFFFFFFFFFFFFFFFFFFFFFFFFFFFFFFFFFFFFFFF AND PUSH20 0xFFFFFFFFFFFFFFFFFFFFFFFFFFFFFFFFFFFFFFFF AND DUP2 MSTORE PUSH1 0x20 ADD SWAP1 DUP2 MSTORE PUSH1 0x20 ADD PUSH1 0x0 KECCAK256 PUSH1 0x0 ADD SWAP1 DUP1 MLOAD SWAP1 PUSH1 0x20 ADD SWAP1 PUSH2 0x18A SWAP3 SWAP2 SWAP1 PUSH2 0x501 JUMP JUMPDEST POP DUP4 PUSH1 0x3 PUSH1 0x0 DUP9 PUSH20 0xFFFFFFFFFFFFFFFFFFFFFFFFFFFFFFFFFFFFFFFF AND PUSH20 0xFFFFFFFFFFFFFFFFFFFFFFFFFFFFFFFFFFFFFFFF AND DUP2 MSTORE PUSH1 0x20 ADD SWAP1 DUP2 MSTORE PUSH1 0x20 ADD PUSH1 0x0 KECCAK256 PUSH1 0x1 ADD DUP2 SWAP1 SSTORE POP DUP3 PUSH1 0x3 PUSH1 0x0 DUP9 PUSH20 0xFFFFFFFFFFFFFFFFFFFFFFFFFFFFFFFFFFFFFFFF AND PUSH20 0xFFFFFFFFFFFFFFFFFFFFFFFFFFFFFFFFFFFFFFFF AND DUP2 MSTORE PUSH1 0x20 ADD SWAP1 DUP2 MSTORE PUSH1 0x20 ADD PUSH1 0x0 KECCAK256 PUSH1 0x2 ADD SWAP1 DUP1 MLOAD SWAP1 PUSH1 0x20 ADD SWAP1 PUSH2 0x228 SWAP3 SWAP2 SWAP1 PUSH2 0x501 JUMP JUMPDEST POP DUP2 PUSH1 0x3 PUSH1 0x0 DUP9 PUSH20 0xFFFFFFFFFFFFFFFFFFFFFFFFFFFFFFFFFFFFFFFF AND PUSH20 0xFFFFFFFFFFFFFFFFFFFFFFFFFFFFFFFFFFFFFFFF AND DUP2 MSTORE PUSH1 0x20 ADD SWAP1 DUP2 MSTORE PUSH1 0x20 ADD PUSH1 0x0 KECCAK256 PUSH1 0x3 ADD DUP2 SWAP1 SSTORE POP DUP1 PUSH1 0x3 PUSH1 0x0 DUP9 PUSH20 0xFFFFFFFFFFFFFFFFFFFFFFFFFFFFFFFFFFFFFFFF AND PUSH20 0xFFFFFFFFFFFFFFFFFFFFFFFFFFFFFFFFFFFFFFFF AND DUP2 MSTORE PUSH1 0x20 ADD SWAP1 DUP2 MSTORE PUSH1 0x20 ADD PUSH1 0x0 KECCAK256 PUSH1 0x4 ADD SWAP1 DUP1 MLOAD SWAP1 PUSH1 0x20 ADD SWAP1 PUSH2 0x2C6 SWAP3 SWAP2 SWAP1 PUSH2 0x501 JUMP JUMPDEST POP DUP6 PUSH20 0xFFFFFFFFFFFFFFFFFFFFFFFFFFFFFFFFFFFFFFFF AND BALANCE PUSH1 0x3 PUSH1 0x0 DUP9 PUSH20 0xFFFFFFFFFFFFFFFFFFFFFFFFFFFFFFFFFFFFFFFF AND PUSH20 0xFFFFFFFFFFFFFFFFFFFFFFFFFFFFFFFFFFFFFFFF AND DUP2 MSTORE PUSH1 0x20 ADD SWAP1 DUP2 MSTORE PUSH1 0x20 ADD PUSH1 0x0 KECCAK256 PUSH1 0x5 ADD DUP2 SWAP1 SSTORE POP POP POP POP POP POP POP JUMP JUMPDEST PUSH1 0x3 PUSH1 0x20 MSTORE DUP1 PUSH1 0x0 MSTORE PUSH1 0x40 PUSH1 0x0 KECCAK256 PUSH1 0x0 SWAP2 POP SWAP1 POP DUP1 PUSH1 0x0 ADD DUP1 SLOAD PUSH2 0x350 SWAP1 PUSH2 0x969 JUMP JUMPDEST DUP1 PUSH1 0x1F ADD PUSH1 0x20 DUP1 SWAP2 DIV MUL PUSH1 0x20 ADD PUSH1 0x40 MLOAD SWAP1 DUP2 ADD PUSH1 0x40 MSTORE DUP1 SWAP3 SWAP2 SWAP1 DUP2 DUP2 MSTORE PUSH1 0x20 ADD DUP3 DUP1 SLOAD PUSH2 0x37C SWAP1 PUSH2 0x969 JUMP JUMPDEST DUP1 ISZERO PUSH2 0x3C9 JUMPI DUP1 PUSH1 0x1F LT PUSH2 0x39E JUMPI PUSH2 0x100 DUP1 DUP4 SLOAD DIV MUL DUP4 MSTORE SWAP2 PUSH1 0x20 ADD SWAP2 PUSH2 0x3C9 JUMP JUMPDEST DUP3 ADD SWAP2 SWAP1 PUSH1 0x0 MSTORE PUSH1 0x20 PUSH1 0x0 KECCAK256 SWAP1 JUMPDEST DUP2 SLOAD DUP2 MSTORE SWAP1 PUSH1 0x1 ADD SWAP1 PUSH1 0x20 ADD DUP1 DUP4 GT PUSH2 0x3AC JUMPI DUP3 SWAP1 SUB PUSH1 0x1F AND DUP3 ADD SWAP2 JUMPDEST POP POP POP POP POP SWAP1 DUP1 PUSH1 0x1 ADD SLOAD SWAP1 DUP1 PUSH1 0x2 ADD DUP1 SLOAD PUSH2 0x3E4 SWAP1 PUSH2 0x969 JUMP JUMPDEST DUP1 PUSH1 0x1F ADD PUSH1 0x20 DUP1 SWAP2 DIV MUL PUSH1 0x20 ADD PUSH1 0x40 MLOAD SWAP1 DUP2 ADD PUSH1 0x40 MSTORE DUP1 SWAP3 SWAP2 SWAP1 DUP2 DUP2 MSTORE PUSH1 0x20 ADD DUP3 DUP1 SLOAD PUSH2 0x410 SWAP1 PUSH2 0x969 JUMP JUMPDEST DUP1 ISZERO PUSH2 0x45D JUMPI DUP1 PUSH1 0x1F LT PUSH2 0x432 JUMPI PUSH2 0x100 DUP1 DUP4 SLOAD DIV MUL DUP4 MSTORE SWAP2 PUSH1 0x20 ADD SWAP2 PUSH2 0x45D JUMP JUMPDEST DUP3 ADD SWAP2 SWAP1 PUSH1 0x0 MSTORE PUSH1 0x20 PUSH1 0x0 KECCAK256 SWAP1 JUMPDEST DUP2 SLOAD DUP2 MSTORE SWAP1 PUSH1 0x1 ADD SWAP1 PUSH1 0x20 ADD DUP1 DUP4 GT PUSH2 0x440 JUMPI DUP3 SWAP1 SUB PUSH1 0x1F AND DUP3 ADD SWAP2 JUMPDEST POP POP POP POP POP SWAP1 DUP1 PUSH1 0x3 ADD SLOAD SWAP1 DUP1 PUSH1 0x4 ADD DUP1 SLOAD PUSH2 0x478 SWAP1 PUSH2 0x969 JUMP JUMPDEST DUP1 PUSH1 0x1F ADD PUSH1 0x20 DUP1 SWAP2 DIV MUL PUSH1 0x20 ADD PUSH1 0x40 MLOAD SWAP1 DUP2 ADD PUSH1 0x40 MSTORE DUP1 SWAP3 SWAP2 SWAP1 DUP2 DUP2 MSTORE PUSH1 0x20 ADD DUP3 DUP1 SLOAD PUSH2 0x4A4 SWAP1 PUSH2 0x969 JUMP JUMPDEST DUP1 ISZERO PUSH2 0x4F1 JUMPI DUP1 PUSH1 0x1F LT PUSH2 0x4C6 JUMPI PUSH2 0x100 DUP1 DUP4 SLOAD DIV MUL DUP4 MSTORE SWAP2 PUSH1 0x20 ADD SWAP2 PUSH2 0x4F1 JUMP JUMPDEST DUP3 ADD SWAP2 SWAP1 PUSH1 0x0 MSTORE PUSH1 0x20 PUSH1 0x0 KECCAK256 SWAP1 JUMPDEST DUP2 SLOAD DUP2 MSTORE SWAP1 PUSH1 0x1 ADD SWAP1 PUSH1 0x20 ADD DUP1 DUP4 GT PUSH2 0x4D4 JUMPI DUP3 SWAP1 SUB PUSH1 0x1F AND DUP3 ADD SWAP2 JUMPDEST POP POP POP POP POP SWAP1 DUP1 PUSH1 0x5 ADD SLOAD SWAP1 POP DUP7 JUMP JUMPDEST DUP3 DUP1 SLOAD PUSH2 0x50D SWAP1 PUSH2 0x969 JUMP JUMPDEST SWAP1 PUSH1 0x0 MSTORE PUSH1 0x20 PUSH1 0x0 KECCAK256 SWAP1 PUSH1 0x1F ADD PUSH1 0x20 SWAP1 DIV DUP2 ADD SWAP3 DUP3 PUSH2 0x52F JUMPI PUSH1 0x0 DUP6 SSTORE PUSH2 0x576 JUMP JUMPDEST DUP3 PUSH1 0x1F LT PUSH2 0x548 JUMPI DUP1 MLOAD PUSH1 0xFF NOT AND DUP4 DUP1 ADD OR DUP6 SSTORE PUSH2 0x576 JUMP JUMPDEST DUP3 DUP1 ADD PUSH1 0x1 ADD DUP6 SSTORE DUP3 ISZERO PUSH2 0x576 JUMPI SWAP2 DUP3 ADD JUMPDEST DUP3 DUP2 GT ISZERO PUSH2 0x575 JUMPI DUP3 MLOAD DUP3 SSTORE SWAP2 PUSH1 0x20 ADD SWAP2 SWAP1 PUSH1 0x1 ADD SWAP1 PUSH2 0x55A JUMP JUMPDEST JUMPDEST POP SWAP1 POP PUSH2 0x583 SWAP2 SWAP1 PUSH2 0x587 JUMP JUMPDEST POP SWAP1 JUMP JUMPDEST JUMPDEST DUP1 DUP3 GT ISZERO PUSH2 0x5A0 JUMPI PUSH1 0x0 DUP2 PUSH1 0x0 SWAP1 SSTORE POP PUSH1 0x1 ADD PUSH2 0x588 JUMP JUMPDEST POP SWAP1 JUMP JUMPDEST PUSH1 0x0 PUSH2 0x5B7 PUSH2 0x5B2 DUP5 PUSH2 0x88C JUMP JUMPDEST PUSH2 0x867 JUMP JUMPDEST SWAP1 POP DUP3 DUP2 MSTORE PUSH1 0x20 DUP2 ADD DUP5 DUP5 DUP5 ADD GT ISZERO PUSH2 0x5D3 JUMPI PUSH2 0x5D2 PUSH2 0xA2F JUMP JUMPDEST JUMPDEST PUSH2 0x5DE DUP5 DUP3 DUP6 PUSH2 0x927 JUMP JUMPDEST POP SWAP4 SWAP3 POP POP POP JUMP JUMPDEST PUSH1 0x0 DUP2 CALLDATALOAD SWAP1 POP PUSH2 0x5F5 DUP2 PUSH2 0xA4F JUMP JUMPDEST SWAP3 SWAP2 POP POP JUMP JUMPDEST PUSH1 0x0 DUP2 CALLDATALOAD SWAP1 POP PUSH2 0x60A DUP2 PUSH2 0xA66 JUMP JUMPDEST SWAP3 SWAP2 POP POP JUMP JUMPDEST PUSH1 0x0 DUP3 PUSH1 0x1F DUP4 ADD SLT PUSH2 0x625 JUMPI PUSH2 0x624 PUSH2 0xA2A JUMP JUMPDEST JUMPDEST DUP2 CALLDATALOAD PUSH2 0x635 DUP5 DUP3 PUSH1 0x20 DUP7 ADD PUSH2 0x5A4 JUMP JUMPDEST SWAP2 POP POP SWAP3 SWAP2 POP POP JUMP JUMPDEST PUSH1 0x0 DUP2 CALLDATALOAD SWAP1 POP PUSH2 0x64D DUP2 PUSH2 0xA7D JUMP JUMPDEST SWAP3 SWAP2 POP POP JUMP JUMPDEST PUSH1 0x0 PUSH1 0x20 DUP3 DUP5 SUB SLT ISZERO PUSH2 0x669 JUMPI PUSH2 0x668 PUSH2 0xA39 JUMP JUMPDEST JUMPDEST PUSH1 0x0 PUSH2 0x677 DUP5 DUP3 DUP6 ADD PUSH2 0x5E6 JUMP JUMPDEST SWAP2 POP POP SWAP3 SWAP2 POP POP JUMP JUMPDEST PUSH1 0x0 PUSH1 0x20 DUP3 DUP5 SUB SLT ISZERO PUSH2 0x696 JUMPI PUSH2 0x695 PUSH2 0xA39 JUMP JUMPDEST JUMPDEST PUSH1 0x0 PUSH2 0x6A4 DUP5 DUP3 DUP6 ADD PUSH2 0x5FB JUMP JUMPDEST SWAP2 POP POP SWAP3 SWAP2 POP POP JUMP JUMPDEST PUSH1 0x0 DUP1 PUSH1 0x0 DUP1 PUSH1 0x0 DUP1 PUSH1 0xC0 DUP8 DUP10 SUB SLT ISZERO PUSH2 0x6CA JUMPI PUSH2 0x6C9 PUSH2 0xA39 JUMP JUMPDEST JUMPDEST PUSH1 0x0 PUSH2 0x6D8 DUP10 DUP3 DUP11 ADD PUSH2 0x5E6 JUMP JUMPDEST SWAP7 POP POP PUSH1 0x20 DUP8 ADD CALLDATALOAD PUSH8 0xFFFFFFFFFFFFFFFF DUP2 GT ISZERO PUSH2 0x6F9 JUMPI PUSH2 0x6F8 PUSH2 0xA34 JUMP JUMPDEST JUMPDEST PUSH2 0x705 DUP10 DUP3 DUP11 ADD PUSH2 0x610 JUMP JUMPDEST SWAP6 POP POP PUSH1 0x40 PUSH2 0x716 DUP10 DUP3 DUP11 ADD PUSH2 0x63E JUMP JUMPDEST SWAP5 POP POP PUSH1 0x60 DUP8 ADD CALLDATALOAD PUSH8 0xFFFFFFFFFFFFFFFF DUP2 GT ISZERO PUSH2 0x737 JUMPI PUSH2 0x736 PUSH2 0xA34 JUMP JUMPDEST JUMPDEST PUSH2 0x743 DUP10 DUP3 DUP11 ADD PUSH2 0x610 JUMP JUMPDEST SWAP4 POP POP PUSH1 0x80 PUSH2 0x754 DUP10 DUP3 DUP11 ADD PUSH2 0x63E JUMP JUMPDEST SWAP3 POP POP PUSH1 0xA0 DUP8 ADD CALLDATALOAD PUSH8 0xFFFFFFFFFFFFFFFF DUP2 GT ISZERO PUSH2 0x775 JUMPI PUSH2 0x774 PUSH2 0xA34 JUMP JUMPDEST JUMPDEST PUSH2 0x781 DUP10 DUP3 DUP11 ADD PUSH2 0x610 JUMP JUMPDEST SWAP2 POP POP SWAP3 SWAP6 POP SWAP3 SWAP6 POP SWAP3 SWAP6 JUMP JUMPDEST PUSH1 0x0 PUSH2 0x799 DUP3 PUSH2 0x8BD JUMP JUMPDEST PUSH2 0x7A3 DUP2 DUP6 PUSH2 0x8C8 JUMP JUMPDEST SWAP4 POP PUSH2 0x7B3 DUP2 DUP6 PUSH1 0x20 DUP7 ADD PUSH2 0x936 JUMP JUMPDEST PUSH2 0x7BC DUP2 PUSH2 0xA3E JUMP JUMPDEST DUP5 ADD SWAP2 POP POP SWAP3 SWAP2 POP POP JUMP JUMPDEST PUSH2 0x7D0 DUP2 PUSH2 0x91D JUMP JUMPDEST DUP3 MSTORE POP POP JUMP JUMPDEST PUSH1 0x0 PUSH1 0xC0 DUP3 ADD SWAP1 POP DUP2 DUP2 SUB PUSH1 0x0 DUP4 ADD MSTORE PUSH2 0x7F0 DUP2 DUP10 PUSH2 0x78E JUMP JUMPDEST SWAP1 POP PUSH2 0x7FF PUSH1 0x20 DUP4 ADD DUP9 PUSH2 0x7C7 JUMP JUMPDEST DUP2 DUP2 SUB PUSH1 0x40 DUP4 ADD MSTORE PUSH2 0x811 DUP2 DUP8 PUSH2 0x78E JUMP JUMPDEST SWAP1 POP PUSH2 0x820 PUSH1 0x60 DUP4 ADD DUP7 PUSH2 0x7C7 JUMP JUMPDEST DUP2 DUP2 SUB PUSH1 0x80 DUP4 ADD MSTORE PUSH2 0x832 DUP2 DUP6 PUSH2 0x78E JUMP JUMPDEST SWAP1 POP PUSH2 0x841 PUSH1 0xA0 DUP4 ADD DUP5 PUSH2 0x7C7 JUMP JUMPDEST SWAP8 SWAP7 POP POP POP POP POP POP POP JUMP JUMPDEST PUSH1 0x0 PUSH1 0x20 DUP3 ADD SWAP1 POP PUSH2 0x861 PUSH1 0x0 DUP4 ADD DUP5 PUSH2 0x7C7 JUMP JUMPDEST SWAP3 SWAP2 POP POP JUMP JUMPDEST PUSH1 0x0 PUSH2 0x871 PUSH2 0x882 JUMP JUMPDEST SWAP1 POP PUSH2 0x87D DUP3 DUP3 PUSH2 0x99B JUMP JUMPDEST SWAP2 SWAP1 POP JUMP JUMPDEST PUSH1 0x0 PUSH1 0x40 MLOAD SWAP1 POP SWAP1 JUMP JUMPDEST PUSH1 0x0 PUSH8 0xFFFFFFFFFFFFFFFF DUP3 GT ISZERO PUSH2 0x8A7 JUMPI PUSH2 0x8A6 PUSH2 0x9FB JUMP JUMPDEST JUMPDEST PUSH2 0x8B0 DUP3 PUSH2 0xA3E JUMP JUMPDEST SWAP1 POP PUSH1 0x20 DUP2 ADD SWAP1 POP SWAP2 SWAP1 POP JUMP JUMPDEST PUSH1 0x0 DUP2 MLOAD SWAP1 POP SWAP2 SWAP1 POP JUMP JUMPDEST PUSH1 0x0 DUP3 DUP3 MSTORE PUSH1 0x20 DUP3 ADD SWAP1 POP SWAP3 SWAP2 POP POP JUMP JUMPDEST PUSH1 0x0 PUSH2 0x8E4 DUP3 PUSH2 0x8FD JUMP JUMPDEST SWAP1 POP SWAP2 SWAP1 POP JUMP JUMPDEST PUSH1 0x0 PUSH2 0x8F6 DUP3 PUSH2 0x8FD JUMP JUMPDEST SWAP1 POP SWAP2 SWAP1 POP JUMP JUMPDEST PUSH1 0x0 PUSH20 0xFFFFFFFFFFFFFFFFFFFFFFFFFFFFFFFFFFFFFFFF DUP3 AND SWAP1 POP SWAP2 SWAP1 POP JUMP JUMPDEST PUSH1 0x0 DUP2 SWAP1 POP SWAP2 SWAP1 POP JUMP JUMPDEST DUP3 DUP2 DUP4 CALLDATACOPY PUSH1 0x0 DUP4 DUP4 ADD MSTORE POP POP POP JUMP JUMPDEST PUSH1 0x0 JUMPDEST DUP4 DUP2 LT ISZERO PUSH2 0x954 JUMPI DUP1 DUP3 ADD MLOAD DUP2 DUP5 ADD MSTORE PUSH1 0x20 DUP2 ADD SWAP1 POP PUSH2 0x939 JUMP JUMPDEST DUP4 DUP2 GT ISZERO PUSH2 0x963 JUMPI PUSH1 0x0 DUP5 DUP5 ADD MSTORE JUMPDEST POP POP POP POP JUMP JUMPDEST PUSH1 0x0 PUSH1 0x2 DUP3 DIV SWAP1 POP PUSH1 0x1 DUP3 AND DUP1 PUSH2 0x981 JUMPI PUSH1 0x7F DUP3 AND SWAP2 POP JUMPDEST PUSH1 0x20 DUP3 LT DUP2 EQ ISZERO PUSH2 0x995 JUMPI PUSH2 0x994 PUSH2 0x9CC JUMP JUMPDEST JUMPDEST POP SWAP2 SWAP1 POP JUMP JUMPDEST PUSH2 0x9A4 DUP3 PUSH2 0xA3E JUMP JUMPDEST DUP2 ADD DUP2 DUP2 LT PUSH8 0xFFFFFFFFFFFFFFFF DUP3 GT OR ISZERO PUSH2 0x9C3 JUMPI PUSH2 0x9C2 PUSH2 0x9FB JUMP JUMPDEST JUMPDEST DUP1 PUSH1 0x40 MSTORE POP POP POP JUMP JUMPDEST PUSH32 0x4E487B7100000000000000000000000000000000000000000000000000000000 PUSH1 0x0 MSTORE PUSH1 0x22 PUSH1 0x4 MSTORE PUSH1 0x24 PUSH1 0x0 REVERT JUMPDEST PUSH32 0x4E487B7100000000000000000000000000000000000000000000000000000000 PUSH1 0x0 MSTORE PUSH1 0x41 PUSH1 0x4 MSTORE PUSH1 0x24 PUSH1 0x0 REVERT JUMPDEST PUSH1 0x0 DUP1 REVERT JUMPDEST PUSH1 0x0 DUP1 REVERT JUMPDEST PUSH1 0x0 DUP1 REVERT JUMPDEST PUSH1 0x0 DUP1 REVERT JUMPDEST PUSH1 0x0 PUSH1 0x1F NOT PUSH1 0x1F DUP4 ADD AND SWAP1 POP SWAP2 SWAP1 POP JUMP JUMPDEST PUSH2 0xA58 DUP2 PUSH2 0x8D9 JUMP JUMPDEST DUP2 EQ PUSH2 0xA63 JUMPI PUSH1 0x0 DUP1 REVERT JUMPDEST POP JUMP JUMPDEST PUSH2 0xA6F DUP2 PUSH2 0x8EB JUMP JUMPDEST DUP2 EQ PUSH2 0xA7A JUMPI PUSH1 0x0 DUP1 REVERT JUMPDEST POP JUMP JUMPDEST PUSH2 0xA86 DUP2 PUSH2 0x91D JUMP JUMPDEST DUP2 EQ PUSH2 0xA91 JUMPI PUSH1 0x0 DUP1 REVERT JUMPDEST POP JUMP INVALID LOG2 PUSH5 0x6970667358 0x22 SLT KECCAK256 SWAP15 0x1E JUMPDEST RETURNDATASIZE SWAP16 SWAP14 0xD1 LOG4 0xB5 0xAB DUP5 PC PUSH26 0x69DE89893CC93064A7FFCE668565DCC253CAC664736F6C634300 ADDMOD SMOD STOP CALLER "
				},
				"gasEstimates": {
					"creation": {
						"codeDepositCost": "552400",
						"executionCost": "infinite",
						"totalCost": "infinite"
					},
					"external": {
						"getInfoByWallet(address)": "infinite",
						"sendNow(address)": "infinite",
						"setInfo(address,string,uint256,string,uint256,string)": "infinite"
					}
				},
				"methodIdentifiers": {
					"getInfoByWallet(address)": "8b9c657a",
					"sendNow(address)": "0b1fa23f",
					"setInfo(address,string,uint256,string,uint256,string)": "0ebcbdb8"
				}
			},
			"storageLayout": {
				"storage": [
					{
						"astId": 29,
						"contract": "sendtosend.sol:status",
						"label": "name",
						"offset": 0,
						"slot": "0",
						"type": "t_string_storage"
					},
					{
						"astId": 32,
						"contract": "sendtosend.sol:status",
						"label": "balance",
						"offset": 0,
						"slot": "1",
						"type": "t_uint256"
					},
					{
						"astId": 36,
						"contract": "sendtosend.sol:status",
						"label": "Students",
						"offset": 0,
						"slot": "2",
						"type": "t_array(t_struct(Student)26_storage)dyn_storage"
					},
					{
						"astId": 41,
						"contract": "sendtosend.sol:status",
						"label": "getInfoByWallet",
						"offset": 0,
						"slot": "3",
						"type": "t_mapping(t_address,t_struct(Student)26_storage)"
					}
				],
				"types": {
					"t_address": {
						"encoding": "inplace",
						"label": "address",
						"numberOfBytes": "20"
					},
					"t_array(t_struct(Student)26_storage)dyn_storage": {
						"base": "t_struct(Student)26_storage",
						"encoding": "dynamic_array",
						"label": "struct status.Student[]",
						"numberOfBytes": "32"
					},
					"t_mapping(t_address,t_struct(Student)26_storage)": {
						"encoding": "mapping",
						"key": "t_address",
						"label": "mapping(address => struct status.Student)",
						"numberOfBytes": "32",
						"value": "t_struct(Student)26_storage"
					},
					"t_string_storage": {
						"encoding": "bytes",
						"label": "string",
						"numberOfBytes": "32"
					},
					"t_struct(Student)26_storage": {
						"encoding": "inplace",
						"label": "struct status.Student",
						"members": [
							{
								"astId": 15,
								"contract": "sendtosend.sol:status",
								"label": "name",
								"offset": 0,
								"slot": "0",
								"type": "t_string_storage"
							},
							{
								"astId": 17,
								"contract": "sendtosend.sol:status",
								"label": "StudentID",
								"offset": 0,
								"slot": "1",
								"type": "t_uint256"
							},
							{
								"astId": 19,
								"contract": "sendtosend.sol:status",
								"label": "major",
								"offset": 0,
								"slot": "2",
								"type": "t_string_storage"
							},
							{
								"astId": 21,
								"contract": "sendtosend.sol:status",
								"label": "gpa",
								"offset": 0,
								"slot": "3",
								"type": "t_uint256"
							},
							{
								"astId": 23,
								"contract": "sendtosend.sol:status",
								"label": "company",
								"offset": 0,
								"slot": "4",
								"type": "t_string_storage"
							},
							{
								"astId": 25,
								"contract": "sendtosend.sol:status",
								"label": "balance",
								"offset": 0,
								"slot": "5",
								"type": "t_uint256"
							}
						],
						"numberOfBytes": "192"
					},
					"t_uint256": {
						"encoding": "inplace",
						"label": "uint256",
						"numberOfBytes": "32"
					}
				}
			},
			"userdoc": {
				"kind": "user",
				"methods": {},
				"version": 1
			}
		}
	}
}