{
	"sol/send_token.sol": {
		"status": {
			"abi": [
				{
					"anonymous": false,
					"inputs": [
						{
							"indexed": true,
							"internalType": "address",
							"name": "owner",
							"type": "address"
						},
						{
							"indexed": true,
							"internalType": "address",
							"name": "spender",
							"type": "address"
						},
						{
							"indexed": false,
							"internalType": "uint256",
							"name": "value",
							"type": "uint256"
						}
					],
					"name": "Approval",
					"type": "event"
				},
				{
					"anonymous": false,
					"inputs": [
						{
							"indexed": true,
							"internalType": "address",
							"name": "from",
							"type": "address"
						},
						{
							"indexed": true,
							"internalType": "address",
							"name": "to",
							"type": "address"
						},
						{
							"indexed": false,
							"internalType": "uint256",
							"name": "value",
							"type": "uint256"
						}
					],
					"name": "Transfer",
					"type": "event"
				},
				{
					"inputs": [],
					"name": "INITIAL_SUPPLY",
					"outputs": [
						{
							"internalType": "uint256",
							"name": "",
							"type": "uint256"
						}
					],
					"stateMutability": "view",
					"type": "function"
				},
				{
					"inputs": [
						{
							"internalType": "address",
							"name": "owner",
							"type": "address"
						},
						{
							"internalType": "address",
							"name": "spender",
							"type": "address"
						}
					],
					"name": "allowance",
					"outputs": [
						{
							"internalType": "uint256",
							"name": "",
							"type": "uint256"
						}
					],
					"stateMutability": "view",
					"type": "function"
				},
				{
					"inputs": [
						{
							"internalType": "address",
							"name": "spender",
							"type": "address"
						},
						{
							"internalType": "uint256",
							"name": "amount",
							"type": "uint256"
						}
					],
					"name": "approve",
					"outputs": [
						{
							"internalType": "bool",
							"name": "",
							"type": "bool"
						}
					],
					"stateMutability": "nonpayable",
					"type": "function"
				},
				{
					"inputs": [
						{
							"internalType": "address",
							"name": "account",
							"type": "address"
						}
					],
					"name": "balanceOf",
					"outputs": [
						{
							"internalType": "uint256",
							"name": "",
							"type": "uint256"
						}
					],
					"stateMutability": "view",
					"type": "function"
				},
				{
					"inputs": [],
					"name": "decimals",
					"outputs": [
						{
							"internalType": "uint8",
							"name": "",
							"type": "uint8"
						}
					],
					"stateMutability": "view",
					"type": "function"
				},
				{
					"inputs": [
						{
							"internalType": "address",
							"name": "spender",
							"type": "address"
						},
						{
							"internalType": "uint256",
							"name": "subtractedValue",
							"type": "uint256"
						}
					],
					"name": "decreaseAllowance",
					"outputs": [
						{
							"internalType": "bool",
							"name": "",
							"type": "bool"
						}
					],
					"stateMutability": "nonpayable",
					"type": "function"
				},
				{
					"inputs": [
						{
							"internalType": "address",
							"name": "",
							"type": "address"
						}
					],
					"name": "getInfoByWallet",
					"outputs": [
						{
							"internalType": "string",
							"name": "name",
							"type": "string"
						},
						{
							"internalType": "uint256",
							"name": "StudentID",
							"type": "uint256"
						},
						{
							"internalType": "string",
							"name": "major",
							"type": "string"
						},
						{
							"internalType": "uint256",
							"name": "gpa",
							"type": "uint256"
						},
						{
							"internalType": "string",
							"name": "company",
							"type": "string"
						},
						{
							"internalType": "uint256",
							"name": "balance",
							"type": "uint256"
						}
					],
					"stateMutability": "view",
					"type": "function"
				},
				{
					"inputs": [
						{
							"internalType": "address",
							"name": "spender",
							"type": "address"
						},
						{
							"internalType": "uint256",
							"name": "addedValue",
							"type": "uint256"
						}
					],
					"name": "increaseAllowance",
					"outputs": [
						{
							"internalType": "bool",
							"name": "",
							"type": "bool"
						}
					],
					"stateMutability": "nonpayable",
					"type": "function"
				},
				{
					"inputs": [],
					"name": "name",
					"outputs": [
						{
							"internalType": "string",
							"name": "",
							"type": "string"
						}
					],
					"stateMutability": "view",
					"type": "function"
				},
				{
					"inputs": [
						{
							"internalType": "address",
							"name": "account",
							"type": "address"
						},
						{
							"internalType": "string",
							"name": "_name",
							"type": "string"
						},
						{
							"internalType": "uint256",
							"name": "_StudentID",
							"type": "uint256"
						},
						{
							"internalType": "string",
							"name": "_major",
							"type": "string"
						},
						{
							"internalType": "uint256",
							"name": "_gpa",
							"type": "uint256"
						},
						{
							"internalType": "string",
							"name": "_company",
							"type": "string"
						}
					],
					"name": "setInfo",
					"outputs": [],
					"stateMutability": "nonpayable",
					"type": "function"
				},
				{
					"inputs": [],
					"name": "symbol",
					"outputs": [
						{
							"internalType": "string",
							"name": "",
							"type": "string"
						}
					],
					"stateMutability": "view",
					"type": "function"
				},
				{
					"inputs": [],
					"name": "totalSupply",
					"outputs": [
						{
							"internalType": "uint256",
							"name": "",
							"type": "uint256"
						}
					],
					"stateMutability": "view",
					"type": "function"
				},
				{
					"inputs": [
						{
							"internalType": "address",
							"name": "to",
							"type": "address"
						},
						{
							"internalType": "uint256",
							"name": "amount",
							"type": "uint256"
						}
					],
					"name": "transfer",
					"outputs": [
						{
							"internalType": "bool",
							"name": "",
							"type": "bool"
						}
					],
					"stateMutability": "nonpayable",
					"type": "function"
				},
				{
					"inputs": [
						{
							"internalType": "address",
							"name": "from",
							"type": "address"
						},
						{
							"internalType": "address",
							"name": "to",
							"type": "address"
						},
						{
							"internalType": "uint256",
							"name": "amount",
							"type": "uint256"
						}
					],
					"name": "transferFrom",
					"outputs": [
						{
							"internalType": "bool",
							"name": "",
							"type": "bool"
						}
					],
					"stateMutability": "nonpayable",
					"type": "function"
				}
			],
			"devdoc": {
				"kind": "dev",
				"methods": {
					"allowance(address,address)": {
						"details": "See {IERC20-allowance}."
					},
					"approve(address,uint256)": {
						"details": "See {IERC20-approve}. NOTE: If `amount` is the maximum `uint256`, the allowance is not updated on `transferFrom`. This is semantically equivalent to an infinite approval. Requirements: - `spender` cannot be the zero address."
					},
					"balanceOf(address)": {
						"details": "See {IERC20-balanceOf}."
					},
					"decimals()": {
						"details": "Returns the number of decimals used to get its user representation. For example, if `decimals` equals `2`, a balance of `505` tokens should be displayed to a user as `5.05` (`505 / 10 ** 2`). Tokens usually opt for a value of 18, imitating the relationship between Ether and Wei. This is the value {ERC20} uses, unless this function is overridden; NOTE: This information is only used for _display_ purposes: it in no way affects any of the arithmetic of the contract, including {IERC20-balanceOf} and {IERC20-transfer}."
					},
					"decreaseAllowance(address,uint256)": {
						"details": "Atomically decreases the allowance granted to `spender` by the caller. This is an alternative to {approve} that can be used as a mitigation for problems described in {IERC20-approve}. Emits an {Approval} event indicating the updated allowance. Requirements: - `spender` cannot be the zero address. - `spender` must have allowance for the caller of at least `subtractedValue`."
					},
					"increaseAllowance(address,uint256)": {
						"details": "Atomically increases the allowance granted to `spender` by the caller. This is an alternative to {approve} that can be used as a mitigation for problems described in {IERC20-approve}. Emits an {Approval} event indicating the updated allowance. Requirements: - `spender` cannot be the zero address."
					},
					"name()": {
						"details": "Returns the name of the token."
					},
					"symbol()": {
						"details": "Returns the symbol of the token, usually a shorter version of the name."
					},
					"totalSupply()": {
						"details": "See {IERC20-totalSupply}."
					},
					"transfer(address,uint256)": {
						"details": "See {IERC20-transfer}. Requirements: - `to` cannot be the zero address. - the caller must have a balance of at least `amount`."
					},
					"transferFrom(address,address,uint256)": {
						"details": "See {IERC20-transferFrom}. Emits an {Approval} event indicating the updated allowance. This is not required by the EIP. See the note at the beginning of {ERC20}. NOTE: Does not update the allowance if the current allowance is the maximum `uint256`. Requirements: - `from` and `to` cannot be the zero address. - `from` must have a balance of at least `amount`. - the caller must have allowance for ``from``'s tokens of at least `amount`."
					}
				},
				"version": 1
			},
			"evm": {
				"assembly": "    /* \"sol/send_token.sol\":410:1540  contract status is PompayToken(\"AJOU\", \"AJ\"){\r... */\n  mstore(0x40, 0x80)\n    /* \"sol/send_token.sol\":249:272  1500000000000000*10**18 */\n  0x49f4a966d45cd522088f00000000\n    /* \"sol/send_token.sol\":220:272  uint public INITIAL_SUPPLY = 1500000000000000*10**18 */\n  0x05\n  sstore\n    /* \"sol/send_token.sol\":410:1540  contract status is PompayToken(\"AJOU\", \"AJ\"){\r... */\n  callvalue\n  dup1\n  iszero\n  tag_1\n  jumpi\n  0x00\n  dup1\n  revert\ntag_1:\n  pop\n    /* \"sol/send_token.sol\":279:403  constructor(string memory name, string memory symbol) ERC20(name,symbol){\r... */\n  mload(0x40)\n  dup1\n  0x40\n  add\n  0x40\n  mstore\n  dup1\n  0x04\n  dup2\n  mstore\n  0x20\n  add\n  0x414a4f5500000000000000000000000000000000000000000000000000000000\n  dup2\n  mstore\n  pop\n  mload(0x40)\n  dup1\n  0x40\n  add\n  0x40\n  mstore\n  dup1\n  0x02\n  dup2\n  mstore\n  0x20\n  add\n  0x414a000000000000000000000000000000000000000000000000000000000000\n  dup2\n  mstore\n  pop\n    /* \"sol/send_token.sol\":339:343  name */\n  dup2\n    /* \"sol/send_token.sol\":344:350  symbol */\n  dup2\n    /* \"https://github.com/OpenZeppelin/openzeppelin-contracts/blob/master/contracts/token/ERC20/ERC20.sol\":2050:2055  name_ */\n  dup2\n    /* \"https://github.com/OpenZeppelin/openzeppelin-contracts/blob/master/contracts/token/ERC20/ERC20.sol\":2042:2047  _name */\n  0x03\n    /* \"https://github.com/OpenZeppelin/openzeppelin-contracts/blob/master/contracts/token/ERC20/ERC20.sol\":2042:2055  _name = name_ */\n  swap1\n  dup1\n  mload\n  swap1\n  0x20\n  add\n  swap1\n  tag_5\n  swap3\n  swap2\n  swap1\n  tag_6\n  jump\t// in\ntag_5:\n  pop\n    /* \"https://github.com/OpenZeppelin/openzeppelin-contracts/blob/master/contracts/token/ERC20/ERC20.sol\":2075:2082  symbol_ */\n  dup1\n    /* \"https://github.com/OpenZeppelin/openzeppelin-contracts/blob/master/contracts/token/ERC20/ERC20.sol\":2065:2072  _symbol */\n  0x04\n    /* \"https://github.com/OpenZeppelin/openzeppelin-contracts/blob/master/contracts/token/ERC20/ERC20.sol\":2065:2082  _symbol = symbol_ */\n  swap1\n  dup1\n  mload\n  swap1\n  0x20\n  add\n  swap1\n  tag_7\n  swap3\n  swap2\n  swap1\n  tag_6\n  jump\t// in\ntag_7:\n  pop\n    /* \"https://github.com/OpenZeppelin/openzeppelin-contracts/blob/master/contracts/token/ERC20/ERC20.sol\":1976:2089  constructor(string memory name_, string memory symbol_) {... */\n  pop\n  pop\n    /* \"sol/send_token.sol\":362:395  _mint(msg.sender, INITIAL_SUPPLY) */\n  tag_9\n    /* \"sol/send_token.sol\":368:378  msg.sender */\n  caller\n    /* \"sol/send_token.sol\":380:394  INITIAL_SUPPLY */\n  sload(0x05)\n    /* \"sol/send_token.sol\":362:367  _mint */\n  shl(0x20, tag_10)\n    /* \"sol/send_token.sol\":362:395  _mint(msg.sender, INITIAL_SUPPLY) */\n  0x20\n  shr\n  jump\t// in\ntag_9:\n    /* \"sol/send_token.sol\":279:403  constructor(string memory name, string memory symbol) ERC20(name,symbol){\r... */\n  pop\n  pop\n    /* \"sol/send_token.sol\":410:1540  contract status is PompayToken(\"AJOU\", \"AJ\"){\r... */\n  jump(tag_11)\n    /* \"https://github.com/OpenZeppelin/openzeppelin-contracts/blob/master/contracts/token/ERC20/ERC20.sol\":8567:9102  function _mint(address account, uint256 amount) internal virtual {... */\ntag_10:\n    /* \"https://github.com/OpenZeppelin/openzeppelin-contracts/blob/master/contracts/token/ERC20/ERC20.sol\":8669:8670  0 */\n  0x00\n    /* \"https://github.com/OpenZeppelin/openzeppelin-contracts/blob/master/contracts/token/ERC20/ERC20.sol\":8650:8671  account != address(0) */\n  0xffffffffffffffffffffffffffffffffffffffff\n  and\n    /* \"https://github.com/OpenZeppelin/openzeppelin-contracts/blob/master/contracts/token/ERC20/ERC20.sol\":8650:8657  account */\n  dup3\n    /* \"https://github.com/OpenZeppelin/openzeppelin-contracts/blob/master/contracts/token/ERC20/ERC20.sol\":8650:8671  account != address(0) */\n  0xffffffffffffffffffffffffffffffffffffffff\n  and\n  eq\n  iszero\n    /* \"https://github.com/OpenZeppelin/openzeppelin-contracts/blob/master/contracts/token/ERC20/ERC20.sol\":8642:8707  require(account != address(0), \"ERC20: mint to the zero address\") */\n  tag_13\n  jumpi\n  mload(0x40)\n  0x08c379a000000000000000000000000000000000000000000000000000000000\n  dup2\n  mstore\n  0x04\n  add\n  tag_14\n  swap1\n  tag_15\n  jump\t// in\ntag_14:\n  mload(0x40)\n  dup1\n  swap2\n  sub\n  swap1\n  revert\ntag_13:\n    /* \"https://github.com/OpenZeppelin/openzeppelin-contracts/blob/master/contracts/token/ERC20/ERC20.sol\":8718:8767  _beforeTokenTransfer(address(0), account, amount) */\n  tag_16\n    /* \"https://github.com/OpenZeppelin/openzeppelin-contracts/blob/master/contracts/token/ERC20/ERC20.sol\":8747:8748  0 */\n  0x00\n    /* \"https://github.com/OpenZeppelin/openzeppelin-contracts/blob/master/contracts/token/ERC20/ERC20.sol\":8751:8758  account */\n  dup4\n    /* \"https://github.com/OpenZeppelin/openzeppelin-contracts/blob/master/contracts/token/ERC20/ERC20.sol\":8760:8766  amount */\n  dup4\n    /* \"https://github.com/OpenZeppelin/openzeppelin-contracts/blob/master/contracts/token/ERC20/ERC20.sol\":8718:8738  _beforeTokenTransfer */\n  shl(0x20, tag_17)\n    /* \"https://github.com/OpenZeppelin/openzeppelin-contracts/blob/master/contracts/token/ERC20/ERC20.sol\":8718:8767  _beforeTokenTransfer(address(0), account, amount) */\n  0x20\n  shr\n  jump\t// in\ntag_16:\n    /* \"https://github.com/OpenZeppelin/openzeppelin-contracts/blob/master/contracts/token/ERC20/ERC20.sol\":8794:8800  amount */\n  dup1\n    /* \"https://github.com/OpenZeppelin/openzeppelin-contracts/blob/master/contracts/token/ERC20/ERC20.sol\":8778:8790  _totalSupply */\n  0x02\n  0x00\n    /* \"https://github.com/OpenZeppelin/openzeppelin-contracts/blob/master/contracts/token/ERC20/ERC20.sol\":8778:8800  _totalSupply += amount */\n  dup3\n  dup3\n  sload\n  tag_18\n  swap2\n  swap1\n  tag_19\n  jump\t// in\ntag_18:\n  swap3\n  pop\n  pop\n  dup2\n  swap1\n  sstore\n  pop\n    /* \"https://github.com/OpenZeppelin/openzeppelin-contracts/blob/master/contracts/token/ERC20/ERC20.sol\":8968:8974  amount */\n  dup1\n    /* \"https://github.com/OpenZeppelin/openzeppelin-contracts/blob/master/contracts/token/ERC20/ERC20.sol\":8946:8955  _balances */\n  0x00\n    /* \"https://github.com/OpenZeppelin/openzeppelin-contracts/blob/master/contracts/token/ERC20/ERC20.sol\":8946:8964  _balances[account] */\n  dup1\n    /* \"https://github.com/OpenZeppelin/openzeppelin-contracts/blob/master/contracts/token/ERC20/ERC20.sol\":8956:8963  account */\n  dup5\n    /* \"https://github.com/OpenZeppelin/openzeppelin-contracts/blob/master/contracts/token/ERC20/ERC20.sol\":8946:8964  _balances[account] */\n  0xffffffffffffffffffffffffffffffffffffffff\n  and\n  0xffffffffffffffffffffffffffffffffffffffff\n  and\n  dup2\n  mstore\n  0x20\n  add\n  swap1\n  dup2\n  mstore\n  0x20\n  add\n  0x00\n  keccak256\n  0x00\n    /* \"https://github.com/OpenZeppelin/openzeppelin-contracts/blob/master/contracts/token/ERC20/ERC20.sol\":8946:8974  _balances[account] += amount */\n  dup3\n  dup3\n  sload\n  add\n  swap3\n  pop\n  pop\n  dup2\n  swap1\n  sstore\n  pop\n    /* \"https://github.com/OpenZeppelin/openzeppelin-contracts/blob/master/contracts/token/ERC20/ERC20.sol\":9020:9027  account */\n  dup2\n    /* \"https://github.com/OpenZeppelin/openzeppelin-contracts/blob/master/contracts/token/ERC20/ERC20.sol\":8999:9036  Transfer(address(0), account, amount) */\n  0xffffffffffffffffffffffffffffffffffffffff\n  and\n    /* \"https://github.com/OpenZeppelin/openzeppelin-contracts/blob/master/contracts/token/ERC20/ERC20.sol\":9016:9017  0 */\n  0x00\n    /* \"https://github.com/OpenZeppelin/openzeppelin-contracts/blob/master/contracts/token/ERC20/ERC20.sol\":8999:9036  Transfer(address(0), account, amount) */\n  0xffffffffffffffffffffffffffffffffffffffff\n  and\n  0xddf252ad1be2c89b69c2b068fc378daa952ba7f163c4a11628f55a4df523b3ef\n    /* \"https://github.com/OpenZeppelin/openzeppelin-contracts/blob/master/contracts/token/ERC20/ERC20.sol\":9029:9035  amount */\n  dup4\n    /* \"https://github.com/OpenZeppelin/openzeppelin-contracts/blob/master/contracts/token/ERC20/ERC20.sol\":8999:9036  Transfer(address(0), account, amount) */\n  mload(0x40)\n  tag_20\n  swap2\n  swap1\n  tag_21\n  jump\t// in\ntag_20:\n  mload(0x40)\n  dup1\n  swap2\n  sub\n  swap1\n  log3\n    /* \"https://github.com/OpenZeppelin/openzeppelin-contracts/blob/master/contracts/token/ERC20/ERC20.sol\":9047:9095  _afterTokenTransfer(address(0), account, amount) */\n  tag_22\n    /* \"https://github.com/OpenZeppelin/openzeppelin-contracts/blob/master/contracts/token/ERC20/ERC20.sol\":9075:9076  0 */\n  0x00\n    /* \"https://github.com/OpenZeppelin/openzeppelin-contracts/blob/master/contracts/token/ERC20/ERC20.sol\":9079:9086  account */\n  dup4\n    /* \"https://github.com/OpenZeppelin/openzeppelin-contracts/blob/master/contracts/token/ERC20/ERC20.sol\":9088:9094  amount */\n  dup4\n    /* \"https://github.com/OpenZeppelin/openzeppelin-contracts/blob/master/contracts/token/ERC20/ERC20.sol\":9047:9066  _afterTokenTransfer */\n  shl(0x20, tag_23)\n    /* \"https://github.com/OpenZeppelin/openzeppelin-contracts/blob/master/contracts/token/ERC20/ERC20.sol\":9047:9095  _afterTokenTransfer(address(0), account, amount) */\n  0x20\n  shr\n  jump\t// in\ntag_22:\n    /* \"https://github.com/OpenZeppelin/openzeppelin-contracts/blob/master/contracts/token/ERC20/ERC20.sol\":8567:9102  function _mint(address account, uint256 amount) internal virtual {... */\n  pop\n  pop\n  jump\t// out\n    /* \"https://github.com/OpenZeppelin/openzeppelin-contracts/blob/master/contracts/token/ERC20/ERC20.sol\":12180:12301  function _beforeTokenTransfer(... */\ntag_17:\n  pop\n  pop\n  pop\n  jump\t// out\n    /* \"https://github.com/OpenZeppelin/openzeppelin-contracts/blob/master/contracts/token/ERC20/ERC20.sol\":12889:13009  function _afterTokenTransfer(... */\ntag_23:\n  pop\n  pop\n  pop\n  jump\t// out\n    /* \"sol/send_token.sol\":410:1540  contract status is PompayToken(\"AJOU\", \"AJ\"){\r... */\ntag_6:\n  dup3\n  dup1\n  sload\n  tag_26\n  swap1\n  tag_27\n  jump\t// in\ntag_26:\n  swap1\n  0x00\n  mstore\n  keccak256(0x00, 0x20)\n  swap1\n  0x1f\n  add\n  0x20\n  swap1\n  div\n  dup2\n  add\n  swap3\n  dup3\n  tag_29\n  jumpi\n  0x00\n  dup6\n  sstore\n  jump(tag_28)\ntag_29:\n  dup3\n  0x1f\n  lt\n  tag_30\n  jumpi\n  dup1\n  mload\n  not(0xff)\n  and\n  dup4\n  dup1\n  add\n  or\n  dup6\n  sstore\n  jump(tag_28)\ntag_30:\n  dup3\n  dup1\n  add\n  0x01\n  add\n  dup6\n  sstore\n  dup3\n  iszero\n  tag_28\n  jumpi\n  swap2\n  dup3\n  add\ntag_31:\n  dup3\n  dup2\n  gt\n  iszero\n  tag_32\n  jumpi\n  dup3\n  mload\n  dup3\n  sstore\n  swap2\n  0x20\n  add\n  swap2\n  swap1\n  0x01\n  add\n  swap1\n  jump(tag_31)\ntag_32:\ntag_28:\n  pop\n  swap1\n  pop\n  tag_33\n  swap2\n  swap1\n  tag_34\n  jump\t// in\ntag_33:\n  pop\n  swap1\n  jump\t// out\ntag_34:\ntag_35:\n  dup1\n  dup3\n  gt\n  iszero\n  tag_36\n  jumpi\n  0x00\n  dup2\n  0x00\n  swap1\n  sstore\n  pop\n  0x01\n  add\n  jump(tag_35)\ntag_36:\n  pop\n  swap1\n  jump\t// out\n    /* \"#utility.yul\":7:373   */\ntag_38:\n    /* \"#utility.yul\":149:152   */\n  0x00\n    /* \"#utility.yul\":170:237   */\n  tag_40\n    /* \"#utility.yul\":234:236   */\n  0x1f\n    /* \"#utility.yul\":229:232   */\n  dup4\n    /* \"#utility.yul\":170:237   */\n  tag_41\n  jump\t// in\ntag_40:\n    /* \"#utility.yul\":163:237   */\n  swap2\n  pop\n    /* \"#utility.yul\":246:339   */\n  tag_42\n    /* \"#utility.yul\":335:338   */\n  dup3\n    /* \"#utility.yul\":246:339   */\n  tag_43\n  jump\t// in\ntag_42:\n    /* \"#utility.yul\":364:366   */\n  0x20\n    /* \"#utility.yul\":359:362   */\n  dup3\n    /* \"#utility.yul\":355:367   */\n  add\n    /* \"#utility.yul\":348:367   */\n  swap1\n  pop\n    /* \"#utility.yul\":7:373   */\n  swap2\n  swap1\n  pop\n  jump\t// out\n    /* \"#utility.yul\":379:497   */\ntag_44:\n    /* \"#utility.yul\":466:490   */\n  tag_46\n    /* \"#utility.yul\":484:489   */\n  dup2\n    /* \"#utility.yul\":466:490   */\n  tag_47\n  jump\t// in\ntag_46:\n    /* \"#utility.yul\":461:464   */\n  dup3\n    /* \"#utility.yul\":454:491   */\n  mstore\n    /* \"#utility.yul\":379:497   */\n  pop\n  pop\n  jump\t// out\n    /* \"#utility.yul\":503:922   */\ntag_15:\n    /* \"#utility.yul\":669:673   */\n  0x00\n    /* \"#utility.yul\":707:709   */\n  0x20\n    /* \"#utility.yul\":696:705   */\n  dup3\n    /* \"#utility.yul\":692:710   */\n  add\n    /* \"#utility.yul\":684:710   */\n  swap1\n  pop\n    /* \"#utility.yul\":756:765   */\n  dup2\n    /* \"#utility.yul\":750:754   */\n  dup2\n    /* \"#utility.yul\":746:766   */\n  sub\n    /* \"#utility.yul\":742:743   */\n  0x00\n    /* \"#utility.yul\":731:740   */\n  dup4\n    /* \"#utility.yul\":727:744   */\n  add\n    /* \"#utility.yul\":720:767   */\n  mstore\n    /* \"#utility.yul\":784:915   */\n  tag_49\n    /* \"#utility.yul\":910:914   */\n  dup2\n    /* \"#utility.yul\":784:915   */\n  tag_38\n  jump\t// in\ntag_49:\n    /* \"#utility.yul\":776:915   */\n  swap1\n  pop\n    /* \"#utility.yul\":503:922   */\n  swap2\n  swap1\n  pop\n  jump\t// out\n    /* \"#utility.yul\":928:1150   */\ntag_21:\n    /* \"#utility.yul\":1021:1025   */\n  0x00\n    /* \"#utility.yul\":1059:1061   */\n  0x20\n    /* \"#utility.yul\":1048:1057   */\n  dup3\n    /* \"#utility.yul\":1044:1062   */\n  add\n    /* \"#utility.yul\":1036:1062   */\n  swap1\n  pop\n    /* \"#utility.yul\":1072:1143   */\n  tag_51\n    /* \"#utility.yul\":1140:1141   */\n  0x00\n    /* \"#utility.yul\":1129:1138   */\n  dup4\n    /* \"#utility.yul\":1125:1142   */\n  add\n    /* \"#utility.yul\":1116:1122   */\n  dup5\n    /* \"#utility.yul\":1072:1143   */\n  tag_44\n  jump\t// in\ntag_51:\n    /* \"#utility.yul\":928:1150   */\n  swap3\n  swap2\n  pop\n  pop\n  jump\t// out\n    /* \"#utility.yul\":1156:1325   */\ntag_41:\n    /* \"#utility.yul\":1240:1251   */\n  0x00\n    /* \"#utility.yul\":1274:1280   */\n  dup3\n    /* \"#utility.yul\":1269:1272   */\n  dup3\n    /* \"#utility.yul\":1262:1281   */\n  mstore\n    /* \"#utility.yul\":1314:1318   */\n  0x20\n    /* \"#utility.yul\":1309:1312   */\n  dup3\n    /* \"#utility.yul\":1305:1319   */\n  add\n    /* \"#utility.yul\":1290:1319   */\n  swap1\n  pop\n    /* \"#utility.yul\":1156:1325   */\n  swap3\n  swap2\n  pop\n  pop\n  jump\t// out\n    /* \"#utility.yul\":1331:1636   */\ntag_19:\n    /* \"#utility.yul\":1371:1374   */\n  0x00\n    /* \"#utility.yul\":1390:1410   */\n  tag_54\n    /* \"#utility.yul\":1408:1409   */\n  dup3\n    /* \"#utility.yul\":1390:1410   */\n  tag_47\n  jump\t// in\ntag_54:\n    /* \"#utility.yul\":1385:1410   */\n  swap2\n  pop\n    /* \"#utility.yul\":1424:1444   */\n  tag_55\n    /* \"#utility.yul\":1442:1443   */\n  dup4\n    /* \"#utility.yul\":1424:1444   */\n  tag_47\n  jump\t// in\ntag_55:\n    /* \"#utility.yul\":1419:1444   */\n  swap3\n  pop\n    /* \"#utility.yul\":1578:1579   */\n  dup3\n    /* \"#utility.yul\":1510:1576   */\n  0xffffffffffffffffffffffffffffffffffffffffffffffffffffffffffffffff\n    /* \"#utility.yul\":1506:1580   */\n  sub\n    /* \"#utility.yul\":1503:1504   */\n  dup3\n    /* \"#utility.yul\":1500:1581   */\n  gt\n    /* \"#utility.yul\":1497:1604   */\n  iszero\n  tag_56\n  jumpi\n    /* \"#utility.yul\":1584:1602   */\n  tag_57\n  tag_58\n  jump\t// in\ntag_57:\n    /* \"#utility.yul\":1497:1604   */\ntag_56:\n    /* \"#utility.yul\":1628:1629   */\n  dup3\n    /* \"#utility.yul\":1625:1626   */\n  dup3\n    /* \"#utility.yul\":1621:1630   */\n  add\n    /* \"#utility.yul\":1614:1630   */\n  swap1\n  pop\n    /* \"#utility.yul\":1331:1636   */\n  swap3\n  swap2\n  pop\n  pop\n  jump\t// out\n    /* \"#utility.yul\":1642:1719   */\ntag_47:\n    /* \"#utility.yul\":1679:1686   */\n  0x00\n    /* \"#utility.yul\":1708:1713   */\n  dup2\n    /* \"#utility.yul\":1697:1713   */\n  swap1\n  pop\n    /* \"#utility.yul\":1642:1719   */\n  swap2\n  swap1\n  pop\n  jump\t// out\n    /* \"#utility.yul\":1725:2045   */\ntag_27:\n    /* \"#utility.yul\":1769:1775   */\n  0x00\n    /* \"#utility.yul\":1806:1807   */\n  0x02\n    /* \"#utility.yul\":1800:1804   */\n  dup3\n    /* \"#utility.yul\":1796:1808   */\n  div\n    /* \"#utility.yul\":1786:1808   */\n  swap1\n  pop\n    /* \"#utility.yul\":1853:1854   */\n  0x01\n    /* \"#utility.yul\":1847:1851   */\n  dup3\n    /* \"#utility.yul\":1843:1855   */\n  and\n    /* \"#utility.yul\":1874:1892   */\n  dup1\n    /* \"#utility.yul\":1864:1945   */\n  tag_61\n  jumpi\n    /* \"#utility.yul\":1930:1934   */\n  0x7f\n    /* \"#utility.yul\":1922:1928   */\n  dup3\n    /* \"#utility.yul\":1918:1935   */\n  and\n    /* \"#utility.yul\":1908:1935   */\n  swap2\n  pop\n    /* \"#utility.yul\":1864:1945   */\ntag_61:\n    /* \"#utility.yul\":1992:1994   */\n  0x20\n    /* \"#utility.yul\":1984:1990   */\n  dup3\n    /* \"#utility.yul\":1981:1995   */\n  lt\n    /* \"#utility.yul\":1961:1979   */\n  dup2\n    /* \"#utility.yul\":1958:1996   */\n  eq\n    /* \"#utility.yul\":1955:2039   */\n  iszero\n  tag_62\n  jumpi\n    /* \"#utility.yul\":2011:2029   */\n  tag_63\n  tag_64\n  jump\t// in\ntag_63:\n    /* \"#utility.yul\":1955:2039   */\ntag_62:\n    /* \"#utility.yul\":1776:2045   */\n  pop\n    /* \"#utility.yul\":1725:2045   */\n  swap2\n  swap1\n  pop\n  jump\t// out\n    /* \"#utility.yul\":2051:2231   */\ntag_58:\n    /* \"#utility.yul\":2099:2176   */\n  0x4e487b7100000000000000000000000000000000000000000000000000000000\n    /* \"#utility.yul\":2096:2097   */\n  0x00\n    /* \"#utility.yul\":2089:2177   */\n  mstore\n    /* \"#utility.yul\":2196:2200   */\n  0x11\n    /* \"#utility.yul\":2193:2194   */\n  0x04\n    /* \"#utility.yul\":2186:2201   */\n  mstore\n    /* \"#utility.yul\":2220:2224   */\n  0x24\n    /* \"#utility.yul\":2217:2218   */\n  0x00\n    /* \"#utility.yul\":2210:2225   */\n  revert\n    /* \"#utility.yul\":2237:2417   */\ntag_64:\n    /* \"#utility.yul\":2285:2362   */\n  0x4e487b7100000000000000000000000000000000000000000000000000000000\n    /* \"#utility.yul\":2282:2283   */\n  0x00\n    /* \"#utility.yul\":2275:2363   */\n  mstore\n    /* \"#utility.yul\":2382:2386   */\n  0x22\n    /* \"#utility.yul\":2379:2380   */\n  0x04\n    /* \"#utility.yul\":2372:2387   */\n  mstore\n    /* \"#utility.yul\":2406:2410   */\n  0x24\n    /* \"#utility.yul\":2403:2404   */\n  0x00\n    /* \"#utility.yul\":2396:2411   */\n  revert\n    /* \"#utility.yul\":2423:2604   */\ntag_43:\n    /* \"#utility.yul\":2563:2596   */\n  0x45524332303a206d696e7420746f20746865207a65726f206164647265737300\n    /* \"#utility.yul\":2559:2560   */\n  0x00\n    /* \"#utility.yul\":2551:2557   */\n  dup3\n    /* \"#utility.yul\":2547:2561   */\n  add\n    /* \"#utility.yul\":2540:2597   */\n  mstore\n    /* \"#utility.yul\":2423:2604   */\n  pop\n  jump\t// out\n    /* \"sol/send_token.sol\":410:1540  contract status is PompayToken(\"AJOU\", \"AJ\"){\r... */\ntag_11:\n  dataSize(sub_0)\n  dup1\n  dataOffset(sub_0)\n  0x00\n  codecopy\n  0x00\n  return\nstop\n\nsub_0: assembly {\n        /* \"sol/send_token.sol\":410:1540  contract status is PompayToken(\"AJOU\", \"AJ\"){\r... */\n      mstore(0x40, 0x80)\n      callvalue\n      dup1\n      iszero\n      tag_1\n      jumpi\n      0x00\n      dup1\n      revert\n    tag_1:\n      pop\n      jumpi(tag_2, lt(calldatasize, 0x04))\n      shr(0xe0, calldataload(0x00))\n      dup1\n      0x39509351\n      gt\n      tag_17\n      jumpi\n      dup1\n      0x95d89b41\n      gt\n      tag_18\n      jumpi\n      dup1\n      0x95d89b41\n      eq\n      tag_13\n      jumpi\n      dup1\n      0xa457c2d7\n      eq\n      tag_14\n      jumpi\n      dup1\n      0xa9059cbb\n      eq\n      tag_15\n      jumpi\n      dup1\n      0xdd62ed3e\n      eq\n      tag_16\n      jumpi\n      jump(tag_2)\n    tag_18:\n      dup1\n      0x39509351\n      eq\n      tag_10\n      jumpi\n      dup1\n      0x70a08231\n      eq\n      tag_11\n      jumpi\n      dup1\n      0x8b9c657a\n      eq\n      tag_12\n      jumpi\n      jump(tag_2)\n    tag_17:\n      dup1\n      0x18160ddd\n      gt\n      tag_19\n      jumpi\n      dup1\n      0x18160ddd\n      eq\n      tag_6\n      jumpi\n      dup1\n      0x23b872dd\n      eq\n      tag_7\n      jumpi\n      dup1\n      0x2ff2e9dc\n      eq\n      tag_8\n      jumpi\n      dup1\n      0x313ce567\n      eq\n      tag_9\n      jumpi\n      jump(tag_2)\n    tag_19:\n      dup1\n      0x06fdde03\n      eq\n      tag_3\n      jumpi\n      dup1\n      0x095ea7b3\n      eq\n      tag_4\n      jumpi\n      dup1\n      0x0ebcbdb8\n      eq\n      tag_5\n      jumpi\n    tag_2:\n      0x00\n      dup1\n      revert\n        /* \"https://github.com/OpenZeppelin/openzeppelin-contracts/blob/master/contracts/token/ERC20/ERC20.sol\":2154:2252  function name() public view virtual override returns (string memory) {... */\n    tag_3:\n      tag_20\n      tag_21\n      jump\t// in\n    tag_20:\n      mload(0x40)\n      tag_22\n      swap2\n      swap1\n      tag_23\n      jump\t// in\n    tag_22:\n      mload(0x40)\n      dup1\n      swap2\n      sub\n      swap1\n      return\n        /* \"https://github.com/OpenZeppelin/openzeppelin-contracts/blob/master/contracts/token/ERC20/ERC20.sol\":4431:4628  function approve(address spender, uint256 amount) public virtual override returns (bool) {... */\n    tag_4:\n      tag_24\n      0x04\n      dup1\n      calldatasize\n      sub\n      dup2\n      add\n      swap1\n      tag_25\n      swap2\n      swap1\n      tag_26\n      jump\t// in\n    tag_25:\n      tag_27\n      jump\t// in\n    tag_24:\n      mload(0x40)\n      tag_28\n      swap2\n      swap1\n      tag_29\n      jump\t// in\n    tag_28:\n      mload(0x40)\n      dup1\n      swap2\n      sub\n      swap1\n      return\n        /* \"sol/send_token.sol\":1067:1537  function setInfo(address account, string memory _name, uint256 _StudentID, string memory _major, uint256 _gpa, string memory _company) public {\r... */\n    tag_5:\n      tag_30\n      0x04\n      dup1\n      calldatasize\n      sub\n      dup2\n      add\n      swap1\n      tag_31\n      swap2\n      swap1\n      tag_32\n      jump\t// in\n    tag_31:\n      tag_33\n      jump\t// in\n    tag_30:\n      stop\n        /* \"https://github.com/OpenZeppelin/openzeppelin-contracts/blob/master/contracts/token/ERC20/ERC20.sol\":3242:3348  function totalSupply() public view virtual override returns (uint256) {... */\n    tag_6:\n      tag_34\n      tag_35\n      jump\t// in\n    tag_34:\n      mload(0x40)\n      tag_36\n      swap2\n      swap1\n      tag_37\n      jump\t// in\n    tag_36:\n      mload(0x40)\n      dup1\n      swap2\n      sub\n      swap1\n      return\n        /* \"https://github.com/OpenZeppelin/openzeppelin-contracts/blob/master/contracts/token/ERC20/ERC20.sol\":5190:5476  function transferFrom(... */\n    tag_7:\n      tag_38\n      0x04\n      dup1\n      calldatasize\n      sub\n      dup2\n      add\n      swap1\n      tag_39\n      swap2\n      swap1\n      tag_40\n      jump\t// in\n    tag_39:\n      tag_41\n      jump\t// in\n    tag_38:\n      mload(0x40)\n      tag_42\n      swap2\n      swap1\n      tag_29\n      jump\t// in\n    tag_42:\n      mload(0x40)\n      dup1\n      swap2\n      sub\n      swap1\n      return\n        /* \"sol/send_token.sol\":220:272  uint public INITIAL_SUPPLY = 1500000000000000*10**18 */\n    tag_8:\n      tag_43\n      tag_44\n      jump\t// in\n    tag_43:\n      mload(0x40)\n      tag_45\n      swap2\n      swap1\n      tag_37\n      jump\t// in\n    tag_45:\n      mload(0x40)\n      dup1\n      swap2\n      sub\n      swap1\n      return\n        /* \"https://github.com/OpenZeppelin/openzeppelin-contracts/blob/master/contracts/token/ERC20/ERC20.sol\":3091:3182  function decimals() public view virtual override returns (uint8) {... */\n    tag_9:\n      tag_46\n      tag_47\n      jump\t// in\n    tag_46:\n      mload(0x40)\n      tag_48\n      swap2\n      swap1\n      tag_49\n      jump\t// in\n    tag_48:\n      mload(0x40)\n      dup1\n      swap2\n      sub\n      swap1\n      return\n        /* \"https://github.com/OpenZeppelin/openzeppelin-contracts/blob/master/contracts/token/ERC20/ERC20.sol\":5871:6105  function increaseAllowance(address spender, uint256 addedValue) public virtual returns (bool) {... */\n    tag_10:\n      tag_50\n      0x04\n      dup1\n      calldatasize\n      sub\n      dup2\n      add\n      swap1\n      tag_51\n      swap2\n      swap1\n      tag_26\n      jump\t// in\n    tag_51:\n      tag_52\n      jump\t// in\n    tag_50:\n      mload(0x40)\n      tag_53\n      swap2\n      swap1\n      tag_29\n      jump\t// in\n    tag_53:\n      mload(0x40)\n      dup1\n      swap2\n      sub\n      swap1\n      return\n        /* \"https://github.com/OpenZeppelin/openzeppelin-contracts/blob/master/contracts/token/ERC20/ERC20.sol\":3406:3531  function balanceOf(address account) public view virtual override returns (uint256) {... */\n    tag_11:\n      tag_54\n      0x04\n      dup1\n      calldatasize\n      sub\n      dup2\n      add\n      swap1\n      tag_55\n      swap2\n      swap1\n      tag_56\n      jump\t// in\n    tag_55:\n      tag_57\n      jump\t// in\n    tag_54:\n      mload(0x40)\n      tag_58\n      swap2\n      swap1\n      tag_37\n      jump\t// in\n    tag_58:\n      mload(0x40)\n      dup1\n      swap2\n      sub\n      swap1\n      return\n        /* \"sol/send_token.sol\":753:803  mapping(address => Student) public getInfoByWallet */\n    tag_12:\n      tag_59\n      0x04\n      dup1\n      calldatasize\n      sub\n      dup2\n      add\n      swap1\n      tag_60\n      swap2\n      swap1\n      tag_56\n      jump\t// in\n    tag_60:\n      tag_61\n      jump\t// in\n    tag_59:\n      mload(0x40)\n      tag_62\n      swap7\n      swap6\n      swap5\n      swap4\n      swap3\n      swap2\n      swap1\n      tag_63\n      jump\t// in\n    tag_62:\n      mload(0x40)\n      dup1\n      swap2\n      sub\n      swap1\n      return\n        /* \"https://github.com/OpenZeppelin/openzeppelin-contracts/blob/master/contracts/token/ERC20/ERC20.sol\":2365:2467  function symbol() public view virtual override returns (string memory) {... */\n    tag_13:\n      tag_64\n      tag_65\n      jump\t// in\n    tag_64:\n      mload(0x40)\n      tag_66\n      swap2\n      swap1\n      tag_23\n      jump\t// in\n    tag_66:\n      mload(0x40)\n      dup1\n      swap2\n      sub\n      swap1\n      return\n        /* \"https://github.com/OpenZeppelin/openzeppelin-contracts/blob/master/contracts/token/ERC20/ERC20.sol\":6592:7019  function decreaseAllowance(address spender, uint256 subtractedValue) public virtual returns (bool) {... */\n    tag_14:\n      tag_67\n      0x04\n      dup1\n      calldatasize\n      sub\n      dup2\n      add\n      swap1\n      tag_68\n      swap2\n      swap1\n      tag_26\n      jump\t// in\n    tag_68:\n      tag_69\n      jump\t// in\n    tag_67:\n      mload(0x40)\n      tag_70\n      swap2\n      swap1\n      tag_29\n      jump\t// in\n    tag_70:\n      mload(0x40)\n      dup1\n      swap2\n      sub\n      swap1\n      return\n        /* \"sol/send_token.sol\":812:1059  function transfer(address to, uint256 amount) public virtual override returns (bool) {\r... */\n    tag_15:\n      tag_71\n      0x04\n      dup1\n      calldatasize\n      sub\n      dup2\n      add\n      swap1\n      tag_72\n      swap2\n      swap1\n      tag_26\n      jump\t// in\n    tag_72:\n      tag_73\n      jump\t// in\n    tag_71:\n      mload(0x40)\n      tag_74\n      swap2\n      swap1\n      tag_29\n      jump\t// in\n    tag_74:\n      mload(0x40)\n      dup1\n      swap2\n      sub\n      swap1\n      return\n        /* \"https://github.com/OpenZeppelin/openzeppelin-contracts/blob/master/contracts/token/ERC20/ERC20.sol\":3974:4123  function allowance(address owner, address spender) public view virtual override returns (uint256) {... */\n    tag_16:\n      tag_75\n      0x04\n      dup1\n      calldatasize\n      sub\n      dup2\n      add\n      swap1\n      tag_76\n      swap2\n      swap1\n      tag_77\n      jump\t// in\n    tag_76:\n      tag_78\n      jump\t// in\n    tag_75:\n      mload(0x40)\n      tag_79\n      swap2\n      swap1\n      tag_37\n      jump\t// in\n    tag_79:\n      mload(0x40)\n      dup1\n      swap2\n      sub\n      swap1\n      return\n        /* \"https://github.com/OpenZeppelin/openzeppelin-contracts/blob/master/contracts/token/ERC20/ERC20.sol\":2154:2252  function name() public view virtual override returns (string memory) {... */\n    tag_21:\n        /* \"https://github.com/OpenZeppelin/openzeppelin-contracts/blob/master/contracts/token/ERC20/ERC20.sol\":2208:2221  string memory */\n      0x60\n        /* \"https://github.com/OpenZeppelin/openzeppelin-contracts/blob/master/contracts/token/ERC20/ERC20.sol\":2240:2245  _name */\n      0x03\n        /* \"https://github.com/OpenZeppelin/openzeppelin-contracts/blob/master/contracts/token/ERC20/ERC20.sol\":2233:2245  return _name */\n      dup1\n      sload\n      tag_81\n      swap1\n      tag_82\n      jump\t// in\n    tag_81:\n      dup1\n      0x1f\n      add\n      0x20\n      dup1\n      swap2\n      div\n      mul\n      0x20\n      add\n      mload(0x40)\n      swap1\n      dup2\n      add\n      0x40\n      mstore\n      dup1\n      swap3\n      swap2\n      swap1\n      dup2\n      dup2\n      mstore\n      0x20\n      add\n      dup3\n      dup1\n      sload\n      tag_83\n      swap1\n      tag_82\n      jump\t// in\n    tag_83:\n      dup1\n      iszero\n      tag_84\n      jumpi\n      dup1\n      0x1f\n      lt\n      tag_85\n      jumpi\n      0x0100\n      dup1\n      dup4\n      sload\n      div\n      mul\n      dup4\n      mstore\n      swap2\n      0x20\n      add\n      swap2\n      jump(tag_84)\n    tag_85:\n      dup3\n      add\n      swap2\n      swap1\n      0x00\n      mstore\n      keccak256(0x00, 0x20)\n      swap1\n    tag_86:\n      dup2\n      sload\n      dup2\n      mstore\n      swap1\n      0x01\n      add\n      swap1\n      0x20\n      add\n      dup1\n      dup4\n      gt\n      tag_86\n      jumpi\n      dup3\n      swap1\n      sub\n      0x1f\n      and\n      dup3\n      add\n      swap2\n    tag_84:\n      pop\n      pop\n      pop\n      pop\n      pop\n      swap1\n      pop\n        /* \"https://github.com/OpenZeppelin/openzeppelin-contracts/blob/master/contracts/token/ERC20/ERC20.sol\":2154:2252  function name() public view virtual override returns (string memory) {... */\n      swap1\n      jump\t// out\n        /* \"https://github.com/OpenZeppelin/openzeppelin-contracts/blob/master/contracts/token/ERC20/ERC20.sol\":4431:4628  function approve(address spender, uint256 amount) public virtual override returns (bool) {... */\n    tag_27:\n        /* \"https://github.com/OpenZeppelin/openzeppelin-contracts/blob/master/contracts/token/ERC20/ERC20.sol\":4514:4518  bool */\n      0x00\n        /* \"https://github.com/OpenZeppelin/openzeppelin-contracts/blob/master/contracts/token/ERC20/ERC20.sol\":4530:4543  address owner */\n      dup1\n        /* \"https://github.com/OpenZeppelin/openzeppelin-contracts/blob/master/contracts/token/ERC20/ERC20.sol\":4546:4558  _msgSender() */\n      tag_88\n        /* \"https://github.com/OpenZeppelin/openzeppelin-contracts/blob/master/contracts/token/ERC20/ERC20.sol\":4546:4556  _msgSender */\n      tag_89\n        /* \"https://github.com/OpenZeppelin/openzeppelin-contracts/blob/master/contracts/token/ERC20/ERC20.sol\":4546:4558  _msgSender() */\n      jump\t// in\n    tag_88:\n        /* \"https://github.com/OpenZeppelin/openzeppelin-contracts/blob/master/contracts/token/ERC20/ERC20.sol\":4530:4558  address owner = _msgSender() */\n      swap1\n      pop\n        /* \"https://github.com/OpenZeppelin/openzeppelin-contracts/blob/master/contracts/token/ERC20/ERC20.sol\":4568:4600  _approve(owner, spender, amount) */\n      tag_90\n        /* \"https://github.com/OpenZeppelin/openzeppelin-contracts/blob/master/contracts/token/ERC20/ERC20.sol\":4577:4582  owner */\n      dup2\n        /* \"https://github.com/OpenZeppelin/openzeppelin-contracts/blob/master/contracts/token/ERC20/ERC20.sol\":4584:4591  spender */\n      dup6\n        /* \"https://github.com/OpenZeppelin/openzeppelin-contracts/blob/master/contracts/token/ERC20/ERC20.sol\":4593:4599  amount */\n      dup6\n        /* \"https://github.com/OpenZeppelin/openzeppelin-contracts/blob/master/contracts/token/ERC20/ERC20.sol\":4568:4576  _approve */\n      tag_91\n        /* \"https://github.com/OpenZeppelin/openzeppelin-contracts/blob/master/contracts/token/ERC20/ERC20.sol\":4568:4600  _approve(owner, spender, amount) */\n      jump\t// in\n    tag_90:\n        /* \"https://github.com/OpenZeppelin/openzeppelin-contracts/blob/master/contracts/token/ERC20/ERC20.sol\":4617:4621  true */\n      0x01\n        /* \"https://github.com/OpenZeppelin/openzeppelin-contracts/blob/master/contracts/token/ERC20/ERC20.sol\":4610:4621  return true */\n      swap2\n      pop\n      pop\n        /* \"https://github.com/OpenZeppelin/openzeppelin-contracts/blob/master/contracts/token/ERC20/ERC20.sol\":4431:4628  function approve(address spender, uint256 amount) public virtual override returns (bool) {... */\n      swap3\n      swap2\n      pop\n      pop\n      jump\t// out\n        /* \"sol/send_token.sol\":1067:1537  function setInfo(address account, string memory _name, uint256 _StudentID, string memory _major, uint256 _gpa, string memory _company) public {\r... */\n    tag_33:\n        /* \"sol/send_token.sol\":1252:1257  _name */\n      dup5\n        /* \"sol/send_token.sol\":1220:1235  getInfoByWallet */\n      0x07\n        /* \"sol/send_token.sol\":1220:1244  getInfoByWallet[account] */\n      0x00\n        /* \"sol/send_token.sol\":1236:1243  account */\n      dup9\n        /* \"sol/send_token.sol\":1220:1244  getInfoByWallet[account] */\n      0xffffffffffffffffffffffffffffffffffffffff\n      and\n      0xffffffffffffffffffffffffffffffffffffffff\n      and\n      dup2\n      mstore\n      0x20\n      add\n      swap1\n      dup2\n      mstore\n      0x20\n      add\n      0x00\n      keccak256\n        /* \"sol/send_token.sol\":1220:1249  getInfoByWallet[account].name */\n      0x00\n      add\n        /* \"sol/send_token.sol\":1220:1257  getInfoByWallet[account].name = _name */\n      swap1\n      dup1\n      mload\n      swap1\n      0x20\n      add\n      swap1\n      tag_93\n      swap3\n      swap2\n      swap1\n      tag_94\n      jump\t// in\n    tag_93:\n      pop\n        /* \"sol/send_token.sol\":1305:1315  _StudentID */\n      dup4\n        /* \"sol/send_token.sol\":1268:1283  getInfoByWallet */\n      0x07\n        /* \"sol/send_token.sol\":1268:1292  getInfoByWallet[account] */\n      0x00\n        /* \"sol/send_token.sol\":1284:1291  account */\n      dup9\n        /* \"sol/send_token.sol\":1268:1292  getInfoByWallet[account] */\n      0xffffffffffffffffffffffffffffffffffffffff\n      and\n      0xffffffffffffffffffffffffffffffffffffffff\n      and\n      dup2\n      mstore\n      0x20\n      add\n      swap1\n      dup2\n      mstore\n      0x20\n      add\n      0x00\n      keccak256\n        /* \"sol/send_token.sol\":1268:1302  getInfoByWallet[account].StudentID */\n      0x01\n      add\n        /* \"sol/send_token.sol\":1268:1315  getInfoByWallet[account].StudentID = _StudentID */\n      dup2\n      swap1\n      sstore\n      pop\n        /* \"sol/send_token.sol\":1359:1365  _major */\n      dup3\n        /* \"sol/send_token.sol\":1326:1341  getInfoByWallet */\n      0x07\n        /* \"sol/send_token.sol\":1326:1350  getInfoByWallet[account] */\n      0x00\n        /* \"sol/send_token.sol\":1342:1349  account */\n      dup9\n        /* \"sol/send_token.sol\":1326:1350  getInfoByWallet[account] */\n      0xffffffffffffffffffffffffffffffffffffffff\n      and\n      0xffffffffffffffffffffffffffffffffffffffff\n      and\n      dup2\n      mstore\n      0x20\n      add\n      swap1\n      dup2\n      mstore\n      0x20\n      add\n      0x00\n      keccak256\n        /* \"sol/send_token.sol\":1326:1356  getInfoByWallet[account].major */\n      0x02\n      add\n        /* \"sol/send_token.sol\":1326:1365  getInfoByWallet[account].major = _major */\n      swap1\n      dup1\n      mload\n      swap1\n      0x20\n      add\n      swap1\n      tag_95\n      swap3\n      swap2\n      swap1\n      tag_94\n      jump\t// in\n    tag_95:\n      pop\n        /* \"sol/send_token.sol\":1407:1411  _gpa */\n      dup2\n        /* \"sol/send_token.sol\":1376:1391  getInfoByWallet */\n      0x07\n        /* \"sol/send_token.sol\":1376:1400  getInfoByWallet[account] */\n      0x00\n        /* \"sol/send_token.sol\":1392:1399  account */\n      dup9\n        /* \"sol/send_token.sol\":1376:1400  getInfoByWallet[account] */\n      0xffffffffffffffffffffffffffffffffffffffff\n      and\n      0xffffffffffffffffffffffffffffffffffffffff\n      and\n      dup2\n      mstore\n      0x20\n      add\n      swap1\n      dup2\n      mstore\n      0x20\n      add\n      0x00\n      keccak256\n        /* \"sol/send_token.sol\":1376:1404  getInfoByWallet[account].gpa */\n      0x03\n      add\n        /* \"sol/send_token.sol\":1376:1411  getInfoByWallet[account].gpa = _gpa */\n      dup2\n      swap1\n      sstore\n      pop\n        /* \"sol/send_token.sol\":1457:1465  _company */\n      dup1\n        /* \"sol/send_token.sol\":1422:1437  getInfoByWallet */\n      0x07\n        /* \"sol/send_token.sol\":1422:1446  getInfoByWallet[account] */\n      0x00\n        /* \"sol/send_token.sol\":1438:1445  account */\n      dup9\n        /* \"sol/send_token.sol\":1422:1446  getInfoByWallet[account] */\n      0xffffffffffffffffffffffffffffffffffffffff\n      and\n      0xffffffffffffffffffffffffffffffffffffffff\n      and\n      dup2\n      mstore\n      0x20\n      add\n      swap1\n      dup2\n      mstore\n      0x20\n      add\n      0x00\n      keccak256\n        /* \"sol/send_token.sol\":1422:1454  getInfoByWallet[account].company */\n      0x04\n      add\n        /* \"sol/send_token.sol\":1422:1465  getInfoByWallet[account].company = _company */\n      swap1\n      dup1\n      mload\n      swap1\n      0x20\n      add\n      swap1\n      tag_96\n      swap3\n      swap2\n      swap1\n      tag_94\n      jump\t// in\n    tag_96:\n      pop\n        /* \"sol/send_token.sol\":1511:1529  balanceOf(account) */\n      tag_97\n        /* \"sol/send_token.sol\":1521:1528  account */\n      dup7\n        /* \"sol/send_token.sol\":1511:1520  balanceOf */\n      tag_57\n        /* \"sol/send_token.sol\":1511:1529  balanceOf(account) */\n      jump\t// in\n    tag_97:\n        /* \"sol/send_token.sol\":1476:1491  getInfoByWallet */\n      0x07\n        /* \"sol/send_token.sol\":1476:1500  getInfoByWallet[account] */\n      0x00\n        /* \"sol/send_token.sol\":1492:1499  account */\n      dup9\n        /* \"sol/send_token.sol\":1476:1500  getInfoByWallet[account] */\n      0xffffffffffffffffffffffffffffffffffffffff\n      and\n      0xffffffffffffffffffffffffffffffffffffffff\n      and\n      dup2\n      mstore\n      0x20\n      add\n      swap1\n      dup2\n      mstore\n      0x20\n      add\n      0x00\n      keccak256\n        /* \"sol/send_token.sol\":1476:1508  getInfoByWallet[account].balance */\n      0x05\n      add\n        /* \"sol/send_token.sol\":1476:1529  getInfoByWallet[account].balance = balanceOf(account) */\n      dup2\n      swap1\n      sstore\n      pop\n        /* \"sol/send_token.sol\":1067:1537  function setInfo(address account, string memory _name, uint256 _StudentID, string memory _major, uint256 _gpa, string memory _company) public {\r... */\n      pop\n      pop\n      pop\n      pop\n      pop\n      pop\n      jump\t// out\n        /* \"https://github.com/OpenZeppelin/openzeppelin-contracts/blob/master/contracts/token/ERC20/ERC20.sol\":3242:3348  function totalSupply() public view virtual override returns (uint256) {... */\n    tag_35:\n        /* \"https://github.com/OpenZeppelin/openzeppelin-contracts/blob/master/contracts/token/ERC20/ERC20.sol\":3303:3310  uint256 */\n      0x00\n        /* \"https://github.com/OpenZeppelin/openzeppelin-contracts/blob/master/contracts/token/ERC20/ERC20.sol\":3329:3341  _totalSupply */\n      sload(0x02)\n        /* \"https://github.com/OpenZeppelin/openzeppelin-contracts/blob/master/contracts/token/ERC20/ERC20.sol\":3322:3341  return _totalSupply */\n      swap1\n      pop\n        /* \"https://github.com/OpenZeppelin/openzeppelin-contracts/blob/master/contracts/token/ERC20/ERC20.sol\":3242:3348  function totalSupply() public view virtual override returns (uint256) {... */\n      swap1\n      jump\t// out\n        /* \"https://github.com/OpenZeppelin/openzeppelin-contracts/blob/master/contracts/token/ERC20/ERC20.sol\":5190:5476  function transferFrom(... */\n    tag_41:\n        /* \"https://github.com/OpenZeppelin/openzeppelin-contracts/blob/master/contracts/token/ERC20/ERC20.sol\":5317:5321  bool */\n      0x00\n        /* \"https://github.com/OpenZeppelin/openzeppelin-contracts/blob/master/contracts/token/ERC20/ERC20.sol\":5333:5348  address spender */\n      dup1\n        /* \"https://github.com/OpenZeppelin/openzeppelin-contracts/blob/master/contracts/token/ERC20/ERC20.sol\":5351:5363  _msgSender() */\n      tag_100\n        /* \"https://github.com/OpenZeppelin/openzeppelin-contracts/blob/master/contracts/token/ERC20/ERC20.sol\":5351:5361  _msgSender */\n      tag_89\n        /* \"https://github.com/OpenZeppelin/openzeppelin-contracts/blob/master/contracts/token/ERC20/ERC20.sol\":5351:5363  _msgSender() */\n      jump\t// in\n    tag_100:\n        /* \"https://github.com/OpenZeppelin/openzeppelin-contracts/blob/master/contracts/token/ERC20/ERC20.sol\":5333:5363  address spender = _msgSender() */\n      swap1\n      pop\n        /* \"https://github.com/OpenZeppelin/openzeppelin-contracts/blob/master/contracts/token/ERC20/ERC20.sol\":5373:5411  _spendAllowance(from, spender, amount) */\n      tag_101\n        /* \"https://github.com/OpenZeppelin/openzeppelin-contracts/blob/master/contracts/token/ERC20/ERC20.sol\":5389:5393  from */\n      dup6\n        /* \"https://github.com/OpenZeppelin/openzeppelin-contracts/blob/master/contracts/token/ERC20/ERC20.sol\":5395:5402  spender */\n      dup3\n        /* \"https://github.com/OpenZeppelin/openzeppelin-contracts/blob/master/contracts/token/ERC20/ERC20.sol\":5404:5410  amount */\n      dup6\n        /* \"https://github.com/OpenZeppelin/openzeppelin-contracts/blob/master/contracts/token/ERC20/ERC20.sol\":5373:5388  _spendAllowance */\n      tag_102\n        /* \"https://github.com/OpenZeppelin/openzeppelin-contracts/blob/master/contracts/token/ERC20/ERC20.sol\":5373:5411  _spendAllowance(from, spender, amount) */\n      jump\t// in\n    tag_101:\n        /* \"https://github.com/OpenZeppelin/openzeppelin-contracts/blob/master/contracts/token/ERC20/ERC20.sol\":5421:5448  _transfer(from, to, amount) */\n      tag_103\n        /* \"https://github.com/OpenZeppelin/openzeppelin-contracts/blob/master/contracts/token/ERC20/ERC20.sol\":5431:5435  from */\n      dup6\n        /* \"https://github.com/OpenZeppelin/openzeppelin-contracts/blob/master/contracts/token/ERC20/ERC20.sol\":5437:5439  to */\n      dup6\n        /* \"https://github.com/OpenZeppelin/openzeppelin-contracts/blob/master/contracts/token/ERC20/ERC20.sol\":5441:5447  amount */\n      dup6\n        /* \"https://github.com/OpenZeppelin/openzeppelin-contracts/blob/master/contracts/token/ERC20/ERC20.sol\":5421:5430  _transfer */\n      tag_104\n        /* \"https://github.com/OpenZeppelin/openzeppelin-contracts/blob/master/contracts/token/ERC20/ERC20.sol\":5421:5448  _transfer(from, to, amount) */\n      jump\t// in\n    tag_103:\n        /* \"https://github.com/OpenZeppelin/openzeppelin-contracts/blob/master/contracts/token/ERC20/ERC20.sol\":5465:5469  true */\n      0x01\n        /* \"https://github.com/OpenZeppelin/openzeppelin-contracts/blob/master/contracts/token/ERC20/ERC20.sol\":5458:5469  return true */\n      swap2\n      pop\n      pop\n        /* \"https://github.com/OpenZeppelin/openzeppelin-contracts/blob/master/contracts/token/ERC20/ERC20.sol\":5190:5476  function transferFrom(... */\n      swap4\n      swap3\n      pop\n      pop\n      pop\n      jump\t// out\n        /* \"sol/send_token.sol\":220:272  uint public INITIAL_SUPPLY = 1500000000000000*10**18 */\n    tag_44:\n      sload(0x05)\n      dup2\n      jump\t// out\n        /* \"https://github.com/OpenZeppelin/openzeppelin-contracts/blob/master/contracts/token/ERC20/ERC20.sol\":3091:3182  function decimals() public view virtual override returns (uint8) {... */\n    tag_47:\n        /* \"https://github.com/OpenZeppelin/openzeppelin-contracts/blob/master/contracts/token/ERC20/ERC20.sol\":3149:3154  uint8 */\n      0x00\n        /* \"https://github.com/OpenZeppelin/openzeppelin-contracts/blob/master/contracts/token/ERC20/ERC20.sol\":3173:3175  18 */\n      0x12\n        /* \"https://github.com/OpenZeppelin/openzeppelin-contracts/blob/master/contracts/token/ERC20/ERC20.sol\":3166:3175  return 18 */\n      swap1\n      pop\n        /* \"https://github.com/OpenZeppelin/openzeppelin-contracts/blob/master/contracts/token/ERC20/ERC20.sol\":3091:3182  function decimals() public view virtual override returns (uint8) {... */\n      swap1\n      jump\t// out\n        /* \"https://github.com/OpenZeppelin/openzeppelin-contracts/blob/master/contracts/token/ERC20/ERC20.sol\":5871:6105  function increaseAllowance(address spender, uint256 addedValue) public virtual returns (bool) {... */\n    tag_52:\n        /* \"https://github.com/OpenZeppelin/openzeppelin-contracts/blob/master/contracts/token/ERC20/ERC20.sol\":5959:5963  bool */\n      0x00\n        /* \"https://github.com/OpenZeppelin/openzeppelin-contracts/blob/master/contracts/token/ERC20/ERC20.sol\":5975:5988  address owner */\n      dup1\n        /* \"https://github.com/OpenZeppelin/openzeppelin-contracts/blob/master/contracts/token/ERC20/ERC20.sol\":5991:6003  _msgSender() */\n      tag_107\n        /* \"https://github.com/OpenZeppelin/openzeppelin-contracts/blob/master/contracts/token/ERC20/ERC20.sol\":5991:6001  _msgSender */\n      tag_89\n        /* \"https://github.com/OpenZeppelin/openzeppelin-contracts/blob/master/contracts/token/ERC20/ERC20.sol\":5991:6003  _msgSender() */\n      jump\t// in\n    tag_107:\n        /* \"https://github.com/OpenZeppelin/openzeppelin-contracts/blob/master/contracts/token/ERC20/ERC20.sol\":5975:6003  address owner = _msgSender() */\n      swap1\n      pop\n        /* \"https://github.com/OpenZeppelin/openzeppelin-contracts/blob/master/contracts/token/ERC20/ERC20.sol\":6013:6077  _approve(owner, spender, allowance(owner, spender) + addedValue) */\n      tag_108\n        /* \"https://github.com/OpenZeppelin/openzeppelin-contracts/blob/master/contracts/token/ERC20/ERC20.sol\":6022:6027  owner */\n      dup2\n        /* \"https://github.com/OpenZeppelin/openzeppelin-contracts/blob/master/contracts/token/ERC20/ERC20.sol\":6029:6036  spender */\n      dup6\n        /* \"https://github.com/OpenZeppelin/openzeppelin-contracts/blob/master/contracts/token/ERC20/ERC20.sol\":6066:6076  addedValue */\n      dup6\n        /* \"https://github.com/OpenZeppelin/openzeppelin-contracts/blob/master/contracts/token/ERC20/ERC20.sol\":6038:6063  allowance(owner, spender) */\n      tag_109\n        /* \"https://github.com/OpenZeppelin/openzeppelin-contracts/blob/master/contracts/token/ERC20/ERC20.sol\":6048:6053  owner */\n      dup6\n        /* \"https://github.com/OpenZeppelin/openzeppelin-contracts/blob/master/contracts/token/ERC20/ERC20.sol\":6055:6062  spender */\n      dup10\n        /* \"https://github.com/OpenZeppelin/openzeppelin-contracts/blob/master/contracts/token/ERC20/ERC20.sol\":6038:6047  allowance */\n      tag_78\n        /* \"https://github.com/OpenZeppelin/openzeppelin-contracts/blob/master/contracts/token/ERC20/ERC20.sol\":6038:6063  allowance(owner, spender) */\n      jump\t// in\n    tag_109:\n        /* \"https://github.com/OpenZeppelin/openzeppelin-contracts/blob/master/contracts/token/ERC20/ERC20.sol\":6038:6076  allowance(owner, spender) + addedValue */\n      tag_110\n      swap2\n      swap1\n      tag_111\n      jump\t// in\n    tag_110:\n        /* \"https://github.com/OpenZeppelin/openzeppelin-contracts/blob/master/contracts/token/ERC20/ERC20.sol\":6013:6021  _approve */\n      tag_91\n        /* \"https://github.com/OpenZeppelin/openzeppelin-contracts/blob/master/contracts/token/ERC20/ERC20.sol\":6013:6077  _approve(owner, spender, allowance(owner, spender) + addedValue) */\n      jump\t// in\n    tag_108:\n        /* \"https://github.com/OpenZeppelin/openzeppelin-contracts/blob/master/contracts/token/ERC20/ERC20.sol\":6094:6098  true */\n      0x01\n        /* \"https://github.com/OpenZeppelin/openzeppelin-contracts/blob/master/contracts/token/ERC20/ERC20.sol\":6087:6098  return true */\n      swap2\n      pop\n      pop\n        /* \"https://github.com/OpenZeppelin/openzeppelin-contracts/blob/master/contracts/token/ERC20/ERC20.sol\":5871:6105  function increaseAllowance(address spender, uint256 addedValue) public virtual returns (bool) {... */\n      swap3\n      swap2\n      pop\n      pop\n      jump\t// out\n        /* \"https://github.com/OpenZeppelin/openzeppelin-contracts/blob/master/contracts/token/ERC20/ERC20.sol\":3406:3531  function balanceOf(address account) public view virtual override returns (uint256) {... */\n    tag_57:\n        /* \"https://github.com/OpenZeppelin/openzeppelin-contracts/blob/master/contracts/token/ERC20/ERC20.sol\":3480:3487  uint256 */\n      0x00\n        /* \"https://github.com/OpenZeppelin/openzeppelin-contracts/blob/master/contracts/token/ERC20/ERC20.sol\":3506:3515  _balances */\n      dup1\n        /* \"https://github.com/OpenZeppelin/openzeppelin-contracts/blob/master/contracts/token/ERC20/ERC20.sol\":3506:3524  _balances[account] */\n      0x00\n        /* \"https://github.com/OpenZeppelin/openzeppelin-contracts/blob/master/contracts/token/ERC20/ERC20.sol\":3516:3523  account */\n      dup4\n        /* \"https://github.com/OpenZeppelin/openzeppelin-contracts/blob/master/contracts/token/ERC20/ERC20.sol\":3506:3524  _balances[account] */\n      0xffffffffffffffffffffffffffffffffffffffff\n      and\n      0xffffffffffffffffffffffffffffffffffffffff\n      and\n      dup2\n      mstore\n      0x20\n      add\n      swap1\n      dup2\n      mstore\n      0x20\n      add\n      0x00\n      keccak256\n      sload\n        /* \"https://github.com/OpenZeppelin/openzeppelin-contracts/blob/master/contracts/token/ERC20/ERC20.sol\":3499:3524  return _balances[account] */\n      swap1\n      pop\n        /* \"https://github.com/OpenZeppelin/openzeppelin-contracts/blob/master/contracts/token/ERC20/ERC20.sol\":3406:3531  function balanceOf(address account) public view virtual override returns (uint256) {... */\n      swap2\n      swap1\n      pop\n      jump\t// out\n        /* \"sol/send_token.sol\":753:803  mapping(address => Student) public getInfoByWallet */\n    tag_61:\n      mstore(0x20, 0x07)\n      dup1\n      0x00\n      mstore\n      keccak256(0x00, 0x40)\n      0x00\n      swap2\n      pop\n      swap1\n      pop\n      dup1\n      0x00\n      add\n      dup1\n      sload\n      tag_113\n      swap1\n      tag_82\n      jump\t// in\n    tag_113:\n      dup1\n      0x1f\n      add\n      0x20\n      dup1\n      swap2\n      div\n      mul\n      0x20\n      add\n      mload(0x40)\n      swap1\n      dup2\n      add\n      0x40\n      mstore\n      dup1\n      swap3\n      swap2\n      swap1\n      dup2\n      dup2\n      mstore\n      0x20\n      add\n      dup3\n      dup1\n      sload\n      tag_114\n      swap1\n      tag_82\n      jump\t// in\n    tag_114:\n      dup1\n      iszero\n      tag_115\n      jumpi\n      dup1\n      0x1f\n      lt\n      tag_116\n      jumpi\n      0x0100\n      dup1\n      dup4\n      sload\n      div\n      mul\n      dup4\n      mstore\n      swap2\n      0x20\n      add\n      swap2\n      jump(tag_115)\n    tag_116:\n      dup3\n      add\n      swap2\n      swap1\n      0x00\n      mstore\n      keccak256(0x00, 0x20)\n      swap1\n    tag_117:\n      dup2\n      sload\n      dup2\n      mstore\n      swap1\n      0x01\n      add\n      swap1\n      0x20\n      add\n      dup1\n      dup4\n      gt\n      tag_117\n      jumpi\n      dup3\n      swap1\n      sub\n      0x1f\n      and\n      dup3\n      add\n      swap2\n    tag_115:\n      pop\n      pop\n      pop\n      pop\n      pop\n      swap1\n      dup1\n      0x01\n      add\n      sload\n      swap1\n      dup1\n      0x02\n      add\n      dup1\n      sload\n      tag_118\n      swap1\n      tag_82\n      jump\t// in\n    tag_118:\n      dup1\n      0x1f\n      add\n      0x20\n      dup1\n      swap2\n      div\n      mul\n      0x20\n      add\n      mload(0x40)\n      swap1\n      dup2\n      add\n      0x40\n      mstore\n      dup1\n      swap3\n      swap2\n      swap1\n      dup2\n      dup2\n      mstore\n      0x20\n      add\n      dup3\n      dup1\n      sload\n      tag_119\n      swap1\n      tag_82\n      jump\t// in\n    tag_119:\n      dup1\n      iszero\n      tag_120\n      jumpi\n      dup1\n      0x1f\n      lt\n      tag_121\n      jumpi\n      0x0100\n      dup1\n      dup4\n      sload\n      div\n      mul\n      dup4\n      mstore\n      swap2\n      0x20\n      add\n      swap2\n      jump(tag_120)\n    tag_121:\n      dup3\n      add\n      swap2\n      swap1\n      0x00\n      mstore\n      keccak256(0x00, 0x20)\n      swap1\n    tag_122:\n      dup2\n      sload\n      dup2\n      mstore\n      swap1\n      0x01\n      add\n      swap1\n      0x20\n      add\n      dup1\n      dup4\n      gt\n      tag_122\n      jumpi\n      dup3\n      swap1\n      sub\n      0x1f\n      and\n      dup3\n      add\n      swap2\n    tag_120:\n      pop\n      pop\n      pop\n      pop\n      pop\n      swap1\n      dup1\n      0x03\n      add\n      sload\n      swap1\n      dup1\n      0x04\n      add\n      dup1\n      sload\n      tag_123\n      swap1\n      tag_82\n      jump\t// in\n    tag_123:\n      dup1\n      0x1f\n      add\n      0x20\n      dup1\n      swap2\n      div\n      mul\n      0x20\n      add\n      mload(0x40)\n      swap1\n      dup2\n      add\n      0x40\n      mstore\n      dup1\n      swap3\n      swap2\n      swap1\n      dup2\n      dup2\n      mstore\n      0x20\n      add\n      dup3\n      dup1\n      sload\n      tag_124\n      swap1\n      tag_82\n      jump\t// in\n    tag_124:\n      dup1\n      iszero\n      tag_125\n      jumpi\n      dup1\n      0x1f\n      lt\n      tag_126\n      jumpi\n      0x0100\n      dup1\n      dup4\n      sload\n      div\n      mul\n      dup4\n      mstore\n      swap2\n      0x20\n      add\n      swap2\n      jump(tag_125)\n    tag_126:\n      dup3\n      add\n      swap2\n      swap1\n      0x00\n      mstore\n      keccak256(0x00, 0x20)\n      swap1\n    tag_127:\n      dup2\n      sload\n      dup2\n      mstore\n      swap1\n      0x01\n      add\n      swap1\n      0x20\n      add\n      dup1\n      dup4\n      gt\n      tag_127\n      jumpi\n      dup3\n      swap1\n      sub\n      0x1f\n      and\n      dup3\n      add\n      swap2\n    tag_125:\n      pop\n      pop\n      pop\n      pop\n      pop\n      swap1\n      dup1\n      0x05\n      add\n      sload\n      swap1\n      pop\n      dup7\n      jump\t// out\n        /* \"https://github.com/OpenZeppelin/openzeppelin-contracts/blob/master/contracts/token/ERC20/ERC20.sol\":2365:2467  function symbol() public view virtual override returns (string memory) {... */\n    tag_65:\n        /* \"https://github.com/OpenZeppelin/openzeppelin-contracts/blob/master/contracts/token/ERC20/ERC20.sol\":2421:2434  string memory */\n      0x60\n        /* \"https://github.com/OpenZeppelin/openzeppelin-contracts/blob/master/contracts/token/ERC20/ERC20.sol\":2453:2460  _symbol */\n      0x04\n        /* \"https://github.com/OpenZeppelin/openzeppelin-contracts/blob/master/contracts/token/ERC20/ERC20.sol\":2446:2460  return _symbol */\n      dup1\n      sload\n      tag_129\n      swap1\n      tag_82\n      jump\t// in\n    tag_129:\n      dup1\n      0x1f\n      add\n      0x20\n      dup1\n      swap2\n      div\n      mul\n      0x20\n      add\n      mload(0x40)\n      swap1\n      dup2\n      add\n      0x40\n      mstore\n      dup1\n      swap3\n      swap2\n      swap1\n      dup2\n      dup2\n      mstore\n      0x20\n      add\n      dup3\n      dup1\n      sload\n      tag_130\n      swap1\n      tag_82\n      jump\t// in\n    tag_130:\n      dup1\n      iszero\n      tag_131\n      jumpi\n      dup1\n      0x1f\n      lt\n      tag_132\n      jumpi\n      0x0100\n      dup1\n      dup4\n      sload\n      div\n      mul\n      dup4\n      mstore\n      swap2\n      0x20\n      add\n      swap2\n      jump(tag_131)\n    tag_132:\n      dup3\n      add\n      swap2\n      swap1\n      0x00\n      mstore\n      keccak256(0x00, 0x20)\n      swap1\n    tag_133:\n      dup2\n      sload\n      dup2\n      mstore\n      swap1\n      0x01\n      add\n      swap1\n      0x20\n      add\n      dup1\n      dup4\n      gt\n      tag_133\n      jumpi\n      dup3\n      swap1\n      sub\n      0x1f\n      and\n      dup3\n      add\n      swap2\n    tag_131:\n      pop\n      pop\n      pop\n      pop\n      pop\n      swap1\n      pop\n        /* \"https://github.com/OpenZeppelin/openzeppelin-contracts/blob/master/contracts/token/ERC20/ERC20.sol\":2365:2467  function symbol() public view virtual override returns (string memory) {... */\n      swap1\n      jump\t// out\n        /* \"https://github.com/OpenZeppelin/openzeppelin-contracts/blob/master/contracts/token/ERC20/ERC20.sol\":6592:7019  function decreaseAllowance(address spender, uint256 subtractedValue) public virtual returns (bool) {... */\n    tag_69:\n        /* \"https://github.com/OpenZeppelin/openzeppelin-contracts/blob/master/contracts/token/ERC20/ERC20.sol\":6685:6689  bool */\n      0x00\n        /* \"https://github.com/OpenZeppelin/openzeppelin-contracts/blob/master/contracts/token/ERC20/ERC20.sol\":6701:6714  address owner */\n      dup1\n        /* \"https://github.com/OpenZeppelin/openzeppelin-contracts/blob/master/contracts/token/ERC20/ERC20.sol\":6717:6729  _msgSender() */\n      tag_135\n        /* \"https://github.com/OpenZeppelin/openzeppelin-contracts/blob/master/contracts/token/ERC20/ERC20.sol\":6717:6727  _msgSender */\n      tag_89\n        /* \"https://github.com/OpenZeppelin/openzeppelin-contracts/blob/master/contracts/token/ERC20/ERC20.sol\":6717:6729  _msgSender() */\n      jump\t// in\n    tag_135:\n        /* \"https://github.com/OpenZeppelin/openzeppelin-contracts/blob/master/contracts/token/ERC20/ERC20.sol\":6701:6729  address owner = _msgSender() */\n      swap1\n      pop\n        /* \"https://github.com/OpenZeppelin/openzeppelin-contracts/blob/master/contracts/token/ERC20/ERC20.sol\":6739:6763  uint256 currentAllowance */\n      0x00\n        /* \"https://github.com/OpenZeppelin/openzeppelin-contracts/blob/master/contracts/token/ERC20/ERC20.sol\":6766:6791  allowance(owner, spender) */\n      tag_136\n        /* \"https://github.com/OpenZeppelin/openzeppelin-contracts/blob/master/contracts/token/ERC20/ERC20.sol\":6776:6781  owner */\n      dup3\n        /* \"https://github.com/OpenZeppelin/openzeppelin-contracts/blob/master/contracts/token/ERC20/ERC20.sol\":6783:6790  spender */\n      dup7\n        /* \"https://github.com/OpenZeppelin/openzeppelin-contracts/blob/master/contracts/token/ERC20/ERC20.sol\":6766:6775  allowance */\n      tag_78\n        /* \"https://github.com/OpenZeppelin/openzeppelin-contracts/blob/master/contracts/token/ERC20/ERC20.sol\":6766:6791  allowance(owner, spender) */\n      jump\t// in\n    tag_136:\n        /* \"https://github.com/OpenZeppelin/openzeppelin-contracts/blob/master/contracts/token/ERC20/ERC20.sol\":6739:6791  uint256 currentAllowance = allowance(owner, spender) */\n      swap1\n      pop\n        /* \"https://github.com/OpenZeppelin/openzeppelin-contracts/blob/master/contracts/token/ERC20/ERC20.sol\":6829:6844  subtractedValue */\n      dup4\n        /* \"https://github.com/OpenZeppelin/openzeppelin-contracts/blob/master/contracts/token/ERC20/ERC20.sol\":6809:6825  currentAllowance */\n      dup2\n        /* \"https://github.com/OpenZeppelin/openzeppelin-contracts/blob/master/contracts/token/ERC20/ERC20.sol\":6809:6844  currentAllowance >= subtractedValue */\n      lt\n      iszero\n        /* \"https://github.com/OpenZeppelin/openzeppelin-contracts/blob/master/contracts/token/ERC20/ERC20.sol\":6801:6886  require(currentAllowance >= subtractedValue, \"ERC20: decreased allowance below zero\") */\n      tag_137\n      jumpi\n      mload(0x40)\n      0x08c379a000000000000000000000000000000000000000000000000000000000\n      dup2\n      mstore\n      0x04\n      add\n      tag_138\n      swap1\n      tag_139\n      jump\t// in\n    tag_138:\n      mload(0x40)\n      dup1\n      swap2\n      sub\n      swap1\n      revert\n    tag_137:\n        /* \"https://github.com/OpenZeppelin/openzeppelin-contracts/blob/master/contracts/token/ERC20/ERC20.sol\":6920:6980  _approve(owner, spender, currentAllowance - subtractedValue) */\n      tag_140\n        /* \"https://github.com/OpenZeppelin/openzeppelin-contracts/blob/master/contracts/token/ERC20/ERC20.sol\":6929:6934  owner */\n      dup3\n        /* \"https://github.com/OpenZeppelin/openzeppelin-contracts/blob/master/contracts/token/ERC20/ERC20.sol\":6936:6943  spender */\n      dup7\n        /* \"https://github.com/OpenZeppelin/openzeppelin-contracts/blob/master/contracts/token/ERC20/ERC20.sol\":6964:6979  subtractedValue */\n      dup7\n        /* \"https://github.com/OpenZeppelin/openzeppelin-contracts/blob/master/contracts/token/ERC20/ERC20.sol\":6945:6961  currentAllowance */\n      dup5\n        /* \"https://github.com/OpenZeppelin/openzeppelin-contracts/blob/master/contracts/token/ERC20/ERC20.sol\":6945:6979  currentAllowance - subtractedValue */\n      sub\n        /* \"https://github.com/OpenZeppelin/openzeppelin-contracts/blob/master/contracts/token/ERC20/ERC20.sol\":6920:6928  _approve */\n      tag_91\n        /* \"https://github.com/OpenZeppelin/openzeppelin-contracts/blob/master/contracts/token/ERC20/ERC20.sol\":6920:6980  _approve(owner, spender, currentAllowance - subtractedValue) */\n      jump\t// in\n    tag_140:\n        /* \"https://github.com/OpenZeppelin/openzeppelin-contracts/blob/master/contracts/token/ERC20/ERC20.sol\":7008:7012  true */\n      0x01\n        /* \"https://github.com/OpenZeppelin/openzeppelin-contracts/blob/master/contracts/token/ERC20/ERC20.sol\":7001:7012  return true */\n      swap3\n      pop\n      pop\n      pop\n        /* \"https://github.com/OpenZeppelin/openzeppelin-contracts/blob/master/contracts/token/ERC20/ERC20.sol\":6592:7019  function decreaseAllowance(address spender, uint256 subtractedValue) public virtual returns (bool) {... */\n      swap3\n      swap2\n      pop\n      pop\n      jump\t// out\n        /* \"sol/send_token.sol\":812:1059  function transfer(address to, uint256 amount) public virtual override returns (bool) {\r... */\n    tag_73:\n        /* \"sol/send_token.sol\":891:895  bool */\n      0x00\n        /* \"sol/send_token.sol\":908:921  address owner */\n      dup1\n        /* \"sol/send_token.sol\":924:936  _msgSender() */\n      tag_142\n        /* \"sol/send_token.sol\":924:934  _msgSender */\n      tag_89\n        /* \"sol/send_token.sol\":924:936  _msgSender() */\n      jump\t// in\n    tag_142:\n        /* \"sol/send_token.sol\":908:936  address owner = _msgSender() */\n      swap1\n      pop\n        /* \"sol/send_token.sol\":947:975  _transfer(owner, to, amount) */\n      tag_143\n        /* \"sol/send_token.sol\":957:962  owner */\n      dup2\n        /* \"sol/send_token.sol\":964:966  to */\n      dup6\n        /* \"sol/send_token.sol\":968:974  amount */\n      dup6\n        /* \"sol/send_token.sol\":947:956  _transfer */\n      tag_104\n        /* \"sol/send_token.sol\":947:975  _transfer(owner, to, amount) */\n      jump\t// in\n    tag_143:\n        /* \"sol/send_token.sol\":1016:1029  balanceOf(to) */\n      tag_144\n        /* \"sol/send_token.sol\":1026:1028  to */\n      dup5\n        /* \"sol/send_token.sol\":1016:1025  balanceOf */\n      tag_57\n        /* \"sol/send_token.sol\":1016:1029  balanceOf(to) */\n      jump\t// in\n    tag_144:\n        /* \"sol/send_token.sol\":986:1001  getInfoByWallet */\n      0x07\n        /* \"sol/send_token.sol\":986:1005  getInfoByWallet[to] */\n      0x00\n        /* \"sol/send_token.sol\":1002:1004  to */\n      dup7\n        /* \"sol/send_token.sol\":986:1005  getInfoByWallet[to] */\n      0xffffffffffffffffffffffffffffffffffffffff\n      and\n      0xffffffffffffffffffffffffffffffffffffffff\n      and\n      dup2\n      mstore\n      0x20\n      add\n      swap1\n      dup2\n      mstore\n      0x20\n      add\n      0x00\n      keccak256\n        /* \"sol/send_token.sol\":986:1013  getInfoByWallet[to].balance */\n      0x05\n      add\n        /* \"sol/send_token.sol\":986:1029  getInfoByWallet[to].balance = balanceOf(to) */\n      dup2\n      swap1\n      sstore\n      pop\n        /* \"sol/send_token.sol\":1047:1051  true */\n      0x01\n        /* \"sol/send_token.sol\":1040:1051  return true */\n      swap2\n      pop\n      pop\n        /* \"sol/send_token.sol\":812:1059  function transfer(address to, uint256 amount) public virtual override returns (bool) {\r... */\n      swap3\n      swap2\n      pop\n      pop\n      jump\t// out\n        /* \"https://github.com/OpenZeppelin/openzeppelin-contracts/blob/master/contracts/token/ERC20/ERC20.sol\":3974:4123  function allowance(address owner, address spender) public view virtual override returns (uint256) {... */\n    tag_78:\n        /* \"https://github.com/OpenZeppelin/openzeppelin-contracts/blob/master/contracts/token/ERC20/ERC20.sol\":4063:4070  uint256 */\n      0x00\n        /* \"https://github.com/OpenZeppelin/openzeppelin-contracts/blob/master/contracts/token/ERC20/ERC20.sol\":4089:4100  _allowances */\n      0x01\n        /* \"https://github.com/OpenZeppelin/openzeppelin-contracts/blob/master/contracts/token/ERC20/ERC20.sol\":4089:4107  _allowances[owner] */\n      0x00\n        /* \"https://github.com/OpenZeppelin/openzeppelin-contracts/blob/master/contracts/token/ERC20/ERC20.sol\":4101:4106  owner */\n      dup5\n        /* \"https://github.com/OpenZeppelin/openzeppelin-contracts/blob/master/contracts/token/ERC20/ERC20.sol\":4089:4107  _allowances[owner] */\n      0xffffffffffffffffffffffffffffffffffffffff\n      and\n      0xffffffffffffffffffffffffffffffffffffffff\n      and\n      dup2\n      mstore\n      0x20\n      add\n      swap1\n      dup2\n      mstore\n      0x20\n      add\n      0x00\n      keccak256\n        /* \"https://github.com/OpenZeppelin/openzeppelin-contracts/blob/master/contracts/token/ERC20/ERC20.sol\":4089:4116  _allowances[owner][spender] */\n      0x00\n        /* \"https://github.com/OpenZeppelin/openzeppelin-contracts/blob/master/contracts/token/ERC20/ERC20.sol\":4108:4115  spender */\n      dup4\n        /* \"https://github.com/OpenZeppelin/openzeppelin-contracts/blob/master/contracts/token/ERC20/ERC20.sol\":4089:4116  _allowances[owner][spender] */\n      0xffffffffffffffffffffffffffffffffffffffff\n      and\n      0xffffffffffffffffffffffffffffffffffffffff\n      and\n      dup2\n      mstore\n      0x20\n      add\n      swap1\n      dup2\n      mstore\n      0x20\n      add\n      0x00\n      keccak256\n      sload\n        /* \"https://github.com/OpenZeppelin/openzeppelin-contracts/blob/master/contracts/token/ERC20/ERC20.sol\":4082:4116  return _allowances[owner][spender] */\n      swap1\n      pop\n        /* \"https://github.com/OpenZeppelin/openzeppelin-contracts/blob/master/contracts/token/ERC20/ERC20.sol\":3974:4123  function allowance(address owner, address spender) public view virtual override returns (uint256) {... */\n      swap3\n      swap2\n      pop\n      pop\n      jump\t// out\n        /* \"https://github.com/OpenZeppelin/openzeppelin-contracts/blob/master/contracts/utils/Context.sol\":640:736  function _msgSender() internal view virtual returns (address) {... */\n    tag_89:\n        /* \"https://github.com/OpenZeppelin/openzeppelin-contracts/blob/master/contracts/utils/Context.sol\":693:700  address */\n      0x00\n        /* \"https://github.com/OpenZeppelin/openzeppelin-contracts/blob/master/contracts/utils/Context.sol\":719:729  msg.sender */\n      caller\n        /* \"https://github.com/OpenZeppelin/openzeppelin-contracts/blob/master/contracts/utils/Context.sol\":712:729  return msg.sender */\n      swap1\n      pop\n        /* \"https://github.com/OpenZeppelin/openzeppelin-contracts/blob/master/contracts/utils/Context.sol\":640:736  function _msgSender() internal view virtual returns (address) {... */\n      swap1\n      jump\t// out\n        /* \"https://github.com/OpenZeppelin/openzeppelin-contracts/blob/master/contracts/token/ERC20/ERC20.sol\":10504:10874  function _approve(... */\n    tag_91:\n        /* \"https://github.com/OpenZeppelin/openzeppelin-contracts/blob/master/contracts/token/ERC20/ERC20.sol\":10652:10653  0 */\n      0x00\n        /* \"https://github.com/OpenZeppelin/openzeppelin-contracts/blob/master/contracts/token/ERC20/ERC20.sol\":10635:10654  owner != address(0) */\n      0xffffffffffffffffffffffffffffffffffffffff\n      and\n        /* \"https://github.com/OpenZeppelin/openzeppelin-contracts/blob/master/contracts/token/ERC20/ERC20.sol\":10635:10640  owner */\n      dup4\n        /* \"https://github.com/OpenZeppelin/openzeppelin-contracts/blob/master/contracts/token/ERC20/ERC20.sol\":10635:10654  owner != address(0) */\n      0xffffffffffffffffffffffffffffffffffffffff\n      and\n      eq\n      iszero\n        /* \"https://github.com/OpenZeppelin/openzeppelin-contracts/blob/master/contracts/token/ERC20/ERC20.sol\":10627:10695  require(owner != address(0), \"ERC20: approve from the zero address\") */\n      tag_148\n      jumpi\n      mload(0x40)\n      0x08c379a000000000000000000000000000000000000000000000000000000000\n      dup2\n      mstore\n      0x04\n      add\n      tag_149\n      swap1\n      tag_150\n      jump\t// in\n    tag_149:\n      mload(0x40)\n      dup1\n      swap2\n      sub\n      swap1\n      revert\n    tag_148:\n        /* \"https://github.com/OpenZeppelin/openzeppelin-contracts/blob/master/contracts/token/ERC20/ERC20.sol\":10732:10733  0 */\n      0x00\n        /* \"https://github.com/OpenZeppelin/openzeppelin-contracts/blob/master/contracts/token/ERC20/ERC20.sol\":10713:10734  spender != address(0) */\n      0xffffffffffffffffffffffffffffffffffffffff\n      and\n        /* \"https://github.com/OpenZeppelin/openzeppelin-contracts/blob/master/contracts/token/ERC20/ERC20.sol\":10713:10720  spender */\n      dup3\n        /* \"https://github.com/OpenZeppelin/openzeppelin-contracts/blob/master/contracts/token/ERC20/ERC20.sol\":10713:10734  spender != address(0) */\n      0xffffffffffffffffffffffffffffffffffffffff\n      and\n      eq\n      iszero\n        /* \"https://github.com/OpenZeppelin/openzeppelin-contracts/blob/master/contracts/token/ERC20/ERC20.sol\":10705:10773  require(spender != address(0), \"ERC20: approve to the zero address\") */\n      tag_151\n      jumpi\n      mload(0x40)\n      0x08c379a000000000000000000000000000000000000000000000000000000000\n      dup2\n      mstore\n      0x04\n      add\n      tag_152\n      swap1\n      tag_153\n      jump\t// in\n    tag_152:\n      mload(0x40)\n      dup1\n      swap2\n      sub\n      swap1\n      revert\n    tag_151:\n        /* \"https://github.com/OpenZeppelin/openzeppelin-contracts/blob/master/contracts/token/ERC20/ERC20.sol\":10814:10820  amount */\n      dup1\n        /* \"https://github.com/OpenZeppelin/openzeppelin-contracts/blob/master/contracts/token/ERC20/ERC20.sol\":10784:10795  _allowances */\n      0x01\n        /* \"https://github.com/OpenZeppelin/openzeppelin-contracts/blob/master/contracts/token/ERC20/ERC20.sol\":10784:10802  _allowances[owner] */\n      0x00\n        /* \"https://github.com/OpenZeppelin/openzeppelin-contracts/blob/master/contracts/token/ERC20/ERC20.sol\":10796:10801  owner */\n      dup6\n        /* \"https://github.com/OpenZeppelin/openzeppelin-contracts/blob/master/contracts/token/ERC20/ERC20.sol\":10784:10802  _allowances[owner] */\n      0xffffffffffffffffffffffffffffffffffffffff\n      and\n      0xffffffffffffffffffffffffffffffffffffffff\n      and\n      dup2\n      mstore\n      0x20\n      add\n      swap1\n      dup2\n      mstore\n      0x20\n      add\n      0x00\n      keccak256\n        /* \"https://github.com/OpenZeppelin/openzeppelin-contracts/blob/master/contracts/token/ERC20/ERC20.sol\":10784:10811  _allowances[owner][spender] */\n      0x00\n        /* \"https://github.com/OpenZeppelin/openzeppelin-contracts/blob/master/contracts/token/ERC20/ERC20.sol\":10803:10810  spender */\n      dup5\n        /* \"https://github.com/OpenZeppelin/openzeppelin-contracts/blob/master/contracts/token/ERC20/ERC20.sol\":10784:10811  _allowances[owner][spender] */\n      0xffffffffffffffffffffffffffffffffffffffff\n      and\n      0xffffffffffffffffffffffffffffffffffffffff\n      and\n      dup2\n      mstore\n      0x20\n      add\n      swap1\n      dup2\n      mstore\n      0x20\n      add\n      0x00\n      keccak256\n        /* \"https://github.com/OpenZeppelin/openzeppelin-contracts/blob/master/contracts/token/ERC20/ERC20.sol\":10784:10820  _allowances[owner][spender] = amount */\n      dup2\n      swap1\n      sstore\n      pop\n        /* \"https://github.com/OpenZeppelin/openzeppelin-contracts/blob/master/contracts/token/ERC20/ERC20.sol\":10851:10858  spender */\n      dup2\n        /* \"https://github.com/OpenZeppelin/openzeppelin-contracts/blob/master/contracts/token/ERC20/ERC20.sol\":10835:10867  Approval(owner, spender, amount) */\n      0xffffffffffffffffffffffffffffffffffffffff\n      and\n        /* \"https://github.com/OpenZeppelin/openzeppelin-contracts/blob/master/contracts/token/ERC20/ERC20.sol\":10844:10849  owner */\n      dup4\n        /* \"https://github.com/OpenZeppelin/openzeppelin-contracts/blob/master/contracts/token/ERC20/ERC20.sol\":10835:10867  Approval(owner, spender, amount) */\n      0xffffffffffffffffffffffffffffffffffffffff\n      and\n      0x8c5be1e5ebec7d5bd14f71427d1e84f3dd0314c0f7b2291e5b200ac8c7c3b925\n        /* \"https://github.com/OpenZeppelin/openzeppelin-contracts/blob/master/contracts/token/ERC20/ERC20.sol\":10860:10866  amount */\n      dup4\n        /* \"https://github.com/OpenZeppelin/openzeppelin-contracts/blob/master/contracts/token/ERC20/ERC20.sol\":10835:10867  Approval(owner, spender, amount) */\n      mload(0x40)\n      tag_154\n      swap2\n      swap1\n      tag_37\n      jump\t// in\n    tag_154:\n      mload(0x40)\n      dup1\n      swap2\n      sub\n      swap1\n      log3\n        /* \"https://github.com/OpenZeppelin/openzeppelin-contracts/blob/master/contracts/token/ERC20/ERC20.sol\":10504:10874  function _approve(... */\n      pop\n      pop\n      pop\n      jump\t// out\n        /* \"https://github.com/OpenZeppelin/openzeppelin-contracts/blob/master/contracts/token/ERC20/ERC20.sol\":11155:11596  function _spendAllowance(... */\n    tag_102:\n        /* \"https://github.com/OpenZeppelin/openzeppelin-contracts/blob/master/contracts/token/ERC20/ERC20.sol\":11285:11309  uint256 currentAllowance */\n      0x00\n        /* \"https://github.com/OpenZeppelin/openzeppelin-contracts/blob/master/contracts/token/ERC20/ERC20.sol\":11312:11337  allowance(owner, spender) */\n      tag_156\n        /* \"https://github.com/OpenZeppelin/openzeppelin-contracts/blob/master/contracts/token/ERC20/ERC20.sol\":11322:11327  owner */\n      dup5\n        /* \"https://github.com/OpenZeppelin/openzeppelin-contracts/blob/master/contracts/token/ERC20/ERC20.sol\":11329:11336  spender */\n      dup5\n        /* \"https://github.com/OpenZeppelin/openzeppelin-contracts/blob/master/contracts/token/ERC20/ERC20.sol\":11312:11321  allowance */\n      tag_78\n        /* \"https://github.com/OpenZeppelin/openzeppelin-contracts/blob/master/contracts/token/ERC20/ERC20.sol\":11312:11337  allowance(owner, spender) */\n      jump\t// in\n    tag_156:\n        /* \"https://github.com/OpenZeppelin/openzeppelin-contracts/blob/master/contracts/token/ERC20/ERC20.sol\":11285:11337  uint256 currentAllowance = allowance(owner, spender) */\n      swap1\n      pop\n        /* \"https://github.com/OpenZeppelin/openzeppelin-contracts/blob/master/contracts/token/ERC20/ERC20.sol\":11371:11388  type(uint256).max */\n      0xffffffffffffffffffffffffffffffffffffffffffffffffffffffffffffffff\n        /* \"https://github.com/OpenZeppelin/openzeppelin-contracts/blob/master/contracts/token/ERC20/ERC20.sol\":11351:11367  currentAllowance */\n      dup2\n        /* \"https://github.com/OpenZeppelin/openzeppelin-contracts/blob/master/contracts/token/ERC20/ERC20.sol\":11351:11388  currentAllowance != type(uint256).max */\n      eq\n        /* \"https://github.com/OpenZeppelin/openzeppelin-contracts/blob/master/contracts/token/ERC20/ERC20.sol\":11347:11590  if (currentAllowance != type(uint256).max) {... */\n      tag_157\n      jumpi\n        /* \"https://github.com/OpenZeppelin/openzeppelin-contracts/blob/master/contracts/token/ERC20/ERC20.sol\":11432:11438  amount */\n      dup2\n        /* \"https://github.com/OpenZeppelin/openzeppelin-contracts/blob/master/contracts/token/ERC20/ERC20.sol\":11412:11428  currentAllowance */\n      dup2\n        /* \"https://github.com/OpenZeppelin/openzeppelin-contracts/blob/master/contracts/token/ERC20/ERC20.sol\":11412:11438  currentAllowance >= amount */\n      lt\n      iszero\n        /* \"https://github.com/OpenZeppelin/openzeppelin-contracts/blob/master/contracts/token/ERC20/ERC20.sol\":11404:11472  require(currentAllowance >= amount, \"ERC20: insufficient allowance\") */\n      tag_158\n      jumpi\n      mload(0x40)\n      0x08c379a000000000000000000000000000000000000000000000000000000000\n      dup2\n      mstore\n      0x04\n      add\n      tag_159\n      swap1\n      tag_160\n      jump\t// in\n    tag_159:\n      mload(0x40)\n      dup1\n      swap2\n      sub\n      swap1\n      revert\n    tag_158:\n        /* \"https://github.com/OpenZeppelin/openzeppelin-contracts/blob/master/contracts/token/ERC20/ERC20.sol\":11514:11565  _approve(owner, spender, currentAllowance - amount) */\n      tag_161\n        /* \"https://github.com/OpenZeppelin/openzeppelin-contracts/blob/master/contracts/token/ERC20/ERC20.sol\":11523:11528  owner */\n      dup5\n        /* \"https://github.com/OpenZeppelin/openzeppelin-contracts/blob/master/contracts/token/ERC20/ERC20.sol\":11530:11537  spender */\n      dup5\n        /* \"https://github.com/OpenZeppelin/openzeppelin-contracts/blob/master/contracts/token/ERC20/ERC20.sol\":11558:11564  amount */\n      dup5\n        /* \"https://github.com/OpenZeppelin/openzeppelin-contracts/blob/master/contracts/token/ERC20/ERC20.sol\":11539:11555  currentAllowance */\n      dup5\n        /* \"https://github.com/OpenZeppelin/openzeppelin-contracts/blob/master/contracts/token/ERC20/ERC20.sol\":11539:11564  currentAllowance - amount */\n      sub\n        /* \"https://github.com/OpenZeppelin/openzeppelin-contracts/blob/master/contracts/token/ERC20/ERC20.sol\":11514:11522  _approve */\n      tag_91\n        /* \"https://github.com/OpenZeppelin/openzeppelin-contracts/blob/master/contracts/token/ERC20/ERC20.sol\":11514:11565  _approve(owner, spender, currentAllowance - amount) */\n      jump\t// in\n    tag_161:\n        /* \"https://github.com/OpenZeppelin/openzeppelin-contracts/blob/master/contracts/token/ERC20/ERC20.sol\":11347:11590  if (currentAllowance != type(uint256).max) {... */\n    tag_157:\n        /* \"https://github.com/OpenZeppelin/openzeppelin-contracts/blob/master/contracts/token/ERC20/ERC20.sol\":11275:11596  {... */\n      pop\n        /* \"https://github.com/OpenZeppelin/openzeppelin-contracts/blob/master/contracts/token/ERC20/ERC20.sol\":11155:11596  function _spendAllowance(... */\n      pop\n      pop\n      pop\n      jump\t// out\n        /* \"https://github.com/OpenZeppelin/openzeppelin-contracts/blob/master/contracts/token/ERC20/ERC20.sol\":7473:8291  function _transfer(... */\n    tag_104:\n        /* \"https://github.com/OpenZeppelin/openzeppelin-contracts/blob/master/contracts/token/ERC20/ERC20.sol\":7615:7616  0 */\n      0x00\n        /* \"https://github.com/OpenZeppelin/openzeppelin-contracts/blob/master/contracts/token/ERC20/ERC20.sol\":7599:7617  from != address(0) */\n      0xffffffffffffffffffffffffffffffffffffffff\n      and\n        /* \"https://github.com/OpenZeppelin/openzeppelin-contracts/blob/master/contracts/token/ERC20/ERC20.sol\":7599:7603  from */\n      dup4\n        /* \"https://github.com/OpenZeppelin/openzeppelin-contracts/blob/master/contracts/token/ERC20/ERC20.sol\":7599:7617  from != address(0) */\n      0xffffffffffffffffffffffffffffffffffffffff\n      and\n      eq\n      iszero\n        /* \"https://github.com/OpenZeppelin/openzeppelin-contracts/blob/master/contracts/token/ERC20/ERC20.sol\":7591:7659  require(from != address(0), \"ERC20: transfer from the zero address\") */\n      tag_163\n      jumpi\n      mload(0x40)\n      0x08c379a000000000000000000000000000000000000000000000000000000000\n      dup2\n      mstore\n      0x04\n      add\n      tag_164\n      swap1\n      tag_165\n      jump\t// in\n    tag_164:\n      mload(0x40)\n      dup1\n      swap2\n      sub\n      swap1\n      revert\n    tag_163:\n        /* \"https://github.com/OpenZeppelin/openzeppelin-contracts/blob/master/contracts/token/ERC20/ERC20.sol\":7691:7692  0 */\n      0x00\n        /* \"https://github.com/OpenZeppelin/openzeppelin-contracts/blob/master/contracts/token/ERC20/ERC20.sol\":7677:7693  to != address(0) */\n      0xffffffffffffffffffffffffffffffffffffffff\n      and\n        /* \"https://github.com/OpenZeppelin/openzeppelin-contracts/blob/master/contracts/token/ERC20/ERC20.sol\":7677:7679  to */\n      dup3\n        /* \"https://github.com/OpenZeppelin/openzeppelin-contracts/blob/master/contracts/token/ERC20/ERC20.sol\":7677:7693  to != address(0) */\n      0xffffffffffffffffffffffffffffffffffffffff\n      and\n      eq\n      iszero\n        /* \"https://github.com/OpenZeppelin/openzeppelin-contracts/blob/master/contracts/token/ERC20/ERC20.sol\":7669:7733  require(to != address(0), \"ERC20: transfer to the zero address\") */\n      tag_166\n      jumpi\n      mload(0x40)\n      0x08c379a000000000000000000000000000000000000000000000000000000000\n      dup2\n      mstore\n      0x04\n      add\n      tag_167\n      swap1\n      tag_168\n      jump\t// in\n    tag_167:\n      mload(0x40)\n      dup1\n      swap2\n      sub\n      swap1\n      revert\n    tag_166:\n        /* \"https://github.com/OpenZeppelin/openzeppelin-contracts/blob/master/contracts/token/ERC20/ERC20.sol\":7744:7782  _beforeTokenTransfer(from, to, amount) */\n      tag_169\n        /* \"https://github.com/OpenZeppelin/openzeppelin-contracts/blob/master/contracts/token/ERC20/ERC20.sol\":7765:7769  from */\n      dup4\n        /* \"https://github.com/OpenZeppelin/openzeppelin-contracts/blob/master/contracts/token/ERC20/ERC20.sol\":7771:7773  to */\n      dup4\n        /* \"https://github.com/OpenZeppelin/openzeppelin-contracts/blob/master/contracts/token/ERC20/ERC20.sol\":7775:7781  amount */\n      dup4\n        /* \"https://github.com/OpenZeppelin/openzeppelin-contracts/blob/master/contracts/token/ERC20/ERC20.sol\":7744:7764  _beforeTokenTransfer */\n      tag_170\n        /* \"https://github.com/OpenZeppelin/openzeppelin-contracts/blob/master/contracts/token/ERC20/ERC20.sol\":7744:7782  _beforeTokenTransfer(from, to, amount) */\n      jump\t// in\n    tag_169:\n        /* \"https://github.com/OpenZeppelin/openzeppelin-contracts/blob/master/contracts/token/ERC20/ERC20.sol\":7793:7812  uint256 fromBalance */\n      0x00\n        /* \"https://github.com/OpenZeppelin/openzeppelin-contracts/blob/master/contracts/token/ERC20/ERC20.sol\":7815:7824  _balances */\n      dup1\n        /* \"https://github.com/OpenZeppelin/openzeppelin-contracts/blob/master/contracts/token/ERC20/ERC20.sol\":7815:7830  _balances[from] */\n      0x00\n        /* \"https://github.com/OpenZeppelin/openzeppelin-contracts/blob/master/contracts/token/ERC20/ERC20.sol\":7825:7829  from */\n      dup6\n        /* \"https://github.com/OpenZeppelin/openzeppelin-contracts/blob/master/contracts/token/ERC20/ERC20.sol\":7815:7830  _balances[from] */\n      0xffffffffffffffffffffffffffffffffffffffff\n      and\n      0xffffffffffffffffffffffffffffffffffffffff\n      and\n      dup2\n      mstore\n      0x20\n      add\n      swap1\n      dup2\n      mstore\n      0x20\n      add\n      0x00\n      keccak256\n      sload\n        /* \"https://github.com/OpenZeppelin/openzeppelin-contracts/blob/master/contracts/token/ERC20/ERC20.sol\":7793:7830  uint256 fromBalance = _balances[from] */\n      swap1\n      pop\n        /* \"https://github.com/OpenZeppelin/openzeppelin-contracts/blob/master/contracts/token/ERC20/ERC20.sol\":7863:7869  amount */\n      dup2\n        /* \"https://github.com/OpenZeppelin/openzeppelin-contracts/blob/master/contracts/token/ERC20/ERC20.sol\":7848:7859  fromBalance */\n      dup2\n        /* \"https://github.com/OpenZeppelin/openzeppelin-contracts/blob/master/contracts/token/ERC20/ERC20.sol\":7848:7869  fromBalance >= amount */\n      lt\n      iszero\n        /* \"https://github.com/OpenZeppelin/openzeppelin-contracts/blob/master/contracts/token/ERC20/ERC20.sol\":7840:7912  require(fromBalance >= amount, \"ERC20: transfer amount exceeds balance\") */\n      tag_171\n      jumpi\n      mload(0x40)\n      0x08c379a000000000000000000000000000000000000000000000000000000000\n      dup2\n      mstore\n      0x04\n      add\n      tag_172\n      swap1\n      tag_173\n      jump\t// in\n    tag_172:\n      mload(0x40)\n      dup1\n      swap2\n      sub\n      swap1\n      revert\n    tag_171:\n        /* \"https://github.com/OpenZeppelin/openzeppelin-contracts/blob/master/contracts/token/ERC20/ERC20.sol\":7978:7984  amount */\n      dup2\n        /* \"https://github.com/OpenZeppelin/openzeppelin-contracts/blob/master/contracts/token/ERC20/ERC20.sol\":7964:7975  fromBalance */\n      dup2\n        /* \"https://github.com/OpenZeppelin/openzeppelin-contracts/blob/master/contracts/token/ERC20/ERC20.sol\":7964:7984  fromBalance - amount */\n      sub\n        /* \"https://github.com/OpenZeppelin/openzeppelin-contracts/blob/master/contracts/token/ERC20/ERC20.sol\":7946:7955  _balances */\n      0x00\n        /* \"https://github.com/OpenZeppelin/openzeppelin-contracts/blob/master/contracts/token/ERC20/ERC20.sol\":7946:7961  _balances[from] */\n      dup1\n        /* \"https://github.com/OpenZeppelin/openzeppelin-contracts/blob/master/contracts/token/ERC20/ERC20.sol\":7956:7960  from */\n      dup7\n        /* \"https://github.com/OpenZeppelin/openzeppelin-contracts/blob/master/contracts/token/ERC20/ERC20.sol\":7946:7961  _balances[from] */\n      0xffffffffffffffffffffffffffffffffffffffff\n      and\n      0xffffffffffffffffffffffffffffffffffffffff\n      and\n      dup2\n      mstore\n      0x20\n      add\n      swap1\n      dup2\n      mstore\n      0x20\n      add\n      0x00\n      keccak256\n        /* \"https://github.com/OpenZeppelin/openzeppelin-contracts/blob/master/contracts/token/ERC20/ERC20.sol\":7946:7984  _balances[from] = fromBalance - amount */\n      dup2\n      swap1\n      sstore\n      pop\n        /* \"https://github.com/OpenZeppelin/openzeppelin-contracts/blob/master/contracts/token/ERC20/ERC20.sol\":8178:8184  amount */\n      dup2\n        /* \"https://github.com/OpenZeppelin/openzeppelin-contracts/blob/master/contracts/token/ERC20/ERC20.sol\":8161:8170  _balances */\n      0x00\n        /* \"https://github.com/OpenZeppelin/openzeppelin-contracts/blob/master/contracts/token/ERC20/ERC20.sol\":8161:8174  _balances[to] */\n      dup1\n        /* \"https://github.com/OpenZeppelin/openzeppelin-contracts/blob/master/contracts/token/ERC20/ERC20.sol\":8171:8173  to */\n      dup6\n        /* \"https://github.com/OpenZeppelin/openzeppelin-contracts/blob/master/contracts/token/ERC20/ERC20.sol\":8161:8174  _balances[to] */\n      0xffffffffffffffffffffffffffffffffffffffff\n      and\n      0xffffffffffffffffffffffffffffffffffffffff\n      and\n      dup2\n      mstore\n      0x20\n      add\n      swap1\n      dup2\n      mstore\n      0x20\n      add\n      0x00\n      keccak256\n      0x00\n        /* \"https://github.com/OpenZeppelin/openzeppelin-contracts/blob/master/contracts/token/ERC20/ERC20.sol\":8161:8184  _balances[to] += amount */\n      dup3\n      dup3\n      sload\n      add\n      swap3\n      pop\n      pop\n      dup2\n      swap1\n      sstore\n      pop\n        /* \"https://github.com/OpenZeppelin/openzeppelin-contracts/blob/master/contracts/token/ERC20/ERC20.sol\":8225:8227  to */\n      dup3\n        /* \"https://github.com/OpenZeppelin/openzeppelin-contracts/blob/master/contracts/token/ERC20/ERC20.sol\":8210:8236  Transfer(from, to, amount) */\n      0xffffffffffffffffffffffffffffffffffffffff\n      and\n        /* \"https://github.com/OpenZeppelin/openzeppelin-contracts/blob/master/contracts/token/ERC20/ERC20.sol\":8219:8223  from */\n      dup5\n        /* \"https://github.com/OpenZeppelin/openzeppelin-contracts/blob/master/contracts/token/ERC20/ERC20.sol\":8210:8236  Transfer(from, to, amount) */\n      0xffffffffffffffffffffffffffffffffffffffff\n      and\n      0xddf252ad1be2c89b69c2b068fc378daa952ba7f163c4a11628f55a4df523b3ef\n        /* \"https://github.com/OpenZeppelin/openzeppelin-contracts/blob/master/contracts/token/ERC20/ERC20.sol\":8229:8235  amount */\n      dup5\n        /* \"https://github.com/OpenZeppelin/openzeppelin-contracts/blob/master/contracts/token/ERC20/ERC20.sol\":8210:8236  Transfer(from, to, amount) */\n      mload(0x40)\n      tag_174\n      swap2\n      swap1\n      tag_37\n      jump\t// in\n    tag_174:\n      mload(0x40)\n      dup1\n      swap2\n      sub\n      swap1\n      log3\n        /* \"https://github.com/OpenZeppelin/openzeppelin-contracts/blob/master/contracts/token/ERC20/ERC20.sol\":8247:8284  _afterTokenTransfer(from, to, amount) */\n      tag_175\n        /* \"https://github.com/OpenZeppelin/openzeppelin-contracts/blob/master/contracts/token/ERC20/ERC20.sol\":8267:8271  from */\n      dup5\n        /* \"https://github.com/OpenZeppelin/openzeppelin-contracts/blob/master/contracts/token/ERC20/ERC20.sol\":8273:8275  to */\n      dup5\n        /* \"https://github.com/OpenZeppelin/openzeppelin-contracts/blob/master/contracts/token/ERC20/ERC20.sol\":8277:8283  amount */\n      dup5\n        /* \"https://github.com/OpenZeppelin/openzeppelin-contracts/blob/master/contracts/token/ERC20/ERC20.sol\":8247:8266  _afterTokenTransfer */\n      tag_176\n        /* \"https://github.com/OpenZeppelin/openzeppelin-contracts/blob/master/contracts/token/ERC20/ERC20.sol\":8247:8284  _afterTokenTransfer(from, to, amount) */\n      jump\t// in\n    tag_175:\n        /* \"https://github.com/OpenZeppelin/openzeppelin-contracts/blob/master/contracts/token/ERC20/ERC20.sol\":7581:8291  {... */\n      pop\n        /* \"https://github.com/OpenZeppelin/openzeppelin-contracts/blob/master/contracts/token/ERC20/ERC20.sol\":7473:8291  function _transfer(... */\n      pop\n      pop\n      pop\n      jump\t// out\n        /* \"https://github.com/OpenZeppelin/openzeppelin-contracts/blob/master/contracts/token/ERC20/ERC20.sol\":12180:12301  function _beforeTokenTransfer(... */\n    tag_170:\n      pop\n      pop\n      pop\n      jump\t// out\n        /* \"https://github.com/OpenZeppelin/openzeppelin-contracts/blob/master/contracts/token/ERC20/ERC20.sol\":12889:13009  function _afterTokenTransfer(... */\n    tag_176:\n      pop\n      pop\n      pop\n      jump\t// out\n    tag_94:\n      dup3\n      dup1\n      sload\n      tag_179\n      swap1\n      tag_82\n      jump\t// in\n    tag_179:\n      swap1\n      0x00\n      mstore\n      keccak256(0x00, 0x20)\n      swap1\n      0x1f\n      add\n      0x20\n      swap1\n      div\n      dup2\n      add\n      swap3\n      dup3\n      tag_181\n      jumpi\n      0x00\n      dup6\n      sstore\n      jump(tag_180)\n    tag_181:\n      dup3\n      0x1f\n      lt\n      tag_182\n      jumpi\n      dup1\n      mload\n      not(0xff)\n      and\n      dup4\n      dup1\n      add\n      or\n      dup6\n      sstore\n      jump(tag_180)\n    tag_182:\n      dup3\n      dup1\n      add\n      0x01\n      add\n      dup6\n      sstore\n      dup3\n      iszero\n      tag_180\n      jumpi\n      swap2\n      dup3\n      add\n    tag_183:\n      dup3\n      dup2\n      gt\n      iszero\n      tag_184\n      jumpi\n      dup3\n      mload\n      dup3\n      sstore\n      swap2\n      0x20\n      add\n      swap2\n      swap1\n      0x01\n      add\n      swap1\n      jump(tag_183)\n    tag_184:\n    tag_180:\n      pop\n      swap1\n      pop\n      tag_185\n      swap2\n      swap1\n      tag_186\n      jump\t// in\n    tag_185:\n      pop\n      swap1\n      jump\t// out\n    tag_186:\n    tag_187:\n      dup1\n      dup3\n      gt\n      iszero\n      tag_188\n      jumpi\n      0x00\n      dup2\n      0x00\n      swap1\n      sstore\n      pop\n      0x01\n      add\n      jump(tag_187)\n    tag_188:\n      pop\n      swap1\n      jump\t// out\n        /* \"#utility.yul\":7:419   */\n    tag_190:\n        /* \"#utility.yul\":85:90   */\n      0x00\n        /* \"#utility.yul\":110:176   */\n      tag_192\n        /* \"#utility.yul\":126:175   */\n      tag_193\n        /* \"#utility.yul\":168:174   */\n      dup5\n        /* \"#utility.yul\":126:175   */\n      tag_194\n      jump\t// in\n    tag_193:\n        /* \"#utility.yul\":110:176   */\n      tag_195\n      jump\t// in\n    tag_192:\n        /* \"#utility.yul\":101:176   */\n      swap1\n      pop\n        /* \"#utility.yul\":199:205   */\n      dup3\n        /* \"#utility.yul\":192:197   */\n      dup2\n        /* \"#utility.yul\":185:206   */\n      mstore\n        /* \"#utility.yul\":237:241   */\n      0x20\n        /* \"#utility.yul\":230:235   */\n      dup2\n        /* \"#utility.yul\":226:242   */\n      add\n        /* \"#utility.yul\":275:278   */\n      dup5\n        /* \"#utility.yul\":266:272   */\n      dup5\n        /* \"#utility.yul\":261:264   */\n      dup5\n        /* \"#utility.yul\":257:273   */\n      add\n        /* \"#utility.yul\":254:279   */\n      gt\n        /* \"#utility.yul\":251:363   */\n      iszero\n      tag_196\n      jumpi\n        /* \"#utility.yul\":282:361   */\n      tag_197\n      tag_198\n      jump\t// in\n    tag_197:\n        /* \"#utility.yul\":251:363   */\n    tag_196:\n        /* \"#utility.yul\":372:413   */\n      tag_199\n        /* \"#utility.yul\":406:412   */\n      dup5\n        /* \"#utility.yul\":401:404   */\n      dup3\n        /* \"#utility.yul\":396:399   */\n      dup6\n        /* \"#utility.yul\":372:413   */\n      tag_200\n      jump\t// in\n    tag_199:\n        /* \"#utility.yul\":91:419   */\n      pop\n        /* \"#utility.yul\":7:419   */\n      swap4\n      swap3\n      pop\n      pop\n      pop\n      jump\t// out\n        /* \"#utility.yul\":425:564   */\n    tag_201:\n        /* \"#utility.yul\":471:476   */\n      0x00\n        /* \"#utility.yul\":509:515   */\n      dup2\n        /* \"#utility.yul\":496:516   */\n      calldataload\n        /* \"#utility.yul\":487:516   */\n      swap1\n      pop\n        /* \"#utility.yul\":525:558   */\n      tag_203\n        /* \"#utility.yul\":552:557   */\n      dup2\n        /* \"#utility.yul\":525:558   */\n      tag_204\n      jump\t// in\n    tag_203:\n        /* \"#utility.yul\":425:564   */\n      swap3\n      swap2\n      pop\n      pop\n      jump\t// out\n        /* \"#utility.yul\":584:924   */\n    tag_205:\n        /* \"#utility.yul\":640:645   */\n      0x00\n        /* \"#utility.yul\":689:692   */\n      dup3\n        /* \"#utility.yul\":682:686   */\n      0x1f\n        /* \"#utility.yul\":674:680   */\n      dup4\n        /* \"#utility.yul\":670:687   */\n      add\n        /* \"#utility.yul\":666:693   */\n      slt\n        /* \"#utility.yul\":656:778   */\n      tag_207\n      jumpi\n        /* \"#utility.yul\":697:776   */\n      tag_208\n      tag_209\n      jump\t// in\n    tag_208:\n        /* \"#utility.yul\":656:778   */\n    tag_207:\n        /* \"#utility.yul\":814:820   */\n      dup2\n        /* \"#utility.yul\":801:821   */\n      calldataload\n        /* \"#utility.yul\":839:918   */\n      tag_210\n        /* \"#utility.yul\":914:917   */\n      dup5\n        /* \"#utility.yul\":906:912   */\n      dup3\n        /* \"#utility.yul\":899:903   */\n      0x20\n        /* \"#utility.yul\":891:897   */\n      dup7\n        /* \"#utility.yul\":887:904   */\n      add\n        /* \"#utility.yul\":839:918   */\n      tag_190\n      jump\t// in\n    tag_210:\n        /* \"#utility.yul\":830:918   */\n      swap2\n      pop\n        /* \"#utility.yul\":646:924   */\n      pop\n        /* \"#utility.yul\":584:924   */\n      swap3\n      swap2\n      pop\n      pop\n      jump\t// out\n        /* \"#utility.yul\":930:1069   */\n    tag_211:\n        /* \"#utility.yul\":976:981   */\n      0x00\n        /* \"#utility.yul\":1014:1020   */\n      dup2\n        /* \"#utility.yul\":1001:1021   */\n      calldataload\n        /* \"#utility.yul\":992:1021   */\n      swap1\n      pop\n        /* \"#utility.yul\":1030:1063   */\n      tag_213\n        /* \"#utility.yul\":1057:1062   */\n      dup2\n        /* \"#utility.yul\":1030:1063   */\n      tag_214\n      jump\t// in\n    tag_213:\n        /* \"#utility.yul\":930:1069   */\n      swap3\n      swap2\n      pop\n      pop\n      jump\t// out\n        /* \"#utility.yul\":1075:1404   */\n    tag_56:\n        /* \"#utility.yul\":1134:1140   */\n      0x00\n        /* \"#utility.yul\":1183:1185   */\n      0x20\n        /* \"#utility.yul\":1171:1180   */\n      dup3\n        /* \"#utility.yul\":1162:1169   */\n      dup5\n        /* \"#utility.yul\":1158:1181   */\n      sub\n        /* \"#utility.yul\":1154:1186   */\n      slt\n        /* \"#utility.yul\":1151:1270   */\n      iszero\n      tag_216\n      jumpi\n        /* \"#utility.yul\":1189:1268   */\n      tag_217\n      tag_218\n      jump\t// in\n    tag_217:\n        /* \"#utility.yul\":1151:1270   */\n    tag_216:\n        /* \"#utility.yul\":1309:1310   */\n      0x00\n        /* \"#utility.yul\":1334:1387   */\n      tag_219\n        /* \"#utility.yul\":1379:1386   */\n      dup5\n        /* \"#utility.yul\":1370:1376   */\n      dup3\n        /* \"#utility.yul\":1359:1368   */\n      dup6\n        /* \"#utility.yul\":1355:1377   */\n      add\n        /* \"#utility.yul\":1334:1387   */\n      tag_201\n      jump\t// in\n    tag_219:\n        /* \"#utility.yul\":1324:1387   */\n      swap2\n      pop\n        /* \"#utility.yul\":1280:1397   */\n      pop\n        /* \"#utility.yul\":1075:1404   */\n      swap3\n      swap2\n      pop\n      pop\n      jump\t// out\n        /* \"#utility.yul\":1410:1884   */\n    tag_77:\n        /* \"#utility.yul\":1478:1484   */\n      0x00\n        /* \"#utility.yul\":1486:1492   */\n      dup1\n        /* \"#utility.yul\":1535:1537   */\n      0x40\n        /* \"#utility.yul\":1523:1532   */\n      dup4\n        /* \"#utility.yul\":1514:1521   */\n      dup6\n        /* \"#utility.yul\":1510:1533   */\n      sub\n        /* \"#utility.yul\":1506:1538   */\n      slt\n        /* \"#utility.yul\":1503:1622   */\n      iszero\n      tag_221\n      jumpi\n        /* \"#utility.yul\":1541:1620   */\n      tag_222\n      tag_218\n      jump\t// in\n    tag_222:\n        /* \"#utility.yul\":1503:1622   */\n    tag_221:\n        /* \"#utility.yul\":1661:1662   */\n      0x00\n        /* \"#utility.yul\":1686:1739   */\n      tag_223\n        /* \"#utility.yul\":1731:1738   */\n      dup6\n        /* \"#utility.yul\":1722:1728   */\n      dup3\n        /* \"#utility.yul\":1711:1720   */\n      dup7\n        /* \"#utility.yul\":1707:1729   */\n      add\n        /* \"#utility.yul\":1686:1739   */\n      tag_201\n      jump\t// in\n    tag_223:\n        /* \"#utility.yul\":1676:1739   */\n      swap3\n      pop\n        /* \"#utility.yul\":1632:1749   */\n      pop\n        /* \"#utility.yul\":1788:1790   */\n      0x20\n        /* \"#utility.yul\":1814:1867   */\n      tag_224\n        /* \"#utility.yul\":1859:1866   */\n      dup6\n        /* \"#utility.yul\":1850:1856   */\n      dup3\n        /* \"#utility.yul\":1839:1848   */\n      dup7\n        /* \"#utility.yul\":1835:1857   */\n      add\n        /* \"#utility.yul\":1814:1867   */\n      tag_201\n      jump\t// in\n    tag_224:\n        /* \"#utility.yul\":1804:1867   */\n      swap2\n      pop\n        /* \"#utility.yul\":1759:1877   */\n      pop\n        /* \"#utility.yul\":1410:1884   */\n      swap3\n      pop\n      swap3\n      swap1\n      pop\n      jump\t// out\n        /* \"#utility.yul\":1890:2509   */\n    tag_40:\n        /* \"#utility.yul\":1967:1973   */\n      0x00\n        /* \"#utility.yul\":1975:1981   */\n      dup1\n        /* \"#utility.yul\":1983:1989   */\n      0x00\n        /* \"#utility.yul\":2032:2034   */\n      0x60\n        /* \"#utility.yul\":2020:2029   */\n      dup5\n        /* \"#utility.yul\":2011:2018   */\n      dup7\n        /* \"#utility.yul\":2007:2030   */\n      sub\n        /* \"#utility.yul\":2003:2035   */\n      slt\n        /* \"#utility.yul\":2000:2119   */\n      iszero\n      tag_226\n      jumpi\n        /* \"#utility.yul\":2038:2117   */\n      tag_227\n      tag_218\n      jump\t// in\n    tag_227:\n        /* \"#utility.yul\":2000:2119   */\n    tag_226:\n        /* \"#utility.yul\":2158:2159   */\n      0x00\n        /* \"#utility.yul\":2183:2236   */\n      tag_228\n        /* \"#utility.yul\":2228:2235   */\n      dup7\n        /* \"#utility.yul\":2219:2225   */\n      dup3\n        /* \"#utility.yul\":2208:2217   */\n      dup8\n        /* \"#utility.yul\":2204:2226   */\n      add\n        /* \"#utility.yul\":2183:2236   */\n      tag_201\n      jump\t// in\n    tag_228:\n        /* \"#utility.yul\":2173:2236   */\n      swap4\n      pop\n        /* \"#utility.yul\":2129:2246   */\n      pop\n        /* \"#utility.yul\":2285:2287   */\n      0x20\n        /* \"#utility.yul\":2311:2364   */\n      tag_229\n        /* \"#utility.yul\":2356:2363   */\n      dup7\n        /* \"#utility.yul\":2347:2353   */\n      dup3\n        /* \"#utility.yul\":2336:2345   */\n      dup8\n        /* \"#utility.yul\":2332:2354   */\n      add\n        /* \"#utility.yul\":2311:2364   */\n      tag_201\n      jump\t// in\n    tag_229:\n        /* \"#utility.yul\":2301:2364   */\n      swap3\n      pop\n        /* \"#utility.yul\":2256:2374   */\n      pop\n        /* \"#utility.yul\":2413:2415   */\n      0x40\n        /* \"#utility.yul\":2439:2492   */\n      tag_230\n        /* \"#utility.yul\":2484:2491   */\n      dup7\n        /* \"#utility.yul\":2475:2481   */\n      dup3\n        /* \"#utility.yul\":2464:2473   */\n      dup8\n        /* \"#utility.yul\":2460:2482   */\n      add\n        /* \"#utility.yul\":2439:2492   */\n      tag_211\n      jump\t// in\n    tag_230:\n        /* \"#utility.yul\":2429:2492   */\n      swap2\n      pop\n        /* \"#utility.yul\":2384:2502   */\n      pop\n        /* \"#utility.yul\":1890:2509   */\n      swap3\n      pop\n      swap3\n      pop\n      swap3\n      jump\t// out\n        /* \"#utility.yul\":2515:4112   */\n    tag_32:\n        /* \"#utility.yul\":2649:2655   */\n      0x00\n        /* \"#utility.yul\":2657:2663   */\n      dup1\n        /* \"#utility.yul\":2665:2671   */\n      0x00\n        /* \"#utility.yul\":2673:2679   */\n      dup1\n        /* \"#utility.yul\":2681:2687   */\n      0x00\n        /* \"#utility.yul\":2689:2695   */\n      dup1\n        /* \"#utility.yul\":2738:2741   */\n      0xc0\n        /* \"#utility.yul\":2726:2735   */\n      dup8\n        /* \"#utility.yul\":2717:2724   */\n      dup10\n        /* \"#utility.yul\":2713:2736   */\n      sub\n        /* \"#utility.yul\":2709:2742   */\n      slt\n        /* \"#utility.yul\":2706:2826   */\n      iszero\n      tag_232\n      jumpi\n        /* \"#utility.yul\":2745:2824   */\n      tag_233\n      tag_218\n      jump\t// in\n    tag_233:\n        /* \"#utility.yul\":2706:2826   */\n    tag_232:\n        /* \"#utility.yul\":2865:2866   */\n      0x00\n        /* \"#utility.yul\":2890:2943   */\n      tag_234\n        /* \"#utility.yul\":2935:2942   */\n      dup10\n        /* \"#utility.yul\":2926:2932   */\n      dup3\n        /* \"#utility.yul\":2915:2924   */\n      dup11\n        /* \"#utility.yul\":2911:2933   */\n      add\n        /* \"#utility.yul\":2890:2943   */\n      tag_201\n      jump\t// in\n    tag_234:\n        /* \"#utility.yul\":2880:2943   */\n      swap7\n      pop\n        /* \"#utility.yul\":2836:2953   */\n      pop\n        /* \"#utility.yul\":3020:3022   */\n      0x20\n        /* \"#utility.yul\":3009:3018   */\n      dup8\n        /* \"#utility.yul\":3005:3023   */\n      add\n        /* \"#utility.yul\":2992:3024   */\n      calldataload\n        /* \"#utility.yul\":3051:3069   */\n      0xffffffffffffffff\n        /* \"#utility.yul\":3043:3049   */\n      dup2\n        /* \"#utility.yul\":3040:3070   */\n      gt\n        /* \"#utility.yul\":3037:3154   */\n      iszero\n      tag_235\n      jumpi\n        /* \"#utility.yul\":3073:3152   */\n      tag_236\n      tag_237\n      jump\t// in\n    tag_236:\n        /* \"#utility.yul\":3037:3154   */\n    tag_235:\n        /* \"#utility.yul\":3178:3241   */\n      tag_238\n        /* \"#utility.yul\":3233:3240   */\n      dup10\n        /* \"#utility.yul\":3224:3230   */\n      dup3\n        /* \"#utility.yul\":3213:3222   */\n      dup11\n        /* \"#utility.yul\":3209:3231   */\n      add\n        /* \"#utility.yul\":3178:3241   */\n      tag_205\n      jump\t// in\n    tag_238:\n        /* \"#utility.yul\":3168:3241   */\n      swap6\n      pop\n        /* \"#utility.yul\":2963:3251   */\n      pop\n        /* \"#utility.yul\":3290:3292   */\n      0x40\n        /* \"#utility.yul\":3316:3369   */\n      tag_239\n        /* \"#utility.yul\":3361:3368   */\n      dup10\n        /* \"#utility.yul\":3352:3358   */\n      dup3\n        /* \"#utility.yul\":3341:3350   */\n      dup11\n        /* \"#utility.yul\":3337:3359   */\n      add\n        /* \"#utility.yul\":3316:3369   */\n      tag_211\n      jump\t// in\n    tag_239:\n        /* \"#utility.yul\":3306:3369   */\n      swap5\n      pop\n        /* \"#utility.yul\":3261:3379   */\n      pop\n        /* \"#utility.yul\":3446:3448   */\n      0x60\n        /* \"#utility.yul\":3435:3444   */\n      dup8\n        /* \"#utility.yul\":3431:3449   */\n      add\n        /* \"#utility.yul\":3418:3450   */\n      calldataload\n        /* \"#utility.yul\":3477:3495   */\n      0xffffffffffffffff\n        /* \"#utility.yul\":3469:3475   */\n      dup2\n        /* \"#utility.yul\":3466:3496   */\n      gt\n        /* \"#utility.yul\":3463:3580   */\n      iszero\n      tag_240\n      jumpi\n        /* \"#utility.yul\":3499:3578   */\n      tag_241\n      tag_237\n      jump\t// in\n    tag_241:\n        /* \"#utility.yul\":3463:3580   */\n    tag_240:\n        /* \"#utility.yul\":3604:3667   */\n      tag_242\n        /* \"#utility.yul\":3659:3666   */\n      dup10\n        /* \"#utility.yul\":3650:3656   */\n      dup3\n        /* \"#utility.yul\":3639:3648   */\n      dup11\n        /* \"#utility.yul\":3635:3657   */\n      add\n        /* \"#utility.yul\":3604:3667   */\n      tag_205\n      jump\t// in\n    tag_242:\n        /* \"#utility.yul\":3594:3667   */\n      swap4\n      pop\n        /* \"#utility.yul\":3389:3677   */\n      pop\n        /* \"#utility.yul\":3716:3719   */\n      0x80\n        /* \"#utility.yul\":3743:3796   */\n      tag_243\n        /* \"#utility.yul\":3788:3795   */\n      dup10\n        /* \"#utility.yul\":3779:3785   */\n      dup3\n        /* \"#utility.yul\":3768:3777   */\n      dup11\n        /* \"#utility.yul\":3764:3786   */\n      add\n        /* \"#utility.yul\":3743:3796   */\n      tag_211\n      jump\t// in\n    tag_243:\n        /* \"#utility.yul\":3733:3796   */\n      swap3\n      pop\n        /* \"#utility.yul\":3687:3806   */\n      pop\n        /* \"#utility.yul\":3873:3876   */\n      0xa0\n        /* \"#utility.yul\":3862:3871   */\n      dup8\n        /* \"#utility.yul\":3858:3877   */\n      add\n        /* \"#utility.yul\":3845:3878   */\n      calldataload\n        /* \"#utility.yul\":3905:3923   */\n      0xffffffffffffffff\n        /* \"#utility.yul\":3897:3903   */\n      dup2\n        /* \"#utility.yul\":3894:3924   */\n      gt\n        /* \"#utility.yul\":3891:4008   */\n      iszero\n      tag_244\n      jumpi\n        /* \"#utility.yul\":3927:4006   */\n      tag_245\n      tag_237\n      jump\t// in\n    tag_245:\n        /* \"#utility.yul\":3891:4008   */\n    tag_244:\n        /* \"#utility.yul\":4032:4095   */\n      tag_246\n        /* \"#utility.yul\":4087:4094   */\n      dup10\n        /* \"#utility.yul\":4078:4084   */\n      dup3\n        /* \"#utility.yul\":4067:4076   */\n      dup11\n        /* \"#utility.yul\":4063:4085   */\n      add\n        /* \"#utility.yul\":4032:4095   */\n      tag_205\n      jump\t// in\n    tag_246:\n        /* \"#utility.yul\":4022:4095   */\n      swap2\n      pop\n        /* \"#utility.yul\":3816:4105   */\n      pop\n        /* \"#utility.yul\":2515:4112   */\n      swap3\n      swap6\n      pop\n      swap3\n      swap6\n      pop\n      swap3\n      swap6\n      jump\t// out\n        /* \"#utility.yul\":4118:4592   */\n    tag_26:\n        /* \"#utility.yul\":4186:4192   */\n      0x00\n        /* \"#utility.yul\":4194:4200   */\n      dup1\n        /* \"#utility.yul\":4243:4245   */\n      0x40\n        /* \"#utility.yul\":4231:4240   */\n      dup4\n        /* \"#utility.yul\":4222:4229   */\n      dup6\n        /* \"#utility.yul\":4218:4241   */\n      sub\n        /* \"#utility.yul\":4214:4246   */\n      slt\n        /* \"#utility.yul\":4211:4330   */\n      iszero\n      tag_248\n      jumpi\n        /* \"#utility.yul\":4249:4328   */\n      tag_249\n      tag_218\n      jump\t// in\n    tag_249:\n        /* \"#utility.yul\":4211:4330   */\n    tag_248:\n        /* \"#utility.yul\":4369:4370   */\n      0x00\n        /* \"#utility.yul\":4394:4447   */\n      tag_250\n        /* \"#utility.yul\":4439:4446   */\n      dup6\n        /* \"#utility.yul\":4430:4436   */\n      dup3\n        /* \"#utility.yul\":4419:4428   */\n      dup7\n        /* \"#utility.yul\":4415:4437   */\n      add\n        /* \"#utility.yul\":4394:4447   */\n      tag_201\n      jump\t// in\n    tag_250:\n        /* \"#utility.yul\":4384:4447   */\n      swap3\n      pop\n        /* \"#utility.yul\":4340:4457   */\n      pop\n        /* \"#utility.yul\":4496:4498   */\n      0x20\n        /* \"#utility.yul\":4522:4575   */\n      tag_251\n        /* \"#utility.yul\":4567:4574   */\n      dup6\n        /* \"#utility.yul\":4558:4564   */\n      dup3\n        /* \"#utility.yul\":4547:4556   */\n      dup7\n        /* \"#utility.yul\":4543:4565   */\n      add\n        /* \"#utility.yul\":4522:4575   */\n      tag_211\n      jump\t// in\n    tag_251:\n        /* \"#utility.yul\":4512:4575   */\n      swap2\n      pop\n        /* \"#utility.yul\":4467:4585   */\n      pop\n        /* \"#utility.yul\":4118:4592   */\n      swap3\n      pop\n      swap3\n      swap1\n      pop\n      jump\t// out\n        /* \"#utility.yul\":4598:4707   */\n    tag_252:\n        /* \"#utility.yul\":4679:4700   */\n      tag_254\n        /* \"#utility.yul\":4694:4699   */\n      dup2\n        /* \"#utility.yul\":4679:4700   */\n      tag_255\n      jump\t// in\n    tag_254:\n        /* \"#utility.yul\":4674:4677   */\n      dup3\n        /* \"#utility.yul\":4667:4701   */\n      mstore\n        /* \"#utility.yul\":4598:4707   */\n      pop\n      pop\n      jump\t// out\n        /* \"#utility.yul\":4713:5077   */\n    tag_256:\n        /* \"#utility.yul\":4801:4804   */\n      0x00\n        /* \"#utility.yul\":4829:4868   */\n      tag_258\n        /* \"#utility.yul\":4862:4867   */\n      dup3\n        /* \"#utility.yul\":4829:4868   */\n      tag_259\n      jump\t// in\n    tag_258:\n        /* \"#utility.yul\":4884:4955   */\n      tag_260\n        /* \"#utility.yul\":4948:4954   */\n      dup2\n        /* \"#utility.yul\":4943:4946   */\n      dup6\n        /* \"#utility.yul\":4884:4955   */\n      tag_261\n      jump\t// in\n    tag_260:\n        /* \"#utility.yul\":4877:4955   */\n      swap4\n      pop\n        /* \"#utility.yul\":4964:5016   */\n      tag_262\n        /* \"#utility.yul\":5009:5015   */\n      dup2\n        /* \"#utility.yul\":5004:5007   */\n      dup6\n        /* \"#utility.yul\":4997:5001   */\n      0x20\n        /* \"#utility.yul\":4990:4995   */\n      dup7\n        /* \"#utility.yul\":4986:5002   */\n      add\n        /* \"#utility.yul\":4964:5016   */\n      tag_263\n      jump\t// in\n    tag_262:\n        /* \"#utility.yul\":5041:5070   */\n      tag_264\n        /* \"#utility.yul\":5063:5069   */\n      dup2\n        /* \"#utility.yul\":5041:5070   */\n      tag_265\n      jump\t// in\n    tag_264:\n        /* \"#utility.yul\":5036:5039   */\n      dup5\n        /* \"#utility.yul\":5032:5071   */\n      add\n        /* \"#utility.yul\":5025:5071   */\n      swap2\n      pop\n        /* \"#utility.yul\":4805:5077   */\n      pop\n        /* \"#utility.yul\":4713:5077   */\n      swap3\n      swap2\n      pop\n      pop\n      jump\t// out\n        /* \"#utility.yul\":5083:5449   */\n    tag_266:\n        /* \"#utility.yul\":5225:5228   */\n      0x00\n        /* \"#utility.yul\":5246:5313   */\n      tag_268\n        /* \"#utility.yul\":5310:5312   */\n      0x23\n        /* \"#utility.yul\":5305:5308   */\n      dup4\n        /* \"#utility.yul\":5246:5313   */\n      tag_261\n      jump\t// in\n    tag_268:\n        /* \"#utility.yul\":5239:5313   */\n      swap2\n      pop\n        /* \"#utility.yul\":5322:5415   */\n      tag_269\n        /* \"#utility.yul\":5411:5414   */\n      dup3\n        /* \"#utility.yul\":5322:5415   */\n      tag_270\n      jump\t// in\n    tag_269:\n        /* \"#utility.yul\":5440:5442   */\n      0x40\n        /* \"#utility.yul\":5435:5438   */\n      dup3\n        /* \"#utility.yul\":5431:5443   */\n      add\n        /* \"#utility.yul\":5424:5443   */\n      swap1\n      pop\n        /* \"#utility.yul\":5083:5449   */\n      swap2\n      swap1\n      pop\n      jump\t// out\n        /* \"#utility.yul\":5455:5821   */\n    tag_271:\n        /* \"#utility.yul\":5597:5600   */\n      0x00\n        /* \"#utility.yul\":5618:5685   */\n      tag_273\n        /* \"#utility.yul\":5682:5684   */\n      0x22\n        /* \"#utility.yul\":5677:5680   */\n      dup4\n        /* \"#utility.yul\":5618:5685   */\n      tag_261\n      jump\t// in\n    tag_273:\n        /* \"#utility.yul\":5611:5685   */\n      swap2\n      pop\n        /* \"#utility.yul\":5694:5787   */\n      tag_274\n        /* \"#utility.yul\":5783:5786   */\n      dup3\n        /* \"#utility.yul\":5694:5787   */\n      tag_275\n      jump\t// in\n    tag_274:\n        /* \"#utility.yul\":5812:5814   */\n      0x40\n        /* \"#utility.yul\":5807:5810   */\n      dup3\n        /* \"#utility.yul\":5803:5815   */\n      add\n        /* \"#utility.yul\":5796:5815   */\n      swap1\n      pop\n        /* \"#utility.yul\":5455:5821   */\n      swap2\n      swap1\n      pop\n      jump\t// out\n        /* \"#utility.yul\":5827:6193   */\n    tag_276:\n        /* \"#utility.yul\":5969:5972   */\n      0x00\n        /* \"#utility.yul\":5990:6057   */\n      tag_278\n        /* \"#utility.yul\":6054:6056   */\n      0x1d\n        /* \"#utility.yul\":6049:6052   */\n      dup4\n        /* \"#utility.yul\":5990:6057   */\n      tag_261\n      jump\t// in\n    tag_278:\n        /* \"#utility.yul\":5983:6057   */\n      swap2\n      pop\n        /* \"#utility.yul\":6066:6159   */\n      tag_279\n        /* \"#utility.yul\":6155:6158   */\n      dup3\n        /* \"#utility.yul\":6066:6159   */\n      tag_280\n      jump\t// in\n    tag_279:\n        /* \"#utility.yul\":6184:6186   */\n      0x20\n        /* \"#utility.yul\":6179:6182   */\n      dup3\n        /* \"#utility.yul\":6175:6187   */\n      add\n        /* \"#utility.yul\":6168:6187   */\n      swap1\n      pop\n        /* \"#utility.yul\":5827:6193   */\n      swap2\n      swap1\n      pop\n      jump\t// out\n        /* \"#utility.yul\":6199:6565   */\n    tag_281:\n        /* \"#utility.yul\":6341:6344   */\n      0x00\n        /* \"#utility.yul\":6362:6429   */\n      tag_283\n        /* \"#utility.yul\":6426:6428   */\n      0x26\n        /* \"#utility.yul\":6421:6424   */\n      dup4\n        /* \"#utility.yul\":6362:6429   */\n      tag_261\n      jump\t// in\n    tag_283:\n        /* \"#utility.yul\":6355:6429   */\n      swap2\n      pop\n        /* \"#utility.yul\":6438:6531   */\n      tag_284\n        /* \"#utility.yul\":6527:6530   */\n      dup3\n        /* \"#utility.yul\":6438:6531   */\n      tag_285\n      jump\t// in\n    tag_284:\n        /* \"#utility.yul\":6556:6558   */\n      0x40\n        /* \"#utility.yul\":6551:6554   */\n      dup3\n        /* \"#utility.yul\":6547:6559   */\n      add\n        /* \"#utility.yul\":6540:6559   */\n      swap1\n      pop\n        /* \"#utility.yul\":6199:6565   */\n      swap2\n      swap1\n      pop\n      jump\t// out\n        /* \"#utility.yul\":6571:6937   */\n    tag_286:\n        /* \"#utility.yul\":6713:6716   */\n      0x00\n        /* \"#utility.yul\":6734:6801   */\n      tag_288\n        /* \"#utility.yul\":6798:6800   */\n      0x25\n        /* \"#utility.yul\":6793:6796   */\n      dup4\n        /* \"#utility.yul\":6734:6801   */\n      tag_261\n      jump\t// in\n    tag_288:\n        /* \"#utility.yul\":6727:6801   */\n      swap2\n      pop\n        /* \"#utility.yul\":6810:6903   */\n      tag_289\n        /* \"#utility.yul\":6899:6902   */\n      dup3\n        /* \"#utility.yul\":6810:6903   */\n      tag_290\n      jump\t// in\n    tag_289:\n        /* \"#utility.yul\":6928:6930   */\n      0x40\n        /* \"#utility.yul\":6923:6926   */\n      dup3\n        /* \"#utility.yul\":6919:6931   */\n      add\n        /* \"#utility.yul\":6912:6931   */\n      swap1\n      pop\n        /* \"#utility.yul\":6571:6937   */\n      swap2\n      swap1\n      pop\n      jump\t// out\n        /* \"#utility.yul\":6943:7309   */\n    tag_291:\n        /* \"#utility.yul\":7085:7088   */\n      0x00\n        /* \"#utility.yul\":7106:7173   */\n      tag_293\n        /* \"#utility.yul\":7170:7172   */\n      0x24\n        /* \"#utility.yul\":7165:7168   */\n      dup4\n        /* \"#utility.yul\":7106:7173   */\n      tag_261\n      jump\t// in\n    tag_293:\n        /* \"#utility.yul\":7099:7173   */\n      swap2\n      pop\n        /* \"#utility.yul\":7182:7275   */\n      tag_294\n        /* \"#utility.yul\":7271:7274   */\n      dup3\n        /* \"#utility.yul\":7182:7275   */\n      tag_295\n      jump\t// in\n    tag_294:\n        /* \"#utility.yul\":7300:7302   */\n      0x40\n        /* \"#utility.yul\":7295:7298   */\n      dup3\n        /* \"#utility.yul\":7291:7303   */\n      add\n        /* \"#utility.yul\":7284:7303   */\n      swap1\n      pop\n        /* \"#utility.yul\":6943:7309   */\n      swap2\n      swap1\n      pop\n      jump\t// out\n        /* \"#utility.yul\":7315:7681   */\n    tag_296:\n        /* \"#utility.yul\":7457:7460   */\n      0x00\n        /* \"#utility.yul\":7478:7545   */\n      tag_298\n        /* \"#utility.yul\":7542:7544   */\n      0x25\n        /* \"#utility.yul\":7537:7540   */\n      dup4\n        /* \"#utility.yul\":7478:7545   */\n      tag_261\n      jump\t// in\n    tag_298:\n        /* \"#utility.yul\":7471:7545   */\n      swap2\n      pop\n        /* \"#utility.yul\":7554:7647   */\n      tag_299\n        /* \"#utility.yul\":7643:7646   */\n      dup3\n        /* \"#utility.yul\":7554:7647   */\n      tag_300\n      jump\t// in\n    tag_299:\n        /* \"#utility.yul\":7672:7674   */\n      0x40\n        /* \"#utility.yul\":7667:7670   */\n      dup3\n        /* \"#utility.yul\":7663:7675   */\n      add\n        /* \"#utility.yul\":7656:7675   */\n      swap1\n      pop\n        /* \"#utility.yul\":7315:7681   */\n      swap2\n      swap1\n      pop\n      jump\t// out\n        /* \"#utility.yul\":7687:7805   */\n    tag_301:\n        /* \"#utility.yul\":7774:7798   */\n      tag_303\n        /* \"#utility.yul\":7792:7797   */\n      dup2\n        /* \"#utility.yul\":7774:7798   */\n      tag_304\n      jump\t// in\n    tag_303:\n        /* \"#utility.yul\":7769:7772   */\n      dup3\n        /* \"#utility.yul\":7762:7799   */\n      mstore\n        /* \"#utility.yul\":7687:7805   */\n      pop\n      pop\n      jump\t// out\n        /* \"#utility.yul\":7811:7923   */\n    tag_305:\n        /* \"#utility.yul\":7894:7916   */\n      tag_307\n        /* \"#utility.yul\":7910:7915   */\n      dup2\n        /* \"#utility.yul\":7894:7916   */\n      tag_308\n      jump\t// in\n    tag_307:\n        /* \"#utility.yul\":7889:7892   */\n      dup3\n        /* \"#utility.yul\":7882:7917   */\n      mstore\n        /* \"#utility.yul\":7811:7923   */\n      pop\n      pop\n      jump\t// out\n        /* \"#utility.yul\":7929:8139   */\n    tag_29:\n        /* \"#utility.yul\":8016:8020   */\n      0x00\n        /* \"#utility.yul\":8054:8056   */\n      0x20\n        /* \"#utility.yul\":8043:8052   */\n      dup3\n        /* \"#utility.yul\":8039:8057   */\n      add\n        /* \"#utility.yul\":8031:8057   */\n      swap1\n      pop\n        /* \"#utility.yul\":8067:8132   */\n      tag_310\n        /* \"#utility.yul\":8129:8130   */\n      0x00\n        /* \"#utility.yul\":8118:8127   */\n      dup4\n        /* \"#utility.yul\":8114:8131   */\n      add\n        /* \"#utility.yul\":8105:8111   */\n      dup5\n        /* \"#utility.yul\":8067:8132   */\n      tag_252\n      jump\t// in\n    tag_310:\n        /* \"#utility.yul\":7929:8139   */\n      swap3\n      swap2\n      pop\n      pop\n      jump\t// out\n        /* \"#utility.yul\":8145:8458   */\n    tag_23:\n        /* \"#utility.yul\":8258:8262   */\n      0x00\n        /* \"#utility.yul\":8296:8298   */\n      0x20\n        /* \"#utility.yul\":8285:8294   */\n      dup3\n        /* \"#utility.yul\":8281:8299   */\n      add\n        /* \"#utility.yul\":8273:8299   */\n      swap1\n      pop\n        /* \"#utility.yul\":8345:8354   */\n      dup2\n        /* \"#utility.yul\":8339:8343   */\n      dup2\n        /* \"#utility.yul\":8335:8355   */\n      sub\n        /* \"#utility.yul\":8331:8332   */\n      0x00\n        /* \"#utility.yul\":8320:8329   */\n      dup4\n        /* \"#utility.yul\":8316:8333   */\n      add\n        /* \"#utility.yul\":8309:8356   */\n      mstore\n        /* \"#utility.yul\":8373:8451   */\n      tag_312\n        /* \"#utility.yul\":8446:8450   */\n      dup2\n        /* \"#utility.yul\":8437:8443   */\n      dup5\n        /* \"#utility.yul\":8373:8451   */\n      tag_256\n      jump\t// in\n    tag_312:\n        /* \"#utility.yul\":8365:8451   */\n      swap1\n      pop\n        /* \"#utility.yul\":8145:8458   */\n      swap3\n      swap2\n      pop\n      pop\n      jump\t// out\n        /* \"#utility.yul\":8464:9512   */\n    tag_63:\n        /* \"#utility.yul\":8757:8761   */\n      0x00\n        /* \"#utility.yul\":8795:8798   */\n      0xc0\n        /* \"#utility.yul\":8784:8793   */\n      dup3\n        /* \"#utility.yul\":8780:8799   */\n      add\n        /* \"#utility.yul\":8772:8799   */\n      swap1\n      pop\n        /* \"#utility.yul\":8845:8854   */\n      dup2\n        /* \"#utility.yul\":8839:8843   */\n      dup2\n        /* \"#utility.yul\":8835:8855   */\n      sub\n        /* \"#utility.yul\":8831:8832   */\n      0x00\n        /* \"#utility.yul\":8820:8829   */\n      dup4\n        /* \"#utility.yul\":8816:8833   */\n      add\n        /* \"#utility.yul\":8809:8856   */\n      mstore\n        /* \"#utility.yul\":8873:8951   */\n      tag_314\n        /* \"#utility.yul\":8946:8950   */\n      dup2\n        /* \"#utility.yul\":8937:8943   */\n      dup10\n        /* \"#utility.yul\":8873:8951   */\n      tag_256\n      jump\t// in\n    tag_314:\n        /* \"#utility.yul\":8865:8951   */\n      swap1\n      pop\n        /* \"#utility.yul\":8961:9033   */\n      tag_315\n        /* \"#utility.yul\":9029:9031   */\n      0x20\n        /* \"#utility.yul\":9018:9027   */\n      dup4\n        /* \"#utility.yul\":9014:9032   */\n      add\n        /* \"#utility.yul\":9005:9011   */\n      dup9\n        /* \"#utility.yul\":8961:9033   */\n      tag_301\n      jump\t// in\n    tag_315:\n        /* \"#utility.yul\":9080:9089   */\n      dup2\n        /* \"#utility.yul\":9074:9078   */\n      dup2\n        /* \"#utility.yul\":9070:9090   */\n      sub\n        /* \"#utility.yul\":9065:9067   */\n      0x40\n        /* \"#utility.yul\":9054:9063   */\n      dup4\n        /* \"#utility.yul\":9050:9068   */\n      add\n        /* \"#utility.yul\":9043:9091   */\n      mstore\n        /* \"#utility.yul\":9108:9186   */\n      tag_316\n        /* \"#utility.yul\":9181:9185   */\n      dup2\n        /* \"#utility.yul\":9172:9178   */\n      dup8\n        /* \"#utility.yul\":9108:9186   */\n      tag_256\n      jump\t// in\n    tag_316:\n        /* \"#utility.yul\":9100:9186   */\n      swap1\n      pop\n        /* \"#utility.yul\":9196:9268   */\n      tag_317\n        /* \"#utility.yul\":9264:9266   */\n      0x60\n        /* \"#utility.yul\":9253:9262   */\n      dup4\n        /* \"#utility.yul\":9249:9267   */\n      add\n        /* \"#utility.yul\":9240:9246   */\n      dup7\n        /* \"#utility.yul\":9196:9268   */\n      tag_301\n      jump\t// in\n    tag_317:\n        /* \"#utility.yul\":9316:9325   */\n      dup2\n        /* \"#utility.yul\":9310:9314   */\n      dup2\n        /* \"#utility.yul\":9306:9326   */\n      sub\n        /* \"#utility.yul\":9300:9303   */\n      0x80\n        /* \"#utility.yul\":9289:9298   */\n      dup4\n        /* \"#utility.yul\":9285:9304   */\n      add\n        /* \"#utility.yul\":9278:9327   */\n      mstore\n        /* \"#utility.yul\":9344:9422   */\n      tag_318\n        /* \"#utility.yul\":9417:9421   */\n      dup2\n        /* \"#utility.yul\":9408:9414   */\n      dup6\n        /* \"#utility.yul\":9344:9422   */\n      tag_256\n      jump\t// in\n    tag_318:\n        /* \"#utility.yul\":9336:9422   */\n      swap1\n      pop\n        /* \"#utility.yul\":9432:9505   */\n      tag_319\n        /* \"#utility.yul\":9500:9503   */\n      0xa0\n        /* \"#utility.yul\":9489:9498   */\n      dup4\n        /* \"#utility.yul\":9485:9504   */\n      add\n        /* \"#utility.yul\":9476:9482   */\n      dup5\n        /* \"#utility.yul\":9432:9505   */\n      tag_301\n      jump\t// in\n    tag_319:\n        /* \"#utility.yul\":8464:9512   */\n      swap8\n      swap7\n      pop\n      pop\n      pop\n      pop\n      pop\n      pop\n      pop\n      jump\t// out\n        /* \"#utility.yul\":9518:9937   */\n    tag_168:\n        /* \"#utility.yul\":9684:9688   */\n      0x00\n        /* \"#utility.yul\":9722:9724   */\n      0x20\n        /* \"#utility.yul\":9711:9720   */\n      dup3\n        /* \"#utility.yul\":9707:9725   */\n      add\n        /* \"#utility.yul\":9699:9725   */\n      swap1\n      pop\n        /* \"#utility.yul\":9771:9780   */\n      dup2\n        /* \"#utility.yul\":9765:9769   */\n      dup2\n        /* \"#utility.yul\":9761:9781   */\n      sub\n        /* \"#utility.yul\":9757:9758   */\n      0x00\n        /* \"#utility.yul\":9746:9755   */\n      dup4\n        /* \"#utility.yul\":9742:9759   */\n      add\n        /* \"#utility.yul\":9735:9782   */\n      mstore\n        /* \"#utility.yul\":9799:9930   */\n      tag_321\n        /* \"#utility.yul\":9925:9929   */\n      dup2\n        /* \"#utility.yul\":9799:9930   */\n      tag_266\n      jump\t// in\n    tag_321:\n        /* \"#utility.yul\":9791:9930   */\n      swap1\n      pop\n        /* \"#utility.yul\":9518:9937   */\n      swap2\n      swap1\n      pop\n      jump\t// out\n        /* \"#utility.yul\":9943:10362   */\n    tag_153:\n        /* \"#utility.yul\":10109:10113   */\n      0x00\n        /* \"#utility.yul\":10147:10149   */\n      0x20\n        /* \"#utility.yul\":10136:10145   */\n      dup3\n        /* \"#utility.yul\":10132:10150   */\n      add\n        /* \"#utility.yul\":10124:10150   */\n      swap1\n      pop\n        /* \"#utility.yul\":10196:10205   */\n      dup2\n        /* \"#utility.yul\":10190:10194   */\n      dup2\n        /* \"#utility.yul\":10186:10206   */\n      sub\n        /* \"#utility.yul\":10182:10183   */\n      0x00\n        /* \"#utility.yul\":10171:10180   */\n      dup4\n        /* \"#utility.yul\":10167:10184   */\n      add\n        /* \"#utility.yul\":10160:10207   */\n      mstore\n        /* \"#utility.yul\":10224:10355   */\n      tag_323\n        /* \"#utility.yul\":10350:10354   */\n      dup2\n        /* \"#utility.yul\":10224:10355   */\n      tag_271\n      jump\t// in\n    tag_323:\n        /* \"#utility.yul\":10216:10355   */\n      swap1\n      pop\n        /* \"#utility.yul\":9943:10362   */\n      swap2\n      swap1\n      pop\n      jump\t// out\n        /* \"#utility.yul\":10368:10787   */\n    tag_160:\n        /* \"#utility.yul\":10534:10538   */\n      0x00\n        /* \"#utility.yul\":10572:10574   */\n      0x20\n        /* \"#utility.yul\":10561:10570   */\n      dup3\n        /* \"#utility.yul\":10557:10575   */\n      add\n        /* \"#utility.yul\":10549:10575   */\n      swap1\n      pop\n        /* \"#utility.yul\":10621:10630   */\n      dup2\n        /* \"#utility.yul\":10615:10619   */\n      dup2\n        /* \"#utility.yul\":10611:10631   */\n      sub\n        /* \"#utility.yul\":10607:10608   */\n      0x00\n        /* \"#utility.yul\":10596:10605   */\n      dup4\n        /* \"#utility.yul\":10592:10609   */\n      add\n        /* \"#utility.yul\":10585:10632   */\n      mstore\n        /* \"#utility.yul\":10649:10780   */\n      tag_325\n        /* \"#utility.yul\":10775:10779   */\n      dup2\n        /* \"#utility.yul\":10649:10780   */\n      tag_276\n      jump\t// in\n    tag_325:\n        /* \"#utility.yul\":10641:10780   */\n      swap1\n      pop\n        /* \"#utility.yul\":10368:10787   */\n      swap2\n      swap1\n      pop\n      jump\t// out\n        /* \"#utility.yul\":10793:11212   */\n    tag_173:\n        /* \"#utility.yul\":10959:10963   */\n      0x00\n        /* \"#utility.yul\":10997:10999   */\n      0x20\n        /* \"#utility.yul\":10986:10995   */\n      dup3\n        /* \"#utility.yul\":10982:11000   */\n      add\n        /* \"#utility.yul\":10974:11000   */\n      swap1\n      pop\n        /* \"#utility.yul\":11046:11055   */\n      dup2\n        /* \"#utility.yul\":11040:11044   */\n      dup2\n        /* \"#utility.yul\":11036:11056   */\n      sub\n        /* \"#utility.yul\":11032:11033   */\n      0x00\n        /* \"#utility.yul\":11021:11030   */\n      dup4\n        /* \"#utility.yul\":11017:11034   */\n      add\n        /* \"#utility.yul\":11010:11057   */\n      mstore\n        /* \"#utility.yul\":11074:11205   */\n      tag_327\n        /* \"#utility.yul\":11200:11204   */\n      dup2\n        /* \"#utility.yul\":11074:11205   */\n      tag_281\n      jump\t// in\n    tag_327:\n        /* \"#utility.yul\":11066:11205   */\n      swap1\n      pop\n        /* \"#utility.yul\":10793:11212   */\n      swap2\n      swap1\n      pop\n      jump\t// out\n        /* \"#utility.yul\":11218:11637   */\n    tag_165:\n        /* \"#utility.yul\":11384:11388   */\n      0x00\n        /* \"#utility.yul\":11422:11424   */\n      0x20\n        /* \"#utility.yul\":11411:11420   */\n      dup3\n        /* \"#utility.yul\":11407:11425   */\n      add\n        /* \"#utility.yul\":11399:11425   */\n      swap1\n      pop\n        /* \"#utility.yul\":11471:11480   */\n      dup2\n        /* \"#utility.yul\":11465:11469   */\n      dup2\n        /* \"#utility.yul\":11461:11481   */\n      sub\n        /* \"#utility.yul\":11457:11458   */\n      0x00\n        /* \"#utility.yul\":11446:11455   */\n      dup4\n        /* \"#utility.yul\":11442:11459   */\n      add\n        /* \"#utility.yul\":11435:11482   */\n      mstore\n        /* \"#utility.yul\":11499:11630   */\n      tag_329\n        /* \"#utility.yul\":11625:11629   */\n      dup2\n        /* \"#utility.yul\":11499:11630   */\n      tag_286\n      jump\t// in\n    tag_329:\n        /* \"#utility.yul\":11491:11630   */\n      swap1\n      pop\n        /* \"#utility.yul\":11218:11637   */\n      swap2\n      swap1\n      pop\n      jump\t// out\n        /* \"#utility.yul\":11643:12062   */\n    tag_150:\n        /* \"#utility.yul\":11809:11813   */\n      0x00\n        /* \"#utility.yul\":11847:11849   */\n      0x20\n        /* \"#utility.yul\":11836:11845   */\n      dup3\n        /* \"#utility.yul\":11832:11850   */\n      add\n        /* \"#utility.yul\":11824:11850   */\n      swap1\n      pop\n        /* \"#utility.yul\":11896:11905   */\n      dup2\n        /* \"#utility.yul\":11890:11894   */\n      dup2\n        /* \"#utility.yul\":11886:11906   */\n      sub\n        /* \"#utility.yul\":11882:11883   */\n      0x00\n        /* \"#utility.yul\":11871:11880   */\n      dup4\n        /* \"#utility.yul\":11867:11884   */\n      add\n        /* \"#utility.yul\":11860:11907   */\n      mstore\n        /* \"#utility.yul\":11924:12055   */\n      tag_331\n        /* \"#utility.yul\":12050:12054   */\n      dup2\n        /* \"#utility.yul\":11924:12055   */\n      tag_291\n      jump\t// in\n    tag_331:\n        /* \"#utility.yul\":11916:12055   */\n      swap1\n      pop\n        /* \"#utility.yul\":11643:12062   */\n      swap2\n      swap1\n      pop\n      jump\t// out\n        /* \"#utility.yul\":12068:12487   */\n    tag_139:\n        /* \"#utility.yul\":12234:12238   */\n      0x00\n        /* \"#utility.yul\":12272:12274   */\n      0x20\n        /* \"#utility.yul\":12261:12270   */\n      dup3\n        /* \"#utility.yul\":12257:12275   */\n      add\n        /* \"#utility.yul\":12249:12275   */\n      swap1\n      pop\n        /* \"#utility.yul\":12321:12330   */\n      dup2\n        /* \"#utility.yul\":12315:12319   */\n      dup2\n        /* \"#utility.yul\":12311:12331   */\n      sub\n        /* \"#utility.yul\":12307:12308   */\n      0x00\n        /* \"#utility.yul\":12296:12305   */\n      dup4\n        /* \"#utility.yul\":12292:12309   */\n      add\n        /* \"#utility.yul\":12285:12332   */\n      mstore\n        /* \"#utility.yul\":12349:12480   */\n      tag_333\n        /* \"#utility.yul\":12475:12479   */\n      dup2\n        /* \"#utility.yul\":12349:12480   */\n      tag_296\n      jump\t// in\n    tag_333:\n        /* \"#utility.yul\":12341:12480   */\n      swap1\n      pop\n        /* \"#utility.yul\":12068:12487   */\n      swap2\n      swap1\n      pop\n      jump\t// out\n        /* \"#utility.yul\":12493:12715   */\n    tag_37:\n        /* \"#utility.yul\":12586:12590   */\n      0x00\n        /* \"#utility.yul\":12624:12626   */\n      0x20\n        /* \"#utility.yul\":12613:12622   */\n      dup3\n        /* \"#utility.yul\":12609:12627   */\n      add\n        /* \"#utility.yul\":12601:12627   */\n      swap1\n      pop\n        /* \"#utility.yul\":12637:12708   */\n      tag_335\n        /* \"#utility.yul\":12705:12706   */\n      0x00\n        /* \"#utility.yul\":12694:12703   */\n      dup4\n        /* \"#utility.yul\":12690:12707   */\n      add\n        /* \"#utility.yul\":12681:12687   */\n      dup5\n        /* \"#utility.yul\":12637:12708   */\n      tag_301\n      jump\t// in\n    tag_335:\n        /* \"#utility.yul\":12493:12715   */\n      swap3\n      swap2\n      pop\n      pop\n      jump\t// out\n        /* \"#utility.yul\":12721:12935   */\n    tag_49:\n        /* \"#utility.yul\":12810:12814   */\n      0x00\n        /* \"#utility.yul\":12848:12850   */\n      0x20\n        /* \"#utility.yul\":12837:12846   */\n      dup3\n        /* \"#utility.yul\":12833:12851   */\n      add\n        /* \"#utility.yul\":12825:12851   */\n      swap1\n      pop\n        /* \"#utility.yul\":12861:12928   */\n      tag_337\n        /* \"#utility.yul\":12925:12926   */\n      0x00\n        /* \"#utility.yul\":12914:12923   */\n      dup4\n        /* \"#utility.yul\":12910:12927   */\n      add\n        /* \"#utility.yul\":12901:12907   */\n      dup5\n        /* \"#utility.yul\":12861:12928   */\n      tag_305\n      jump\t// in\n    tag_337:\n        /* \"#utility.yul\":12721:12935   */\n      swap3\n      swap2\n      pop\n      pop\n      jump\t// out\n        /* \"#utility.yul\":12941:13070   */\n    tag_195:\n        /* \"#utility.yul\":12975:12981   */\n      0x00\n        /* \"#utility.yul\":13002:13022   */\n      tag_339\n      tag_340\n      jump\t// in\n    tag_339:\n        /* \"#utility.yul\":12992:13022   */\n      swap1\n      pop\n        /* \"#utility.yul\":13031:13064   */\n      tag_341\n        /* \"#utility.yul\":13059:13063   */\n      dup3\n        /* \"#utility.yul\":13051:13057   */\n      dup3\n        /* \"#utility.yul\":13031:13064   */\n      tag_342\n      jump\t// in\n    tag_341:\n        /* \"#utility.yul\":12941:13070   */\n      swap2\n      swap1\n      pop\n      jump\t// out\n        /* \"#utility.yul\":13076:13151   */\n    tag_340:\n        /* \"#utility.yul\":13109:13115   */\n      0x00\n        /* \"#utility.yul\":13142:13144   */\n      0x40\n        /* \"#utility.yul\":13136:13145   */\n      mload\n        /* \"#utility.yul\":13126:13145   */\n      swap1\n      pop\n        /* \"#utility.yul\":13076:13151   */\n      swap1\n      jump\t// out\n        /* \"#utility.yul\":13157:13465   */\n    tag_194:\n        /* \"#utility.yul\":13219:13223   */\n      0x00\n        /* \"#utility.yul\":13309:13327   */\n      0xffffffffffffffff\n        /* \"#utility.yul\":13301:13307   */\n      dup3\n        /* \"#utility.yul\":13298:13328   */\n      gt\n        /* \"#utility.yul\":13295:13351   */\n      iszero\n      tag_345\n      jumpi\n        /* \"#utility.yul\":13331:13349   */\n      tag_346\n      tag_347\n      jump\t// in\n    tag_346:\n        /* \"#utility.yul\":13295:13351   */\n    tag_345:\n        /* \"#utility.yul\":13369:13398   */\n      tag_348\n        /* \"#utility.yul\":13391:13397   */\n      dup3\n        /* \"#utility.yul\":13369:13398   */\n      tag_265\n      jump\t// in\n    tag_348:\n        /* \"#utility.yul\":13361:13398   */\n      swap1\n      pop\n        /* \"#utility.yul\":13453:13457   */\n      0x20\n        /* \"#utility.yul\":13447:13451   */\n      dup2\n        /* \"#utility.yul\":13443:13458   */\n      add\n        /* \"#utility.yul\":13435:13458   */\n      swap1\n      pop\n        /* \"#utility.yul\":13157:13465   */\n      swap2\n      swap1\n      pop\n      jump\t// out\n        /* \"#utility.yul\":13471:13570   */\n    tag_259:\n        /* \"#utility.yul\":13523:13529   */\n      0x00\n        /* \"#utility.yul\":13557:13562   */\n      dup2\n        /* \"#utility.yul\":13551:13563   */\n      mload\n        /* \"#utility.yul\":13541:13563   */\n      swap1\n      pop\n        /* \"#utility.yul\":13471:13570   */\n      swap2\n      swap1\n      pop\n      jump\t// out\n        /* \"#utility.yul\":13576:13745   */\n    tag_261:\n        /* \"#utility.yul\":13660:13671   */\n      0x00\n        /* \"#utility.yul\":13694:13700   */\n      dup3\n        /* \"#utility.yul\":13689:13692   */\n      dup3\n        /* \"#utility.yul\":13682:13701   */\n      mstore\n        /* \"#utility.yul\":13734:13738   */\n      0x20\n        /* \"#utility.yul\":13729:13732   */\n      dup3\n        /* \"#utility.yul\":13725:13739   */\n      add\n        /* \"#utility.yul\":13710:13739   */\n      swap1\n      pop\n        /* \"#utility.yul\":13576:13745   */\n      swap3\n      swap2\n      pop\n      pop\n      jump\t// out\n        /* \"#utility.yul\":13751:14056   */\n    tag_111:\n        /* \"#utility.yul\":13791:13794   */\n      0x00\n        /* \"#utility.yul\":13810:13830   */\n      tag_352\n        /* \"#utility.yul\":13828:13829   */\n      dup3\n        /* \"#utility.yul\":13810:13830   */\n      tag_304\n      jump\t// in\n    tag_352:\n        /* \"#utility.yul\":13805:13830   */\n      swap2\n      pop\n        /* \"#utility.yul\":13844:13864   */\n      tag_353\n        /* \"#utility.yul\":13862:13863   */\n      dup4\n        /* \"#utility.yul\":13844:13864   */\n      tag_304\n      jump\t// in\n    tag_353:\n        /* \"#utility.yul\":13839:13864   */\n      swap3\n      pop\n        /* \"#utility.yul\":13998:13999   */\n      dup3\n        /* \"#utility.yul\":13930:13996   */\n      0xffffffffffffffffffffffffffffffffffffffffffffffffffffffffffffffff\n        /* \"#utility.yul\":13926:14000   */\n      sub\n        /* \"#utility.yul\":13923:13924   */\n      dup3\n        /* \"#utility.yul\":13920:14001   */\n      gt\n        /* \"#utility.yul\":13917:14024   */\n      iszero\n      tag_354\n      jumpi\n        /* \"#utility.yul\":14004:14022   */\n      tag_355\n      tag_356\n      jump\t// in\n    tag_355:\n        /* \"#utility.yul\":13917:14024   */\n    tag_354:\n        /* \"#utility.yul\":14048:14049   */\n      dup3\n        /* \"#utility.yul\":14045:14046   */\n      dup3\n        /* \"#utility.yul\":14041:14050   */\n      add\n        /* \"#utility.yul\":14034:14050   */\n      swap1\n      pop\n        /* \"#utility.yul\":13751:14056   */\n      swap3\n      swap2\n      pop\n      pop\n      jump\t// out\n        /* \"#utility.yul\":14062:14158   */\n    tag_357:\n        /* \"#utility.yul\":14099:14106   */\n      0x00\n        /* \"#utility.yul\":14128:14152   */\n      tag_359\n        /* \"#utility.yul\":14146:14151   */\n      dup3\n        /* \"#utility.yul\":14128:14152   */\n      tag_360\n      jump\t// in\n    tag_359:\n        /* \"#utility.yul\":14117:14152   */\n      swap1\n      pop\n        /* \"#utility.yul\":14062:14158   */\n      swap2\n      swap1\n      pop\n      jump\t// out\n        /* \"#utility.yul\":14164:14254   */\n    tag_255:\n        /* \"#utility.yul\":14198:14205   */\n      0x00\n        /* \"#utility.yul\":14241:14246   */\n      dup2\n        /* \"#utility.yul\":14234:14247   */\n      iszero\n        /* \"#utility.yul\":14227:14248   */\n      iszero\n        /* \"#utility.yul\":14216:14248   */\n      swap1\n      pop\n        /* \"#utility.yul\":14164:14254   */\n      swap2\n      swap1\n      pop\n      jump\t// out\n        /* \"#utility.yul\":14260:14386   */\n    tag_360:\n        /* \"#utility.yul\":14297:14304   */\n      0x00\n        /* \"#utility.yul\":14337:14379   */\n      0xffffffffffffffffffffffffffffffffffffffff\n        /* \"#utility.yul\":14330:14335   */\n      dup3\n        /* \"#utility.yul\":14326:14380   */\n      and\n        /* \"#utility.yul\":14315:14380   */\n      swap1\n      pop\n        /* \"#utility.yul\":14260:14386   */\n      swap2\n      swap1\n      pop\n      jump\t// out\n        /* \"#utility.yul\":14392:14469   */\n    tag_304:\n        /* \"#utility.yul\":14429:14436   */\n      0x00\n        /* \"#utility.yul\":14458:14463   */\n      dup2\n        /* \"#utility.yul\":14447:14463   */\n      swap1\n      pop\n        /* \"#utility.yul\":14392:14469   */\n      swap2\n      swap1\n      pop\n      jump\t// out\n        /* \"#utility.yul\":14475:14561   */\n    tag_308:\n        /* \"#utility.yul\":14510:14517   */\n      0x00\n        /* \"#utility.yul\":14550:14554   */\n      0xff\n        /* \"#utility.yul\":14543:14548   */\n      dup3\n        /* \"#utility.yul\":14539:14555   */\n      and\n        /* \"#utility.yul\":14528:14555   */\n      swap1\n      pop\n        /* \"#utility.yul\":14475:14561   */\n      swap2\n      swap1\n      pop\n      jump\t// out\n        /* \"#utility.yul\":14567:14721   */\n    tag_200:\n        /* \"#utility.yul\":14651:14657   */\n      dup3\n        /* \"#utility.yul\":14646:14649   */\n      dup2\n        /* \"#utility.yul\":14641:14644   */\n      dup4\n        /* \"#utility.yul\":14628:14658   */\n      calldatacopy\n        /* \"#utility.yul\":14713:14714   */\n      0x00\n        /* \"#utility.yul\":14704:14710   */\n      dup4\n        /* \"#utility.yul\":14699:14702   */\n      dup4\n        /* \"#utility.yul\":14695:14711   */\n      add\n        /* \"#utility.yul\":14688:14715   */\n      mstore\n        /* \"#utility.yul\":14567:14721   */\n      pop\n      pop\n      pop\n      jump\t// out\n        /* \"#utility.yul\":14727:15034   */\n    tag_263:\n        /* \"#utility.yul\":14795:14796   */\n      0x00\n        /* \"#utility.yul\":14805:14918   */\n    tag_367:\n        /* \"#utility.yul\":14819:14825   */\n      dup4\n        /* \"#utility.yul\":14816:14817   */\n      dup2\n        /* \"#utility.yul\":14813:14826   */\n      lt\n        /* \"#utility.yul\":14805:14918   */\n      iszero\n      tag_369\n      jumpi\n        /* \"#utility.yul\":14904:14905   */\n      dup1\n        /* \"#utility.yul\":14899:14902   */\n      dup3\n        /* \"#utility.yul\":14895:14906   */\n      add\n        /* \"#utility.yul\":14889:14907   */\n      mload\n        /* \"#utility.yul\":14885:14886   */\n      dup2\n        /* \"#utility.yul\":14880:14883   */\n      dup5\n        /* \"#utility.yul\":14876:14887   */\n      add\n        /* \"#utility.yul\":14869:14908   */\n      mstore\n        /* \"#utility.yul\":14841:14843   */\n      0x20\n        /* \"#utility.yul\":14838:14839   */\n      dup2\n        /* \"#utility.yul\":14834:14844   */\n      add\n        /* \"#utility.yul\":14829:14844   */\n      swap1\n      pop\n        /* \"#utility.yul\":14805:14918   */\n      jump(tag_367)\n    tag_369:\n        /* \"#utility.yul\":14936:14942   */\n      dup4\n        /* \"#utility.yul\":14933:14934   */\n      dup2\n        /* \"#utility.yul\":14930:14943   */\n      gt\n        /* \"#utility.yul\":14927:15028   */\n      iszero\n      tag_370\n      jumpi\n        /* \"#utility.yul\":15016:15017   */\n      0x00\n        /* \"#utility.yul\":15007:15013   */\n      dup5\n        /* \"#utility.yul\":15002:15005   */\n      dup5\n        /* \"#utility.yul\":14998:15014   */\n      add\n        /* \"#utility.yul\":14991:15018   */\n      mstore\n        /* \"#utility.yul\":14927:15028   */\n    tag_370:\n        /* \"#utility.yul\":14776:15034   */\n      pop\n        /* \"#utility.yul\":14727:15034   */\n      pop\n      pop\n      pop\n      jump\t// out\n        /* \"#utility.yul\":15040:15360   */\n    tag_82:\n        /* \"#utility.yul\":15084:15090   */\n      0x00\n        /* \"#utility.yul\":15121:15122   */\n      0x02\n        /* \"#utility.yul\":15115:15119   */\n      dup3\n        /* \"#utility.yul\":15111:15123   */\n      div\n        /* \"#utility.yul\":15101:15123   */\n      swap1\n      pop\n        /* \"#utility.yul\":15168:15169   */\n      0x01\n        /* \"#utility.yul\":15162:15166   */\n      dup3\n        /* \"#utility.yul\":15158:15170   */\n      and\n        /* \"#utility.yul\":15189:15207   */\n      dup1\n        /* \"#utility.yul\":15179:15260   */\n      tag_372\n      jumpi\n        /* \"#utility.yul\":15245:15249   */\n      0x7f\n        /* \"#utility.yul\":15237:15243   */\n      dup3\n        /* \"#utility.yul\":15233:15250   */\n      and\n        /* \"#utility.yul\":15223:15250   */\n      swap2\n      pop\n        /* \"#utility.yul\":15179:15260   */\n    tag_372:\n        /* \"#utility.yul\":15307:15309   */\n      0x20\n        /* \"#utility.yul\":15299:15305   */\n      dup3\n        /* \"#utility.yul\":15296:15310   */\n      lt\n        /* \"#utility.yul\":15276:15294   */\n      dup2\n        /* \"#utility.yul\":15273:15311   */\n      eq\n        /* \"#utility.yul\":15270:15354   */\n      iszero\n      tag_373\n      jumpi\n        /* \"#utility.yul\":15326:15344   */\n      tag_374\n      tag_375\n      jump\t// in\n    tag_374:\n        /* \"#utility.yul\":15270:15354   */\n    tag_373:\n        /* \"#utility.yul\":15091:15360   */\n      pop\n        /* \"#utility.yul\":15040:15360   */\n      swap2\n      swap1\n      pop\n      jump\t// out\n        /* \"#utility.yul\":15366:15647   */\n    tag_342:\n        /* \"#utility.yul\":15449:15476   */\n      tag_377\n        /* \"#utility.yul\":15471:15475   */\n      dup3\n        /* \"#utility.yul\":15449:15476   */\n      tag_265\n      jump\t// in\n    tag_377:\n        /* \"#utility.yul\":15441:15447   */\n      dup2\n        /* \"#utility.yul\":15437:15477   */\n      add\n        /* \"#utility.yul\":15579:15585   */\n      dup2\n        /* \"#utility.yul\":15567:15577   */\n      dup2\n        /* \"#utility.yul\":15564:15586   */\n      lt\n        /* \"#utility.yul\":15543:15561   */\n      0xffffffffffffffff\n        /* \"#utility.yul\":15531:15541   */\n      dup3\n        /* \"#utility.yul\":15528:15562   */\n      gt\n        /* \"#utility.yul\":15525:15587   */\n      or\n        /* \"#utility.yul\":15522:15610   */\n      iszero\n      tag_378\n      jumpi\n        /* \"#utility.yul\":15590:15608   */\n      tag_379\n      tag_347\n      jump\t// in\n    tag_379:\n        /* \"#utility.yul\":15522:15610   */\n    tag_378:\n        /* \"#utility.yul\":15630:15640   */\n      dup1\n        /* \"#utility.yul\":15626:15628   */\n      0x40\n        /* \"#utility.yul\":15619:15641   */\n      mstore\n        /* \"#utility.yul\":15409:15647   */\n      pop\n        /* \"#utility.yul\":15366:15647   */\n      pop\n      pop\n      jump\t// out\n        /* \"#utility.yul\":15653:15833   */\n    tag_356:\n        /* \"#utility.yul\":15701:15778   */\n      0x4e487b7100000000000000000000000000000000000000000000000000000000\n        /* \"#utility.yul\":15698:15699   */\n      0x00\n        /* \"#utility.yul\":15691:15779   */\n      mstore\n        /* \"#utility.yul\":15798:15802   */\n      0x11\n        /* \"#utility.yul\":15795:15796   */\n      0x04\n        /* \"#utility.yul\":15788:15803   */\n      mstore\n        /* \"#utility.yul\":15822:15826   */\n      0x24\n        /* \"#utility.yul\":15819:15820   */\n      0x00\n        /* \"#utility.yul\":15812:15827   */\n      revert\n        /* \"#utility.yul\":15839:16019   */\n    tag_375:\n        /* \"#utility.yul\":15887:15964   */\n      0x4e487b7100000000000000000000000000000000000000000000000000000000\n        /* \"#utility.yul\":15884:15885   */\n      0x00\n        /* \"#utility.yul\":15877:15965   */\n      mstore\n        /* \"#utility.yul\":15984:15988   */\n      0x22\n        /* \"#utility.yul\":15981:15982   */\n      0x04\n        /* \"#utility.yul\":15974:15989   */\n      mstore\n        /* \"#utility.yul\":16008:16012   */\n      0x24\n        /* \"#utility.yul\":16005:16006   */\n      0x00\n        /* \"#utility.yul\":15998:16013   */\n      revert\n        /* \"#utility.yul\":16025:16205   */\n    tag_347:\n        /* \"#utility.yul\":16073:16150   */\n      0x4e487b7100000000000000000000000000000000000000000000000000000000\n        /* \"#utility.yul\":16070:16071   */\n      0x00\n        /* \"#utility.yul\":16063:16151   */\n      mstore\n        /* \"#utility.yul\":16170:16174   */\n      0x41\n        /* \"#utility.yul\":16167:16168   */\n      0x04\n        /* \"#utility.yul\":16160:16175   */\n      mstore\n        /* \"#utility.yul\":16194:16198   */\n      0x24\n        /* \"#utility.yul\":16191:16192   */\n      0x00\n        /* \"#utility.yul\":16184:16199   */\n      revert\n        /* \"#utility.yul\":16211:16328   */\n    tag_209:\n        /* \"#utility.yul\":16320:16321   */\n      0x00\n        /* \"#utility.yul\":16317:16318   */\n      dup1\n        /* \"#utility.yul\":16310:16322   */\n      revert\n        /* \"#utility.yul\":16334:16451   */\n    tag_198:\n        /* \"#utility.yul\":16443:16444   */\n      0x00\n        /* \"#utility.yul\":16440:16441   */\n      dup1\n        /* \"#utility.yul\":16433:16445   */\n      revert\n        /* \"#utility.yul\":16457:16574   */\n    tag_237:\n        /* \"#utility.yul\":16566:16567   */\n      0x00\n        /* \"#utility.yul\":16563:16564   */\n      dup1\n        /* \"#utility.yul\":16556:16568   */\n      revert\n        /* \"#utility.yul\":16580:16697   */\n    tag_218:\n        /* \"#utility.yul\":16689:16690   */\n      0x00\n        /* \"#utility.yul\":16686:16687   */\n      dup1\n        /* \"#utility.yul\":16679:16691   */\n      revert\n        /* \"#utility.yul\":16703:16805   */\n    tag_265:\n        /* \"#utility.yul\":16744:16750   */\n      0x00\n        /* \"#utility.yul\":16795:16797   */\n      0x1f\n        /* \"#utility.yul\":16791:16798   */\n      not\n        /* \"#utility.yul\":16786:16788   */\n      0x1f\n        /* \"#utility.yul\":16779:16784   */\n      dup4\n        /* \"#utility.yul\":16775:16789   */\n      add\n        /* \"#utility.yul\":16771:16799   */\n      and\n        /* \"#utility.yul\":16761:16799   */\n      swap1\n      pop\n        /* \"#utility.yul\":16703:16805   */\n      swap2\n      swap1\n      pop\n      jump\t// out\n        /* \"#utility.yul\":16811:17033   */\n    tag_270:\n        /* \"#utility.yul\":16951:16985   */\n      0x45524332303a207472616e7366657220746f20746865207a65726f2061646472\n        /* \"#utility.yul\":16947:16948   */\n      0x00\n        /* \"#utility.yul\":16939:16945   */\n      dup3\n        /* \"#utility.yul\":16935:16949   */\n      add\n        /* \"#utility.yul\":16928:16986   */\n      mstore\n        /* \"#utility.yul\":17020:17025   */\n      0x6573730000000000000000000000000000000000000000000000000000000000\n        /* \"#utility.yul\":17015:17017   */\n      0x20\n        /* \"#utility.yul\":17007:17013   */\n      dup3\n        /* \"#utility.yul\":17003:17018   */\n      add\n        /* \"#utility.yul\":16996:17026   */\n      mstore\n        /* \"#utility.yul\":16811:17033   */\n      pop\n      jump\t// out\n        /* \"#utility.yul\":17039:17260   */\n    tag_275:\n        /* \"#utility.yul\":17179:17213   */\n      0x45524332303a20617070726f766520746f20746865207a65726f206164647265\n        /* \"#utility.yul\":17175:17176   */\n      0x00\n        /* \"#utility.yul\":17167:17173   */\n      dup3\n        /* \"#utility.yul\":17163:17177   */\n      add\n        /* \"#utility.yul\":17156:17214   */\n      mstore\n        /* \"#utility.yul\":17248:17252   */\n      0x7373000000000000000000000000000000000000000000000000000000000000\n        /* \"#utility.yul\":17243:17245   */\n      0x20\n        /* \"#utility.yul\":17235:17241   */\n      dup3\n        /* \"#utility.yul\":17231:17246   */\n      add\n        /* \"#utility.yul\":17224:17253   */\n      mstore\n        /* \"#utility.yul\":17039:17260   */\n      pop\n      jump\t// out\n        /* \"#utility.yul\":17266:17445   */\n    tag_280:\n        /* \"#utility.yul\":17406:17437   */\n      0x45524332303a20696e73756666696369656e7420616c6c6f77616e6365000000\n        /* \"#utility.yul\":17402:17403   */\n      0x00\n        /* \"#utility.yul\":17394:17400   */\n      dup3\n        /* \"#utility.yul\":17390:17404   */\n      add\n        /* \"#utility.yul\":17383:17438   */\n      mstore\n        /* \"#utility.yul\":17266:17445   */\n      pop\n      jump\t// out\n        /* \"#utility.yul\":17451:17676   */\n    tag_285:\n        /* \"#utility.yul\":17591:17625   */\n      0x45524332303a207472616e7366657220616d6f756e7420657863656564732062\n        /* \"#utility.yul\":17587:17588   */\n      0x00\n        /* \"#utility.yul\":17579:17585   */\n      dup3\n        /* \"#utility.yul\":17575:17589   */\n      add\n        /* \"#utility.yul\":17568:17626   */\n      mstore\n        /* \"#utility.yul\":17660:17668   */\n      0x616c616e63650000000000000000000000000000000000000000000000000000\n        /* \"#utility.yul\":17655:17657   */\n      0x20\n        /* \"#utility.yul\":17647:17653   */\n      dup3\n        /* \"#utility.yul\":17643:17658   */\n      add\n        /* \"#utility.yul\":17636:17669   */\n      mstore\n        /* \"#utility.yul\":17451:17676   */\n      pop\n      jump\t// out\n        /* \"#utility.yul\":17682:17906   */\n    tag_290:\n        /* \"#utility.yul\":17822:17856   */\n      0x45524332303a207472616e736665722066726f6d20746865207a65726f206164\n        /* \"#utility.yul\":17818:17819   */\n      0x00\n        /* \"#utility.yul\":17810:17816   */\n      dup3\n        /* \"#utility.yul\":17806:17820   */\n      add\n        /* \"#utility.yul\":17799:17857   */\n      mstore\n        /* \"#utility.yul\":17891:17898   */\n      0x6472657373000000000000000000000000000000000000000000000000000000\n        /* \"#utility.yul\":17886:17888   */\n      0x20\n        /* \"#utility.yul\":17878:17884   */\n      dup3\n        /* \"#utility.yul\":17874:17889   */\n      add\n        /* \"#utility.yul\":17867:17899   */\n      mstore\n        /* \"#utility.yul\":17682:17906   */\n      pop\n      jump\t// out\n        /* \"#utility.yul\":17912:18135   */\n    tag_295:\n        /* \"#utility.yul\":18052:18086   */\n      0x45524332303a20617070726f76652066726f6d20746865207a65726f20616464\n        /* \"#utility.yul\":18048:18049   */\n      0x00\n        /* \"#utility.yul\":18040:18046   */\n      dup3\n        /* \"#utility.yul\":18036:18050   */\n      add\n        /* \"#utility.yul\":18029:18087   */\n      mstore\n        /* \"#utility.yul\":18121:18127   */\n      0x7265737300000000000000000000000000000000000000000000000000000000\n        /* \"#utility.yul\":18116:18118   */\n      0x20\n        /* \"#utility.yul\":18108:18114   */\n      dup3\n        /* \"#utility.yul\":18104:18119   */\n      add\n        /* \"#utility.yul\":18097:18128   */\n      mstore\n        /* \"#utility.yul\":17912:18135   */\n      pop\n      jump\t// out\n        /* \"#utility.yul\":18141:18365   */\n    tag_300:\n        /* \"#utility.yul\":18281:18315   */\n      0x45524332303a2064656372656173656420616c6c6f77616e63652062656c6f77\n        /* \"#utility.yul\":18277:18278   */\n      0x00\n        /* \"#utility.yul\":18269:18275   */\n      dup3\n        /* \"#utility.yul\":18265:18279   */\n      add\n        /* \"#utility.yul\":18258:18316   */\n      mstore\n        /* \"#utility.yul\":18350:18357   */\n      0x207a65726f000000000000000000000000000000000000000000000000000000\n        /* \"#utility.yul\":18345:18347   */\n      0x20\n        /* \"#utility.yul\":18337:18343   */\n      dup3\n        /* \"#utility.yul\":18333:18348   */\n      add\n        /* \"#utility.yul\":18326:18358   */\n      mstore\n        /* \"#utility.yul\":18141:18365   */\n      pop\n      jump\t// out\n        /* \"#utility.yul\":18371:18493   */\n    tag_204:\n        /* \"#utility.yul\":18444:18468   */\n      tag_396\n        /* \"#utility.yul\":18462:18467   */\n      dup2\n        /* \"#utility.yul\":18444:18468   */\n      tag_357\n      jump\t// in\n    tag_396:\n        /* \"#utility.yul\":18437:18442   */\n      dup2\n        /* \"#utility.yul\":18434:18469   */\n      eq\n        /* \"#utility.yul\":18424:18487   */\n      tag_397\n      jumpi\n        /* \"#utility.yul\":18483:18484   */\n      0x00\n        /* \"#utility.yul\":18480:18481   */\n      dup1\n        /* \"#utility.yul\":18473:18485   */\n      revert\n        /* \"#utility.yul\":18424:18487   */\n    tag_397:\n        /* \"#utility.yul\":18371:18493   */\n      pop\n      jump\t// out\n        /* \"#utility.yul\":18499:18621   */\n    tag_214:\n        /* \"#utility.yul\":18572:18596   */\n      tag_399\n        /* \"#utility.yul\":18590:18595   */\n      dup2\n        /* \"#utility.yul\":18572:18596   */\n      tag_304\n      jump\t// in\n    tag_399:\n        /* \"#utility.yul\":18565:18570   */\n      dup2\n        /* \"#utility.yul\":18562:18597   */\n      eq\n        /* \"#utility.yul\":18552:18615   */\n      tag_400\n      jumpi\n        /* \"#utility.yul\":18611:18612   */\n      0x00\n        /* \"#utility.yul\":18608:18609   */\n      dup1\n        /* \"#utility.yul\":18601:18613   */\n      revert\n        /* \"#utility.yul\":18552:18615   */\n    tag_400:\n        /* \"#utility.yul\":18499:18621   */\n      pop\n      jump\t// out\n\n    auxdata: 0xa2646970667358221220ae3e318f7e8f4460c5cc6ae80276e87b6d4ee9729d3eda9a0f5690d6952d4ace64736f6c63430008070033\n}\n",
				"bytecode": {
					"linkReferences": {},
					"object": "60806040526d49f4a966d45cd522088f000000006005553480156200002357600080fd5b506040518060400160405280600481526020017f414a4f55000000000000000000000000000000000000000000000000000000008152506040518060400160405280600281526020017f414a00000000000000000000000000000000000000000000000000000000000081525081818160039080519060200190620000aa9291906200025a565b508060049080519060200190620000c39291906200025a565b505050620000da33600554620000e260201b60201c565b5050620004b6565b600073ffffffffffffffffffffffffffffffffffffffff168273ffffffffffffffffffffffffffffffffffffffff16141562000155576040517f08c379a00000000000000000000000000000000000000000000000000000000081526004016200014c9062000342565b60405180910390fd5b62000169600083836200025060201b60201c565b80600260008282546200017d919062000392565b92505081905550806000808473ffffffffffffffffffffffffffffffffffffffff1673ffffffffffffffffffffffffffffffffffffffff168152602001908152602001600020600082825401925050819055508173ffffffffffffffffffffffffffffffffffffffff16600073ffffffffffffffffffffffffffffffffffffffff167fddf252ad1be2c89b69c2b068fc378daa952ba7f163c4a11628f55a4df523b3ef8360405162000230919062000364565b60405180910390a36200024c600083836200025560201b60201c565b5050565b505050565b505050565b8280546200026890620003f9565b90600052602060002090601f0160209004810192826200028c5760008555620002d8565b82601f10620002a757805160ff1916838001178555620002d8565b82800160010185558215620002d8579182015b82811115620002d7578251825591602001919060010190620002ba565b5b509050620002e79190620002eb565b5090565b5b8082111562000306576000816000905550600101620002ec565b5090565b600062000319601f8362000381565b915062000326826200048d565b602082019050919050565b6200033c81620003ef565b82525050565b600060208201905081810360008301526200035d816200030a565b9050919050565b60006020820190506200037b600083018462000331565b92915050565b600082825260208201905092915050565b60006200039f82620003ef565b9150620003ac83620003ef565b9250827fffffffffffffffffffffffffffffffffffffffffffffffffffffffffffffffff03821115620003e457620003e36200042f565b5b828201905092915050565b6000819050919050565b600060028204905060018216806200041257607f821691505b602082108114156200042957620004286200045e565b5b50919050565b7f4e487b7100000000000000000000000000000000000000000000000000000000600052601160045260246000fd5b7f4e487b7100000000000000000000000000000000000000000000000000000000600052602260045260246000fd5b7f45524332303a206d696e7420746f20746865207a65726f206164647265737300600082015250565b611a6080620004c66000396000f3fe608060405234801561001057600080fd5b50600436106100ea5760003560e01c8063395093511161008c57806395d89b411161006657806395d89b4114610278578063a457c2d714610296578063a9059cbb146102c6578063dd62ed3e146102f6576100ea565b806339509351146101e357806370a08231146102135780638b9c657a14610243576100ea565b806318160ddd116100c857806318160ddd1461015957806323b872dd146101775780632ff2e9dc146101a7578063313ce567146101c5576100ea565b806306fdde03146100ef578063095ea7b31461010d5780630ebcbdb81461013d575b600080fd5b6100f7610326565b60405161010491906113d7565b60405180910390f35b61012760048036038101906101229190611221565b6103b8565b60405161013491906113bc565b60405180910390f35b61015760048036038101906101529190611140565b6103db565b005b6101616105c5565b60405161016e919061154f565b60405180910390f35b610191600480360381019061018c91906110ed565b6105cf565b60405161019e91906113bc565b60405180910390f35b6101af6105fe565b6040516101bc919061154f565b60405180910390f35b6101cd610604565b6040516101da919061156a565b60405180910390f35b6101fd60048036038101906101f89190611221565b61060d565b60405161020a91906113bc565b60405180910390f35b61022d60048036038101906102289190611080565b610644565b60405161023a919061154f565b60405180910390f35b61025d60048036038101906102589190611080565b61068c565b60405161026f969594939291906113f9565b60405180910390f35b610280610860565b60405161028d91906113d7565b60405180910390f35b6102b060048036038101906102ab9190611221565b6108f2565b6040516102bd91906113bc565b60405180910390f35b6102e060048036038101906102db9190611221565b610969565b6040516102ed91906113bc565b60405180910390f35b610310600480360381019061030b91906110ad565b6109db565b60405161031d919061154f565b60405180910390f35b606060038054610335906116e4565b80601f0160208091040260200160405190810160405280929190818152602001828054610361906116e4565b80156103ae5780601f10610383576101008083540402835291602001916103ae565b820191906000526020600020905b81548152906001019060200180831161039157829003601f168201915b5050505050905090565b6000806103c3610a62565b90506103d0818585610a6a565b600191505092915050565b84600760008873ffffffffffffffffffffffffffffffffffffffff1673ffffffffffffffffffffffffffffffffffffffff1681526020019081526020016000206000019080519060200190610431929190610f43565b5083600760008873ffffffffffffffffffffffffffffffffffffffff1673ffffffffffffffffffffffffffffffffffffffff1681526020019081526020016000206001018190555082600760008873ffffffffffffffffffffffffffffffffffffffff1673ffffffffffffffffffffffffffffffffffffffff16815260200190815260200160002060020190805190602001906104cf929190610f43565b5081600760008873ffffffffffffffffffffffffffffffffffffffff1673ffffffffffffffffffffffffffffffffffffffff1681526020019081526020016000206003018190555080600760008873ffffffffffffffffffffffffffffffffffffffff1673ffffffffffffffffffffffffffffffffffffffff168152602001908152602001600020600401908051906020019061056d929190610f43565b5061057786610644565b600760008873ffffffffffffffffffffffffffffffffffffffff1673ffffffffffffffffffffffffffffffffffffffff16815260200190815260200160002060050181905550505050505050565b6000600254905090565b6000806105da610a62565b90506105e7858285610c35565b6105f2858585610cc1565b60019150509392505050565b60055481565b60006012905090565b600080610618610a62565b905061063981858561062a85896109db565b61063491906115f7565b610a6a565b600191505092915050565b60008060008373ffffffffffffffffffffffffffffffffffffffff1673ffffffffffffffffffffffffffffffffffffffff168152602001908152602001600020549050919050565b60076020528060005260406000206000915090508060000180546106af906116e4565b80601f01602080910402602001604051908101604052809291908181526020018280546106db906116e4565b80156107285780601f106106fd57610100808354040283529160200191610728565b820191906000526020600020905b81548152906001019060200180831161070b57829003601f168201915b505050505090806001015490806002018054610743906116e4565b80601f016020809104026020016040519081016040528092919081815260200182805461076f906116e4565b80156107bc5780601f10610791576101008083540402835291602001916107bc565b820191906000526020600020905b81548152906001019060200180831161079f57829003601f168201915b5050505050908060030154908060040180546107d7906116e4565b80601f0160208091040260200160405190810160405280929190818152602001828054610803906116e4565b80156108505780601f1061082557610100808354040283529160200191610850565b820191906000526020600020905b81548152906001019060200180831161083357829003601f168201915b5050505050908060050154905086565b60606004805461086f906116e4565b80601f016020809104026020016040519081016040528092919081815260200182805461089b906116e4565b80156108e85780601f106108bd576101008083540402835291602001916108e8565b820191906000526020600020905b8154815290600101906020018083116108cb57829003601f168201915b5050505050905090565b6000806108fd610a62565b9050600061090b82866109db565b905083811015610950576040517f08c379a00000000000000000000000000000000000000000000000000000000081526004016109479061152f565b60405180910390fd5b61095d8286868403610a6a565b60019250505092915050565b600080610974610a62565b9050610981818585610cc1565b61098a84610644565b600760008673ffffffffffffffffffffffffffffffffffffffff1673ffffffffffffffffffffffffffffffffffffffff16815260200190815260200160002060050181905550600191505092915050565b6000600160008473ffffffffffffffffffffffffffffffffffffffff1673ffffffffffffffffffffffffffffffffffffffff16815260200190815260200160002060008373ffffffffffffffffffffffffffffffffffffffff1673ffffffffffffffffffffffffffffffffffffffff16815260200190815260200160002054905092915050565b600033905090565b600073ffffffffffffffffffffffffffffffffffffffff168373ffffffffffffffffffffffffffffffffffffffff161415610ada576040517f08c379a0000000000000000000000000000000000000000000000000000000008152600401610ad19061150f565b60405180910390fd5b600073ffffffffffffffffffffffffffffffffffffffff168273ffffffffffffffffffffffffffffffffffffffff161415610b4a576040517f08c379a0000000000000000000000000000000000000000000000000000000008152600401610b419061148f565b60405180910390fd5b80600160008573ffffffffffffffffffffffffffffffffffffffff1673ffffffffffffffffffffffffffffffffffffffff16815260200190815260200160002060008473ffffffffffffffffffffffffffffffffffffffff1673ffffffffffffffffffffffffffffffffffffffff168152602001908152602001600020819055508173ffffffffffffffffffffffffffffffffffffffff168373ffffffffffffffffffffffffffffffffffffffff167f8c5be1e5ebec7d5bd14f71427d1e84f3dd0314c0f7b2291e5b200ac8c7c3b92583604051610c28919061154f565b60405180910390a3505050565b6000610c4184846109db565b90507fffffffffffffffffffffffffffffffffffffffffffffffffffffffffffffffff8114610cbb5781811015610cad576040517f08c379a0000000000000000000000000000000000000000000000000000000008152600401610ca4906114af565b60405180910390fd5b610cba8484848403610a6a565b5b50505050565b600073ffffffffffffffffffffffffffffffffffffffff168373ffffffffffffffffffffffffffffffffffffffff161415610d31576040517f08c379a0000000000000000000000000000000000000000000000000000000008152600401610d28906114ef565b60405180910390fd5b600073ffffffffffffffffffffffffffffffffffffffff168273ffffffffffffffffffffffffffffffffffffffff161415610da1576040517f08c379a0000000000000000000000000000000000000000000000000000000008152600401610d989061146f565b60405180910390fd5b610dac838383610f39565b60008060008573ffffffffffffffffffffffffffffffffffffffff1673ffffffffffffffffffffffffffffffffffffffff16815260200190815260200160002054905081811015610e32576040517f08c379a0000000000000000000000000000000000000000000000000000000008152600401610e29906114cf565b60405180910390fd5b8181036000808673ffffffffffffffffffffffffffffffffffffffff1673ffffffffffffffffffffffffffffffffffffffff16815260200190815260200160002081905550816000808573ffffffffffffffffffffffffffffffffffffffff1673ffffffffffffffffffffffffffffffffffffffff168152602001908152602001600020600082825401925050819055508273ffffffffffffffffffffffffffffffffffffffff168473ffffffffffffffffffffffffffffffffffffffff167fddf252ad1be2c89b69c2b068fc378daa952ba7f163c4a11628f55a4df523b3ef84604051610f20919061154f565b60405180910390a3610f33848484610f3e565b50505050565b505050565b505050565b828054610f4f906116e4565b90600052602060002090601f016020900481019282610f715760008555610fb8565b82601f10610f8a57805160ff1916838001178555610fb8565b82800160010185558215610fb8579182015b82811115610fb7578251825591602001919060010190610f9c565b5b509050610fc59190610fc9565b5090565b5b80821115610fe2576000816000905550600101610fca565b5090565b6000610ff9610ff4846115aa565b611585565b905082815260208101848484011115611015576110146117d9565b5b6110208482856116a2565b509392505050565b600081359050611037816119fc565b92915050565b600082601f830112611052576110516117d4565b5b8135611062848260208601610fe6565b91505092915050565b60008135905061107a81611a13565b92915050565b600060208284031215611096576110956117e3565b5b60006110a484828501611028565b91505092915050565b600080604083850312156110c4576110c36117e3565b5b60006110d285828601611028565b92505060206110e385828601611028565b9150509250929050565b600080600060608486031215611106576111056117e3565b5b600061111486828701611028565b935050602061112586828701611028565b92505060406111368682870161106b565b9150509250925092565b60008060008060008060c0878903121561115d5761115c6117e3565b5b600061116b89828a01611028565b965050602087013567ffffffffffffffff81111561118c5761118b6117de565b5b61119889828a0161103d565b95505060406111a989828a0161106b565b945050606087013567ffffffffffffffff8111156111ca576111c96117de565b5b6111d689828a0161103d565b93505060806111e789828a0161106b565b92505060a087013567ffffffffffffffff811115611208576112076117de565b5b61121489828a0161103d565b9150509295509295509295565b60008060408385031215611238576112376117e3565b5b600061124685828601611028565b92505060206112578582860161106b565b9150509250929050565b61126a8161165f565b82525050565b600061127b826115db565b61128581856115e6565b93506112958185602086016116b1565b61129e816117e8565b840191505092915050565b60006112b66023836115e6565b91506112c1826117f9565b604082019050919050565b60006112d96022836115e6565b91506112e482611848565b604082019050919050565b60006112fc601d836115e6565b915061130782611897565b602082019050919050565b600061131f6026836115e6565b915061132a826118c0565b604082019050919050565b60006113426025836115e6565b915061134d8261190f565b604082019050919050565b60006113656024836115e6565b91506113708261195e565b604082019050919050565b60006113886025836115e6565b9150611393826119ad565b604082019050919050565b6113a78161168b565b82525050565b6113b681611695565b82525050565b60006020820190506113d16000830184611261565b92915050565b600060208201905081810360008301526113f18184611270565b905092915050565b600060c08201905081810360008301526114138189611270565b9050611422602083018861139e565b81810360408301526114348187611270565b9050611443606083018661139e565b81810360808301526114558185611270565b905061146460a083018461139e565b979650505050505050565b60006020820190508181036000830152611488816112a9565b9050919050565b600060208201905081810360008301526114a8816112cc565b9050919050565b600060208201905081810360008301526114c8816112ef565b9050919050565b600060208201905081810360008301526114e881611312565b9050919050565b6000602082019050818103600083015261150881611335565b9050919050565b6000602082019050818103600083015261152881611358565b9050919050565b600060208201905081810360008301526115488161137b565b9050919050565b6000602082019050611564600083018461139e565b92915050565b600060208201905061157f60008301846113ad565b92915050565b600061158f6115a0565b905061159b8282611716565b919050565b6000604051905090565b600067ffffffffffffffff8211156115c5576115c46117a5565b5b6115ce826117e8565b9050602081019050919050565b600081519050919050565b600082825260208201905092915050565b60006116028261168b565b915061160d8361168b565b9250827fffffffffffffffffffffffffffffffffffffffffffffffffffffffffffffffff0382111561164257611641611747565b5b828201905092915050565b60006116588261166b565b9050919050565b60008115159050919050565b600073ffffffffffffffffffffffffffffffffffffffff82169050919050565b6000819050919050565b600060ff82169050919050565b82818337600083830152505050565b60005b838110156116cf5780820151818401526020810190506116b4565b838111156116de576000848401525b50505050565b600060028204905060018216806116fc57607f821691505b602082108114156117105761170f611776565b5b50919050565b61171f826117e8565b810181811067ffffffffffffffff8211171561173e5761173d6117a5565b5b80604052505050565b7f4e487b7100000000000000000000000000000000000000000000000000000000600052601160045260246000fd5b7f4e487b7100000000000000000000000000000000000000000000000000000000600052602260045260246000fd5b7f4e487b7100000000000000000000000000000000000000000000000000000000600052604160045260246000fd5b600080fd5b600080fd5b600080fd5b600080fd5b6000601f19601f8301169050919050565b7f45524332303a207472616e7366657220746f20746865207a65726f206164647260008201527f6573730000000000000000000000000000000000000000000000000000000000602082015250565b7f45524332303a20617070726f766520746f20746865207a65726f20616464726560008201527f7373000000000000000000000000000000000000000000000000000000000000602082015250565b7f45524332303a20696e73756666696369656e7420616c6c6f77616e6365000000600082015250565b7f45524332303a207472616e7366657220616d6f756e742065786365656473206260008201527f616c616e63650000000000000000000000000000000000000000000000000000602082015250565b7f45524332303a207472616e736665722066726f6d20746865207a65726f20616460008201527f6472657373000000000000000000000000000000000000000000000000000000602082015250565b7f45524332303a20617070726f76652066726f6d20746865207a65726f2061646460008201527f7265737300000000000000000000000000000000000000000000000000000000602082015250565b7f45524332303a2064656372656173656420616c6c6f77616e63652062656c6f7760008201527f207a65726f000000000000000000000000000000000000000000000000000000602082015250565b611a058161164d565b8114611a1057600080fd5b50565b611a1c8161168b565b8114611a2757600080fd5b5056fea2646970667358221220ae3e318f7e8f4460c5cc6ae80276e87b6d4ee9729d3eda9a0f5690d6952d4ace64736f6c63430008070033",
					"opcodes": "PUSH1 0x80 PUSH1 0x40 MSTORE PUSH14 0x49F4A966D45CD522088F00000000 PUSH1 0x5 SSTORE CALLVALUE DUP1 ISZERO PUSH3 0x23 JUMPI PUSH1 0x0 DUP1 REVERT JUMPDEST POP PUSH1 0x40 MLOAD DUP1 PUSH1 0x40 ADD PUSH1 0x40 MSTORE DUP1 PUSH1 0x4 DUP2 MSTORE PUSH1 0x20 ADD PUSH32 0x414A4F5500000000000000000000000000000000000000000000000000000000 DUP2 MSTORE POP PUSH1 0x40 MLOAD DUP1 PUSH1 0x40 ADD PUSH1 0x40 MSTORE DUP1 PUSH1 0x2 DUP2 MSTORE PUSH1 0x20 ADD PUSH32 0x414A000000000000000000000000000000000000000000000000000000000000 DUP2 MSTORE POP DUP2 DUP2 DUP2 PUSH1 0x3 SWAP1 DUP1 MLOAD SWAP1 PUSH1 0x20 ADD SWAP1 PUSH3 0xAA SWAP3 SWAP2 SWAP1 PUSH3 0x25A JUMP JUMPDEST POP DUP1 PUSH1 0x4 SWAP1 DUP1 MLOAD SWAP1 PUSH1 0x20 ADD SWAP1 PUSH3 0xC3 SWAP3 SWAP2 SWAP1 PUSH3 0x25A JUMP JUMPDEST POP POP POP PUSH3 0xDA CALLER PUSH1 0x5 SLOAD PUSH3 0xE2 PUSH1 0x20 SHL PUSH1 0x20 SHR JUMP JUMPDEST POP POP PUSH3 0x4B6 JUMP JUMPDEST PUSH1 0x0 PUSH20 0xFFFFFFFFFFFFFFFFFFFFFFFFFFFFFFFFFFFFFFFF AND DUP3 PUSH20 0xFFFFFFFFFFFFFFFFFFFFFFFFFFFFFFFFFFFFFFFF AND EQ ISZERO PUSH3 0x155 JUMPI PUSH1 0x40 MLOAD PUSH32 0x8C379A000000000000000000000000000000000000000000000000000000000 DUP2 MSTORE PUSH1 0x4 ADD PUSH3 0x14C SWAP1 PUSH3 0x342 JUMP JUMPDEST PUSH1 0x40 MLOAD DUP1 SWAP2 SUB SWAP1 REVERT JUMPDEST PUSH3 0x169 PUSH1 0x0 DUP4 DUP4 PUSH3 0x250 PUSH1 0x20 SHL PUSH1 0x20 SHR JUMP JUMPDEST DUP1 PUSH1 0x2 PUSH1 0x0 DUP3 DUP3 SLOAD PUSH3 0x17D SWAP2 SWAP1 PUSH3 0x392 JUMP JUMPDEST SWAP3 POP POP DUP2 SWAP1 SSTORE POP DUP1 PUSH1 0x0 DUP1 DUP5 PUSH20 0xFFFFFFFFFFFFFFFFFFFFFFFFFFFFFFFFFFFFFFFF AND PUSH20 0xFFFFFFFFFFFFFFFFFFFFFFFFFFFFFFFFFFFFFFFF AND DUP2 MSTORE PUSH1 0x20 ADD SWAP1 DUP2 MSTORE PUSH1 0x20 ADD PUSH1 0x0 KECCAK256 PUSH1 0x0 DUP3 DUP3 SLOAD ADD SWAP3 POP POP DUP2 SWAP1 SSTORE POP DUP2 PUSH20 0xFFFFFFFFFFFFFFFFFFFFFFFFFFFFFFFFFFFFFFFF AND PUSH1 0x0 PUSH20 0xFFFFFFFFFFFFFFFFFFFFFFFFFFFFFFFFFFFFFFFF AND PUSH32 0xDDF252AD1BE2C89B69C2B068FC378DAA952BA7F163C4A11628F55A4DF523B3EF DUP4 PUSH1 0x40 MLOAD PUSH3 0x230 SWAP2 SWAP1 PUSH3 0x364 JUMP JUMPDEST PUSH1 0x40 MLOAD DUP1 SWAP2 SUB SWAP1 LOG3 PUSH3 0x24C PUSH1 0x0 DUP4 DUP4 PUSH3 0x255 PUSH1 0x20 SHL PUSH1 0x20 SHR JUMP JUMPDEST POP POP JUMP JUMPDEST POP POP POP JUMP JUMPDEST POP POP POP JUMP JUMPDEST DUP3 DUP1 SLOAD PUSH3 0x268 SWAP1 PUSH3 0x3F9 JUMP JUMPDEST SWAP1 PUSH1 0x0 MSTORE PUSH1 0x20 PUSH1 0x0 KECCAK256 SWAP1 PUSH1 0x1F ADD PUSH1 0x20 SWAP1 DIV DUP2 ADD SWAP3 DUP3 PUSH3 0x28C JUMPI PUSH1 0x0 DUP6 SSTORE PUSH3 0x2D8 JUMP JUMPDEST DUP3 PUSH1 0x1F LT PUSH3 0x2A7 JUMPI DUP1 MLOAD PUSH1 0xFF NOT AND DUP4 DUP1 ADD OR DUP6 SSTORE PUSH3 0x2D8 JUMP JUMPDEST DUP3 DUP1 ADD PUSH1 0x1 ADD DUP6 SSTORE DUP3 ISZERO PUSH3 0x2D8 JUMPI SWAP2 DUP3 ADD JUMPDEST DUP3 DUP2 GT ISZERO PUSH3 0x2D7 JUMPI DUP3 MLOAD DUP3 SSTORE SWAP2 PUSH1 0x20 ADD SWAP2 SWAP1 PUSH1 0x1 ADD SWAP1 PUSH3 0x2BA JUMP JUMPDEST JUMPDEST POP SWAP1 POP PUSH3 0x2E7 SWAP2 SWAP1 PUSH3 0x2EB JUMP JUMPDEST POP SWAP1 JUMP JUMPDEST JUMPDEST DUP1 DUP3 GT ISZERO PUSH3 0x306 JUMPI PUSH1 0x0 DUP2 PUSH1 0x0 SWAP1 SSTORE POP PUSH1 0x1 ADD PUSH3 0x2EC JUMP JUMPDEST POP SWAP1 JUMP JUMPDEST PUSH1 0x0 PUSH3 0x319 PUSH1 0x1F DUP4 PUSH3 0x381 JUMP JUMPDEST SWAP2 POP PUSH3 0x326 DUP3 PUSH3 0x48D JUMP JUMPDEST PUSH1 0x20 DUP3 ADD SWAP1 POP SWAP2 SWAP1 POP JUMP JUMPDEST PUSH3 0x33C DUP2 PUSH3 0x3EF JUMP JUMPDEST DUP3 MSTORE POP POP JUMP JUMPDEST PUSH1 0x0 PUSH1 0x20 DUP3 ADD SWAP1 POP DUP2 DUP2 SUB PUSH1 0x0 DUP4 ADD MSTORE PUSH3 0x35D DUP2 PUSH3 0x30A JUMP JUMPDEST SWAP1 POP SWAP2 SWAP1 POP JUMP JUMPDEST PUSH1 0x0 PUSH1 0x20 DUP3 ADD SWAP1 POP PUSH3 0x37B PUSH1 0x0 DUP4 ADD DUP5 PUSH3 0x331 JUMP JUMPDEST SWAP3 SWAP2 POP POP JUMP JUMPDEST PUSH1 0x0 DUP3 DUP3 MSTORE PUSH1 0x20 DUP3 ADD SWAP1 POP SWAP3 SWAP2 POP POP JUMP JUMPDEST PUSH1 0x0 PUSH3 0x39F DUP3 PUSH3 0x3EF JUMP JUMPDEST SWAP2 POP PUSH3 0x3AC DUP4 PUSH3 0x3EF JUMP JUMPDEST SWAP3 POP DUP3 PUSH32 0xFFFFFFFFFFFFFFFFFFFFFFFFFFFFFFFFFFFFFFFFFFFFFFFFFFFFFFFFFFFFFFFF SUB DUP3 GT ISZERO PUSH3 0x3E4 JUMPI PUSH3 0x3E3 PUSH3 0x42F JUMP JUMPDEST JUMPDEST DUP3 DUP3 ADD SWAP1 POP SWAP3 SWAP2 POP POP JUMP JUMPDEST PUSH1 0x0 DUP2 SWAP1 POP SWAP2 SWAP1 POP JUMP JUMPDEST PUSH1 0x0 PUSH1 0x2 DUP3 DIV SWAP1 POP PUSH1 0x1 DUP3 AND DUP1 PUSH3 0x412 JUMPI PUSH1 0x7F DUP3 AND SWAP2 POP JUMPDEST PUSH1 0x20 DUP3 LT DUP2 EQ ISZERO PUSH3 0x429 JUMPI PUSH3 0x428 PUSH3 0x45E JUMP JUMPDEST JUMPDEST POP SWAP2 SWAP1 POP JUMP JUMPDEST PUSH32 0x4E487B7100000000000000000000000000000000000000000000000000000000 PUSH1 0x0 MSTORE PUSH1 0x11 PUSH1 0x4 MSTORE PUSH1 0x24 PUSH1 0x0 REVERT JUMPDEST PUSH32 0x4E487B7100000000000000000000000000000000000000000000000000000000 PUSH1 0x0 MSTORE PUSH1 0x22 PUSH1 0x4 MSTORE PUSH1 0x24 PUSH1 0x0 REVERT JUMPDEST PUSH32 0x45524332303A206D696E7420746F20746865207A65726F206164647265737300 PUSH1 0x0 DUP3 ADD MSTORE POP JUMP JUMPDEST PUSH2 0x1A60 DUP1 PUSH3 0x4C6 PUSH1 0x0 CODECOPY PUSH1 0x0 RETURN INVALID PUSH1 0x80 PUSH1 0x40 MSTORE CALLVALUE DUP1 ISZERO PUSH2 0x10 JUMPI PUSH1 0x0 DUP1 REVERT JUMPDEST POP PUSH1 0x4 CALLDATASIZE LT PUSH2 0xEA JUMPI PUSH1 0x0 CALLDATALOAD PUSH1 0xE0 SHR DUP1 PUSH4 0x39509351 GT PUSH2 0x8C JUMPI DUP1 PUSH4 0x95D89B41 GT PUSH2 0x66 JUMPI DUP1 PUSH4 0x95D89B41 EQ PUSH2 0x278 JUMPI DUP1 PUSH4 0xA457C2D7 EQ PUSH2 0x296 JUMPI DUP1 PUSH4 0xA9059CBB EQ PUSH2 0x2C6 JUMPI DUP1 PUSH4 0xDD62ED3E EQ PUSH2 0x2F6 JUMPI PUSH2 0xEA JUMP JUMPDEST DUP1 PUSH4 0x39509351 EQ PUSH2 0x1E3 JUMPI DUP1 PUSH4 0x70A08231 EQ PUSH2 0x213 JUMPI DUP1 PUSH4 0x8B9C657A EQ PUSH2 0x243 JUMPI PUSH2 0xEA JUMP JUMPDEST DUP1 PUSH4 0x18160DDD GT PUSH2 0xC8 JUMPI DUP1 PUSH4 0x18160DDD EQ PUSH2 0x159 JUMPI DUP1 PUSH4 0x23B872DD EQ PUSH2 0x177 JUMPI DUP1 PUSH4 0x2FF2E9DC EQ PUSH2 0x1A7 JUMPI DUP1 PUSH4 0x313CE567 EQ PUSH2 0x1C5 JUMPI PUSH2 0xEA JUMP JUMPDEST DUP1 PUSH4 0x6FDDE03 EQ PUSH2 0xEF JUMPI DUP1 PUSH4 0x95EA7B3 EQ PUSH2 0x10D JUMPI DUP1 PUSH4 0xEBCBDB8 EQ PUSH2 0x13D JUMPI JUMPDEST PUSH1 0x0 DUP1 REVERT JUMPDEST PUSH2 0xF7 PUSH2 0x326 JUMP JUMPDEST PUSH1 0x40 MLOAD PUSH2 0x104 SWAP2 SWAP1 PUSH2 0x13D7 JUMP JUMPDEST PUSH1 0x40 MLOAD DUP1 SWAP2 SUB SWAP1 RETURN JUMPDEST PUSH2 0x127 PUSH1 0x4 DUP1 CALLDATASIZE SUB DUP2 ADD SWAP1 PUSH2 0x122 SWAP2 SWAP1 PUSH2 0x1221 JUMP JUMPDEST PUSH2 0x3B8 JUMP JUMPDEST PUSH1 0x40 MLOAD PUSH2 0x134 SWAP2 SWAP1 PUSH2 0x13BC JUMP JUMPDEST PUSH1 0x40 MLOAD DUP1 SWAP2 SUB SWAP1 RETURN JUMPDEST PUSH2 0x157 PUSH1 0x4 DUP1 CALLDATASIZE SUB DUP2 ADD SWAP1 PUSH2 0x152 SWAP2 SWAP1 PUSH2 0x1140 JUMP JUMPDEST PUSH2 0x3DB JUMP JUMPDEST STOP JUMPDEST PUSH2 0x161 PUSH2 0x5C5 JUMP JUMPDEST PUSH1 0x40 MLOAD PUSH2 0x16E SWAP2 SWAP1 PUSH2 0x154F JUMP JUMPDEST PUSH1 0x40 MLOAD DUP1 SWAP2 SUB SWAP1 RETURN JUMPDEST PUSH2 0x191 PUSH1 0x4 DUP1 CALLDATASIZE SUB DUP2 ADD SWAP1 PUSH2 0x18C SWAP2 SWAP1 PUSH2 0x10ED JUMP JUMPDEST PUSH2 0x5CF JUMP JUMPDEST PUSH1 0x40 MLOAD PUSH2 0x19E SWAP2 SWAP1 PUSH2 0x13BC JUMP JUMPDEST PUSH1 0x40 MLOAD DUP1 SWAP2 SUB SWAP1 RETURN JUMPDEST PUSH2 0x1AF PUSH2 0x5FE JUMP JUMPDEST PUSH1 0x40 MLOAD PUSH2 0x1BC SWAP2 SWAP1 PUSH2 0x154F JUMP JUMPDEST PUSH1 0x40 MLOAD DUP1 SWAP2 SUB SWAP1 RETURN JUMPDEST PUSH2 0x1CD PUSH2 0x604 JUMP JUMPDEST PUSH1 0x40 MLOAD PUSH2 0x1DA SWAP2 SWAP1 PUSH2 0x156A JUMP JUMPDEST PUSH1 0x40 MLOAD DUP1 SWAP2 SUB SWAP1 RETURN JUMPDEST PUSH2 0x1FD PUSH1 0x4 DUP1 CALLDATASIZE SUB DUP2 ADD SWAP1 PUSH2 0x1F8 SWAP2 SWAP1 PUSH2 0x1221 JUMP JUMPDEST PUSH2 0x60D JUMP JUMPDEST PUSH1 0x40 MLOAD PUSH2 0x20A SWAP2 SWAP1 PUSH2 0x13BC JUMP JUMPDEST PUSH1 0x40 MLOAD DUP1 SWAP2 SUB SWAP1 RETURN JUMPDEST PUSH2 0x22D PUSH1 0x4 DUP1 CALLDATASIZE SUB DUP2 ADD SWAP1 PUSH2 0x228 SWAP2 SWAP1 PUSH2 0x1080 JUMP JUMPDEST PUSH2 0x644 JUMP JUMPDEST PUSH1 0x40 MLOAD PUSH2 0x23A SWAP2 SWAP1 PUSH2 0x154F JUMP JUMPDEST PUSH1 0x40 MLOAD DUP1 SWAP2 SUB SWAP1 RETURN JUMPDEST PUSH2 0x25D PUSH1 0x4 DUP1 CALLDATASIZE SUB DUP2 ADD SWAP1 PUSH2 0x258 SWAP2 SWAP1 PUSH2 0x1080 JUMP JUMPDEST PUSH2 0x68C JUMP JUMPDEST PUSH1 0x40 MLOAD PUSH2 0x26F SWAP7 SWAP6 SWAP5 SWAP4 SWAP3 SWAP2 SWAP1 PUSH2 0x13F9 JUMP JUMPDEST PUSH1 0x40 MLOAD DUP1 SWAP2 SUB SWAP1 RETURN JUMPDEST PUSH2 0x280 PUSH2 0x860 JUMP JUMPDEST PUSH1 0x40 MLOAD PUSH2 0x28D SWAP2 SWAP1 PUSH2 0x13D7 JUMP JUMPDEST PUSH1 0x40 MLOAD DUP1 SWAP2 SUB SWAP1 RETURN JUMPDEST PUSH2 0x2B0 PUSH1 0x4 DUP1 CALLDATASIZE SUB DUP2 ADD SWAP1 PUSH2 0x2AB SWAP2 SWAP1 PUSH2 0x1221 JUMP JUMPDEST PUSH2 0x8F2 JUMP JUMPDEST PUSH1 0x40 MLOAD PUSH2 0x2BD SWAP2 SWAP1 PUSH2 0x13BC JUMP JUMPDEST PUSH1 0x40 MLOAD DUP1 SWAP2 SUB SWAP1 RETURN JUMPDEST PUSH2 0x2E0 PUSH1 0x4 DUP1 CALLDATASIZE SUB DUP2 ADD SWAP1 PUSH2 0x2DB SWAP2 SWAP1 PUSH2 0x1221 JUMP JUMPDEST PUSH2 0x969 JUMP JUMPDEST PUSH1 0x40 MLOAD PUSH2 0x2ED SWAP2 SWAP1 PUSH2 0x13BC JUMP JUMPDEST PUSH1 0x40 MLOAD DUP1 SWAP2 SUB SWAP1 RETURN JUMPDEST PUSH2 0x310 PUSH1 0x4 DUP1 CALLDATASIZE SUB DUP2 ADD SWAP1 PUSH2 0x30B SWAP2 SWAP1 PUSH2 0x10AD JUMP JUMPDEST PUSH2 0x9DB JUMP JUMPDEST PUSH1 0x40 MLOAD PUSH2 0x31D SWAP2 SWAP1 PUSH2 0x154F JUMP JUMPDEST PUSH1 0x40 MLOAD DUP1 SWAP2 SUB SWAP1 RETURN JUMPDEST PUSH1 0x60 PUSH1 0x3 DUP1 SLOAD PUSH2 0x335 SWAP1 PUSH2 0x16E4 JUMP JUMPDEST DUP1 PUSH1 0x1F ADD PUSH1 0x20 DUP1 SWAP2 DIV MUL PUSH1 0x20 ADD PUSH1 0x40 MLOAD SWAP1 DUP2 ADD PUSH1 0x40 MSTORE DUP1 SWAP3 SWAP2 SWAP1 DUP2 DUP2 MSTORE PUSH1 0x20 ADD DUP3 DUP1 SLOAD PUSH2 0x361 SWAP1 PUSH2 0x16E4 JUMP JUMPDEST DUP1 ISZERO PUSH2 0x3AE JUMPI DUP1 PUSH1 0x1F LT PUSH2 0x383 JUMPI PUSH2 0x100 DUP1 DUP4 SLOAD DIV MUL DUP4 MSTORE SWAP2 PUSH1 0x20 ADD SWAP2 PUSH2 0x3AE JUMP JUMPDEST DUP3 ADD SWAP2 SWAP1 PUSH1 0x0 MSTORE PUSH1 0x20 PUSH1 0x0 KECCAK256 SWAP1 JUMPDEST DUP2 SLOAD DUP2 MSTORE SWAP1 PUSH1 0x1 ADD SWAP1 PUSH1 0x20 ADD DUP1 DUP4 GT PUSH2 0x391 JUMPI DUP3 SWAP1 SUB PUSH1 0x1F AND DUP3 ADD SWAP2 JUMPDEST POP POP POP POP POP SWAP1 POP SWAP1 JUMP JUMPDEST PUSH1 0x0 DUP1 PUSH2 0x3C3 PUSH2 0xA62 JUMP JUMPDEST SWAP1 POP PUSH2 0x3D0 DUP2 DUP6 DUP6 PUSH2 0xA6A JUMP JUMPDEST PUSH1 0x1 SWAP2 POP POP SWAP3 SWAP2 POP POP JUMP JUMPDEST DUP5 PUSH1 0x7 PUSH1 0x0 DUP9 PUSH20 0xFFFFFFFFFFFFFFFFFFFFFFFFFFFFFFFFFFFFFFFF AND PUSH20 0xFFFFFFFFFFFFFFFFFFFFFFFFFFFFFFFFFFFFFFFF AND DUP2 MSTORE PUSH1 0x20 ADD SWAP1 DUP2 MSTORE PUSH1 0x20 ADD PUSH1 0x0 KECCAK256 PUSH1 0x0 ADD SWAP1 DUP1 MLOAD SWAP1 PUSH1 0x20 ADD SWAP1 PUSH2 0x431 SWAP3 SWAP2 SWAP1 PUSH2 0xF43 JUMP JUMPDEST POP DUP4 PUSH1 0x7 PUSH1 0x0 DUP9 PUSH20 0xFFFFFFFFFFFFFFFFFFFFFFFFFFFFFFFFFFFFFFFF AND PUSH20 0xFFFFFFFFFFFFFFFFFFFFFFFFFFFFFFFFFFFFFFFF AND DUP2 MSTORE PUSH1 0x20 ADD SWAP1 DUP2 MSTORE PUSH1 0x20 ADD PUSH1 0x0 KECCAK256 PUSH1 0x1 ADD DUP2 SWAP1 SSTORE POP DUP3 PUSH1 0x7 PUSH1 0x0 DUP9 PUSH20 0xFFFFFFFFFFFFFFFFFFFFFFFFFFFFFFFFFFFFFFFF AND PUSH20 0xFFFFFFFFFFFFFFFFFFFFFFFFFFFFFFFFFFFFFFFF AND DUP2 MSTORE PUSH1 0x20 ADD SWAP1 DUP2 MSTORE PUSH1 0x20 ADD PUSH1 0x0 KECCAK256 PUSH1 0x2 ADD SWAP1 DUP1 MLOAD SWAP1 PUSH1 0x20 ADD SWAP1 PUSH2 0x4CF SWAP3 SWAP2 SWAP1 PUSH2 0xF43 JUMP JUMPDEST POP DUP2 PUSH1 0x7 PUSH1 0x0 DUP9 PUSH20 0xFFFFFFFFFFFFFFFFFFFFFFFFFFFFFFFFFFFFFFFF AND PUSH20 0xFFFFFFFFFFFFFFFFFFFFFFFFFFFFFFFFFFFFFFFF AND DUP2 MSTORE PUSH1 0x20 ADD SWAP1 DUP2 MSTORE PUSH1 0x20 ADD PUSH1 0x0 KECCAK256 PUSH1 0x3 ADD DUP2 SWAP1 SSTORE POP DUP1 PUSH1 0x7 PUSH1 0x0 DUP9 PUSH20 0xFFFFFFFFFFFFFFFFFFFFFFFFFFFFFFFFFFFFFFFF AND PUSH20 0xFFFFFFFFFFFFFFFFFFFFFFFFFFFFFFFFFFFFFFFF AND DUP2 MSTORE PUSH1 0x20 ADD SWAP1 DUP2 MSTORE PUSH1 0x20 ADD PUSH1 0x0 KECCAK256 PUSH1 0x4 ADD SWAP1 DUP1 MLOAD SWAP1 PUSH1 0x20 ADD SWAP1 PUSH2 0x56D SWAP3 SWAP2 SWAP1 PUSH2 0xF43 JUMP JUMPDEST POP PUSH2 0x577 DUP7 PUSH2 0x644 JUMP JUMPDEST PUSH1 0x7 PUSH1 0x0 DUP9 PUSH20 0xFFFFFFFFFFFFFFFFFFFFFFFFFFFFFFFFFFFFFFFF AND PUSH20 0xFFFFFFFFFFFFFFFFFFFFFFFFFFFFFFFFFFFFFFFF AND DUP2 MSTORE PUSH1 0x20 ADD SWAP1 DUP2 MSTORE PUSH1 0x20 ADD PUSH1 0x0 KECCAK256 PUSH1 0x5 ADD DUP2 SWAP1 SSTORE POP POP POP POP POP POP POP JUMP JUMPDEST PUSH1 0x0 PUSH1 0x2 SLOAD SWAP1 POP SWAP1 JUMP JUMPDEST PUSH1 0x0 DUP1 PUSH2 0x5DA PUSH2 0xA62 JUMP JUMPDEST SWAP1 POP PUSH2 0x5E7 DUP6 DUP3 DUP6 PUSH2 0xC35 JUMP JUMPDEST PUSH2 0x5F2 DUP6 DUP6 DUP6 PUSH2 0xCC1 JUMP JUMPDEST PUSH1 0x1 SWAP2 POP POP SWAP4 SWAP3 POP POP POP JUMP JUMPDEST PUSH1 0x5 SLOAD DUP2 JUMP JUMPDEST PUSH1 0x0 PUSH1 0x12 SWAP1 POP SWAP1 JUMP JUMPDEST PUSH1 0x0 DUP1 PUSH2 0x618 PUSH2 0xA62 JUMP JUMPDEST SWAP1 POP PUSH2 0x639 DUP2 DUP6 DUP6 PUSH2 0x62A DUP6 DUP10 PUSH2 0x9DB JUMP JUMPDEST PUSH2 0x634 SWAP2 SWAP1 PUSH2 0x15F7 JUMP JUMPDEST PUSH2 0xA6A JUMP JUMPDEST PUSH1 0x1 SWAP2 POP POP SWAP3 SWAP2 POP POP JUMP JUMPDEST PUSH1 0x0 DUP1 PUSH1 0x0 DUP4 PUSH20 0xFFFFFFFFFFFFFFFFFFFFFFFFFFFFFFFFFFFFFFFF AND PUSH20 0xFFFFFFFFFFFFFFFFFFFFFFFFFFFFFFFFFFFFFFFF AND DUP2 MSTORE PUSH1 0x20 ADD SWAP1 DUP2 MSTORE PUSH1 0x20 ADD PUSH1 0x0 KECCAK256 SLOAD SWAP1 POP SWAP2 SWAP1 POP JUMP JUMPDEST PUSH1 0x7 PUSH1 0x20 MSTORE DUP1 PUSH1 0x0 MSTORE PUSH1 0x40 PUSH1 0x0 KECCAK256 PUSH1 0x0 SWAP2 POP SWAP1 POP DUP1 PUSH1 0x0 ADD DUP1 SLOAD PUSH2 0x6AF SWAP1 PUSH2 0x16E4 JUMP JUMPDEST DUP1 PUSH1 0x1F ADD PUSH1 0x20 DUP1 SWAP2 DIV MUL PUSH1 0x20 ADD PUSH1 0x40 MLOAD SWAP1 DUP2 ADD PUSH1 0x40 MSTORE DUP1 SWAP3 SWAP2 SWAP1 DUP2 DUP2 MSTORE PUSH1 0x20 ADD DUP3 DUP1 SLOAD PUSH2 0x6DB SWAP1 PUSH2 0x16E4 JUMP JUMPDEST DUP1 ISZERO PUSH2 0x728 JUMPI DUP1 PUSH1 0x1F LT PUSH2 0x6FD JUMPI PUSH2 0x100 DUP1 DUP4 SLOAD DIV MUL DUP4 MSTORE SWAP2 PUSH1 0x20 ADD SWAP2 PUSH2 0x728 JUMP JUMPDEST DUP3 ADD SWAP2 SWAP1 PUSH1 0x0 MSTORE PUSH1 0x20 PUSH1 0x0 KECCAK256 SWAP1 JUMPDEST DUP2 SLOAD DUP2 MSTORE SWAP1 PUSH1 0x1 ADD SWAP1 PUSH1 0x20 ADD DUP1 DUP4 GT PUSH2 0x70B JUMPI DUP3 SWAP1 SUB PUSH1 0x1F AND DUP3 ADD SWAP2 JUMPDEST POP POP POP POP POP SWAP1 DUP1 PUSH1 0x1 ADD SLOAD SWAP1 DUP1 PUSH1 0x2 ADD DUP1 SLOAD PUSH2 0x743 SWAP1 PUSH2 0x16E4 JUMP JUMPDEST DUP1 PUSH1 0x1F ADD PUSH1 0x20 DUP1 SWAP2 DIV MUL PUSH1 0x20 ADD PUSH1 0x40 MLOAD SWAP1 DUP2 ADD PUSH1 0x40 MSTORE DUP1 SWAP3 SWAP2 SWAP1 DUP2 DUP2 MSTORE PUSH1 0x20 ADD DUP3 DUP1 SLOAD PUSH2 0x76F SWAP1 PUSH2 0x16E4 JUMP JUMPDEST DUP1 ISZERO PUSH2 0x7BC JUMPI DUP1 PUSH1 0x1F LT PUSH2 0x791 JUMPI PUSH2 0x100 DUP1 DUP4 SLOAD DIV MUL DUP4 MSTORE SWAP2 PUSH1 0x20 ADD SWAP2 PUSH2 0x7BC JUMP JUMPDEST DUP3 ADD SWAP2 SWAP1 PUSH1 0x0 MSTORE PUSH1 0x20 PUSH1 0x0 KECCAK256 SWAP1 JUMPDEST DUP2 SLOAD DUP2 MSTORE SWAP1 PUSH1 0x1 ADD SWAP1 PUSH1 0x20 ADD DUP1 DUP4 GT PUSH2 0x79F JUMPI DUP3 SWAP1 SUB PUSH1 0x1F AND DUP3 ADD SWAP2 JUMPDEST POP POP POP POP POP SWAP1 DUP1 PUSH1 0x3 ADD SLOAD SWAP1 DUP1 PUSH1 0x4 ADD DUP1 SLOAD PUSH2 0x7D7 SWAP1 PUSH2 0x16E4 JUMP JUMPDEST DUP1 PUSH1 0x1F ADD PUSH1 0x20 DUP1 SWAP2 DIV MUL PUSH1 0x20 ADD PUSH1 0x40 MLOAD SWAP1 DUP2 ADD PUSH1 0x40 MSTORE DUP1 SWAP3 SWAP2 SWAP1 DUP2 DUP2 MSTORE PUSH1 0x20 ADD DUP3 DUP1 SLOAD PUSH2 0x803 SWAP1 PUSH2 0x16E4 JUMP JUMPDEST DUP1 ISZERO PUSH2 0x850 JUMPI DUP1 PUSH1 0x1F LT PUSH2 0x825 JUMPI PUSH2 0x100 DUP1 DUP4 SLOAD DIV MUL DUP4 MSTORE SWAP2 PUSH1 0x20 ADD SWAP2 PUSH2 0x850 JUMP JUMPDEST DUP3 ADD SWAP2 SWAP1 PUSH1 0x0 MSTORE PUSH1 0x20 PUSH1 0x0 KECCAK256 SWAP1 JUMPDEST DUP2 SLOAD DUP2 MSTORE SWAP1 PUSH1 0x1 ADD SWAP1 PUSH1 0x20 ADD DUP1 DUP4 GT PUSH2 0x833 JUMPI DUP3 SWAP1 SUB PUSH1 0x1F AND DUP3 ADD SWAP2 JUMPDEST POP POP POP POP POP SWAP1 DUP1 PUSH1 0x5 ADD SLOAD SWAP1 POP DUP7 JUMP JUMPDEST PUSH1 0x60 PUSH1 0x4 DUP1 SLOAD PUSH2 0x86F SWAP1 PUSH2 0x16E4 JUMP JUMPDEST DUP1 PUSH1 0x1F ADD PUSH1 0x20 DUP1 SWAP2 DIV MUL PUSH1 0x20 ADD PUSH1 0x40 MLOAD SWAP1 DUP2 ADD PUSH1 0x40 MSTORE DUP1 SWAP3 SWAP2 SWAP1 DUP2 DUP2 MSTORE PUSH1 0x20 ADD DUP3 DUP1 SLOAD PUSH2 0x89B SWAP1 PUSH2 0x16E4 JUMP JUMPDEST DUP1 ISZERO PUSH2 0x8E8 JUMPI DUP1 PUSH1 0x1F LT PUSH2 0x8BD JUMPI PUSH2 0x100 DUP1 DUP4 SLOAD DIV MUL DUP4 MSTORE SWAP2 PUSH1 0x20 ADD SWAP2 PUSH2 0x8E8 JUMP JUMPDEST DUP3 ADD SWAP2 SWAP1 PUSH1 0x0 MSTORE PUSH1 0x20 PUSH1 0x0 KECCAK256 SWAP1 JUMPDEST DUP2 SLOAD DUP2 MSTORE SWAP1 PUSH1 0x1 ADD SWAP1 PUSH1 0x20 ADD DUP1 DUP4 GT PUSH2 0x8CB JUMPI DUP3 SWAP1 SUB PUSH1 0x1F AND DUP3 ADD SWAP2 JUMPDEST POP POP POP POP POP SWAP1 POP SWAP1 JUMP JUMPDEST PUSH1 0x0 DUP1 PUSH2 0x8FD PUSH2 0xA62 JUMP JUMPDEST SWAP1 POP PUSH1 0x0 PUSH2 0x90B DUP3 DUP7 PUSH2 0x9DB JUMP JUMPDEST SWAP1 POP DUP4 DUP2 LT ISZERO PUSH2 0x950 JUMPI PUSH1 0x40 MLOAD PUSH32 0x8C379A000000000000000000000000000000000000000000000000000000000 DUP2 MSTORE PUSH1 0x4 ADD PUSH2 0x947 SWAP1 PUSH2 0x152F JUMP JUMPDEST PUSH1 0x40 MLOAD DUP1 SWAP2 SUB SWAP1 REVERT JUMPDEST PUSH2 0x95D DUP3 DUP7 DUP7 DUP5 SUB PUSH2 0xA6A JUMP JUMPDEST PUSH1 0x1 SWAP3 POP POP POP SWAP3 SWAP2 POP POP JUMP JUMPDEST PUSH1 0x0 DUP1 PUSH2 0x974 PUSH2 0xA62 JUMP JUMPDEST SWAP1 POP PUSH2 0x981 DUP2 DUP6 DUP6 PUSH2 0xCC1 JUMP JUMPDEST PUSH2 0x98A DUP5 PUSH2 0x644 JUMP JUMPDEST PUSH1 0x7 PUSH1 0x0 DUP7 PUSH20 0xFFFFFFFFFFFFFFFFFFFFFFFFFFFFFFFFFFFFFFFF AND PUSH20 0xFFFFFFFFFFFFFFFFFFFFFFFFFFFFFFFFFFFFFFFF AND DUP2 MSTORE PUSH1 0x20 ADD SWAP1 DUP2 MSTORE PUSH1 0x20 ADD PUSH1 0x0 KECCAK256 PUSH1 0x5 ADD DUP2 SWAP1 SSTORE POP PUSH1 0x1 SWAP2 POP POP SWAP3 SWAP2 POP POP JUMP JUMPDEST PUSH1 0x0 PUSH1 0x1 PUSH1 0x0 DUP5 PUSH20 0xFFFFFFFFFFFFFFFFFFFFFFFFFFFFFFFFFFFFFFFF AND PUSH20 0xFFFFFFFFFFFFFFFFFFFFFFFFFFFFFFFFFFFFFFFF AND DUP2 MSTORE PUSH1 0x20 ADD SWAP1 DUP2 MSTORE PUSH1 0x20 ADD PUSH1 0x0 KECCAK256 PUSH1 0x0 DUP4 PUSH20 0xFFFFFFFFFFFFFFFFFFFFFFFFFFFFFFFFFFFFFFFF AND PUSH20 0xFFFFFFFFFFFFFFFFFFFFFFFFFFFFFFFFFFFFFFFF AND DUP2 MSTORE PUSH1 0x20 ADD SWAP1 DUP2 MSTORE PUSH1 0x20 ADD PUSH1 0x0 KECCAK256 SLOAD SWAP1 POP SWAP3 SWAP2 POP POP JUMP JUMPDEST PUSH1 0x0 CALLER SWAP1 POP SWAP1 JUMP JUMPDEST PUSH1 0x0 PUSH20 0xFFFFFFFFFFFFFFFFFFFFFFFFFFFFFFFFFFFFFFFF AND DUP4 PUSH20 0xFFFFFFFFFFFFFFFFFFFFFFFFFFFFFFFFFFFFFFFF AND EQ ISZERO PUSH2 0xADA JUMPI PUSH1 0x40 MLOAD PUSH32 0x8C379A000000000000000000000000000000000000000000000000000000000 DUP2 MSTORE PUSH1 0x4 ADD PUSH2 0xAD1 SWAP1 PUSH2 0x150F JUMP JUMPDEST PUSH1 0x40 MLOAD DUP1 SWAP2 SUB SWAP1 REVERT JUMPDEST PUSH1 0x0 PUSH20 0xFFFFFFFFFFFFFFFFFFFFFFFFFFFFFFFFFFFFFFFF AND DUP3 PUSH20 0xFFFFFFFFFFFFFFFFFFFFFFFFFFFFFFFFFFFFFFFF AND EQ ISZERO PUSH2 0xB4A JUMPI PUSH1 0x40 MLOAD PUSH32 0x8C379A000000000000000000000000000000000000000000000000000000000 DUP2 MSTORE PUSH1 0x4 ADD PUSH2 0xB41 SWAP1 PUSH2 0x148F JUMP JUMPDEST PUSH1 0x40 MLOAD DUP1 SWAP2 SUB SWAP1 REVERT JUMPDEST DUP1 PUSH1 0x1 PUSH1 0x0 DUP6 PUSH20 0xFFFFFFFFFFFFFFFFFFFFFFFFFFFFFFFFFFFFFFFF AND PUSH20 0xFFFFFFFFFFFFFFFFFFFFFFFFFFFFFFFFFFFFFFFF AND DUP2 MSTORE PUSH1 0x20 ADD SWAP1 DUP2 MSTORE PUSH1 0x20 ADD PUSH1 0x0 KECCAK256 PUSH1 0x0 DUP5 PUSH20 0xFFFFFFFFFFFFFFFFFFFFFFFFFFFFFFFFFFFFFFFF AND PUSH20 0xFFFFFFFFFFFFFFFFFFFFFFFFFFFFFFFFFFFFFFFF AND DUP2 MSTORE PUSH1 0x20 ADD SWAP1 DUP2 MSTORE PUSH1 0x20 ADD PUSH1 0x0 KECCAK256 DUP2 SWAP1 SSTORE POP DUP2 PUSH20 0xFFFFFFFFFFFFFFFFFFFFFFFFFFFFFFFFFFFFFFFF AND DUP4 PUSH20 0xFFFFFFFFFFFFFFFFFFFFFFFFFFFFFFFFFFFFFFFF AND PUSH32 0x8C5BE1E5EBEC7D5BD14F71427D1E84F3DD0314C0F7B2291E5B200AC8C7C3B925 DUP4 PUSH1 0x40 MLOAD PUSH2 0xC28 SWAP2 SWAP1 PUSH2 0x154F JUMP JUMPDEST PUSH1 0x40 MLOAD DUP1 SWAP2 SUB SWAP1 LOG3 POP POP POP JUMP JUMPDEST PUSH1 0x0 PUSH2 0xC41 DUP5 DUP5 PUSH2 0x9DB JUMP JUMPDEST SWAP1 POP PUSH32 0xFFFFFFFFFFFFFFFFFFFFFFFFFFFFFFFFFFFFFFFFFFFFFFFFFFFFFFFFFFFFFFFF DUP2 EQ PUSH2 0xCBB JUMPI DUP2 DUP2 LT ISZERO PUSH2 0xCAD JUMPI PUSH1 0x40 MLOAD PUSH32 0x8C379A000000000000000000000000000000000000000000000000000000000 DUP2 MSTORE PUSH1 0x4 ADD PUSH2 0xCA4 SWAP1 PUSH2 0x14AF JUMP JUMPDEST PUSH1 0x40 MLOAD DUP1 SWAP2 SUB SWAP1 REVERT JUMPDEST PUSH2 0xCBA DUP5 DUP5 DUP5 DUP5 SUB PUSH2 0xA6A JUMP JUMPDEST JUMPDEST POP POP POP POP JUMP JUMPDEST PUSH1 0x0 PUSH20 0xFFFFFFFFFFFFFFFFFFFFFFFFFFFFFFFFFFFFFFFF AND DUP4 PUSH20 0xFFFFFFFFFFFFFFFFFFFFFFFFFFFFFFFFFFFFFFFF AND EQ ISZERO PUSH2 0xD31 JUMPI PUSH1 0x40 MLOAD PUSH32 0x8C379A000000000000000000000000000000000000000000000000000000000 DUP2 MSTORE PUSH1 0x4 ADD PUSH2 0xD28 SWAP1 PUSH2 0x14EF JUMP JUMPDEST PUSH1 0x40 MLOAD DUP1 SWAP2 SUB SWAP1 REVERT JUMPDEST PUSH1 0x0 PUSH20 0xFFFFFFFFFFFFFFFFFFFFFFFFFFFFFFFFFFFFFFFF AND DUP3 PUSH20 0xFFFFFFFFFFFFFFFFFFFFFFFFFFFFFFFFFFFFFFFF AND EQ ISZERO PUSH2 0xDA1 JUMPI PUSH1 0x40 MLOAD PUSH32 0x8C379A000000000000000000000000000000000000000000000000000000000 DUP2 MSTORE PUSH1 0x4 ADD PUSH2 0xD98 SWAP1 PUSH2 0x146F JUMP JUMPDEST PUSH1 0x40 MLOAD DUP1 SWAP2 SUB SWAP1 REVERT JUMPDEST PUSH2 0xDAC DUP4 DUP4 DUP4 PUSH2 0xF39 JUMP JUMPDEST PUSH1 0x0 DUP1 PUSH1 0x0 DUP6 PUSH20 0xFFFFFFFFFFFFFFFFFFFFFFFFFFFFFFFFFFFFFFFF AND PUSH20 0xFFFFFFFFFFFFFFFFFFFFFFFFFFFFFFFFFFFFFFFF AND DUP2 MSTORE PUSH1 0x20 ADD SWAP1 DUP2 MSTORE PUSH1 0x20 ADD PUSH1 0x0 KECCAK256 SLOAD SWAP1 POP DUP2 DUP2 LT ISZERO PUSH2 0xE32 JUMPI PUSH1 0x40 MLOAD PUSH32 0x8C379A000000000000000000000000000000000000000000000000000000000 DUP2 MSTORE PUSH1 0x4 ADD PUSH2 0xE29 SWAP1 PUSH2 0x14CF JUMP JUMPDEST PUSH1 0x40 MLOAD DUP1 SWAP2 SUB SWAP1 REVERT JUMPDEST DUP2 DUP2 SUB PUSH1 0x0 DUP1 DUP7 PUSH20 0xFFFFFFFFFFFFFFFFFFFFFFFFFFFFFFFFFFFFFFFF AND PUSH20 0xFFFFFFFFFFFFFFFFFFFFFFFFFFFFFFFFFFFFFFFF AND DUP2 MSTORE PUSH1 0x20 ADD SWAP1 DUP2 MSTORE PUSH1 0x20 ADD PUSH1 0x0 KECCAK256 DUP2 SWAP1 SSTORE POP DUP2 PUSH1 0x0 DUP1 DUP6 PUSH20 0xFFFFFFFFFFFFFFFFFFFFFFFFFFFFFFFFFFFFFFFF AND PUSH20 0xFFFFFFFFFFFFFFFFFFFFFFFFFFFFFFFFFFFFFFFF AND DUP2 MSTORE PUSH1 0x20 ADD SWAP1 DUP2 MSTORE PUSH1 0x20 ADD PUSH1 0x0 KECCAK256 PUSH1 0x0 DUP3 DUP3 SLOAD ADD SWAP3 POP POP DUP2 SWAP1 SSTORE POP DUP3 PUSH20 0xFFFFFFFFFFFFFFFFFFFFFFFFFFFFFFFFFFFFFFFF AND DUP5 PUSH20 0xFFFFFFFFFFFFFFFFFFFFFFFFFFFFFFFFFFFFFFFF AND PUSH32 0xDDF252AD1BE2C89B69C2B068FC378DAA952BA7F163C4A11628F55A4DF523B3EF DUP5 PUSH1 0x40 MLOAD PUSH2 0xF20 SWAP2 SWAP1 PUSH2 0x154F JUMP JUMPDEST PUSH1 0x40 MLOAD DUP1 SWAP2 SUB SWAP1 LOG3 PUSH2 0xF33 DUP5 DUP5 DUP5 PUSH2 0xF3E JUMP JUMPDEST POP POP POP POP JUMP JUMPDEST POP POP POP JUMP JUMPDEST POP POP POP JUMP JUMPDEST DUP3 DUP1 SLOAD PUSH2 0xF4F SWAP1 PUSH2 0x16E4 JUMP JUMPDEST SWAP1 PUSH1 0x0 MSTORE PUSH1 0x20 PUSH1 0x0 KECCAK256 SWAP1 PUSH1 0x1F ADD PUSH1 0x20 SWAP1 DIV DUP2 ADD SWAP3 DUP3 PUSH2 0xF71 JUMPI PUSH1 0x0 DUP6 SSTORE PUSH2 0xFB8 JUMP JUMPDEST DUP3 PUSH1 0x1F LT PUSH2 0xF8A JUMPI DUP1 MLOAD PUSH1 0xFF NOT AND DUP4 DUP1 ADD OR DUP6 SSTORE PUSH2 0xFB8 JUMP JUMPDEST DUP3 DUP1 ADD PUSH1 0x1 ADD DUP6 SSTORE DUP3 ISZERO PUSH2 0xFB8 JUMPI SWAP2 DUP3 ADD JUMPDEST DUP3 DUP2 GT ISZERO PUSH2 0xFB7 JUMPI DUP3 MLOAD DUP3 SSTORE SWAP2 PUSH1 0x20 ADD SWAP2 SWAP1 PUSH1 0x1 ADD SWAP1 PUSH2 0xF9C JUMP JUMPDEST JUMPDEST POP SWAP1 POP PUSH2 0xFC5 SWAP2 SWAP1 PUSH2 0xFC9 JUMP JUMPDEST POP SWAP1 JUMP JUMPDEST JUMPDEST DUP1 DUP3 GT ISZERO PUSH2 0xFE2 JUMPI PUSH1 0x0 DUP2 PUSH1 0x0 SWAP1 SSTORE POP PUSH1 0x1 ADD PUSH2 0xFCA JUMP JUMPDEST POP SWAP1 JUMP JUMPDEST PUSH1 0x0 PUSH2 0xFF9 PUSH2 0xFF4 DUP5 PUSH2 0x15AA JUMP JUMPDEST PUSH2 0x1585 JUMP JUMPDEST SWAP1 POP DUP3 DUP2 MSTORE PUSH1 0x20 DUP2 ADD DUP5 DUP5 DUP5 ADD GT ISZERO PUSH2 0x1015 JUMPI PUSH2 0x1014 PUSH2 0x17D9 JUMP JUMPDEST JUMPDEST PUSH2 0x1020 DUP5 DUP3 DUP6 PUSH2 0x16A2 JUMP JUMPDEST POP SWAP4 SWAP3 POP POP POP JUMP JUMPDEST PUSH1 0x0 DUP2 CALLDATALOAD SWAP1 POP PUSH2 0x1037 DUP2 PUSH2 0x19FC JUMP JUMPDEST SWAP3 SWAP2 POP POP JUMP JUMPDEST PUSH1 0x0 DUP3 PUSH1 0x1F DUP4 ADD SLT PUSH2 0x1052 JUMPI PUSH2 0x1051 PUSH2 0x17D4 JUMP JUMPDEST JUMPDEST DUP2 CALLDATALOAD PUSH2 0x1062 DUP5 DUP3 PUSH1 0x20 DUP7 ADD PUSH2 0xFE6 JUMP JUMPDEST SWAP2 POP POP SWAP3 SWAP2 POP POP JUMP JUMPDEST PUSH1 0x0 DUP2 CALLDATALOAD SWAP1 POP PUSH2 0x107A DUP2 PUSH2 0x1A13 JUMP JUMPDEST SWAP3 SWAP2 POP POP JUMP JUMPDEST PUSH1 0x0 PUSH1 0x20 DUP3 DUP5 SUB SLT ISZERO PUSH2 0x1096 JUMPI PUSH2 0x1095 PUSH2 0x17E3 JUMP JUMPDEST JUMPDEST PUSH1 0x0 PUSH2 0x10A4 DUP5 DUP3 DUP6 ADD PUSH2 0x1028 JUMP JUMPDEST SWAP2 POP POP SWAP3 SWAP2 POP POP JUMP JUMPDEST PUSH1 0x0 DUP1 PUSH1 0x40 DUP4 DUP6 SUB SLT ISZERO PUSH2 0x10C4 JUMPI PUSH2 0x10C3 PUSH2 0x17E3 JUMP JUMPDEST JUMPDEST PUSH1 0x0 PUSH2 0x10D2 DUP6 DUP3 DUP7 ADD PUSH2 0x1028 JUMP JUMPDEST SWAP3 POP POP PUSH1 0x20 PUSH2 0x10E3 DUP6 DUP3 DUP7 ADD PUSH2 0x1028 JUMP JUMPDEST SWAP2 POP POP SWAP3 POP SWAP3 SWAP1 POP JUMP JUMPDEST PUSH1 0x0 DUP1 PUSH1 0x0 PUSH1 0x60 DUP5 DUP7 SUB SLT ISZERO PUSH2 0x1106 JUMPI PUSH2 0x1105 PUSH2 0x17E3 JUMP JUMPDEST JUMPDEST PUSH1 0x0 PUSH2 0x1114 DUP7 DUP3 DUP8 ADD PUSH2 0x1028 JUMP JUMPDEST SWAP4 POP POP PUSH1 0x20 PUSH2 0x1125 DUP7 DUP3 DUP8 ADD PUSH2 0x1028 JUMP JUMPDEST SWAP3 POP POP PUSH1 0x40 PUSH2 0x1136 DUP7 DUP3 DUP8 ADD PUSH2 0x106B JUMP JUMPDEST SWAP2 POP POP SWAP3 POP SWAP3 POP SWAP3 JUMP JUMPDEST PUSH1 0x0 DUP1 PUSH1 0x0 DUP1 PUSH1 0x0 DUP1 PUSH1 0xC0 DUP8 DUP10 SUB SLT ISZERO PUSH2 0x115D JUMPI PUSH2 0x115C PUSH2 0x17E3 JUMP JUMPDEST JUMPDEST PUSH1 0x0 PUSH2 0x116B DUP10 DUP3 DUP11 ADD PUSH2 0x1028 JUMP JUMPDEST SWAP7 POP POP PUSH1 0x20 DUP8 ADD CALLDATALOAD PUSH8 0xFFFFFFFFFFFFFFFF DUP2 GT ISZERO PUSH2 0x118C JUMPI PUSH2 0x118B PUSH2 0x17DE JUMP JUMPDEST JUMPDEST PUSH2 0x1198 DUP10 DUP3 DUP11 ADD PUSH2 0x103D JUMP JUMPDEST SWAP6 POP POP PUSH1 0x40 PUSH2 0x11A9 DUP10 DUP3 DUP11 ADD PUSH2 0x106B JUMP JUMPDEST SWAP5 POP POP PUSH1 0x60 DUP8 ADD CALLDATALOAD PUSH8 0xFFFFFFFFFFFFFFFF DUP2 GT ISZERO PUSH2 0x11CA JUMPI PUSH2 0x11C9 PUSH2 0x17DE JUMP JUMPDEST JUMPDEST PUSH2 0x11D6 DUP10 DUP3 DUP11 ADD PUSH2 0x103D JUMP JUMPDEST SWAP4 POP POP PUSH1 0x80 PUSH2 0x11E7 DUP10 DUP3 DUP11 ADD PUSH2 0x106B JUMP JUMPDEST SWAP3 POP POP PUSH1 0xA0 DUP8 ADD CALLDATALOAD PUSH8 0xFFFFFFFFFFFFFFFF DUP2 GT ISZERO PUSH2 0x1208 JUMPI PUSH2 0x1207 PUSH2 0x17DE JUMP JUMPDEST JUMPDEST PUSH2 0x1214 DUP10 DUP3 DUP11 ADD PUSH2 0x103D JUMP JUMPDEST SWAP2 POP POP SWAP3 SWAP6 POP SWAP3 SWAP6 POP SWAP3 SWAP6 JUMP JUMPDEST PUSH1 0x0 DUP1 PUSH1 0x40 DUP4 DUP6 SUB SLT ISZERO PUSH2 0x1238 JUMPI PUSH2 0x1237 PUSH2 0x17E3 JUMP JUMPDEST JUMPDEST PUSH1 0x0 PUSH2 0x1246 DUP6 DUP3 DUP7 ADD PUSH2 0x1028 JUMP JUMPDEST SWAP3 POP POP PUSH1 0x20 PUSH2 0x1257 DUP6 DUP3 DUP7 ADD PUSH2 0x106B JUMP JUMPDEST SWAP2 POP POP SWAP3 POP SWAP3 SWAP1 POP JUMP JUMPDEST PUSH2 0x126A DUP2 PUSH2 0x165F JUMP JUMPDEST DUP3 MSTORE POP POP JUMP JUMPDEST PUSH1 0x0 PUSH2 0x127B DUP3 PUSH2 0x15DB JUMP JUMPDEST PUSH2 0x1285 DUP2 DUP6 PUSH2 0x15E6 JUMP JUMPDEST SWAP4 POP PUSH2 0x1295 DUP2 DUP6 PUSH1 0x20 DUP7 ADD PUSH2 0x16B1 JUMP JUMPDEST PUSH2 0x129E DUP2 PUSH2 0x17E8 JUMP JUMPDEST DUP5 ADD SWAP2 POP POP SWAP3 SWAP2 POP POP JUMP JUMPDEST PUSH1 0x0 PUSH2 0x12B6 PUSH1 0x23 DUP4 PUSH2 0x15E6 JUMP JUMPDEST SWAP2 POP PUSH2 0x12C1 DUP3 PUSH2 0x17F9 JUMP JUMPDEST PUSH1 0x40 DUP3 ADD SWAP1 POP SWAP2 SWAP1 POP JUMP JUMPDEST PUSH1 0x0 PUSH2 0x12D9 PUSH1 0x22 DUP4 PUSH2 0x15E6 JUMP JUMPDEST SWAP2 POP PUSH2 0x12E4 DUP3 PUSH2 0x1848 JUMP JUMPDEST PUSH1 0x40 DUP3 ADD SWAP1 POP SWAP2 SWAP1 POP JUMP JUMPDEST PUSH1 0x0 PUSH2 0x12FC PUSH1 0x1D DUP4 PUSH2 0x15E6 JUMP JUMPDEST SWAP2 POP PUSH2 0x1307 DUP3 PUSH2 0x1897 JUMP JUMPDEST PUSH1 0x20 DUP3 ADD SWAP1 POP SWAP2 SWAP1 POP JUMP JUMPDEST PUSH1 0x0 PUSH2 0x131F PUSH1 0x26 DUP4 PUSH2 0x15E6 JUMP JUMPDEST SWAP2 POP PUSH2 0x132A DUP3 PUSH2 0x18C0 JUMP JUMPDEST PUSH1 0x40 DUP3 ADD SWAP1 POP SWAP2 SWAP1 POP JUMP JUMPDEST PUSH1 0x0 PUSH2 0x1342 PUSH1 0x25 DUP4 PUSH2 0x15E6 JUMP JUMPDEST SWAP2 POP PUSH2 0x134D DUP3 PUSH2 0x190F JUMP JUMPDEST PUSH1 0x40 DUP3 ADD SWAP1 POP SWAP2 SWAP1 POP JUMP JUMPDEST PUSH1 0x0 PUSH2 0x1365 PUSH1 0x24 DUP4 PUSH2 0x15E6 JUMP JUMPDEST SWAP2 POP PUSH2 0x1370 DUP3 PUSH2 0x195E JUMP JUMPDEST PUSH1 0x40 DUP3 ADD SWAP1 POP SWAP2 SWAP1 POP JUMP JUMPDEST PUSH1 0x0 PUSH2 0x1388 PUSH1 0x25 DUP4 PUSH2 0x15E6 JUMP JUMPDEST SWAP2 POP PUSH2 0x1393 DUP3 PUSH2 0x19AD JUMP JUMPDEST PUSH1 0x40 DUP3 ADD SWAP1 POP SWAP2 SWAP1 POP JUMP JUMPDEST PUSH2 0x13A7 DUP2 PUSH2 0x168B JUMP JUMPDEST DUP3 MSTORE POP POP JUMP JUMPDEST PUSH2 0x13B6 DUP2 PUSH2 0x1695 JUMP JUMPDEST DUP3 MSTORE POP POP JUMP JUMPDEST PUSH1 0x0 PUSH1 0x20 DUP3 ADD SWAP1 POP PUSH2 0x13D1 PUSH1 0x0 DUP4 ADD DUP5 PUSH2 0x1261 JUMP JUMPDEST SWAP3 SWAP2 POP POP JUMP JUMPDEST PUSH1 0x0 PUSH1 0x20 DUP3 ADD SWAP1 POP DUP2 DUP2 SUB PUSH1 0x0 DUP4 ADD MSTORE PUSH2 0x13F1 DUP2 DUP5 PUSH2 0x1270 JUMP JUMPDEST SWAP1 POP SWAP3 SWAP2 POP POP JUMP JUMPDEST PUSH1 0x0 PUSH1 0xC0 DUP3 ADD SWAP1 POP DUP2 DUP2 SUB PUSH1 0x0 DUP4 ADD MSTORE PUSH2 0x1413 DUP2 DUP10 PUSH2 0x1270 JUMP JUMPDEST SWAP1 POP PUSH2 0x1422 PUSH1 0x20 DUP4 ADD DUP9 PUSH2 0x139E JUMP JUMPDEST DUP2 DUP2 SUB PUSH1 0x40 DUP4 ADD MSTORE PUSH2 0x1434 DUP2 DUP8 PUSH2 0x1270 JUMP JUMPDEST SWAP1 POP PUSH2 0x1443 PUSH1 0x60 DUP4 ADD DUP7 PUSH2 0x139E JUMP JUMPDEST DUP2 DUP2 SUB PUSH1 0x80 DUP4 ADD MSTORE PUSH2 0x1455 DUP2 DUP6 PUSH2 0x1270 JUMP JUMPDEST SWAP1 POP PUSH2 0x1464 PUSH1 0xA0 DUP4 ADD DUP5 PUSH2 0x139E JUMP JUMPDEST SWAP8 SWAP7 POP POP POP POP POP POP POP JUMP JUMPDEST PUSH1 0x0 PUSH1 0x20 DUP3 ADD SWAP1 POP DUP2 DUP2 SUB PUSH1 0x0 DUP4 ADD MSTORE PUSH2 0x1488 DUP2 PUSH2 0x12A9 JUMP JUMPDEST SWAP1 POP SWAP2 SWAP1 POP JUMP JUMPDEST PUSH1 0x0 PUSH1 0x20 DUP3 ADD SWAP1 POP DUP2 DUP2 SUB PUSH1 0x0 DUP4 ADD MSTORE PUSH2 0x14A8 DUP2 PUSH2 0x12CC JUMP JUMPDEST SWAP1 POP SWAP2 SWAP1 POP JUMP JUMPDEST PUSH1 0x0 PUSH1 0x20 DUP3 ADD SWAP1 POP DUP2 DUP2 SUB PUSH1 0x0 DUP4 ADD MSTORE PUSH2 0x14C8 DUP2 PUSH2 0x12EF JUMP JUMPDEST SWAP1 POP SWAP2 SWAP1 POP JUMP JUMPDEST PUSH1 0x0 PUSH1 0x20 DUP3 ADD SWAP1 POP DUP2 DUP2 SUB PUSH1 0x0 DUP4 ADD MSTORE PUSH2 0x14E8 DUP2 PUSH2 0x1312 JUMP JUMPDEST SWAP1 POP SWAP2 SWAP1 POP JUMP JUMPDEST PUSH1 0x0 PUSH1 0x20 DUP3 ADD SWAP1 POP DUP2 DUP2 SUB PUSH1 0x0 DUP4 ADD MSTORE PUSH2 0x1508 DUP2 PUSH2 0x1335 JUMP JUMPDEST SWAP1 POP SWAP2 SWAP1 POP JUMP JUMPDEST PUSH1 0x0 PUSH1 0x20 DUP3 ADD SWAP1 POP DUP2 DUP2 SUB PUSH1 0x0 DUP4 ADD MSTORE PUSH2 0x1528 DUP2 PUSH2 0x1358 JUMP JUMPDEST SWAP1 POP SWAP2 SWAP1 POP JUMP JUMPDEST PUSH1 0x0 PUSH1 0x20 DUP3 ADD SWAP1 POP DUP2 DUP2 SUB PUSH1 0x0 DUP4 ADD MSTORE PUSH2 0x1548 DUP2 PUSH2 0x137B JUMP JUMPDEST SWAP1 POP SWAP2 SWAP1 POP JUMP JUMPDEST PUSH1 0x0 PUSH1 0x20 DUP3 ADD SWAP1 POP PUSH2 0x1564 PUSH1 0x0 DUP4 ADD DUP5 PUSH2 0x139E JUMP JUMPDEST SWAP3 SWAP2 POP POP JUMP JUMPDEST PUSH1 0x0 PUSH1 0x20 DUP3 ADD SWAP1 POP PUSH2 0x157F PUSH1 0x0 DUP4 ADD DUP5 PUSH2 0x13AD JUMP JUMPDEST SWAP3 SWAP2 POP POP JUMP JUMPDEST PUSH1 0x0 PUSH2 0x158F PUSH2 0x15A0 JUMP JUMPDEST SWAP1 POP PUSH2 0x159B DUP3 DUP3 PUSH2 0x1716 JUMP JUMPDEST SWAP2 SWAP1 POP JUMP JUMPDEST PUSH1 0x0 PUSH1 0x40 MLOAD SWAP1 POP SWAP1 JUMP JUMPDEST PUSH1 0x0 PUSH8 0xFFFFFFFFFFFFFFFF DUP3 GT ISZERO PUSH2 0x15C5 JUMPI PUSH2 0x15C4 PUSH2 0x17A5 JUMP JUMPDEST JUMPDEST PUSH2 0x15CE DUP3 PUSH2 0x17E8 JUMP JUMPDEST SWAP1 POP PUSH1 0x20 DUP2 ADD SWAP1 POP SWAP2 SWAP1 POP JUMP JUMPDEST PUSH1 0x0 DUP2 MLOAD SWAP1 POP SWAP2 SWAP1 POP JUMP JUMPDEST PUSH1 0x0 DUP3 DUP3 MSTORE PUSH1 0x20 DUP3 ADD SWAP1 POP SWAP3 SWAP2 POP POP JUMP JUMPDEST PUSH1 0x0 PUSH2 0x1602 DUP3 PUSH2 0x168B JUMP JUMPDEST SWAP2 POP PUSH2 0x160D DUP4 PUSH2 0x168B JUMP JUMPDEST SWAP3 POP DUP3 PUSH32 0xFFFFFFFFFFFFFFFFFFFFFFFFFFFFFFFFFFFFFFFFFFFFFFFFFFFFFFFFFFFFFFFF SUB DUP3 GT ISZERO PUSH2 0x1642 JUMPI PUSH2 0x1641 PUSH2 0x1747 JUMP JUMPDEST JUMPDEST DUP3 DUP3 ADD SWAP1 POP SWAP3 SWAP2 POP POP JUMP JUMPDEST PUSH1 0x0 PUSH2 0x1658 DUP3 PUSH2 0x166B JUMP JUMPDEST SWAP1 POP SWAP2 SWAP1 POP JUMP JUMPDEST PUSH1 0x0 DUP2 ISZERO ISZERO SWAP1 POP SWAP2 SWAP1 POP JUMP JUMPDEST PUSH1 0x0 PUSH20 0xFFFFFFFFFFFFFFFFFFFFFFFFFFFFFFFFFFFFFFFF DUP3 AND SWAP1 POP SWAP2 SWAP1 POP JUMP JUMPDEST PUSH1 0x0 DUP2 SWAP1 POP SWAP2 SWAP1 POP JUMP JUMPDEST PUSH1 0x0 PUSH1 0xFF DUP3 AND SWAP1 POP SWAP2 SWAP1 POP JUMP JUMPDEST DUP3 DUP2 DUP4 CALLDATACOPY PUSH1 0x0 DUP4 DUP4 ADD MSTORE POP POP POP JUMP JUMPDEST PUSH1 0x0 JUMPDEST DUP4 DUP2 LT ISZERO PUSH2 0x16CF JUMPI DUP1 DUP3 ADD MLOAD DUP2 DUP5 ADD MSTORE PUSH1 0x20 DUP2 ADD SWAP1 POP PUSH2 0x16B4 JUMP JUMPDEST DUP4 DUP2 GT ISZERO PUSH2 0x16DE JUMPI PUSH1 0x0 DUP5 DUP5 ADD MSTORE JUMPDEST POP POP POP POP JUMP JUMPDEST PUSH1 0x0 PUSH1 0x2 DUP3 DIV SWAP1 POP PUSH1 0x1 DUP3 AND DUP1 PUSH2 0x16FC JUMPI PUSH1 0x7F DUP3 AND SWAP2 POP JUMPDEST PUSH1 0x20 DUP3 LT DUP2 EQ ISZERO PUSH2 0x1710 JUMPI PUSH2 0x170F PUSH2 0x1776 JUMP JUMPDEST JUMPDEST POP SWAP2 SWAP1 POP JUMP JUMPDEST PUSH2 0x171F DUP3 PUSH2 0x17E8 JUMP JUMPDEST DUP2 ADD DUP2 DUP2 LT PUSH8 0xFFFFFFFFFFFFFFFF DUP3 GT OR ISZERO PUSH2 0x173E JUMPI PUSH2 0x173D PUSH2 0x17A5 JUMP JUMPDEST JUMPDEST DUP1 PUSH1 0x40 MSTORE POP POP POP JUMP JUMPDEST PUSH32 0x4E487B7100000000000000000000000000000000000000000000000000000000 PUSH1 0x0 MSTORE PUSH1 0x11 PUSH1 0x4 MSTORE PUSH1 0x24 PUSH1 0x0 REVERT JUMPDEST PUSH32 0x4E487B7100000000000000000000000000000000000000000000000000000000 PUSH1 0x0 MSTORE PUSH1 0x22 PUSH1 0x4 MSTORE PUSH1 0x24 PUSH1 0x0 REVERT JUMPDEST PUSH32 0x4E487B7100000000000000000000000000000000000000000000000000000000 PUSH1 0x0 MSTORE PUSH1 0x41 PUSH1 0x4 MSTORE PUSH1 0x24 PUSH1 0x0 REVERT JUMPDEST PUSH1 0x0 DUP1 REVERT JUMPDEST PUSH1 0x0 DUP1 REVERT JUMPDEST PUSH1 0x0 DUP1 REVERT JUMPDEST PUSH1 0x0 DUP1 REVERT JUMPDEST PUSH1 0x0 PUSH1 0x1F NOT PUSH1 0x1F DUP4 ADD AND SWAP1 POP SWAP2 SWAP1 POP JUMP JUMPDEST PUSH32 0x45524332303A207472616E7366657220746F20746865207A65726F2061646472 PUSH1 0x0 DUP3 ADD MSTORE PUSH32 0x6573730000000000000000000000000000000000000000000000000000000000 PUSH1 0x20 DUP3 ADD MSTORE POP JUMP JUMPDEST PUSH32 0x45524332303A20617070726F766520746F20746865207A65726F206164647265 PUSH1 0x0 DUP3 ADD MSTORE PUSH32 0x7373000000000000000000000000000000000000000000000000000000000000 PUSH1 0x20 DUP3 ADD MSTORE POP JUMP JUMPDEST PUSH32 0x45524332303A20696E73756666696369656E7420616C6C6F77616E6365000000 PUSH1 0x0 DUP3 ADD MSTORE POP JUMP JUMPDEST PUSH32 0x45524332303A207472616E7366657220616D6F756E7420657863656564732062 PUSH1 0x0 DUP3 ADD MSTORE PUSH32 0x616C616E63650000000000000000000000000000000000000000000000000000 PUSH1 0x20 DUP3 ADD MSTORE POP JUMP JUMPDEST PUSH32 0x45524332303A207472616E736665722066726F6D20746865207A65726F206164 PUSH1 0x0 DUP3 ADD MSTORE PUSH32 0x6472657373000000000000000000000000000000000000000000000000000000 PUSH1 0x20 DUP3 ADD MSTORE POP JUMP JUMPDEST PUSH32 0x45524332303A20617070726F76652066726F6D20746865207A65726F20616464 PUSH1 0x0 DUP3 ADD MSTORE PUSH32 0x7265737300000000000000000000000000000000000000000000000000000000 PUSH1 0x20 DUP3 ADD MSTORE POP JUMP JUMPDEST PUSH32 0x45524332303A2064656372656173656420616C6C6F77616E63652062656C6F77 PUSH1 0x0 DUP3 ADD MSTORE PUSH32 0x207A65726F000000000000000000000000000000000000000000000000000000 PUSH1 0x20 DUP3 ADD MSTORE POP JUMP JUMPDEST PUSH2 0x1A05 DUP2 PUSH2 0x164D JUMP JUMPDEST DUP2 EQ PUSH2 0x1A10 JUMPI PUSH1 0x0 DUP1 REVERT JUMPDEST POP JUMP JUMPDEST PUSH2 0x1A1C DUP2 PUSH2 0x168B JUMP JUMPDEST DUP2 EQ PUSH2 0x1A27 JUMPI PUSH1 0x0 DUP1 REVERT JUMPDEST POP JUMP INVALID LOG2 PUSH5 0x6970667358 0x22 SLT KECCAK256 0xAE RETURNDATACOPY BALANCE DUP16 PUSH31 0x8F4460C5CC6AE80276E87B6D4EE9729D3EDA9A0F5690D6952D4ACE64736F6C PUSH4 0x43000807 STOP CALLER "
				},
				"gasEstimates": {
					"creation": {
						"codeDepositCost": "1350400",
						"executionCost": "infinite",
						"totalCost": "infinite"
					},
					"external": {
						"INITIAL_SUPPLY()": "2496",
						"allowance(address,address)": "infinite",
						"approve(address,uint256)": "infinite",
						"balanceOf(address)": "2886",
						"decimals()": "432",
						"decreaseAllowance(address,uint256)": "infinite",
						"getInfoByWallet(address)": "infinite",
						"increaseAllowance(address,uint256)": "infinite",
						"name()": "infinite",
						"setInfo(address,string,uint256,string,uint256,string)": "infinite",
						"symbol()": "infinite",
						"totalSupply()": "2460",
						"transfer(address,uint256)": "infinite",
						"transferFrom(address,address,uint256)": "infinite"
					}
				},
				"methodIdentifiers": {
					"INITIAL_SUPPLY()": "2ff2e9dc",
					"allowance(address,address)": "dd62ed3e",
					"approve(address,uint256)": "095ea7b3",
					"balanceOf(address)": "70a08231",
					"decimals()": "313ce567",
					"decreaseAllowance(address,uint256)": "a457c2d7",
					"getInfoByWallet(address)": "8b9c657a",
					"increaseAllowance(address,uint256)": "39509351",
					"name()": "06fdde03",
					"setInfo(address,string,uint256,string,uint256,string)": "0ebcbdb8",
					"symbol()": "95d89b41",
					"totalSupply()": "18160ddd",
					"transfer(address,uint256)": "a9059cbb",
					"transferFrom(address,address,uint256)": "23b872dd"
				}
			},
			"storageLayout": {
				"storage": [
					{
						"astId": 15,
						"contract": "sol/send_token.sol:status",
						"label": "_balances",
						"offset": 0,
						"slot": "0",
						"type": "t_mapping(t_address,t_uint256)"
					},
					{
						"astId": 21,
						"contract": "sol/send_token.sol:status",
						"label": "_allowances",
						"offset": 0,
						"slot": "1",
						"type": "t_mapping(t_address,t_mapping(t_address,t_uint256))"
					},
					{
						"astId": 23,
						"contract": "sol/send_token.sol:status",
						"label": "_totalSupply",
						"offset": 0,
						"slot": "2",
						"type": "t_uint256"
					},
					{
						"astId": 25,
						"contract": "sol/send_token.sol:status",
						"label": "_name",
						"offset": 0,
						"slot": "3",
						"type": "t_string_storage"
					},
					{
						"astId": 27,
						"contract": "sol/send_token.sol:status",
						"label": "_symbol",
						"offset": 0,
						"slot": "4",
						"type": "t_string_storage"
					},
					{
						"astId": 723,
						"contract": "sol/send_token.sol:status",
						"label": "INITIAL_SUPPLY",
						"offset": 0,
						"slot": "5",
						"type": "t_uint256"
					},
					{
						"astId": 763,
						"contract": "sol/send_token.sol:status",
						"label": "Students",
						"offset": 0,
						"slot": "6",
						"type": "t_array(t_struct(Student)759_storage)dyn_storage"
					},
					{
						"astId": 768,
						"contract": "sol/send_token.sol:status",
						"label": "getInfoByWallet",
						"offset": 0,
						"slot": "7",
						"type": "t_mapping(t_address,t_struct(Student)759_storage)"
					}
				],
				"types": {
					"t_address": {
						"encoding": "inplace",
						"label": "address",
						"numberOfBytes": "20"
					},
					"t_array(t_struct(Student)759_storage)dyn_storage": {
						"base": "t_struct(Student)759_storage",
						"encoding": "dynamic_array",
						"label": "struct status.Student[]",
						"numberOfBytes": "32"
					},
					"t_mapping(t_address,t_mapping(t_address,t_uint256))": {
						"encoding": "mapping",
						"key": "t_address",
						"label": "mapping(address => mapping(address => uint256))",
						"numberOfBytes": "32",
						"value": "t_mapping(t_address,t_uint256)"
					},
					"t_mapping(t_address,t_struct(Student)759_storage)": {
						"encoding": "mapping",
						"key": "t_address",
						"label": "mapping(address => struct status.Student)",
						"numberOfBytes": "32",
						"value": "t_struct(Student)759_storage"
					},
					"t_mapping(t_address,t_uint256)": {
						"encoding": "mapping",
						"key": "t_address",
						"label": "mapping(address => uint256)",
						"numberOfBytes": "32",
						"value": "t_uint256"
					},
					"t_string_storage": {
						"encoding": "bytes",
						"label": "string",
						"numberOfBytes": "32"
					},
					"t_struct(Student)759_storage": {
						"encoding": "inplace",
						"label": "struct status.Student",
						"members": [
							{
								"astId": 748,
								"contract": "sol/send_token.sol:status",
								"label": "name",
								"offset": 0,
								"slot": "0",
								"type": "t_string_storage"
							},
							{
								"astId": 750,
								"contract": "sol/send_token.sol:status",
								"label": "StudentID",
								"offset": 0,
								"slot": "1",
								"type": "t_uint256"
							},
							{
								"astId": 752,
								"contract": "sol/send_token.sol:status",
								"label": "major",
								"offset": 0,
								"slot": "2",
								"type": "t_string_storage"
							},
							{
								"astId": 754,
								"contract": "sol/send_token.sol:status",
								"label": "gpa",
								"offset": 0,
								"slot": "3",
								"type": "t_uint256"
							},
							{
								"astId": 756,
								"contract": "sol/send_token.sol:status",
								"label": "company",
								"offset": 0,
								"slot": "4",
								"type": "t_string_storage"
							},
							{
								"astId": 758,
								"contract": "sol/send_token.sol:status",
								"label": "balance",
								"offset": 0,
								"slot": "5",
								"type": "t_uint256"
							}
						],
						"numberOfBytes": "192"
					},
					"t_uint256": {
						"encoding": "inplace",
						"label": "uint256",
						"numberOfBytes": "32"
					}
				}
			},
			"userdoc": {
				"kind": "user",
				"methods": {},
				"version": 1
			}
		}
	}
}