{
	"data": {
		"bytecode": {
			"linkReferences": {},
			"object": "60806040526040518060200160405280600081525060009081620000249190620002b8565b5060006001553480156200003757600080fd5b506200039f565b600081519050919050565b7f4e487b7100000000000000000000000000000000000000000000000000000000600052604160045260246000fd5b7f4e487b7100000000000000000000000000000000000000000000000000000000600052602260045260246000fd5b60006002820490506001821680620000c057607f821691505b602082108103620000d657620000d562000078565b5b50919050565b60008190508160005260206000209050919050565b60006020601f8301049050919050565b600082821b905092915050565b600060088302620001407fffffffffffffffffffffffffffffffffffffffffffffffffffffffffffffffff8262000101565b6200014c868362000101565b95508019841693508086168417925050509392505050565b6000819050919050565b6000819050919050565b600062000199620001936200018d8462000164565b6200016e565b62000164565b9050919050565b6000819050919050565b620001b58362000178565b620001cd620001c482620001a0565b8484546200010e565b825550505050565b600090565b620001e4620001d5565b620001f1818484620001aa565b505050565b5b8181101562000219576200020d600082620001da565b600181019050620001f7565b5050565b601f82111562000268576200023281620000dc565b6200023d84620000f1565b810160208510156200024d578190505b620002656200025c85620000f1565b830182620001f6565b50505b505050565b600082821c905092915050565b60006200028d600019846008026200026d565b1980831691505092915050565b6000620002a883836200027a565b9150826002028217905092915050565b620002c3826200003e565b67ffffffffffffffff811115620002df57620002de62000049565b5b620002eb8254620000a7565b620002f88282856200021d565b600060209050601f8311600181146200033057600084156200031b578287015190505b6200032785826200029a565b86555062000397565b601f1984166200034086620000dc565b60005b828110156200036a5784890151825560018201915060208501945060208101905062000343565b868310156200038a578489015162000386601f8916826200027a565b8355505b6001600288020188555050505b505050505050565b610c8680620003af6000396000f3fe6080604052600436106100345760003560e01c80630b1fa23f146100395780630ebcbdb8146100555780638b9c657a14610071575b600080fd5b610053600480360381019061004e919061055e565b6100b3565b005b61006f600480360381019061006a9190610745565b610134565b005b34801561007d57600080fd5b5061009860048036038101906100939190610826565b610318565b6040516100aa969594939291906108e1565b60405180910390f35b8073ffffffffffffffffffffffffffffffffffffffff166108fc349081150290604051600060405180830381858888f193505050501580156100f9573d6000803e3d6000fd5b507fe4f740571b79610deff27ca80ef3046de224a7fc42e82177a0d9919cd5b7a8d9346040516101299190610957565b60405180910390a150565b84600360008873ffffffffffffffffffffffffffffffffffffffff1673ffffffffffffffffffffffffffffffffffffffff16815260200190815260200160002060000190816101839190610b7e565b5083600360008873ffffffffffffffffffffffffffffffffffffffff1673ffffffffffffffffffffffffffffffffffffffff1681526020019081526020016000206001018190555082600360008873ffffffffffffffffffffffffffffffffffffffff1673ffffffffffffffffffffffffffffffffffffffff168152602001908152602001600020600201908161021a9190610b7e565b5081600360008873ffffffffffffffffffffffffffffffffffffffff1673ffffffffffffffffffffffffffffffffffffffff1681526020019081526020016000206003018190555080600360008873ffffffffffffffffffffffffffffffffffffffff1673ffffffffffffffffffffffffffffffffffffffff16815260200190815260200160002060040190816102b19190610b7e565b508573ffffffffffffffffffffffffffffffffffffffff1631600360008873ffffffffffffffffffffffffffffffffffffffff1673ffffffffffffffffffffffffffffffffffffffff16815260200190815260200160002060050181905550505050505050565b600360205280600052604060002060009150905080600001805461033b906109a1565b80601f0160208091040260200160405190810160405280929190818152602001828054610367906109a1565b80156103b45780601f10610389576101008083540402835291602001916103b4565b820191906000526020600020905b81548152906001019060200180831161039757829003601f168201915b5050505050908060010154908060020180546103cf906109a1565b80601f01602080910402602001604051908101604052809291908181526020018280546103fb906109a1565b80156104485780601f1061041d57610100808354040283529160200191610448565b820191906000526020600020905b81548152906001019060200180831161042b57829003601f168201915b505050505090806003015490806004018054610463906109a1565b80601f016020809104026020016040519081016040528092919081815260200182805461048f906109a1565b80156104dc5780601f106104b1576101008083540402835291602001916104dc565b820191906000526020600020905b8154815290600101906020018083116104bf57829003601f168201915b5050505050908060050154905086565b6000604051905090565b600080fd5b600080fd5b600073ffffffffffffffffffffffffffffffffffffffff82169050919050565b600061052b82610500565b9050919050565b61053b81610520565b811461054657600080fd5b50565b60008135905061055881610532565b92915050565b600060208284031215610574576105736104f6565b5b600061058284828501610549565b91505092915050565b600061059682610500565b9050919050565b6105a68161058b565b81146105b157600080fd5b50565b6000813590506105c38161059d565b92915050565b600080fd5b600080fd5b6000601f19601f8301169050919050565b7f4e487b7100000000000000000000000000000000000000000000000000000000600052604160045260246000fd5b61061c826105d3565b810181811067ffffffffffffffff8211171561063b5761063a6105e4565b5b80604052505050565b600061064e6104ec565b905061065a8282610613565b919050565b600067ffffffffffffffff82111561067a576106796105e4565b5b610683826105d3565b9050602081019050919050565b82818337600083830152505050565b60006106b26106ad8461065f565b610644565b9050828152602081018484840111156106ce576106cd6105ce565b5b6106d9848285610690565b509392505050565b600082601f8301126106f6576106f56105c9565b5b813561070684826020860161069f565b91505092915050565b6000819050919050565b6107228161070f565b811461072d57600080fd5b50565b60008135905061073f81610719565b92915050565b60008060008060008060c08789031215610762576107616104f6565b5b600061077089828a016105b4565b965050602087013567ffffffffffffffff811115610791576107906104fb565b5b61079d89828a016106e1565b95505060406107ae89828a01610730565b945050606087013567ffffffffffffffff8111156107cf576107ce6104fb565b5b6107db89828a016106e1565b93505060806107ec89828a01610730565b92505060a087013567ffffffffffffffff81111561080d5761080c6104fb565b5b61081989828a016106e1565b9150509295509295509295565b60006020828403121561083c5761083b6104f6565b5b600061084a848285016105b4565b91505092915050565b600081519050919050565b600082825260208201905092915050565b60005b8381101561088d578082015181840152602081019050610872565b60008484015250505050565b60006108a482610853565b6108ae818561085e565b93506108be81856020860161086f565b6108c7816105d3565b840191505092915050565b6108db8161070f565b82525050565b600060c08201905081810360008301526108fb8189610899565b905061090a60208301886108d2565b818103604083015261091c8187610899565b905061092b60608301866108d2565b818103608083015261093d8185610899565b905061094c60a08301846108d2565b979650505050505050565b600060208201905061096c60008301846108d2565b92915050565b7f4e487b7100000000000000000000000000000000000000000000000000000000600052602260045260246000fd5b600060028204905060018216806109b957607f821691505b6020821081036109cc576109cb610972565b5b50919050565b60008190508160005260206000209050919050565b60006020601f8301049050919050565b600082821b905092915050565b600060088302610a347fffffffffffffffffffffffffffffffffffffffffffffffffffffffffffffffff826109f7565b610a3e86836109f7565b95508019841693508086168417925050509392505050565b6000819050919050565b6000610a7b610a76610a718461070f565b610a56565b61070f565b9050919050565b6000819050919050565b610a9583610a60565b610aa9610aa182610a82565b848454610a04565b825550505050565b600090565b610abe610ab1565b610ac9818484610a8c565b505050565b5b81811015610aed57610ae2600082610ab6565b600181019050610acf565b5050565b601f821115610b3257610b03816109d2565b610b0c846109e7565b81016020851015610b1b578190505b610b2f610b27856109e7565b830182610ace565b50505b505050565b600082821c905092915050565b6000610b5560001984600802610b37565b1980831691505092915050565b6000610b6e8383610b44565b9150826002028217905092915050565b610b8782610853565b67ffffffffffffffff811115610ba057610b9f6105e4565b5b610baa82546109a1565b610bb5828285610af1565b600060209050601f831160018114610be85760008415610bd6578287015190505b610be08582610b62565b865550610c48565b601f198416610bf6866109d2565b60005b82811015610c1e57848901518255600182019150602085019450602081019050610bf9565b86831015610c3b5784890151610c37601f891682610b44565b8355505b6001600288020188555050505b50505050505056fea264697066735822122031d44d7ff1dbb38ea54c6731366a922e74eaf37391b5f56ff774ed8597f81e3c64736f6c63430008110033",
			"opcodes": "PUSH1 0x80 PUSH1 0x40 MSTORE PUSH1 0x40 MLOAD DUP1 PUSH1 0x20 ADD PUSH1 0x40 MSTORE DUP1 PUSH1 0x0 DUP2 MSTORE POP PUSH1 0x0 SWAP1 DUP2 PUSH3 0x24 SWAP2 SWAP1 PUSH3 0x2B8 JUMP JUMPDEST POP PUSH1 0x0 PUSH1 0x1 SSTORE CALLVALUE DUP1 ISZERO PUSH3 0x37 JUMPI PUSH1 0x0 DUP1 REVERT JUMPDEST POP PUSH3 0x39F JUMP JUMPDEST PUSH1 0x0 DUP2 MLOAD SWAP1 POP SWAP2 SWAP1 POP JUMP JUMPDEST PUSH32 0x4E487B7100000000000000000000000000000000000000000000000000000000 PUSH1 0x0 MSTORE PUSH1 0x41 PUSH1 0x4 MSTORE PUSH1 0x24 PUSH1 0x0 REVERT JUMPDEST PUSH32 0x4E487B7100000000000000000000000000000000000000000000000000000000 PUSH1 0x0 MSTORE PUSH1 0x22 PUSH1 0x4 MSTORE PUSH1 0x24 PUSH1 0x0 REVERT JUMPDEST PUSH1 0x0 PUSH1 0x2 DUP3 DIV SWAP1 POP PUSH1 0x1 DUP3 AND DUP1 PUSH3 0xC0 JUMPI PUSH1 0x7F DUP3 AND SWAP2 POP JUMPDEST PUSH1 0x20 DUP3 LT DUP2 SUB PUSH3 0xD6 JUMPI PUSH3 0xD5 PUSH3 0x78 JUMP JUMPDEST JUMPDEST POP SWAP2 SWAP1 POP JUMP JUMPDEST PUSH1 0x0 DUP2 SWAP1 POP DUP2 PUSH1 0x0 MSTORE PUSH1 0x20 PUSH1 0x0 KECCAK256 SWAP1 POP SWAP2 SWAP1 POP JUMP JUMPDEST PUSH1 0x0 PUSH1 0x20 PUSH1 0x1F DUP4 ADD DIV SWAP1 POP SWAP2 SWAP1 POP JUMP JUMPDEST PUSH1 0x0 DUP3 DUP3 SHL SWAP1 POP SWAP3 SWAP2 POP POP JUMP JUMPDEST PUSH1 0x0 PUSH1 0x8 DUP4 MUL PUSH3 0x140 PUSH32 0xFFFFFFFFFFFFFFFFFFFFFFFFFFFFFFFFFFFFFFFFFFFFFFFFFFFFFFFFFFFFFFFF DUP3 PUSH3 0x101 JUMP JUMPDEST PUSH3 0x14C DUP7 DUP4 PUSH3 0x101 JUMP JUMPDEST SWAP6 POP DUP1 NOT DUP5 AND SWAP4 POP DUP1 DUP7 AND DUP5 OR SWAP3 POP POP POP SWAP4 SWAP3 POP POP POP JUMP JUMPDEST PUSH1 0x0 DUP2 SWAP1 POP SWAP2 SWAP1 POP JUMP JUMPDEST PUSH1 0x0 DUP2 SWAP1 POP SWAP2 SWAP1 POP JUMP JUMPDEST PUSH1 0x0 PUSH3 0x199 PUSH3 0x193 PUSH3 0x18D DUP5 PUSH3 0x164 JUMP JUMPDEST PUSH3 0x16E JUMP JUMPDEST PUSH3 0x164 JUMP JUMPDEST SWAP1 POP SWAP2 SWAP1 POP JUMP JUMPDEST PUSH1 0x0 DUP2 SWAP1 POP SWAP2 SWAP1 POP JUMP JUMPDEST PUSH3 0x1B5 DUP4 PUSH3 0x178 JUMP JUMPDEST PUSH3 0x1CD PUSH3 0x1C4 DUP3 PUSH3 0x1A0 JUMP JUMPDEST DUP5 DUP5 SLOAD PUSH3 0x10E JUMP JUMPDEST DUP3 SSTORE POP POP POP POP JUMP JUMPDEST PUSH1 0x0 SWAP1 JUMP JUMPDEST PUSH3 0x1E4 PUSH3 0x1D5 JUMP JUMPDEST PUSH3 0x1F1 DUP2 DUP5 DUP5 PUSH3 0x1AA JUMP JUMPDEST POP POP POP JUMP JUMPDEST JUMPDEST DUP2 DUP2 LT ISZERO PUSH3 0x219 JUMPI PUSH3 0x20D PUSH1 0x0 DUP3 PUSH3 0x1DA JUMP JUMPDEST PUSH1 0x1 DUP2 ADD SWAP1 POP PUSH3 0x1F7 JUMP JUMPDEST POP POP JUMP JUMPDEST PUSH1 0x1F DUP3 GT ISZERO PUSH3 0x268 JUMPI PUSH3 0x232 DUP2 PUSH3 0xDC JUMP JUMPDEST PUSH3 0x23D DUP5 PUSH3 0xF1 JUMP JUMPDEST DUP2 ADD PUSH1 0x20 DUP6 LT ISZERO PUSH3 0x24D JUMPI DUP2 SWAP1 POP JUMPDEST PUSH3 0x265 PUSH3 0x25C DUP6 PUSH3 0xF1 JUMP JUMPDEST DUP4 ADD DUP3 PUSH3 0x1F6 JUMP JUMPDEST POP POP JUMPDEST POP POP POP JUMP JUMPDEST PUSH1 0x0 DUP3 DUP3 SHR SWAP1 POP SWAP3 SWAP2 POP POP JUMP JUMPDEST PUSH1 0x0 PUSH3 0x28D PUSH1 0x0 NOT DUP5 PUSH1 0x8 MUL PUSH3 0x26D JUMP JUMPDEST NOT DUP1 DUP4 AND SWAP2 POP POP SWAP3 SWAP2 POP POP JUMP JUMPDEST PUSH1 0x0 PUSH3 0x2A8 DUP4 DUP4 PUSH3 0x27A JUMP JUMPDEST SWAP2 POP DUP3 PUSH1 0x2 MUL DUP3 OR SWAP1 POP SWAP3 SWAP2 POP POP JUMP JUMPDEST PUSH3 0x2C3 DUP3 PUSH3 0x3E JUMP JUMPDEST PUSH8 0xFFFFFFFFFFFFFFFF DUP2 GT ISZERO PUSH3 0x2DF JUMPI PUSH3 0x2DE PUSH3 0x49 JUMP JUMPDEST JUMPDEST PUSH3 0x2EB DUP3 SLOAD PUSH3 0xA7 JUMP JUMPDEST PUSH3 0x2F8 DUP3 DUP3 DUP6 PUSH3 0x21D JUMP JUMPDEST PUSH1 0x0 PUSH1 0x20 SWAP1 POP PUSH1 0x1F DUP4 GT PUSH1 0x1 DUP2 EQ PUSH3 0x330 JUMPI PUSH1 0x0 DUP5 ISZERO PUSH3 0x31B JUMPI DUP3 DUP8 ADD MLOAD SWAP1 POP JUMPDEST PUSH3 0x327 DUP6 DUP3 PUSH3 0x29A JUMP JUMPDEST DUP7 SSTORE POP PUSH3 0x397 JUMP JUMPDEST PUSH1 0x1F NOT DUP5 AND PUSH3 0x340 DUP7 PUSH3 0xDC JUMP JUMPDEST PUSH1 0x0 JUMPDEST DUP3 DUP2 LT ISZERO PUSH3 0x36A JUMPI DUP5 DUP10 ADD MLOAD DUP3 SSTORE PUSH1 0x1 DUP3 ADD SWAP2 POP PUSH1 0x20 DUP6 ADD SWAP5 POP PUSH1 0x20 DUP2 ADD SWAP1 POP PUSH3 0x343 JUMP JUMPDEST DUP7 DUP4 LT ISZERO PUSH3 0x38A JUMPI DUP5 DUP10 ADD MLOAD PUSH3 0x386 PUSH1 0x1F DUP10 AND DUP3 PUSH3 0x27A JUMP JUMPDEST DUP4 SSTORE POP JUMPDEST PUSH1 0x1 PUSH1 0x2 DUP9 MUL ADD DUP9 SSTORE POP POP POP JUMPDEST POP POP POP POP POP POP JUMP JUMPDEST PUSH2 0xC86 DUP1 PUSH3 0x3AF PUSH1 0x0 CODECOPY PUSH1 0x0 RETURN INVALID PUSH1 0x80 PUSH1 0x40 MSTORE PUSH1 0x4 CALLDATASIZE LT PUSH2 0x34 JUMPI PUSH1 0x0 CALLDATALOAD PUSH1 0xE0 SHR DUP1 PUSH4 0xB1FA23F EQ PUSH2 0x39 JUMPI DUP1 PUSH4 0xEBCBDB8 EQ PUSH2 0x55 JUMPI DUP1 PUSH4 0x8B9C657A EQ PUSH2 0x71 JUMPI JUMPDEST PUSH1 0x0 DUP1 REVERT JUMPDEST PUSH2 0x53 PUSH1 0x4 DUP1 CALLDATASIZE SUB DUP2 ADD SWAP1 PUSH2 0x4E SWAP2 SWAP1 PUSH2 0x55E JUMP JUMPDEST PUSH2 0xB3 JUMP JUMPDEST STOP JUMPDEST PUSH2 0x6F PUSH1 0x4 DUP1 CALLDATASIZE SUB DUP2 ADD SWAP1 PUSH2 0x6A SWAP2 SWAP1 PUSH2 0x745 JUMP JUMPDEST PUSH2 0x134 JUMP JUMPDEST STOP JUMPDEST CALLVALUE DUP1 ISZERO PUSH2 0x7D JUMPI PUSH1 0x0 DUP1 REVERT JUMPDEST POP PUSH2 0x98 PUSH1 0x4 DUP1 CALLDATASIZE SUB DUP2 ADD SWAP1 PUSH2 0x93 SWAP2 SWAP1 PUSH2 0x826 JUMP JUMPDEST PUSH2 0x318 JUMP JUMPDEST PUSH1 0x40 MLOAD PUSH2 0xAA SWAP7 SWAP6 SWAP5 SWAP4 SWAP3 SWAP2 SWAP1 PUSH2 0x8E1 JUMP JUMPDEST PUSH1 0x40 MLOAD DUP1 SWAP2 SUB SWAP1 RETURN JUMPDEST DUP1 PUSH20 0xFFFFFFFFFFFFFFFFFFFFFFFFFFFFFFFFFFFFFFFF AND PUSH2 0x8FC CALLVALUE SWAP1 DUP2 ISZERO MUL SWAP1 PUSH1 0x40 MLOAD PUSH1 0x0 PUSH1 0x40 MLOAD DUP1 DUP4 SUB DUP2 DUP6 DUP9 DUP9 CALL SWAP4 POP POP POP POP ISZERO DUP1 ISZERO PUSH2 0xF9 JUMPI RETURNDATASIZE PUSH1 0x0 DUP1 RETURNDATACOPY RETURNDATASIZE PUSH1 0x0 REVERT JUMPDEST POP PUSH32 0xE4F740571B79610DEFF27CA80EF3046DE224A7FC42E82177A0D9919CD5B7A8D9 CALLVALUE PUSH1 0x40 MLOAD PUSH2 0x129 SWAP2 SWAP1 PUSH2 0x957 JUMP JUMPDEST PUSH1 0x40 MLOAD DUP1 SWAP2 SUB SWAP1 LOG1 POP JUMP JUMPDEST DUP5 PUSH1 0x3 PUSH1 0x0 DUP9 PUSH20 0xFFFFFFFFFFFFFFFFFFFFFFFFFFFFFFFFFFFFFFFF AND PUSH20 0xFFFFFFFFFFFFFFFFFFFFFFFFFFFFFFFFFFFFFFFF AND DUP2 MSTORE PUSH1 0x20 ADD SWAP1 DUP2 MSTORE PUSH1 0x20 ADD PUSH1 0x0 KECCAK256 PUSH1 0x0 ADD SWAP1 DUP2 PUSH2 0x183 SWAP2 SWAP1 PUSH2 0xB7E JUMP JUMPDEST POP DUP4 PUSH1 0x3 PUSH1 0x0 DUP9 PUSH20 0xFFFFFFFFFFFFFFFFFFFFFFFFFFFFFFFFFFFFFFFF AND PUSH20 0xFFFFFFFFFFFFFFFFFFFFFFFFFFFFFFFFFFFFFFFF AND DUP2 MSTORE PUSH1 0x20 ADD SWAP1 DUP2 MSTORE PUSH1 0x20 ADD PUSH1 0x0 KECCAK256 PUSH1 0x1 ADD DUP2 SWAP1 SSTORE POP DUP3 PUSH1 0x3 PUSH1 0x0 DUP9 PUSH20 0xFFFFFFFFFFFFFFFFFFFFFFFFFFFFFFFFFFFFFFFF AND PUSH20 0xFFFFFFFFFFFFFFFFFFFFFFFFFFFFFFFFFFFFFFFF AND DUP2 MSTORE PUSH1 0x20 ADD SWAP1 DUP2 MSTORE PUSH1 0x20 ADD PUSH1 0x0 KECCAK256 PUSH1 0x2 ADD SWAP1 DUP2 PUSH2 0x21A SWAP2 SWAP1 PUSH2 0xB7E JUMP JUMPDEST POP DUP2 PUSH1 0x3 PUSH1 0x0 DUP9 PUSH20 0xFFFFFFFFFFFFFFFFFFFFFFFFFFFFFFFFFFFFFFFF AND PUSH20 0xFFFFFFFFFFFFFFFFFFFFFFFFFFFFFFFFFFFFFFFF AND DUP2 MSTORE PUSH1 0x20 ADD SWAP1 DUP2 MSTORE PUSH1 0x20 ADD PUSH1 0x0 KECCAK256 PUSH1 0x3 ADD DUP2 SWAP1 SSTORE POP DUP1 PUSH1 0x3 PUSH1 0x0 DUP9 PUSH20 0xFFFFFFFFFFFFFFFFFFFFFFFFFFFFFFFFFFFFFFFF AND PUSH20 0xFFFFFFFFFFFFFFFFFFFFFFFFFFFFFFFFFFFFFFFF AND DUP2 MSTORE PUSH1 0x20 ADD SWAP1 DUP2 MSTORE PUSH1 0x20 ADD PUSH1 0x0 KECCAK256 PUSH1 0x4 ADD SWAP1 DUP2 PUSH2 0x2B1 SWAP2 SWAP1 PUSH2 0xB7E JUMP JUMPDEST POP DUP6 PUSH20 0xFFFFFFFFFFFFFFFFFFFFFFFFFFFFFFFFFFFFFFFF AND BALANCE PUSH1 0x3 PUSH1 0x0 DUP9 PUSH20 0xFFFFFFFFFFFFFFFFFFFFFFFFFFFFFFFFFFFFFFFF AND PUSH20 0xFFFFFFFFFFFFFFFFFFFFFFFFFFFFFFFFFFFFFFFF AND DUP2 MSTORE PUSH1 0x20 ADD SWAP1 DUP2 MSTORE PUSH1 0x20 ADD PUSH1 0x0 KECCAK256 PUSH1 0x5 ADD DUP2 SWAP1 SSTORE POP POP POP POP POP POP POP JUMP JUMPDEST PUSH1 0x3 PUSH1 0x20 MSTORE DUP1 PUSH1 0x0 MSTORE PUSH1 0x40 PUSH1 0x0 KECCAK256 PUSH1 0x0 SWAP2 POP SWAP1 POP DUP1 PUSH1 0x0 ADD DUP1 SLOAD PUSH2 0x33B SWAP1 PUSH2 0x9A1 JUMP JUMPDEST DUP1 PUSH1 0x1F ADD PUSH1 0x20 DUP1 SWAP2 DIV MUL PUSH1 0x20 ADD PUSH1 0x40 MLOAD SWAP1 DUP2 ADD PUSH1 0x40 MSTORE DUP1 SWAP3 SWAP2 SWAP1 DUP2 DUP2 MSTORE PUSH1 0x20 ADD DUP3 DUP1 SLOAD PUSH2 0x367 SWAP1 PUSH2 0x9A1 JUMP JUMPDEST DUP1 ISZERO PUSH2 0x3B4 JUMPI DUP1 PUSH1 0x1F LT PUSH2 0x389 JUMPI PUSH2 0x100 DUP1 DUP4 SLOAD DIV MUL DUP4 MSTORE SWAP2 PUSH1 0x20 ADD SWAP2 PUSH2 0x3B4 JUMP JUMPDEST DUP3 ADD SWAP2 SWAP1 PUSH1 0x0 MSTORE PUSH1 0x20 PUSH1 0x0 KECCAK256 SWAP1 JUMPDEST DUP2 SLOAD DUP2 MSTORE SWAP1 PUSH1 0x1 ADD SWAP1 PUSH1 0x20 ADD DUP1 DUP4 GT PUSH2 0x397 JUMPI DUP3 SWAP1 SUB PUSH1 0x1F AND DUP3 ADD SWAP2 JUMPDEST POP POP POP POP POP SWAP1 DUP1 PUSH1 0x1 ADD SLOAD SWAP1 DUP1 PUSH1 0x2 ADD DUP1 SLOAD PUSH2 0x3CF SWAP1 PUSH2 0x9A1 JUMP JUMPDEST DUP1 PUSH1 0x1F ADD PUSH1 0x20 DUP1 SWAP2 DIV MUL PUSH1 0x20 ADD PUSH1 0x40 MLOAD SWAP1 DUP2 ADD PUSH1 0x40 MSTORE DUP1 SWAP3 SWAP2 SWAP1 DUP2 DUP2 MSTORE PUSH1 0x20 ADD DUP3 DUP1 SLOAD PUSH2 0x3FB SWAP1 PUSH2 0x9A1 JUMP JUMPDEST DUP1 ISZERO PUSH2 0x448 JUMPI DUP1 PUSH1 0x1F LT PUSH2 0x41D JUMPI PUSH2 0x100 DUP1 DUP4 SLOAD DIV MUL DUP4 MSTORE SWAP2 PUSH1 0x20 ADD SWAP2 PUSH2 0x448 JUMP JUMPDEST DUP3 ADD SWAP2 SWAP1 PUSH1 0x0 MSTORE PUSH1 0x20 PUSH1 0x0 KECCAK256 SWAP1 JUMPDEST DUP2 SLOAD DUP2 MSTORE SWAP1 PUSH1 0x1 ADD SWAP1 PUSH1 0x20 ADD DUP1 DUP4 GT PUSH2 0x42B JUMPI DUP3 SWAP1 SUB PUSH1 0x1F AND DUP3 ADD SWAP2 JUMPDEST POP POP POP POP POP SWAP1 DUP1 PUSH1 0x3 ADD SLOAD SWAP1 DUP1 PUSH1 0x4 ADD DUP1 SLOAD PUSH2 0x463 SWAP1 PUSH2 0x9A1 JUMP JUMPDEST DUP1 PUSH1 0x1F ADD PUSH1 0x20 DUP1 SWAP2 DIV MUL PUSH1 0x20 ADD PUSH1 0x40 MLOAD SWAP1 DUP2 ADD PUSH1 0x40 MSTORE DUP1 SWAP3 SWAP2 SWAP1 DUP2 DUP2 MSTORE PUSH1 0x20 ADD DUP3 DUP1 SLOAD PUSH2 0x48F SWAP1 PUSH2 0x9A1 JUMP JUMPDEST DUP1 ISZERO PUSH2 0x4DC JUMPI DUP1 PUSH1 0x1F LT PUSH2 0x4B1 JUMPI PUSH2 0x100 DUP1 DUP4 SLOAD DIV MUL DUP4 MSTORE SWAP2 PUSH1 0x20 ADD SWAP2 PUSH2 0x4DC JUMP JUMPDEST DUP3 ADD SWAP2 SWAP1 PUSH1 0x0 MSTORE PUSH1 0x20 PUSH1 0x0 KECCAK256 SWAP1 JUMPDEST DUP2 SLOAD DUP2 MSTORE SWAP1 PUSH1 0x1 ADD SWAP1 PUSH1 0x20 ADD DUP1 DUP4 GT PUSH2 0x4BF JUMPI DUP3 SWAP1 SUB PUSH1 0x1F AND DUP3 ADD SWAP2 JUMPDEST POP POP POP POP POP SWAP1 DUP1 PUSH1 0x5 ADD SLOAD SWAP1 POP DUP7 JUMP JUMPDEST PUSH1 0x0 PUSH1 0x40 MLOAD SWAP1 POP SWAP1 JUMP JUMPDEST PUSH1 0x0 DUP1 REVERT JUMPDEST PUSH1 0x0 DUP1 REVERT JUMPDEST PUSH1 0x0 PUSH20 0xFFFFFFFFFFFFFFFFFFFFFFFFFFFFFFFFFFFFFFFF DUP3 AND SWAP1 POP SWAP2 SWAP1 POP JUMP JUMPDEST PUSH1 0x0 PUSH2 0x52B DUP3 PUSH2 0x500 JUMP JUMPDEST SWAP1 POP SWAP2 SWAP1 POP JUMP JUMPDEST PUSH2 0x53B DUP2 PUSH2 0x520 JUMP JUMPDEST DUP2 EQ PUSH2 0x546 JUMPI PUSH1 0x0 DUP1 REVERT JUMPDEST POP JUMP JUMPDEST PUSH1 0x0 DUP2 CALLDATALOAD SWAP1 POP PUSH2 0x558 DUP2 PUSH2 0x532 JUMP JUMPDEST SWAP3 SWAP2 POP POP JUMP JUMPDEST PUSH1 0x0 PUSH1 0x20 DUP3 DUP5 SUB SLT ISZERO PUSH2 0x574 JUMPI PUSH2 0x573 PUSH2 0x4F6 JUMP JUMPDEST JUMPDEST PUSH1 0x0 PUSH2 0x582 DUP5 DUP3 DUP6 ADD PUSH2 0x549 JUMP JUMPDEST SWAP2 POP POP SWAP3 SWAP2 POP POP JUMP JUMPDEST PUSH1 0x0 PUSH2 0x596 DUP3 PUSH2 0x500 JUMP JUMPDEST SWAP1 POP SWAP2 SWAP1 POP JUMP JUMPDEST PUSH2 0x5A6 DUP2 PUSH2 0x58B JUMP JUMPDEST DUP2 EQ PUSH2 0x5B1 JUMPI PUSH1 0x0 DUP1 REVERT JUMPDEST POP JUMP JUMPDEST PUSH1 0x0 DUP2 CALLDATALOAD SWAP1 POP PUSH2 0x5C3 DUP2 PUSH2 0x59D JUMP JUMPDEST SWAP3 SWAP2 POP POP JUMP JUMPDEST PUSH1 0x0 DUP1 REVERT JUMPDEST PUSH1 0x0 DUP1 REVERT JUMPDEST PUSH1 0x0 PUSH1 0x1F NOT PUSH1 0x1F DUP4 ADD AND SWAP1 POP SWAP2 SWAP1 POP JUMP JUMPDEST PUSH32 0x4E487B7100000000000000000000000000000000000000000000000000000000 PUSH1 0x0 MSTORE PUSH1 0x41 PUSH1 0x4 MSTORE PUSH1 0x24 PUSH1 0x0 REVERT JUMPDEST PUSH2 0x61C DUP3 PUSH2 0x5D3 JUMP JUMPDEST DUP2 ADD DUP2 DUP2 LT PUSH8 0xFFFFFFFFFFFFFFFF DUP3 GT OR ISZERO PUSH2 0x63B JUMPI PUSH2 0x63A PUSH2 0x5E4 JUMP JUMPDEST JUMPDEST DUP1 PUSH1 0x40 MSTORE POP POP POP JUMP JUMPDEST PUSH1 0x0 PUSH2 0x64E PUSH2 0x4EC JUMP JUMPDEST SWAP1 POP PUSH2 0x65A DUP3 DUP3 PUSH2 0x613 JUMP JUMPDEST SWAP2 SWAP1 POP JUMP JUMPDEST PUSH1 0x0 PUSH8 0xFFFFFFFFFFFFFFFF DUP3 GT ISZERO PUSH2 0x67A JUMPI PUSH2 0x679 PUSH2 0x5E4 JUMP JUMPDEST JUMPDEST PUSH2 0x683 DUP3 PUSH2 0x5D3 JUMP JUMPDEST SWAP1 POP PUSH1 0x20 DUP2 ADD SWAP1 POP SWAP2 SWAP1 POP JUMP JUMPDEST DUP3 DUP2 DUP4 CALLDATACOPY PUSH1 0x0 DUP4 DUP4 ADD MSTORE POP POP POP JUMP JUMPDEST PUSH1 0x0 PUSH2 0x6B2 PUSH2 0x6AD DUP5 PUSH2 0x65F JUMP JUMPDEST PUSH2 0x644 JUMP JUMPDEST SWAP1 POP DUP3 DUP2 MSTORE PUSH1 0x20 DUP2 ADD DUP5 DUP5 DUP5 ADD GT ISZERO PUSH2 0x6CE JUMPI PUSH2 0x6CD PUSH2 0x5CE JUMP JUMPDEST JUMPDEST PUSH2 0x6D9 DUP5 DUP3 DUP6 PUSH2 0x690 JUMP JUMPDEST POP SWAP4 SWAP3 POP POP POP JUMP JUMPDEST PUSH1 0x0 DUP3 PUSH1 0x1F DUP4 ADD SLT PUSH2 0x6F6 JUMPI PUSH2 0x6F5 PUSH2 0x5C9 JUMP JUMPDEST JUMPDEST DUP2 CALLDATALOAD PUSH2 0x706 DUP5 DUP3 PUSH1 0x20 DUP7 ADD PUSH2 0x69F JUMP JUMPDEST SWAP2 POP POP SWAP3 SWAP2 POP POP JUMP JUMPDEST PUSH1 0x0 DUP2 SWAP1 POP SWAP2 SWAP1 POP JUMP JUMPDEST PUSH2 0x722 DUP2 PUSH2 0x70F JUMP JUMPDEST DUP2 EQ PUSH2 0x72D JUMPI PUSH1 0x0 DUP1 REVERT JUMPDEST POP JUMP JUMPDEST PUSH1 0x0 DUP2 CALLDATALOAD SWAP1 POP PUSH2 0x73F DUP2 PUSH2 0x719 JUMP JUMPDEST SWAP3 SWAP2 POP POP JUMP JUMPDEST PUSH1 0x0 DUP1 PUSH1 0x0 DUP1 PUSH1 0x0 DUP1 PUSH1 0xC0 DUP8 DUP10 SUB SLT ISZERO PUSH2 0x762 JUMPI PUSH2 0x761 PUSH2 0x4F6 JUMP JUMPDEST JUMPDEST PUSH1 0x0 PUSH2 0x770 DUP10 DUP3 DUP11 ADD PUSH2 0x5B4 JUMP JUMPDEST SWAP7 POP POP PUSH1 0x20 DUP8 ADD CALLDATALOAD PUSH8 0xFFFFFFFFFFFFFFFF DUP2 GT ISZERO PUSH2 0x791 JUMPI PUSH2 0x790 PUSH2 0x4FB JUMP JUMPDEST JUMPDEST PUSH2 0x79D DUP10 DUP3 DUP11 ADD PUSH2 0x6E1 JUMP JUMPDEST SWAP6 POP POP PUSH1 0x40 PUSH2 0x7AE DUP10 DUP3 DUP11 ADD PUSH2 0x730 JUMP JUMPDEST SWAP5 POP POP PUSH1 0x60 DUP8 ADD CALLDATALOAD PUSH8 0xFFFFFFFFFFFFFFFF DUP2 GT ISZERO PUSH2 0x7CF JUMPI PUSH2 0x7CE PUSH2 0x4FB JUMP JUMPDEST JUMPDEST PUSH2 0x7DB DUP10 DUP3 DUP11 ADD PUSH2 0x6E1 JUMP JUMPDEST SWAP4 POP POP PUSH1 0x80 PUSH2 0x7EC DUP10 DUP3 DUP11 ADD PUSH2 0x730 JUMP JUMPDEST SWAP3 POP POP PUSH1 0xA0 DUP8 ADD CALLDATALOAD PUSH8 0xFFFFFFFFFFFFFFFF DUP2 GT ISZERO PUSH2 0x80D JUMPI PUSH2 0x80C PUSH2 0x4FB JUMP JUMPDEST JUMPDEST PUSH2 0x819 DUP10 DUP3 DUP11 ADD PUSH2 0x6E1 JUMP JUMPDEST SWAP2 POP POP SWAP3 SWAP6 POP SWAP3 SWAP6 POP SWAP3 SWAP6 JUMP JUMPDEST PUSH1 0x0 PUSH1 0x20 DUP3 DUP5 SUB SLT ISZERO PUSH2 0x83C JUMPI PUSH2 0x83B PUSH2 0x4F6 JUMP JUMPDEST JUMPDEST PUSH1 0x0 PUSH2 0x84A DUP5 DUP3 DUP6 ADD PUSH2 0x5B4 JUMP JUMPDEST SWAP2 POP POP SWAP3 SWAP2 POP POP JUMP JUMPDEST PUSH1 0x0 DUP2 MLOAD SWAP1 POP SWAP2 SWAP1 POP JUMP JUMPDEST PUSH1 0x0 DUP3 DUP3 MSTORE PUSH1 0x20 DUP3 ADD SWAP1 POP SWAP3 SWAP2 POP POP JUMP JUMPDEST PUSH1 0x0 JUMPDEST DUP4 DUP2 LT ISZERO PUSH2 0x88D JUMPI DUP1 DUP3 ADD MLOAD DUP2 DUP5 ADD MSTORE PUSH1 0x20 DUP2 ADD SWAP1 POP PUSH2 0x872 JUMP JUMPDEST PUSH1 0x0 DUP5 DUP5 ADD MSTORE POP POP POP POP JUMP JUMPDEST PUSH1 0x0 PUSH2 0x8A4 DUP3 PUSH2 0x853 JUMP JUMPDEST PUSH2 0x8AE DUP2 DUP6 PUSH2 0x85E JUMP JUMPDEST SWAP4 POP PUSH2 0x8BE DUP2 DUP6 PUSH1 0x20 DUP7 ADD PUSH2 0x86F JUMP JUMPDEST PUSH2 0x8C7 DUP2 PUSH2 0x5D3 JUMP JUMPDEST DUP5 ADD SWAP2 POP POP SWAP3 SWAP2 POP POP JUMP JUMPDEST PUSH2 0x8DB DUP2 PUSH2 0x70F JUMP JUMPDEST DUP3 MSTORE POP POP JUMP JUMPDEST PUSH1 0x0 PUSH1 0xC0 DUP3 ADD SWAP1 POP DUP2 DUP2 SUB PUSH1 0x0 DUP4 ADD MSTORE PUSH2 0x8FB DUP2 DUP10 PUSH2 0x899 JUMP JUMPDEST SWAP1 POP PUSH2 0x90A PUSH1 0x20 DUP4 ADD DUP9 PUSH2 0x8D2 JUMP JUMPDEST DUP2 DUP2 SUB PUSH1 0x40 DUP4 ADD MSTORE PUSH2 0x91C DUP2 DUP8 PUSH2 0x899 JUMP JUMPDEST SWAP1 POP PUSH2 0x92B PUSH1 0x60 DUP4 ADD DUP7 PUSH2 0x8D2 JUMP JUMPDEST DUP2 DUP2 SUB PUSH1 0x80 DUP4 ADD MSTORE PUSH2 0x93D DUP2 DUP6 PUSH2 0x899 JUMP JUMPDEST SWAP1 POP PUSH2 0x94C PUSH1 0xA0 DUP4 ADD DUP5 PUSH2 0x8D2 JUMP JUMPDEST SWAP8 SWAP7 POP POP POP POP POP POP POP JUMP JUMPDEST PUSH1 0x0 PUSH1 0x20 DUP3 ADD SWAP1 POP PUSH2 0x96C PUSH1 0x0 DUP4 ADD DUP5 PUSH2 0x8D2 JUMP JUMPDEST SWAP3 SWAP2 POP POP JUMP JUMPDEST PUSH32 0x4E487B7100000000000000000000000000000000000000000000000000000000 PUSH1 0x0 MSTORE PUSH1 0x22 PUSH1 0x4 MSTORE PUSH1 0x24 PUSH1 0x0 REVERT JUMPDEST PUSH1 0x0 PUSH1 0x2 DUP3 DIV SWAP1 POP PUSH1 0x1 DUP3 AND DUP1 PUSH2 0x9B9 JUMPI PUSH1 0x7F DUP3 AND SWAP2 POP JUMPDEST PUSH1 0x20 DUP3 LT DUP2 SUB PUSH2 0x9CC JUMPI PUSH2 0x9CB PUSH2 0x972 JUMP JUMPDEST JUMPDEST POP SWAP2 SWAP1 POP JUMP JUMPDEST PUSH1 0x0 DUP2 SWAP1 POP DUP2 PUSH1 0x0 MSTORE PUSH1 0x20 PUSH1 0x0 KECCAK256 SWAP1 POP SWAP2 SWAP1 POP JUMP JUMPDEST PUSH1 0x0 PUSH1 0x20 PUSH1 0x1F DUP4 ADD DIV SWAP1 POP SWAP2 SWAP1 POP JUMP JUMPDEST PUSH1 0x0 DUP3 DUP3 SHL SWAP1 POP SWAP3 SWAP2 POP POP JUMP JUMPDEST PUSH1 0x0 PUSH1 0x8 DUP4 MUL PUSH2 0xA34 PUSH32 0xFFFFFFFFFFFFFFFFFFFFFFFFFFFFFFFFFFFFFFFFFFFFFFFFFFFFFFFFFFFFFFFF DUP3 PUSH2 0x9F7 JUMP JUMPDEST PUSH2 0xA3E DUP7 DUP4 PUSH2 0x9F7 JUMP JUMPDEST SWAP6 POP DUP1 NOT DUP5 AND SWAP4 POP DUP1 DUP7 AND DUP5 OR SWAP3 POP POP POP SWAP4 SWAP3 POP POP POP JUMP JUMPDEST PUSH1 0x0 DUP2 SWAP1 POP SWAP2 SWAP1 POP JUMP JUMPDEST PUSH1 0x0 PUSH2 0xA7B PUSH2 0xA76 PUSH2 0xA71 DUP5 PUSH2 0x70F JUMP JUMPDEST PUSH2 0xA56 JUMP JUMPDEST PUSH2 0x70F JUMP JUMPDEST SWAP1 POP SWAP2 SWAP1 POP JUMP JUMPDEST PUSH1 0x0 DUP2 SWAP1 POP SWAP2 SWAP1 POP JUMP JUMPDEST PUSH2 0xA95 DUP4 PUSH2 0xA60 JUMP JUMPDEST PUSH2 0xAA9 PUSH2 0xAA1 DUP3 PUSH2 0xA82 JUMP JUMPDEST DUP5 DUP5 SLOAD PUSH2 0xA04 JUMP JUMPDEST DUP3 SSTORE POP POP POP POP JUMP JUMPDEST PUSH1 0x0 SWAP1 JUMP JUMPDEST PUSH2 0xABE PUSH2 0xAB1 JUMP JUMPDEST PUSH2 0xAC9 DUP2 DUP5 DUP5 PUSH2 0xA8C JUMP JUMPDEST POP POP POP JUMP JUMPDEST JUMPDEST DUP2 DUP2 LT ISZERO PUSH2 0xAED JUMPI PUSH2 0xAE2 PUSH1 0x0 DUP3 PUSH2 0xAB6 JUMP JUMPDEST PUSH1 0x1 DUP2 ADD SWAP1 POP PUSH2 0xACF JUMP JUMPDEST POP POP JUMP JUMPDEST PUSH1 0x1F DUP3 GT ISZERO PUSH2 0xB32 JUMPI PUSH2 0xB03 DUP2 PUSH2 0x9D2 JUMP JUMPDEST PUSH2 0xB0C DUP5 PUSH2 0x9E7 JUMP JUMPDEST DUP2 ADD PUSH1 0x20 DUP6 LT ISZERO PUSH2 0xB1B JUMPI DUP2 SWAP1 POP JUMPDEST PUSH2 0xB2F PUSH2 0xB27 DUP6 PUSH2 0x9E7 JUMP JUMPDEST DUP4 ADD DUP3 PUSH2 0xACE JUMP JUMPDEST POP POP JUMPDEST POP POP POP JUMP JUMPDEST PUSH1 0x0 DUP3 DUP3 SHR SWAP1 POP SWAP3 SWAP2 POP POP JUMP JUMPDEST PUSH1 0x0 PUSH2 0xB55 PUSH1 0x0 NOT DUP5 PUSH1 0x8 MUL PUSH2 0xB37 JUMP JUMPDEST NOT DUP1 DUP4 AND SWAP2 POP POP SWAP3 SWAP2 POP POP JUMP JUMPDEST PUSH1 0x0 PUSH2 0xB6E DUP4 DUP4 PUSH2 0xB44 JUMP JUMPDEST SWAP2 POP DUP3 PUSH1 0x2 MUL DUP3 OR SWAP1 POP SWAP3 SWAP2 POP POP JUMP JUMPDEST PUSH2 0xB87 DUP3 PUSH2 0x853 JUMP JUMPDEST PUSH8 0xFFFFFFFFFFFFFFFF DUP2 GT ISZERO PUSH2 0xBA0 JUMPI PUSH2 0xB9F PUSH2 0x5E4 JUMP JUMPDEST JUMPDEST PUSH2 0xBAA DUP3 SLOAD PUSH2 0x9A1 JUMP JUMPDEST PUSH2 0xBB5 DUP3 DUP3 DUP6 PUSH2 0xAF1 JUMP JUMPDEST PUSH1 0x0 PUSH1 0x20 SWAP1 POP PUSH1 0x1F DUP4 GT PUSH1 0x1 DUP2 EQ PUSH2 0xBE8 JUMPI PUSH1 0x0 DUP5 ISZERO PUSH2 0xBD6 JUMPI DUP3 DUP8 ADD MLOAD SWAP1 POP JUMPDEST PUSH2 0xBE0 DUP6 DUP3 PUSH2 0xB62 JUMP JUMPDEST DUP7 SSTORE POP PUSH2 0xC48 JUMP JUMPDEST PUSH1 0x1F NOT DUP5 AND PUSH2 0xBF6 DUP7 PUSH2 0x9D2 JUMP JUMPDEST PUSH1 0x0 JUMPDEST DUP3 DUP2 LT ISZERO PUSH2 0xC1E JUMPI DUP5 DUP10 ADD MLOAD DUP3 SSTORE PUSH1 0x1 DUP3 ADD SWAP2 POP PUSH1 0x20 DUP6 ADD SWAP5 POP PUSH1 0x20 DUP2 ADD SWAP1 POP PUSH2 0xBF9 JUMP JUMPDEST DUP7 DUP4 LT ISZERO PUSH2 0xC3B JUMPI DUP5 DUP10 ADD MLOAD PUSH2 0xC37 PUSH1 0x1F DUP10 AND DUP3 PUSH2 0xB44 JUMP JUMPDEST DUP4 SSTORE POP JUMPDEST PUSH1 0x1 PUSH1 0x2 DUP9 MUL ADD DUP9 SSTORE POP POP POP JUMPDEST POP POP POP POP POP POP JUMP INVALID LOG2 PUSH5 0x6970667358 0x22 SLT KECCAK256 BALANCE 0xD4 0x4D PUSH32 0xF1DBB38EA54C6731366A922E74EAF37391B5F56FF774ED8597F81E3C64736F6C PUSH4 0x43000811 STOP CALLER "
		},
		"gasEstimates": {
			"creation": {
				"codeDepositCost": "641200",
				"executionCost": "infinite",
				"totalCost": "infinite"
			},
			"external": {
				"getInfoByWallet(address)": "infinite",
				"sendNow(address)": "infinite",
				"setInfo(address,string,uint256,string,uint256,string)": "infinite"
			}
		},
		"methodIdentifiers": {
			"getInfoByWallet(address)": "8b9c657a",
			"sendNow(address)": "0b1fa23f",
			"setInfo(address,string,uint256,string,uint256,string)": "0ebcbdb8"
		}
	},
	"abi": [
		{
			"anonymous": false,
			"inputs": [
				{
					"indexed": false,
					"internalType": "address",
					"name": "from",
					"type": "address"
				},
				{
					"indexed": false,
					"internalType": "address",
					"name": "to",
					"type": "address"
				},
				{
					"indexed": false,
					"internalType": "uint256",
					"name": "amount",
					"type": "uint256"
				}
			],
			"name": "Sent",
			"type": "event"
		},
		{
			"anonymous": false,
			"inputs": [
				{
					"indexed": false,
					"internalType": "uint256",
					"name": "_value",
					"type": "uint256"
				}
			],
			"name": "howMuch",
			"type": "event"
		},
		{
			"inputs": [
				{
					"internalType": "address",
					"name": "",
					"type": "address"
				}
			],
			"name": "getInfoByWallet",
			"outputs": [
				{
					"internalType": "string",
					"name": "name",
					"type": "string"
				},
				{
					"internalType": "uint256",
					"name": "StudentID",
					"type": "uint256"
				},
				{
					"internalType": "string",
					"name": "major",
					"type": "string"
				},
				{
					"internalType": "uint256",
					"name": "gpa",
					"type": "uint256"
				},
				{
					"internalType": "string",
					"name": "company",
					"type": "string"
				},
				{
					"internalType": "uint256",
					"name": "balance",
					"type": "uint256"
				}
			],
			"stateMutability": "view",
			"type": "function"
		},
		{
			"inputs": [
				{
					"internalType": "address payable",
					"name": "receiver",
					"type": "address"
				}
			],
			"name": "sendNow",
			"outputs": [],
			"stateMutability": "payable",
			"type": "function"
		},
		{
			"inputs": [
				{
					"internalType": "address",
					"name": "_addr",
					"type": "address"
				},
				{
					"internalType": "string",
					"name": "_name",
					"type": "string"
				},
				{
					"internalType": "uint256",
					"name": "_StudentID",
					"type": "uint256"
				},
				{
					"internalType": "string",
					"name": "_major",
					"type": "string"
				},
				{
					"internalType": "uint256",
					"name": "_gpa",
					"type": "uint256"
				},
				{
					"internalType": "string",
					"name": "_company",
					"type": "string"
				}
			],
			"name": "setInfo",
			"outputs": [],
			"stateMutability": "payable",
			"type": "function"
		}
	]
}